{
	"data": {
		"bytecode": {
			"linkReferences": {
				"remix_accounts.sol": {
					"TestsAccounts": [
						{
							"length": 20,
							"start": 880
						}
					]
				},
				"remix_tests.sol": {
					"Assert": [
						{
							"length": 20,
							"start": 226
						},
						{
							"length": 20,
							"start": 348
						},
						{
							"length": 20,
							"start": 471
						},
						{
							"length": 20,
							"start": 604
						},
						{
							"length": 20,
							"start": 729
						},
						{
							"length": 20,
							"start": 853
						},
						{
							"length": 20,
							"start": 1092
						}
					]
				}
			},
			"object": "608060405234801561000f575f80fd5b50610a508061001d5f395ff3fe608060405260043610610049575f3560e01c8063011e64921461004d57806312d487ea1461006357806336c006561461008d5780637fea0d4b146100a35780639074416d146100b9575b5f80fd5b348015610058575f80fd5b506100616100c3565b005b34801561006e575f80fd5b50610077610235565b60405161008491906104bb565b60405180910390f35b348015610098575f80fd5b506100a161023d565b005b3480156100ae575f80fd5b506100b76102ba565b005b6100c1610336565b005b73__$acbfb1c35000d78352310b16a054a6b106$__6339df137f600280146040518263ffffffff1660e01b81526004016100fd919061053d565b602060405180830381865af4158015610118573d5f803e3d5ffd5b505050506040513d601f19601f8201168201806040525081019061013c9190610597565b5073__$acbfb1c35000d78352310b16a054a6b106$__63a079f1a3600260016040518363ffffffff1660e01b8152600401610178929190610624565b602060405180830381865af4158015610193573d5f803e3d5ffd5b505050506040513d601f19601f820116820180604052508101906101b79190610597565b5073__$acbfb1c35000d78352310b16a054a6b106$__63aea88952600260036040518363ffffffff1660e01b81526004016101f39291906106a8565b602060405180830381865af415801561020e573d5f803e3d5ffd5b505050506040513d601f19601f820116820180604052508101906102329190610597565b50565b5f6001905090565b73__$acbfb1c35000d78352310b16a054a6b106$__63561015e2600160026040518363ffffffff1660e01b815260040161027892919061072c565b602060405180830381865af4158015610293573d5f803e3d5ffd5b505050506040513d601f19601f820116820180604052508101906102b79190610597565b50565b73__$acbfb1c35000d78352310b16a054a6b106$__63abcd79606001806040518363ffffffff1660e01b81526004016102f49291906107b0565b602060405180830381865af415801561030f573d5f803e3d5ffd5b505050506040513d601f19601f820116820180604052508101906103339190610597565b50565b73__$acbfb1c35000d78352310b16a054a6b106$__63bfba5dd63373__$1068a87eb54ed04c4e435de35b2ebf536f$__63ce88b14560016040518263ffffffff1660e01b8152600401610389919061082c565b602060405180830381865af41580156103a4573d5f803e3d5ffd5b505050506040513d601f19601f820116820180604052508101906103c8919061089f565b6040518363ffffffff1660e01b81526004016103e5929190610923565b602060405180830381865af4158015610400573d5f803e3d5ffd5b505050506040513d601f19601f820116820180604052508101906104249190610597565b5073__$acbfb1c35000d78352310b16a054a6b106$__63abcd79603460646040518363ffffffff1660e01b815260040161045f9291906109e0565b602060405180830381865af415801561047a573d5f803e3d5ffd5b505050506040513d601f19601f8201168201806040525081019061049e9190610597565b50565b5f8115159050919050565b6104b5816104a1565b82525050565b5f6020820190506104ce5f8301846104ac565b92915050565b6104dd816104a1565b82525050565b5f82825260208201905092915050565b7f73686f756c6420626520747275650000000000000000000000000000000000005f82015250565b5f610527600e836104e3565b9150610532826104f3565b602082019050919050565b5f6040820190506105505f8301846104d4565b81810360208301526105618161051b565b905092915050565b5f80fd5b610576816104a1565b8114610580575f80fd5b50565b5f815190506105918161056d565b92915050565b5f602082840312156105ac576105ab610569565b5b5f6105b984828501610583565b91505092915050565b5f819050919050565b6105d4816105c2565b82525050565b7f322073686f756c642062652067726561746572207468616e20746f20310000005f82015250565b5f61060e601d836104e3565b9150610619826105da565b602082019050919050565b5f6060820190506106375f8301856105cb565b61064460208301846105cb565b818103604083015261065581610602565b90509392505050565b7f322073686f756c64206265206c6573736572207468616e20746f2033000000005f82015250565b5f610692601c836104e3565b915061069d8261065e565b602082019050919050565b5f6060820190506106bb5f8301856105cb565b6106c860208301846105cb565b81810360408301526106d981610686565b90509392505050565b7f312073686f756c64206e6f7420626520657175616c20746f20320000000000005f82015250565b5f610716601a836104e3565b9150610721826106e2565b602082019050919050565b5f60608201905061073f5f8301856105cb565b61074c60208301846105cb565b818103604083015261075d8161070a565b90509392505050565b7f312073686f756c6420626520657175616c20746f2031000000000000000000005f82015250565b5f61079a6016836104e3565b91506107a582610766565b602082019050919050565b5f6060820190506107c35f8301856105cb565b6107d060208301846105cb565b81810360408301526107e18161078e565b90509392505050565b5f819050919050565b5f819050919050565b5f61081661081161080c846107ea565b6107f3565b6105c2565b9050919050565b610826816107fc565b82525050565b5f60208201905061083f5f83018461081d565b92915050565b5f73ffffffffffffffffffffffffffffffffffffffff82169050919050565b5f61086e82610845565b9050919050565b61087e81610864565b8114610888575f80fd5b50565b5f8151905061089981610875565b92915050565b5f602082840312156108b4576108b3610569565b5b5f6108c18482850161088b565b91505092915050565b6108d381610864565b82525050565b7f496e76616c69642073656e6465720000000000000000000000000000000000005f82015250565b5f61090d600e836104e3565b9150610918826108d9565b602082019050919050565b5f6060820190506109365f8301856108ca565b61094360208301846108ca565b818103604083015261095481610901565b90509392505050565b5f819050919050565b5f61098061097b6109768461095d565b6107f3565b6105c2565b9050919050565b61099081610966565b82525050565b7f496e76616c69642076616c7565000000000000000000000000000000000000005f82015250565b5f6109ca600d836104e3565b91506109d582610996565b602082019050919050565b5f6060820190506109f35f8301856105cb565b610a006020830184610987565b8181036040830152610a11816109be565b9050939250505056fea2646970667358221220e891483e15cc205fbd2a6f21741abf80fe97a5ef5705112dbc1dae34149a20fa64736f6c63430008180033",
			"opcodes": "PUSH1 0x80 PUSH1 0x40 MSTORE CALLVALUE DUP1 ISZERO PUSH2 0xF JUMPI PUSH0 DUP1 REVERT JUMPDEST POP PUSH2 0xA50 DUP1 PUSH2 0x1D PUSH0 CODECOPY PUSH0 RETURN INVALID PUSH1 0x80 PUSH1 0x40 MSTORE PUSH1 0x4 CALLDATASIZE LT PUSH2 0x49 JUMPI PUSH0 CALLDATALOAD PUSH1 0xE0 SHR DUP1 PUSH4 0x11E6492 EQ PUSH2 0x4D JUMPI DUP1 PUSH4 0x12D487EA EQ PUSH2 0x63 JUMPI DUP1 PUSH4 0x36C00656 EQ PUSH2 0x8D JUMPI DUP1 PUSH4 0x7FEA0D4B EQ PUSH2 0xA3 JUMPI DUP1 PUSH4 0x9074416D EQ PUSH2 0xB9 JUMPI JUMPDEST PUSH0 DUP1 REVERT JUMPDEST CALLVALUE DUP1 ISZERO PUSH2 0x58 JUMPI PUSH0 DUP1 REVERT JUMPDEST POP PUSH2 0x61 PUSH2 0xC3 JUMP JUMPDEST STOP JUMPDEST CALLVALUE DUP1 ISZERO PUSH2 0x6E JUMPI PUSH0 DUP1 REVERT JUMPDEST POP PUSH2 0x77 PUSH2 0x235 JUMP JUMPDEST PUSH1 0x40 MLOAD PUSH2 0x84 SWAP2 SWAP1 PUSH2 0x4BB JUMP JUMPDEST PUSH1 0x40 MLOAD DUP1 SWAP2 SUB SWAP1 RETURN JUMPDEST CALLVALUE DUP1 ISZERO PUSH2 0x98 JUMPI PUSH0 DUP1 REVERT JUMPDEST POP PUSH2 0xA1 PUSH2 0x23D JUMP JUMPDEST STOP JUMPDEST CALLVALUE DUP1 ISZERO PUSH2 0xAE JUMPI PUSH0 DUP1 REVERT JUMPDEST POP PUSH2 0xB7 PUSH2 0x2BA JUMP JUMPDEST STOP JUMPDEST PUSH2 0xC1 PUSH2 0x336 JUMP JUMPDEST STOP JUMPDEST PUSH20 0x0 PUSH4 0x39DF137F PUSH1 0x2 DUP1 EQ PUSH1 0x40 MLOAD DUP3 PUSH4 0xFFFFFFFF AND PUSH1 0xE0 SHL DUP2 MSTORE PUSH1 0x4 ADD PUSH2 0xFD SWAP2 SWAP1 PUSH2 0x53D JUMP JUMPDEST PUSH1 0x20 PUSH1 0x40 MLOAD DUP1 DUP4 SUB DUP2 DUP7 GAS DELEGATECALL ISZERO DUP1 ISZERO PUSH2 0x118 JUMPI RETURNDATASIZE PUSH0 DUP1 RETURNDATACOPY RETURNDATASIZE PUSH0 REVERT JUMPDEST POP POP POP POP PUSH1 0x40 MLOAD RETURNDATASIZE PUSH1 0x1F NOT PUSH1 0x1F DUP3 ADD AND DUP3 ADD DUP1 PUSH1 0x40 MSTORE POP DUP2 ADD SWAP1 PUSH2 0x13C SWAP2 SWAP1 PUSH2 0x597 JUMP JUMPDEST POP PUSH20 0x0 PUSH4 0xA079F1A3 PUSH1 0x2 PUSH1 0x1 PUSH1 0x40 MLOAD DUP4 PUSH4 0xFFFFFFFF AND PUSH1 0xE0 SHL DUP2 MSTORE PUSH1 0x4 ADD PUSH2 0x178 SWAP3 SWAP2 SWAP1 PUSH2 0x624 JUMP JUMPDEST PUSH1 0x20 PUSH1 0x40 MLOAD DUP1 DUP4 SUB DUP2 DUP7 GAS DELEGATECALL ISZERO DUP1 ISZERO PUSH2 0x193 JUMPI RETURNDATASIZE PUSH0 DUP1 RETURNDATACOPY RETURNDATASIZE PUSH0 REVERT JUMPDEST POP POP POP POP PUSH1 0x40 MLOAD RETURNDATASIZE PUSH1 0x1F NOT PUSH1 0x1F DUP3 ADD AND DUP3 ADD DUP1 PUSH1 0x40 MSTORE POP DUP2 ADD SWAP1 PUSH2 0x1B7 SWAP2 SWAP1 PUSH2 0x597 JUMP JUMPDEST POP PUSH20 0x0 PUSH4 0xAEA88952 PUSH1 0x2 PUSH1 0x3 PUSH1 0x40 MLOAD DUP4 PUSH4 0xFFFFFFFF AND PUSH1 0xE0 SHL DUP2 MSTORE PUSH1 0x4 ADD PUSH2 0x1F3 SWAP3 SWAP2 SWAP1 PUSH2 0x6A8 JUMP JUMPDEST PUSH1 0x20 PUSH1 0x40 MLOAD DUP1 DUP4 SUB DUP2 DUP7 GAS DELEGATECALL ISZERO DUP1 ISZERO PUSH2 0x20E JUMPI RETURNDATASIZE PUSH0 DUP1 RETURNDATACOPY RETURNDATASIZE PUSH0 REVERT JUMPDEST POP POP POP POP PUSH1 0x40 MLOAD RETURNDATASIZE PUSH1 0x1F NOT PUSH1 0x1F DUP3 ADD AND DUP3 ADD DUP1 PUSH1 0x40 MSTORE POP DUP2 ADD SWAP1 PUSH2 0x232 SWAP2 SWAP1 PUSH2 0x597 JUMP JUMPDEST POP JUMP JUMPDEST PUSH0 PUSH1 0x1 SWAP1 POP SWAP1 JUMP JUMPDEST PUSH20 0x0 PUSH4 0x561015E2 PUSH1 0x1 PUSH1 0x2 PUSH1 0x40 MLOAD DUP4 PUSH4 0xFFFFFFFF AND PUSH1 0xE0 SHL DUP2 MSTORE PUSH1 0x4 ADD PUSH2 0x278 SWAP3 SWAP2 SWAP1 PUSH2 0x72C JUMP JUMPDEST PUSH1 0x20 PUSH1 0x40 MLOAD DUP1 DUP4 SUB DUP2 DUP7 GAS DELEGATECALL ISZERO DUP1 ISZERO PUSH2 0x293 JUMPI RETURNDATASIZE PUSH0 DUP1 RETURNDATACOPY RETURNDATASIZE PUSH0 REVERT JUMPDEST POP POP POP POP PUSH1 0x40 MLOAD RETURNDATASIZE PUSH1 0x1F NOT PUSH1 0x1F DUP3 ADD AND DUP3 ADD DUP1 PUSH1 0x40 MSTORE POP DUP2 ADD SWAP1 PUSH2 0x2B7 SWAP2 SWAP1 PUSH2 0x597 JUMP JUMPDEST POP JUMP JUMPDEST PUSH20 0x0 PUSH4 0xABCD7960 PUSH1 0x1 DUP1 PUSH1 0x40 MLOAD DUP4 PUSH4 0xFFFFFFFF AND PUSH1 0xE0 SHL DUP2 MSTORE PUSH1 0x4 ADD PUSH2 0x2F4 SWAP3 SWAP2 SWAP1 PUSH2 0x7B0 JUMP JUMPDEST PUSH1 0x20 PUSH1 0x40 MLOAD DUP1 DUP4 SUB DUP2 DUP7 GAS DELEGATECALL ISZERO DUP1 ISZERO PUSH2 0x30F JUMPI RETURNDATASIZE PUSH0 DUP1 RETURNDATACOPY RETURNDATASIZE PUSH0 REVERT JUMPDEST POP POP POP POP PUSH1 0x40 MLOAD RETURNDATASIZE PUSH1 0x1F NOT PUSH1 0x1F DUP3 ADD AND DUP3 ADD DUP1 PUSH1 0x40 MSTORE POP DUP2 ADD SWAP1 PUSH2 0x333 SWAP2 SWAP1 PUSH2 0x597 JUMP JUMPDEST POP JUMP JUMPDEST PUSH20 0x0 PUSH4 0xBFBA5DD6 CALLER PUSH20 0x0 PUSH4 0xCE88B145 PUSH1 0x1 PUSH1 0x40 MLOAD DUP3 PUSH4 0xFFFFFFFF AND PUSH1 0xE0 SHL DUP2 MSTORE PUSH1 0x4 ADD PUSH2 0x389 SWAP2 SWAP1 PUSH2 0x82C JUMP JUMPDEST PUSH1 0x20 PUSH1 0x40 MLOAD DUP1 DUP4 SUB DUP2 DUP7 GAS DELEGATECALL ISZERO DUP1 ISZERO PUSH2 0x3A4 JUMPI RETURNDATASIZE PUSH0 DUP1 RETURNDATACOPY RETURNDATASIZE PUSH0 REVERT JUMPDEST POP POP POP POP PUSH1 0x40 MLOAD RETURNDATASIZE PUSH1 0x1F NOT PUSH1 0x1F DUP3 ADD AND DUP3 ADD DUP1 PUSH1 0x40 MSTORE POP DUP2 ADD SWAP1 PUSH2 0x3C8 SWAP2 SWAP1 PUSH2 0x89F JUMP JUMPDEST PUSH1 0x40 MLOAD DUP4 PUSH4 0xFFFFFFFF AND PUSH1 0xE0 SHL DUP2 MSTORE PUSH1 0x4 ADD PUSH2 0x3E5 SWAP3 SWAP2 SWAP1 PUSH2 0x923 JUMP JUMPDEST PUSH1 0x20 PUSH1 0x40 MLOAD DUP1 DUP4 SUB DUP2 DUP7 GAS DELEGATECALL ISZERO DUP1 ISZERO PUSH2 0x400 JUMPI RETURNDATASIZE PUSH0 DUP1 RETURNDATACOPY RETURNDATASIZE PUSH0 REVERT JUMPDEST POP POP POP POP PUSH1 0x40 MLOAD RETURNDATASIZE PUSH1 0x1F NOT PUSH1 0x1F DUP3 ADD AND DUP3 ADD DUP1 PUSH1 0x40 MSTORE POP DUP2 ADD SWAP1 PUSH2 0x424 SWAP2 SWAP1 PUSH2 0x597 JUMP JUMPDEST POP PUSH20 0x0 PUSH4 0xABCD7960 CALLVALUE PUSH1 0x64 PUSH1 0x40 MLOAD DUP4 PUSH4 0xFFFFFFFF AND PUSH1 0xE0 SHL DUP2 MSTORE PUSH1 0x4 ADD PUSH2 0x45F SWAP3 SWAP2 SWAP1 PUSH2 0x9E0 JUMP JUMPDEST PUSH1 0x20 PUSH1 0x40 MLOAD DUP1 DUP4 SUB DUP2 DUP7 GAS DELEGATECALL ISZERO DUP1 ISZERO PUSH2 0x47A JUMPI RETURNDATASIZE PUSH0 DUP1 RETURNDATACOPY RETURNDATASIZE PUSH0 REVERT JUMPDEST POP POP POP POP PUSH1 0x40 MLOAD RETURNDATASIZE PUSH1 0x1F NOT PUSH1 0x1F DUP3 ADD AND DUP3 ADD DUP1 PUSH1 0x40 MSTORE POP DUP2 ADD SWAP1 PUSH2 0x49E SWAP2 SWAP1 PUSH2 0x597 JUMP JUMPDEST POP JUMP JUMPDEST PUSH0 DUP2 ISZERO ISZERO SWAP1 POP SWAP2 SWAP1 POP JUMP JUMPDEST PUSH2 0x4B5 DUP2 PUSH2 0x4A1 JUMP JUMPDEST DUP3 MSTORE POP POP JUMP JUMPDEST PUSH0 PUSH1 0x20 DUP3 ADD SWAP1 POP PUSH2 0x4CE PUSH0 DUP4 ADD DUP5 PUSH2 0x4AC JUMP JUMPDEST SWAP3 SWAP2 POP POP JUMP JUMPDEST PUSH2 0x4DD DUP2 PUSH2 0x4A1 JUMP JUMPDEST DUP3 MSTORE POP POP JUMP JUMPDEST PUSH0 DUP3 DUP3 MSTORE PUSH1 0x20 DUP3 ADD SWAP1 POP SWAP3 SWAP2 POP POP JUMP JUMPDEST PUSH32 0x73686F756C642062652074727565000000000000000000000000000000000000 PUSH0 DUP3 ADD MSTORE POP JUMP JUMPDEST PUSH0 PUSH2 0x527 PUSH1 0xE DUP4 PUSH2 0x4E3 JUMP JUMPDEST SWAP2 POP PUSH2 0x532 DUP3 PUSH2 0x4F3 JUMP JUMPDEST PUSH1 0x20 DUP3 ADD SWAP1 POP SWAP2 SWAP1 POP JUMP JUMPDEST PUSH0 PUSH1 0x40 DUP3 ADD SWAP1 POP PUSH2 0x550 PUSH0 DUP4 ADD DUP5 PUSH2 0x4D4 JUMP JUMPDEST DUP2 DUP2 SUB PUSH1 0x20 DUP4 ADD MSTORE PUSH2 0x561 DUP2 PUSH2 0x51B JUMP JUMPDEST SWAP1 POP SWAP3 SWAP2 POP POP JUMP JUMPDEST PUSH0 DUP1 REVERT JUMPDEST PUSH2 0x576 DUP2 PUSH2 0x4A1 JUMP JUMPDEST DUP2 EQ PUSH2 0x580 JUMPI PUSH0 DUP1 REVERT JUMPDEST POP JUMP JUMPDEST PUSH0 DUP2 MLOAD SWAP1 POP PUSH2 0x591 DUP2 PUSH2 0x56D JUMP JUMPDEST SWAP3 SWAP2 POP POP JUMP JUMPDEST PUSH0 PUSH1 0x20 DUP3 DUP5 SUB SLT ISZERO PUSH2 0x5AC JUMPI PUSH2 0x5AB PUSH2 0x569 JUMP JUMPDEST JUMPDEST PUSH0 PUSH2 0x5B9 DUP5 DUP3 DUP6 ADD PUSH2 0x583 JUMP JUMPDEST SWAP2 POP POP SWAP3 SWAP2 POP POP JUMP JUMPDEST PUSH0 DUP2 SWAP1 POP SWAP2 SWAP1 POP JUMP JUMPDEST PUSH2 0x5D4 DUP2 PUSH2 0x5C2 JUMP JUMPDEST DUP3 MSTORE POP POP JUMP JUMPDEST PUSH32 0x322073686F756C642062652067726561746572207468616E20746F2031000000 PUSH0 DUP3 ADD MSTORE POP JUMP JUMPDEST PUSH0 PUSH2 0x60E PUSH1 0x1D DUP4 PUSH2 0x4E3 JUMP JUMPDEST SWAP2 POP PUSH2 0x619 DUP3 PUSH2 0x5DA JUMP JUMPDEST PUSH1 0x20 DUP3 ADD SWAP1 POP SWAP2 SWAP1 POP JUMP JUMPDEST PUSH0 PUSH1 0x60 DUP3 ADD SWAP1 POP PUSH2 0x637 PUSH0 DUP4 ADD DUP6 PUSH2 0x5CB JUMP JUMPDEST PUSH2 0x644 PUSH1 0x20 DUP4 ADD DUP5 PUSH2 0x5CB JUMP JUMPDEST DUP2 DUP2 SUB PUSH1 0x40 DUP4 ADD MSTORE PUSH2 0x655 DUP2 PUSH2 0x602 JUMP JUMPDEST SWAP1 POP SWAP4 SWAP3 POP POP POP JUMP JUMPDEST PUSH32 0x322073686F756C64206265206C6573736572207468616E20746F203300000000 PUSH0 DUP3 ADD MSTORE POP JUMP JUMPDEST PUSH0 PUSH2 0x692 PUSH1 0x1C DUP4 PUSH2 0x4E3 JUMP JUMPDEST SWAP2 POP PUSH2 0x69D DUP3 PUSH2 0x65E JUMP JUMPDEST PUSH1 0x20 DUP3 ADD SWAP1 POP SWAP2 SWAP1 POP JUMP JUMPDEST PUSH0 PUSH1 0x60 DUP3 ADD SWAP1 POP PUSH2 0x6BB PUSH0 DUP4 ADD DUP6 PUSH2 0x5CB JUMP JUMPDEST PUSH2 0x6C8 PUSH1 0x20 DUP4 ADD DUP5 PUSH2 0x5CB JUMP JUMPDEST DUP2 DUP2 SUB PUSH1 0x40 DUP4 ADD MSTORE PUSH2 0x6D9 DUP2 PUSH2 0x686 JUMP JUMPDEST SWAP1 POP SWAP4 SWAP3 POP POP POP JUMP JUMPDEST PUSH32 0x312073686F756C64206E6F7420626520657175616C20746F2032000000000000 PUSH0 DUP3 ADD MSTORE POP JUMP JUMPDEST PUSH0 PUSH2 0x716 PUSH1 0x1A DUP4 PUSH2 0x4E3 JUMP JUMPDEST SWAP2 POP PUSH2 0x721 DUP3 PUSH2 0x6E2 JUMP JUMPDEST PUSH1 0x20 DUP3 ADD SWAP1 POP SWAP2 SWAP1 POP JUMP JUMPDEST PUSH0 PUSH1 0x60 DUP3 ADD SWAP1 POP PUSH2 0x73F PUSH0 DUP4 ADD DUP6 PUSH2 0x5CB JUMP JUMPDEST PUSH2 0x74C PUSH1 0x20 DUP4 ADD DUP5 PUSH2 0x5CB JUMP JUMPDEST DUP2 DUP2 SUB PUSH1 0x40 DUP4 ADD MSTORE PUSH2 0x75D DUP2 PUSH2 0x70A JUMP JUMPDEST SWAP1 POP SWAP4 SWAP3 POP POP POP JUMP JUMPDEST PUSH32 0x312073686F756C6420626520657175616C20746F203100000000000000000000 PUSH0 DUP3 ADD MSTORE POP JUMP JUMPDEST PUSH0 PUSH2 0x79A PUSH1 0x16 DUP4 PUSH2 0x4E3 JUMP JUMPDEST SWAP2 POP PUSH2 0x7A5 DUP3 PUSH2 0x766 JUMP JUMPDEST PUSH1 0x20 DUP3 ADD SWAP1 POP SWAP2 SWAP1 POP JUMP JUMPDEST PUSH0 PUSH1 0x60 DUP3 ADD SWAP1 POP PUSH2 0x7C3 PUSH0 DUP4 ADD DUP6 PUSH2 0x5CB JUMP JUMPDEST PUSH2 0x7D0 PUSH1 0x20 DUP4 ADD DUP5 PUSH2 0x5CB JUMP JUMPDEST DUP2 DUP2 SUB PUSH1 0x40 DUP4 ADD MSTORE PUSH2 0x7E1 DUP2 PUSH2 0x78E JUMP JUMPDEST SWAP1 POP SWAP4 SWAP3 POP POP POP JUMP JUMPDEST PUSH0 DUP2 SWAP1 POP SWAP2 SWAP1 POP JUMP JUMPDEST PUSH0 DUP2 SWAP1 POP SWAP2 SWAP1 POP JUMP JUMPDEST PUSH0 PUSH2 0x816 PUSH2 0x811 PUSH2 0x80C DUP5 PUSH2 0x7EA JUMP JUMPDEST PUSH2 0x7F3 JUMP JUMPDEST PUSH2 0x5C2 JUMP JUMPDEST SWAP1 POP SWAP2 SWAP1 POP JUMP JUMPDEST PUSH2 0x826 DUP2 PUSH2 0x7FC JUMP JUMPDEST DUP3 MSTORE POP POP JUMP JUMPDEST PUSH0 PUSH1 0x20 DUP3 ADD SWAP1 POP PUSH2 0x83F PUSH0 DUP4 ADD DUP5 PUSH2 0x81D JUMP JUMPDEST SWAP3 SWAP2 POP POP JUMP JUMPDEST PUSH0 PUSH20 0xFFFFFFFFFFFFFFFFFFFFFFFFFFFFFFFFFFFFFFFF DUP3 AND SWAP1 POP SWAP2 SWAP1 POP JUMP JUMPDEST PUSH0 PUSH2 0x86E DUP3 PUSH2 0x845 JUMP JUMPDEST SWAP1 POP SWAP2 SWAP1 POP JUMP JUMPDEST PUSH2 0x87E DUP2 PUSH2 0x864 JUMP JUMPDEST DUP2 EQ PUSH2 0x888 JUMPI PUSH0 DUP1 REVERT JUMPDEST POP JUMP JUMPDEST PUSH0 DUP2 MLOAD SWAP1 POP PUSH2 0x899 DUP2 PUSH2 0x875 JUMP JUMPDEST SWAP3 SWAP2 POP POP JUMP JUMPDEST PUSH0 PUSH1 0x20 DUP3 DUP5 SUB SLT ISZERO PUSH2 0x8B4 JUMPI PUSH2 0x8B3 PUSH2 0x569 JUMP JUMPDEST JUMPDEST PUSH0 PUSH2 0x8C1 DUP5 DUP3 DUP6 ADD PUSH2 0x88B JUMP JUMPDEST SWAP2 POP POP SWAP3 SWAP2 POP POP JUMP JUMPDEST PUSH2 0x8D3 DUP2 PUSH2 0x864 JUMP JUMPDEST DUP3 MSTORE POP POP JUMP JUMPDEST PUSH32 0x496E76616C69642073656E646572000000000000000000000000000000000000 PUSH0 DUP3 ADD MSTORE POP JUMP JUMPDEST PUSH0 PUSH2 0x90D PUSH1 0xE DUP4 PUSH2 0x4E3 JUMP JUMPDEST SWAP2 POP PUSH2 0x918 DUP3 PUSH2 0x8D9 JUMP JUMPDEST PUSH1 0x20 DUP3 ADD SWAP1 POP SWAP2 SWAP1 POP JUMP JUMPDEST PUSH0 PUSH1 0x60 DUP3 ADD SWAP1 POP PUSH2 0x936 PUSH0 DUP4 ADD DUP6 PUSH2 0x8CA JUMP JUMPDEST PUSH2 0x943 PUSH1 0x20 DUP4 ADD DUP5 PUSH2 0x8CA JUMP JUMPDEST DUP2 DUP2 SUB PUSH1 0x40 DUP4 ADD MSTORE PUSH2 0x954 DUP2 PUSH2 0x901 JUMP JUMPDEST SWAP1 POP SWAP4 SWAP3 POP POP POP JUMP JUMPDEST PUSH0 DUP2 SWAP1 POP SWAP2 SWAP1 POP JUMP JUMPDEST PUSH0 PUSH2 0x980 PUSH2 0x97B PUSH2 0x976 DUP5 PUSH2 0x95D JUMP JUMPDEST PUSH2 0x7F3 JUMP JUMPDEST PUSH2 0x5C2 JUMP JUMPDEST SWAP1 POP SWAP2 SWAP1 POP JUMP JUMPDEST PUSH2 0x990 DUP2 PUSH2 0x966 JUMP JUMPDEST DUP3 MSTORE POP POP JUMP JUMPDEST PUSH32 0x496E76616C69642076616C756500000000000000000000000000000000000000 PUSH0 DUP3 ADD MSTORE POP JUMP JUMPDEST PUSH0 PUSH2 0x9CA PUSH1 0xD DUP4 PUSH2 0x4E3 JUMP JUMPDEST SWAP2 POP PUSH2 0x9D5 DUP3 PUSH2 0x996 JUMP JUMPDEST PUSH1 0x20 DUP3 ADD SWAP1 POP SWAP2 SWAP1 POP JUMP JUMPDEST PUSH0 PUSH1 0x60 DUP3 ADD SWAP1 POP PUSH2 0x9F3 PUSH0 DUP4 ADD DUP6 PUSH2 0x5CB JUMP JUMPDEST PUSH2 0xA00 PUSH1 0x20 DUP4 ADD DUP5 PUSH2 0x987 JUMP JUMPDEST DUP2 DUP2 SUB PUSH1 0x40 DUP4 ADD MSTORE PUSH2 0xA11 DUP2 PUSH2 0x9BE JUMP JUMPDEST SWAP1 POP SWAP4 SWAP3 POP POP POP JUMP INVALID LOG2 PUSH5 0x6970667358 0x22 SLT KECCAK256 0xE8 SWAP2 BASEFEE RETURNDATACOPY ISZERO 0xCC KECCAK256 PUSH0 0xBD 0x2A PUSH16 0x21741ABF80FE97A5EF5705112DBC1DAE CALLVALUE EQ SWAP11 KECCAK256 STATICCALL PUSH5 0x736F6C6343 STOP ADDMOD XOR STOP CALLER "
		},
		"gasEstimates": {
			"creation": {
				"codeDepositCost": "528000",
				"executionCost": "560",
				"totalCost": "528560"
			},
			"external": {
				"beforeAll()": "infinite",
				"checkFailure()": "infinite",
				"checkSenderAndValue()": "infinite",
				"checkSuccess()": "infinite",
				"checkSuccess2()": "338"
			}
		},
		"methodIdentifiers": {
			"beforeAll()": "7fea0d4b",
			"checkFailure()": "36c00656",
			"checkSenderAndValue()": "9074416d",
			"checkSuccess()": "011e6492",
			"checkSuccess2()": "12d487ea"
		}
	},
	"abi": [
		{
			"inputs": [],
			"name": "beforeAll",
			"outputs": [],
			"stateMutability": "nonpayable",
			"type": "function"
		},
		{
			"inputs": [],
			"name": "checkFailure",
			"outputs": [],
			"stateMutability": "nonpayable",
			"type": "function"
		},
		{
			"inputs": [],
			"name": "checkSenderAndValue",
			"outputs": [],
			"stateMutability": "payable",
			"type": "function"
		},
		{
			"inputs": [],
			"name": "checkSuccess",
			"outputs": [],
			"stateMutability": "nonpayable",
			"type": "function"
		},
		{
			"inputs": [],
			"name": "checkSuccess2",
			"outputs": [
				{
					"internalType": "bool",
					"name": "",
					"type": "bool"
				}
			],
			"stateMutability": "pure",
			"type": "function"
		}
	]
}