{
	"mainnet/0x81906929b10416a65A305d498267fE20adfC4746/contracts/Marketplace.sol": {
		"Marketplace": {
			"abi": [
				{
					"inputs": [
						{
							"internalType": "address",
							"name": "_nftContract",
							"type": "address"
						},
						{
							"internalType": "address",
							"name": "_MLIFE",
							"type": "address"
						},
						{
							"internalType": "address",
							"name": "_tokenUSDT",
							"type": "address"
						},
						{
							"internalType": "address",
							"name": "_tokenUSDC",
							"type": "address"
						}
					],
					"stateMutability": "nonpayable",
					"type": "constructor"
				},
				{
					"inputs": [],
					"name": "EnforcedPause",
					"type": "error"
				},
				{
					"inputs": [],
					"name": "ExpectedPause",
					"type": "error"
				},
				{
					"inputs": [
						{
							"internalType": "address",
							"name": "owner",
							"type": "address"
						}
					],
					"name": "OwnableInvalidOwner",
					"type": "error"
				},
				{
					"inputs": [
						{
							"internalType": "address",
							"name": "account",
							"type": "address"
						}
					],
					"name": "OwnableUnauthorizedAccount",
					"type": "error"
				},
				{
					"inputs": [],
					"name": "ReentrancyGuardReentrantCall",
					"type": "error"
				},
				{
					"inputs": [
						{
							"internalType": "address",
							"name": "token",
							"type": "address"
						}
					],
					"name": "SafeERC20FailedOperation",
					"type": "error"
				},
				{
					"anonymous": false,
					"inputs": [
						{
							"indexed": false,
							"internalType": "address",
							"name": "_admin",
							"type": "address"
						},
						{
							"indexed": false,
							"internalType": "uint256",
							"name": "_amount",
							"type": "uint256"
						}
					],
					"name": "AdminEthWithdrawals",
					"type": "event"
				},
				{
					"anonymous": false,
					"inputs": [
						{
							"indexed": false,
							"internalType": "address",
							"name": "_admin",
							"type": "address"
						},
						{
							"indexed": false,
							"internalType": "address",
							"name": "_token",
							"type": "address"
						},
						{
							"indexed": false,
							"internalType": "uint256",
							"name": "_amount",
							"type": "uint256"
						}
					],
					"name": "AdminTokenWithdrawals",
					"type": "event"
				},
				{
					"anonymous": false,
					"inputs": [
						{
							"indexed": true,
							"internalType": "uint256",
							"name": "tokenId",
							"type": "uint256"
						},
						{
							"indexed": true,
							"internalType": "address",
							"name": "bidder",
							"type": "address"
						},
						{
							"indexed": false,
							"internalType": "uint256",
							"name": "amount",
							"type": "uint256"
						}
					],
					"name": "BidPlaced",
					"type": "event"
				},
				{
					"anonymous": false,
					"inputs": [
						{
							"indexed": false,
							"internalType": "uint256",
							"name": "tokenId",
							"type": "uint256"
						},
						{
							"indexed": true,
							"internalType": "address",
							"name": "bidder",
							"type": "address"
						}
					],
					"name": "BidWithdrawn",
					"type": "event"
				},
				{
					"anonymous": false,
					"inputs": [
						{
							"indexed": false,
							"internalType": "uint256",
							"name": "_tokenId",
							"type": "uint256"
						},
						{
							"indexed": false,
							"internalType": "address",
							"name": "seller",
							"type": "address"
						}
					],
					"name": "ListingCancelled",
					"type": "event"
				},
				{
					"anonymous": false,
					"inputs": [
						{
							"indexed": true,
							"internalType": "address",
							"name": "seller",
							"type": "address"
						},
						{
							"indexed": true,
							"internalType": "uint256",
							"name": "tokenId",
							"type": "uint256"
						},
						{
							"indexed": false,
							"internalType": "address",
							"name": "paymentToken",
							"type": "address"
						},
						{
							"indexed": false,
							"internalType": "uint256",
							"name": "minPrice",
							"type": "uint256"
						}
					],
					"name": "ListingCreated",
					"type": "event"
				},
				{
					"anonymous": false,
					"inputs": [
						{
							"indexed": false,
							"internalType": "address",
							"name": "_oldAddress",
							"type": "address"
						},
						{
							"indexed": false,
							"internalType": "address",
							"name": "_newAddress",
							"type": "address"
						}
					],
					"name": "MLifeTokenAddressUpdated",
					"type": "event"
				},
				{
					"anonymous": false,
					"inputs": [
						{
							"indexed": false,
							"internalType": "uint256",
							"name": "newFee",
							"type": "uint256"
						}
					],
					"name": "MarketplaceFeeUpdated",
					"type": "event"
				},
				{
					"anonymous": false,
					"inputs": [
						{
							"indexed": false,
							"internalType": "uint256",
							"name": "_newMaxFee",
							"type": "uint256"
						}
					],
					"name": "MaxFeeUpdated",
					"type": "event"
				},
				{
					"anonymous": false,
					"inputs": [
						{
							"indexed": false,
							"internalType": "uint256",
							"name": "tokenId",
							"type": "uint256"
						},
						{
							"indexed": true,
							"internalType": "address",
							"name": "buyer",
							"type": "address"
						},
						{
							"indexed": true,
							"internalType": "address",
							"name": "seller",
							"type": "address"
						},
						{
							"indexed": false,
							"internalType": "uint256",
							"name": "price",
							"type": "uint256"
						}
					],
					"name": "NFTSold",
					"type": "event"
				},
				{
					"anonymous": false,
					"inputs": [
						{
							"indexed": false,
							"internalType": "address",
							"name": "_oldAddress",
							"type": "address"
						},
						{
							"indexed": false,
							"internalType": "address",
							"name": "_newAddress",
							"type": "address"
						}
					],
					"name": "NftAddressUpdated",
					"type": "event"
				},
				{
					"anonymous": false,
					"inputs": [
						{
							"indexed": true,
							"internalType": "address",
							"name": "previousOwner",
							"type": "address"
						},
						{
							"indexed": true,
							"internalType": "address",
							"name": "newOwner",
							"type": "address"
						}
					],
					"name": "OwnershipTransferred",
					"type": "event"
				},
				{
					"anonymous": false,
					"inputs": [
						{
							"indexed": false,
							"internalType": "address",
							"name": "account",
							"type": "address"
						}
					],
					"name": "Paused",
					"type": "event"
				},
				{
					"anonymous": false,
					"inputs": [],
					"name": "Paused",
					"type": "event"
				},
				{
					"anonymous": false,
					"inputs": [
						{
							"indexed": false,
							"internalType": "address",
							"name": "_receiver",
							"type": "address"
						},
						{
							"indexed": false,
							"internalType": "address",
							"name": "_tokenType",
							"type": "address"
						},
						{
							"indexed": false,
							"internalType": "uint256",
							"name": "_amount",
							"type": "uint256"
						}
					],
					"name": "RefundIssued",
					"type": "event"
				},
				{
					"anonymous": false,
					"inputs": [
						{
							"indexed": false,
							"internalType": "address",
							"name": "_paymentType",
							"type": "address"
						},
						{
							"indexed": false,
							"internalType": "address",
							"name": "_receiver",
							"type": "address"
						},
						{
							"indexed": false,
							"internalType": "uint256",
							"name": "_amount",
							"type": "uint256"
						}
					],
					"name": "RefundWithdrawn",
					"type": "event"
				},
				{
					"anonymous": false,
					"inputs": [
						{
							"indexed": false,
							"internalType": "address",
							"name": "account",
							"type": "address"
						}
					],
					"name": "Unpaused",
					"type": "event"
				},
				{
					"anonymous": false,
					"inputs": [],
					"name": "Unpaused",
					"type": "event"
				},
				{
					"anonymous": false,
					"inputs": [
						{
							"indexed": false,
							"internalType": "address",
							"name": "_oldAddress",
							"type": "address"
						},
						{
							"indexed": false,
							"internalType": "address",
							"name": "_newAddress",
							"type": "address"
						}
					],
					"name": "UsdcAddressUpdated",
					"type": "event"
				},
				{
					"anonymous": false,
					"inputs": [
						{
							"indexed": false,
							"internalType": "address",
							"name": "_oldAddress",
							"type": "address"
						},
						{
							"indexed": false,
							"internalType": "address",
							"name": "_newAddress",
							"type": "address"
						}
					],
					"name": "UsdtAddressUpdated",
					"type": "event"
				},
				{
					"inputs": [],
					"name": "FEE_DENOMINATOR",
					"outputs": [
						{
							"internalType": "uint256",
							"name": "",
							"type": "uint256"
						}
					],
					"stateMutability": "view",
					"type": "function"
				},
				{
					"inputs": [],
					"name": "MAX_FEE",
					"outputs": [
						{
							"internalType": "uint256",
							"name": "",
							"type": "uint256"
						}
					],
					"stateMutability": "view",
					"type": "function"
				},
				{
					"inputs": [],
					"name": "MLIFE",
					"outputs": [
						{
							"internalType": "address",
							"name": "",
							"type": "address"
						}
					],
					"stateMutability": "view",
					"type": "function"
				},
				{
					"inputs": [
						{
							"internalType": "uint256",
							"name": "_tokenId",
							"type": "uint256"
						}
					],
					"name": "acceptBid",
					"outputs": [],
					"stateMutability": "nonpayable",
					"type": "function"
				},
				{
					"inputs": [],
					"name": "adminsEthEarnings",
					"outputs": [
						{
							"internalType": "uint256",
							"name": "",
							"type": "uint256"
						}
					],
					"stateMutability": "view",
					"type": "function"
				},
				{
					"inputs": [
						{
							"internalType": "address",
							"name": "",
							"type": "address"
						}
					],
					"name": "adminsTokenEarnings",
					"outputs": [
						{
							"internalType": "uint256",
							"name": "",
							"type": "uint256"
						}
					],
					"stateMutability": "view",
					"type": "function"
				},
				{
					"inputs": [
						{
							"internalType": "uint256",
							"name": "_tokenId",
							"type": "uint256"
						}
					],
					"name": "cancelListing",
					"outputs": [],
					"stateMutability": "nonpayable",
					"type": "function"
				},
				{
					"inputs": [
						{
							"internalType": "uint256",
							"name": "tokenId",
							"type": "uint256"
						},
						{
							"internalType": "address",
							"name": "paymentToken",
							"type": "address"
						},
						{
							"internalType": "uint256",
							"name": "minPrice",
							"type": "uint256"
						}
					],
					"name": "createListing",
					"outputs": [],
					"stateMutability": "nonpayable",
					"type": "function"
				},
				{
					"inputs": [
						{
							"internalType": "uint256",
							"name": "",
							"type": "uint256"
						}
					],
					"name": "currentBids",
					"outputs": [
						{
							"internalType": "address",
							"name": "bidder",
							"type": "address"
						},
						{
							"internalType": "uint256",
							"name": "amount",
							"type": "uint256"
						}
					],
					"stateMutability": "view",
					"type": "function"
				},
				{
					"inputs": [
						{
							"internalType": "address",
							"name": "",
							"type": "address"
						}
					],
					"name": "ethRefundsForBidders",
					"outputs": [
						{
							"internalType": "uint256",
							"name": "",
							"type": "uint256"
						}
					],
					"stateMutability": "view",
					"type": "function"
				},
				{
					"inputs": [
						{
							"internalType": "uint256",
							"name": "",
							"type": "uint256"
						}
					],
					"name": "listings",
					"outputs": [
						{
							"internalType": "address",
							"name": "seller",
							"type": "address"
						},
						{
							"internalType": "uint256",
							"name": "tokenId",
							"type": "uint256"
						},
						{
							"internalType": "address",
							"name": "paymentToken",
							"type": "address"
						},
						{
							"internalType": "uint256",
							"name": "minPrice",
							"type": "uint256"
						},
						{
							"internalType": "bool",
							"name": "active",
							"type": "bool"
						}
					],
					"stateMutability": "view",
					"type": "function"
				},
				{
					"inputs": [],
					"name": "marketplaceFee",
					"outputs": [
						{
							"internalType": "uint256",
							"name": "",
							"type": "uint256"
						}
					],
					"stateMutability": "view",
					"type": "function"
				},
				{
					"inputs": [],
					"name": "nftContract",
					"outputs": [
						{
							"internalType": "address",
							"name": "",
							"type": "address"
						}
					],
					"stateMutability": "view",
					"type": "function"
				},
				{
					"inputs": [],
					"name": "owner",
					"outputs": [
						{
							"internalType": "address",
							"name": "",
							"type": "address"
						}
					],
					"stateMutability": "view",
					"type": "function"
				},
				{
					"inputs": [],
					"name": "pause",
					"outputs": [],
					"stateMutability": "nonpayable",
					"type": "function"
				},
				{
					"inputs": [],
					"name": "paused",
					"outputs": [
						{
							"internalType": "bool",
							"name": "",
							"type": "bool"
						}
					],
					"stateMutability": "view",
					"type": "function"
				},
				{
					"inputs": [
						{
							"internalType": "uint256",
							"name": "_tokenId",
							"type": "uint256"
						},
						{
							"internalType": "uint256",
							"name": "_amount",
							"type": "uint256"
						},
						{
							"internalType": "address",
							"name": "_paymentType",
							"type": "address"
						}
					],
					"name": "placeBid",
					"outputs": [],
					"stateMutability": "payable",
					"type": "function"
				},
				{
					"inputs": [],
					"name": "renounceOwnership",
					"outputs": [],
					"stateMutability": "nonpayable",
					"type": "function"
				},
				{
					"inputs": [
						{
							"internalType": "address",
							"name": "",
							"type": "address"
						},
						{
							"internalType": "address",
							"name": "",
							"type": "address"
						}
					],
					"name": "tokenRefundsForBidders",
					"outputs": [
						{
							"internalType": "uint256",
							"name": "",
							"type": "uint256"
						}
					],
					"stateMutability": "view",
					"type": "function"
				},
				{
					"inputs": [],
					"name": "tokenUSDC",
					"outputs": [
						{
							"internalType": "address",
							"name": "",
							"type": "address"
						}
					],
					"stateMutability": "view",
					"type": "function"
				},
				{
					"inputs": [],
					"name": "tokenUSDT",
					"outputs": [
						{
							"internalType": "address",
							"name": "",
							"type": "address"
						}
					],
					"stateMutability": "view",
					"type": "function"
				},
				{
					"inputs": [
						{
							"internalType": "address",
							"name": "newOwner",
							"type": "address"
						}
					],
					"name": "transferOwnership",
					"outputs": [],
					"stateMutability": "nonpayable",
					"type": "function"
				},
				{
					"inputs": [],
					"name": "unpause",
					"outputs": [],
					"stateMutability": "nonpayable",
					"type": "function"
				},
				{
					"inputs": [
						{
							"internalType": "address",
							"name": "_newAddress",
							"type": "address"
						}
					],
					"name": "updateMLifeTokenAddress",
					"outputs": [],
					"stateMutability": "nonpayable",
					"type": "function"
				},
				{
					"inputs": [
						{
							"internalType": "uint256",
							"name": "_newFee",
							"type": "uint256"
						}
					],
					"name": "updateMarketplaceFee",
					"outputs": [],
					"stateMutability": "nonpayable",
					"type": "function"
				},
				{
					"inputs": [
						{
							"internalType": "uint256",
							"name": "_newMaxFee",
							"type": "uint256"
						}
					],
					"name": "updateMaxFee",
					"outputs": [],
					"stateMutability": "nonpayable",
					"type": "function"
				},
				{
					"inputs": [
						{
							"internalType": "address",
							"name": "_newAddress",
							"type": "address"
						}
					],
					"name": "updateNftContract",
					"outputs": [],
					"stateMutability": "nonpayable",
					"type": "function"
				},
				{
					"inputs": [
						{
							"internalType": "address",
							"name": "_newAddress",
							"type": "address"
						}
					],
					"name": "updateUsdcTokenAddress",
					"outputs": [],
					"stateMutability": "nonpayable",
					"type": "function"
				},
				{
					"inputs": [
						{
							"internalType": "address",
							"name": "_newAddress",
							"type": "address"
						}
					],
					"name": "updateUsdtTokenAddress",
					"outputs": [],
					"stateMutability": "nonpayable",
					"type": "function"
				},
				{
					"inputs": [],
					"name": "withdrawAdminEthEarnings",
					"outputs": [],
					"stateMutability": "nonpayable",
					"type": "function"
				},
				{
					"inputs": [
						{
							"internalType": "address",
							"name": "_tokenAddress",
							"type": "address"
						}
					],
					"name": "withdrawAdminTokenEarnings",
					"outputs": [],
					"stateMutability": "nonpayable",
					"type": "function"
				},
				{
					"inputs": [
						{
							"internalType": "uint256",
							"name": "_tokenId",
							"type": "uint256"
						}
					],
					"name": "withdrawBid",
					"outputs": [],
					"stateMutability": "nonpayable",
					"type": "function"
				},
				{
					"inputs": [],
					"name": "withdrawEthRefunds",
					"outputs": [],
					"stateMutability": "nonpayable",
					"type": "function"
				},
				{
					"inputs": [
						{
							"internalType": "address",
							"name": "_paymentToken",
							"type": "address"
						}
					],
					"name": "withdrawTokenRefunds",
					"outputs": [],
					"stateMutability": "nonpayable",
					"type": "function"
				}
			],
			"devdoc": {
				"author": "https://managelife.io",
				"details": "A different marketplace contract needs to be built for the NFTi",
				"errors": {
					"EnforcedPause()": [
						{
							"details": "The operation failed because the contract is paused."
						}
					],
					"ExpectedPause()": [
						{
							"details": "The operation failed because the contract is not paused."
						}
					],
					"OwnableInvalidOwner(address)": [
						{
							"details": "The owner is not a valid owner account. (eg. `address(0)`)"
						}
					],
					"OwnableUnauthorizedAccount(address)": [
						{
							"details": "The caller account is not authorized to perform an operation."
						}
					],
					"ReentrancyGuardReentrantCall()": [
						{
							"details": "Unauthorized reentrant call."
						}
					],
					"SafeERC20FailedOperation(address)": [
						{
							"details": "An operation with an ERC-20 token failed."
						}
					]
				},
				"events": {
					"Paused(address)": {
						"details": "Emitted when the pause is triggered by `account`."
					},
					"Unpaused(address)": {
						"details": "Emitted when the pause is lifted by `account`."
					}
				},
				"kind": "dev",
				"methods": {
					"owner()": {
						"details": "Returns the address of the current owner."
					},
					"paused()": {
						"details": "Returns true if the contract is paused, and false otherwise."
					},
					"renounceOwnership()": {
						"details": "Leaves the contract without owner. It will not be possible to call `onlyOwner` functions. Can only be called by the current owner. NOTE: Renouncing ownership will leave the contract without an owner, thereby disabling any functionality that is only available to the owner."
					},
					"transferOwnership(address)": {
						"details": "Transfers ownership of the contract to a new account (`newOwner`). Can only be called by the current owner."
					}
				},
				"title": "ManageLife Marketplace",
				"version": 1
			},
			"evm": {
				"assembly": "    /* \"mainnet/0x81906929b10416a65A305d498267fE20adfC4746/contracts/Marketplace.sol\":659:15784  contract Marketplace is ReentrancyGuard, Ownable, Pausable {... */\n  mstore(0x40, 0x80)\n    /* \"mainnet/0x81906929b10416a65A305d498267fE20adfC4746/contracts/Marketplace.sol\":1051:1054  200 */\n  0xc8\n    /* \"mainnet/0x81906929b10416a65A305d498267fE20adfC4746/contracts/Marketplace.sol\":1019:1054  uint256 public marketplaceFee = 200 */\n  0x02\n  sstore\n    /* \"mainnet/0x81906929b10416a65A305d498267fE20adfC4746/contracts/Marketplace.sol\":1151:1154  500 */\n  0x01f4\n    /* \"mainnet/0x81906929b10416a65A305d498267fE20adfC4746/contracts/Marketplace.sol\":1126:1154  uint256 public MAX_FEE = 500 */\n  0x03\n  sstore\n    /* \"mainnet/0x81906929b10416a65A305d498267fE20adfC4746/contracts/Marketplace.sol\":3584:3892  constructor(... */\n  callvalue\n  dup1\n  iszero\n  tag_1\n  jumpi\n  0x00\n  dup1\n  revert\ntag_1:\n  pop\n  mload(0x40)\n  sub(codesize, bytecodeSize)\n  dup1\n  bytecodeSize\n  dup4\n  codecopy\n  dup2\n  dup2\n  add\n  0x40\n  mstore\n  dup2\n  add\n  swap1\n  tag_2\n  swap2\n  swap1\n  tag_3\n  jump\t// in\ntag_2:\n    /* \"mainnet/0x81906929b10416a65A305d498267fE20adfC4746/contracts/Marketplace.sol\":3720:3730  msg.sender */\n  caller\n    /* \"@openzeppelin/contracts/utils/ReentrancyGuard.sol\":1857:1858  1 */\n  0x01\n    /* \"@openzeppelin/contracts/utils/ReentrancyGuard.sol\":2061:2068  _status */\n  0x00\n    /* \"@openzeppelin/contracts/utils/ReentrancyGuard.sol\":2061:2082  _status = NOT_ENTERED */\n  dup2\n  swap1\n  sstore\n  pop\n    /* \"@openzeppelin/contracts/access/Ownable.sol\":1297:1298  0 */\n  0x00\n    /* \"@openzeppelin/contracts/access/Ownable.sol\":1273:1299  initialOwner == address(0) */\n  0xffffffffffffffffffffffffffffffffffffffff\n  and\n    /* \"@openzeppelin/contracts/access/Ownable.sol\":1273:1285  initialOwner */\n  dup2\n    /* \"@openzeppelin/contracts/access/Ownable.sol\":1273:1299  initialOwner == address(0) */\n  0xffffffffffffffffffffffffffffffffffffffff\n  and\n  sub\n    /* \"@openzeppelin/contracts/access/Ownable.sol\":1269:1364  if (initialOwner == address(0)) {... */\n  tag_10\n  jumpi\n    /* \"@openzeppelin/contracts/access/Ownable.sol\":1350:1351  0 */\n  0x00\n    /* \"@openzeppelin/contracts/access/Ownable.sol\":1322:1353  OwnableInvalidOwner(address(0)) */\n  mload(0x40)\n  0x1e4fbdf700000000000000000000000000000000000000000000000000000000\n  dup2\n  mstore\n  0x04\n  add\n  tag_11\n  swap2\n  swap1\n  tag_12\n  jump\t// in\ntag_11:\n  mload(0x40)\n  dup1\n  swap2\n  sub\n  swap1\n  revert\n    /* \"@openzeppelin/contracts/access/Ownable.sol\":1269:1364  if (initialOwner == address(0)) {... */\ntag_10:\n    /* \"@openzeppelin/contracts/access/Ownable.sol\":1373:1405  _transferOwnership(initialOwner) */\n  tag_13\n    /* \"@openzeppelin/contracts/access/Ownable.sol\":1392:1404  initialOwner */\n  dup2\n    /* \"@openzeppelin/contracts/access/Ownable.sol\":1373:1391  _transferOwnership */\n  shl(0x20, tag_14)\n    /* \"@openzeppelin/contracts/access/Ownable.sol\":1373:1405  _transferOwnership(initialOwner) */\n  0x20\n  shr\n  jump\t// in\ntag_13:\n    /* \"@openzeppelin/contracts/access/Ownable.sol\":1225:1412  constructor(address initialOwner) {... */\n  pop\n    /* \"@openzeppelin/contracts/utils/Pausable.sol\":1241:1246  false */\n  0x00\n    /* \"@openzeppelin/contracts/utils/Pausable.sol\":1231:1238  _paused */\n  0x01\n  0x14\n    /* \"@openzeppelin/contracts/utils/Pausable.sol\":1231:1246  _paused = false */\n  0x0100\n  exp\n  dup2\n  sload\n  dup2\n  0xff\n  mul\n  not\n  and\n  swap1\n  dup4\n  iszero\n  iszero\n  mul\n  or\n  swap1\n  sstore\n  pop\n    /* \"mainnet/0x81906929b10416a65A305d498267fE20adfC4746/contracts/Marketplace.sol\":3785:3797  _nftContract */\n  dup4\n    /* \"mainnet/0x81906929b10416a65A305d498267fE20adfC4746/contracts/Marketplace.sol\":3771:3782  nftContract */\n  0x0d\n  0x00\n    /* \"mainnet/0x81906929b10416a65A305d498267fE20adfC4746/contracts/Marketplace.sol\":3771:3797  nftContract = _nftContract */\n  0x0100\n  exp\n  dup2\n  sload\n  dup2\n  0xffffffffffffffffffffffffffffffffffffffff\n  mul\n  not\n  and\n  swap1\n  dup4\n  0xffffffffffffffffffffffffffffffffffffffff\n  and\n  mul\n  or\n  swap1\n  sstore\n  pop\n    /* \"mainnet/0x81906929b10416a65A305d498267fE20adfC4746/contracts/Marketplace.sol\":3815:3821  _MLIFE */\n  dup3\n    /* \"mainnet/0x81906929b10416a65A305d498267fE20adfC4746/contracts/Marketplace.sol\":3807:3812  MLIFE */\n  0x0a\n  0x00\n    /* \"mainnet/0x81906929b10416a65A305d498267fE20adfC4746/contracts/Marketplace.sol\":3807:3821  MLIFE = _MLIFE */\n  0x0100\n  exp\n  dup2\n  sload\n  dup2\n  0xffffffffffffffffffffffffffffffffffffffff\n  mul\n  not\n  and\n  swap1\n  dup4\n  0xffffffffffffffffffffffffffffffffffffffff\n  and\n  mul\n  or\n  swap1\n  sstore\n  pop\n    /* \"mainnet/0x81906929b10416a65A305d498267fE20adfC4746/contracts/Marketplace.sol\":3843:3853  _tokenUSDT */\n  dup2\n    /* \"mainnet/0x81906929b10416a65A305d498267fE20adfC4746/contracts/Marketplace.sol\":3831:3840  tokenUSDT */\n  0x0b\n  0x00\n    /* \"mainnet/0x81906929b10416a65A305d498267fE20adfC4746/contracts/Marketplace.sol\":3831:3853  tokenUSDT = _tokenUSDT */\n  0x0100\n  exp\n  dup2\n  sload\n  dup2\n  0xffffffffffffffffffffffffffffffffffffffff\n  mul\n  not\n  and\n  swap1\n  dup4\n  0xffffffffffffffffffffffffffffffffffffffff\n  and\n  mul\n  or\n  swap1\n  sstore\n  pop\n    /* \"mainnet/0x81906929b10416a65A305d498267fE20adfC4746/contracts/Marketplace.sol\":3875:3885  _tokenUSDC */\n  dup1\n    /* \"mainnet/0x81906929b10416a65A305d498267fE20adfC4746/contracts/Marketplace.sol\":3863:3872  tokenUSDC */\n  0x0c\n  0x00\n    /* \"mainnet/0x81906929b10416a65A305d498267fE20adfC4746/contracts/Marketplace.sol\":3863:3885  tokenUSDC = _tokenUSDC */\n  0x0100\n  exp\n  dup2\n  sload\n  dup2\n  0xffffffffffffffffffffffffffffffffffffffff\n  mul\n  not\n  and\n  swap1\n  dup4\n  0xffffffffffffffffffffffffffffffffffffffff\n  and\n  mul\n  or\n  swap1\n  sstore\n  pop\n    /* \"mainnet/0x81906929b10416a65A305d498267fE20adfC4746/contracts/Marketplace.sol\":3584:3892  constructor(... */\n  pop\n  pop\n  pop\n  pop\n    /* \"mainnet/0x81906929b10416a65A305d498267fE20adfC4746/contracts/Marketplace.sol\":659:15784  contract Marketplace is ReentrancyGuard, Ownable, Pausable {... */\n  jump(tag_17)\n    /* \"@openzeppelin/contracts/access/Ownable.sol\":2912:3099  function _transferOwnership(address newOwner) internal virtual {... */\ntag_14:\n    /* \"@openzeppelin/contracts/access/Ownable.sol\":2985:3001  address oldOwner */\n  0x00\n    /* \"@openzeppelin/contracts/access/Ownable.sol\":3004:3010  _owner */\n  0x01\n  0x00\n  swap1\n  sload\n  swap1\n  0x0100\n  exp\n  swap1\n  div\n  0xffffffffffffffffffffffffffffffffffffffff\n  and\n    /* \"@openzeppelin/contracts/access/Ownable.sol\":2985:3010  address oldOwner = _owner */\n  swap1\n  pop\n    /* \"@openzeppelin/contracts/access/Ownable.sol\":3029:3037  newOwner */\n  dup2\n    /* \"@openzeppelin/contracts/access/Ownable.sol\":3020:3026  _owner */\n  0x01\n  0x00\n    /* \"@openzeppelin/contracts/access/Ownable.sol\":3020:3037  _owner = newOwner */\n  0x0100\n  exp\n  dup2\n  sload\n  dup2\n  0xffffffffffffffffffffffffffffffffffffffff\n  mul\n  not\n  and\n  swap1\n  dup4\n  0xffffffffffffffffffffffffffffffffffffffff\n  and\n  mul\n  or\n  swap1\n  sstore\n  pop\n    /* \"@openzeppelin/contracts/access/Ownable.sol\":3083:3091  newOwner */\n  dup2\n    /* \"@openzeppelin/contracts/access/Ownable.sol\":3052:3092  OwnershipTransferred(oldOwner, newOwner) */\n  0xffffffffffffffffffffffffffffffffffffffff\n  and\n    /* \"@openzeppelin/contracts/access/Ownable.sol\":3073:3081  oldOwner */\n  dup2\n    /* \"@openzeppelin/contracts/access/Ownable.sol\":3052:3092  OwnershipTransferred(oldOwner, newOwner) */\n  0xffffffffffffffffffffffffffffffffffffffff\n  and\n  0x8be0079c531659141344cd1fd0a4f28419497f9722a3daafe3b4186f6b6457e0\n  mload(0x40)\n  mload(0x40)\n  dup1\n  swap2\n  sub\n  swap1\n  log3\n    /* \"@openzeppelin/contracts/access/Ownable.sol\":2975:3099  {... */\n  pop\n    /* \"@openzeppelin/contracts/access/Ownable.sol\":2912:3099  function _transferOwnership(address newOwner) internal virtual {... */\n  pop\n  jump\t// out\n    /* \"#utility.yul\":88:205   */\ntag_20:\n    /* \"#utility.yul\":197:198   */\n  0x00\n    /* \"#utility.yul\":194:195   */\n  dup1\n    /* \"#utility.yul\":187:199   */\n  revert\n    /* \"#utility.yul\":334:460   */\ntag_22:\n    /* \"#utility.yul\":371:378   */\n  0x00\n    /* \"#utility.yul\":411:453   */\n  0xffffffffffffffffffffffffffffffffffffffff\n    /* \"#utility.yul\":404:409   */\n  dup3\n    /* \"#utility.yul\":400:454   */\n  and\n    /* \"#utility.yul\":389:454   */\n  swap1\n  pop\n    /* \"#utility.yul\":334:460   */\n  swap2\n  swap1\n  pop\n  jump\t// out\n    /* \"#utility.yul\":466:562   */\ntag_23:\n    /* \"#utility.yul\":503:510   */\n  0x00\n    /* \"#utility.yul\":532:556   */\n  tag_33\n    /* \"#utility.yul\":550:555   */\n  dup3\n    /* \"#utility.yul\":532:556   */\n  tag_22\n  jump\t// in\ntag_33:\n    /* \"#utility.yul\":521:556   */\n  swap1\n  pop\n    /* \"#utility.yul\":466:562   */\n  swap2\n  swap1\n  pop\n  jump\t// out\n    /* \"#utility.yul\":568:690   */\ntag_24:\n    /* \"#utility.yul\":641:665   */\n  tag_35\n    /* \"#utility.yul\":659:664   */\n  dup2\n    /* \"#utility.yul\":641:665   */\n  tag_23\n  jump\t// in\ntag_35:\n    /* \"#utility.yul\":634:639   */\n  dup2\n    /* \"#utility.yul\":631:666   */\n  eq\n    /* \"#utility.yul\":621:684   */\n  tag_36\n  jumpi\n    /* \"#utility.yul\":680:681   */\n  0x00\n    /* \"#utility.yul\":677:678   */\n  dup1\n    /* \"#utility.yul\":670:682   */\n  revert\n    /* \"#utility.yul\":621:684   */\ntag_36:\n    /* \"#utility.yul\":568:690   */\n  pop\n  jump\t// out\n    /* \"#utility.yul\":696:839   */\ntag_25:\n    /* \"#utility.yul\":753:758   */\n  0x00\n    /* \"#utility.yul\":784:790   */\n  dup2\n    /* \"#utility.yul\":778:791   */\n  mload\n    /* \"#utility.yul\":769:791   */\n  swap1\n  pop\n    /* \"#utility.yul\":800:833   */\n  tag_38\n    /* \"#utility.yul\":827:832   */\n  dup2\n    /* \"#utility.yul\":800:833   */\n  tag_24\n  jump\t// in\ntag_38:\n    /* \"#utility.yul\":696:839   */\n  swap3\n  swap2\n  pop\n  pop\n  jump\t// out\n    /* \"#utility.yul\":845:1665   */\ntag_3:\n    /* \"#utility.yul\":942:948   */\n  0x00\n    /* \"#utility.yul\":950:956   */\n  dup1\n    /* \"#utility.yul\":958:964   */\n  0x00\n    /* \"#utility.yul\":966:972   */\n  dup1\n    /* \"#utility.yul\":1015:1018   */\n  0x80\n    /* \"#utility.yul\":1003:1012   */\n  dup6\n    /* \"#utility.yul\":994:1001   */\n  dup8\n    /* \"#utility.yul\":990:1013   */\n  sub\n    /* \"#utility.yul\":986:1019   */\n  slt\n    /* \"#utility.yul\":983:1103   */\n  iszero\n  tag_40\n  jumpi\n    /* \"#utility.yul\":1022:1101   */\n  tag_41\n  tag_20\n  jump\t// in\ntag_41:\n    /* \"#utility.yul\":983:1103   */\ntag_40:\n    /* \"#utility.yul\":1142:1143   */\n  0x00\n    /* \"#utility.yul\":1167:1231   */\n  tag_42\n    /* \"#utility.yul\":1223:1230   */\n  dup8\n    /* \"#utility.yul\":1214:1220   */\n  dup3\n    /* \"#utility.yul\":1203:1212   */\n  dup9\n    /* \"#utility.yul\":1199:1221   */\n  add\n    /* \"#utility.yul\":1167:1231   */\n  tag_25\n  jump\t// in\ntag_42:\n    /* \"#utility.yul\":1157:1231   */\n  swap5\n  pop\n    /* \"#utility.yul\":1113:1241   */\n  pop\n    /* \"#utility.yul\":1280:1282   */\n  0x20\n    /* \"#utility.yul\":1306:1370   */\n  tag_43\n    /* \"#utility.yul\":1362:1369   */\n  dup8\n    /* \"#utility.yul\":1353:1359   */\n  dup3\n    /* \"#utility.yul\":1342:1351   */\n  dup9\n    /* \"#utility.yul\":1338:1360   */\n  add\n    /* \"#utility.yul\":1306:1370   */\n  tag_25\n  jump\t// in\ntag_43:\n    /* \"#utility.yul\":1296:1370   */\n  swap4\n  pop\n    /* \"#utility.yul\":1251:1380   */\n  pop\n    /* \"#utility.yul\":1419:1421   */\n  0x40\n    /* \"#utility.yul\":1445:1509   */\n  tag_44\n    /* \"#utility.yul\":1501:1508   */\n  dup8\n    /* \"#utility.yul\":1492:1498   */\n  dup3\n    /* \"#utility.yul\":1481:1490   */\n  dup9\n    /* \"#utility.yul\":1477:1499   */\n  add\n    /* \"#utility.yul\":1445:1509   */\n  tag_25\n  jump\t// in\ntag_44:\n    /* \"#utility.yul\":1435:1509   */\n  swap3\n  pop\n    /* \"#utility.yul\":1390:1519   */\n  pop\n    /* \"#utility.yul\":1558:1560   */\n  0x60\n    /* \"#utility.yul\":1584:1648   */\n  tag_45\n    /* \"#utility.yul\":1640:1647   */\n  dup8\n    /* \"#utility.yul\":1631:1637   */\n  dup3\n    /* \"#utility.yul\":1620:1629   */\n  dup9\n    /* \"#utility.yul\":1616:1638   */\n  add\n    /* \"#utility.yul\":1584:1648   */\n  tag_25\n  jump\t// in\ntag_45:\n    /* \"#utility.yul\":1574:1648   */\n  swap2\n  pop\n    /* \"#utility.yul\":1529:1658   */\n  pop\n    /* \"#utility.yul\":845:1665   */\n  swap3\n  swap6\n  swap2\n  swap5\n  pop\n  swap3\n  pop\n  jump\t// out\n    /* \"#utility.yul\":1671:1789   */\ntag_26:\n    /* \"#utility.yul\":1758:1782   */\n  tag_47\n    /* \"#utility.yul\":1776:1781   */\n  dup2\n    /* \"#utility.yul\":1758:1782   */\n  tag_23\n  jump\t// in\ntag_47:\n    /* \"#utility.yul\":1753:1756   */\n  dup3\n    /* \"#utility.yul\":1746:1783   */\n  mstore\n    /* \"#utility.yul\":1671:1789   */\n  pop\n  pop\n  jump\t// out\n    /* \"#utility.yul\":1795:2017   */\ntag_12:\n    /* \"#utility.yul\":1888:1892   */\n  0x00\n    /* \"#utility.yul\":1926:1928   */\n  0x20\n    /* \"#utility.yul\":1915:1924   */\n  dup3\n    /* \"#utility.yul\":1911:1929   */\n  add\n    /* \"#utility.yul\":1903:1929   */\n  swap1\n  pop\n    /* \"#utility.yul\":1939:2010   */\n  tag_49\n    /* \"#utility.yul\":2007:2008   */\n  0x00\n    /* \"#utility.yul\":1996:2005   */\n  dup4\n    /* \"#utility.yul\":1992:2009   */\n  add\n    /* \"#utility.yul\":1983:1989   */\n  dup5\n    /* \"#utility.yul\":1939:2010   */\n  tag_26\n  jump\t// in\ntag_49:\n    /* \"#utility.yul\":1795:2017   */\n  swap3\n  swap2\n  pop\n  pop\n  jump\t// out\n    /* \"mainnet/0x81906929b10416a65A305d498267fE20adfC4746/contracts/Marketplace.sol\":659:15784  contract Marketplace is ReentrancyGuard, Ownable, Pausable {... */\ntag_17:\n  dataSize(sub_0)\n  dup1\n  dataOffset(sub_0)\n  0x00\n  codecopy\n  0x00\n  return\nstop\n\nsub_0: assembly {\n        /* \"mainnet/0x81906929b10416a65A305d498267fE20adfC4746/contracts/Marketplace.sol\":659:15784  contract Marketplace is ReentrancyGuard, Ownable, Pausable {... */\n      mstore(0x40, 0x80)\n      jumpi(tag_1, lt(calldatasize, 0x04))\n      shr(0xe0, calldataload(0x00))\n      dup1\n      0x8456cb59\n      gt\n      tag_36\n      jumpi\n      dup1\n      0xbf6aee98\n      gt\n      tag_37\n      jumpi\n      dup1\n      0xde74e57b\n      gt\n      tag_38\n      jumpi\n      dup1\n      0xde74e57b\n      eq\n      tag_31\n      jumpi\n      dup1\n      0xed952ccd\n      eq\n      tag_32\n      jumpi\n      dup1\n      0xf2fde38b\n      eq\n      tag_33\n      jumpi\n      dup1\n      0xfd95c739\n      eq\n      tag_34\n      jumpi\n      dup1\n      0xff743e89\n      eq\n      tag_35\n      jumpi\n      jump(tag_1)\n    tag_38:\n      dup1\n      0xbf6aee98\n      eq\n      tag_27\n      jumpi\n      dup1\n      0xc86d4040\n      eq\n      tag_28\n      jumpi\n      dup1\n      0xd56d229d\n      eq\n      tag_29\n      jumpi\n      dup1\n      0xd73792a9\n      eq\n      tag_30\n      jumpi\n      jump(tag_1)\n    tag_37:\n      dup1\n      0x99c5c8aa\n      gt\n      tag_39\n      jumpi\n      dup1\n      0x99c5c8aa\n      eq\n      tag_23\n      jumpi\n      dup1\n      0xa3269b09\n      eq\n      tag_24\n      jumpi\n      dup1\n      0xad6561ec\n      eq\n      tag_25\n      jumpi\n      dup1\n      0xbc063e1a\n      eq\n      tag_26\n      jumpi\n      jump(tag_1)\n    tag_39:\n      dup1\n      0x8456cb59\n      eq\n      tag_19\n      jumpi\n      dup1\n      0x884282a1\n      eq\n      tag_20\n      jumpi\n      dup1\n      0x8da5cb5b\n      eq\n      tag_21\n      jumpi\n      dup1\n      0x92e67c06\n      eq\n      tag_22\n      jumpi\n      jump(tag_1)\n    tag_36:\n      dup1\n      0x4c97cf7c\n      gt\n      tag_40\n      jumpi\n      dup1\n      0x5c975abb\n      gt\n      tag_41\n      jumpi\n      dup1\n      0x5c975abb\n      eq\n      tag_14\n      jumpi\n      dup1\n      0x65c11bf0\n      eq\n      tag_15\n      jumpi\n      dup1\n      0x6a166964\n      eq\n      tag_16\n      jumpi\n      dup1\n      0x715018a6\n      eq\n      tag_17\n      jumpi\n      dup1\n      0x72973791\n      eq\n      tag_18\n      jumpi\n      jump(tag_1)\n    tag_41:\n      dup1\n      0x4c97cf7c\n      eq\n      tag_10\n      jumpi\n      dup1\n      0x52fb6541\n      eq\n      tag_11\n      jumpi\n      dup1\n      0x550dddeb\n      eq\n      tag_12\n      jumpi\n      dup1\n      0x5c3b37db\n      eq\n      tag_13\n      jumpi\n      jump(tag_1)\n    tag_40:\n      dup1\n      0x2b1fd58a\n      gt\n      tag_42\n      jumpi\n      dup1\n      0x2b1fd58a\n      eq\n      tag_6\n      jumpi\n      dup1\n      0x305a67a8\n      eq\n      tag_7\n      jumpi\n      dup1\n      0x30eb80cd\n      eq\n      tag_8\n      jumpi\n      dup1\n      0x3f4ba83a\n      eq\n      tag_9\n      jumpi\n      jump(tag_1)\n    tag_42:\n      dup1\n      0x0382d424\n      eq\n      tag_2\n      jumpi\n      dup1\n      0x0eaaf4c8\n      eq\n      tag_3\n      jumpi\n      dup1\n      0x1e534be6\n      eq\n      tag_4\n      jumpi\n      dup1\n      0x1f8ca0b5\n      eq\n      tag_5\n      jumpi\n    tag_1:\n      0x00\n      dup1\n      revert\n        /* \"mainnet/0x81906929b10416a65A305d498267fE20adfC4746/contracts/Marketplace.sol\":1445:1530  mapping(address => mapping(address => uint256))... */\n    tag_2:\n      callvalue\n      dup1\n      iszero\n      tag_43\n      jumpi\n      0x00\n      dup1\n      revert\n    tag_43:\n      pop\n      tag_44\n      0x04\n      dup1\n      calldatasize\n      sub\n      dup2\n      add\n      swap1\n      tag_45\n      swap2\n      swap1\n      tag_46\n      jump\t// in\n    tag_45:\n      tag_47\n      jump\t// in\n    tag_44:\n      mload(0x40)\n      tag_48\n      swap2\n      swap1\n      tag_49\n      jump\t// in\n    tag_48:\n      mload(0x40)\n      dup1\n      swap2\n      sub\n      swap1\n      return\n        /* \"mainnet/0x81906929b10416a65A305d498267fE20adfC4746/contracts/Marketplace.sol\":13624:13989  function withdrawBid(uint256 _tokenId) external nonReentrant whenNotPaused {... */\n    tag_3:\n      callvalue\n      dup1\n      iszero\n      tag_50\n      jumpi\n      0x00\n      dup1\n      revert\n    tag_50:\n      pop\n      tag_51\n      0x04\n      dup1\n      calldatasize\n      sub\n      dup2\n      add\n      swap1\n      tag_52\n      swap2\n      swap1\n      tag_53\n      jump\t// in\n    tag_52:\n      tag_54\n      jump\t// in\n    tag_51:\n      stop\n        /* \"mainnet/0x81906929b10416a65A305d498267fE20adfC4746/contracts/Marketplace.sol\":5131:5405  function updateUsdcTokenAddress(address _newAddress) external onlyOwner {... */\n    tag_4:\n      callvalue\n      dup1\n      iszero\n      tag_55\n      jumpi\n      0x00\n      dup1\n      revert\n    tag_55:\n      pop\n      tag_56\n      0x04\n      dup1\n      calldatasize\n      sub\n      dup2\n      add\n      swap1\n      tag_57\n      swap2\n      swap1\n      tag_58\n      jump\t// in\n    tag_57:\n      tag_59\n      jump\t// in\n    tag_56:\n      stop\n        /* \"mainnet/0x81906929b10416a65A305d498267fE20adfC4746/contracts/Marketplace.sol\":4572:4845  function updateMLifeTokenAddress(address _newAddress) external onlyOwner {... */\n    tag_5:\n      callvalue\n      dup1\n      iszero\n      tag_60\n      jumpi\n      0x00\n      dup1\n      revert\n    tag_60:\n      pop\n      tag_61\n      0x04\n      dup1\n      calldatasize\n      sub\n      dup2\n      add\n      swap1\n      tag_62\n      swap2\n      swap1\n      tag_58\n      jump\t// in\n    tag_62:\n      tag_63\n      jump\t// in\n    tag_61:\n      stop\n        /* \"mainnet/0x81906929b10416a65A305d498267fE20adfC4746/contracts/Marketplace.sol\":10273:11658  function acceptBid(... */\n    tag_6:\n      callvalue\n      dup1\n      iszero\n      tag_64\n      jumpi\n      0x00\n      dup1\n      revert\n    tag_64:\n      pop\n      tag_65\n      0x04\n      dup1\n      calldatasize\n      sub\n      dup2\n      add\n      swap1\n      tag_66\n      swap2\n      swap1\n      tag_53\n      jump\t// in\n    tag_66:\n      tag_67\n      jump\t// in\n    tag_65:\n      stop\n        /* \"mainnet/0x81906929b10416a65A305d498267fE20adfC4746/contracts/Marketplace.sol\":7560:8022  function cancelListing(... */\n    tag_7:\n      callvalue\n      dup1\n      iszero\n      tag_68\n      jumpi\n      0x00\n      dup1\n      revert\n    tag_68:\n      pop\n      tag_69\n      0x04\n      dup1\n      calldatasize\n      sub\n      dup2\n      add\n      swap1\n      tag_70\n      swap2\n      swap1\n      tag_53\n      jump\t// in\n    tag_70:\n      tag_71\n      jump\t// in\n    tag_69:\n      stop\n        /* \"mainnet/0x81906929b10416a65A305d498267fE20adfC4746/contracts/Marketplace.sol\":4036:4330  function updateMarketplaceFee(... */\n    tag_8:\n      callvalue\n      dup1\n      iszero\n      tag_72\n      jumpi\n      0x00\n      dup1\n      revert\n    tag_72:\n      pop\n      tag_73\n      0x04\n      dup1\n      calldatasize\n      sub\n      dup2\n      add\n      swap1\n      tag_74\n      swap2\n      swap1\n      tag_53\n      jump\t// in\n    tag_74:\n      tag_75\n      jump\t// in\n    tag_73:\n      stop\n        /* \"mainnet/0x81906929b10416a65A305d498267fE20adfC4746/contracts/Marketplace.sol\":3965:4030  function unpause() external onlyOwner {... */\n    tag_9:\n      callvalue\n      dup1\n      iszero\n      tag_76\n      jumpi\n      0x00\n      dup1\n      revert\n    tag_76:\n      pop\n      tag_77\n      tag_78\n      jump\t// in\n    tag_77:\n      stop\n        /* \"mainnet/0x81906929b10416a65A305d498267fE20adfC4746/contracts/Marketplace.sol\":4851:5125  function updateUsdtTokenAddress(address _newAddress) external onlyOwner {... */\n    tag_10:\n      callvalue\n      dup1\n      iszero\n      tag_79\n      jumpi\n      0x00\n      dup1\n      revert\n    tag_79:\n      pop\n      tag_80\n      0x04\n      dup1\n      calldatasize\n      sub\n      dup2\n      add\n      swap1\n      tag_81\n      swap2\n      swap1\n      tag_58\n      jump\t// in\n    tag_81:\n      tag_82\n      jump\t// in\n    tag_80:\n      stop\n        /* \"mainnet/0x81906929b10416a65A305d498267fE20adfC4746/contracts/Marketplace.sol\":11734:12356  function withdrawEthRefunds() external nonReentrant {... */\n    tag_11:\n      callvalue\n      dup1\n      iszero\n      tag_83\n      jumpi\n      0x00\n      dup1\n      revert\n    tag_83:\n      pop\n      tag_84\n      tag_85\n      jump\t// in\n    tag_84:\n      stop\n        /* \"mainnet/0x81906929b10416a65A305d498267fE20adfC4746/contracts/Marketplace.sol\":5655:5958  function updateMaxFee(uint256 _newMaxFee) external onlyOwner whenNotPaused {... */\n    tag_12:\n      callvalue\n      dup1\n      iszero\n      tag_86\n      jumpi\n      0x00\n      dup1\n      revert\n    tag_86:\n      pop\n      tag_87\n      0x04\n      dup1\n      calldatasize\n      sub\n      dup2\n      add\n      swap1\n      tag_88\n      swap2\n      swap1\n      tag_53\n      jump\t// in\n    tag_88:\n      tag_89\n      jump\t// in\n    tag_87:\n      stop\n        /* \"mainnet/0x81906929b10416a65A305d498267fE20adfC4746/contracts/Marketplace.sol\":12594:13279  function withdrawTokenRefunds(address _paymentToken) external nonReentrant {... */\n    tag_13:\n      callvalue\n      dup1\n      iszero\n      tag_90\n      jumpi\n      0x00\n      dup1\n      revert\n    tag_90:\n      pop\n      tag_91\n      0x04\n      dup1\n      calldatasize\n      sub\n      dup2\n      add\n      swap1\n      tag_92\n      swap2\n      swap1\n      tag_58\n      jump\t// in\n    tag_92:\n      tag_93\n      jump\t// in\n    tag_91:\n      stop\n        /* \"@openzeppelin/contracts/utils/Pausable.sol\":1850:1934  function paused() public view virtual returns (bool) {... */\n    tag_14:\n      callvalue\n      dup1\n      iszero\n      tag_94\n      jumpi\n      0x00\n      dup1\n      revert\n    tag_94:\n      pop\n      tag_95\n      tag_96\n      jump\t// in\n    tag_95:\n      mload(0x40)\n      tag_97\n      swap2\n      swap1\n      tag_98\n      jump\t// in\n    tag_97:\n      mload(0x40)\n      dup1\n      swap2\n      sub\n      swap1\n      return\n        /* \"mainnet/0x81906929b10416a65A305d498267fE20adfC4746/contracts/Marketplace.sol\":6471:7344  function createListing(... */\n    tag_15:\n      callvalue\n      dup1\n      iszero\n      tag_99\n      jumpi\n      0x00\n      dup1\n      revert\n    tag_99:\n      pop\n      tag_100\n      0x04\n      dup1\n      calldatasize\n      sub\n      dup2\n      add\n      swap1\n      tag_101\n      swap2\n      swap1\n      tag_102\n      jump\t// in\n    tag_101:\n      tag_103\n      jump\t// in\n    tag_100:\n      stop\n        /* \"mainnet/0x81906929b10416a65A305d498267fE20adfC4746/contracts/Marketplace.sol\":1019:1054  uint256 public marketplaceFee = 200 */\n    tag_16:\n      callvalue\n      dup1\n      iszero\n      tag_104\n      jumpi\n      0x00\n      dup1\n      revert\n    tag_104:\n      pop\n      tag_105\n      tag_106\n      jump\t// in\n    tag_105:\n      mload(0x40)\n      tag_107\n      swap2\n      swap1\n      tag_49\n      jump\t// in\n    tag_107:\n      mload(0x40)\n      dup1\n      swap2\n      sub\n      swap1\n      return\n        /* \"@openzeppelin/contracts/access/Ownable.sol\":2293:2394  function renounceOwnership() public virtual onlyOwner {... */\n    tag_17:\n      callvalue\n      dup1\n      iszero\n      tag_108\n      jumpi\n      0x00\n      dup1\n      revert\n    tag_108:\n      pop\n      tag_109\n      tag_110\n      jump\t// in\n    tag_109:\n      stop\n        /* \"mainnet/0x81906929b10416a65A305d498267fE20adfC4746/contracts/Marketplace.sol\":1537:1557  address public MLIFE */\n    tag_18:\n      callvalue\n      dup1\n      iszero\n      tag_111\n      jumpi\n      0x00\n      dup1\n      revert\n    tag_111:\n      pop\n      tag_112\n      tag_113\n      jump\t// in\n    tag_112:\n      mload(0x40)\n      tag_114\n      swap2\n      swap1\n      tag_115\n      jump\t// in\n    tag_114:\n      mload(0x40)\n      dup1\n      swap2\n      sub\n      swap1\n      return\n        /* \"mainnet/0x81906929b10416a65A305d498267fE20adfC4746/contracts/Marketplace.sol\":3898:3959  function pause() external onlyOwner {... */\n    tag_19:\n      callvalue\n      dup1\n      iszero\n      tag_116\n      jumpi\n      0x00\n      dup1\n      revert\n    tag_116:\n      pop\n      tag_117\n      tag_118\n      jump\t// in\n    tag_117:\n      stop\n        /* \"mainnet/0x81906929b10416a65A305d498267fE20adfC4746/contracts/Marketplace.sol\":14641:15078  function withdrawAdminTokenEarnings(... */\n    tag_20:\n      callvalue\n      dup1\n      iszero\n      tag_119\n      jumpi\n      0x00\n      dup1\n      revert\n    tag_119:\n      pop\n      tag_120\n      0x04\n      dup1\n      calldatasize\n      sub\n      dup2\n      add\n      swap1\n      tag_121\n      swap2\n      swap1\n      tag_58\n      jump\t// in\n    tag_121:\n      tag_122\n      jump\t// in\n    tag_120:\n      stop\n        /* \"@openzeppelin/contracts/access/Ownable.sol\":1638:1723  function owner() public view virtual returns (address) {... */\n    tag_21:\n      callvalue\n      dup1\n      iszero\n      tag_123\n      jumpi\n      0x00\n      dup1\n      revert\n    tag_123:\n      pop\n      tag_124\n      tag_125\n      jump\t// in\n    tag_124:\n      mload(0x40)\n      tag_126\n      swap2\n      swap1\n      tag_115\n      jump\t// in\n    tag_126:\n      mload(0x40)\n      dup1\n      swap2\n      sub\n      swap1\n      return\n        /* \"mainnet/0x81906929b10416a65A305d498267fE20adfC4746/contracts/Marketplace.sol\":4336:4566  function updateNftContract(address _newAddress) external onlyOwner {... */\n    tag_22:\n      callvalue\n      dup1\n      iszero\n      tag_127\n      jumpi\n      0x00\n      dup1\n      revert\n    tag_127:\n      pop\n      tag_128\n      0x04\n      dup1\n      calldatasize\n      sub\n      dup2\n      add\n      swap1\n      tag_129\n      swap2\n      swap1\n      tag_58\n      jump\t// in\n    tag_129:\n      tag_130\n      jump\t// in\n    tag_128:\n      stop\n        /* \"mainnet/0x81906929b10416a65A305d498267fE20adfC4746/contracts/Marketplace.sol\":1563:1587  address public tokenUSDT */\n    tag_23:\n      callvalue\n      dup1\n      iszero\n      tag_131\n      jumpi\n      0x00\n      dup1\n      revert\n    tag_131:\n      pop\n      tag_132\n      tag_133\n      jump\t// in\n    tag_132:\n      mload(0x40)\n      tag_134\n      swap2\n      swap1\n      tag_115\n      jump\t// in\n    tag_134:\n      mload(0x40)\n      dup1\n      swap2\n      sub\n      swap1\n      return\n        /* \"mainnet/0x81906929b10416a65A305d498267fE20adfC4746/contracts/Marketplace.sol\":1227:1281  mapping(address => uint256) public adminsTokenEarnings */\n    tag_24:\n      callvalue\n      dup1\n      iszero\n      tag_135\n      jumpi\n      0x00\n      dup1\n      revert\n    tag_135:\n      pop\n      tag_136\n      0x04\n      dup1\n      calldatasize\n      sub\n      dup2\n      add\n      swap1\n      tag_137\n      swap2\n      swap1\n      tag_58\n      jump\t// in\n    tag_137:\n      tag_138\n      jump\t// in\n    tag_136:\n      mload(0x40)\n      tag_139\n      swap2\n      swap1\n      tag_49\n      jump\t// in\n    tag_139:\n      mload(0x40)\n      dup1\n      swap2\n      sub\n      swap1\n      return\n        /* \"mainnet/0x81906929b10416a65A305d498267fE20adfC4746/contracts/Marketplace.sol\":8569:10002  function placeBid(... */\n    tag_25:\n      tag_140\n      0x04\n      dup1\n      calldatasize\n      sub\n      dup2\n      add\n      swap1\n      tag_141\n      swap2\n      swap1\n      tag_142\n      jump\t// in\n    tag_141:\n      tag_143\n      jump\t// in\n    tag_140:\n      stop\n        /* \"mainnet/0x81906929b10416a65A305d498267fE20adfC4746/contracts/Marketplace.sol\":1126:1154  uint256 public MAX_FEE = 500 */\n    tag_26:\n      callvalue\n      dup1\n      iszero\n      tag_144\n      jumpi\n      0x00\n      dup1\n      revert\n    tag_144:\n      pop\n      tag_145\n      tag_146\n      jump\t// in\n    tag_145:\n      mload(0x40)\n      tag_147\n      swap2\n      swap1\n      tag_49\n      jump\t// in\n    tag_147:\n      mload(0x40)\n      dup1\n      swap2\n      sub\n      swap1\n      return\n        /* \"mainnet/0x81906929b10416a65A305d498267fE20adfC4746/contracts/Marketplace.sol\":1189:1221  uint256 public adminsEthEarnings */\n    tag_27:\n      callvalue\n      dup1\n      iszero\n      tag_148\n      jumpi\n      0x00\n      dup1\n      revert\n    tag_148:\n      pop\n      tag_149\n      tag_150\n      jump\t// in\n    tag_149:\n      mload(0x40)\n      tag_151\n      swap2\n      swap1\n      tag_49\n      jump\t// in\n    tag_151:\n      mload(0x40)\n      dup1\n      swap2\n      sub\n      swap1\n      return\n        /* \"mainnet/0x81906929b10416a65A305d498267fE20adfC4746/contracts/Marketplace.sol\":1593:1617  address public tokenUSDC */\n    tag_28:\n      callvalue\n      dup1\n      iszero\n      tag_152\n      jumpi\n      0x00\n      dup1\n      revert\n    tag_152:\n      pop\n      tag_153\n      tag_154\n      jump\t// in\n    tag_153:\n      mload(0x40)\n      tag_155\n      swap2\n      swap1\n      tag_115\n      jump\t// in\n    tag_155:\n      mload(0x40)\n      dup1\n      swap2\n      sub\n      swap1\n      return\n        /* \"mainnet/0x81906929b10416a65A305d498267fE20adfC4746/contracts/Marketplace.sol\":1623:1649  address public nftContract */\n    tag_29:\n      callvalue\n      dup1\n      iszero\n      tag_156\n      jumpi\n      0x00\n      dup1\n      revert\n    tag_156:\n      pop\n      tag_157\n      tag_158\n      jump\t// in\n    tag_157:\n      mload(0x40)\n      tag_159\n      swap2\n      swap1\n      tag_115\n      jump\t// in\n    tag_159:\n      mload(0x40)\n      dup1\n      swap2\n      sub\n      swap1\n      return\n        /* \"mainnet/0x81906929b10416a65A305d498267fE20adfC4746/contracts/Marketplace.sol\":1073:1120  uint256 public constant FEE_DENOMINATOR = 10000 */\n    tag_30:\n      callvalue\n      dup1\n      iszero\n      tag_160\n      jumpi\n      0x00\n      dup1\n      revert\n    tag_160:\n      pop\n      tag_161\n      tag_162\n      jump\t// in\n    tag_161:\n      mload(0x40)\n      tag_163\n      swap2\n      swap1\n      tag_49\n      jump\t// in\n    tag_163:\n      mload(0x40)\n      dup1\n      swap2\n      sub\n      swap1\n      return\n        /* \"mainnet/0x81906929b10416a65A305d498267fE20adfC4746/contracts/Marketplace.sol\":1287:1330  mapping(uint256 => Listing) public listings */\n    tag_31:\n      callvalue\n      dup1\n      iszero\n      tag_164\n      jumpi\n      0x00\n      dup1\n      revert\n    tag_164:\n      pop\n      tag_165\n      0x04\n      dup1\n      calldatasize\n      sub\n      dup2\n      add\n      swap1\n      tag_166\n      swap2\n      swap1\n      tag_53\n      jump\t// in\n    tag_166:\n      tag_167\n      jump\t// in\n    tag_165:\n      mload(0x40)\n      tag_168\n      swap6\n      swap5\n      swap4\n      swap3\n      swap2\n      swap1\n      tag_169\n      jump\t// in\n    tag_168:\n      mload(0x40)\n      dup1\n      swap2\n      sub\n      swap1\n      return\n        /* \"mainnet/0x81906929b10416a65A305d498267fE20adfC4746/contracts/Marketplace.sol\":1384:1439  mapping(address => uint256) public ethRefundsForBidders */\n    tag_32:\n      callvalue\n      dup1\n      iszero\n      tag_170\n      jumpi\n      0x00\n      dup1\n      revert\n    tag_170:\n      pop\n      tag_171\n      0x04\n      dup1\n      calldatasize\n      sub\n      dup2\n      add\n      swap1\n      tag_172\n      swap2\n      swap1\n      tag_58\n      jump\t// in\n    tag_172:\n      tag_173\n      jump\t// in\n    tag_171:\n      mload(0x40)\n      tag_174\n      swap2\n      swap1\n      tag_49\n      jump\t// in\n    tag_174:\n      mload(0x40)\n      dup1\n      swap2\n      sub\n      swap1\n      return\n        /* \"@openzeppelin/contracts/access/Ownable.sol\":2543:2758  function transferOwnership(address newOwner) public virtual onlyOwner {... */\n    tag_33:\n      callvalue\n      dup1\n      iszero\n      tag_175\n      jumpi\n      0x00\n      dup1\n      revert\n    tag_175:\n      pop\n      tag_176\n      0x04\n      dup1\n      calldatasize\n      sub\n      dup2\n      add\n      swap1\n      tag_177\n      swap2\n      swap1\n      tag_58\n      jump\t// in\n    tag_177:\n      tag_178\n      jump\t// in\n    tag_176:\n      stop\n        /* \"mainnet/0x81906929b10416a65A305d498267fE20adfC4746/contracts/Marketplace.sol\":14061:14472  function withdrawAdminEthEarnings() external onlyOwner nonReentrant {... */\n    tag_34:\n      callvalue\n      dup1\n      iszero\n      tag_179\n      jumpi\n      0x00\n      dup1\n      revert\n    tag_179:\n      pop\n      tag_180\n      tag_181\n      jump\t// in\n    tag_180:\n      stop\n        /* \"mainnet/0x81906929b10416a65A305d498267fE20adfC4746/contracts/Marketplace.sol\":1336:1378  mapping(uint256 => Bid) public currentBids */\n    tag_35:\n      callvalue\n      dup1\n      iszero\n      tag_182\n      jumpi\n      0x00\n      dup1\n      revert\n    tag_182:\n      pop\n      tag_183\n      0x04\n      dup1\n      calldatasize\n      sub\n      dup2\n      add\n      swap1\n      tag_184\n      swap2\n      swap1\n      tag_53\n      jump\t// in\n    tag_184:\n      tag_185\n      jump\t// in\n    tag_183:\n      mload(0x40)\n      tag_186\n      swap3\n      swap2\n      swap1\n      tag_187\n      jump\t// in\n    tag_186:\n      mload(0x40)\n      dup1\n      swap2\n      sub\n      swap1\n      return\n        /* \"mainnet/0x81906929b10416a65A305d498267fE20adfC4746/contracts/Marketplace.sol\":1445:1530  mapping(address => mapping(address => uint256))... */\n    tag_47:\n      mstore(0x20, 0x09)\n      dup2\n      0x00\n      mstore\n      mstore(0x20, keccak256(0x00, 0x40))\n      dup1\n      0x00\n      mstore\n      keccak256(0x00, 0x40)\n      0x00\n      swap2\n      pop\n      swap2\n      pop\n      pop\n      sload\n      dup2\n      jump\t// out\n        /* \"mainnet/0x81906929b10416a65A305d498267fE20adfC4746/contracts/Marketplace.sol\":13624:13989  function withdrawBid(uint256 _tokenId) external nonReentrant whenNotPaused {... */\n    tag_54:\n        /* \"@openzeppelin/contracts/utils/ReentrancyGuard.sol\":2500:2521  _nonReentrantBefore() */\n      tag_189\n        /* \"@openzeppelin/contracts/utils/ReentrancyGuard.sol\":2500:2519  _nonReentrantBefore */\n      tag_190\n        /* \"@openzeppelin/contracts/utils/ReentrancyGuard.sol\":2500:2521  _nonReentrantBefore() */\n      jump\t// in\n    tag_189:\n        /* \"@openzeppelin/contracts/utils/Pausable.sol\":1474:1493  _requireNotPaused() */\n      tag_192\n        /* \"@openzeppelin/contracts/utils/Pausable.sol\":1474:1491  _requireNotPaused */\n      tag_193\n        /* \"@openzeppelin/contracts/utils/Pausable.sol\":1474:1493  _requireNotPaused() */\n      jump\t// in\n    tag_192:\n        /* \"mainnet/0x81906929b10416a65A305d498267fE20adfC4746/contracts/Marketplace.sol\":13709:13723  Bid memory bid */\n      0x00\n        /* \"mainnet/0x81906929b10416a65A305d498267fE20adfC4746/contracts/Marketplace.sol\":13726:13737  currentBids */\n      0x07\n        /* \"mainnet/0x81906929b10416a65A305d498267fE20adfC4746/contracts/Marketplace.sol\":13726:13747  currentBids[_tokenId] */\n      0x00\n        /* \"mainnet/0x81906929b10416a65A305d498267fE20adfC4746/contracts/Marketplace.sol\":13738:13746  _tokenId */\n      dup4\n        /* \"mainnet/0x81906929b10416a65A305d498267fE20adfC4746/contracts/Marketplace.sol\":13726:13747  currentBids[_tokenId] */\n      dup2\n      mstore\n      0x20\n      add\n      swap1\n      dup2\n      mstore\n      0x20\n      add\n      0x00\n      keccak256\n        /* \"mainnet/0x81906929b10416a65A305d498267fE20adfC4746/contracts/Marketplace.sol\":13709:13747  Bid memory bid = currentBids[_tokenId] */\n      mload(0x40)\n      dup1\n      0x40\n      add\n      0x40\n      mstore\n      swap1\n      dup2\n      0x00\n      dup3\n      add\n      0x00\n      swap1\n      sload\n      swap1\n      0x0100\n      exp\n      swap1\n      div\n      0xffffffffffffffffffffffffffffffffffffffff\n      and\n      0xffffffffffffffffffffffffffffffffffffffff\n      and\n      0xffffffffffffffffffffffffffffffffffffffff\n      and\n      dup2\n      mstore\n      0x20\n      add\n      0x01\n      dup3\n      add\n      sload\n      dup2\n      mstore\n      pop\n      pop\n      swap1\n      pop\n        /* \"mainnet/0x81906929b10416a65A305d498267fE20adfC4746/contracts/Marketplace.sol\":13779:13789  msg.sender */\n      caller\n        /* \"mainnet/0x81906929b10416a65A305d498267fE20adfC4746/contracts/Marketplace.sol\":13765:13789  bid.bidder == msg.sender */\n      0xffffffffffffffffffffffffffffffffffffffff\n      and\n        /* \"mainnet/0x81906929b10416a65A305d498267fE20adfC4746/contracts/Marketplace.sol\":13765:13768  bid */\n      dup2\n        /* \"mainnet/0x81906929b10416a65A305d498267fE20adfC4746/contracts/Marketplace.sol\":13765:13775  bid.bidder */\n      0x00\n      add\n      mload\n        /* \"mainnet/0x81906929b10416a65A305d498267fE20adfC4746/contracts/Marketplace.sol\":13765:13789  bid.bidder == msg.sender */\n      0xffffffffffffffffffffffffffffffffffffffff\n      and\n      eq\n        /* \"mainnet/0x81906929b10416a65A305d498267fE20adfC4746/contracts/Marketplace.sol\":13757:13816  require(bid.bidder == msg.sender, \"Not the current bidder\") */\n      tag_195\n      jumpi\n      mload(0x40)\n      0x08c379a000000000000000000000000000000000000000000000000000000000\n      dup2\n      mstore\n      0x04\n      add\n      tag_196\n      swap1\n      tag_197\n      jump\t// in\n    tag_196:\n      mload(0x40)\n      dup1\n      swap2\n      sub\n      swap1\n      revert\n    tag_195:\n        /* \"mainnet/0x81906929b10416a65A305d498267fE20adfC4746/contracts/Marketplace.sol\":13827:13894  _refundBid(listings[_tokenId].paymentToken, bid.bidder, bid.amount) */\n      tag_198\n        /* \"mainnet/0x81906929b10416a65A305d498267fE20adfC4746/contracts/Marketplace.sol\":13838:13846  listings */\n      0x06\n        /* \"mainnet/0x81906929b10416a65A305d498267fE20adfC4746/contracts/Marketplace.sol\":13838:13856  listings[_tokenId] */\n      0x00\n        /* \"mainnet/0x81906929b10416a65A305d498267fE20adfC4746/contracts/Marketplace.sol\":13847:13855  _tokenId */\n      dup5\n        /* \"mainnet/0x81906929b10416a65A305d498267fE20adfC4746/contracts/Marketplace.sol\":13838:13856  listings[_tokenId] */\n      dup2\n      mstore\n      0x20\n      add\n      swap1\n      dup2\n      mstore\n      0x20\n      add\n      0x00\n      keccak256\n        /* \"mainnet/0x81906929b10416a65A305d498267fE20adfC4746/contracts/Marketplace.sol\":13838:13869  listings[_tokenId].paymentToken */\n      0x02\n      add\n      0x00\n      swap1\n      sload\n      swap1\n      0x0100\n      exp\n      swap1\n      div\n      0xffffffffffffffffffffffffffffffffffffffff\n      and\n        /* \"mainnet/0x81906929b10416a65A305d498267fE20adfC4746/contracts/Marketplace.sol\":13871:13874  bid */\n      dup3\n        /* \"mainnet/0x81906929b10416a65A305d498267fE20adfC4746/contracts/Marketplace.sol\":13871:13881  bid.bidder */\n      0x00\n      add\n      mload\n        /* \"mainnet/0x81906929b10416a65A305d498267fE20adfC4746/contracts/Marketplace.sol\":13883:13886  bid */\n      dup4\n        /* \"mainnet/0x81906929b10416a65A305d498267fE20adfC4746/contracts/Marketplace.sol\":13883:13893  bid.amount */\n      0x20\n      add\n      mload\n        /* \"mainnet/0x81906929b10416a65A305d498267fE20adfC4746/contracts/Marketplace.sol\":13827:13837  _refundBid */\n      tag_199\n        /* \"mainnet/0x81906929b10416a65A305d498267fE20adfC4746/contracts/Marketplace.sol\":13827:13894  _refundBid(listings[_tokenId].paymentToken, bid.bidder, bid.amount) */\n      jump\t// in\n    tag_198:\n        /* \"mainnet/0x81906929b10416a65A305d498267fE20adfC4746/contracts/Marketplace.sol\":13912:13923  currentBids */\n      0x07\n        /* \"mainnet/0x81906929b10416a65A305d498267fE20adfC4746/contracts/Marketplace.sol\":13912:13933  currentBids[_tokenId] */\n      0x00\n        /* \"mainnet/0x81906929b10416a65A305d498267fE20adfC4746/contracts/Marketplace.sol\":13924:13932  _tokenId */\n      dup4\n        /* \"mainnet/0x81906929b10416a65A305d498267fE20adfC4746/contracts/Marketplace.sol\":13912:13933  currentBids[_tokenId] */\n      dup2\n      mstore\n      0x20\n      add\n      swap1\n      dup2\n      mstore\n      0x20\n      add\n      0x00\n      keccak256\n      0x00\n        /* \"mainnet/0x81906929b10416a65A305d498267fE20adfC4746/contracts/Marketplace.sol\":13905:13933  delete currentBids[_tokenId] */\n      dup1\n      dup3\n      add\n      exp(0x0100, 0x00)\n      dup2\n      sload\n      swap1\n      0xffffffffffffffffffffffffffffffffffffffff\n      mul\n      not\n      and\n      swap1\n      sstore\n      0x01\n      dup3\n      add\n      0x00\n      swap1\n      sstore\n      pop\n      pop\n        /* \"mainnet/0x81906929b10416a65A305d498267fE20adfC4746/contracts/Marketplace.sol\":13971:13981  msg.sender */\n      caller\n        /* \"mainnet/0x81906929b10416a65A305d498267fE20adfC4746/contracts/Marketplace.sol\":13948:13982  BidWithdrawn(_tokenId, msg.sender) */\n      0xffffffffffffffffffffffffffffffffffffffff\n      and\n      0x5e9c7ae3229b2cda5065d7058fcc05765c695c29ce05313fbe96cb2ca639231a\n        /* \"mainnet/0x81906929b10416a65A305d498267fE20adfC4746/contracts/Marketplace.sol\":13961:13969  _tokenId */\n      dup4\n        /* \"mainnet/0x81906929b10416a65A305d498267fE20adfC4746/contracts/Marketplace.sol\":13948:13982  BidWithdrawn(_tokenId, msg.sender) */\n      mload(0x40)\n      tag_200\n      swap2\n      swap1\n      tag_49\n      jump\t// in\n    tag_200:\n      mload(0x40)\n      dup1\n      swap2\n      sub\n      swap1\n      log2\n        /* \"mainnet/0x81906929b10416a65A305d498267fE20adfC4746/contracts/Marketplace.sol\":13699:13989  {... */\n      pop\n        /* \"@openzeppelin/contracts/utils/ReentrancyGuard.sol\":2542:2562  _nonReentrantAfter() */\n      tag_201\n        /* \"@openzeppelin/contracts/utils/ReentrancyGuard.sol\":2542:2560  _nonReentrantAfter */\n      tag_202\n        /* \"@openzeppelin/contracts/utils/ReentrancyGuard.sol\":2542:2562  _nonReentrantAfter() */\n      jump\t// in\n    tag_201:\n        /* \"mainnet/0x81906929b10416a65A305d498267fE20adfC4746/contracts/Marketplace.sol\":13624:13989  function withdrawBid(uint256 _tokenId) external nonReentrant whenNotPaused {... */\n      pop\n      jump\t// out\n        /* \"mainnet/0x81906929b10416a65A305d498267fE20adfC4746/contracts/Marketplace.sol\":5131:5405  function updateUsdcTokenAddress(address _newAddress) external onlyOwner {... */\n    tag_59:\n        /* \"@openzeppelin/contracts/access/Ownable.sol\":1531:1544  _checkOwner() */\n      tag_204\n        /* \"@openzeppelin/contracts/access/Ownable.sol\":1531:1542  _checkOwner */\n      tag_205\n        /* \"@openzeppelin/contracts/access/Ownable.sol\":1531:1544  _checkOwner() */\n      jump\t// in\n    tag_204:\n        /* \"mainnet/0x81906929b10416a65A305d498267fE20adfC4746/contracts/Marketplace.sol\":5244:5245  0 */\n      0x00\n        /* \"mainnet/0x81906929b10416a65A305d498267fE20adfC4746/contracts/Marketplace.sol\":5221:5246  _newAddress != address(0) */\n      0xffffffffffffffffffffffffffffffffffffffff\n      and\n        /* \"mainnet/0x81906929b10416a65A305d498267fE20adfC4746/contracts/Marketplace.sol\":5221:5232  _newAddress */\n      dup2\n        /* \"mainnet/0x81906929b10416a65A305d498267fE20adfC4746/contracts/Marketplace.sol\":5221:5246  _newAddress != address(0) */\n      0xffffffffffffffffffffffffffffffffffffffff\n      and\n      sub\n        /* \"mainnet/0x81906929b10416a65A305d498267fE20adfC4746/contracts/Marketplace.sol\":5213:5266  require(_newAddress != address(0), \"Invalid address\") */\n      tag_207\n      jumpi\n      mload(0x40)\n      0x08c379a000000000000000000000000000000000000000000000000000000000\n      dup2\n      mstore\n      0x04\n      add\n      tag_208\n      swap1\n      tag_209\n      jump\t// in\n    tag_208:\n      mload(0x40)\n      dup1\n      swap2\n      sub\n      swap1\n      revert\n    tag_207:\n        /* \"mainnet/0x81906929b10416a65A305d498267fE20adfC4746/contracts/Marketplace.sol\":5277:5295  address oldAddress */\n      0x00\n        /* \"mainnet/0x81906929b10416a65A305d498267fE20adfC4746/contracts/Marketplace.sol\":5298:5307  tokenUSDC */\n      0x0c\n      0x00\n      swap1\n      sload\n      swap1\n      0x0100\n      exp\n      swap1\n      div\n      0xffffffffffffffffffffffffffffffffffffffff\n      and\n        /* \"mainnet/0x81906929b10416a65A305d498267fE20adfC4746/contracts/Marketplace.sol\":5277:5307  address oldAddress = tokenUSDC */\n      swap1\n      pop\n        /* \"mainnet/0x81906929b10416a65A305d498267fE20adfC4746/contracts/Marketplace.sol\":5329:5340  _newAddress */\n      dup2\n        /* \"mainnet/0x81906929b10416a65A305d498267fE20adfC4746/contracts/Marketplace.sol\":5317:5326  tokenUSDC */\n      0x0c\n      0x00\n        /* \"mainnet/0x81906929b10416a65A305d498267fE20adfC4746/contracts/Marketplace.sol\":5317:5340  tokenUSDC = _newAddress */\n      0x0100\n      exp\n      dup2\n      sload\n      dup2\n      0xffffffffffffffffffffffffffffffffffffffff\n      mul\n      not\n      and\n      swap1\n      dup4\n      0xffffffffffffffffffffffffffffffffffffffff\n      and\n      mul\n      or\n      swap1\n      sstore\n      pop\n        /* \"mainnet/0x81906929b10416a65A305d498267fE20adfC4746/contracts/Marketplace.sol\":5355:5398  UsdcAddressUpdated(oldAddress, _newAddress) */\n      0x7dcd2c12cfcc397a33bdadd64452f757ead5ae363dcd02873aebbb68d4ee47d0\n        /* \"mainnet/0x81906929b10416a65A305d498267fE20adfC4746/contracts/Marketplace.sol\":5374:5384  oldAddress */\n      dup2\n        /* \"mainnet/0x81906929b10416a65A305d498267fE20adfC4746/contracts/Marketplace.sol\":5386:5397  _newAddress */\n      dup4\n        /* \"mainnet/0x81906929b10416a65A305d498267fE20adfC4746/contracts/Marketplace.sol\":5355:5398  UsdcAddressUpdated(oldAddress, _newAddress) */\n      mload(0x40)\n      tag_210\n      swap3\n      swap2\n      swap1\n      tag_211\n      jump\t// in\n    tag_210:\n      mload(0x40)\n      dup1\n      swap2\n      sub\n      swap1\n      log1\n        /* \"mainnet/0x81906929b10416a65A305d498267fE20adfC4746/contracts/Marketplace.sol\":5203:5405  {... */\n      pop\n        /* \"mainnet/0x81906929b10416a65A305d498267fE20adfC4746/contracts/Marketplace.sol\":5131:5405  function updateUsdcTokenAddress(address _newAddress) external onlyOwner {... */\n      pop\n      jump\t// out\n        /* \"mainnet/0x81906929b10416a65A305d498267fE20adfC4746/contracts/Marketplace.sol\":4572:4845  function updateMLifeTokenAddress(address _newAddress) external onlyOwner {... */\n    tag_63:\n        /* \"@openzeppelin/contracts/access/Ownable.sol\":1531:1544  _checkOwner() */\n      tag_213\n        /* \"@openzeppelin/contracts/access/Ownable.sol\":1531:1542  _checkOwner */\n      tag_205\n        /* \"@openzeppelin/contracts/access/Ownable.sol\":1531:1544  _checkOwner() */\n      jump\t// in\n    tag_213:\n        /* \"mainnet/0x81906929b10416a65A305d498267fE20adfC4746/contracts/Marketplace.sol\":4686:4687  0 */\n      0x00\n        /* \"mainnet/0x81906929b10416a65A305d498267fE20adfC4746/contracts/Marketplace.sol\":4663:4688  _newAddress != address(0) */\n      0xffffffffffffffffffffffffffffffffffffffff\n      and\n        /* \"mainnet/0x81906929b10416a65A305d498267fE20adfC4746/contracts/Marketplace.sol\":4663:4674  _newAddress */\n      dup2\n        /* \"mainnet/0x81906929b10416a65A305d498267fE20adfC4746/contracts/Marketplace.sol\":4663:4688  _newAddress != address(0) */\n      0xffffffffffffffffffffffffffffffffffffffff\n      and\n      sub\n        /* \"mainnet/0x81906929b10416a65A305d498267fE20adfC4746/contracts/Marketplace.sol\":4655:4708  require(_newAddress != address(0), \"Invalid address\") */\n      tag_215\n      jumpi\n      mload(0x40)\n      0x08c379a000000000000000000000000000000000000000000000000000000000\n      dup2\n      mstore\n      0x04\n      add\n      tag_216\n      swap1\n      tag_209\n      jump\t// in\n    tag_216:\n      mload(0x40)\n      dup1\n      swap2\n      sub\n      swap1\n      revert\n    tag_215:\n        /* \"mainnet/0x81906929b10416a65A305d498267fE20adfC4746/contracts/Marketplace.sol\":4719:4737  address oldAddress */\n      0x00\n        /* \"mainnet/0x81906929b10416a65A305d498267fE20adfC4746/contracts/Marketplace.sol\":4740:4745  MLIFE */\n      0x0a\n      0x00\n      swap1\n      sload\n      swap1\n      0x0100\n      exp\n      swap1\n      div\n      0xffffffffffffffffffffffffffffffffffffffff\n      and\n        /* \"mainnet/0x81906929b10416a65A305d498267fE20adfC4746/contracts/Marketplace.sol\":4719:4745  address oldAddress = MLIFE */\n      swap1\n      pop\n        /* \"mainnet/0x81906929b10416a65A305d498267fE20adfC4746/contracts/Marketplace.sol\":4763:4774  _newAddress */\n      dup2\n        /* \"mainnet/0x81906929b10416a65A305d498267fE20adfC4746/contracts/Marketplace.sol\":4755:4760  MLIFE */\n      0x0a\n      0x00\n        /* \"mainnet/0x81906929b10416a65A305d498267fE20adfC4746/contracts/Marketplace.sol\":4755:4774  MLIFE = _newAddress */\n      0x0100\n      exp\n      dup2\n      sload\n      dup2\n      0xffffffffffffffffffffffffffffffffffffffff\n      mul\n      not\n      and\n      swap1\n      dup4\n      0xffffffffffffffffffffffffffffffffffffffff\n      and\n      mul\n      or\n      swap1\n      sstore\n      pop\n        /* \"mainnet/0x81906929b10416a65A305d498267fE20adfC4746/contracts/Marketplace.sol\":4789:4838  MLifeTokenAddressUpdated(oldAddress, _newAddress) */\n      0xc3470c74402cd9ae145a41ef14d7a54822da2ad9e12cbec2c0c70efa93a89cd6\n        /* \"mainnet/0x81906929b10416a65A305d498267fE20adfC4746/contracts/Marketplace.sol\":4814:4824  oldAddress */\n      dup2\n        /* \"mainnet/0x81906929b10416a65A305d498267fE20adfC4746/contracts/Marketplace.sol\":4826:4837  _newAddress */\n      dup4\n        /* \"mainnet/0x81906929b10416a65A305d498267fE20adfC4746/contracts/Marketplace.sol\":4789:4838  MLifeTokenAddressUpdated(oldAddress, _newAddress) */\n      mload(0x40)\n      tag_217\n      swap3\n      swap2\n      swap1\n      tag_211\n      jump\t// in\n    tag_217:\n      mload(0x40)\n      dup1\n      swap2\n      sub\n      swap1\n      log1\n        /* \"mainnet/0x81906929b10416a65A305d498267fE20adfC4746/contracts/Marketplace.sol\":4645:4845  {... */\n      pop\n        /* \"mainnet/0x81906929b10416a65A305d498267fE20adfC4746/contracts/Marketplace.sol\":4572:4845  function updateMLifeTokenAddress(address _newAddress) external onlyOwner {... */\n      pop\n      jump\t// out\n        /* \"mainnet/0x81906929b10416a65A305d498267fE20adfC4746/contracts/Marketplace.sol\":10273:11658  function acceptBid(... */\n    tag_67:\n        /* \"@openzeppelin/contracts/utils/ReentrancyGuard.sol\":2500:2521  _nonReentrantBefore() */\n      tag_219\n        /* \"@openzeppelin/contracts/utils/ReentrancyGuard.sol\":2500:2519  _nonReentrantBefore */\n      tag_190\n        /* \"@openzeppelin/contracts/utils/ReentrancyGuard.sol\":2500:2521  _nonReentrantBefore() */\n      jump\t// in\n    tag_219:\n        /* \"@openzeppelin/contracts/utils/Pausable.sol\":1474:1493  _requireNotPaused() */\n      tag_221\n        /* \"@openzeppelin/contracts/utils/Pausable.sol\":1474:1491  _requireNotPaused */\n      tag_193\n        /* \"@openzeppelin/contracts/utils/Pausable.sol\":1474:1493  _requireNotPaused() */\n      jump\t// in\n    tag_221:\n        /* \"mainnet/0x81906929b10416a65A305d498267fE20adfC4746/contracts/Marketplace.sol\":10376:10384  _tokenId */\n      dup1\n        /* \"mainnet/0x81906929b10416a65A305d498267fE20adfC4746/contracts/Marketplace.sol\":3512:3520  listings */\n      0x06\n        /* \"mainnet/0x81906929b10416a65A305d498267fE20adfC4746/contracts/Marketplace.sol\":3512:3530  listings[_tokenId] */\n      0x00\n        /* \"mainnet/0x81906929b10416a65A305d498267fE20adfC4746/contracts/Marketplace.sol\":3521:3529  _tokenId */\n      dup3\n        /* \"mainnet/0x81906929b10416a65A305d498267fE20adfC4746/contracts/Marketplace.sol\":3512:3530  listings[_tokenId] */\n      dup2\n      mstore\n      0x20\n      add\n      swap1\n      dup2\n      mstore\n      0x20\n      add\n      0x00\n      keccak256\n        /* \"mainnet/0x81906929b10416a65A305d498267fE20adfC4746/contracts/Marketplace.sol\":3512:3537  listings[_tokenId].active */\n      0x04\n      add\n      0x00\n      swap1\n      sload\n      swap1\n      0x0100\n      exp\n      swap1\n      div\n      0xff\n      and\n        /* \"mainnet/0x81906929b10416a65A305d498267fE20adfC4746/contracts/Marketplace.sol\":3504:3560  require(listings[_tokenId].active, \"Listing not active\") */\n      tag_223\n      jumpi\n      mload(0x40)\n      0x08c379a000000000000000000000000000000000000000000000000000000000\n      dup2\n      mstore\n      0x04\n      add\n      tag_224\n      swap1\n      tag_225\n      jump\t// in\n    tag_224:\n      mload(0x40)\n      dup1\n      swap2\n      sub\n      swap1\n      revert\n    tag_223:\n        /* \"mainnet/0x81906929b10416a65A305d498267fE20adfC4746/contracts/Marketplace.sol\":10396:10419  Listing storage listing */\n      0x00\n        /* \"mainnet/0x81906929b10416a65A305d498267fE20adfC4746/contracts/Marketplace.sol\":10422:10430  listings */\n      0x06\n        /* \"mainnet/0x81906929b10416a65A305d498267fE20adfC4746/contracts/Marketplace.sol\":10422:10440  listings[_tokenId] */\n      0x00\n        /* \"mainnet/0x81906929b10416a65A305d498267fE20adfC4746/contracts/Marketplace.sol\":10431:10439  _tokenId */\n      dup5\n        /* \"mainnet/0x81906929b10416a65A305d498267fE20adfC4746/contracts/Marketplace.sol\":10422:10440  listings[_tokenId] */\n      dup2\n      mstore\n      0x20\n      add\n      swap1\n      dup2\n      mstore\n      0x20\n      add\n      0x00\n      keccak256\n        /* \"mainnet/0x81906929b10416a65A305d498267fE20adfC4746/contracts/Marketplace.sol\":10396:10440  Listing storage listing = listings[_tokenId] */\n      swap1\n      pop\n        /* \"mainnet/0x81906929b10416a65A305d498267fE20adfC4746/contracts/Marketplace.sol\":10450:10464  Bid memory bid */\n      0x00\n        /* \"mainnet/0x81906929b10416a65A305d498267fE20adfC4746/contracts/Marketplace.sol\":10467:10478  currentBids */\n      0x07\n        /* \"mainnet/0x81906929b10416a65A305d498267fE20adfC4746/contracts/Marketplace.sol\":10467:10488  currentBids[_tokenId] */\n      0x00\n        /* \"mainnet/0x81906929b10416a65A305d498267fE20adfC4746/contracts/Marketplace.sol\":10479:10487  _tokenId */\n      dup6\n        /* \"mainnet/0x81906929b10416a65A305d498267fE20adfC4746/contracts/Marketplace.sol\":10467:10488  currentBids[_tokenId] */\n      dup2\n      mstore\n      0x20\n      add\n      swap1\n      dup2\n      mstore\n      0x20\n      add\n      0x00\n      keccak256\n        /* \"mainnet/0x81906929b10416a65A305d498267fE20adfC4746/contracts/Marketplace.sol\":10450:10488  Bid memory bid = currentBids[_tokenId] */\n      mload(0x40)\n      dup1\n      0x40\n      add\n      0x40\n      mstore\n      swap1\n      dup2\n      0x00\n      dup3\n      add\n      0x00\n      swap1\n      sload\n      swap1\n      0x0100\n      exp\n      swap1\n      div\n      0xffffffffffffffffffffffffffffffffffffffff\n      and\n      0xffffffffffffffffffffffffffffffffffffffff\n      and\n      0xffffffffffffffffffffffffffffffffffffffff\n      and\n      dup2\n      mstore\n      0x20\n      add\n      0x01\n      dup3\n      add\n      sload\n      dup2\n      mstore\n      pop\n      pop\n      swap1\n      pop\n        /* \"mainnet/0x81906929b10416a65A305d498267fE20adfC4746/contracts/Marketplace.sol\":10525:10535  msg.sender */\n      caller\n        /* \"mainnet/0x81906929b10416a65A305d498267fE20adfC4746/contracts/Marketplace.sol\":10507:10535  listing.seller == msg.sender */\n      0xffffffffffffffffffffffffffffffffffffffff\n      and\n        /* \"mainnet/0x81906929b10416a65A305d498267fE20adfC4746/contracts/Marketplace.sol\":10507:10514  listing */\n      dup3\n        /* \"mainnet/0x81906929b10416a65A305d498267fE20adfC4746/contracts/Marketplace.sol\":10507:10521  listing.seller */\n      0x00\n      add\n      0x00\n      swap1\n      sload\n      swap1\n      0x0100\n      exp\n      swap1\n      div\n      0xffffffffffffffffffffffffffffffffffffffff\n      and\n        /* \"mainnet/0x81906929b10416a65A305d498267fE20adfC4746/contracts/Marketplace.sol\":10507:10535  listing.seller == msg.sender */\n      0xffffffffffffffffffffffffffffffffffffffff\n      and\n      eq\n        /* \"mainnet/0x81906929b10416a65A305d498267fE20adfC4746/contracts/Marketplace.sol\":10499:10566  require(listing.seller == msg.sender, \"Only seller can accept bid\") */\n      tag_227\n      jumpi\n      mload(0x40)\n      0x08c379a000000000000000000000000000000000000000000000000000000000\n      dup2\n      mstore\n      0x04\n      add\n      tag_228\n      swap1\n      tag_229\n      jump\t// in\n    tag_228:\n      mload(0x40)\n      dup1\n      swap2\n      sub\n      swap1\n      revert\n    tag_227:\n        /* \"mainnet/0x81906929b10416a65A305d498267fE20adfC4746/contracts/Marketplace.sol\":10597:10598  0 */\n      0x00\n        /* \"mainnet/0x81906929b10416a65A305d498267fE20adfC4746/contracts/Marketplace.sol\":10584:10587  bid */\n      dup2\n        /* \"mainnet/0x81906929b10416a65A305d498267fE20adfC4746/contracts/Marketplace.sol\":10584:10594  bid.amount */\n      0x20\n      add\n      mload\n        /* \"mainnet/0x81906929b10416a65A305d498267fE20adfC4746/contracts/Marketplace.sol\":10584:10598  bid.amount > 0 */\n      gt\n        /* \"mainnet/0x81906929b10416a65A305d498267fE20adfC4746/contracts/Marketplace.sol\":10576:10616  require(bid.amount > 0, \"No active bid\") */\n      tag_230\n      jumpi\n      mload(0x40)\n      0x08c379a000000000000000000000000000000000000000000000000000000000\n      dup2\n      mstore\n      0x04\n      add\n      tag_231\n      swap1\n      tag_232\n      jump\t// in\n    tag_231:\n      mload(0x40)\n      dup1\n      swap2\n      sub\n      swap1\n      revert\n    tag_230:\n        /* \"mainnet/0x81906929b10416a65A305d498267fE20adfC4746/contracts/Marketplace.sol\":10627:10638  uint256 fee */\n      0x00\n        /* \"mainnet/0x81906929b10416a65A305d498267fE20adfC4746/contracts/Marketplace.sol\":1115:1120  10000 */\n      0x2710\n        /* \"mainnet/0x81906929b10416a65A305d498267fE20adfC4746/contracts/Marketplace.sol\":10655:10669  marketplaceFee */\n      sload(0x02)\n        /* \"mainnet/0x81906929b10416a65A305d498267fE20adfC4746/contracts/Marketplace.sol\":10642:10645  bid */\n      dup4\n        /* \"mainnet/0x81906929b10416a65A305d498267fE20adfC4746/contracts/Marketplace.sol\":10642:10652  bid.amount */\n      0x20\n      add\n      mload\n        /* \"mainnet/0x81906929b10416a65A305d498267fE20adfC4746/contracts/Marketplace.sol\":10642:10669  bid.amount * marketplaceFee */\n      tag_233\n      swap2\n      swap1\n      tag_234\n      jump\t// in\n    tag_233:\n        /* \"mainnet/0x81906929b10416a65A305d498267fE20adfC4746/contracts/Marketplace.sol\":10641:10688  (bid.amount * marketplaceFee) / FEE_DENOMINATOR */\n      tag_235\n      swap2\n      swap1\n      tag_236\n      jump\t// in\n    tag_235:\n        /* \"mainnet/0x81906929b10416a65A305d498267fE20adfC4746/contracts/Marketplace.sol\":10627:10688  uint256 fee = (bid.amount * marketplaceFee) / FEE_DENOMINATOR */\n      swap1\n      pop\n        /* \"mainnet/0x81906929b10416a65A305d498267fE20adfC4746/contracts/Marketplace.sol\":10719:10722  fee */\n      dup1\n        /* \"mainnet/0x81906929b10416a65A305d498267fE20adfC4746/contracts/Marketplace.sol\":10698:10715  adminsEthEarnings */\n      0x04\n      0x00\n        /* \"mainnet/0x81906929b10416a65A305d498267fE20adfC4746/contracts/Marketplace.sol\":10698:10722  adminsEthEarnings += fee */\n      dup3\n      dup3\n      sload\n      tag_237\n      swap2\n      swap1\n      tag_238\n      jump\t// in\n    tag_237:\n      swap3\n      pop\n      pop\n      dup2\n      swap1\n      sstore\n      pop\n        /* \"mainnet/0x81906929b10416a65A305d498267fE20adfC4746/contracts/Marketplace.sol\":10732:10754  uint256 sellerProceeds */\n      0x00\n        /* \"mainnet/0x81906929b10416a65A305d498267fE20adfC4746/contracts/Marketplace.sol\":10770:10773  fee */\n      dup2\n        /* \"mainnet/0x81906929b10416a65A305d498267fE20adfC4746/contracts/Marketplace.sol\":10757:10760  bid */\n      dup4\n        /* \"mainnet/0x81906929b10416a65A305d498267fE20adfC4746/contracts/Marketplace.sol\":10757:10767  bid.amount */\n      0x20\n      add\n      mload\n        /* \"mainnet/0x81906929b10416a65A305d498267fE20adfC4746/contracts/Marketplace.sol\":10757:10773  bid.amount - fee */\n      tag_239\n      swap2\n      swap1\n      tag_240\n      jump\t// in\n    tag_239:\n        /* \"mainnet/0x81906929b10416a65A305d498267fE20adfC4746/contracts/Marketplace.sol\":10732:10773  uint256 sellerProceeds = bid.amount - fee */\n      swap1\n      pop\n        /* \"mainnet/0x81906929b10416a65A305d498267fE20adfC4746/contracts/Marketplace.sol\":10851:10852  0 */\n      0x00\n        /* \"mainnet/0x81906929b10416a65A305d498267fE20adfC4746/contracts/Marketplace.sol\":10819:10853  listing.paymentToken == address(0) */\n      0xffffffffffffffffffffffffffffffffffffffff\n      and\n        /* \"mainnet/0x81906929b10416a65A305d498267fE20adfC4746/contracts/Marketplace.sol\":10819:10826  listing */\n      dup5\n        /* \"mainnet/0x81906929b10416a65A305d498267fE20adfC4746/contracts/Marketplace.sol\":10819:10839  listing.paymentToken */\n      0x02\n      add\n      0x00\n      swap1\n      sload\n      swap1\n      0x0100\n      exp\n      swap1\n      div\n      0xffffffffffffffffffffffffffffffffffffffff\n      and\n        /* \"mainnet/0x81906929b10416a65A305d498267fE20adfC4746/contracts/Marketplace.sol\":10819:10853  listing.paymentToken == address(0) */\n      0xffffffffffffffffffffffffffffffffffffffff\n      and\n      sub\n        /* \"mainnet/0x81906929b10416a65A305d498267fE20adfC4746/contracts/Marketplace.sol\":10815:11309  if (listing.paymentToken == address(0)) {... */\n      tag_241\n      jumpi\n        /* \"mainnet/0x81906929b10416a65A305d498267fE20adfC4746/contracts/Marketplace.sol\":10930:10942  bool success */\n      0x00\n        /* \"mainnet/0x81906929b10416a65A305d498267fE20adfC4746/contracts/Marketplace.sol\":10948:10955  listing */\n      dup5\n        /* \"mainnet/0x81906929b10416a65A305d498267fE20adfC4746/contracts/Marketplace.sol\":10948:10962  listing.seller */\n      0x00\n      add\n      0x00\n      swap1\n      sload\n      swap1\n      0x0100\n      exp\n      swap1\n      div\n      0xffffffffffffffffffffffffffffffffffffffff\n      and\n        /* \"mainnet/0x81906929b10416a65A305d498267fE20adfC4746/contracts/Marketplace.sol\":10948:10967  listing.seller.call */\n      0xffffffffffffffffffffffffffffffffffffffff\n      and\n        /* \"mainnet/0x81906929b10416a65A305d498267fE20adfC4746/contracts/Marketplace.sol\":10975:10989  sellerProceeds */\n      dup3\n        /* \"mainnet/0x81906929b10416a65A305d498267fE20adfC4746/contracts/Marketplace.sol\":10948:10994  listing.seller.call{value: sellerProceeds}(\"\") */\n      mload(0x40)\n      tag_242\n      swap1\n      tag_243\n      jump\t// in\n    tag_242:\n      0x00\n      mload(0x40)\n      dup1\n      dup4\n      sub\n      dup2\n      dup6\n      dup8\n      gas\n      call\n      swap3\n      pop\n      pop\n      pop\n      returndatasize\n      dup1\n      0x00\n      dup2\n      eq\n      tag_246\n      jumpi\n      mload(0x40)\n      swap2\n      pop\n      and(add(returndatasize, 0x3f), not(0x1f))\n      dup3\n      add\n      0x40\n      mstore\n      returndatasize\n      dup3\n      mstore\n      returndatasize\n      0x00\n      0x20\n      dup5\n      add\n      returndatacopy\n      jump(tag_245)\n    tag_246:\n      0x60\n      swap2\n      pop\n    tag_245:\n      pop\n        /* \"mainnet/0x81906929b10416a65A305d498267fE20adfC4746/contracts/Marketplace.sol\":10929:10994  (bool success, ) = listing.seller.call{value: sellerProceeds}(\"\") */\n      pop\n      swap1\n      pop\n        /* \"mainnet/0x81906929b10416a65A305d498267fE20adfC4746/contracts/Marketplace.sol\":11016:11023  success */\n      dup1\n        /* \"mainnet/0x81906929b10416a65A305d498267fE20adfC4746/contracts/Marketplace.sol\":11008:11057  require(success, \"ETH transfer to seller failed\") */\n      tag_247\n      jumpi\n      mload(0x40)\n      0x08c379a000000000000000000000000000000000000000000000000000000000\n      dup2\n      mstore\n      0x04\n      add\n      tag_248\n      swap1\n      tag_249\n      jump\t// in\n    tag_248:\n      mload(0x40)\n      dup1\n      swap2\n      sub\n      swap1\n      revert\n    tag_247:\n        /* \"mainnet/0x81906929b10416a65A305d498267fE20adfC4746/contracts/Marketplace.sol\":10855:11068  {... */\n      pop\n        /* \"mainnet/0x81906929b10416a65A305d498267fE20adfC4746/contracts/Marketplace.sol\":10815:11309  if (listing.paymentToken == address(0)) {... */\n      jump(tag_250)\n    tag_241:\n        /* \"mainnet/0x81906929b10416a65A305d498267fE20adfC4746/contracts/Marketplace.sol\":11133:11136  fee */\n      dup2\n        /* \"mainnet/0x81906929b10416a65A305d498267fE20adfC4746/contracts/Marketplace.sol\":11088:11107  adminsTokenEarnings */\n      0x05\n        /* \"mainnet/0x81906929b10416a65A305d498267fE20adfC4746/contracts/Marketplace.sol\":11088:11129  adminsTokenEarnings[listing.paymentToken] */\n      0x00\n        /* \"mainnet/0x81906929b10416a65A305d498267fE20adfC4746/contracts/Marketplace.sol\":11108:11115  listing */\n      dup7\n        /* \"mainnet/0x81906929b10416a65A305d498267fE20adfC4746/contracts/Marketplace.sol\":11108:11128  listing.paymentToken */\n      0x02\n      add\n      0x00\n      swap1\n      sload\n      swap1\n      0x0100\n      exp\n      swap1\n      div\n      0xffffffffffffffffffffffffffffffffffffffff\n      and\n        /* \"mainnet/0x81906929b10416a65A305d498267fE20adfC4746/contracts/Marketplace.sol\":11088:11129  adminsTokenEarnings[listing.paymentToken] */\n      0xffffffffffffffffffffffffffffffffffffffff\n      and\n      0xffffffffffffffffffffffffffffffffffffffff\n      and\n      dup2\n      mstore\n      0x20\n      add\n      swap1\n      dup2\n      mstore\n      0x20\n      add\n      0x00\n      keccak256\n      0x00\n        /* \"mainnet/0x81906929b10416a65A305d498267fE20adfC4746/contracts/Marketplace.sol\":11088:11136  adminsTokenEarnings[listing.paymentToken] += fee */\n      dup3\n      dup3\n      sload\n      tag_251\n      swap2\n      swap1\n      tag_238\n      jump\t// in\n    tag_251:\n      swap3\n      pop\n      pop\n      dup2\n      swap1\n      sstore\n      pop\n        /* \"mainnet/0x81906929b10416a65A305d498267fE20adfC4746/contracts/Marketplace.sol\":11179:11298  IERC20(listing.paymentToken).safeTransfer(... */\n      tag_252\n        /* \"mainnet/0x81906929b10416a65A305d498267fE20adfC4746/contracts/Marketplace.sol\":11238:11245  listing */\n      dup5\n        /* \"mainnet/0x81906929b10416a65A305d498267fE20adfC4746/contracts/Marketplace.sol\":11238:11252  listing.seller */\n      0x00\n      add\n      0x00\n      swap1\n      sload\n      swap1\n      0x0100\n      exp\n      swap1\n      div\n      0xffffffffffffffffffffffffffffffffffffffff\n      and\n        /* \"mainnet/0x81906929b10416a65A305d498267fE20adfC4746/contracts/Marketplace.sol\":11270:11284  sellerProceeds */\n      dup3\n        /* \"mainnet/0x81906929b10416a65A305d498267fE20adfC4746/contracts/Marketplace.sol\":11186:11193  listing */\n      dup7\n        /* \"mainnet/0x81906929b10416a65A305d498267fE20adfC4746/contracts/Marketplace.sol\":11186:11206  listing.paymentToken */\n      0x02\n      add\n      0x00\n      swap1\n      sload\n      swap1\n      0x0100\n      exp\n      swap1\n      div\n      0xffffffffffffffffffffffffffffffffffffffff\n      and\n        /* \"mainnet/0x81906929b10416a65A305d498267fE20adfC4746/contracts/Marketplace.sol\":11179:11220  IERC20(listing.paymentToken).safeTransfer */\n      0xffffffffffffffffffffffffffffffffffffffff\n      and\n      tag_253\n      swap1\n        /* \"mainnet/0x81906929b10416a65A305d498267fE20adfC4746/contracts/Marketplace.sol\":11179:11298  IERC20(listing.paymentToken).safeTransfer(... */\n      swap3\n      swap2\n      swap1\n      0xffffffff\n      and\n      jump\t// in\n    tag_252:\n        /* \"mainnet/0x81906929b10416a65A305d498267fE20adfC4746/contracts/Marketplace.sol\":10815:11309  if (listing.paymentToken == address(0)) {... */\n    tag_250:\n        /* \"mainnet/0x81906929b10416a65A305d498267fE20adfC4746/contracts/Marketplace.sol\":11351:11362  nftContract */\n      0x0d\n      0x00\n      swap1\n      sload\n      swap1\n      0x0100\n      exp\n      swap1\n      div\n      0xffffffffffffffffffffffffffffffffffffffff\n      and\n        /* \"mainnet/0x81906929b10416a65A305d498267fE20adfC4746/contracts/Marketplace.sol\":11343:11376  IERC721(nftContract).transferFrom */\n      0xffffffffffffffffffffffffffffffffffffffff\n      and\n      0x23b872dd\n        /* \"mainnet/0x81906929b10416a65A305d498267fE20adfC4746/contracts/Marketplace.sol\":11398:11402  this */\n      address\n        /* \"mainnet/0x81906929b10416a65A305d498267fE20adfC4746/contracts/Marketplace.sol\":11417:11420  bid */\n      dup6\n        /* \"mainnet/0x81906929b10416a65A305d498267fE20adfC4746/contracts/Marketplace.sol\":11417:11427  bid.bidder */\n      0x00\n      add\n      mload\n        /* \"mainnet/0x81906929b10416a65A305d498267fE20adfC4746/contracts/Marketplace.sol\":11441:11448  listing */\n      dup8\n        /* \"mainnet/0x81906929b10416a65A305d498267fE20adfC4746/contracts/Marketplace.sol\":11441:11456  listing.tokenId */\n      0x01\n      add\n      sload\n        /* \"mainnet/0x81906929b10416a65A305d498267fE20adfC4746/contracts/Marketplace.sol\":11343:11466  IERC721(nftContract).transferFrom(... */\n      mload(0x40)\n      dup5\n      0xffffffff\n      and\n      0xe0\n      shl\n      dup2\n      mstore\n      0x04\n      add\n      tag_254\n      swap4\n      swap3\n      swap2\n      swap1\n      tag_255\n      jump\t// in\n    tag_254:\n      0x00\n      mload(0x40)\n      dup1\n      dup4\n      sub\n      dup2\n      0x00\n      dup8\n      dup1\n      extcodesize\n      iszero\n      dup1\n      iszero\n      tag_256\n      jumpi\n      0x00\n      dup1\n      revert\n    tag_256:\n      pop\n      gas\n      call\n      iszero\n      dup1\n      iszero\n      tag_258\n      jumpi\n      returndatasize\n      0x00\n      dup1\n      returndatacopy\n      revert(0x00, returndatasize)\n    tag_258:\n      pop\n      pop\n      pop\n      pop\n        /* \"mainnet/0x81906929b10416a65A305d498267fE20adfC4746/contracts/Marketplace.sol\":11522:11530  listings */\n      0x06\n        /* \"mainnet/0x81906929b10416a65A305d498267fE20adfC4746/contracts/Marketplace.sol\":11522:11540  listings[_tokenId] */\n      0x00\n        /* \"mainnet/0x81906929b10416a65A305d498267fE20adfC4746/contracts/Marketplace.sol\":11531:11539  _tokenId */\n      dup8\n        /* \"mainnet/0x81906929b10416a65A305d498267fE20adfC4746/contracts/Marketplace.sol\":11522:11540  listings[_tokenId] */\n      dup2\n      mstore\n      0x20\n      add\n      swap1\n      dup2\n      mstore\n      0x20\n      add\n      0x00\n      keccak256\n      0x00\n        /* \"mainnet/0x81906929b10416a65A305d498267fE20adfC4746/contracts/Marketplace.sol\":11515:11540  delete listings[_tokenId] */\n      dup1\n      dup3\n      add\n      exp(0x0100, 0x00)\n      dup2\n      sload\n      swap1\n      0xffffffffffffffffffffffffffffffffffffffff\n      mul\n      not\n      and\n      swap1\n      sstore\n      0x01\n      dup3\n      add\n      0x00\n      swap1\n      sstore\n      0x02\n      dup3\n      add\n      exp(0x0100, 0x00)\n      dup2\n      sload\n      swap1\n      0xffffffffffffffffffffffffffffffffffffffff\n      mul\n      not\n      and\n      swap1\n      sstore\n      0x03\n      dup3\n      add\n      0x00\n      swap1\n      sstore\n      0x04\n      dup3\n      add\n      exp(0x0100, 0x00)\n      dup2\n      sload\n      swap1\n      0xff\n      mul\n      not\n      and\n      swap1\n      sstore\n      pop\n      pop\n        /* \"mainnet/0x81906929b10416a65A305d498267fE20adfC4746/contracts/Marketplace.sol\":11557:11568  currentBids */\n      0x07\n        /* \"mainnet/0x81906929b10416a65A305d498267fE20adfC4746/contracts/Marketplace.sol\":11557:11578  currentBids[_tokenId] */\n      0x00\n        /* \"mainnet/0x81906929b10416a65A305d498267fE20adfC4746/contracts/Marketplace.sol\":11569:11577  _tokenId */\n      dup8\n        /* \"mainnet/0x81906929b10416a65A305d498267fE20adfC4746/contracts/Marketplace.sol\":11557:11578  currentBids[_tokenId] */\n      dup2\n      mstore\n      0x20\n      add\n      swap1\n      dup2\n      mstore\n      0x20\n      add\n      0x00\n      keccak256\n      0x00\n        /* \"mainnet/0x81906929b10416a65A305d498267fE20adfC4746/contracts/Marketplace.sol\":11550:11578  delete currentBids[_tokenId] */\n      dup1\n      dup3\n      add\n      exp(0x0100, 0x00)\n      dup2\n      sload\n      swap1\n      0xffffffffffffffffffffffffffffffffffffffff\n      mul\n      not\n      and\n      swap1\n      sstore\n      0x01\n      dup3\n      add\n      0x00\n      swap1\n      sstore\n      pop\n      pop\n        /* \"mainnet/0x81906929b10416a65A305d498267fE20adfC4746/contracts/Marketplace.sol\":11624:11631  listing */\n      dup4\n        /* \"mainnet/0x81906929b10416a65A305d498267fE20adfC4746/contracts/Marketplace.sol\":11624:11638  listing.seller */\n      0x00\n      add\n      0x00\n      swap1\n      sload\n      swap1\n      0x0100\n      exp\n      swap1\n      div\n      0xffffffffffffffffffffffffffffffffffffffff\n      and\n        /* \"mainnet/0x81906929b10416a65A305d498267fE20adfC4746/contracts/Marketplace.sol\":11594:11651  NFTSold(_tokenId, bid.bidder, listing.seller, bid.amount) */\n      0xffffffffffffffffffffffffffffffffffffffff\n      and\n        /* \"mainnet/0x81906929b10416a65A305d498267fE20adfC4746/contracts/Marketplace.sol\":11612:11615  bid */\n      dup4\n        /* \"mainnet/0x81906929b10416a65A305d498267fE20adfC4746/contracts/Marketplace.sol\":11612:11622  bid.bidder */\n      0x00\n      add\n      mload\n        /* \"mainnet/0x81906929b10416a65A305d498267fE20adfC4746/contracts/Marketplace.sol\":11594:11651  NFTSold(_tokenId, bid.bidder, listing.seller, bid.amount) */\n      0xffffffffffffffffffffffffffffffffffffffff\n      and\n      0x8562eb94748e30bb0071e932744ce902b460c683474fcb3bfd567ffa16b1afb2\n        /* \"mainnet/0x81906929b10416a65A305d498267fE20adfC4746/contracts/Marketplace.sol\":11602:11610  _tokenId */\n      dup9\n        /* \"mainnet/0x81906929b10416a65A305d498267fE20adfC4746/contracts/Marketplace.sol\":11640:11643  bid */\n      dup7\n        /* \"mainnet/0x81906929b10416a65A305d498267fE20adfC4746/contracts/Marketplace.sol\":11640:11650  bid.amount */\n      0x20\n      add\n      mload\n        /* \"mainnet/0x81906929b10416a65A305d498267fE20adfC4746/contracts/Marketplace.sol\":11594:11651  NFTSold(_tokenId, bid.bidder, listing.seller, bid.amount) */\n      mload(0x40)\n      tag_259\n      swap3\n      swap2\n      swap1\n      tag_260\n      jump\t// in\n    tag_259:\n      mload(0x40)\n      dup1\n      swap2\n      sub\n      swap1\n      log3\n        /* \"mainnet/0x81906929b10416a65A305d498267fE20adfC4746/contracts/Marketplace.sol\":10386:11658  {... */\n      pop\n      pop\n      pop\n      pop\n        /* \"@openzeppelin/contracts/utils/Pausable.sol\":1503:1504  _ */\n      pop\n        /* \"@openzeppelin/contracts/utils/ReentrancyGuard.sol\":2542:2562  _nonReentrantAfter() */\n      tag_261\n        /* \"@openzeppelin/contracts/utils/ReentrancyGuard.sol\":2542:2560  _nonReentrantAfter */\n      tag_202\n        /* \"@openzeppelin/contracts/utils/ReentrancyGuard.sol\":2542:2562  _nonReentrantAfter() */\n      jump\t// in\n    tag_261:\n        /* \"mainnet/0x81906929b10416a65A305d498267fE20adfC4746/contracts/Marketplace.sol\":10273:11658  function acceptBid(... */\n      pop\n      jump\t// out\n        /* \"mainnet/0x81906929b10416a65A305d498267fE20adfC4746/contracts/Marketplace.sol\":7560:8022  function cancelListing(... */\n    tag_71:\n        /* \"@openzeppelin/contracts/utils/Pausable.sol\":1474:1493  _requireNotPaused() */\n      tag_263\n        /* \"@openzeppelin/contracts/utils/Pausable.sol\":1474:1491  _requireNotPaused */\n      tag_193\n        /* \"@openzeppelin/contracts/utils/Pausable.sol\":1474:1493  _requireNotPaused() */\n      jump\t// in\n    tag_263:\n        /* \"@openzeppelin/contracts/utils/ReentrancyGuard.sol\":2500:2521  _nonReentrantBefore() */\n      tag_265\n        /* \"@openzeppelin/contracts/utils/ReentrancyGuard.sol\":2500:2519  _nonReentrantBefore */\n      tag_190\n        /* \"@openzeppelin/contracts/utils/ReentrancyGuard.sol\":2500:2521  _nonReentrantBefore() */\n      jump\t// in\n    tag_265:\n        /* \"mainnet/0x81906929b10416a65A305d498267fE20adfC4746/contracts/Marketplace.sol\":7669:7677  listings */\n      0x06\n        /* \"mainnet/0x81906929b10416a65A305d498267fE20adfC4746/contracts/Marketplace.sol\":7669:7687  listings[_tokenId] */\n      0x00\n        /* \"mainnet/0x81906929b10416a65A305d498267fE20adfC4746/contracts/Marketplace.sol\":7678:7686  _tokenId */\n      dup3\n        /* \"mainnet/0x81906929b10416a65A305d498267fE20adfC4746/contracts/Marketplace.sol\":7669:7687  listings[_tokenId] */\n      dup2\n      mstore\n      0x20\n      add\n      swap1\n      dup2\n      mstore\n      0x20\n      add\n      0x00\n      keccak256\n        /* \"mainnet/0x81906929b10416a65A305d498267fE20adfC4746/contracts/Marketplace.sol\":7669:7694  listings[_tokenId].active */\n      0x04\n      add\n      0x00\n      swap1\n      sload\n      swap1\n      0x0100\n      exp\n      swap1\n      div\n      0xff\n      and\n        /* \"mainnet/0x81906929b10416a65A305d498267fE20adfC4746/contracts/Marketplace.sol\":7661:7717  require(listings[_tokenId].active, \"Listing not active\") */\n      tag_267\n      jumpi\n      mload(0x40)\n      0x08c379a000000000000000000000000000000000000000000000000000000000\n      dup2\n      mstore\n      0x04\n      add\n      tag_268\n      swap1\n      tag_225\n      jump\t// in\n    tag_268:\n      mload(0x40)\n      dup1\n      swap2\n      sub\n      swap1\n      revert\n    tag_267:\n        /* \"mainnet/0x81906929b10416a65A305d498267fE20adfC4746/contracts/Marketplace.sol\":7764:7774  msg.sender */\n      caller\n        /* \"mainnet/0x81906929b10416a65A305d498267fE20adfC4746/contracts/Marketplace.sol\":7735:7774  listings[_tokenId].seller == msg.sender */\n      0xffffffffffffffffffffffffffffffffffffffff\n      and\n        /* \"mainnet/0x81906929b10416a65A305d498267fE20adfC4746/contracts/Marketplace.sol\":7735:7743  listings */\n      0x06\n        /* \"mainnet/0x81906929b10416a65A305d498267fE20adfC4746/contracts/Marketplace.sol\":7735:7753  listings[_tokenId] */\n      0x00\n        /* \"mainnet/0x81906929b10416a65A305d498267fE20adfC4746/contracts/Marketplace.sol\":7744:7752  _tokenId */\n      dup4\n        /* \"mainnet/0x81906929b10416a65A305d498267fE20adfC4746/contracts/Marketplace.sol\":7735:7753  listings[_tokenId] */\n      dup2\n      mstore\n      0x20\n      add\n      swap1\n      dup2\n      mstore\n      0x20\n      add\n      0x00\n      keccak256\n        /* \"mainnet/0x81906929b10416a65A305d498267fE20adfC4746/contracts/Marketplace.sol\":7735:7760  listings[_tokenId].seller */\n      0x00\n      add\n      0x00\n      swap1\n      sload\n      swap1\n      0x0100\n      exp\n      swap1\n      div\n      0xffffffffffffffffffffffffffffffffffffffff\n      and\n        /* \"mainnet/0x81906929b10416a65A305d498267fE20adfC4746/contracts/Marketplace.sol\":7735:7774  listings[_tokenId].seller == msg.sender */\n      0xffffffffffffffffffffffffffffffffffffffff\n      and\n      eq\n        /* \"mainnet/0x81906929b10416a65A305d498267fE20adfC4746/contracts/Marketplace.sol\":7727:7796  require(listings[_tokenId].seller == msg.sender, \"Not listing owner\") */\n      tag_269\n      jumpi\n      mload(0x40)\n      0x08c379a000000000000000000000000000000000000000000000000000000000\n      dup2\n      mstore\n      0x04\n      add\n      tag_270\n      swap1\n      tag_271\n      jump\t// in\n    tag_270:\n      mload(0x40)\n      dup1\n      swap2\n      sub\n      swap1\n      revert\n    tag_269:\n        /* \"mainnet/0x81906929b10416a65A305d498267fE20adfC4746/contracts/Marketplace.sol\":7865:7876  nftContract */\n      0x0d\n      0x00\n      swap1\n      sload\n      swap1\n      0x0100\n      exp\n      swap1\n      div\n      0xffffffffffffffffffffffffffffffffffffffff\n      and\n        /* \"mainnet/0x81906929b10416a65A305d498267fE20adfC4746/contracts/Marketplace.sol\":7857:7890  IERC721(nftContract).transferFrom */\n      0xffffffffffffffffffffffffffffffffffffffff\n      and\n      0x23b872dd\n        /* \"mainnet/0x81906929b10416a65A305d498267fE20adfC4746/contracts/Marketplace.sol\":7899:7903  this */\n      address\n        /* \"mainnet/0x81906929b10416a65A305d498267fE20adfC4746/contracts/Marketplace.sol\":7906:7916  msg.sender */\n      caller\n        /* \"mainnet/0x81906929b10416a65A305d498267fE20adfC4746/contracts/Marketplace.sol\":7918:7926  _tokenId */\n      dup5\n        /* \"mainnet/0x81906929b10416a65A305d498267fE20adfC4746/contracts/Marketplace.sol\":7857:7927  IERC721(nftContract).transferFrom(address(this), msg.sender, _tokenId) */\n      mload(0x40)\n      dup5\n      0xffffffff\n      and\n      0xe0\n      shl\n      dup2\n      mstore\n      0x04\n      add\n      tag_272\n      swap4\n      swap3\n      swap2\n      swap1\n      tag_255\n      jump\t// in\n    tag_272:\n      0x00\n      mload(0x40)\n      dup1\n      dup4\n      sub\n      dup2\n      0x00\n      dup8\n      dup1\n      extcodesize\n      iszero\n      dup1\n      iszero\n      tag_273\n      jumpi\n      0x00\n      dup1\n      revert\n    tag_273:\n      pop\n      gas\n      call\n      iszero\n      dup1\n      iszero\n      tag_275\n      jumpi\n      returndatasize\n      0x00\n      dup1\n      returndatacopy\n      revert(0x00, returndatasize)\n    tag_275:\n      pop\n      pop\n      pop\n      pop\n        /* \"mainnet/0x81906929b10416a65A305d498267fE20adfC4746/contracts/Marketplace.sol\":7944:7952  listings */\n      0x06\n        /* \"mainnet/0x81906929b10416a65A305d498267fE20adfC4746/contracts/Marketplace.sol\":7944:7962  listings[_tokenId] */\n      0x00\n        /* \"mainnet/0x81906929b10416a65A305d498267fE20adfC4746/contracts/Marketplace.sol\":7953:7961  _tokenId */\n      dup3\n        /* \"mainnet/0x81906929b10416a65A305d498267fE20adfC4746/contracts/Marketplace.sol\":7944:7962  listings[_tokenId] */\n      dup2\n      mstore\n      0x20\n      add\n      swap1\n      dup2\n      mstore\n      0x20\n      add\n      0x00\n      keccak256\n      0x00\n        /* \"mainnet/0x81906929b10416a65A305d498267fE20adfC4746/contracts/Marketplace.sol\":7937:7962  delete listings[_tokenId] */\n      dup1\n      dup3\n      add\n      exp(0x0100, 0x00)\n      dup2\n      sload\n      swap1\n      0xffffffffffffffffffffffffffffffffffffffff\n      mul\n      not\n      and\n      swap1\n      sstore\n      0x01\n      dup3\n      add\n      0x00\n      swap1\n      sstore\n      0x02\n      dup3\n      add\n      exp(0x0100, 0x00)\n      dup2\n      sload\n      swap1\n      0xffffffffffffffffffffffffffffffffffffffff\n      mul\n      not\n      and\n      swap1\n      sstore\n      0x03\n      dup3\n      add\n      0x00\n      swap1\n      sstore\n      0x04\n      dup3\n      add\n      exp(0x0100, 0x00)\n      dup2\n      sload\n      swap1\n      0xff\n      mul\n      not\n      and\n      swap1\n      sstore\n      pop\n      pop\n        /* \"mainnet/0x81906929b10416a65A305d498267fE20adfC4746/contracts/Marketplace.sol\":7977:8015  ListingCancelled(_tokenId, msg.sender) */\n      0x8e25282255ab31897df2b0456bb993ac7f84d376861aefd84901d2d63a7428a2\n        /* \"mainnet/0x81906929b10416a65A305d498267fE20adfC4746/contracts/Marketplace.sol\":7994:8002  _tokenId */\n      dup2\n        /* \"mainnet/0x81906929b10416a65A305d498267fE20adfC4746/contracts/Marketplace.sol\":8004:8014  msg.sender */\n      caller\n        /* \"mainnet/0x81906929b10416a65A305d498267fE20adfC4746/contracts/Marketplace.sol\":7977:8015  ListingCancelled(_tokenId, msg.sender) */\n      mload(0x40)\n      tag_276\n      swap3\n      swap2\n      swap1\n      tag_277\n      jump\t// in\n    tag_276:\n      mload(0x40)\n      dup1\n      swap2\n      sub\n      swap1\n      log1\n        /* \"@openzeppelin/contracts/utils/ReentrancyGuard.sol\":2542:2562  _nonReentrantAfter() */\n      tag_278\n        /* \"@openzeppelin/contracts/utils/ReentrancyGuard.sol\":2542:2560  _nonReentrantAfter */\n      tag_202\n        /* \"@openzeppelin/contracts/utils/ReentrancyGuard.sol\":2542:2562  _nonReentrantAfter() */\n      jump\t// in\n    tag_278:\n        /* \"mainnet/0x81906929b10416a65A305d498267fE20adfC4746/contracts/Marketplace.sol\":7560:8022  function cancelListing(... */\n      pop\n      jump\t// out\n        /* \"mainnet/0x81906929b10416a65A305d498267fE20adfC4746/contracts/Marketplace.sol\":4036:4330  function updateMarketplaceFee(... */\n    tag_75:\n        /* \"@openzeppelin/contracts/access/Ownable.sol\":1531:1544  _checkOwner() */\n      tag_280\n        /* \"@openzeppelin/contracts/access/Ownable.sol\":1531:1542  _checkOwner */\n      tag_205\n        /* \"@openzeppelin/contracts/access/Ownable.sol\":1531:1544  _checkOwner() */\n      jump\t// in\n    tag_280:\n        /* \"@openzeppelin/contracts/utils/Pausable.sol\":1474:1493  _requireNotPaused() */\n      tag_282\n        /* \"@openzeppelin/contracts/utils/Pausable.sol\":1474:1491  _requireNotPaused */\n      tag_193\n        /* \"@openzeppelin/contracts/utils/Pausable.sol\":1474:1493  _requireNotPaused() */\n      jump\t// in\n    tag_282:\n        /* \"mainnet/0x81906929b10416a65A305d498267fE20adfC4746/contracts/Marketplace.sol\":4158:4159  0 */\n      0x00\n        /* \"mainnet/0x81906929b10416a65A305d498267fE20adfC4746/contracts/Marketplace.sol\":4148:4155  _newFee */\n      dup2\n        /* \"mainnet/0x81906929b10416a65A305d498267fE20adfC4746/contracts/Marketplace.sol\":4148:4159  _newFee > 0 */\n      gt\n        /* \"mainnet/0x81906929b10416a65A305d498267fE20adfC4746/contracts/Marketplace.sol\":4140:4182  require(_newFee > 0, \"Invalid fee update\") */\n      tag_284\n      jumpi\n      mload(0x40)\n      0x08c379a000000000000000000000000000000000000000000000000000000000\n      dup2\n      mstore\n      0x04\n      add\n      tag_285\n      swap1\n      tag_286\n      jump\t// in\n    tag_285:\n      mload(0x40)\n      dup1\n      swap2\n      sub\n      swap1\n      revert\n    tag_284:\n        /* \"mainnet/0x81906929b10416a65A305d498267fE20adfC4746/contracts/Marketplace.sol\":4211:4218  MAX_FEE */\n      sload(0x03)\n        /* \"mainnet/0x81906929b10416a65A305d498267fE20adfC4746/contracts/Marketplace.sol\":4200:4207  _newFee */\n      dup2\n        /* \"mainnet/0x81906929b10416a65A305d498267fE20adfC4746/contracts/Marketplace.sol\":4200:4218  _newFee <= MAX_FEE */\n      gt\n      iszero\n        /* \"mainnet/0x81906929b10416a65A305d498267fE20adfC4746/contracts/Marketplace.sol\":4192:4244  require(_newFee <= MAX_FEE, \"Fee exceeds threshold\") */\n      tag_287\n      jumpi\n      mload(0x40)\n      0x08c379a000000000000000000000000000000000000000000000000000000000\n      dup2\n      mstore\n      0x04\n      add\n      tag_288\n      swap1\n      tag_289\n      jump\t// in\n    tag_288:\n      mload(0x40)\n      dup1\n      swap2\n      sub\n      swap1\n      revert\n    tag_287:\n        /* \"mainnet/0x81906929b10416a65A305d498267fE20adfC4746/contracts/Marketplace.sol\":4271:4278  _newFee */\n      dup1\n        /* \"mainnet/0x81906929b10416a65A305d498267fE20adfC4746/contracts/Marketplace.sol\":4254:4268  marketplaceFee */\n      0x02\n        /* \"mainnet/0x81906929b10416a65A305d498267fE20adfC4746/contracts/Marketplace.sol\":4254:4278  marketplaceFee = _newFee */\n      dup2\n      swap1\n      sstore\n      pop\n        /* \"mainnet/0x81906929b10416a65A305d498267fE20adfC4746/contracts/Marketplace.sol\":4293:4323  MarketplaceFeeUpdated(_newFee) */\n      0xe18aa129833f655a8166b6185277fee7a53f67e46fd32329bc2fc2ac21274d55\n        /* \"mainnet/0x81906929b10416a65A305d498267fE20adfC4746/contracts/Marketplace.sol\":4315:4322  _newFee */\n      dup2\n        /* \"mainnet/0x81906929b10416a65A305d498267fE20adfC4746/contracts/Marketplace.sol\":4293:4323  MarketplaceFeeUpdated(_newFee) */\n      mload(0x40)\n      tag_290\n      swap2\n      swap1\n      tag_49\n      jump\t// in\n    tag_290:\n      mload(0x40)\n      dup1\n      swap2\n      sub\n      swap1\n      log1\n        /* \"mainnet/0x81906929b10416a65A305d498267fE20adfC4746/contracts/Marketplace.sol\":4036:4330  function updateMarketplaceFee(... */\n      pop\n      jump\t// out\n        /* \"mainnet/0x81906929b10416a65A305d498267fE20adfC4746/contracts/Marketplace.sol\":3965:4030  function unpause() external onlyOwner {... */\n    tag_78:\n        /* \"@openzeppelin/contracts/access/Ownable.sol\":1531:1544  _checkOwner() */\n      tag_292\n        /* \"@openzeppelin/contracts/access/Ownable.sol\":1531:1542  _checkOwner */\n      tag_205\n        /* \"@openzeppelin/contracts/access/Ownable.sol\":1531:1544  _checkOwner() */\n      jump\t// in\n    tag_292:\n        /* \"mainnet/0x81906929b10416a65A305d498267fE20adfC4746/contracts/Marketplace.sol\":4013:4023  _unpause() */\n      tag_294\n        /* \"mainnet/0x81906929b10416a65A305d498267fE20adfC4746/contracts/Marketplace.sol\":4013:4021  _unpause */\n      tag_295\n        /* \"mainnet/0x81906929b10416a65A305d498267fE20adfC4746/contracts/Marketplace.sol\":4013:4023  _unpause() */\n      jump\t// in\n    tag_294:\n        /* \"mainnet/0x81906929b10416a65A305d498267fE20adfC4746/contracts/Marketplace.sol\":3965:4030  function unpause() external onlyOwner {... */\n      jump\t// out\n        /* \"mainnet/0x81906929b10416a65A305d498267fE20adfC4746/contracts/Marketplace.sol\":4851:5125  function updateUsdtTokenAddress(address _newAddress) external onlyOwner {... */\n    tag_82:\n        /* \"@openzeppelin/contracts/access/Ownable.sol\":1531:1544  _checkOwner() */\n      tag_297\n        /* \"@openzeppelin/contracts/access/Ownable.sol\":1531:1542  _checkOwner */\n      tag_205\n        /* \"@openzeppelin/contracts/access/Ownable.sol\":1531:1544  _checkOwner() */\n      jump\t// in\n    tag_297:\n        /* \"mainnet/0x81906929b10416a65A305d498267fE20adfC4746/contracts/Marketplace.sol\":4964:4965  0 */\n      0x00\n        /* \"mainnet/0x81906929b10416a65A305d498267fE20adfC4746/contracts/Marketplace.sol\":4941:4966  _newAddress != address(0) */\n      0xffffffffffffffffffffffffffffffffffffffff\n      and\n        /* \"mainnet/0x81906929b10416a65A305d498267fE20adfC4746/contracts/Marketplace.sol\":4941:4952  _newAddress */\n      dup2\n        /* \"mainnet/0x81906929b10416a65A305d498267fE20adfC4746/contracts/Marketplace.sol\":4941:4966  _newAddress != address(0) */\n      0xffffffffffffffffffffffffffffffffffffffff\n      and\n      sub\n        /* \"mainnet/0x81906929b10416a65A305d498267fE20adfC4746/contracts/Marketplace.sol\":4933:4986  require(_newAddress != address(0), \"Invalid address\") */\n      tag_299\n      jumpi\n      mload(0x40)\n      0x08c379a000000000000000000000000000000000000000000000000000000000\n      dup2\n      mstore\n      0x04\n      add\n      tag_300\n      swap1\n      tag_209\n      jump\t// in\n    tag_300:\n      mload(0x40)\n      dup1\n      swap2\n      sub\n      swap1\n      revert\n    tag_299:\n        /* \"mainnet/0x81906929b10416a65A305d498267fE20adfC4746/contracts/Marketplace.sol\":4997:5015  address oldAddress */\n      0x00\n        /* \"mainnet/0x81906929b10416a65A305d498267fE20adfC4746/contracts/Marketplace.sol\":5018:5027  tokenUSDT */\n      0x0b\n      0x00\n      swap1\n      sload\n      swap1\n      0x0100\n      exp\n      swap1\n      div\n      0xffffffffffffffffffffffffffffffffffffffff\n      and\n        /* \"mainnet/0x81906929b10416a65A305d498267fE20adfC4746/contracts/Marketplace.sol\":4997:5027  address oldAddress = tokenUSDT */\n      swap1\n      pop\n        /* \"mainnet/0x81906929b10416a65A305d498267fE20adfC4746/contracts/Marketplace.sol\":5049:5060  _newAddress */\n      dup2\n        /* \"mainnet/0x81906929b10416a65A305d498267fE20adfC4746/contracts/Marketplace.sol\":5037:5046  tokenUSDT */\n      0x0b\n      0x00\n        /* \"mainnet/0x81906929b10416a65A305d498267fE20adfC4746/contracts/Marketplace.sol\":5037:5060  tokenUSDT = _newAddress */\n      0x0100\n      exp\n      dup2\n      sload\n      dup2\n      0xffffffffffffffffffffffffffffffffffffffff\n      mul\n      not\n      and\n      swap1\n      dup4\n      0xffffffffffffffffffffffffffffffffffffffff\n      and\n      mul\n      or\n      swap1\n      sstore\n      pop\n        /* \"mainnet/0x81906929b10416a65A305d498267fE20adfC4746/contracts/Marketplace.sol\":5075:5118  UsdtAddressUpdated(oldAddress, _newAddress) */\n      0x495ea904988daa5f88f7d03303cced2c8a506050b1a7d20644a75313de113813\n        /* \"mainnet/0x81906929b10416a65A305d498267fE20adfC4746/contracts/Marketplace.sol\":5094:5104  oldAddress */\n      dup2\n        /* \"mainnet/0x81906929b10416a65A305d498267fE20adfC4746/contracts/Marketplace.sol\":5106:5117  _newAddress */\n      dup4\n        /* \"mainnet/0x81906929b10416a65A305d498267fE20adfC4746/contracts/Marketplace.sol\":5075:5118  UsdtAddressUpdated(oldAddress, _newAddress) */\n      mload(0x40)\n      tag_301\n      swap3\n      swap2\n      swap1\n      tag_211\n      jump\t// in\n    tag_301:\n      mload(0x40)\n      dup1\n      swap2\n      sub\n      swap1\n      log1\n        /* \"mainnet/0x81906929b10416a65A305d498267fE20adfC4746/contracts/Marketplace.sol\":4923:5125  {... */\n      pop\n        /* \"mainnet/0x81906929b10416a65A305d498267fE20adfC4746/contracts/Marketplace.sol\":4851:5125  function updateUsdtTokenAddress(address _newAddress) external onlyOwner {... */\n      pop\n      jump\t// out\n        /* \"mainnet/0x81906929b10416a65A305d498267fE20adfC4746/contracts/Marketplace.sol\":11734:12356  function withdrawEthRefunds() external nonReentrant {... */\n    tag_85:\n        /* \"@openzeppelin/contracts/utils/ReentrancyGuard.sol\":2500:2521  _nonReentrantBefore() */\n      tag_303\n        /* \"@openzeppelin/contracts/utils/ReentrancyGuard.sol\":2500:2519  _nonReentrantBefore */\n      tag_190\n        /* \"@openzeppelin/contracts/utils/ReentrancyGuard.sol\":2500:2521  _nonReentrantBefore() */\n      jump\t// in\n    tag_303:\n        /* \"mainnet/0x81906929b10416a65A305d498267fE20adfC4746/contracts/Marketplace.sol\":11796:11810  uint256 amount */\n      0x00\n        /* \"mainnet/0x81906929b10416a65A305d498267fE20adfC4746/contracts/Marketplace.sol\":11813:11833  ethRefundsForBidders */\n      0x08\n        /* \"mainnet/0x81906929b10416a65A305d498267fE20adfC4746/contracts/Marketplace.sol\":11813:11845  ethRefundsForBidders[msg.sender] */\n      0x00\n        /* \"mainnet/0x81906929b10416a65A305d498267fE20adfC4746/contracts/Marketplace.sol\":11834:11844  msg.sender */\n      caller\n        /* \"mainnet/0x81906929b10416a65A305d498267fE20adfC4746/contracts/Marketplace.sol\":11813:11845  ethRefundsForBidders[msg.sender] */\n      0xffffffffffffffffffffffffffffffffffffffff\n      and\n      0xffffffffffffffffffffffffffffffffffffffff\n      and\n      dup2\n      mstore\n      0x20\n      add\n      swap1\n      dup2\n      mstore\n      0x20\n      add\n      0x00\n      keccak256\n      sload\n        /* \"mainnet/0x81906929b10416a65A305d498267fE20adfC4746/contracts/Marketplace.sol\":11796:11845  uint256 amount = ethRefundsForBidders[msg.sender] */\n      swap1\n      pop\n        /* \"mainnet/0x81906929b10416a65A305d498267fE20adfC4746/contracts/Marketplace.sol\":11872:11873  0 */\n      0x00\n        /* \"mainnet/0x81906929b10416a65A305d498267fE20adfC4746/contracts/Marketplace.sol\":11863:11869  amount */\n      dup2\n        /* \"mainnet/0x81906929b10416a65A305d498267fE20adfC4746/contracts/Marketplace.sol\":11863:11873  amount > 0 */\n      gt\n        /* \"mainnet/0x81906929b10416a65A305d498267fE20adfC4746/contracts/Marketplace.sol\":11855:11898  require(amount > 0, \"No refundable amount\") */\n      tag_305\n      jumpi\n      mload(0x40)\n      0x08c379a000000000000000000000000000000000000000000000000000000000\n      dup2\n      mstore\n      0x04\n      add\n      tag_306\n      swap1\n      tag_307\n      jump\t// in\n    tag_306:\n      mload(0x40)\n      dup1\n      swap2\n      sub\n      swap1\n      revert\n    tag_305:\n        /* \"mainnet/0x81906929b10416a65A305d498267fE20adfC4746/contracts/Marketplace.sol\":12015:12036  address(this).balance */\n      selfbalance\n        /* \"mainnet/0x81906929b10416a65A305d498267fE20adfC4746/contracts/Marketplace.sol\":12005:12011  amount */\n      dup2\n        /* \"mainnet/0x81906929b10416a65A305d498267fE20adfC4746/contracts/Marketplace.sol\":12005:12036  amount <= address(this).balance */\n      gt\n      iszero\n        /* \"mainnet/0x81906929b10416a65A305d498267fE20adfC4746/contracts/Marketplace.sol\":11984:12091  require(... */\n      tag_308\n      jumpi\n      mload(0x40)\n      0x08c379a000000000000000000000000000000000000000000000000000000000\n      dup2\n      mstore\n      0x04\n      add\n      tag_309\n      swap1\n      tag_310\n      jump\t// in\n    tag_309:\n      mload(0x40)\n      dup1\n      swap2\n      sub\n      swap1\n      revert\n    tag_308:\n        /* \"mainnet/0x81906929b10416a65A305d498267fE20adfC4746/contracts/Marketplace.sol\":12137:12138  0 */\n      0x00\n        /* \"mainnet/0x81906929b10416a65A305d498267fE20adfC4746/contracts/Marketplace.sol\":12102:12122  ethRefundsForBidders */\n      0x08\n        /* \"mainnet/0x81906929b10416a65A305d498267fE20adfC4746/contracts/Marketplace.sol\":12102:12134  ethRefundsForBidders[msg.sender] */\n      0x00\n        /* \"mainnet/0x81906929b10416a65A305d498267fE20adfC4746/contracts/Marketplace.sol\":12123:12133  msg.sender */\n      caller\n        /* \"mainnet/0x81906929b10416a65A305d498267fE20adfC4746/contracts/Marketplace.sol\":12102:12134  ethRefundsForBidders[msg.sender] */\n      0xffffffffffffffffffffffffffffffffffffffff\n      and\n      0xffffffffffffffffffffffffffffffffffffffff\n      and\n      dup2\n      mstore\n      0x20\n      add\n      swap1\n      dup2\n      mstore\n      0x20\n      add\n      0x00\n      keccak256\n        /* \"mainnet/0x81906929b10416a65A305d498267fE20adfC4746/contracts/Marketplace.sol\":12102:12138  ethRefundsForBidders[msg.sender] = 0 */\n      dup2\n      swap1\n      sstore\n      pop\n        /* \"mainnet/0x81906929b10416a65A305d498267fE20adfC4746/contracts/Marketplace.sol\":12179:12191  bool success */\n      0x00\n        /* \"mainnet/0x81906929b10416a65A305d498267fE20adfC4746/contracts/Marketplace.sol\":12197:12207  msg.sender */\n      caller\n        /* \"mainnet/0x81906929b10416a65A305d498267fE20adfC4746/contracts/Marketplace.sol\":12197:12212  msg.sender.call */\n      0xffffffffffffffffffffffffffffffffffffffff\n      and\n        /* \"mainnet/0x81906929b10416a65A305d498267fE20adfC4746/contracts/Marketplace.sol\":12220:12226  amount */\n      dup3\n        /* \"mainnet/0x81906929b10416a65A305d498267fE20adfC4746/contracts/Marketplace.sol\":12197:12231  msg.sender.call{value: amount}(\"\") */\n      mload(0x40)\n      tag_311\n      swap1\n      tag_243\n      jump\t// in\n    tag_311:\n      0x00\n      mload(0x40)\n      dup1\n      dup4\n      sub\n      dup2\n      dup6\n      dup8\n      gas\n      call\n      swap3\n      pop\n      pop\n      pop\n      returndatasize\n      dup1\n      0x00\n      dup2\n      eq\n      tag_314\n      jumpi\n      mload(0x40)\n      swap2\n      pop\n      and(add(returndatasize, 0x3f), not(0x1f))\n      dup3\n      add\n      0x40\n      mstore\n      returndatasize\n      dup3\n      mstore\n      returndatasize\n      0x00\n      0x20\n      dup5\n      add\n      returndatacopy\n      jump(tag_313)\n    tag_314:\n      0x60\n      swap2\n      pop\n    tag_313:\n      pop\n        /* \"mainnet/0x81906929b10416a65A305d498267fE20adfC4746/contracts/Marketplace.sol\":12178:12231  (bool success, ) = msg.sender.call{value: amount}(\"\") */\n      pop\n      swap1\n      pop\n        /* \"mainnet/0x81906929b10416a65A305d498267fE20adfC4746/contracts/Marketplace.sol\":12249:12256  success */\n      dup1\n        /* \"mainnet/0x81906929b10416a65A305d498267fE20adfC4746/contracts/Marketplace.sol\":12241:12286  require(success, \"ETH refund request failed\") */\n      tag_315\n      jumpi\n      mload(0x40)\n      0x08c379a000000000000000000000000000000000000000000000000000000000\n      dup2\n      mstore\n      0x04\n      add\n      tag_316\n      swap1\n      tag_317\n      jump\t// in\n    tag_316:\n      mload(0x40)\n      dup1\n      swap2\n      sub\n      swap1\n      revert\n    tag_315:\n        /* \"mainnet/0x81906929b10416a65A305d498267fE20adfC4746/contracts/Marketplace.sol\":12302:12349  RefundWithdrawn(address(0), msg.sender, amount) */\n      0xd55b5fe81317b854ac11454adf7e5a9a0adf69184d643ef9ae6bfda6a015c5bc\n        /* \"mainnet/0x81906929b10416a65A305d498267fE20adfC4746/contracts/Marketplace.sol\":12326:12327  0 */\n      0x00\n        /* \"mainnet/0x81906929b10416a65A305d498267fE20adfC4746/contracts/Marketplace.sol\":12330:12340  msg.sender */\n      caller\n        /* \"mainnet/0x81906929b10416a65A305d498267fE20adfC4746/contracts/Marketplace.sol\":12342:12348  amount */\n      dup5\n        /* \"mainnet/0x81906929b10416a65A305d498267fE20adfC4746/contracts/Marketplace.sol\":12302:12349  RefundWithdrawn(address(0), msg.sender, amount) */\n      mload(0x40)\n      tag_318\n      swap4\n      swap3\n      swap2\n      swap1\n      tag_255\n      jump\t// in\n    tag_318:\n      mload(0x40)\n      dup1\n      swap2\n      sub\n      swap1\n      log1\n        /* \"mainnet/0x81906929b10416a65A305d498267fE20adfC4746/contracts/Marketplace.sol\":11786:12356  {... */\n      pop\n      pop\n        /* \"@openzeppelin/contracts/utils/ReentrancyGuard.sol\":2542:2562  _nonReentrantAfter() */\n      tag_319\n        /* \"@openzeppelin/contracts/utils/ReentrancyGuard.sol\":2542:2560  _nonReentrantAfter */\n      tag_202\n        /* \"@openzeppelin/contracts/utils/ReentrancyGuard.sol\":2542:2562  _nonReentrantAfter() */\n      jump\t// in\n    tag_319:\n        /* \"mainnet/0x81906929b10416a65A305d498267fE20adfC4746/contracts/Marketplace.sol\":11734:12356  function withdrawEthRefunds() external nonReentrant {... */\n      jump\t// out\n        /* \"mainnet/0x81906929b10416a65A305d498267fE20adfC4746/contracts/Marketplace.sol\":5655:5958  function updateMaxFee(uint256 _newMaxFee) external onlyOwner whenNotPaused {... */\n    tag_89:\n        /* \"@openzeppelin/contracts/access/Ownable.sol\":1531:1544  _checkOwner() */\n      tag_321\n        /* \"@openzeppelin/contracts/access/Ownable.sol\":1531:1542  _checkOwner */\n      tag_205\n        /* \"@openzeppelin/contracts/access/Ownable.sol\":1531:1544  _checkOwner() */\n      jump\t// in\n    tag_321:\n        /* \"@openzeppelin/contracts/utils/Pausable.sol\":1474:1493  _requireNotPaused() */\n      tag_323\n        /* \"@openzeppelin/contracts/utils/Pausable.sol\":1474:1491  _requireNotPaused */\n      tag_193\n        /* \"@openzeppelin/contracts/utils/Pausable.sol\":1474:1493  _requireNotPaused() */\n      jump\t// in\n    tag_323:\n        /* \"mainnet/0x81906929b10416a65A305d498267fE20adfC4746/contracts/Marketplace.sol\":5808:5809  0 */\n      0x00\n        /* \"mainnet/0x81906929b10416a65A305d498267fE20adfC4746/contracts/Marketplace.sol\":5795:5805  _newMaxFee */\n      dup2\n        /* \"mainnet/0x81906929b10416a65A305d498267fE20adfC4746/contracts/Marketplace.sol\":5795:5809  _newMaxFee > 0 */\n      gt\n        /* \"mainnet/0x81906929b10416a65A305d498267fE20adfC4746/contracts/Marketplace.sol\":5795:5829  _newMaxFee > 0 && _newMaxFee < 900 */\n      dup1\n      iszero\n      tag_325\n      jumpi\n      pop\n        /* \"mainnet/0x81906929b10416a65A305d498267fE20adfC4746/contracts/Marketplace.sol\":5826:5829  900 */\n      0x0384\n        /* \"mainnet/0x81906929b10416a65A305d498267fE20adfC4746/contracts/Marketplace.sol\":5813:5823  _newMaxFee */\n      dup2\n        /* \"mainnet/0x81906929b10416a65A305d498267fE20adfC4746/contracts/Marketplace.sol\":5813:5829  _newMaxFee < 900 */\n      lt\n        /* \"mainnet/0x81906929b10416a65A305d498267fE20adfC4746/contracts/Marketplace.sol\":5795:5829  _newMaxFee > 0 && _newMaxFee < 900 */\n    tag_325:\n        /* \"mainnet/0x81906929b10416a65A305d498267fE20adfC4746/contracts/Marketplace.sol\":5774:5880  require(... */\n      tag_326\n      jumpi\n      mload(0x40)\n      0x08c379a000000000000000000000000000000000000000000000000000000000\n      dup2\n      mstore\n      0x04\n      add\n      tag_327\n      swap1\n      tag_328\n      jump\t// in\n    tag_327:\n      mload(0x40)\n      dup1\n      swap2\n      sub\n      swap1\n      revert\n    tag_326:\n        /* \"mainnet/0x81906929b10416a65A305d498267fE20adfC4746/contracts/Marketplace.sol\":5901:5911  _newMaxFee */\n      dup1\n        /* \"mainnet/0x81906929b10416a65A305d498267fE20adfC4746/contracts/Marketplace.sol\":5891:5898  MAX_FEE */\n      0x03\n        /* \"mainnet/0x81906929b10416a65A305d498267fE20adfC4746/contracts/Marketplace.sol\":5891:5911  MAX_FEE = _newMaxFee */\n      dup2\n      swap1\n      sstore\n      pop\n        /* \"mainnet/0x81906929b10416a65A305d498267fE20adfC4746/contracts/Marketplace.sol\":5926:5951  MaxFeeUpdated(_newMaxFee) */\n      0x5d46f46c0e5b2045e0cb8c00367d35d9f3f1fc035950ac8f5c675f6c0a791ba0\n        /* \"mainnet/0x81906929b10416a65A305d498267fE20adfC4746/contracts/Marketplace.sol\":5940:5950  _newMaxFee */\n      dup2\n        /* \"mainnet/0x81906929b10416a65A305d498267fE20adfC4746/contracts/Marketplace.sol\":5926:5951  MaxFeeUpdated(_newMaxFee) */\n      mload(0x40)\n      tag_329\n      swap2\n      swap1\n      tag_49\n      jump\t// in\n    tag_329:\n      mload(0x40)\n      dup1\n      swap2\n      sub\n      swap1\n      log1\n        /* \"mainnet/0x81906929b10416a65A305d498267fE20adfC4746/contracts/Marketplace.sol\":5655:5958  function updateMaxFee(uint256 _newMaxFee) external onlyOwner whenNotPaused {... */\n      pop\n      jump\t// out\n        /* \"mainnet/0x81906929b10416a65A305d498267fE20adfC4746/contracts/Marketplace.sol\":12594:13279  function withdrawTokenRefunds(address _paymentToken) external nonReentrant {... */\n    tag_93:\n        /* \"@openzeppelin/contracts/utils/ReentrancyGuard.sol\":2500:2521  _nonReentrantBefore() */\n      tag_331\n        /* \"@openzeppelin/contracts/utils/ReentrancyGuard.sol\":2500:2519  _nonReentrantBefore */\n      tag_190\n        /* \"@openzeppelin/contracts/utils/ReentrancyGuard.sol\":2500:2521  _nonReentrantBefore() */\n      jump\t// in\n    tag_331:\n        /* \"mainnet/0x81906929b10416a65A305d498267fE20adfC4746/contracts/Marketplace.sol\":12679:12693  uint256 amount */\n      0x00\n        /* \"mainnet/0x81906929b10416a65A305d498267fE20adfC4746/contracts/Marketplace.sol\":12696:12718  tokenRefundsForBidders */\n      0x09\n        /* \"mainnet/0x81906929b10416a65A305d498267fE20adfC4746/contracts/Marketplace.sol\":12696:12730  tokenRefundsForBidders[msg.sender] */\n      0x00\n        /* \"mainnet/0x81906929b10416a65A305d498267fE20adfC4746/contracts/Marketplace.sol\":12719:12729  msg.sender */\n      caller\n        /* \"mainnet/0x81906929b10416a65A305d498267fE20adfC4746/contracts/Marketplace.sol\":12696:12730  tokenRefundsForBidders[msg.sender] */\n      0xffffffffffffffffffffffffffffffffffffffff\n      and\n      0xffffffffffffffffffffffffffffffffffffffff\n      and\n      dup2\n      mstore\n      0x20\n      add\n      swap1\n      dup2\n      mstore\n      0x20\n      add\n      0x00\n      keccak256\n        /* \"mainnet/0x81906929b10416a65A305d498267fE20adfC4746/contracts/Marketplace.sol\":12696:12745  tokenRefundsForBidders[msg.sender][_paymentToken] */\n      0x00\n        /* \"mainnet/0x81906929b10416a65A305d498267fE20adfC4746/contracts/Marketplace.sol\":12731:12744  _paymentToken */\n      dup4\n        /* \"mainnet/0x81906929b10416a65A305d498267fE20adfC4746/contracts/Marketplace.sol\":12696:12745  tokenRefundsForBidders[msg.sender][_paymentToken] */\n      0xffffffffffffffffffffffffffffffffffffffff\n      and\n      0xffffffffffffffffffffffffffffffffffffffff\n      and\n      dup2\n      mstore\n      0x20\n      add\n      swap1\n      dup2\n      mstore\n      0x20\n      add\n      0x00\n      keccak256\n      sload\n        /* \"mainnet/0x81906929b10416a65A305d498267fE20adfC4746/contracts/Marketplace.sol\":12679:12745  uint256 amount = tokenRefundsForBidders[msg.sender][_paymentToken] */\n      swap1\n      pop\n        /* \"mainnet/0x81906929b10416a65A305d498267fE20adfC4746/contracts/Marketplace.sol\":12772:12773  0 */\n      0x00\n        /* \"mainnet/0x81906929b10416a65A305d498267fE20adfC4746/contracts/Marketplace.sol\":12763:12769  amount */\n      dup2\n        /* \"mainnet/0x81906929b10416a65A305d498267fE20adfC4746/contracts/Marketplace.sol\":12763:12773  amount > 0 */\n      gt\n        /* \"mainnet/0x81906929b10416a65A305d498267fE20adfC4746/contracts/Marketplace.sol\":12755:12797  require(amount > 0, \"No refundable token\") */\n      tag_333\n      jumpi\n      mload(0x40)\n      0x08c379a000000000000000000000000000000000000000000000000000000000\n      dup2\n      mstore\n      0x04\n      add\n      tag_334\n      swap1\n      tag_335\n      jump\t// in\n    tag_334:\n      mload(0x40)\n      dup1\n      swap2\n      sub\n      swap1\n      revert\n    tag_333:\n        /* \"mainnet/0x81906929b10416a65A305d498267fE20adfC4746/contracts/Marketplace.sol\":12959:12965  amount */\n      dup1\n        /* \"mainnet/0x81906929b10416a65A305d498267fE20adfC4746/contracts/Marketplace.sol\":12916:12929  _paymentToken */\n      dup3\n        /* \"mainnet/0x81906929b10416a65A305d498267fE20adfC4746/contracts/Marketplace.sol\":12909:12940  IERC20(_paymentToken).balanceOf */\n      0xffffffffffffffffffffffffffffffffffffffff\n      and\n      0x70a08231\n        /* \"mainnet/0x81906929b10416a65A305d498267fE20adfC4746/contracts/Marketplace.sol\":12949:12953  this */\n      address\n        /* \"mainnet/0x81906929b10416a65A305d498267fE20adfC4746/contracts/Marketplace.sol\":12909:12955  IERC20(_paymentToken).balanceOf(address(this)) */\n      mload(0x40)\n      dup3\n      0xffffffff\n      and\n      0xe0\n      shl\n      dup2\n      mstore\n      0x04\n      add\n      tag_336\n      swap2\n      swap1\n      tag_115\n      jump\t// in\n    tag_336:\n      0x20\n      mload(0x40)\n      dup1\n      dup4\n      sub\n      dup2\n      dup7\n      gas\n      staticcall\n      iszero\n      dup1\n      iszero\n      tag_338\n      jumpi\n      returndatasize\n      0x00\n      dup1\n      returndatacopy\n      revert(0x00, returndatasize)\n    tag_338:\n      pop\n      pop\n      pop\n      pop\n      mload(0x40)\n      returndatasize\n      not(0x1f)\n      0x1f\n      dup3\n      add\n      and\n      dup3\n      add\n      dup1\n      0x40\n      mstore\n      pop\n      dup2\n      add\n      swap1\n      tag_339\n      swap2\n      swap1\n      tag_340\n      jump\t// in\n    tag_339:\n        /* \"mainnet/0x81906929b10416a65A305d498267fE20adfC4746/contracts/Marketplace.sol\":12909:12965  IERC20(_paymentToken).balanceOf(address(this)) >= amount */\n      lt\n      iszero\n        /* \"mainnet/0x81906929b10416a65A305d498267fE20adfC4746/contracts/Marketplace.sol\":12888:13031  require(... */\n      tag_341\n      jumpi\n      mload(0x40)\n      0x08c379a000000000000000000000000000000000000000000000000000000000\n      dup2\n      mstore\n      0x04\n      add\n      tag_342\n      swap1\n      tag_343\n      jump\t// in\n    tag_342:\n      mload(0x40)\n      dup1\n      swap2\n      sub\n      swap1\n      revert\n    tag_341:\n        /* \"mainnet/0x81906929b10416a65A305d498267fE20adfC4746/contracts/Marketplace.sol\":13141:13142  0 */\n      0x00\n        /* \"mainnet/0x81906929b10416a65A305d498267fE20adfC4746/contracts/Marketplace.sol\":13089:13111  tokenRefundsForBidders */\n      0x09\n        /* \"mainnet/0x81906929b10416a65A305d498267fE20adfC4746/contracts/Marketplace.sol\":13089:13123  tokenRefundsForBidders[msg.sender] */\n      0x00\n        /* \"mainnet/0x81906929b10416a65A305d498267fE20adfC4746/contracts/Marketplace.sol\":13112:13122  msg.sender */\n      caller\n        /* \"mainnet/0x81906929b10416a65A305d498267fE20adfC4746/contracts/Marketplace.sol\":13089:13123  tokenRefundsForBidders[msg.sender] */\n      0xffffffffffffffffffffffffffffffffffffffff\n      and\n      0xffffffffffffffffffffffffffffffffffffffff\n      and\n      dup2\n      mstore\n      0x20\n      add\n      swap1\n      dup2\n      mstore\n      0x20\n      add\n      0x00\n      keccak256\n        /* \"mainnet/0x81906929b10416a65A305d498267fE20adfC4746/contracts/Marketplace.sol\":13089:13138  tokenRefundsForBidders[msg.sender][_paymentToken] */\n      0x00\n        /* \"mainnet/0x81906929b10416a65A305d498267fE20adfC4746/contracts/Marketplace.sol\":13124:13137  _paymentToken */\n      dup5\n        /* \"mainnet/0x81906929b10416a65A305d498267fE20adfC4746/contracts/Marketplace.sol\":13089:13138  tokenRefundsForBidders[msg.sender][_paymentToken] */\n      0xffffffffffffffffffffffffffffffffffffffff\n      and\n      0xffffffffffffffffffffffffffffffffffffffff\n      and\n      dup2\n      mstore\n      0x20\n      add\n      swap1\n      dup2\n      mstore\n      0x20\n      add\n      0x00\n      keccak256\n        /* \"mainnet/0x81906929b10416a65A305d498267fE20adfC4746/contracts/Marketplace.sol\":13089:13142  tokenRefundsForBidders[msg.sender][_paymentToken] = 0 */\n      dup2\n      swap1\n      sstore\n      pop\n        /* \"mainnet/0x81906929b10416a65A305d498267fE20adfC4746/contracts/Marketplace.sol\":13153:13207  IERC20(_paymentToken).safeTransfer(msg.sender, amount) */\n      tag_344\n        /* \"mainnet/0x81906929b10416a65A305d498267fE20adfC4746/contracts/Marketplace.sol\":13188:13198  msg.sender */\n      caller\n        /* \"mainnet/0x81906929b10416a65A305d498267fE20adfC4746/contracts/Marketplace.sol\":13200:13206  amount */\n      dup3\n        /* \"mainnet/0x81906929b10416a65A305d498267fE20adfC4746/contracts/Marketplace.sol\":13160:13173  _paymentToken */\n      dup5\n        /* \"mainnet/0x81906929b10416a65A305d498267fE20adfC4746/contracts/Marketplace.sol\":13153:13187  IERC20(_paymentToken).safeTransfer */\n      0xffffffffffffffffffffffffffffffffffffffff\n      and\n      tag_253\n      swap1\n        /* \"mainnet/0x81906929b10416a65A305d498267fE20adfC4746/contracts/Marketplace.sol\":13153:13207  IERC20(_paymentToken).safeTransfer(msg.sender, amount) */\n      swap3\n      swap2\n      swap1\n      0xffffffff\n      and\n      jump\t// in\n    tag_344:\n        /* \"mainnet/0x81906929b10416a65A305d498267fE20adfC4746/contracts/Marketplace.sol\":13222:13272  RefundWithdrawn(_paymentToken, msg.sender, amount) */\n      0xd55b5fe81317b854ac11454adf7e5a9a0adf69184d643ef9ae6bfda6a015c5bc\n        /* \"mainnet/0x81906929b10416a65A305d498267fE20adfC4746/contracts/Marketplace.sol\":13238:13251  _paymentToken */\n      dup3\n        /* \"mainnet/0x81906929b10416a65A305d498267fE20adfC4746/contracts/Marketplace.sol\":13253:13263  msg.sender */\n      caller\n        /* \"mainnet/0x81906929b10416a65A305d498267fE20adfC4746/contracts/Marketplace.sol\":13265:13271  amount */\n      dup4\n        /* \"mainnet/0x81906929b10416a65A305d498267fE20adfC4746/contracts/Marketplace.sol\":13222:13272  RefundWithdrawn(_paymentToken, msg.sender, amount) */\n      mload(0x40)\n      tag_345\n      swap4\n      swap3\n      swap2\n      swap1\n      tag_255\n      jump\t// in\n    tag_345:\n      mload(0x40)\n      dup1\n      swap2\n      sub\n      swap1\n      log1\n        /* \"mainnet/0x81906929b10416a65A305d498267fE20adfC4746/contracts/Marketplace.sol\":12669:13279  {... */\n      pop\n        /* \"@openzeppelin/contracts/utils/ReentrancyGuard.sol\":2542:2562  _nonReentrantAfter() */\n      tag_346\n        /* \"@openzeppelin/contracts/utils/ReentrancyGuard.sol\":2542:2560  _nonReentrantAfter */\n      tag_202\n        /* \"@openzeppelin/contracts/utils/ReentrancyGuard.sol\":2542:2562  _nonReentrantAfter() */\n      jump\t// in\n    tag_346:\n        /* \"mainnet/0x81906929b10416a65A305d498267fE20adfC4746/contracts/Marketplace.sol\":12594:13279  function withdrawTokenRefunds(address _paymentToken) external nonReentrant {... */\n      pop\n      jump\t// out\n        /* \"@openzeppelin/contracts/utils/Pausable.sol\":1850:1934  function paused() public view virtual returns (bool) {... */\n    tag_96:\n        /* \"@openzeppelin/contracts/utils/Pausable.sol\":1897:1901  bool */\n      0x00\n        /* \"@openzeppelin/contracts/utils/Pausable.sol\":1920:1927  _paused */\n      0x01\n      0x14\n      swap1\n      sload\n      swap1\n      0x0100\n      exp\n      swap1\n      div\n      0xff\n      and\n        /* \"@openzeppelin/contracts/utils/Pausable.sol\":1913:1927  return _paused */\n      swap1\n      pop\n        /* \"@openzeppelin/contracts/utils/Pausable.sol\":1850:1934  function paused() public view virtual returns (bool) {... */\n      swap1\n      jump\t// out\n        /* \"mainnet/0x81906929b10416a65A305d498267fE20adfC4746/contracts/Marketplace.sol\":6471:7344  function createListing(... */\n    tag_103:\n        /* \"@openzeppelin/contracts/utils/Pausable.sol\":1474:1493  _requireNotPaused() */\n      tag_349\n        /* \"@openzeppelin/contracts/utils/Pausable.sol\":1474:1491  _requireNotPaused */\n      tag_193\n        /* \"@openzeppelin/contracts/utils/Pausable.sol\":1474:1493  _requireNotPaused() */\n      jump\t// in\n    tag_349:\n        /* \"mainnet/0x81906929b10416a65A305d498267fE20adfC4746/contracts/Marketplace.sol\":6641:6648  tokenId */\n      dup3\n        /* \"mainnet/0x81906929b10416a65A305d498267fE20adfC4746/contracts/Marketplace.sol\":3101:3111  msg.sender */\n      caller\n        /* \"mainnet/0x81906929b10416a65A305d498267fE20adfC4746/contracts/Marketplace.sol\":3060:3111  IERC721(nftContract).ownerOf(tokenId) == msg.sender */\n      0xffffffffffffffffffffffffffffffffffffffff\n      and\n        /* \"mainnet/0x81906929b10416a65A305d498267fE20adfC4746/contracts/Marketplace.sol\":3068:3079  nftContract */\n      0x0d\n      0x00\n      swap1\n      sload\n      swap1\n      0x0100\n      exp\n      swap1\n      div\n      0xffffffffffffffffffffffffffffffffffffffff\n      and\n        /* \"mainnet/0x81906929b10416a65A305d498267fE20adfC4746/contracts/Marketplace.sol\":3060:3088  IERC721(nftContract).ownerOf */\n      0xffffffffffffffffffffffffffffffffffffffff\n      and\n      0x6352211e\n        /* \"mainnet/0x81906929b10416a65A305d498267fE20adfC4746/contracts/Marketplace.sol\":3089:3096  tokenId */\n      dup4\n        /* \"mainnet/0x81906929b10416a65A305d498267fE20adfC4746/contracts/Marketplace.sol\":3060:3097  IERC721(nftContract).ownerOf(tokenId) */\n      mload(0x40)\n      dup3\n      0xffffffff\n      and\n      0xe0\n      shl\n      dup2\n      mstore\n      0x04\n      add\n      tag_351\n      swap2\n      swap1\n      tag_49\n      jump\t// in\n    tag_351:\n      0x20\n      mload(0x40)\n      dup1\n      dup4\n      sub\n      dup2\n      dup7\n      gas\n      staticcall\n      iszero\n      dup1\n      iszero\n      tag_353\n      jumpi\n      returndatasize\n      0x00\n      dup1\n      returndatacopy\n      revert(0x00, returndatasize)\n    tag_353:\n      pop\n      pop\n      pop\n      pop\n      mload(0x40)\n      returndatasize\n      not(0x1f)\n      0x1f\n      dup3\n      add\n      and\n      dup3\n      add\n      dup1\n      0x40\n      mstore\n      pop\n      dup2\n      add\n      swap1\n      tag_354\n      swap2\n      swap1\n      tag_355\n      jump\t// in\n    tag_354:\n        /* \"mainnet/0x81906929b10416a65A305d498267fE20adfC4746/contracts/Marketplace.sol\":3060:3111  IERC721(nftContract).ownerOf(tokenId) == msg.sender */\n      0xffffffffffffffffffffffffffffffffffffffff\n      and\n      eq\n        /* \"mainnet/0x81906929b10416a65A305d498267fE20adfC4746/contracts/Marketplace.sol\":3039:3150  require(... */\n      tag_356\n      jumpi\n      mload(0x40)\n      0x08c379a000000000000000000000000000000000000000000000000000000000\n      dup2\n      mstore\n      0x04\n      add\n      tag_357\n      swap1\n      tag_358\n      jump\t// in\n    tag_357:\n      mload(0x40)\n      dup1\n      swap2\n      sub\n      swap1\n      revert\n    tag_356:\n        /* \"mainnet/0x81906929b10416a65A305d498267fE20adfC4746/contracts/Marketplace.sol\":6676:6688  paymentToken */\n      dup3\n        /* \"mainnet/0x81906929b10416a65A305d498267fE20adfC4746/contracts/Marketplace.sol\":3264:3265  0 */\n      0x00\n        /* \"mainnet/0x81906929b10416a65A305d498267fE20adfC4746/contracts/Marketplace.sol\":3247:3266  token == address(0) */\n      0xffffffffffffffffffffffffffffffffffffffff\n      and\n        /* \"mainnet/0x81906929b10416a65A305d498267fE20adfC4746/contracts/Marketplace.sol\":3247:3252  token */\n      dup2\n        /* \"mainnet/0x81906929b10416a65A305d498267fE20adfC4746/contracts/Marketplace.sol\":3247:3266  token == address(0) */\n      0xffffffffffffffffffffffffffffffffffffffff\n      and\n      eq\n        /* \"mainnet/0x81906929b10416a65A305d498267fE20adfC4746/contracts/Marketplace.sol\":3247:3300  token == address(0) ||... */\n      dup1\n      tag_360\n      jumpi\n      pop\n        /* \"mainnet/0x81906929b10416a65A305d498267fE20adfC4746/contracts/Marketplace.sol\":3295:3300  MLIFE */\n      0x0a\n      0x00\n      swap1\n      sload\n      swap1\n      0x0100\n      exp\n      swap1\n      div\n      0xffffffffffffffffffffffffffffffffffffffff\n      and\n        /* \"mainnet/0x81906929b10416a65A305d498267fE20adfC4746/contracts/Marketplace.sol\":3286:3300  token == MLIFE */\n      0xffffffffffffffffffffffffffffffffffffffff\n      and\n        /* \"mainnet/0x81906929b10416a65A305d498267fE20adfC4746/contracts/Marketplace.sol\":3286:3291  token */\n      dup2\n        /* \"mainnet/0x81906929b10416a65A305d498267fE20adfC4746/contracts/Marketplace.sol\":3286:3300  token == MLIFE */\n      0xffffffffffffffffffffffffffffffffffffffff\n      and\n      eq\n        /* \"mainnet/0x81906929b10416a65A305d498267fE20adfC4746/contracts/Marketplace.sol\":3247:3300  token == address(0) ||... */\n    tag_360:\n        /* \"mainnet/0x81906929b10416a65A305d498267fE20adfC4746/contracts/Marketplace.sol\":3247:3338  token == address(0) ||... */\n      dup1\n      tag_361\n      jumpi\n      pop\n        /* \"mainnet/0x81906929b10416a65A305d498267fE20adfC4746/contracts/Marketplace.sol\":3329:3338  tokenUSDT */\n      0x0b\n      0x00\n      swap1\n      sload\n      swap1\n      0x0100\n      exp\n      swap1\n      div\n      0xffffffffffffffffffffffffffffffffffffffff\n      and\n        /* \"mainnet/0x81906929b10416a65A305d498267fE20adfC4746/contracts/Marketplace.sol\":3320:3338  token == tokenUSDT */\n      0xffffffffffffffffffffffffffffffffffffffff\n      and\n        /* \"mainnet/0x81906929b10416a65A305d498267fE20adfC4746/contracts/Marketplace.sol\":3320:3325  token */\n      dup2\n        /* \"mainnet/0x81906929b10416a65A305d498267fE20adfC4746/contracts/Marketplace.sol\":3320:3338  token == tokenUSDT */\n      0xffffffffffffffffffffffffffffffffffffffff\n      and\n      eq\n        /* \"mainnet/0x81906929b10416a65A305d498267fE20adfC4746/contracts/Marketplace.sol\":3247:3338  token == address(0) ||... */\n    tag_361:\n        /* \"mainnet/0x81906929b10416a65A305d498267fE20adfC4746/contracts/Marketplace.sol\":3247:3376  token == address(0) ||... */\n      dup1\n      tag_362\n      jumpi\n      pop\n        /* \"mainnet/0x81906929b10416a65A305d498267fE20adfC4746/contracts/Marketplace.sol\":3367:3376  tokenUSDC */\n      0x0c\n      0x00\n      swap1\n      sload\n      swap1\n      0x0100\n      exp\n      swap1\n      div\n      0xffffffffffffffffffffffffffffffffffffffff\n      and\n        /* \"mainnet/0x81906929b10416a65A305d498267fE20adfC4746/contracts/Marketplace.sol\":3358:3376  token == tokenUSDC */\n      0xffffffffffffffffffffffffffffffffffffffff\n      and\n        /* \"mainnet/0x81906929b10416a65A305d498267fE20adfC4746/contracts/Marketplace.sol\":3358:3363  token */\n      dup2\n        /* \"mainnet/0x81906929b10416a65A305d498267fE20adfC4746/contracts/Marketplace.sol\":3358:3376  token == tokenUSDC */\n      0xffffffffffffffffffffffffffffffffffffffff\n      and\n      eq\n        /* \"mainnet/0x81906929b10416a65A305d498267fE20adfC4746/contracts/Marketplace.sol\":3247:3376  token == address(0) ||... */\n    tag_362:\n        /* \"mainnet/0x81906929b10416a65A305d498267fE20adfC4746/contracts/Marketplace.sol\":3226:3427  require(... */\n      tag_363\n      jumpi\n      mload(0x40)\n      0x08c379a000000000000000000000000000000000000000000000000000000000\n      dup2\n      mstore\n      0x04\n      add\n      tag_364\n      swap1\n      tag_365\n      jump\t// in\n    tag_364:\n      mload(0x40)\n      dup1\n      swap2\n      sub\n      swap1\n      revert\n    tag_363:\n        /* \"mainnet/0x81906929b10416a65A305d498267fE20adfC4746/contracts/Marketplace.sol\":6723:6724  0 */\n      0x00\n        /* \"mainnet/0x81906929b10416a65A305d498267fE20adfC4746/contracts/Marketplace.sol\":6712:6720  minPrice */\n      dup4\n        /* \"mainnet/0x81906929b10416a65A305d498267fE20adfC4746/contracts/Marketplace.sol\":6712:6724  minPrice > 0 */\n      gt\n        /* \"mainnet/0x81906929b10416a65A305d498267fE20adfC4746/contracts/Marketplace.sol\":6704:6753  require(minPrice > 0, \"Price should not be zero\") */\n      tag_367\n      jumpi\n      mload(0x40)\n      0x08c379a000000000000000000000000000000000000000000000000000000000\n      dup2\n      mstore\n      0x04\n      add\n      tag_368\n      swap1\n      tag_369\n      jump\t// in\n    tag_368:\n      mload(0x40)\n      dup1\n      swap2\n      sub\n      swap1\n      revert\n    tag_367:\n        /* \"mainnet/0x81906929b10416a65A305d498267fE20adfC4746/contracts/Marketplace.sol\":6792:6803  nftContract */\n      0x0d\n      0x00\n      swap1\n      sload\n      swap1\n      0x0100\n      exp\n      swap1\n      div\n      0xffffffffffffffffffffffffffffffffffffffff\n      and\n        /* \"mainnet/0x81906929b10416a65A305d498267fE20adfC4746/contracts/Marketplace.sol\":6784:6821  IERC721(nftContract).isApprovedForAll */\n      0xffffffffffffffffffffffffffffffffffffffff\n      and\n      0xe985e9c5\n        /* \"mainnet/0x81906929b10416a65A305d498267fE20adfC4746/contracts/Marketplace.sol\":6822:6832  msg.sender */\n      caller\n        /* \"mainnet/0x81906929b10416a65A305d498267fE20adfC4746/contracts/Marketplace.sol\":6842:6846  this */\n      address\n        /* \"mainnet/0x81906929b10416a65A305d498267fE20adfC4746/contracts/Marketplace.sol\":6784:6848  IERC721(nftContract).isApprovedForAll(msg.sender, address(this)) */\n      mload(0x40)\n      dup4\n      0xffffffff\n      and\n      0xe0\n      shl\n      dup2\n      mstore\n      0x04\n      add\n      tag_370\n      swap3\n      swap2\n      swap1\n      tag_211\n      jump\t// in\n    tag_370:\n      0x20\n      mload(0x40)\n      dup1\n      dup4\n      sub\n      dup2\n      dup7\n      gas\n      staticcall\n      iszero\n      dup1\n      iszero\n      tag_372\n      jumpi\n      returndatasize\n      0x00\n      dup1\n      returndatacopy\n      revert(0x00, returndatasize)\n    tag_372:\n      pop\n      pop\n      pop\n      pop\n      mload(0x40)\n      returndatasize\n      not(0x1f)\n      0x1f\n      dup3\n      add\n      and\n      dup3\n      add\n      dup1\n      0x40\n      mstore\n      pop\n      dup2\n      add\n      swap1\n      tag_373\n      swap2\n      swap1\n      tag_374\n      jump\t// in\n    tag_373:\n        /* \"mainnet/0x81906929b10416a65A305d498267fE20adfC4746/contracts/Marketplace.sol\":6784:6926  IERC721(nftContract).isApprovedForAll(msg.sender, address(this)) ||... */\n      dup1\n      tag_375\n      jumpi\n      pop\n        /* \"mainnet/0x81906929b10416a65A305d498267fE20adfC4746/contracts/Marketplace.sol\":6921:6925  this */\n      address\n        /* \"mainnet/0x81906929b10416a65A305d498267fE20adfC4746/contracts/Marketplace.sol\":6868:6926  IERC721(nftContract).getApproved(tokenId) == address(this) */\n      0xffffffffffffffffffffffffffffffffffffffff\n      and\n        /* \"mainnet/0x81906929b10416a65A305d498267fE20adfC4746/contracts/Marketplace.sol\":6876:6887  nftContract */\n      0x0d\n      0x00\n      swap1\n      sload\n      swap1\n      0x0100\n      exp\n      swap1\n      div\n      0xffffffffffffffffffffffffffffffffffffffff\n      and\n        /* \"mainnet/0x81906929b10416a65A305d498267fE20adfC4746/contracts/Marketplace.sol\":6868:6900  IERC721(nftContract).getApproved */\n      0xffffffffffffffffffffffffffffffffffffffff\n      and\n      0x081812fc\n        /* \"mainnet/0x81906929b10416a65A305d498267fE20adfC4746/contracts/Marketplace.sol\":6901:6908  tokenId */\n      dup8\n        /* \"mainnet/0x81906929b10416a65A305d498267fE20adfC4746/contracts/Marketplace.sol\":6868:6909  IERC721(nftContract).getApproved(tokenId) */\n      mload(0x40)\n      dup3\n      0xffffffff\n      and\n      0xe0\n      shl\n      dup2\n      mstore\n      0x04\n      add\n      tag_376\n      swap2\n      swap1\n      tag_49\n      jump\t// in\n    tag_376:\n      0x20\n      mload(0x40)\n      dup1\n      dup4\n      sub\n      dup2\n      dup7\n      gas\n      staticcall\n      iszero\n      dup1\n      iszero\n      tag_378\n      jumpi\n      returndatasize\n      0x00\n      dup1\n      returndatacopy\n      revert(0x00, returndatasize)\n    tag_378:\n      pop\n      pop\n      pop\n      pop\n      mload(0x40)\n      returndatasize\n      not(0x1f)\n      0x1f\n      dup3\n      add\n      and\n      dup3\n      add\n      dup1\n      0x40\n      mstore\n      pop\n      dup2\n      add\n      swap1\n      tag_379\n      swap2\n      swap1\n      tag_355\n      jump\t// in\n    tag_379:\n        /* \"mainnet/0x81906929b10416a65A305d498267fE20adfC4746/contracts/Marketplace.sol\":6868:6926  IERC721(nftContract).getApproved(tokenId) == address(this) */\n      0xffffffffffffffffffffffffffffffffffffffff\n      and\n      eq\n        /* \"mainnet/0x81906929b10416a65A305d498267fE20adfC4746/contracts/Marketplace.sol\":6784:6926  IERC721(nftContract).isApprovedForAll(msg.sender, address(this)) ||... */\n    tag_375:\n        /* \"mainnet/0x81906929b10416a65A305d498267fE20adfC4746/contracts/Marketplace.sol\":6763:6973  require(... */\n      tag_380\n      jumpi\n      mload(0x40)\n      0x08c379a000000000000000000000000000000000000000000000000000000000\n      dup2\n      mstore\n      0x04\n      add\n      tag_381\n      swap1\n      tag_382\n      jump\t// in\n    tag_381:\n      mload(0x40)\n      dup1\n      swap2\n      sub\n      swap1\n      revert\n    tag_380:\n        /* \"mainnet/0x81906929b10416a65A305d498267fE20adfC4746/contracts/Marketplace.sol\":6991:7002  nftContract */\n      0x0d\n      0x00\n      swap1\n      sload\n      swap1\n      0x0100\n      exp\n      swap1\n      div\n      0xffffffffffffffffffffffffffffffffffffffff\n      and\n        /* \"mainnet/0x81906929b10416a65A305d498267fE20adfC4746/contracts/Marketplace.sol\":6983:7016  IERC721(nftContract).transferFrom */\n      0xffffffffffffffffffffffffffffffffffffffff\n      and\n      0x23b872dd\n        /* \"mainnet/0x81906929b10416a65A305d498267fE20adfC4746/contracts/Marketplace.sol\":7017:7027  msg.sender */\n      caller\n        /* \"mainnet/0x81906929b10416a65A305d498267fE20adfC4746/contracts/Marketplace.sol\":7037:7041  this */\n      address\n        /* \"mainnet/0x81906929b10416a65A305d498267fE20adfC4746/contracts/Marketplace.sol\":7044:7051  tokenId */\n      dup9\n        /* \"mainnet/0x81906929b10416a65A305d498267fE20adfC4746/contracts/Marketplace.sol\":6983:7052  IERC721(nftContract).transferFrom(msg.sender, address(this), tokenId) */\n      mload(0x40)\n      dup5\n      0xffffffff\n      and\n      0xe0\n      shl\n      dup2\n      mstore\n      0x04\n      add\n      tag_383\n      swap4\n      swap3\n      swap2\n      swap1\n      tag_255\n      jump\t// in\n    tag_383:\n      0x00\n      mload(0x40)\n      dup1\n      dup4\n      sub\n      dup2\n      0x00\n      dup8\n      dup1\n      extcodesize\n      iszero\n      dup1\n      iszero\n      tag_384\n      jumpi\n      0x00\n      dup1\n      revert\n    tag_384:\n      pop\n      gas\n      call\n      iszero\n      dup1\n      iszero\n      tag_386\n      jumpi\n      returndatasize\n      0x00\n      dup1\n      returndatacopy\n      revert(0x00, returndatasize)\n    tag_386:\n      pop\n      pop\n      pop\n      pop\n        /* \"mainnet/0x81906929b10416a65A305d498267fE20adfC4746/contracts/Marketplace.sol\":7083:7262  Listing({... */\n      mload(0x40)\n      dup1\n      0xa0\n      add\n      0x40\n      mstore\n      dup1\n        /* \"mainnet/0x81906929b10416a65A305d498267fE20adfC4746/contracts/Marketplace.sol\":7113:7123  msg.sender */\n      caller\n        /* \"mainnet/0x81906929b10416a65A305d498267fE20adfC4746/contracts/Marketplace.sol\":7083:7262  Listing({... */\n      0xffffffffffffffffffffffffffffffffffffffff\n      and\n      dup2\n      mstore\n      0x20\n      add\n        /* \"mainnet/0x81906929b10416a65A305d498267fE20adfC4746/contracts/Marketplace.sol\":7146:7153  tokenId */\n      dup7\n        /* \"mainnet/0x81906929b10416a65A305d498267fE20adfC4746/contracts/Marketplace.sol\":7083:7262  Listing({... */\n      dup2\n      mstore\n      0x20\n      add\n        /* \"mainnet/0x81906929b10416a65A305d498267fE20adfC4746/contracts/Marketplace.sol\":7181:7193  paymentToken */\n      dup6\n        /* \"mainnet/0x81906929b10416a65A305d498267fE20adfC4746/contracts/Marketplace.sol\":7083:7262  Listing({... */\n      0xffffffffffffffffffffffffffffffffffffffff\n      and\n      dup2\n      mstore\n      0x20\n      add\n        /* \"mainnet/0x81906929b10416a65A305d498267fE20adfC4746/contracts/Marketplace.sol\":7217:7225  minPrice */\n      dup5\n        /* \"mainnet/0x81906929b10416a65A305d498267fE20adfC4746/contracts/Marketplace.sol\":7083:7262  Listing({... */\n      dup2\n      mstore\n      0x20\n      add\n        /* \"mainnet/0x81906929b10416a65A305d498267fE20adfC4746/contracts/Marketplace.sol\":7247:7251  true */\n      0x01\n        /* \"mainnet/0x81906929b10416a65A305d498267fE20adfC4746/contracts/Marketplace.sol\":7083:7262  Listing({... */\n      iszero\n      iszero\n      dup2\n      mstore\n      pop\n        /* \"mainnet/0x81906929b10416a65A305d498267fE20adfC4746/contracts/Marketplace.sol\":7063:7071  listings */\n      0x06\n        /* \"mainnet/0x81906929b10416a65A305d498267fE20adfC4746/contracts/Marketplace.sol\":7063:7080  listings[tokenId] */\n      0x00\n        /* \"mainnet/0x81906929b10416a65A305d498267fE20adfC4746/contracts/Marketplace.sol\":7072:7079  tokenId */\n      dup8\n        /* \"mainnet/0x81906929b10416a65A305d498267fE20adfC4746/contracts/Marketplace.sol\":7063:7080  listings[tokenId] */\n      dup2\n      mstore\n      0x20\n      add\n      swap1\n      dup2\n      mstore\n      0x20\n      add\n      0x00\n      keccak256\n        /* \"mainnet/0x81906929b10416a65A305d498267fE20adfC4746/contracts/Marketplace.sol\":7063:7262  listings[tokenId] = Listing({... */\n      0x00\n      dup3\n      add\n      mload\n      dup2\n      0x00\n      add\n      exp(0x0100, 0x00)\n      dup2\n      sload\n      dup2\n      0xffffffffffffffffffffffffffffffffffffffff\n      mul\n      not\n      and\n      swap1\n      dup4\n      0xffffffffffffffffffffffffffffffffffffffff\n      and\n      mul\n      or\n      swap1\n      sstore\n      pop\n      0x20\n      dup3\n      add\n      mload\n      dup2\n      0x01\n      add\n      sstore\n      0x40\n      dup3\n      add\n      mload\n      dup2\n      0x02\n      add\n      exp(0x0100, 0x00)\n      dup2\n      sload\n      dup2\n      0xffffffffffffffffffffffffffffffffffffffff\n      mul\n      not\n      and\n      swap1\n      dup4\n      0xffffffffffffffffffffffffffffffffffffffff\n      and\n      mul\n      or\n      swap1\n      sstore\n      pop\n      0x60\n      dup3\n      add\n      mload\n      dup2\n      0x03\n      add\n      sstore\n      0x80\n      dup3\n      add\n      mload\n      dup2\n      0x04\n      add\n      exp(0x0100, 0x00)\n      dup2\n      sload\n      dup2\n      0xff\n      mul\n      not\n      and\n      swap1\n      dup4\n      iszero\n      iszero\n      mul\n      or\n      swap1\n      sstore\n      pop\n      swap1\n      pop\n      pop\n        /* \"mainnet/0x81906929b10416a65A305d498267fE20adfC4746/contracts/Marketplace.sol\":7305:7312  tokenId */\n      dup5\n        /* \"mainnet/0x81906929b10416a65A305d498267fE20adfC4746/contracts/Marketplace.sol\":7293:7303  msg.sender */\n      caller\n        /* \"mainnet/0x81906929b10416a65A305d498267fE20adfC4746/contracts/Marketplace.sol\":7278:7337  ListingCreated(msg.sender, tokenId, paymentToken, minPrice) */\n      0xffffffffffffffffffffffffffffffffffffffff\n      and\n      0xd061156af97cd0d4f446110c8e476140c682158f5621e4bd532b4c5b2e84d125\n        /* \"mainnet/0x81906929b10416a65A305d498267fE20adfC4746/contracts/Marketplace.sol\":7314:7326  paymentToken */\n      dup7\n        /* \"mainnet/0x81906929b10416a65A305d498267fE20adfC4746/contracts/Marketplace.sol\":7328:7336  minPrice */\n      dup7\n        /* \"mainnet/0x81906929b10416a65A305d498267fE20adfC4746/contracts/Marketplace.sol\":7278:7337  ListingCreated(msg.sender, tokenId, paymentToken, minPrice) */\n      mload(0x40)\n      tag_387\n      swap3\n      swap2\n      swap1\n      tag_187\n      jump\t// in\n    tag_387:\n      mload(0x40)\n      dup1\n      swap2\n      sub\n      swap1\n      log3\n        /* \"mainnet/0x81906929b10416a65A305d498267fE20adfC4746/contracts/Marketplace.sol\":3160:3161  _ */\n      pop\n        /* \"@openzeppelin/contracts/utils/Pausable.sol\":1503:1504  _ */\n      pop\n        /* \"mainnet/0x81906929b10416a65A305d498267fE20adfC4746/contracts/Marketplace.sol\":6471:7344  function createListing(... */\n      pop\n      pop\n      pop\n      jump\t// out\n        /* \"mainnet/0x81906929b10416a65A305d498267fE20adfC4746/contracts/Marketplace.sol\":1019:1054  uint256 public marketplaceFee = 200 */\n    tag_106:\n      sload(0x02)\n      dup2\n      jump\t// out\n        /* \"@openzeppelin/contracts/access/Ownable.sol\":2293:2394  function renounceOwnership() public virtual onlyOwner {... */\n    tag_110:\n        /* \"@openzeppelin/contracts/access/Ownable.sol\":1531:1544  _checkOwner() */\n      tag_389\n        /* \"@openzeppelin/contracts/access/Ownable.sol\":1531:1542  _checkOwner */\n      tag_205\n        /* \"@openzeppelin/contracts/access/Ownable.sol\":1531:1544  _checkOwner() */\n      jump\t// in\n    tag_389:\n        /* \"@openzeppelin/contracts/access/Ownable.sol\":2357:2387  _transferOwnership(address(0)) */\n      tag_391\n        /* \"@openzeppelin/contracts/access/Ownable.sol\":2384:2385  0 */\n      0x00\n        /* \"@openzeppelin/contracts/access/Ownable.sol\":2357:2375  _transferOwnership */\n      tag_392\n        /* \"@openzeppelin/contracts/access/Ownable.sol\":2357:2387  _transferOwnership(address(0)) */\n      jump\t// in\n    tag_391:\n        /* \"@openzeppelin/contracts/access/Ownable.sol\":2293:2394  function renounceOwnership() public virtual onlyOwner {... */\n      jump\t// out\n        /* \"mainnet/0x81906929b10416a65A305d498267fE20adfC4746/contracts/Marketplace.sol\":1537:1557  address public MLIFE */\n    tag_113:\n      0x0a\n      0x00\n      swap1\n      sload\n      swap1\n      0x0100\n      exp\n      swap1\n      div\n      0xffffffffffffffffffffffffffffffffffffffff\n      and\n      dup2\n      jump\t// out\n        /* \"mainnet/0x81906929b10416a65A305d498267fE20adfC4746/contracts/Marketplace.sol\":3898:3959  function pause() external onlyOwner {... */\n    tag_118:\n        /* \"@openzeppelin/contracts/access/Ownable.sol\":1531:1544  _checkOwner() */\n      tag_394\n        /* \"@openzeppelin/contracts/access/Ownable.sol\":1531:1542  _checkOwner */\n      tag_205\n        /* \"@openzeppelin/contracts/access/Ownable.sol\":1531:1544  _checkOwner() */\n      jump\t// in\n    tag_394:\n        /* \"mainnet/0x81906929b10416a65A305d498267fE20adfC4746/contracts/Marketplace.sol\":3944:3952  _pause() */\n      tag_396\n        /* \"mainnet/0x81906929b10416a65A305d498267fE20adfC4746/contracts/Marketplace.sol\":3944:3950  _pause */\n      tag_397\n        /* \"mainnet/0x81906929b10416a65A305d498267fE20adfC4746/contracts/Marketplace.sol\":3944:3952  _pause() */\n      jump\t// in\n    tag_396:\n        /* \"mainnet/0x81906929b10416a65A305d498267fE20adfC4746/contracts/Marketplace.sol\":3898:3959  function pause() external onlyOwner {... */\n      jump\t// out\n        /* \"mainnet/0x81906929b10416a65A305d498267fE20adfC4746/contracts/Marketplace.sol\":14641:15078  function withdrawAdminTokenEarnings(... */\n    tag_122:\n        /* \"@openzeppelin/contracts/access/Ownable.sol\":1531:1544  _checkOwner() */\n      tag_399\n        /* \"@openzeppelin/contracts/access/Ownable.sol\":1531:1542  _checkOwner */\n      tag_205\n        /* \"@openzeppelin/contracts/access/Ownable.sol\":1531:1544  _checkOwner() */\n      jump\t// in\n    tag_399:\n        /* \"@openzeppelin/contracts/utils/ReentrancyGuard.sol\":2500:2521  _nonReentrantBefore() */\n      tag_401\n        /* \"@openzeppelin/contracts/utils/ReentrancyGuard.sol\":2500:2519  _nonReentrantBefore */\n      tag_190\n        /* \"@openzeppelin/contracts/utils/ReentrancyGuard.sol\":2500:2521  _nonReentrantBefore() */\n      jump\t// in\n    tag_401:\n        /* \"mainnet/0x81906929b10416a65A305d498267fE20adfC4746/contracts/Marketplace.sol\":14756:14777  uint256 tokenEarnings */\n      0x00\n        /* \"mainnet/0x81906929b10416a65A305d498267fE20adfC4746/contracts/Marketplace.sol\":14780:14799  adminsTokenEarnings */\n      0x05\n        /* \"mainnet/0x81906929b10416a65A305d498267fE20adfC4746/contracts/Marketplace.sol\":14780:14814  adminsTokenEarnings[_tokenAddress] */\n      0x00\n        /* \"mainnet/0x81906929b10416a65A305d498267fE20adfC4746/contracts/Marketplace.sol\":14800:14813  _tokenAddress */\n      dup4\n        /* \"mainnet/0x81906929b10416a65A305d498267fE20adfC4746/contracts/Marketplace.sol\":14780:14814  adminsTokenEarnings[_tokenAddress] */\n      0xffffffffffffffffffffffffffffffffffffffff\n      and\n      0xffffffffffffffffffffffffffffffffffffffff\n      and\n      dup2\n      mstore\n      0x20\n      add\n      swap1\n      dup2\n      mstore\n      0x20\n      add\n      0x00\n      keccak256\n      sload\n        /* \"mainnet/0x81906929b10416a65A305d498267fE20adfC4746/contracts/Marketplace.sol\":14756:14814  uint256 tokenEarnings = adminsTokenEarnings[_tokenAddress] */\n      swap1\n      pop\n        /* \"mainnet/0x81906929b10416a65A305d498267fE20adfC4746/contracts/Marketplace.sol\":14848:14849  0 */\n      0x00\n        /* \"mainnet/0x81906929b10416a65A305d498267fE20adfC4746/contracts/Marketplace.sol\":14832:14845  tokenEarnings */\n      dup2\n        /* \"mainnet/0x81906929b10416a65A305d498267fE20adfC4746/contracts/Marketplace.sol\":14832:14849  tokenEarnings > 0 */\n      gt\n        /* \"mainnet/0x81906929b10416a65A305d498267fE20adfC4746/contracts/Marketplace.sol\":14824:14883  require(tokenEarnings > 0, \"No token earnings to withdraw\") */\n      tag_403\n      jumpi\n      mload(0x40)\n      0x08c379a000000000000000000000000000000000000000000000000000000000\n      dup2\n      mstore\n      0x04\n      add\n      tag_404\n      swap1\n      tag_405\n      jump\t// in\n    tag_404:\n      mload(0x40)\n      dup1\n      swap2\n      sub\n      swap1\n      revert\n    tag_403:\n        /* \"mainnet/0x81906929b10416a65A305d498267fE20adfC4746/contracts/Marketplace.sol\":14931:14932  0 */\n      0x00\n        /* \"mainnet/0x81906929b10416a65A305d498267fE20adfC4746/contracts/Marketplace.sol\":14894:14913  adminsTokenEarnings */\n      0x05\n        /* \"mainnet/0x81906929b10416a65A305d498267fE20adfC4746/contracts/Marketplace.sol\":14894:14928  adminsTokenEarnings[_tokenAddress] */\n      0x00\n        /* \"mainnet/0x81906929b10416a65A305d498267fE20adfC4746/contracts/Marketplace.sol\":14914:14927  _tokenAddress */\n      dup5\n        /* \"mainnet/0x81906929b10416a65A305d498267fE20adfC4746/contracts/Marketplace.sol\":14894:14928  adminsTokenEarnings[_tokenAddress] */\n      0xffffffffffffffffffffffffffffffffffffffff\n      and\n      0xffffffffffffffffffffffffffffffffffffffff\n      and\n      dup2\n      mstore\n      0x20\n      add\n      swap1\n      dup2\n      mstore\n      0x20\n      add\n      0x00\n      keccak256\n        /* \"mainnet/0x81906929b10416a65A305d498267fE20adfC4746/contracts/Marketplace.sol\":14894:14932  adminsTokenEarnings[_tokenAddress] = 0 */\n      dup2\n      swap1\n      sstore\n      pop\n        /* \"mainnet/0x81906929b10416a65A305d498267fE20adfC4746/contracts/Marketplace.sol\":14949:14962  _tokenAddress */\n      dup2\n        /* \"mainnet/0x81906929b10416a65A305d498267fE20adfC4746/contracts/Marketplace.sol\":14942:14972  IERC20(_tokenAddress).transfer */\n      0xffffffffffffffffffffffffffffffffffffffff\n      and\n      0xa9059cbb\n        /* \"mainnet/0x81906929b10416a65A305d498267fE20adfC4746/contracts/Marketplace.sol\":14973:14980  owner() */\n      tag_406\n        /* \"mainnet/0x81906929b10416a65A305d498267fE20adfC4746/contracts/Marketplace.sol\":14973:14978  owner */\n      tag_125\n        /* \"mainnet/0x81906929b10416a65A305d498267fE20adfC4746/contracts/Marketplace.sol\":14973:14980  owner() */\n      jump\t// in\n    tag_406:\n        /* \"mainnet/0x81906929b10416a65A305d498267fE20adfC4746/contracts/Marketplace.sol\":14982:14995  tokenEarnings */\n      dup4\n        /* \"mainnet/0x81906929b10416a65A305d498267fE20adfC4746/contracts/Marketplace.sol\":14942:14996  IERC20(_tokenAddress).transfer(owner(), tokenEarnings) */\n      mload(0x40)\n      dup4\n      0xffffffff\n      and\n      0xe0\n      shl\n      dup2\n      mstore\n      0x04\n      add\n      tag_407\n      swap3\n      swap2\n      swap1\n      tag_187\n      jump\t// in\n    tag_407:\n      0x20\n      mload(0x40)\n      dup1\n      dup4\n      sub\n      dup2\n      0x00\n      dup8\n      gas\n      call\n      iszero\n      dup1\n      iszero\n      tag_409\n      jumpi\n      returndatasize\n      0x00\n      dup1\n      returndatacopy\n      revert(0x00, returndatasize)\n    tag_409:\n      pop\n      pop\n      pop\n      pop\n      mload(0x40)\n      returndatasize\n      not(0x1f)\n      0x1f\n      dup3\n      add\n      and\n      dup3\n      add\n      dup1\n      0x40\n      mstore\n      pop\n      dup2\n      add\n      swap1\n      tag_410\n      swap2\n      swap1\n      tag_374\n      jump\t// in\n    tag_410:\n      pop\n        /* \"mainnet/0x81906929b10416a65A305d498267fE20adfC4746/contracts/Marketplace.sol\":15011:15071  AdminTokenWithdrawals(owner(), _tokenAddress, tokenEarnings) */\n      0xea48aee669694ac6f98626c299ecc46ccedfc3fcd05314c975bdee3de9b544b6\n        /* \"mainnet/0x81906929b10416a65A305d498267fE20adfC4746/contracts/Marketplace.sol\":15033:15040  owner() */\n      tag_411\n        /* \"mainnet/0x81906929b10416a65A305d498267fE20adfC4746/contracts/Marketplace.sol\":15033:15038  owner */\n      tag_125\n        /* \"mainnet/0x81906929b10416a65A305d498267fE20adfC4746/contracts/Marketplace.sol\":15033:15040  owner() */\n      jump\t// in\n    tag_411:\n        /* \"mainnet/0x81906929b10416a65A305d498267fE20adfC4746/contracts/Marketplace.sol\":15042:15055  _tokenAddress */\n      dup4\n        /* \"mainnet/0x81906929b10416a65A305d498267fE20adfC4746/contracts/Marketplace.sol\":15057:15070  tokenEarnings */\n      dup4\n        /* \"mainnet/0x81906929b10416a65A305d498267fE20adfC4746/contracts/Marketplace.sol\":15011:15071  AdminTokenWithdrawals(owner(), _tokenAddress, tokenEarnings) */\n      mload(0x40)\n      tag_412\n      swap4\n      swap3\n      swap2\n      swap1\n      tag_255\n      jump\t// in\n    tag_412:\n      mload(0x40)\n      dup1\n      swap2\n      sub\n      swap1\n      log1\n        /* \"mainnet/0x81906929b10416a65A305d498267fE20adfC4746/contracts/Marketplace.sol\":14746:15078  {... */\n      pop\n        /* \"@openzeppelin/contracts/utils/ReentrancyGuard.sol\":2542:2562  _nonReentrantAfter() */\n      tag_413\n        /* \"@openzeppelin/contracts/utils/ReentrancyGuard.sol\":2542:2560  _nonReentrantAfter */\n      tag_202\n        /* \"@openzeppelin/contracts/utils/ReentrancyGuard.sol\":2542:2562  _nonReentrantAfter() */\n      jump\t// in\n    tag_413:\n        /* \"mainnet/0x81906929b10416a65A305d498267fE20adfC4746/contracts/Marketplace.sol\":14641:15078  function withdrawAdminTokenEarnings(... */\n      pop\n      jump\t// out\n        /* \"@openzeppelin/contracts/access/Ownable.sol\":1638:1723  function owner() public view virtual returns (address) {... */\n    tag_125:\n        /* \"@openzeppelin/contracts/access/Ownable.sol\":1684:1691  address */\n      0x00\n        /* \"@openzeppelin/contracts/access/Ownable.sol\":1710:1716  _owner */\n      0x01\n      0x00\n      swap1\n      sload\n      swap1\n      0x0100\n      exp\n      swap1\n      div\n      0xffffffffffffffffffffffffffffffffffffffff\n      and\n        /* \"@openzeppelin/contracts/access/Ownable.sol\":1703:1716  return _owner */\n      swap1\n      pop\n        /* \"@openzeppelin/contracts/access/Ownable.sol\":1638:1723  function owner() public view virtual returns (address) {... */\n      swap1\n      jump\t// out\n        /* \"mainnet/0x81906929b10416a65A305d498267fE20adfC4746/contracts/Marketplace.sol\":4336:4566  function updateNftContract(address _newAddress) external onlyOwner {... */\n    tag_130:\n        /* \"@openzeppelin/contracts/access/Ownable.sol\":1531:1544  _checkOwner() */\n      tag_416\n        /* \"@openzeppelin/contracts/access/Ownable.sol\":1531:1542  _checkOwner */\n      tag_205\n        /* \"@openzeppelin/contracts/access/Ownable.sol\":1531:1544  _checkOwner() */\n      jump\t// in\n    tag_416:\n        /* \"mainnet/0x81906929b10416a65A305d498267fE20adfC4746/contracts/Marketplace.sol\":4444:4445  0 */\n      0x00\n        /* \"mainnet/0x81906929b10416a65A305d498267fE20adfC4746/contracts/Marketplace.sol\":4421:4446  _newAddress != address(0) */\n      0xffffffffffffffffffffffffffffffffffffffff\n      and\n        /* \"mainnet/0x81906929b10416a65A305d498267fE20adfC4746/contracts/Marketplace.sol\":4421:4432  _newAddress */\n      dup2\n        /* \"mainnet/0x81906929b10416a65A305d498267fE20adfC4746/contracts/Marketplace.sol\":4421:4446  _newAddress != address(0) */\n      0xffffffffffffffffffffffffffffffffffffffff\n      and\n      sub\n        /* \"mainnet/0x81906929b10416a65A305d498267fE20adfC4746/contracts/Marketplace.sol\":4413:4466  require(_newAddress != address(0), \"Invalid address\") */\n      tag_418\n      jumpi\n      mload(0x40)\n      0x08c379a000000000000000000000000000000000000000000000000000000000\n      dup2\n      mstore\n      0x04\n      add\n      tag_419\n      swap1\n      tag_209\n      jump\t// in\n    tag_419:\n      mload(0x40)\n      dup1\n      swap2\n      sub\n      swap1\n      revert\n    tag_418:\n        /* \"mainnet/0x81906929b10416a65A305d498267fE20adfC4746/contracts/Marketplace.sol\":4490:4501  _newAddress */\n      dup1\n        /* \"mainnet/0x81906929b10416a65A305d498267fE20adfC4746/contracts/Marketplace.sol\":4476:4487  nftContract */\n      0x0d\n      0x00\n        /* \"mainnet/0x81906929b10416a65A305d498267fE20adfC4746/contracts/Marketplace.sol\":4476:4501  nftContract = _newAddress */\n      0x0100\n      exp\n      dup2\n      sload\n      dup2\n      0xffffffffffffffffffffffffffffffffffffffff\n      mul\n      not\n      and\n      swap1\n      dup4\n      0xffffffffffffffffffffffffffffffffffffffff\n      and\n      mul\n      or\n      swap1\n      sstore\n      pop\n        /* \"mainnet/0x81906929b10416a65A305d498267fE20adfC4746/contracts/Marketplace.sol\":4516:4559  NftAddressUpdated(nftContract, _newAddress) */\n      0x51d2761f030964e882529b208c5390589ddac658d9a1a6d3b8a1cbaed35e7d33\n        /* \"mainnet/0x81906929b10416a65A305d498267fE20adfC4746/contracts/Marketplace.sol\":4534:4545  nftContract */\n      0x0d\n      0x00\n      swap1\n      sload\n      swap1\n      0x0100\n      exp\n      swap1\n      div\n      0xffffffffffffffffffffffffffffffffffffffff\n      and\n        /* \"mainnet/0x81906929b10416a65A305d498267fE20adfC4746/contracts/Marketplace.sol\":4547:4558  _newAddress */\n      dup3\n        /* \"mainnet/0x81906929b10416a65A305d498267fE20adfC4746/contracts/Marketplace.sol\":4516:4559  NftAddressUpdated(nftContract, _newAddress) */\n      mload(0x40)\n      tag_420\n      swap3\n      swap2\n      swap1\n      tag_211\n      jump\t// in\n    tag_420:\n      mload(0x40)\n      dup1\n      swap2\n      sub\n      swap1\n      log1\n        /* \"mainnet/0x81906929b10416a65A305d498267fE20adfC4746/contracts/Marketplace.sol\":4336:4566  function updateNftContract(address _newAddress) external onlyOwner {... */\n      pop\n      jump\t// out\n        /* \"mainnet/0x81906929b10416a65A305d498267fE20adfC4746/contracts/Marketplace.sol\":1563:1587  address public tokenUSDT */\n    tag_133:\n      0x0b\n      0x00\n      swap1\n      sload\n      swap1\n      0x0100\n      exp\n      swap1\n      div\n      0xffffffffffffffffffffffffffffffffffffffff\n      and\n      dup2\n      jump\t// out\n        /* \"mainnet/0x81906929b10416a65A305d498267fE20adfC4746/contracts/Marketplace.sol\":1227:1281  mapping(address => uint256) public adminsTokenEarnings */\n    tag_138:\n      mstore(0x20, 0x05)\n      dup1\n      0x00\n      mstore\n      keccak256(0x00, 0x40)\n      0x00\n      swap2\n      pop\n      swap1\n      pop\n      sload\n      dup2\n      jump\t// out\n        /* \"mainnet/0x81906929b10416a65A305d498267fE20adfC4746/contracts/Marketplace.sol\":8569:10002  function placeBid(... */\n    tag_143:\n        /* \"@openzeppelin/contracts/utils/Pausable.sol\":1474:1493  _requireNotPaused() */\n      tag_422\n        /* \"@openzeppelin/contracts/utils/Pausable.sol\":1474:1491  _requireNotPaused */\n      tag_193\n        /* \"@openzeppelin/contracts/utils/Pausable.sol\":1474:1493  _requireNotPaused() */\n      jump\t// in\n    tag_422:\n        /* \"@openzeppelin/contracts/utils/ReentrancyGuard.sol\":2500:2521  _nonReentrantBefore() */\n      tag_424\n        /* \"@openzeppelin/contracts/utils/ReentrancyGuard.sol\":2500:2519  _nonReentrantBefore */\n      tag_190\n        /* \"@openzeppelin/contracts/utils/ReentrancyGuard.sol\":2500:2521  _nonReentrantBefore() */\n      jump\t// in\n    tag_424:\n        /* \"mainnet/0x81906929b10416a65A305d498267fE20adfC4746/contracts/Marketplace.sol\":8774:8782  _tokenId */\n      dup3\n        /* \"mainnet/0x81906929b10416a65A305d498267fE20adfC4746/contracts/Marketplace.sol\":3512:3520  listings */\n      0x06\n        /* \"mainnet/0x81906929b10416a65A305d498267fE20adfC4746/contracts/Marketplace.sol\":3512:3530  listings[_tokenId] */\n      0x00\n        /* \"mainnet/0x81906929b10416a65A305d498267fE20adfC4746/contracts/Marketplace.sol\":3521:3529  _tokenId */\n      dup3\n        /* \"mainnet/0x81906929b10416a65A305d498267fE20adfC4746/contracts/Marketplace.sol\":3512:3530  listings[_tokenId] */\n      dup2\n      mstore\n      0x20\n      add\n      swap1\n      dup2\n      mstore\n      0x20\n      add\n      0x00\n      keccak256\n        /* \"mainnet/0x81906929b10416a65A305d498267fE20adfC4746/contracts/Marketplace.sol\":3512:3537  listings[_tokenId].active */\n      0x04\n      add\n      0x00\n      swap1\n      sload\n      swap1\n      0x0100\n      exp\n      swap1\n      div\n      0xff\n      and\n        /* \"mainnet/0x81906929b10416a65A305d498267fE20adfC4746/contracts/Marketplace.sol\":3504:3560  require(listings[_tokenId].active, \"Listing not active\") */\n      tag_426\n      jumpi\n      mload(0x40)\n      0x08c379a000000000000000000000000000000000000000000000000000000000\n      dup2\n      mstore\n      0x04\n      add\n      tag_427\n      swap1\n      tag_225\n      jump\t// in\n    tag_427:\n      mload(0x40)\n      dup1\n      swap2\n      sub\n      swap1\n      revert\n    tag_426:\n        /* \"mainnet/0x81906929b10416a65A305d498267fE20adfC4746/contracts/Marketplace.sol\":8810:8822  _paymentType */\n      dup2\n        /* \"mainnet/0x81906929b10416a65A305d498267fE20adfC4746/contracts/Marketplace.sol\":3264:3265  0 */\n      0x00\n        /* \"mainnet/0x81906929b10416a65A305d498267fE20adfC4746/contracts/Marketplace.sol\":3247:3266  token == address(0) */\n      0xffffffffffffffffffffffffffffffffffffffff\n      and\n        /* \"mainnet/0x81906929b10416a65A305d498267fE20adfC4746/contracts/Marketplace.sol\":3247:3252  token */\n      dup2\n        /* \"mainnet/0x81906929b10416a65A305d498267fE20adfC4746/contracts/Marketplace.sol\":3247:3266  token == address(0) */\n      0xffffffffffffffffffffffffffffffffffffffff\n      and\n      eq\n        /* \"mainnet/0x81906929b10416a65A305d498267fE20adfC4746/contracts/Marketplace.sol\":3247:3300  token == address(0) ||... */\n      dup1\n      tag_429\n      jumpi\n      pop\n        /* \"mainnet/0x81906929b10416a65A305d498267fE20adfC4746/contracts/Marketplace.sol\":3295:3300  MLIFE */\n      0x0a\n      0x00\n      swap1\n      sload\n      swap1\n      0x0100\n      exp\n      swap1\n      div\n      0xffffffffffffffffffffffffffffffffffffffff\n      and\n        /* \"mainnet/0x81906929b10416a65A305d498267fE20adfC4746/contracts/Marketplace.sol\":3286:3300  token == MLIFE */\n      0xffffffffffffffffffffffffffffffffffffffff\n      and\n        /* \"mainnet/0x81906929b10416a65A305d498267fE20adfC4746/contracts/Marketplace.sol\":3286:3291  token */\n      dup2\n        /* \"mainnet/0x81906929b10416a65A305d498267fE20adfC4746/contracts/Marketplace.sol\":3286:3300  token == MLIFE */\n      0xffffffffffffffffffffffffffffffffffffffff\n      and\n      eq\n        /* \"mainnet/0x81906929b10416a65A305d498267fE20adfC4746/contracts/Marketplace.sol\":3247:3300  token == address(0) ||... */\n    tag_429:\n        /* \"mainnet/0x81906929b10416a65A305d498267fE20adfC4746/contracts/Marketplace.sol\":3247:3338  token == address(0) ||... */\n      dup1\n      tag_430\n      jumpi\n      pop\n        /* \"mainnet/0x81906929b10416a65A305d498267fE20adfC4746/contracts/Marketplace.sol\":3329:3338  tokenUSDT */\n      0x0b\n      0x00\n      swap1\n      sload\n      swap1\n      0x0100\n      exp\n      swap1\n      div\n      0xffffffffffffffffffffffffffffffffffffffff\n      and\n        /* \"mainnet/0x81906929b10416a65A305d498267fE20adfC4746/contracts/Marketplace.sol\":3320:3338  token == tokenUSDT */\n      0xffffffffffffffffffffffffffffffffffffffff\n      and\n        /* \"mainnet/0x81906929b10416a65A305d498267fE20adfC4746/contracts/Marketplace.sol\":3320:3325  token */\n      dup2\n        /* \"mainnet/0x81906929b10416a65A305d498267fE20adfC4746/contracts/Marketplace.sol\":3320:3338  token == tokenUSDT */\n      0xffffffffffffffffffffffffffffffffffffffff\n      and\n      eq\n        /* \"mainnet/0x81906929b10416a65A305d498267fE20adfC4746/contracts/Marketplace.sol\":3247:3338  token == address(0) ||... */\n    tag_430:\n        /* \"mainnet/0x81906929b10416a65A305d498267fE20adfC4746/contracts/Marketplace.sol\":3247:3376  token == address(0) ||... */\n      dup1\n      tag_431\n      jumpi\n      pop\n        /* \"mainnet/0x81906929b10416a65A305d498267fE20adfC4746/contracts/Marketplace.sol\":3367:3376  tokenUSDC */\n      0x0c\n      0x00\n      swap1\n      sload\n      swap1\n      0x0100\n      exp\n      swap1\n      div\n      0xffffffffffffffffffffffffffffffffffffffff\n      and\n        /* \"mainnet/0x81906929b10416a65A305d498267fE20adfC4746/contracts/Marketplace.sol\":3358:3376  token == tokenUSDC */\n      0xffffffffffffffffffffffffffffffffffffffff\n      and\n        /* \"mainnet/0x81906929b10416a65A305d498267fE20adfC4746/contracts/Marketplace.sol\":3358:3363  token */\n      dup2\n        /* \"mainnet/0x81906929b10416a65A305d498267fE20adfC4746/contracts/Marketplace.sol\":3358:3376  token == tokenUSDC */\n      0xffffffffffffffffffffffffffffffffffffffff\n      and\n      eq\n        /* \"mainnet/0x81906929b10416a65A305d498267fE20adfC4746/contracts/Marketplace.sol\":3247:3376  token == address(0) ||... */\n    tag_431:\n        /* \"mainnet/0x81906929b10416a65A305d498267fE20adfC4746/contracts/Marketplace.sol\":3226:3427  require(... */\n      tag_432\n      jumpi\n      mload(0x40)\n      0x08c379a000000000000000000000000000000000000000000000000000000000\n      dup2\n      mstore\n      0x04\n      add\n      tag_433\n      swap1\n      tag_365\n      jump\t// in\n    tag_433:\n      mload(0x40)\n      dup1\n      swap2\n      sub\n      swap1\n      revert\n    tag_432:\n        /* \"mainnet/0x81906929b10416a65A305d498267fE20adfC4746/contracts/Marketplace.sol\":8838:8860  Listing memory listing */\n      0x00\n        /* \"mainnet/0x81906929b10416a65A305d498267fE20adfC4746/contracts/Marketplace.sol\":8863:8871  listings */\n      0x06\n        /* \"mainnet/0x81906929b10416a65A305d498267fE20adfC4746/contracts/Marketplace.sol\":8863:8881  listings[_tokenId] */\n      0x00\n        /* \"mainnet/0x81906929b10416a65A305d498267fE20adfC4746/contracts/Marketplace.sol\":8872:8880  _tokenId */\n      dup8\n        /* \"mainnet/0x81906929b10416a65A305d498267fE20adfC4746/contracts/Marketplace.sol\":8863:8881  listings[_tokenId] */\n      dup2\n      mstore\n      0x20\n      add\n      swap1\n      dup2\n      mstore\n      0x20\n      add\n      0x00\n      keccak256\n        /* \"mainnet/0x81906929b10416a65A305d498267fE20adfC4746/contracts/Marketplace.sol\":8838:8881  Listing memory listing = listings[_tokenId] */\n      mload(0x40)\n      dup1\n      0xa0\n      add\n      0x40\n      mstore\n      swap1\n      dup2\n      0x00\n      dup3\n      add\n      0x00\n      swap1\n      sload\n      swap1\n      0x0100\n      exp\n      swap1\n      div\n      0xffffffffffffffffffffffffffffffffffffffff\n      and\n      0xffffffffffffffffffffffffffffffffffffffff\n      and\n      0xffffffffffffffffffffffffffffffffffffffff\n      and\n      dup2\n      mstore\n      0x20\n      add\n      0x01\n      dup3\n      add\n      sload\n      dup2\n      mstore\n      0x20\n      add\n      0x02\n      dup3\n      add\n      0x00\n      swap1\n      sload\n      swap1\n      0x0100\n      exp\n      swap1\n      div\n      0xffffffffffffffffffffffffffffffffffffffff\n      and\n      0xffffffffffffffffffffffffffffffffffffffff\n      and\n      0xffffffffffffffffffffffffffffffffffffffff\n      and\n      dup2\n      mstore\n      0x20\n      add\n      0x03\n      dup3\n      add\n      sload\n      dup2\n      mstore\n      0x20\n      add\n      0x04\n      dup3\n      add\n      0x00\n      swap1\n      sload\n      swap1\n      0x0100\n      exp\n      swap1\n      div\n      0xff\n      and\n      iszero\n      iszero\n      iszero\n      iszero\n      dup2\n      mstore\n      pop\n      pop\n      swap1\n      pop\n        /* \"mainnet/0x81906929b10416a65A305d498267fE20adfC4746/contracts/Marketplace.sol\":8910:8917  listing */\n      dup1\n        /* \"mainnet/0x81906929b10416a65A305d498267fE20adfC4746/contracts/Marketplace.sol\":8910:8926  listing.minPrice */\n      0x60\n      add\n      mload\n        /* \"mainnet/0x81906929b10416a65A305d498267fE20adfC4746/contracts/Marketplace.sol\":8899:8906  _amount */\n      dup6\n        /* \"mainnet/0x81906929b10416a65A305d498267fE20adfC4746/contracts/Marketplace.sol\":8899:8926  _amount >= listing.minPrice */\n      lt\n      iszero\n        /* \"mainnet/0x81906929b10416a65A305d498267fE20adfC4746/contracts/Marketplace.sol\":8891:8962  require(_amount >= listing.minPrice, \"Your bid is below minimum price\") */\n      tag_435\n      jumpi\n      mload(0x40)\n      0x08c379a000000000000000000000000000000000000000000000000000000000\n      dup2\n      mstore\n      0x04\n      add\n      tag_436\n      swap1\n      tag_437\n      jump\t// in\n    tag_436:\n      mload(0x40)\n      dup1\n      swap2\n      sub\n      swap1\n      revert\n    tag_435:\n        /* \"mainnet/0x81906929b10416a65A305d498267fE20adfC4746/contracts/Marketplace.sol\":9009:9010  0 */\n      0x00\n        /* \"mainnet/0x81906929b10416a65A305d498267fE20adfC4746/contracts/Marketplace.sol\":8977:9011  listing.paymentToken == address(0) */\n      0xffffffffffffffffffffffffffffffffffffffff\n      and\n        /* \"mainnet/0x81906929b10416a65A305d498267fE20adfC4746/contracts/Marketplace.sol\":8977:8984  listing */\n      dup2\n        /* \"mainnet/0x81906929b10416a65A305d498267fE20adfC4746/contracts/Marketplace.sol\":8977:8997  listing.paymentToken */\n      0x40\n      add\n      mload\n        /* \"mainnet/0x81906929b10416a65A305d498267fE20adfC4746/contracts/Marketplace.sol\":8977:9011  listing.paymentToken == address(0) */\n      0xffffffffffffffffffffffffffffffffffffffff\n      and\n      sub\n        /* \"mainnet/0x81906929b10416a65A305d498267fE20adfC4746/contracts/Marketplace.sol\":8973:9385  if (listing.paymentToken == address(0)) {... */\n      tag_438\n      jumpi\n        /* \"mainnet/0x81906929b10416a65A305d498267fE20adfC4746/contracts/Marketplace.sol\":9075:9082  _amount */\n      dup5\n        /* \"mainnet/0x81906929b10416a65A305d498267fE20adfC4746/contracts/Marketplace.sol\":9062:9071  msg.value */\n      callvalue\n        /* \"mainnet/0x81906929b10416a65A305d498267fE20adfC4746/contracts/Marketplace.sol\":9062:9082  msg.value == _amount */\n      eq\n        /* \"mainnet/0x81906929b10416a65A305d498267fE20adfC4746/contracts/Marketplace.sol\":9054:9105  require(msg.value == _amount, \"Incorrect ETH sent\") */\n      tag_439\n      jumpi\n      mload(0x40)\n      0x08c379a000000000000000000000000000000000000000000000000000000000\n      dup2\n      mstore\n      0x04\n      add\n      tag_440\n      swap1\n      tag_441\n      jump\t// in\n    tag_440:\n      mload(0x40)\n      dup1\n      swap2\n      sub\n      swap1\n      revert\n    tag_439:\n        /* \"mainnet/0x81906929b10416a65A305d498267fE20adfC4746/contracts/Marketplace.sol\":8973:9385  if (listing.paymentToken == address(0)) {... */\n      jump(tag_442)\n    tag_438:\n        /* \"mainnet/0x81906929b10416a65A305d498267fE20adfC4746/contracts/Marketplace.sol\":9165:9177  bool success */\n      0x00\n        /* \"mainnet/0x81906929b10416a65A305d498267fE20adfC4746/contracts/Marketplace.sol\":9187:9194  listing */\n      dup2\n        /* \"mainnet/0x81906929b10416a65A305d498267fE20adfC4746/contracts/Marketplace.sol\":9187:9207  listing.paymentToken */\n      0x40\n      add\n      mload\n        /* \"mainnet/0x81906929b10416a65A305d498267fE20adfC4746/contracts/Marketplace.sol\":9180:9221  IERC20(listing.paymentToken).transferFrom */\n      0xffffffffffffffffffffffffffffffffffffffff\n      and\n      0x23b872dd\n        /* \"mainnet/0x81906929b10416a65A305d498267fE20adfC4746/contracts/Marketplace.sol\":9239:9249  msg.sender */\n      caller\n        /* \"mainnet/0x81906929b10416a65A305d498267fE20adfC4746/contracts/Marketplace.sol\":9275:9279  this */\n      address\n        /* \"mainnet/0x81906929b10416a65A305d498267fE20adfC4746/contracts/Marketplace.sol\":9298:9305  _amount */\n      dup10\n        /* \"mainnet/0x81906929b10416a65A305d498267fE20adfC4746/contracts/Marketplace.sol\":9180:9319  IERC20(listing.paymentToken).transferFrom(... */\n      mload(0x40)\n      dup5\n      0xffffffff\n      and\n      0xe0\n      shl\n      dup2\n      mstore\n      0x04\n      add\n      tag_443\n      swap4\n      swap3\n      swap2\n      swap1\n      tag_255\n      jump\t// in\n    tag_443:\n      0x20\n      mload(0x40)\n      dup1\n      dup4\n      sub\n      dup2\n      0x00\n      dup8\n      gas\n      call\n      iszero\n      dup1\n      iszero\n      tag_445\n      jumpi\n      returndatasize\n      0x00\n      dup1\n      returndatacopy\n      revert(0x00, returndatasize)\n    tag_445:\n      pop\n      pop\n      pop\n      pop\n      mload(0x40)\n      returndatasize\n      not(0x1f)\n      0x1f\n      dup3\n      add\n      and\n      dup3\n      add\n      dup1\n      0x40\n      mstore\n      pop\n      dup2\n      add\n      swap1\n      tag_446\n      swap2\n      swap1\n      tag_374\n      jump\t// in\n    tag_446:\n        /* \"mainnet/0x81906929b10416a65A305d498267fE20adfC4746/contracts/Marketplace.sol\":9165:9319  bool success = IERC20(listing.paymentToken).transferFrom(... */\n      swap1\n      pop\n        /* \"mainnet/0x81906929b10416a65A305d498267fE20adfC4746/contracts/Marketplace.sol\":9341:9348  success */\n      dup1\n        /* \"mainnet/0x81906929b10416a65A305d498267fE20adfC4746/contracts/Marketplace.sol\":9333:9374  require(success, \"Token transfer failed\") */\n      tag_447\n      jumpi\n      mload(0x40)\n      0x08c379a000000000000000000000000000000000000000000000000000000000\n      dup2\n      mstore\n      0x04\n      add\n      tag_448\n      swap1\n      tag_449\n      jump\t// in\n    tag_448:\n      mload(0x40)\n      dup1\n      swap2\n      sub\n      swap1\n      revert\n    tag_447:\n        /* \"mainnet/0x81906929b10416a65A305d498267fE20adfC4746/contracts/Marketplace.sol\":9122:9385  {... */\n      pop\n        /* \"mainnet/0x81906929b10416a65A305d498267fE20adfC4746/contracts/Marketplace.sol\":8973:9385  if (listing.paymentToken == address(0)) {... */\n    tag_442:\n        /* \"mainnet/0x81906929b10416a65A305d498267fE20adfC4746/contracts/Marketplace.sol\":9395:9416  Bid memory currentBid */\n      0x00\n        /* \"mainnet/0x81906929b10416a65A305d498267fE20adfC4746/contracts/Marketplace.sol\":9419:9430  currentBids */\n      0x07\n        /* \"mainnet/0x81906929b10416a65A305d498267fE20adfC4746/contracts/Marketplace.sol\":9419:9440  currentBids[_tokenId] */\n      0x00\n        /* \"mainnet/0x81906929b10416a65A305d498267fE20adfC4746/contracts/Marketplace.sol\":9431:9439  _tokenId */\n      dup9\n        /* \"mainnet/0x81906929b10416a65A305d498267fE20adfC4746/contracts/Marketplace.sol\":9419:9440  currentBids[_tokenId] */\n      dup2\n      mstore\n      0x20\n      add\n      swap1\n      dup2\n      mstore\n      0x20\n      add\n      0x00\n      keccak256\n        /* \"mainnet/0x81906929b10416a65A305d498267fE20adfC4746/contracts/Marketplace.sol\":9395:9440  Bid memory currentBid = currentBids[_tokenId] */\n      mload(0x40)\n      dup1\n      0x40\n      add\n      0x40\n      mstore\n      swap1\n      dup2\n      0x00\n      dup3\n      add\n      0x00\n      swap1\n      sload\n      swap1\n      0x0100\n      exp\n      swap1\n      div\n      0xffffffffffffffffffffffffffffffffffffffff\n      and\n      0xffffffffffffffffffffffffffffffffffffffff\n      and\n      0xffffffffffffffffffffffffffffffffffffffff\n      and\n      dup2\n      mstore\n      0x20\n      add\n      0x01\n      dup3\n      add\n      sload\n      dup2\n      mstore\n      pop\n      pop\n      swap1\n      pop\n        /* \"mainnet/0x81906929b10416a65A305d498267fE20adfC4746/contracts/Marketplace.sol\":9481:9491  currentBid */\n      dup1\n        /* \"mainnet/0x81906929b10416a65A305d498267fE20adfC4746/contracts/Marketplace.sol\":9481:9498  currentBid.amount */\n      0x20\n      add\n      mload\n        /* \"mainnet/0x81906929b10416a65A305d498267fE20adfC4746/contracts/Marketplace.sol\":9471:9478  _amount */\n      dup7\n        /* \"mainnet/0x81906929b10416a65A305d498267fE20adfC4746/contracts/Marketplace.sol\":9471:9498  _amount > currentBid.amount */\n      gt\n        /* \"mainnet/0x81906929b10416a65A305d498267fE20adfC4746/contracts/Marketplace.sol\":9450:9559  require(... */\n      tag_450\n      jumpi\n      mload(0x40)\n      0x08c379a000000000000000000000000000000000000000000000000000000000\n      dup2\n      mstore\n      0x04\n      add\n      tag_451\n      swap1\n      tag_452\n      jump\t// in\n    tag_451:\n      mload(0x40)\n      dup1\n      swap2\n      sub\n      swap1\n      revert\n    tag_450:\n        /* \"mainnet/0x81906929b10416a65A305d498267fE20adfC4746/contracts/Marketplace.sol\":9704:9705  0 */\n      0x00\n        /* \"mainnet/0x81906929b10416a65A305d498267fE20adfC4746/contracts/Marketplace.sol\":9684:9694  currentBid */\n      dup2\n        /* \"mainnet/0x81906929b10416a65A305d498267fE20adfC4746/contracts/Marketplace.sol\":9684:9701  currentBid.amount */\n      0x20\n      add\n      mload\n        /* \"mainnet/0x81906929b10416a65A305d498267fE20adfC4746/contracts/Marketplace.sol\":9684:9705  currentBid.amount > 0 */\n      gt\n        /* \"mainnet/0x81906929b10416a65A305d498267fE20adfC4746/contracts/Marketplace.sol\":9680:9864  if (currentBid.amount > 0) {... */\n      iszero\n      tag_453\n      jumpi\n        /* \"mainnet/0x81906929b10416a65A305d498267fE20adfC4746/contracts/Marketplace.sol\":9721:9853  _refundBid(... */\n      tag_454\n        /* \"mainnet/0x81906929b10416a65A305d498267fE20adfC4746/contracts/Marketplace.sol\":9749:9756  listing */\n      dup3\n        /* \"mainnet/0x81906929b10416a65A305d498267fE20adfC4746/contracts/Marketplace.sol\":9749:9769  listing.paymentToken */\n      0x40\n      add\n      mload\n        /* \"mainnet/0x81906929b10416a65A305d498267fE20adfC4746/contracts/Marketplace.sol\":9787:9797  currentBid */\n      dup3\n        /* \"mainnet/0x81906929b10416a65A305d498267fE20adfC4746/contracts/Marketplace.sol\":9787:9804  currentBid.bidder */\n      0x00\n      add\n      mload\n        /* \"mainnet/0x81906929b10416a65A305d498267fE20adfC4746/contracts/Marketplace.sol\":9822:9832  currentBid */\n      dup4\n        /* \"mainnet/0x81906929b10416a65A305d498267fE20adfC4746/contracts/Marketplace.sol\":9822:9839  currentBid.amount */\n      0x20\n      add\n      mload\n        /* \"mainnet/0x81906929b10416a65A305d498267fE20adfC4746/contracts/Marketplace.sol\":9721:9731  _refundBid */\n      tag_199\n        /* \"mainnet/0x81906929b10416a65A305d498267fE20adfC4746/contracts/Marketplace.sol\":9721:9853  _refundBid(... */\n      jump\t// in\n    tag_454:\n        /* \"mainnet/0x81906929b10416a65A305d498267fE20adfC4746/contracts/Marketplace.sol\":9680:9864  if (currentBid.amount > 0) {... */\n    tag_453:\n        /* \"mainnet/0x81906929b10416a65A305d498267fE20adfC4746/contracts/Marketplace.sol\":9898:9940  Bid({bidder: msg.sender, amount: _amount}) */\n      mload(0x40)\n      dup1\n      0x40\n      add\n      0x40\n      mstore\n      dup1\n        /* \"mainnet/0x81906929b10416a65A305d498267fE20adfC4746/contracts/Marketplace.sol\":9911:9921  msg.sender */\n      caller\n        /* \"mainnet/0x81906929b10416a65A305d498267fE20adfC4746/contracts/Marketplace.sol\":9898:9940  Bid({bidder: msg.sender, amount: _amount}) */\n      0xffffffffffffffffffffffffffffffffffffffff\n      and\n      dup2\n      mstore\n      0x20\n      add\n        /* \"mainnet/0x81906929b10416a65A305d498267fE20adfC4746/contracts/Marketplace.sol\":9931:9938  _amount */\n      dup8\n        /* \"mainnet/0x81906929b10416a65A305d498267fE20adfC4746/contracts/Marketplace.sol\":9898:9940  Bid({bidder: msg.sender, amount: _amount}) */\n      dup2\n      mstore\n      pop\n        /* \"mainnet/0x81906929b10416a65A305d498267fE20adfC4746/contracts/Marketplace.sol\":9874:9885  currentBids */\n      0x07\n        /* \"mainnet/0x81906929b10416a65A305d498267fE20adfC4746/contracts/Marketplace.sol\":9874:9895  currentBids[_tokenId] */\n      0x00\n        /* \"mainnet/0x81906929b10416a65A305d498267fE20adfC4746/contracts/Marketplace.sol\":9886:9894  _tokenId */\n      dup10\n        /* \"mainnet/0x81906929b10416a65A305d498267fE20adfC4746/contracts/Marketplace.sol\":9874:9895  currentBids[_tokenId] */\n      dup2\n      mstore\n      0x20\n      add\n      swap1\n      dup2\n      mstore\n      0x20\n      add\n      0x00\n      keccak256\n        /* \"mainnet/0x81906929b10416a65A305d498267fE20adfC4746/contracts/Marketplace.sol\":9874:9940  currentBids[_tokenId] = Bid({bidder: msg.sender, amount: _amount}) */\n      0x00\n      dup3\n      add\n      mload\n      dup2\n      0x00\n      add\n      exp(0x0100, 0x00)\n      dup2\n      sload\n      dup2\n      0xffffffffffffffffffffffffffffffffffffffff\n      mul\n      not\n      and\n      swap1\n      dup4\n      0xffffffffffffffffffffffffffffffffffffffff\n      and\n      mul\n      or\n      swap1\n      sstore\n      pop\n      0x20\n      dup3\n      add\n      mload\n      dup2\n      0x01\n      add\n      sstore\n      swap1\n      pop\n      pop\n        /* \"mainnet/0x81906929b10416a65A305d498267fE20adfC4746/contracts/Marketplace.sol\":9975:9985  msg.sender */\n      caller\n        /* \"mainnet/0x81906929b10416a65A305d498267fE20adfC4746/contracts/Marketplace.sol\":9955:9995  BidPlaced(_tokenId, msg.sender, _amount) */\n      0xffffffffffffffffffffffffffffffffffffffff\n      and\n        /* \"mainnet/0x81906929b10416a65A305d498267fE20adfC4746/contracts/Marketplace.sol\":9965:9973  _tokenId */\n      dup8\n        /* \"mainnet/0x81906929b10416a65A305d498267fE20adfC4746/contracts/Marketplace.sol\":9955:9995  BidPlaced(_tokenId, msg.sender, _amount) */\n      0x0e54eff26401bf69b81b26f60bd85ef47f5d85275c1d268d84f68d6897431c47\n        /* \"mainnet/0x81906929b10416a65A305d498267fE20adfC4746/contracts/Marketplace.sol\":9987:9994  _amount */\n      dup9\n        /* \"mainnet/0x81906929b10416a65A305d498267fE20adfC4746/contracts/Marketplace.sol\":9955:9995  BidPlaced(_tokenId, msg.sender, _amount) */\n      mload(0x40)\n      tag_455\n      swap2\n      swap1\n      tag_49\n      jump\t// in\n    tag_455:\n      mload(0x40)\n      dup1\n      swap2\n      sub\n      swap1\n      log3\n        /* \"mainnet/0x81906929b10416a65A305d498267fE20adfC4746/contracts/Marketplace.sol\":8828:10002  {... */\n      pop\n      pop\n        /* \"mainnet/0x81906929b10416a65A305d498267fE20adfC4746/contracts/Marketplace.sol\":3570:3571  _ */\n      pop\n        /* \"@openzeppelin/contracts/utils/ReentrancyGuard.sol\":2531:2532  _ */\n      pop\n        /* \"@openzeppelin/contracts/utils/ReentrancyGuard.sol\":2542:2562  _nonReentrantAfter() */\n      tag_456\n        /* \"@openzeppelin/contracts/utils/ReentrancyGuard.sol\":2542:2560  _nonReentrantAfter */\n      tag_202\n        /* \"@openzeppelin/contracts/utils/ReentrancyGuard.sol\":2542:2562  _nonReentrantAfter() */\n      jump\t// in\n    tag_456:\n        /* \"mainnet/0x81906929b10416a65A305d498267fE20adfC4746/contracts/Marketplace.sol\":8569:10002  function placeBid(... */\n      pop\n      pop\n      pop\n      jump\t// out\n        /* \"mainnet/0x81906929b10416a65A305d498267fE20adfC4746/contracts/Marketplace.sol\":1126:1154  uint256 public MAX_FEE = 500 */\n    tag_146:\n      sload(0x03)\n      dup2\n      jump\t// out\n        /* \"mainnet/0x81906929b10416a65A305d498267fE20adfC4746/contracts/Marketplace.sol\":1189:1221  uint256 public adminsEthEarnings */\n    tag_150:\n      sload(0x04)\n      dup2\n      jump\t// out\n        /* \"mainnet/0x81906929b10416a65A305d498267fE20adfC4746/contracts/Marketplace.sol\":1593:1617  address public tokenUSDC */\n    tag_154:\n      0x0c\n      0x00\n      swap1\n      sload\n      swap1\n      0x0100\n      exp\n      swap1\n      div\n      0xffffffffffffffffffffffffffffffffffffffff\n      and\n      dup2\n      jump\t// out\n        /* \"mainnet/0x81906929b10416a65A305d498267fE20adfC4746/contracts/Marketplace.sol\":1623:1649  address public nftContract */\n    tag_158:\n      0x0d\n      0x00\n      swap1\n      sload\n      swap1\n      0x0100\n      exp\n      swap1\n      div\n      0xffffffffffffffffffffffffffffffffffffffff\n      and\n      dup2\n      jump\t// out\n        /* \"mainnet/0x81906929b10416a65A305d498267fE20adfC4746/contracts/Marketplace.sol\":1073:1120  uint256 public constant FEE_DENOMINATOR = 10000 */\n    tag_162:\n        /* \"mainnet/0x81906929b10416a65A305d498267fE20adfC4746/contracts/Marketplace.sol\":1115:1120  10000 */\n      0x2710\n        /* \"mainnet/0x81906929b10416a65A305d498267fE20adfC4746/contracts/Marketplace.sol\":1073:1120  uint256 public constant FEE_DENOMINATOR = 10000 */\n      dup2\n      jump\t// out\n        /* \"mainnet/0x81906929b10416a65A305d498267fE20adfC4746/contracts/Marketplace.sol\":1287:1330  mapping(uint256 => Listing) public listings */\n    tag_167:\n      mstore(0x20, 0x06)\n      dup1\n      0x00\n      mstore\n      keccak256(0x00, 0x40)\n      0x00\n      swap2\n      pop\n      swap1\n      pop\n      dup1\n      0x00\n      add\n      0x00\n      swap1\n      sload\n      swap1\n      0x0100\n      exp\n      swap1\n      div\n      0xffffffffffffffffffffffffffffffffffffffff\n      and\n      swap1\n      dup1\n      0x01\n      add\n      sload\n      swap1\n      dup1\n      0x02\n      add\n      0x00\n      swap1\n      sload\n      swap1\n      0x0100\n      exp\n      swap1\n      div\n      0xffffffffffffffffffffffffffffffffffffffff\n      and\n      swap1\n      dup1\n      0x03\n      add\n      sload\n      swap1\n      dup1\n      0x04\n      add\n      0x00\n      swap1\n      sload\n      swap1\n      0x0100\n      exp\n      swap1\n      div\n      0xff\n      and\n      swap1\n      pop\n      dup6\n      jump\t// out\n        /* \"mainnet/0x81906929b10416a65A305d498267fE20adfC4746/contracts/Marketplace.sol\":1384:1439  mapping(address => uint256) public ethRefundsForBidders */\n    tag_173:\n      mstore(0x20, 0x08)\n      dup1\n      0x00\n      mstore\n      keccak256(0x00, 0x40)\n      0x00\n      swap2\n      pop\n      swap1\n      pop\n      sload\n      dup2\n      jump\t// out\n        /* \"@openzeppelin/contracts/access/Ownable.sol\":2543:2758  function transferOwnership(address newOwner) public virtual onlyOwner {... */\n    tag_178:\n        /* \"@openzeppelin/contracts/access/Ownable.sol\":1531:1544  _checkOwner() */\n      tag_458\n        /* \"@openzeppelin/contracts/access/Ownable.sol\":1531:1542  _checkOwner */\n      tag_205\n        /* \"@openzeppelin/contracts/access/Ownable.sol\":1531:1544  _checkOwner() */\n      jump\t// in\n    tag_458:\n        /* \"@openzeppelin/contracts/access/Ownable.sol\":2647:2648  0 */\n      0x00\n        /* \"@openzeppelin/contracts/access/Ownable.sol\":2627:2649  newOwner == address(0) */\n      0xffffffffffffffffffffffffffffffffffffffff\n      and\n        /* \"@openzeppelin/contracts/access/Ownable.sol\":2627:2635  newOwner */\n      dup2\n        /* \"@openzeppelin/contracts/access/Ownable.sol\":2627:2649  newOwner == address(0) */\n      0xffffffffffffffffffffffffffffffffffffffff\n      and\n      sub\n        /* \"@openzeppelin/contracts/access/Ownable.sol\":2623:2714  if (newOwner == address(0)) {... */\n      tag_460\n      jumpi\n        /* \"@openzeppelin/contracts/access/Ownable.sol\":2700:2701  0 */\n      0x00\n        /* \"@openzeppelin/contracts/access/Ownable.sol\":2672:2703  OwnableInvalidOwner(address(0)) */\n      mload(0x40)\n      0x1e4fbdf700000000000000000000000000000000000000000000000000000000\n      dup2\n      mstore\n      0x04\n      add\n      tag_461\n      swap2\n      swap1\n      tag_115\n      jump\t// in\n    tag_461:\n      mload(0x40)\n      dup1\n      swap2\n      sub\n      swap1\n      revert\n        /* \"@openzeppelin/contracts/access/Ownable.sol\":2623:2714  if (newOwner == address(0)) {... */\n    tag_460:\n        /* \"@openzeppelin/contracts/access/Ownable.sol\":2723:2751  _transferOwnership(newOwner) */\n      tag_462\n        /* \"@openzeppelin/contracts/access/Ownable.sol\":2742:2750  newOwner */\n      dup2\n        /* \"@openzeppelin/contracts/access/Ownable.sol\":2723:2741  _transferOwnership */\n      tag_392\n        /* \"@openzeppelin/contracts/access/Ownable.sol\":2723:2751  _transferOwnership(newOwner) */\n      jump\t// in\n    tag_462:\n        /* \"@openzeppelin/contracts/access/Ownable.sol\":2543:2758  function transferOwnership(address newOwner) public virtual onlyOwner {... */\n      pop\n      jump\t// out\n        /* \"mainnet/0x81906929b10416a65A305d498267fE20adfC4746/contracts/Marketplace.sol\":14061:14472  function withdrawAdminEthEarnings() external onlyOwner nonReentrant {... */\n    tag_181:\n        /* \"@openzeppelin/contracts/access/Ownable.sol\":1531:1544  _checkOwner() */\n      tag_464\n        /* \"@openzeppelin/contracts/access/Ownable.sol\":1531:1542  _checkOwner */\n      tag_205\n        /* \"@openzeppelin/contracts/access/Ownable.sol\":1531:1544  _checkOwner() */\n      jump\t// in\n    tag_464:\n        /* \"@openzeppelin/contracts/utils/ReentrancyGuard.sol\":2500:2521  _nonReentrantBefore() */\n      tag_466\n        /* \"@openzeppelin/contracts/utils/ReentrancyGuard.sol\":2500:2519  _nonReentrantBefore */\n      tag_190\n        /* \"@openzeppelin/contracts/utils/ReentrancyGuard.sol\":2500:2521  _nonReentrantBefore() */\n      jump\t// in\n    tag_466:\n        /* \"mainnet/0x81906929b10416a65A305d498267fE20adfC4746/contracts/Marketplace.sol\":14139:14155  uint256 earnings */\n      0x00\n        /* \"mainnet/0x81906929b10416a65A305d498267fE20adfC4746/contracts/Marketplace.sol\":14158:14175  adminsEthEarnings */\n      sload(0x04)\n        /* \"mainnet/0x81906929b10416a65A305d498267fE20adfC4746/contracts/Marketplace.sol\":14139:14175  uint256 earnings = adminsEthEarnings */\n      swap1\n      pop\n        /* \"mainnet/0x81906929b10416a65A305d498267fE20adfC4746/contracts/Marketplace.sol\":14204:14205  0 */\n      0x00\n        /* \"mainnet/0x81906929b10416a65A305d498267fE20adfC4746/contracts/Marketplace.sol\":14193:14201  earnings */\n      dup2\n        /* \"mainnet/0x81906929b10416a65A305d498267fE20adfC4746/contracts/Marketplace.sol\":14193:14205  earnings > 0 */\n      gt\n        /* \"mainnet/0x81906929b10416a65A305d498267fE20adfC4746/contracts/Marketplace.sol\":14185:14228  require(earnings > 0, \"No ETH to withdraw\") */\n      tag_468\n      jumpi\n      mload(0x40)\n      0x08c379a000000000000000000000000000000000000000000000000000000000\n      dup2\n      mstore\n      0x04\n      add\n      tag_469\n      swap1\n      tag_470\n      jump\t// in\n    tag_469:\n      mload(0x40)\n      dup1\n      swap2\n      sub\n      swap1\n      revert\n    tag_468:\n        /* \"mainnet/0x81906929b10416a65A305d498267fE20adfC4746/contracts/Marketplace.sol\":14258:14259  0 */\n      0x00\n        /* \"mainnet/0x81906929b10416a65A305d498267fE20adfC4746/contracts/Marketplace.sol\":14238:14255  adminsEthEarnings */\n      0x04\n        /* \"mainnet/0x81906929b10416a65A305d498267fE20adfC4746/contracts/Marketplace.sol\":14238:14259  adminsEthEarnings = 0 */\n      dup2\n      swap1\n      sstore\n      pop\n        /* \"mainnet/0x81906929b10416a65A305d498267fE20adfC4746/contracts/Marketplace.sol\":14300:14312  bool success */\n      0x00\n        /* \"mainnet/0x81906929b10416a65A305d498267fE20adfC4746/contracts/Marketplace.sol\":14318:14328  msg.sender */\n      caller\n        /* \"mainnet/0x81906929b10416a65A305d498267fE20adfC4746/contracts/Marketplace.sol\":14318:14333  msg.sender.call */\n      0xffffffffffffffffffffffffffffffffffffffff\n      and\n        /* \"mainnet/0x81906929b10416a65A305d498267fE20adfC4746/contracts/Marketplace.sol\":14341:14349  earnings */\n      dup3\n        /* \"mainnet/0x81906929b10416a65A305d498267fE20adfC4746/contracts/Marketplace.sol\":14318:14354  msg.sender.call{value: earnings}(\"\") */\n      mload(0x40)\n      tag_471\n      swap1\n      tag_243\n      jump\t// in\n    tag_471:\n      0x00\n      mload(0x40)\n      dup1\n      dup4\n      sub\n      dup2\n      dup6\n      dup8\n      gas\n      call\n      swap3\n      pop\n      pop\n      pop\n      returndatasize\n      dup1\n      0x00\n      dup2\n      eq\n      tag_474\n      jumpi\n      mload(0x40)\n      swap2\n      pop\n      and(add(returndatasize, 0x3f), not(0x1f))\n      dup3\n      add\n      0x40\n      mstore\n      returndatasize\n      dup3\n      mstore\n      returndatasize\n      0x00\n      0x20\n      dup5\n      add\n      returndatacopy\n      jump(tag_473)\n    tag_474:\n      0x60\n      swap2\n      pop\n    tag_473:\n      pop\n        /* \"mainnet/0x81906929b10416a65A305d498267fE20adfC4746/contracts/Marketplace.sol\":14299:14354  (bool success, ) = msg.sender.call{value: earnings}(\"\") */\n      pop\n      swap1\n      pop\n        /* \"mainnet/0x81906929b10416a65A305d498267fE20adfC4746/contracts/Marketplace.sol\":14372:14379  success */\n      dup1\n        /* \"mainnet/0x81906929b10416a65A305d498267fE20adfC4746/contracts/Marketplace.sol\":14364:14412  require(success, \"ETH earnings transfer failed\") */\n      tag_475\n      jumpi\n      mload(0x40)\n      0x08c379a000000000000000000000000000000000000000000000000000000000\n      dup2\n      mstore\n      0x04\n      add\n      tag_476\n      swap1\n      tag_477\n      jump\t// in\n    tag_476:\n      mload(0x40)\n      dup1\n      swap2\n      sub\n      swap1\n      revert\n    tag_475:\n        /* \"mainnet/0x81906929b10416a65A305d498267fE20adfC4746/contracts/Marketplace.sol\":14427:14465  AdminEthWithdrawals(owner(), earnings) */\n      0xd6ddd782abf6e1531f3aa9f2801ae73391efd91e3846a441334a4e911f74bf43\n        /* \"mainnet/0x81906929b10416a65A305d498267fE20adfC4746/contracts/Marketplace.sol\":14447:14454  owner() */\n      tag_478\n        /* \"mainnet/0x81906929b10416a65A305d498267fE20adfC4746/contracts/Marketplace.sol\":14447:14452  owner */\n      tag_125\n        /* \"mainnet/0x81906929b10416a65A305d498267fE20adfC4746/contracts/Marketplace.sol\":14447:14454  owner() */\n      jump\t// in\n    tag_478:\n        /* \"mainnet/0x81906929b10416a65A305d498267fE20adfC4746/contracts/Marketplace.sol\":14456:14464  earnings */\n      dup4\n        /* \"mainnet/0x81906929b10416a65A305d498267fE20adfC4746/contracts/Marketplace.sol\":14427:14465  AdminEthWithdrawals(owner(), earnings) */\n      mload(0x40)\n      tag_479\n      swap3\n      swap2\n      swap1\n      tag_187\n      jump\t// in\n    tag_479:\n      mload(0x40)\n      dup1\n      swap2\n      sub\n      swap1\n      log1\n        /* \"mainnet/0x81906929b10416a65A305d498267fE20adfC4746/contracts/Marketplace.sol\":14129:14472  {... */\n      pop\n      pop\n        /* \"@openzeppelin/contracts/utils/ReentrancyGuard.sol\":2542:2562  _nonReentrantAfter() */\n      tag_480\n        /* \"@openzeppelin/contracts/utils/ReentrancyGuard.sol\":2542:2560  _nonReentrantAfter */\n      tag_202\n        /* \"@openzeppelin/contracts/utils/ReentrancyGuard.sol\":2542:2562  _nonReentrantAfter() */\n      jump\t// in\n    tag_480:\n        /* \"mainnet/0x81906929b10416a65A305d498267fE20adfC4746/contracts/Marketplace.sol\":14061:14472  function withdrawAdminEthEarnings() external onlyOwner nonReentrant {... */\n      jump\t// out\n        /* \"mainnet/0x81906929b10416a65A305d498267fE20adfC4746/contracts/Marketplace.sol\":1336:1378  mapping(uint256 => Bid) public currentBids */\n    tag_185:\n      mstore(0x20, 0x07)\n      dup1\n      0x00\n      mstore\n      keccak256(0x00, 0x40)\n      0x00\n      swap2\n      pop\n      swap1\n      pop\n      dup1\n      0x00\n      add\n      0x00\n      swap1\n      sload\n      swap1\n      0x0100\n      exp\n      swap1\n      div\n      0xffffffffffffffffffffffffffffffffffffffff\n      and\n      swap1\n      dup1\n      0x01\n      add\n      sload\n      swap1\n      pop\n      dup3\n      jump\t// out\n        /* \"@openzeppelin/contracts/utils/ReentrancyGuard.sol\":2575:2882  function _nonReentrantBefore() private {... */\n    tag_190:\n        /* \"@openzeppelin/contracts/utils/ReentrancyGuard.sol\":1899:1900  2 */\n      0x02\n        /* \"@openzeppelin/contracts/utils/ReentrancyGuard.sol\":2702:2709  _status */\n      sload(0x00)\n        /* \"@openzeppelin/contracts/utils/ReentrancyGuard.sol\":2702:2720  _status == ENTERED */\n      sub\n        /* \"@openzeppelin/contracts/utils/ReentrancyGuard.sol\":2698:2784  if (_status == ENTERED) {... */\n      tag_482\n      jumpi\n        /* \"@openzeppelin/contracts/utils/ReentrancyGuard.sol\":2743:2773  ReentrancyGuardReentrantCall() */\n      mload(0x40)\n      0x3ee5aeb500000000000000000000000000000000000000000000000000000000\n      dup2\n      mstore\n      0x04\n      add\n      mload(0x40)\n      dup1\n      swap2\n      sub\n      swap1\n      revert\n        /* \"@openzeppelin/contracts/utils/ReentrancyGuard.sol\":2698:2784  if (_status == ENTERED) {... */\n    tag_482:\n        /* \"@openzeppelin/contracts/utils/ReentrancyGuard.sol\":1899:1900  2 */\n      0x02\n        /* \"@openzeppelin/contracts/utils/ReentrancyGuard.sol\":2858:2865  _status */\n      0x00\n        /* \"@openzeppelin/contracts/utils/ReentrancyGuard.sol\":2858:2875  _status = ENTERED */\n      dup2\n      swap1\n      sstore\n      pop\n        /* \"@openzeppelin/contracts/utils/ReentrancyGuard.sol\":2575:2882  function _nonReentrantBefore() private {... */\n      jump\t// out\n        /* \"@openzeppelin/contracts/utils/Pausable.sol\":2002:2130  function _requireNotPaused() internal view virtual {... */\n    tag_193:\n        /* \"@openzeppelin/contracts/utils/Pausable.sol\":2067:2075  paused() */\n      tag_484\n        /* \"@openzeppelin/contracts/utils/Pausable.sol\":2067:2073  paused */\n      tag_96\n        /* \"@openzeppelin/contracts/utils/Pausable.sol\":2067:2075  paused() */\n      jump\t// in\n    tag_484:\n        /* \"@openzeppelin/contracts/utils/Pausable.sol\":2063:2124  if (paused()) {... */\n      iszero\n      tag_485\n      jumpi\n        /* \"@openzeppelin/contracts/utils/Pausable.sol\":2098:2113  EnforcedPause() */\n      mload(0x40)\n      0xd93c066500000000000000000000000000000000000000000000000000000000\n      dup2\n      mstore\n      0x04\n      add\n      mload(0x40)\n      dup1\n      swap2\n      sub\n      swap1\n      revert\n        /* \"@openzeppelin/contracts/utils/Pausable.sol\":2063:2124  if (paused()) {... */\n    tag_485:\n        /* \"@openzeppelin/contracts/utils/Pausable.sol\":2002:2130  function _requireNotPaused() internal view virtual {... */\n      jump\t// out\n        /* \"mainnet/0x81906929b10416a65A305d498267fE20adfC4746/contracts/Marketplace.sol\":15310:15782  function _refundBid(... */\n    tag_199:\n        /* \"mainnet/0x81906929b10416a65A305d498267fE20adfC4746/contracts/Marketplace.sol\":15461:15462  0 */\n      0x00\n        /* \"mainnet/0x81906929b10416a65A305d498267fE20adfC4746/contracts/Marketplace.sol\":15437:15463  paymentToken == address(0) */\n      0xffffffffffffffffffffffffffffffffffffffff\n      and\n        /* \"mainnet/0x81906929b10416a65A305d498267fE20adfC4746/contracts/Marketplace.sol\":15437:15449  paymentToken */\n      dup4\n        /* \"mainnet/0x81906929b10416a65A305d498267fE20adfC4746/contracts/Marketplace.sol\":15437:15463  paymentToken == address(0) */\n      0xffffffffffffffffffffffffffffffffffffffff\n      and\n      sub\n        /* \"mainnet/0x81906929b10416a65A305d498267fE20adfC4746/contracts/Marketplace.sol\":15433:15719  if (paymentToken == address(0)) {... */\n      tag_487\n      jumpi\n        /* \"mainnet/0x81906929b10416a65A305d498267fE20adfC4746/contracts/Marketplace.sol\":15563:15569  amount */\n      dup1\n        /* \"mainnet/0x81906929b10416a65A305d498267fE20adfC4746/contracts/Marketplace.sol\":15531:15551  ethRefundsForBidders */\n      0x08\n        /* \"mainnet/0x81906929b10416a65A305d498267fE20adfC4746/contracts/Marketplace.sol\":15531:15559  ethRefundsForBidders[bidder] */\n      0x00\n        /* \"mainnet/0x81906929b10416a65A305d498267fE20adfC4746/contracts/Marketplace.sol\":15552:15558  bidder */\n      dup5\n        /* \"mainnet/0x81906929b10416a65A305d498267fE20adfC4746/contracts/Marketplace.sol\":15531:15559  ethRefundsForBidders[bidder] */\n      0xffffffffffffffffffffffffffffffffffffffff\n      and\n      0xffffffffffffffffffffffffffffffffffffffff\n      and\n      dup2\n      mstore\n      0x20\n      add\n      swap1\n      dup2\n      mstore\n      0x20\n      add\n      0x00\n      keccak256\n      0x00\n        /* \"mainnet/0x81906929b10416a65A305d498267fE20adfC4746/contracts/Marketplace.sol\":15531:15569  ethRefundsForBidders[bidder] += amount */\n      dup3\n      dup3\n      sload\n      tag_488\n      swap2\n      swap1\n      tag_238\n      jump\t// in\n    tag_488:\n      swap3\n      pop\n      pop\n      dup2\n      swap1\n      sstore\n      pop\n        /* \"mainnet/0x81906929b10416a65A305d498267fE20adfC4746/contracts/Marketplace.sol\":15433:15719  if (paymentToken == address(0)) {... */\n      jump(tag_489)\n    tag_487:\n        /* \"mainnet/0x81906929b10416a65A305d498267fE20adfC4746/contracts/Marketplace.sol\":15702:15708  amount */\n      dup1\n        /* \"mainnet/0x81906929b10416a65A305d498267fE20adfC4746/contracts/Marketplace.sol\":15654:15676  tokenRefundsForBidders */\n      0x09\n        /* \"mainnet/0x81906929b10416a65A305d498267fE20adfC4746/contracts/Marketplace.sol\":15654:15684  tokenRefundsForBidders[bidder] */\n      0x00\n        /* \"mainnet/0x81906929b10416a65A305d498267fE20adfC4746/contracts/Marketplace.sol\":15677:15683  bidder */\n      dup5\n        /* \"mainnet/0x81906929b10416a65A305d498267fE20adfC4746/contracts/Marketplace.sol\":15654:15684  tokenRefundsForBidders[bidder] */\n      0xffffffffffffffffffffffffffffffffffffffff\n      and\n      0xffffffffffffffffffffffffffffffffffffffff\n      and\n      dup2\n      mstore\n      0x20\n      add\n      swap1\n      dup2\n      mstore\n      0x20\n      add\n      0x00\n      keccak256\n        /* \"mainnet/0x81906929b10416a65A305d498267fE20adfC4746/contracts/Marketplace.sol\":15654:15698  tokenRefundsForBidders[bidder][paymentToken] */\n      0x00\n        /* \"mainnet/0x81906929b10416a65A305d498267fE20adfC4746/contracts/Marketplace.sol\":15685:15697  paymentToken */\n      dup6\n        /* \"mainnet/0x81906929b10416a65A305d498267fE20adfC4746/contracts/Marketplace.sol\":15654:15698  tokenRefundsForBidders[bidder][paymentToken] */\n      0xffffffffffffffffffffffffffffffffffffffff\n      and\n      0xffffffffffffffffffffffffffffffffffffffff\n      and\n      dup2\n      mstore\n      0x20\n      add\n      swap1\n      dup2\n      mstore\n      0x20\n      add\n      0x00\n      keccak256\n      0x00\n        /* \"mainnet/0x81906929b10416a65A305d498267fE20adfC4746/contracts/Marketplace.sol\":15654:15708  tokenRefundsForBidders[bidder][paymentToken] += amount */\n      dup3\n      dup3\n      sload\n      tag_490\n      swap2\n      swap1\n      tag_238\n      jump\t// in\n    tag_490:\n      swap3\n      pop\n      pop\n      dup2\n      swap1\n      sstore\n      pop\n        /* \"mainnet/0x81906929b10416a65A305d498267fE20adfC4746/contracts/Marketplace.sol\":15433:15719  if (paymentToken == address(0)) {... */\n    tag_489:\n        /* \"mainnet/0x81906929b10416a65A305d498267fE20adfC4746/contracts/Marketplace.sol\":15733:15775  RefundIssued(bidder, paymentToken, amount) */\n      0x97ded04b4dd3dab6c02011a161d44b56a32fc8dac48ee2a011bc2beed61b16e0\n        /* \"mainnet/0x81906929b10416a65A305d498267fE20adfC4746/contracts/Marketplace.sol\":15746:15752  bidder */\n      dup3\n        /* \"mainnet/0x81906929b10416a65A305d498267fE20adfC4746/contracts/Marketplace.sol\":15754:15766  paymentToken */\n      dup5\n        /* \"mainnet/0x81906929b10416a65A305d498267fE20adfC4746/contracts/Marketplace.sol\":15768:15774  amount */\n      dup4\n        /* \"mainnet/0x81906929b10416a65A305d498267fE20adfC4746/contracts/Marketplace.sol\":15733:15775  RefundIssued(bidder, paymentToken, amount) */\n      mload(0x40)\n      tag_491\n      swap4\n      swap3\n      swap2\n      swap1\n      tag_255\n      jump\t// in\n    tag_491:\n      mload(0x40)\n      dup1\n      swap2\n      sub\n      swap1\n      log1\n        /* \"mainnet/0x81906929b10416a65A305d498267fE20adfC4746/contracts/Marketplace.sol\":15310:15782  function _refundBid(... */\n      pop\n      pop\n      pop\n      jump\t// out\n        /* \"@openzeppelin/contracts/utils/ReentrancyGuard.sol\":2888:3096  function _nonReentrantAfter() private {... */\n    tag_202:\n        /* \"@openzeppelin/contracts/utils/ReentrancyGuard.sol\":1857:1858  1 */\n      0x01\n        /* \"@openzeppelin/contracts/utils/ReentrancyGuard.sol\":3068:3075  _status */\n      0x00\n        /* \"@openzeppelin/contracts/utils/ReentrancyGuard.sol\":3068:3089  _status = NOT_ENTERED */\n      dup2\n      swap1\n      sstore\n      pop\n        /* \"@openzeppelin/contracts/utils/ReentrancyGuard.sol\":2888:3096  function _nonReentrantAfter() private {... */\n      jump\t// out\n        /* \"@openzeppelin/contracts/access/Ownable.sol\":1796:1958  function _checkOwner() internal view virtual {... */\n    tag_205:\n        /* \"@openzeppelin/contracts/access/Ownable.sol\":1866:1878  _msgSender() */\n      tag_494\n        /* \"@openzeppelin/contracts/access/Ownable.sol\":1866:1876  _msgSender */\n      tag_495\n        /* \"@openzeppelin/contracts/access/Ownable.sol\":1866:1878  _msgSender() */\n      jump\t// in\n    tag_494:\n        /* \"@openzeppelin/contracts/access/Ownable.sol\":1855:1878  owner() != _msgSender() */\n      0xffffffffffffffffffffffffffffffffffffffff\n      and\n        /* \"@openzeppelin/contracts/access/Ownable.sol\":1855:1862  owner() */\n      tag_496\n        /* \"@openzeppelin/contracts/access/Ownable.sol\":1855:1860  owner */\n      tag_125\n        /* \"@openzeppelin/contracts/access/Ownable.sol\":1855:1862  owner() */\n      jump\t// in\n    tag_496:\n        /* \"@openzeppelin/contracts/access/Ownable.sol\":1855:1878  owner() != _msgSender() */\n      0xffffffffffffffffffffffffffffffffffffffff\n      and\n      eq\n        /* \"@openzeppelin/contracts/access/Ownable.sol\":1851:1952  if (owner() != _msgSender()) {... */\n      tag_497\n      jumpi\n        /* \"@openzeppelin/contracts/access/Ownable.sol\":1928:1940  _msgSender() */\n      tag_498\n        /* \"@openzeppelin/contracts/access/Ownable.sol\":1928:1938  _msgSender */\n      tag_495\n        /* \"@openzeppelin/contracts/access/Ownable.sol\":1928:1940  _msgSender() */\n      jump\t// in\n    tag_498:\n        /* \"@openzeppelin/contracts/access/Ownable.sol\":1901:1941  OwnableUnauthorizedAccount(_msgSender()) */\n      mload(0x40)\n      0x118cdaa700000000000000000000000000000000000000000000000000000000\n      dup2\n      mstore\n      0x04\n      add\n      tag_499\n      swap2\n      swap1\n      tag_115\n      jump\t// in\n    tag_499:\n      mload(0x40)\n      dup1\n      swap2\n      sub\n      swap1\n      revert\n        /* \"@openzeppelin/contracts/access/Ownable.sol\":1851:1952  if (owner() != _msgSender()) {... */\n    tag_497:\n        /* \"@openzeppelin/contracts/access/Ownable.sol\":1796:1958  function _checkOwner() internal view virtual {... */\n      jump\t// out\n        /* \"@openzeppelin/contracts/token/ERC20/utils/SafeERC20.sol\":1219:1379  function safeTransfer(IERC20 token, address to, uint256 value) internal {... */\n    tag_253:\n        /* \"@openzeppelin/contracts/token/ERC20/utils/SafeERC20.sol\":1301:1372  _callOptionalReturn(token, abi.encodeCall(token.transfer, (to, value))) */\n      tag_501\n        /* \"@openzeppelin/contracts/token/ERC20/utils/SafeERC20.sol\":1321:1326  token */\n      dup4\n        /* \"@openzeppelin/contracts/token/ERC20/utils/SafeERC20.sol\":1343:1348  token */\n      dup5\n        /* \"@openzeppelin/contracts/token/ERC20/utils/SafeERC20.sol\":1343:1357  token.transfer */\n      0xffffffffffffffffffffffffffffffffffffffff\n      and\n      0xa9059cbb\n        /* \"@openzeppelin/contracts/token/ERC20/utils/SafeERC20.sol\":1360:1362  to */\n      dup6\n        /* \"@openzeppelin/contracts/token/ERC20/utils/SafeERC20.sol\":1364:1369  value */\n      dup6\n        /* \"@openzeppelin/contracts/token/ERC20/utils/SafeERC20.sol\":1328:1371  abi.encodeCall(token.transfer, (to, value)) */\n      add(0x24, mload(0x40))\n      tag_502\n      swap3\n      swap2\n      swap1\n      tag_187\n      jump\t// in\n    tag_502:\n      mload(0x40)\n      0x20\n      dup2\n      dup4\n      sub\n      sub\n      dup2\n      mstore\n      swap1\n      0x40\n      mstore\n      swap2\n      pop\n      0xe0\n      shl\n      0x20\n      dup3\n      add\n      dup1\n      mload\n      0xffffffffffffffffffffffffffffffffffffffffffffffffffffffff\n      dup4\n      dup2\n      dup4\n      and\n      or\n      dup4\n      mstore\n      pop\n      pop\n      pop\n      pop\n        /* \"@openzeppelin/contracts/token/ERC20/utils/SafeERC20.sol\":1301:1320  _callOptionalReturn */\n      tag_503\n        /* \"@openzeppelin/contracts/token/ERC20/utils/SafeERC20.sol\":1301:1372  _callOptionalReturn(token, abi.encodeCall(token.transfer, (to, value))) */\n      jump\t// in\n    tag_501:\n        /* \"@openzeppelin/contracts/token/ERC20/utils/SafeERC20.sol\":1219:1379  function safeTransfer(IERC20 token, address to, uint256 value) internal {... */\n      pop\n      pop\n      pop\n      jump\t// out\n        /* \"@openzeppelin/contracts/utils/Pausable.sol\":2710:2827  function _unpause() internal virtual whenPaused {... */\n    tag_295:\n        /* \"@openzeppelin/contracts/utils/Pausable.sol\":1721:1737  _requirePaused() */\n      tag_505\n        /* \"@openzeppelin/contracts/utils/Pausable.sol\":1721:1735  _requirePaused */\n      tag_506\n        /* \"@openzeppelin/contracts/utils/Pausable.sol\":1721:1737  _requirePaused() */\n      jump\t// in\n    tag_505:\n        /* \"@openzeppelin/contracts/utils/Pausable.sol\":2778:2783  false */\n      0x00\n        /* \"@openzeppelin/contracts/utils/Pausable.sol\":2768:2775  _paused */\n      0x01\n      0x14\n        /* \"@openzeppelin/contracts/utils/Pausable.sol\":2768:2783  _paused = false */\n      0x0100\n      exp\n      dup2\n      sload\n      dup2\n      0xff\n      mul\n      not\n      and\n      swap1\n      dup4\n      iszero\n      iszero\n      mul\n      or\n      swap1\n      sstore\n      pop\n        /* \"@openzeppelin/contracts/utils/Pausable.sol\":2798:2820  Unpaused(_msgSender()) */\n      0x5db9ee0a495bf2e6ff9c91a7834c1ba4fdd244a5e8aa4e537bd38aeae4b073aa\n        /* \"@openzeppelin/contracts/utils/Pausable.sol\":2807:2819  _msgSender() */\n      tag_508\n        /* \"@openzeppelin/contracts/utils/Pausable.sol\":2807:2817  _msgSender */\n      tag_495\n        /* \"@openzeppelin/contracts/utils/Pausable.sol\":2807:2819  _msgSender() */\n      jump\t// in\n    tag_508:\n        /* \"@openzeppelin/contracts/utils/Pausable.sol\":2798:2820  Unpaused(_msgSender()) */\n      mload(0x40)\n      tag_509\n      swap2\n      swap1\n      tag_115\n      jump\t// in\n    tag_509:\n      mload(0x40)\n      dup1\n      swap2\n      sub\n      swap1\n      log1\n        /* \"@openzeppelin/contracts/utils/Pausable.sol\":2710:2827  function _unpause() internal virtual whenPaused {... */\n      jump\t// out\n        /* \"@openzeppelin/contracts/access/Ownable.sol\":2912:3099  function _transferOwnership(address newOwner) internal virtual {... */\n    tag_392:\n        /* \"@openzeppelin/contracts/access/Ownable.sol\":2985:3001  address oldOwner */\n      0x00\n        /* \"@openzeppelin/contracts/access/Ownable.sol\":3004:3010  _owner */\n      0x01\n      0x00\n      swap1\n      sload\n      swap1\n      0x0100\n      exp\n      swap1\n      div\n      0xffffffffffffffffffffffffffffffffffffffff\n      and\n        /* \"@openzeppelin/contracts/access/Ownable.sol\":2985:3010  address oldOwner = _owner */\n      swap1\n      pop\n        /* \"@openzeppelin/contracts/access/Ownable.sol\":3029:3037  newOwner */\n      dup2\n        /* \"@openzeppelin/contracts/access/Ownable.sol\":3020:3026  _owner */\n      0x01\n      0x00\n        /* \"@openzeppelin/contracts/access/Ownable.sol\":3020:3037  _owner = newOwner */\n      0x0100\n      exp\n      dup2\n      sload\n      dup2\n      0xffffffffffffffffffffffffffffffffffffffff\n      mul\n      not\n      and\n      swap1\n      dup4\n      0xffffffffffffffffffffffffffffffffffffffff\n      and\n      mul\n      or\n      swap1\n      sstore\n      pop\n        /* \"@openzeppelin/contracts/access/Ownable.sol\":3083:3091  newOwner */\n      dup2\n        /* \"@openzeppelin/contracts/access/Ownable.sol\":3052:3092  OwnershipTransferred(oldOwner, newOwner) */\n      0xffffffffffffffffffffffffffffffffffffffff\n      and\n        /* \"@openzeppelin/contracts/access/Ownable.sol\":3073:3081  oldOwner */\n      dup2\n        /* \"@openzeppelin/contracts/access/Ownable.sol\":3052:3092  OwnershipTransferred(oldOwner, newOwner) */\n      0xffffffffffffffffffffffffffffffffffffffff\n      and\n      0x8be0079c531659141344cd1fd0a4f28419497f9722a3daafe3b4186f6b6457e0\n      mload(0x40)\n      mload(0x40)\n      dup1\n      swap2\n      sub\n      swap1\n      log3\n        /* \"@openzeppelin/contracts/access/Ownable.sol\":2975:3099  {... */\n      pop\n        /* \"@openzeppelin/contracts/access/Ownable.sol\":2912:3099  function _transferOwnership(address newOwner) internal virtual {... */\n      pop\n      jump\t// out\n        /* \"@openzeppelin/contracts/utils/Pausable.sol\":2463:2578  function _pause() internal virtual whenNotPaused {... */\n    tag_397:\n        /* \"@openzeppelin/contracts/utils/Pausable.sol\":1474:1493  _requireNotPaused() */\n      tag_512\n        /* \"@openzeppelin/contracts/utils/Pausable.sol\":1474:1491  _requireNotPaused */\n      tag_193\n        /* \"@openzeppelin/contracts/utils/Pausable.sol\":1474:1493  _requireNotPaused() */\n      jump\t// in\n    tag_512:\n        /* \"@openzeppelin/contracts/utils/Pausable.sol\":2532:2536  true */\n      0x01\n        /* \"@openzeppelin/contracts/utils/Pausable.sol\":2522:2529  _paused */\n      dup1\n      0x14\n        /* \"@openzeppelin/contracts/utils/Pausable.sol\":2522:2536  _paused = true */\n      0x0100\n      exp\n      dup2\n      sload\n      dup2\n      0xff\n      mul\n      not\n      and\n      swap1\n      dup4\n      iszero\n      iszero\n      mul\n      or\n      swap1\n      sstore\n      pop\n        /* \"@openzeppelin/contracts/utils/Pausable.sol\":2551:2571  Paused(_msgSender()) */\n      0x62e78cea01bee320cd4e420270b5ea74000d11b0c9f74754ebdbfc544b05a258\n        /* \"@openzeppelin/contracts/utils/Pausable.sol\":2558:2570  _msgSender() */\n      tag_514\n        /* \"@openzeppelin/contracts/utils/Pausable.sol\":2558:2568  _msgSender */\n      tag_495\n        /* \"@openzeppelin/contracts/utils/Pausable.sol\":2558:2570  _msgSender() */\n      jump\t// in\n    tag_514:\n        /* \"@openzeppelin/contracts/utils/Pausable.sol\":2551:2571  Paused(_msgSender()) */\n      mload(0x40)\n      tag_515\n      swap2\n      swap1\n      tag_115\n      jump\t// in\n    tag_515:\n      mload(0x40)\n      dup1\n      swap2\n      sub\n      swap1\n      log1\n        /* \"@openzeppelin/contracts/utils/Pausable.sol\":2463:2578  function _pause() internal virtual whenNotPaused {... */\n      jump\t// out\n        /* \"@openzeppelin/contracts/utils/Context.sol\":656:752  function _msgSender() internal view virtual returns (address) {... */\n    tag_495:\n        /* \"@openzeppelin/contracts/utils/Context.sol\":709:716  address */\n      0x00\n        /* \"@openzeppelin/contracts/utils/Context.sol\":735:745  msg.sender */\n      caller\n        /* \"@openzeppelin/contracts/utils/Context.sol\":728:745  return msg.sender */\n      swap1\n      pop\n        /* \"@openzeppelin/contracts/utils/Context.sol\":656:752  function _msgSender() internal view virtual returns (address) {... */\n      swap1\n      jump\t// out\n        /* \"@openzeppelin/contracts/token/ERC20/utils/SafeERC20.sol\":7686:8406  function _callOptionalReturn(IERC20 token, bytes memory data) private {... */\n    tag_503:\n        /* \"@openzeppelin/contracts/token/ERC20/utils/SafeERC20.sol\":7766:7784  uint256 returnSize */\n      0x00\n        /* \"@openzeppelin/contracts/token/ERC20/utils/SafeERC20.sol\":7794:7813  uint256 returnValue */\n      dup1\n        /* \"@openzeppelin/contracts/token/ERC20/utils/SafeERC20.sol\":7932:7936  0x20 */\n      0x20\n        /* \"@openzeppelin/contracts/token/ERC20/utils/SafeERC20.sol\":7929:7930  0 */\n      0x00\n        /* \"@openzeppelin/contracts/token/ERC20/utils/SafeERC20.sol\":7922:7926  data */\n      dup5\n        /* \"@openzeppelin/contracts/token/ERC20/utils/SafeERC20.sol\":7916:7927  mload(data) */\n      mload\n        /* \"@openzeppelin/contracts/token/ERC20/utils/SafeERC20.sol\":7909:7913  0x20 */\n      0x20\n        /* \"@openzeppelin/contracts/token/ERC20/utils/SafeERC20.sol\":7903:7907  data */\n      dup7\n        /* \"@openzeppelin/contracts/token/ERC20/utils/SafeERC20.sol\":7899:7914  add(data, 0x20) */\n      add\n        /* \"@openzeppelin/contracts/token/ERC20/utils/SafeERC20.sol\":7896:7897  0 */\n      0x00\n        /* \"@openzeppelin/contracts/token/ERC20/utils/SafeERC20.sol\":7889:7894  token */\n      dup9\n        /* \"@openzeppelin/contracts/token/ERC20/utils/SafeERC20.sol\":7882:7887  gas() */\n      gas\n        /* \"@openzeppelin/contracts/token/ERC20/utils/SafeERC20.sol\":7877:7937  call(gas(), token, 0, add(data, 0x20), mload(data), 0, 0x20) */\n      call\n        /* \"@openzeppelin/contracts/token/ERC20/utils/SafeERC20.sol\":7989:7996  success */\n      dup1\n        /* \"@openzeppelin/contracts/token/ERC20/utils/SafeERC20.sol\":7979:8155  if iszero(success) {... */\n      tag_518\n      jumpi\n        /* \"@openzeppelin/contracts/token/ERC20/utils/SafeERC20.sol\":8033:8037  0x40 */\n      0x40\n        /* \"@openzeppelin/contracts/token/ERC20/utils/SafeERC20.sol\":8027:8038  mload(0x40) */\n      mload\n        /* \"@openzeppelin/contracts/token/ERC20/utils/SafeERC20.sol\":8078:8094  returndatasize() */\n      returndatasize\n        /* \"@openzeppelin/contracts/token/ERC20/utils/SafeERC20.sol\":8075:8076  0 */\n      0x00\n        /* \"@openzeppelin/contracts/token/ERC20/utils/SafeERC20.sol\":8070:8073  ptr */\n      dup3\n        /* \"@openzeppelin/contracts/token/ERC20/utils/SafeERC20.sol\":8055:8095  returndatacopy(ptr, 0, returndatasize()) */\n      returndatacopy\n        /* \"@openzeppelin/contracts/token/ERC20/utils/SafeERC20.sol\":8124:8140  returndatasize() */\n      returndatasize\n        /* \"@openzeppelin/contracts/token/ERC20/utils/SafeERC20.sol\":8119:8122  ptr */\n      dup2\n        /* \"@openzeppelin/contracts/token/ERC20/utils/SafeERC20.sol\":8112:8141  revert(ptr, returndatasize()) */\n      revert\n        /* \"@openzeppelin/contracts/token/ERC20/utils/SafeERC20.sol\":7979:8155  if iszero(success) {... */\n    tag_518:\n        /* \"@openzeppelin/contracts/token/ERC20/utils/SafeERC20.sol\":8182:8198  returndatasize() */\n      returndatasize\n        /* \"@openzeppelin/contracts/token/ERC20/utils/SafeERC20.sol\":8168:8198  returnSize := returndatasize() */\n      swap3\n      pop\n        /* \"@openzeppelin/contracts/token/ERC20/utils/SafeERC20.sol\":8232:8233  0 */\n      0x00\n        /* \"@openzeppelin/contracts/token/ERC20/utils/SafeERC20.sol\":8226:8234  mload(0) */\n      mload\n        /* \"@openzeppelin/contracts/token/ERC20/utils/SafeERC20.sol\":8211:8234  returnValue := mload(0) */\n      swap2\n      pop\n        /* \"@openzeppelin/contracts/token/ERC20/utils/SafeERC20.sol\":7848:8244  {... */\n      pop\n        /* \"@openzeppelin/contracts/token/ERC20/utils/SafeERC20.sol\":8272:8273  0 */\n      0x00\n        /* \"@openzeppelin/contracts/token/ERC20/utils/SafeERC20.sol\":8258:8268  returnSize */\n      dup3\n        /* \"@openzeppelin/contracts/token/ERC20/utils/SafeERC20.sol\":8258:8273  returnSize == 0 */\n      eq\n        /* \"@openzeppelin/contracts/token/ERC20/utils/SafeERC20.sol\":8258:8326  returnSize == 0 ? address(token).code.length == 0 : returnValue != 1 */\n      tag_519\n      jumpi\n        /* \"@openzeppelin/contracts/token/ERC20/utils/SafeERC20.sol\":8325:8326  1 */\n      0x01\n        /* \"@openzeppelin/contracts/token/ERC20/utils/SafeERC20.sol\":8310:8321  returnValue */\n      dup2\n        /* \"@openzeppelin/contracts/token/ERC20/utils/SafeERC20.sol\":8310:8326  returnValue != 1 */\n      eq\n      iszero\n        /* \"@openzeppelin/contracts/token/ERC20/utils/SafeERC20.sol\":8258:8326  returnSize == 0 ? address(token).code.length == 0 : returnValue != 1 */\n      jump(tag_520)\n    tag_519:\n        /* \"@openzeppelin/contracts/token/ERC20/utils/SafeERC20.sol\":8306:8307  0 */\n      0x00\n        /* \"@openzeppelin/contracts/token/ERC20/utils/SafeERC20.sol\":8284:8289  token */\n      dup5\n        /* \"@openzeppelin/contracts/token/ERC20/utils/SafeERC20.sol\":8276:8302  address(token).code.length */\n      0xffffffffffffffffffffffffffffffffffffffff\n      and\n      extcodesize\n        /* \"@openzeppelin/contracts/token/ERC20/utils/SafeERC20.sol\":8276:8307  address(token).code.length == 0 */\n      eq\n        /* \"@openzeppelin/contracts/token/ERC20/utils/SafeERC20.sol\":8258:8326  returnSize == 0 ? address(token).code.length == 0 : returnValue != 1 */\n    tag_520:\n        /* \"@openzeppelin/contracts/token/ERC20/utils/SafeERC20.sol\":8254:8400  if (returnSize == 0 ? address(token).code.length == 0 : returnValue != 1) {... */\n      iszero\n      tag_521\n      jumpi\n        /* \"@openzeppelin/contracts/token/ERC20/utils/SafeERC20.sol\":8382:8387  token */\n      dup4\n        /* \"@openzeppelin/contracts/token/ERC20/utils/SafeERC20.sol\":8349:8389  SafeERC20FailedOperation(address(token)) */\n      mload(0x40)\n      0x5274afe700000000000000000000000000000000000000000000000000000000\n      dup2\n      mstore\n      0x04\n      add\n      tag_522\n      swap2\n      swap1\n      tag_115\n      jump\t// in\n    tag_522:\n      mload(0x40)\n      dup1\n      swap2\n      sub\n      swap1\n      revert\n        /* \"@openzeppelin/contracts/token/ERC20/utils/SafeERC20.sol\":8254:8400  if (returnSize == 0 ? address(token).code.length == 0 : returnValue != 1) {... */\n    tag_521:\n        /* \"@openzeppelin/contracts/token/ERC20/utils/SafeERC20.sol\":7756:8406  {... */\n      pop\n      pop\n        /* \"@openzeppelin/contracts/token/ERC20/utils/SafeERC20.sol\":7686:8406  function _callOptionalReturn(IERC20 token, bytes memory data) private {... */\n      pop\n      pop\n      jump\t// out\n        /* \"@openzeppelin/contracts/utils/Pausable.sol\":2202:2328  function _requirePaused() internal view virtual {... */\n    tag_506:\n        /* \"@openzeppelin/contracts/utils/Pausable.sol\":2265:2273  paused() */\n      tag_524\n        /* \"@openzeppelin/contracts/utils/Pausable.sol\":2265:2271  paused */\n      tag_96\n        /* \"@openzeppelin/contracts/utils/Pausable.sol\":2265:2273  paused() */\n      jump\t// in\n    tag_524:\n        /* \"@openzeppelin/contracts/utils/Pausable.sol\":2260:2322  if (!paused()) {... */\n      tag_525\n      jumpi\n        /* \"@openzeppelin/contracts/utils/Pausable.sol\":2296:2311  ExpectedPause() */\n      mload(0x40)\n      0x8dfc202b00000000000000000000000000000000000000000000000000000000\n      dup2\n      mstore\n      0x04\n      add\n      mload(0x40)\n      dup1\n      swap2\n      sub\n      swap1\n      revert\n        /* \"@openzeppelin/contracts/utils/Pausable.sol\":2260:2322  if (!paused()) {... */\n    tag_525:\n        /* \"@openzeppelin/contracts/utils/Pausable.sol\":2202:2328  function _requirePaused() internal view virtual {... */\n      jump\t// out\n        /* \"#utility.yul\":88:205   */\n    tag_527:\n        /* \"#utility.yul\":197:198   */\n      0x00\n        /* \"#utility.yul\":194:195   */\n      dup1\n        /* \"#utility.yul\":187:199   */\n      revert\n        /* \"#utility.yul\":334:460   */\n    tag_529:\n        /* \"#utility.yul\":371:378   */\n      0x00\n        /* \"#utility.yul\":411:453   */\n      0xffffffffffffffffffffffffffffffffffffffff\n        /* \"#utility.yul\":404:409   */\n      dup3\n        /* \"#utility.yul\":400:454   */\n      and\n        /* \"#utility.yul\":389:454   */\n      swap1\n      pop\n        /* \"#utility.yul\":334:460   */\n      swap2\n      swap1\n      pop\n      jump\t// out\n        /* \"#utility.yul\":466:562   */\n    tag_530:\n        /* \"#utility.yul\":503:510   */\n      0x00\n        /* \"#utility.yul\":532:556   */\n      tag_608\n        /* \"#utility.yul\":550:555   */\n      dup3\n        /* \"#utility.yul\":532:556   */\n      tag_529\n      jump\t// in\n    tag_608:\n        /* \"#utility.yul\":521:556   */\n      swap1\n      pop\n        /* \"#utility.yul\":466:562   */\n      swap2\n      swap1\n      pop\n      jump\t// out\n        /* \"#utility.yul\":568:690   */\n    tag_531:\n        /* \"#utility.yul\":641:665   */\n      tag_610\n        /* \"#utility.yul\":659:664   */\n      dup2\n        /* \"#utility.yul\":641:665   */\n      tag_530\n      jump\t// in\n    tag_610:\n        /* \"#utility.yul\":634:639   */\n      dup2\n        /* \"#utility.yul\":631:666   */\n      eq\n        /* \"#utility.yul\":621:684   */\n      tag_611\n      jumpi\n        /* \"#utility.yul\":680:681   */\n      0x00\n        /* \"#utility.yul\":677:678   */\n      dup1\n        /* \"#utility.yul\":670:682   */\n      revert\n        /* \"#utility.yul\":621:684   */\n    tag_611:\n        /* \"#utility.yul\":568:690   */\n      pop\n      jump\t// out\n        /* \"#utility.yul\":696:835   */\n    tag_532:\n        /* \"#utility.yul\":742:747   */\n      0x00\n        /* \"#utility.yul\":780:786   */\n      dup2\n        /* \"#utility.yul\":767:787   */\n      calldataload\n        /* \"#utility.yul\":758:787   */\n      swap1\n      pop\n        /* \"#utility.yul\":796:829   */\n      tag_613\n        /* \"#utility.yul\":823:828   */\n      dup2\n        /* \"#utility.yul\":796:829   */\n      tag_531\n      jump\t// in\n    tag_613:\n        /* \"#utility.yul\":696:835   */\n      swap3\n      swap2\n      pop\n      pop\n      jump\t// out\n        /* \"#utility.yul\":841:1315   */\n    tag_46:\n        /* \"#utility.yul\":909:915   */\n      0x00\n        /* \"#utility.yul\":917:923   */\n      dup1\n        /* \"#utility.yul\":966:968   */\n      0x40\n        /* \"#utility.yul\":954:963   */\n      dup4\n        /* \"#utility.yul\":945:952   */\n      dup6\n        /* \"#utility.yul\":941:964   */\n      sub\n        /* \"#utility.yul\":937:969   */\n      slt\n        /* \"#utility.yul\":934:1053   */\n      iszero\n      tag_615\n      jumpi\n        /* \"#utility.yul\":972:1051   */\n      tag_616\n      tag_527\n      jump\t// in\n    tag_616:\n        /* \"#utility.yul\":934:1053   */\n    tag_615:\n        /* \"#utility.yul\":1092:1093   */\n      0x00\n        /* \"#utility.yul\":1117:1170   */\n      tag_617\n        /* \"#utility.yul\":1162:1169   */\n      dup6\n        /* \"#utility.yul\":1153:1159   */\n      dup3\n        /* \"#utility.yul\":1142:1151   */\n      dup7\n        /* \"#utility.yul\":1138:1160   */\n      add\n        /* \"#utility.yul\":1117:1170   */\n      tag_532\n      jump\t// in\n    tag_617:\n        /* \"#utility.yul\":1107:1170   */\n      swap3\n      pop\n        /* \"#utility.yul\":1063:1180   */\n      pop\n        /* \"#utility.yul\":1219:1221   */\n      0x20\n        /* \"#utility.yul\":1245:1298   */\n      tag_618\n        /* \"#utility.yul\":1290:1297   */\n      dup6\n        /* \"#utility.yul\":1281:1287   */\n      dup3\n        /* \"#utility.yul\":1270:1279   */\n      dup7\n        /* \"#utility.yul\":1266:1288   */\n      add\n        /* \"#utility.yul\":1245:1298   */\n      tag_532\n      jump\t// in\n    tag_618:\n        /* \"#utility.yul\":1235:1298   */\n      swap2\n      pop\n        /* \"#utility.yul\":1190:1308   */\n      pop\n        /* \"#utility.yul\":841:1315   */\n      swap3\n      pop\n      swap3\n      swap1\n      pop\n      jump\t// out\n        /* \"#utility.yul\":1321:1398   */\n    tag_533:\n        /* \"#utility.yul\":1358:1365   */\n      0x00\n        /* \"#utility.yul\":1387:1392   */\n      dup2\n        /* \"#utility.yul\":1376:1392   */\n      swap1\n      pop\n        /* \"#utility.yul\":1321:1398   */\n      swap2\n      swap1\n      pop\n      jump\t// out\n        /* \"#utility.yul\":1404:1522   */\n    tag_534:\n        /* \"#utility.yul\":1491:1515   */\n      tag_621\n        /* \"#utility.yul\":1509:1514   */\n      dup2\n        /* \"#utility.yul\":1491:1515   */\n      tag_533\n      jump\t// in\n    tag_621:\n        /* \"#utility.yul\":1486:1489   */\n      dup3\n        /* \"#utility.yul\":1479:1516   */\n      mstore\n        /* \"#utility.yul\":1404:1522   */\n      pop\n      pop\n      jump\t// out\n        /* \"#utility.yul\":1528:1750   */\n    tag_49:\n        /* \"#utility.yul\":1621:1625   */\n      0x00\n        /* \"#utility.yul\":1659:1661   */\n      0x20\n        /* \"#utility.yul\":1648:1657   */\n      dup3\n        /* \"#utility.yul\":1644:1662   */\n      add\n        /* \"#utility.yul\":1636:1662   */\n      swap1\n      pop\n        /* \"#utility.yul\":1672:1743   */\n      tag_623\n        /* \"#utility.yul\":1740:1741   */\n      0x00\n        /* \"#utility.yul\":1729:1738   */\n      dup4\n        /* \"#utility.yul\":1725:1742   */\n      add\n        /* \"#utility.yul\":1716:1722   */\n      dup5\n        /* \"#utility.yul\":1672:1743   */\n      tag_534\n      jump\t// in\n    tag_623:\n        /* \"#utility.yul\":1528:1750   */\n      swap3\n      swap2\n      pop\n      pop\n      jump\t// out\n        /* \"#utility.yul\":1756:1878   */\n    tag_535:\n        /* \"#utility.yul\":1829:1853   */\n      tag_625\n        /* \"#utility.yul\":1847:1852   */\n      dup2\n        /* \"#utility.yul\":1829:1853   */\n      tag_533\n      jump\t// in\n    tag_625:\n        /* \"#utility.yul\":1822:1827   */\n      dup2\n        /* \"#utility.yul\":1819:1854   */\n      eq\n        /* \"#utility.yul\":1809:1872   */\n      tag_626\n      jumpi\n        /* \"#utility.yul\":1868:1869   */\n      0x00\n        /* \"#utility.yul\":1865:1866   */\n      dup1\n        /* \"#utility.yul\":1858:1870   */\n      revert\n        /* \"#utility.yul\":1809:1872   */\n    tag_626:\n        /* \"#utility.yul\":1756:1878   */\n      pop\n      jump\t// out\n        /* \"#utility.yul\":1884:2023   */\n    tag_536:\n        /* \"#utility.yul\":1930:1935   */\n      0x00\n        /* \"#utility.yul\":1968:1974   */\n      dup2\n        /* \"#utility.yul\":1955:1975   */\n      calldataload\n        /* \"#utility.yul\":1946:1975   */\n      swap1\n      pop\n        /* \"#utility.yul\":1984:2017   */\n      tag_628\n        /* \"#utility.yul\":2011:2016   */\n      dup2\n        /* \"#utility.yul\":1984:2017   */\n      tag_535\n      jump\t// in\n    tag_628:\n        /* \"#utility.yul\":1884:2023   */\n      swap3\n      swap2\n      pop\n      pop\n      jump\t// out\n        /* \"#utility.yul\":2029:2358   */\n    tag_53:\n        /* \"#utility.yul\":2088:2094   */\n      0x00\n        /* \"#utility.yul\":2137:2139   */\n      0x20\n        /* \"#utility.yul\":2125:2134   */\n      dup3\n        /* \"#utility.yul\":2116:2123   */\n      dup5\n        /* \"#utility.yul\":2112:2135   */\n      sub\n        /* \"#utility.yul\":2108:2140   */\n      slt\n        /* \"#utility.yul\":2105:2224   */\n      iszero\n      tag_630\n      jumpi\n        /* \"#utility.yul\":2143:2222   */\n      tag_631\n      tag_527\n      jump\t// in\n    tag_631:\n        /* \"#utility.yul\":2105:2224   */\n    tag_630:\n        /* \"#utility.yul\":2263:2264   */\n      0x00\n        /* \"#utility.yul\":2288:2341   */\n      tag_632\n        /* \"#utility.yul\":2333:2340   */\n      dup5\n        /* \"#utility.yul\":2324:2330   */\n      dup3\n        /* \"#utility.yul\":2313:2322   */\n      dup6\n        /* \"#utility.yul\":2309:2331   */\n      add\n        /* \"#utility.yul\":2288:2341   */\n      tag_536\n      jump\t// in\n    tag_632:\n        /* \"#utility.yul\":2278:2341   */\n      swap2\n      pop\n        /* \"#utility.yul\":2234:2351   */\n      pop\n        /* \"#utility.yul\":2029:2358   */\n      swap3\n      swap2\n      pop\n      pop\n      jump\t// out\n        /* \"#utility.yul\":2364:2693   */\n    tag_58:\n        /* \"#utility.yul\":2423:2429   */\n      0x00\n        /* \"#utility.yul\":2472:2474   */\n      0x20\n        /* \"#utility.yul\":2460:2469   */\n      dup3\n        /* \"#utility.yul\":2451:2458   */\n      dup5\n        /* \"#utility.yul\":2447:2470   */\n      sub\n        /* \"#utility.yul\":2443:2475   */\n      slt\n        /* \"#utility.yul\":2440:2559   */\n      iszero\n      tag_634\n      jumpi\n        /* \"#utility.yul\":2478:2557   */\n      tag_635\n      tag_527\n      jump\t// in\n    tag_635:\n        /* \"#utility.yul\":2440:2559   */\n    tag_634:\n        /* \"#utility.yul\":2598:2599   */\n      0x00\n        /* \"#utility.yul\":2623:2676   */\n      tag_636\n        /* \"#utility.yul\":2668:2675   */\n      dup5\n        /* \"#utility.yul\":2659:2665   */\n      dup3\n        /* \"#utility.yul\":2648:2657   */\n      dup6\n        /* \"#utility.yul\":2644:2666   */\n      add\n        /* \"#utility.yul\":2623:2676   */\n      tag_532\n      jump\t// in\n    tag_636:\n        /* \"#utility.yul\":2613:2676   */\n      swap2\n      pop\n        /* \"#utility.yul\":2569:2686   */\n      pop\n        /* \"#utility.yul\":2364:2693   */\n      swap3\n      swap2\n      pop\n      pop\n      jump\t// out\n        /* \"#utility.yul\":2699:2789   */\n    tag_537:\n        /* \"#utility.yul\":2733:2740   */\n      0x00\n        /* \"#utility.yul\":2776:2781   */\n      dup2\n        /* \"#utility.yul\":2769:2782   */\n      iszero\n        /* \"#utility.yul\":2762:2783   */\n      iszero\n        /* \"#utility.yul\":2751:2783   */\n      swap1\n      pop\n        /* \"#utility.yul\":2699:2789   */\n      swap2\n      swap1\n      pop\n      jump\t// out\n        /* \"#utility.yul\":2795:2904   */\n    tag_538:\n        /* \"#utility.yul\":2876:2897   */\n      tag_639\n        /* \"#utility.yul\":2891:2896   */\n      dup2\n        /* \"#utility.yul\":2876:2897   */\n      tag_537\n      jump\t// in\n    tag_639:\n        /* \"#utility.yul\":2871:2874   */\n      dup3\n        /* \"#utility.yul\":2864:2898   */\n      mstore\n        /* \"#utility.yul\":2795:2904   */\n      pop\n      pop\n      jump\t// out\n        /* \"#utility.yul\":2910:3120   */\n    tag_98:\n        /* \"#utility.yul\":2997:3001   */\n      0x00\n        /* \"#utility.yul\":3035:3037   */\n      0x20\n        /* \"#utility.yul\":3024:3033   */\n      dup3\n        /* \"#utility.yul\":3020:3038   */\n      add\n        /* \"#utility.yul\":3012:3038   */\n      swap1\n      pop\n        /* \"#utility.yul\":3048:3113   */\n      tag_641\n        /* \"#utility.yul\":3110:3111   */\n      0x00\n        /* \"#utility.yul\":3099:3108   */\n      dup4\n        /* \"#utility.yul\":3095:3112   */\n      add\n        /* \"#utility.yul\":3086:3092   */\n      dup5\n        /* \"#utility.yul\":3048:3113   */\n      tag_538\n      jump\t// in\n    tag_641:\n        /* \"#utility.yul\":2910:3120   */\n      swap3\n      swap2\n      pop\n      pop\n      jump\t// out\n        /* \"#utility.yul\":3126:3745   */\n    tag_102:\n        /* \"#utility.yul\":3203:3209   */\n      0x00\n        /* \"#utility.yul\":3211:3217   */\n      dup1\n        /* \"#utility.yul\":3219:3225   */\n      0x00\n        /* \"#utility.yul\":3268:3270   */\n      0x60\n        /* \"#utility.yul\":3256:3265   */\n      dup5\n        /* \"#utility.yul\":3247:3254   */\n      dup7\n        /* \"#utility.yul\":3243:3266   */\n      sub\n        /* \"#utility.yul\":3239:3271   */\n      slt\n        /* \"#utility.yul\":3236:3355   */\n      iszero\n      tag_643\n      jumpi\n        /* \"#utility.yul\":3274:3353   */\n      tag_644\n      tag_527\n      jump\t// in\n    tag_644:\n        /* \"#utility.yul\":3236:3355   */\n    tag_643:\n        /* \"#utility.yul\":3394:3395   */\n      0x00\n        /* \"#utility.yul\":3419:3472   */\n      tag_645\n        /* \"#utility.yul\":3464:3471   */\n      dup7\n        /* \"#utility.yul\":3455:3461   */\n      dup3\n        /* \"#utility.yul\":3444:3453   */\n      dup8\n        /* \"#utility.yul\":3440:3462   */\n      add\n        /* \"#utility.yul\":3419:3472   */\n      tag_536\n      jump\t// in\n    tag_645:\n        /* \"#utility.yul\":3409:3472   */\n      swap4\n      pop\n        /* \"#utility.yul\":3365:3482   */\n      pop\n        /* \"#utility.yul\":3521:3523   */\n      0x20\n        /* \"#utility.yul\":3547:3600   */\n      tag_646\n        /* \"#utility.yul\":3592:3599   */\n      dup7\n        /* \"#utility.yul\":3583:3589   */\n      dup3\n        /* \"#utility.yul\":3572:3581   */\n      dup8\n        /* \"#utility.yul\":3568:3590   */\n      add\n        /* \"#utility.yul\":3547:3600   */\n      tag_532\n      jump\t// in\n    tag_646:\n        /* \"#utility.yul\":3537:3600   */\n      swap3\n      pop\n        /* \"#utility.yul\":3492:3610   */\n      pop\n        /* \"#utility.yul\":3649:3651   */\n      0x40\n        /* \"#utility.yul\":3675:3728   */\n      tag_647\n        /* \"#utility.yul\":3720:3727   */\n      dup7\n        /* \"#utility.yul\":3711:3717   */\n      dup3\n        /* \"#utility.yul\":3700:3709   */\n      dup8\n        /* \"#utility.yul\":3696:3718   */\n      add\n        /* \"#utility.yul\":3675:3728   */\n      tag_536\n      jump\t// in\n    tag_647:\n        /* \"#utility.yul\":3665:3728   */\n      swap2\n      pop\n        /* \"#utility.yul\":3620:3738   */\n      pop\n        /* \"#utility.yul\":3126:3745   */\n      swap3\n      pop\n      swap3\n      pop\n      swap3\n      jump\t// out\n        /* \"#utility.yul\":3751:3869   */\n    tag_539:\n        /* \"#utility.yul\":3838:3862   */\n      tag_649\n        /* \"#utility.yul\":3856:3861   */\n      dup2\n        /* \"#utility.yul\":3838:3862   */\n      tag_530\n      jump\t// in\n    tag_649:\n        /* \"#utility.yul\":3833:3836   */\n      dup3\n        /* \"#utility.yul\":3826:3863   */\n      mstore\n        /* \"#utility.yul\":3751:3869   */\n      pop\n      pop\n      jump\t// out\n        /* \"#utility.yul\":3875:4097   */\n    tag_115:\n        /* \"#utility.yul\":3968:3972   */\n      0x00\n        /* \"#utility.yul\":4006:4008   */\n      0x20\n        /* \"#utility.yul\":3995:4004   */\n      dup3\n        /* \"#utility.yul\":3991:4009   */\n      add\n        /* \"#utility.yul\":3983:4009   */\n      swap1\n      pop\n        /* \"#utility.yul\":4019:4090   */\n      tag_651\n        /* \"#utility.yul\":4087:4088   */\n      0x00\n        /* \"#utility.yul\":4076:4085   */\n      dup4\n        /* \"#utility.yul\":4072:4089   */\n      add\n        /* \"#utility.yul\":4063:4069   */\n      dup5\n        /* \"#utility.yul\":4019:4090   */\n      tag_539\n      jump\t// in\n    tag_651:\n        /* \"#utility.yul\":3875:4097   */\n      swap3\n      swap2\n      pop\n      pop\n      jump\t// out\n        /* \"#utility.yul\":4103:4722   */\n    tag_142:\n        /* \"#utility.yul\":4180:4186   */\n      0x00\n        /* \"#utility.yul\":4188:4194   */\n      dup1\n        /* \"#utility.yul\":4196:4202   */\n      0x00\n        /* \"#utility.yul\":4245:4247   */\n      0x60\n        /* \"#utility.yul\":4233:4242   */\n      dup5\n        /* \"#utility.yul\":4224:4231   */\n      dup7\n        /* \"#utility.yul\":4220:4243   */\n      sub\n        /* \"#utility.yul\":4216:4248   */\n      slt\n        /* \"#utility.yul\":4213:4332   */\n      iszero\n      tag_653\n      jumpi\n        /* \"#utility.yul\":4251:4330   */\n      tag_654\n      tag_527\n      jump\t// in\n    tag_654:\n        /* \"#utility.yul\":4213:4332   */\n    tag_653:\n        /* \"#utility.yul\":4371:4372   */\n      0x00\n        /* \"#utility.yul\":4396:4449   */\n      tag_655\n        /* \"#utility.yul\":4441:4448   */\n      dup7\n        /* \"#utility.yul\":4432:4438   */\n      dup3\n        /* \"#utility.yul\":4421:4430   */\n      dup8\n        /* \"#utility.yul\":4417:4439   */\n      add\n        /* \"#utility.yul\":4396:4449   */\n      tag_536\n      jump\t// in\n    tag_655:\n        /* \"#utility.yul\":4386:4449   */\n      swap4\n      pop\n        /* \"#utility.yul\":4342:4459   */\n      pop\n        /* \"#utility.yul\":4498:4500   */\n      0x20\n        /* \"#utility.yul\":4524:4577   */\n      tag_656\n        /* \"#utility.yul\":4569:4576   */\n      dup7\n        /* \"#utility.yul\":4560:4566   */\n      dup3\n        /* \"#utility.yul\":4549:4558   */\n      dup8\n        /* \"#utility.yul\":4545:4567   */\n      add\n        /* \"#utility.yul\":4524:4577   */\n      tag_536\n      jump\t// in\n    tag_656:\n        /* \"#utility.yul\":4514:4577   */\n      swap3\n      pop\n        /* \"#utility.yul\":4469:4587   */\n      pop\n        /* \"#utility.yul\":4626:4628   */\n      0x40\n        /* \"#utility.yul\":4652:4705   */\n      tag_657\n        /* \"#utility.yul\":4697:4704   */\n      dup7\n        /* \"#utility.yul\":4688:4694   */\n      dup3\n        /* \"#utility.yul\":4677:4686   */\n      dup8\n        /* \"#utility.yul\":4673:4695   */\n      add\n        /* \"#utility.yul\":4652:4705   */\n      tag_532\n      jump\t// in\n    tag_657:\n        /* \"#utility.yul\":4642:4705   */\n      swap2\n      pop\n        /* \"#utility.yul\":4597:4715   */\n      pop\n        /* \"#utility.yul\":4103:4722   */\n      swap3\n      pop\n      swap3\n      pop\n      swap3\n      jump\t// out\n        /* \"#utility.yul\":4728:5380   */\n    tag_169:\n        /* \"#utility.yul\":4927:4931   */\n      0x00\n        /* \"#utility.yul\":4965:4968   */\n      0xa0\n        /* \"#utility.yul\":4954:4963   */\n      dup3\n        /* \"#utility.yul\":4950:4969   */\n      add\n        /* \"#utility.yul\":4942:4969   */\n      swap1\n      pop\n        /* \"#utility.yul\":4979:5050   */\n      tag_659\n        /* \"#utility.yul\":5047:5048   */\n      0x00\n        /* \"#utility.yul\":5036:5045   */\n      dup4\n        /* \"#utility.yul\":5032:5049   */\n      add\n        /* \"#utility.yul\":5023:5029   */\n      dup9\n        /* \"#utility.yul\":4979:5050   */\n      tag_539\n      jump\t// in\n    tag_659:\n        /* \"#utility.yul\":5060:5132   */\n      tag_660\n        /* \"#utility.yul\":5128:5130   */\n      0x20\n        /* \"#utility.yul\":5117:5126   */\n      dup4\n        /* \"#utility.yul\":5113:5131   */\n      add\n        /* \"#utility.yul\":5104:5110   */\n      dup8\n        /* \"#utility.yul\":5060:5132   */\n      tag_534\n      jump\t// in\n    tag_660:\n        /* \"#utility.yul\":5142:5214   */\n      tag_661\n        /* \"#utility.yul\":5210:5212   */\n      0x40\n        /* \"#utility.yul\":5199:5208   */\n      dup4\n        /* \"#utility.yul\":5195:5213   */\n      add\n        /* \"#utility.yul\":5186:5192   */\n      dup7\n        /* \"#utility.yul\":5142:5214   */\n      tag_539\n      jump\t// in\n    tag_661:\n        /* \"#utility.yul\":5224:5296   */\n      tag_662\n        /* \"#utility.yul\":5292:5294   */\n      0x60\n        /* \"#utility.yul\":5281:5290   */\n      dup4\n        /* \"#utility.yul\":5277:5295   */\n      add\n        /* \"#utility.yul\":5268:5274   */\n      dup6\n        /* \"#utility.yul\":5224:5296   */\n      tag_534\n      jump\t// in\n    tag_662:\n        /* \"#utility.yul\":5306:5373   */\n      tag_663\n        /* \"#utility.yul\":5368:5371   */\n      0x80\n        /* \"#utility.yul\":5357:5366   */\n      dup4\n        /* \"#utility.yul\":5353:5372   */\n      add\n        /* \"#utility.yul\":5344:5350   */\n      dup5\n        /* \"#utility.yul\":5306:5373   */\n      tag_538\n      jump\t// in\n    tag_663:\n        /* \"#utility.yul\":4728:5380   */\n      swap7\n      swap6\n      pop\n      pop\n      pop\n      pop\n      pop\n      pop\n      jump\t// out\n        /* \"#utility.yul\":5386:5718   */\n    tag_187:\n        /* \"#utility.yul\":5507:5511   */\n      0x00\n        /* \"#utility.yul\":5545:5547   */\n      0x40\n        /* \"#utility.yul\":5534:5543   */\n      dup3\n        /* \"#utility.yul\":5530:5548   */\n      add\n        /* \"#utility.yul\":5522:5548   */\n      swap1\n      pop\n        /* \"#utility.yul\":5558:5629   */\n      tag_665\n        /* \"#utility.yul\":5626:5627   */\n      0x00\n        /* \"#utility.yul\":5615:5624   */\n      dup4\n        /* \"#utility.yul\":5611:5628   */\n      add\n        /* \"#utility.yul\":5602:5608   */\n      dup6\n        /* \"#utility.yul\":5558:5629   */\n      tag_539\n      jump\t// in\n    tag_665:\n        /* \"#utility.yul\":5639:5711   */\n      tag_666\n        /* \"#utility.yul\":5707:5709   */\n      0x20\n        /* \"#utility.yul\":5696:5705   */\n      dup4\n        /* \"#utility.yul\":5692:5710   */\n      add\n        /* \"#utility.yul\":5683:5689   */\n      dup5\n        /* \"#utility.yul\":5639:5711   */\n      tag_534\n      jump\t// in\n    tag_666:\n        /* \"#utility.yul\":5386:5718   */\n      swap4\n      swap3\n      pop\n      pop\n      pop\n      jump\t// out\n        /* \"#utility.yul\":5724:5893   */\n    tag_540:\n        /* \"#utility.yul\":5808:5819   */\n      0x00\n        /* \"#utility.yul\":5842:5848   */\n      dup3\n        /* \"#utility.yul\":5837:5840   */\n      dup3\n        /* \"#utility.yul\":5830:5849   */\n      mstore\n        /* \"#utility.yul\":5882:5886   */\n      0x20\n        /* \"#utility.yul\":5877:5880   */\n      dup3\n        /* \"#utility.yul\":5873:5887   */\n      add\n        /* \"#utility.yul\":5858:5887   */\n      swap1\n      pop\n        /* \"#utility.yul\":5724:5893   */\n      swap3\n      swap2\n      pop\n      pop\n      jump\t// out\n        /* \"#utility.yul\":5899:6071   */\n    tag_541:\n        /* \"#utility.yul\":6039:6063   */\n      0x4e6f74207468652063757272656e742062696464657200000000000000000000\n        /* \"#utility.yul\":6035:6036   */\n      0x00\n        /* \"#utility.yul\":6027:6033   */\n      dup3\n        /* \"#utility.yul\":6023:6037   */\n      add\n        /* \"#utility.yul\":6016:6064   */\n      mstore\n        /* \"#utility.yul\":5899:6071   */\n      pop\n      jump\t// out\n        /* \"#utility.yul\":6077:6443   */\n    tag_542:\n        /* \"#utility.yul\":6219:6222   */\n      0x00\n        /* \"#utility.yul\":6240:6307   */\n      tag_670\n        /* \"#utility.yul\":6304:6306   */\n      0x16\n        /* \"#utility.yul\":6299:6302   */\n      dup4\n        /* \"#utility.yul\":6240:6307   */\n      tag_540\n      jump\t// in\n    tag_670:\n        /* \"#utility.yul\":6233:6307   */\n      swap2\n      pop\n        /* \"#utility.yul\":6316:6409   */\n      tag_671\n        /* \"#utility.yul\":6405:6408   */\n      dup3\n        /* \"#utility.yul\":6316:6409   */\n      tag_541\n      jump\t// in\n    tag_671:\n        /* \"#utility.yul\":6434:6436   */\n      0x20\n        /* \"#utility.yul\":6429:6432   */\n      dup3\n        /* \"#utility.yul\":6425:6437   */\n      add\n        /* \"#utility.yul\":6418:6437   */\n      swap1\n      pop\n        /* \"#utility.yul\":6077:6443   */\n      swap2\n      swap1\n      pop\n      jump\t// out\n        /* \"#utility.yul\":6449:6868   */\n    tag_197:\n        /* \"#utility.yul\":6615:6619   */\n      0x00\n        /* \"#utility.yul\":6653:6655   */\n      0x20\n        /* \"#utility.yul\":6642:6651   */\n      dup3\n        /* \"#utility.yul\":6638:6656   */\n      add\n        /* \"#utility.yul\":6630:6656   */\n      swap1\n      pop\n        /* \"#utility.yul\":6702:6711   */\n      dup2\n        /* \"#utility.yul\":6696:6700   */\n      dup2\n        /* \"#utility.yul\":6692:6712   */\n      sub\n        /* \"#utility.yul\":6688:6689   */\n      0x00\n        /* \"#utility.yul\":6677:6686   */\n      dup4\n        /* \"#utility.yul\":6673:6690   */\n      add\n        /* \"#utility.yul\":6666:6713   */\n      mstore\n        /* \"#utility.yul\":6730:6861   */\n      tag_673\n        /* \"#utility.yul\":6856:6860   */\n      dup2\n        /* \"#utility.yul\":6730:6861   */\n      tag_542\n      jump\t// in\n    tag_673:\n        /* \"#utility.yul\":6722:6861   */\n      swap1\n      pop\n        /* \"#utility.yul\":6449:6868   */\n      swap2\n      swap1\n      pop\n      jump\t// out\n        /* \"#utility.yul\":6874:7039   */\n    tag_543:\n        /* \"#utility.yul\":7014:7031   */\n      0x496e76616c696420616464726573730000000000000000000000000000000000\n        /* \"#utility.yul\":7010:7011   */\n      0x00\n        /* \"#utility.yul\":7002:7008   */\n      dup3\n        /* \"#utility.yul\":6998:7012   */\n      add\n        /* \"#utility.yul\":6991:7032   */\n      mstore\n        /* \"#utility.yul\":6874:7039   */\n      pop\n      jump\t// out\n        /* \"#utility.yul\":7045:7411   */\n    tag_544:\n        /* \"#utility.yul\":7187:7190   */\n      0x00\n        /* \"#utility.yul\":7208:7275   */\n      tag_676\n        /* \"#utility.yul\":7272:7274   */\n      0x0f\n        /* \"#utility.yul\":7267:7270   */\n      dup4\n        /* \"#utility.yul\":7208:7275   */\n      tag_540\n      jump\t// in\n    tag_676:\n        /* \"#utility.yul\":7201:7275   */\n      swap2\n      pop\n        /* \"#utility.yul\":7284:7377   */\n      tag_677\n        /* \"#utility.yul\":7373:7376   */\n      dup3\n        /* \"#utility.yul\":7284:7377   */\n      tag_543\n      jump\t// in\n    tag_677:\n        /* \"#utility.yul\":7402:7404   */\n      0x20\n        /* \"#utility.yul\":7397:7400   */\n      dup3\n        /* \"#utility.yul\":7393:7405   */\n      add\n        /* \"#utility.yul\":7386:7405   */\n      swap1\n      pop\n        /* \"#utility.yul\":7045:7411   */\n      swap2\n      swap1\n      pop\n      jump\t// out\n        /* \"#utility.yul\":7417:7836   */\n    tag_209:\n        /* \"#utility.yul\":7583:7587   */\n      0x00\n        /* \"#utility.yul\":7621:7623   */\n      0x20\n        /* \"#utility.yul\":7610:7619   */\n      dup3\n        /* \"#utility.yul\":7606:7624   */\n      add\n        /* \"#utility.yul\":7598:7624   */\n      swap1\n      pop\n        /* \"#utility.yul\":7670:7679   */\n      dup2\n        /* \"#utility.yul\":7664:7668   */\n      dup2\n        /* \"#utility.yul\":7660:7680   */\n      sub\n        /* \"#utility.yul\":7656:7657   */\n      0x00\n        /* \"#utility.yul\":7645:7654   */\n      dup4\n        /* \"#utility.yul\":7641:7658   */\n      add\n        /* \"#utility.yul\":7634:7681   */\n      mstore\n        /* \"#utility.yul\":7698:7829   */\n      tag_679\n        /* \"#utility.yul\":7824:7828   */\n      dup2\n        /* \"#utility.yul\":7698:7829   */\n      tag_544\n      jump\t// in\n    tag_679:\n        /* \"#utility.yul\":7690:7829   */\n      swap1\n      pop\n        /* \"#utility.yul\":7417:7836   */\n      swap2\n      swap1\n      pop\n      jump\t// out\n        /* \"#utility.yul\":7842:8174   */\n    tag_211:\n        /* \"#utility.yul\":7963:7967   */\n      0x00\n        /* \"#utility.yul\":8001:8003   */\n      0x40\n        /* \"#utility.yul\":7990:7999   */\n      dup3\n        /* \"#utility.yul\":7986:8004   */\n      add\n        /* \"#utility.yul\":7978:8004   */\n      swap1\n      pop\n        /* \"#utility.yul\":8014:8085   */\n      tag_681\n        /* \"#utility.yul\":8082:8083   */\n      0x00\n        /* \"#utility.yul\":8071:8080   */\n      dup4\n        /* \"#utility.yul\":8067:8084   */\n      add\n        /* \"#utility.yul\":8058:8064   */\n      dup6\n        /* \"#utility.yul\":8014:8085   */\n      tag_539\n      jump\t// in\n    tag_681:\n        /* \"#utility.yul\":8095:8167   */\n      tag_682\n        /* \"#utility.yul\":8163:8165   */\n      0x20\n        /* \"#utility.yul\":8152:8161   */\n      dup4\n        /* \"#utility.yul\":8148:8166   */\n      add\n        /* \"#utility.yul\":8139:8145   */\n      dup5\n        /* \"#utility.yul\":8095:8167   */\n      tag_539\n      jump\t// in\n    tag_682:\n        /* \"#utility.yul\":7842:8174   */\n      swap4\n      swap3\n      pop\n      pop\n      pop\n      jump\t// out\n        /* \"#utility.yul\":8180:8348   */\n    tag_545:\n        /* \"#utility.yul\":8320:8340   */\n      0x4c697374696e67206e6f74206163746976650000000000000000000000000000\n        /* \"#utility.yul\":8316:8317   */\n      0x00\n        /* \"#utility.yul\":8308:8314   */\n      dup3\n        /* \"#utility.yul\":8304:8318   */\n      add\n        /* \"#utility.yul\":8297:8341   */\n      mstore\n        /* \"#utility.yul\":8180:8348   */\n      pop\n      jump\t// out\n        /* \"#utility.yul\":8354:8720   */\n    tag_546:\n        /* \"#utility.yul\":8496:8499   */\n      0x00\n        /* \"#utility.yul\":8517:8584   */\n      tag_685\n        /* \"#utility.yul\":8581:8583   */\n      0x12\n        /* \"#utility.yul\":8576:8579   */\n      dup4\n        /* \"#utility.yul\":8517:8584   */\n      tag_540\n      jump\t// in\n    tag_685:\n        /* \"#utility.yul\":8510:8584   */\n      swap2\n      pop\n        /* \"#utility.yul\":8593:8686   */\n      tag_686\n        /* \"#utility.yul\":8682:8685   */\n      dup3\n        /* \"#utility.yul\":8593:8686   */\n      tag_545\n      jump\t// in\n    tag_686:\n        /* \"#utility.yul\":8711:8713   */\n      0x20\n        /* \"#utility.yul\":8706:8709   */\n      dup3\n        /* \"#utility.yul\":8702:8714   */\n      add\n        /* \"#utility.yul\":8695:8714   */\n      swap1\n      pop\n        /* \"#utility.yul\":8354:8720   */\n      swap2\n      swap1\n      pop\n      jump\t// out\n        /* \"#utility.yul\":8726:9145   */\n    tag_225:\n        /* \"#utility.yul\":8892:8896   */\n      0x00\n        /* \"#utility.yul\":8930:8932   */\n      0x20\n        /* \"#utility.yul\":8919:8928   */\n      dup3\n        /* \"#utility.yul\":8915:8933   */\n      add\n        /* \"#utility.yul\":8907:8933   */\n      swap1\n      pop\n        /* \"#utility.yul\":8979:8988   */\n      dup2\n        /* \"#utility.yul\":8973:8977   */\n      dup2\n        /* \"#utility.yul\":8969:8989   */\n      sub\n        /* \"#utility.yul\":8965:8966   */\n      0x00\n        /* \"#utility.yul\":8954:8963   */\n      dup4\n        /* \"#utility.yul\":8950:8967   */\n      add\n        /* \"#utility.yul\":8943:8990   */\n      mstore\n        /* \"#utility.yul\":9007:9138   */\n      tag_688\n        /* \"#utility.yul\":9133:9137   */\n      dup2\n        /* \"#utility.yul\":9007:9138   */\n      tag_546\n      jump\t// in\n    tag_688:\n        /* \"#utility.yul\":8999:9138   */\n      swap1\n      pop\n        /* \"#utility.yul\":8726:9145   */\n      swap2\n      swap1\n      pop\n      jump\t// out\n        /* \"#utility.yul\":9151:9327   */\n    tag_547:\n        /* \"#utility.yul\":9291:9319   */\n      0x4f6e6c792073656c6c65722063616e2061636365707420626964000000000000\n        /* \"#utility.yul\":9287:9288   */\n      0x00\n        /* \"#utility.yul\":9279:9285   */\n      dup3\n        /* \"#utility.yul\":9275:9289   */\n      add\n        /* \"#utility.yul\":9268:9320   */\n      mstore\n        /* \"#utility.yul\":9151:9327   */\n      pop\n      jump\t// out\n        /* \"#utility.yul\":9333:9699   */\n    tag_548:\n        /* \"#utility.yul\":9475:9478   */\n      0x00\n        /* \"#utility.yul\":9496:9563   */\n      tag_691\n        /* \"#utility.yul\":9560:9562   */\n      0x1a\n        /* \"#utility.yul\":9555:9558   */\n      dup4\n        /* \"#utility.yul\":9496:9563   */\n      tag_540\n      jump\t// in\n    tag_691:\n        /* \"#utility.yul\":9489:9563   */\n      swap2\n      pop\n        /* \"#utility.yul\":9572:9665   */\n      tag_692\n        /* \"#utility.yul\":9661:9664   */\n      dup3\n        /* \"#utility.yul\":9572:9665   */\n      tag_547\n      jump\t// in\n    tag_692:\n        /* \"#utility.yul\":9690:9692   */\n      0x20\n        /* \"#utility.yul\":9685:9688   */\n      dup3\n        /* \"#utility.yul\":9681:9693   */\n      add\n        /* \"#utility.yul\":9674:9693   */\n      swap1\n      pop\n        /* \"#utility.yul\":9333:9699   */\n      swap2\n      swap1\n      pop\n      jump\t// out\n        /* \"#utility.yul\":9705:10124   */\n    tag_229:\n        /* \"#utility.yul\":9871:9875   */\n      0x00\n        /* \"#utility.yul\":9909:9911   */\n      0x20\n        /* \"#utility.yul\":9898:9907   */\n      dup3\n        /* \"#utility.yul\":9894:9912   */\n      add\n        /* \"#utility.yul\":9886:9912   */\n      swap1\n      pop\n        /* \"#utility.yul\":9958:9967   */\n      dup2\n        /* \"#utility.yul\":9952:9956   */\n      dup2\n        /* \"#utility.yul\":9948:9968   */\n      sub\n        /* \"#utility.yul\":9944:9945   */\n      0x00\n        /* \"#utility.yul\":9933:9942   */\n      dup4\n        /* \"#utility.yul\":9929:9946   */\n      add\n        /* \"#utility.yul\":9922:9969   */\n      mstore\n        /* \"#utility.yul\":9986:10117   */\n      tag_694\n        /* \"#utility.yul\":10112:10116   */\n      dup2\n        /* \"#utility.yul\":9986:10117   */\n      tag_548\n      jump\t// in\n    tag_694:\n        /* \"#utility.yul\":9978:10117   */\n      swap1\n      pop\n        /* \"#utility.yul\":9705:10124   */\n      swap2\n      swap1\n      pop\n      jump\t// out\n        /* \"#utility.yul\":10130:10293   */\n    tag_549:\n        /* \"#utility.yul\":10270:10285   */\n      0x4e6f206163746976652062696400000000000000000000000000000000000000\n        /* \"#utility.yul\":10266:10267   */\n      0x00\n        /* \"#utility.yul\":10258:10264   */\n      dup3\n        /* \"#utility.yul\":10254:10268   */\n      add\n        /* \"#utility.yul\":10247:10286   */\n      mstore\n        /* \"#utility.yul\":10130:10293   */\n      pop\n      jump\t// out\n        /* \"#utility.yul\":10299:10665   */\n    tag_550:\n        /* \"#utility.yul\":10441:10444   */\n      0x00\n        /* \"#utility.yul\":10462:10529   */\n      tag_697\n        /* \"#utility.yul\":10526:10528   */\n      0x0d\n        /* \"#utility.yul\":10521:10524   */\n      dup4\n        /* \"#utility.yul\":10462:10529   */\n      tag_540\n      jump\t// in\n    tag_697:\n        /* \"#utility.yul\":10455:10529   */\n      swap2\n      pop\n        /* \"#utility.yul\":10538:10631   */\n      tag_698\n        /* \"#utility.yul\":10627:10630   */\n      dup3\n        /* \"#utility.yul\":10538:10631   */\n      tag_549\n      jump\t// in\n    tag_698:\n        /* \"#utility.yul\":10656:10658   */\n      0x20\n        /* \"#utility.yul\":10651:10654   */\n      dup3\n        /* \"#utility.yul\":10647:10659   */\n      add\n        /* \"#utility.yul\":10640:10659   */\n      swap1\n      pop\n        /* \"#utility.yul\":10299:10665   */\n      swap2\n      swap1\n      pop\n      jump\t// out\n        /* \"#utility.yul\":10671:11090   */\n    tag_232:\n        /* \"#utility.yul\":10837:10841   */\n      0x00\n        /* \"#utility.yul\":10875:10877   */\n      0x20\n        /* \"#utility.yul\":10864:10873   */\n      dup3\n        /* \"#utility.yul\":10860:10878   */\n      add\n        /* \"#utility.yul\":10852:10878   */\n      swap1\n      pop\n        /* \"#utility.yul\":10924:10933   */\n      dup2\n        /* \"#utility.yul\":10918:10922   */\n      dup2\n        /* \"#utility.yul\":10914:10934   */\n      sub\n        /* \"#utility.yul\":10910:10911   */\n      0x00\n        /* \"#utility.yul\":10899:10908   */\n      dup4\n        /* \"#utility.yul\":10895:10912   */\n      add\n        /* \"#utility.yul\":10888:10935   */\n      mstore\n        /* \"#utility.yul\":10952:11083   */\n      tag_700\n        /* \"#utility.yul\":11078:11082   */\n      dup2\n        /* \"#utility.yul\":10952:11083   */\n      tag_550\n      jump\t// in\n    tag_700:\n        /* \"#utility.yul\":10944:11083   */\n      swap1\n      pop\n        /* \"#utility.yul\":10671:11090   */\n      swap2\n      swap1\n      pop\n      jump\t// out\n        /* \"#utility.yul\":11096:11276   */\n    tag_551:\n        /* \"#utility.yul\":11144:11221   */\n      0x4e487b7100000000000000000000000000000000000000000000000000000000\n        /* \"#utility.yul\":11141:11142   */\n      0x00\n        /* \"#utility.yul\":11134:11222   */\n      mstore\n        /* \"#utility.yul\":11241:11245   */\n      0x11\n        /* \"#utility.yul\":11238:11239   */\n      0x04\n        /* \"#utility.yul\":11231:11246   */\n      mstore\n        /* \"#utility.yul\":11265:11269   */\n      0x24\n        /* \"#utility.yul\":11262:11263   */\n      0x00\n        /* \"#utility.yul\":11255:11270   */\n      revert\n        /* \"#utility.yul\":11282:11692   */\n    tag_234:\n        /* \"#utility.yul\":11322:11329   */\n      0x00\n        /* \"#utility.yul\":11345:11365   */\n      tag_703\n        /* \"#utility.yul\":11363:11364   */\n      dup3\n        /* \"#utility.yul\":11345:11365   */\n      tag_533\n      jump\t// in\n    tag_703:\n        /* \"#utility.yul\":11340:11365   */\n      swap2\n      pop\n        /* \"#utility.yul\":11379:11399   */\n      tag_704\n        /* \"#utility.yul\":11397:11398   */\n      dup4\n        /* \"#utility.yul\":11379:11399   */\n      tag_533\n      jump\t// in\n    tag_704:\n        /* \"#utility.yul\":11374:11399   */\n      swap3\n      pop\n        /* \"#utility.yul\":11434:11435   */\n      dup3\n        /* \"#utility.yul\":11431:11432   */\n      dup3\n        /* \"#utility.yul\":11427:11436   */\n      mul\n        /* \"#utility.yul\":11456:11486   */\n      tag_705\n        /* \"#utility.yul\":11474:11485   */\n      dup2\n        /* \"#utility.yul\":11456:11486   */\n      tag_533\n      jump\t// in\n    tag_705:\n        /* \"#utility.yul\":11445:11486   */\n      swap2\n      pop\n        /* \"#utility.yul\":11635:11636   */\n      dup3\n        /* \"#utility.yul\":11626:11633   */\n      dup3\n        /* \"#utility.yul\":11622:11637   */\n      div\n        /* \"#utility.yul\":11619:11620   */\n      dup5\n        /* \"#utility.yul\":11616:11638   */\n      eq\n        /* \"#utility.yul\":11596:11597   */\n      dup4\n        /* \"#utility.yul\":11589:11598   */\n      iszero\n        /* \"#utility.yul\":11569:11652   */\n      or\n        /* \"#utility.yul\":11546:11685   */\n      tag_706\n      jumpi\n        /* \"#utility.yul\":11665:11683   */\n      tag_707\n      tag_551\n      jump\t// in\n    tag_707:\n        /* \"#utility.yul\":11546:11685   */\n    tag_706:\n        /* \"#utility.yul\":11330:11692   */\n      pop\n        /* \"#utility.yul\":11282:11692   */\n      swap3\n      swap2\n      pop\n      pop\n      jump\t// out\n        /* \"#utility.yul\":11698:11878   */\n    tag_552:\n        /* \"#utility.yul\":11746:11823   */\n      0x4e487b7100000000000000000000000000000000000000000000000000000000\n        /* \"#utility.yul\":11743:11744   */\n      0x00\n        /* \"#utility.yul\":11736:11824   */\n      mstore\n        /* \"#utility.yul\":11843:11847   */\n      0x12\n        /* \"#utility.yul\":11840:11841   */\n      0x04\n        /* \"#utility.yul\":11833:11848   */\n      mstore\n        /* \"#utility.yul\":11867:11871   */\n      0x24\n        /* \"#utility.yul\":11864:11865   */\n      0x00\n        /* \"#utility.yul\":11857:11872   */\n      revert\n        /* \"#utility.yul\":11884:12069   */\n    tag_236:\n        /* \"#utility.yul\":11924:11925   */\n      0x00\n        /* \"#utility.yul\":11941:11961   */\n      tag_710\n        /* \"#utility.yul\":11959:11960   */\n      dup3\n        /* \"#utility.yul\":11941:11961   */\n      tag_533\n      jump\t// in\n    tag_710:\n        /* \"#utility.yul\":11936:11961   */\n      swap2\n      pop\n        /* \"#utility.yul\":11975:11995   */\n      tag_711\n        /* \"#utility.yul\":11993:11994   */\n      dup4\n        /* \"#utility.yul\":11975:11995   */\n      tag_533\n      jump\t// in\n    tag_711:\n        /* \"#utility.yul\":11970:11995   */\n      swap3\n      pop\n        /* \"#utility.yul\":12014:12015   */\n      dup3\n        /* \"#utility.yul\":12004:12039   */\n      tag_712\n      jumpi\n        /* \"#utility.yul\":12019:12037   */\n      tag_713\n      tag_552\n      jump\t// in\n    tag_713:\n        /* \"#utility.yul\":12004:12039   */\n    tag_712:\n        /* \"#utility.yul\":12061:12062   */\n      dup3\n        /* \"#utility.yul\":12058:12059   */\n      dup3\n        /* \"#utility.yul\":12054:12063   */\n      div\n        /* \"#utility.yul\":12049:12063   */\n      swap1\n      pop\n        /* \"#utility.yul\":11884:12069   */\n      swap3\n      swap2\n      pop\n      pop\n      jump\t// out\n        /* \"#utility.yul\":12075:12266   */\n    tag_238:\n        /* \"#utility.yul\":12115:12118   */\n      0x00\n        /* \"#utility.yul\":12134:12154   */\n      tag_715\n        /* \"#utility.yul\":12152:12153   */\n      dup3\n        /* \"#utility.yul\":12134:12154   */\n      tag_533\n      jump\t// in\n    tag_715:\n        /* \"#utility.yul\":12129:12154   */\n      swap2\n      pop\n        /* \"#utility.yul\":12168:12188   */\n      tag_716\n        /* \"#utility.yul\":12186:12187   */\n      dup4\n        /* \"#utility.yul\":12168:12188   */\n      tag_533\n      jump\t// in\n    tag_716:\n        /* \"#utility.yul\":12163:12188   */\n      swap3\n      pop\n        /* \"#utility.yul\":12211:12212   */\n      dup3\n        /* \"#utility.yul\":12208:12209   */\n      dup3\n        /* \"#utility.yul\":12204:12213   */\n      add\n        /* \"#utility.yul\":12197:12213   */\n      swap1\n      pop\n        /* \"#utility.yul\":12232:12235   */\n      dup1\n        /* \"#utility.yul\":12229:12230   */\n      dup3\n        /* \"#utility.yul\":12226:12236   */\n      gt\n        /* \"#utility.yul\":12223:12259   */\n      iszero\n      tag_717\n      jumpi\n        /* \"#utility.yul\":12239:12257   */\n      tag_718\n      tag_551\n      jump\t// in\n    tag_718:\n        /* \"#utility.yul\":12223:12259   */\n    tag_717:\n        /* \"#utility.yul\":12075:12266   */\n      swap3\n      swap2\n      pop\n      pop\n      jump\t// out\n        /* \"#utility.yul\":12272:12466   */\n    tag_240:\n        /* \"#utility.yul\":12312:12316   */\n      0x00\n        /* \"#utility.yul\":12332:12352   */\n      tag_720\n        /* \"#utility.yul\":12350:12351   */\n      dup3\n        /* \"#utility.yul\":12332:12352   */\n      tag_533\n      jump\t// in\n    tag_720:\n        /* \"#utility.yul\":12327:12352   */\n      swap2\n      pop\n        /* \"#utility.yul\":12366:12386   */\n      tag_721\n        /* \"#utility.yul\":12384:12385   */\n      dup4\n        /* \"#utility.yul\":12366:12386   */\n      tag_533\n      jump\t// in\n    tag_721:\n        /* \"#utility.yul\":12361:12386   */\n      swap3\n      pop\n        /* \"#utility.yul\":12410:12411   */\n      dup3\n        /* \"#utility.yul\":12407:12408   */\n      dup3\n        /* \"#utility.yul\":12403:12412   */\n      sub\n        /* \"#utility.yul\":12395:12412   */\n      swap1\n      pop\n        /* \"#utility.yul\":12434:12435   */\n      dup2\n        /* \"#utility.yul\":12428:12432   */\n      dup2\n        /* \"#utility.yul\":12425:12436   */\n      gt\n        /* \"#utility.yul\":12422:12459   */\n      iszero\n      tag_722\n      jumpi\n        /* \"#utility.yul\":12439:12457   */\n      tag_723\n      tag_551\n      jump\t// in\n    tag_723:\n        /* \"#utility.yul\":12422:12459   */\n    tag_722:\n        /* \"#utility.yul\":12272:12466   */\n      swap3\n      swap2\n      pop\n      pop\n      jump\t// out\n        /* \"#utility.yul\":12472:12619   */\n    tag_553:\n        /* \"#utility.yul\":12573:12584   */\n      0x00\n        /* \"#utility.yul\":12610:12613   */\n      dup2\n        /* \"#utility.yul\":12595:12613   */\n      swap1\n      pop\n        /* \"#utility.yul\":12472:12619   */\n      swap3\n      swap2\n      pop\n      pop\n      jump\t// out\n        /* \"#utility.yul\":12625:12739   */\n    tag_554:\n      pop\n      jump\t// out\n        /* \"#utility.yul\":12745:13143   */\n    tag_555:\n        /* \"#utility.yul\":12904:12907   */\n      0x00\n        /* \"#utility.yul\":12925:13008   */\n      tag_727\n        /* \"#utility.yul\":13006:13007   */\n      0x00\n        /* \"#utility.yul\":13001:13004   */\n      dup4\n        /* \"#utility.yul\":12925:13008   */\n      tag_553\n      jump\t// in\n    tag_727:\n        /* \"#utility.yul\":12918:13008   */\n      swap2\n      pop\n        /* \"#utility.yul\":13017:13110   */\n      tag_728\n        /* \"#utility.yul\":13106:13109   */\n      dup3\n        /* \"#utility.yul\":13017:13110   */\n      tag_554\n      jump\t// in\n    tag_728:\n        /* \"#utility.yul\":13135:13136   */\n      0x00\n        /* \"#utility.yul\":13130:13133   */\n      dup3\n        /* \"#utility.yul\":13126:13137   */\n      add\n        /* \"#utility.yul\":13119:13137   */\n      swap1\n      pop\n        /* \"#utility.yul\":12745:13143   */\n      swap2\n      swap1\n      pop\n      jump\t// out\n        /* \"#utility.yul\":13149:13528   */\n    tag_243:\n        /* \"#utility.yul\":13333:13336   */\n      0x00\n        /* \"#utility.yul\":13355:13502   */\n      tag_730\n        /* \"#utility.yul\":13498:13501   */\n      dup3\n        /* \"#utility.yul\":13355:13502   */\n      tag_555\n      jump\t// in\n    tag_730:\n        /* \"#utility.yul\":13348:13502   */\n      swap2\n      pop\n        /* \"#utility.yul\":13519:13522   */\n      dup2\n        /* \"#utility.yul\":13512:13522   */\n      swap1\n      pop\n        /* \"#utility.yul\":13149:13528   */\n      swap2\n      swap1\n      pop\n      jump\t// out\n        /* \"#utility.yul\":13534:13713   */\n    tag_556:\n        /* \"#utility.yul\":13674:13705   */\n      0x455448207472616e7366657220746f2073656c6c6572206661696c6564000000\n        /* \"#utility.yul\":13670:13671   */\n      0x00\n        /* \"#utility.yul\":13662:13668   */\n      dup3\n        /* \"#utility.yul\":13658:13672   */\n      add\n        /* \"#utility.yul\":13651:13706   */\n      mstore\n        /* \"#utility.yul\":13534:13713   */\n      pop\n      jump\t// out\n        /* \"#utility.yul\":13719:14085   */\n    tag_557:\n        /* \"#utility.yul\":13861:13864   */\n      0x00\n        /* \"#utility.yul\":13882:13949   */\n      tag_733\n        /* \"#utility.yul\":13946:13948   */\n      0x1d\n        /* \"#utility.yul\":13941:13944   */\n      dup4\n        /* \"#utility.yul\":13882:13949   */\n      tag_540\n      jump\t// in\n    tag_733:\n        /* \"#utility.yul\":13875:13949   */\n      swap2\n      pop\n        /* \"#utility.yul\":13958:14051   */\n      tag_734\n        /* \"#utility.yul\":14047:14050   */\n      dup3\n        /* \"#utility.yul\":13958:14051   */\n      tag_556\n      jump\t// in\n    tag_734:\n        /* \"#utility.yul\":14076:14078   */\n      0x20\n        /* \"#utility.yul\":14071:14074   */\n      dup3\n        /* \"#utility.yul\":14067:14079   */\n      add\n        /* \"#utility.yul\":14060:14079   */\n      swap1\n      pop\n        /* \"#utility.yul\":13719:14085   */\n      swap2\n      swap1\n      pop\n      jump\t// out\n        /* \"#utility.yul\":14091:14510   */\n    tag_249:\n        /* \"#utility.yul\":14257:14261   */\n      0x00\n        /* \"#utility.yul\":14295:14297   */\n      0x20\n        /* \"#utility.yul\":14284:14293   */\n      dup3\n        /* \"#utility.yul\":14280:14298   */\n      add\n        /* \"#utility.yul\":14272:14298   */\n      swap1\n      pop\n        /* \"#utility.yul\":14344:14353   */\n      dup2\n        /* \"#utility.yul\":14338:14342   */\n      dup2\n        /* \"#utility.yul\":14334:14354   */\n      sub\n        /* \"#utility.yul\":14330:14331   */\n      0x00\n        /* \"#utility.yul\":14319:14328   */\n      dup4\n        /* \"#utility.yul\":14315:14332   */\n      add\n        /* \"#utility.yul\":14308:14355   */\n      mstore\n        /* \"#utility.yul\":14372:14503   */\n      tag_736\n        /* \"#utility.yul\":14498:14502   */\n      dup2\n        /* \"#utility.yul\":14372:14503   */\n      tag_557\n      jump\t// in\n    tag_736:\n        /* \"#utility.yul\":14364:14503   */\n      swap1\n      pop\n        /* \"#utility.yul\":14091:14510   */\n      swap2\n      swap1\n      pop\n      jump\t// out\n        /* \"#utility.yul\":14516:14958   */\n    tag_255:\n        /* \"#utility.yul\":14665:14669   */\n      0x00\n        /* \"#utility.yul\":14703:14705   */\n      0x60\n        /* \"#utility.yul\":14692:14701   */\n      dup3\n        /* \"#utility.yul\":14688:14706   */\n      add\n        /* \"#utility.yul\":14680:14706   */\n      swap1\n      pop\n        /* \"#utility.yul\":14716:14787   */\n      tag_738\n        /* \"#utility.yul\":14784:14785   */\n      0x00\n        /* \"#utility.yul\":14773:14782   */\n      dup4\n        /* \"#utility.yul\":14769:14786   */\n      add\n        /* \"#utility.yul\":14760:14766   */\n      dup7\n        /* \"#utility.yul\":14716:14787   */\n      tag_539\n      jump\t// in\n    tag_738:\n        /* \"#utility.yul\":14797:14869   */\n      tag_739\n        /* \"#utility.yul\":14865:14867   */\n      0x20\n        /* \"#utility.yul\":14854:14863   */\n      dup4\n        /* \"#utility.yul\":14850:14868   */\n      add\n        /* \"#utility.yul\":14841:14847   */\n      dup6\n        /* \"#utility.yul\":14797:14869   */\n      tag_539\n      jump\t// in\n    tag_739:\n        /* \"#utility.yul\":14879:14951   */\n      tag_740\n        /* \"#utility.yul\":14947:14949   */\n      0x40\n        /* \"#utility.yul\":14936:14945   */\n      dup4\n        /* \"#utility.yul\":14932:14950   */\n      add\n        /* \"#utility.yul\":14923:14929   */\n      dup5\n        /* \"#utility.yul\":14879:14951   */\n      tag_534\n      jump\t// in\n    tag_740:\n        /* \"#utility.yul\":14516:14958   */\n      swap5\n      swap4\n      pop\n      pop\n      pop\n      pop\n      jump\t// out\n        /* \"#utility.yul\":14964:15296   */\n    tag_260:\n        /* \"#utility.yul\":15085:15089   */\n      0x00\n        /* \"#utility.yul\":15123:15125   */\n      0x40\n        /* \"#utility.yul\":15112:15121   */\n      dup3\n        /* \"#utility.yul\":15108:15126   */\n      add\n        /* \"#utility.yul\":15100:15126   */\n      swap1\n      pop\n        /* \"#utility.yul\":15136:15207   */\n      tag_742\n        /* \"#utility.yul\":15204:15205   */\n      0x00\n        /* \"#utility.yul\":15193:15202   */\n      dup4\n        /* \"#utility.yul\":15189:15206   */\n      add\n        /* \"#utility.yul\":15180:15186   */\n      dup6\n        /* \"#utility.yul\":15136:15207   */\n      tag_534\n      jump\t// in\n    tag_742:\n        /* \"#utility.yul\":15217:15289   */\n      tag_743\n        /* \"#utility.yul\":15285:15287   */\n      0x20\n        /* \"#utility.yul\":15274:15283   */\n      dup4\n        /* \"#utility.yul\":15270:15288   */\n      add\n        /* \"#utility.yul\":15261:15267   */\n      dup5\n        /* \"#utility.yul\":15217:15289   */\n      tag_534\n      jump\t// in\n    tag_743:\n        /* \"#utility.yul\":14964:15296   */\n      swap4\n      swap3\n      pop\n      pop\n      pop\n      jump\t// out\n        /* \"#utility.yul\":15302:15469   */\n    tag_558:\n        /* \"#utility.yul\":15442:15461   */\n      0x4e6f74206c697374696e67206f776e6572000000000000000000000000000000\n        /* \"#utility.yul\":15438:15439   */\n      0x00\n        /* \"#utility.yul\":15430:15436   */\n      dup3\n        /* \"#utility.yul\":15426:15440   */\n      add\n        /* \"#utility.yul\":15419:15462   */\n      mstore\n        /* \"#utility.yul\":15302:15469   */\n      pop\n      jump\t// out\n        /* \"#utility.yul\":15475:15841   */\n    tag_559:\n        /* \"#utility.yul\":15617:15620   */\n      0x00\n        /* \"#utility.yul\":15638:15705   */\n      tag_746\n        /* \"#utility.yul\":15702:15704   */\n      0x11\n        /* \"#utility.yul\":15697:15700   */\n      dup4\n        /* \"#utility.yul\":15638:15705   */\n      tag_540\n      jump\t// in\n    tag_746:\n        /* \"#utility.yul\":15631:15705   */\n      swap2\n      pop\n        /* \"#utility.yul\":15714:15807   */\n      tag_747\n        /* \"#utility.yul\":15803:15806   */\n      dup3\n        /* \"#utility.yul\":15714:15807   */\n      tag_558\n      jump\t// in\n    tag_747:\n        /* \"#utility.yul\":15832:15834   */\n      0x20\n        /* \"#utility.yul\":15827:15830   */\n      dup3\n        /* \"#utility.yul\":15823:15835   */\n      add\n        /* \"#utility.yul\":15816:15835   */\n      swap1\n      pop\n        /* \"#utility.yul\":15475:15841   */\n      swap2\n      swap1\n      pop\n      jump\t// out\n        /* \"#utility.yul\":15847:16266   */\n    tag_271:\n        /* \"#utility.yul\":16013:16017   */\n      0x00\n        /* \"#utility.yul\":16051:16053   */\n      0x20\n        /* \"#utility.yul\":16040:16049   */\n      dup3\n        /* \"#utility.yul\":16036:16054   */\n      add\n        /* \"#utility.yul\":16028:16054   */\n      swap1\n      pop\n        /* \"#utility.yul\":16100:16109   */\n      dup2\n        /* \"#utility.yul\":16094:16098   */\n      dup2\n        /* \"#utility.yul\":16090:16110   */\n      sub\n        /* \"#utility.yul\":16086:16087   */\n      0x00\n        /* \"#utility.yul\":16075:16084   */\n      dup4\n        /* \"#utility.yul\":16071:16088   */\n      add\n        /* \"#utility.yul\":16064:16111   */\n      mstore\n        /* \"#utility.yul\":16128:16259   */\n      tag_749\n        /* \"#utility.yul\":16254:16258   */\n      dup2\n        /* \"#utility.yul\":16128:16259   */\n      tag_559\n      jump\t// in\n    tag_749:\n        /* \"#utility.yul\":16120:16259   */\n      swap1\n      pop\n        /* \"#utility.yul\":15847:16266   */\n      swap2\n      swap1\n      pop\n      jump\t// out\n        /* \"#utility.yul\":16272:16604   */\n    tag_277:\n        /* \"#utility.yul\":16393:16397   */\n      0x00\n        /* \"#utility.yul\":16431:16433   */\n      0x40\n        /* \"#utility.yul\":16420:16429   */\n      dup3\n        /* \"#utility.yul\":16416:16434   */\n      add\n        /* \"#utility.yul\":16408:16434   */\n      swap1\n      pop\n        /* \"#utility.yul\":16444:16515   */\n      tag_751\n        /* \"#utility.yul\":16512:16513   */\n      0x00\n        /* \"#utility.yul\":16501:16510   */\n      dup4\n        /* \"#utility.yul\":16497:16514   */\n      add\n        /* \"#utility.yul\":16488:16494   */\n      dup6\n        /* \"#utility.yul\":16444:16515   */\n      tag_534\n      jump\t// in\n    tag_751:\n        /* \"#utility.yul\":16525:16597   */\n      tag_752\n        /* \"#utility.yul\":16593:16595   */\n      0x20\n        /* \"#utility.yul\":16582:16591   */\n      dup4\n        /* \"#utility.yul\":16578:16596   */\n      add\n        /* \"#utility.yul\":16569:16575   */\n      dup5\n        /* \"#utility.yul\":16525:16597   */\n      tag_539\n      jump\t// in\n    tag_752:\n        /* \"#utility.yul\":16272:16604   */\n      swap4\n      swap3\n      pop\n      pop\n      pop\n      jump\t// out\n        /* \"#utility.yul\":16610:16778   */\n    tag_560:\n        /* \"#utility.yul\":16750:16770   */\n      0x496e76616c696420666565207570646174650000000000000000000000000000\n        /* \"#utility.yul\":16746:16747   */\n      0x00\n        /* \"#utility.yul\":16738:16744   */\n      dup3\n        /* \"#utility.yul\":16734:16748   */\n      add\n        /* \"#utility.yul\":16727:16771   */\n      mstore\n        /* \"#utility.yul\":16610:16778   */\n      pop\n      jump\t// out\n        /* \"#utility.yul\":16784:17150   */\n    tag_561:\n        /* \"#utility.yul\":16926:16929   */\n      0x00\n        /* \"#utility.yul\":16947:17014   */\n      tag_755\n        /* \"#utility.yul\":17011:17013   */\n      0x12\n        /* \"#utility.yul\":17006:17009   */\n      dup4\n        /* \"#utility.yul\":16947:17014   */\n      tag_540\n      jump\t// in\n    tag_755:\n        /* \"#utility.yul\":16940:17014   */\n      swap2\n      pop\n        /* \"#utility.yul\":17023:17116   */\n      tag_756\n        /* \"#utility.yul\":17112:17115   */\n      dup3\n        /* \"#utility.yul\":17023:17116   */\n      tag_560\n      jump\t// in\n    tag_756:\n        /* \"#utility.yul\":17141:17143   */\n      0x20\n        /* \"#utility.yul\":17136:17139   */\n      dup3\n        /* \"#utility.yul\":17132:17144   */\n      add\n        /* \"#utility.yul\":17125:17144   */\n      swap1\n      pop\n        /* \"#utility.yul\":16784:17150   */\n      swap2\n      swap1\n      pop\n      jump\t// out\n        /* \"#utility.yul\":17156:17575   */\n    tag_286:\n        /* \"#utility.yul\":17322:17326   */\n      0x00\n        /* \"#utility.yul\":17360:17362   */\n      0x20\n        /* \"#utility.yul\":17349:17358   */\n      dup3\n        /* \"#utility.yul\":17345:17363   */\n      add\n        /* \"#utility.yul\":17337:17363   */\n      swap1\n      pop\n        /* \"#utility.yul\":17409:17418   */\n      dup2\n        /* \"#utility.yul\":17403:17407   */\n      dup2\n        /* \"#utility.yul\":17399:17419   */\n      sub\n        /* \"#utility.yul\":17395:17396   */\n      0x00\n        /* \"#utility.yul\":17384:17393   */\n      dup4\n        /* \"#utility.yul\":17380:17397   */\n      add\n        /* \"#utility.yul\":17373:17420   */\n      mstore\n        /* \"#utility.yul\":17437:17568   */\n      tag_758\n        /* \"#utility.yul\":17563:17567   */\n      dup2\n        /* \"#utility.yul\":17437:17568   */\n      tag_561\n      jump\t// in\n    tag_758:\n        /* \"#utility.yul\":17429:17568   */\n      swap1\n      pop\n        /* \"#utility.yul\":17156:17575   */\n      swap2\n      swap1\n      pop\n      jump\t// out\n        /* \"#utility.yul\":17581:17752   */\n    tag_562:\n        /* \"#utility.yul\":17721:17744   */\n      0x4665652065786365656473207468726573686f6c640000000000000000000000\n        /* \"#utility.yul\":17717:17718   */\n      0x00\n        /* \"#utility.yul\":17709:17715   */\n      dup3\n        /* \"#utility.yul\":17705:17719   */\n      add\n        /* \"#utility.yul\":17698:17745   */\n      mstore\n        /* \"#utility.yul\":17581:17752   */\n      pop\n      jump\t// out\n        /* \"#utility.yul\":17758:18124   */\n    tag_563:\n        /* \"#utility.yul\":17900:17903   */\n      0x00\n        /* \"#utility.yul\":17921:17988   */\n      tag_761\n        /* \"#utility.yul\":17985:17987   */\n      0x15\n        /* \"#utility.yul\":17980:17983   */\n      dup4\n        /* \"#utility.yul\":17921:17988   */\n      tag_540\n      jump\t// in\n    tag_761:\n        /* \"#utility.yul\":17914:17988   */\n      swap2\n      pop\n        /* \"#utility.yul\":17997:18090   */\n      tag_762\n        /* \"#utility.yul\":18086:18089   */\n      dup3\n        /* \"#utility.yul\":17997:18090   */\n      tag_562\n      jump\t// in\n    tag_762:\n        /* \"#utility.yul\":18115:18117   */\n      0x20\n        /* \"#utility.yul\":18110:18113   */\n      dup3\n        /* \"#utility.yul\":18106:18118   */\n      add\n        /* \"#utility.yul\":18099:18118   */\n      swap1\n      pop\n        /* \"#utility.yul\":17758:18124   */\n      swap2\n      swap1\n      pop\n      jump\t// out\n        /* \"#utility.yul\":18130:18549   */\n    tag_289:\n        /* \"#utility.yul\":18296:18300   */\n      0x00\n        /* \"#utility.yul\":18334:18336   */\n      0x20\n        /* \"#utility.yul\":18323:18332   */\n      dup3\n        /* \"#utility.yul\":18319:18337   */\n      add\n        /* \"#utility.yul\":18311:18337   */\n      swap1\n      pop\n        /* \"#utility.yul\":18383:18392   */\n      dup2\n        /* \"#utility.yul\":18377:18381   */\n      dup2\n        /* \"#utility.yul\":18373:18393   */\n      sub\n        /* \"#utility.yul\":18369:18370   */\n      0x00\n        /* \"#utility.yul\":18358:18367   */\n      dup4\n        /* \"#utility.yul\":18354:18371   */\n      add\n        /* \"#utility.yul\":18347:18394   */\n      mstore\n        /* \"#utility.yul\":18411:18542   */\n      tag_764\n        /* \"#utility.yul\":18537:18541   */\n      dup2\n        /* \"#utility.yul\":18411:18542   */\n      tag_563\n      jump\t// in\n    tag_764:\n        /* \"#utility.yul\":18403:18542   */\n      swap1\n      pop\n        /* \"#utility.yul\":18130:18549   */\n      swap2\n      swap1\n      pop\n      jump\t// out\n        /* \"#utility.yul\":18555:18725   */\n    tag_564:\n        /* \"#utility.yul\":18695:18717   */\n      0x4e6f20726566756e6461626c6520616d6f756e74000000000000000000000000\n        /* \"#utility.yul\":18691:18692   */\n      0x00\n        /* \"#utility.yul\":18683:18689   */\n      dup3\n        /* \"#utility.yul\":18679:18693   */\n      add\n        /* \"#utility.yul\":18672:18718   */\n      mstore\n        /* \"#utility.yul\":18555:18725   */\n      pop\n      jump\t// out\n        /* \"#utility.yul\":18731:19097   */\n    tag_565:\n        /* \"#utility.yul\":18873:18876   */\n      0x00\n        /* \"#utility.yul\":18894:18961   */\n      tag_767\n        /* \"#utility.yul\":18958:18960   */\n      0x14\n        /* \"#utility.yul\":18953:18956   */\n      dup4\n        /* \"#utility.yul\":18894:18961   */\n      tag_540\n      jump\t// in\n    tag_767:\n        /* \"#utility.yul\":18887:18961   */\n      swap2\n      pop\n        /* \"#utility.yul\":18970:19063   */\n      tag_768\n        /* \"#utility.yul\":19059:19062   */\n      dup3\n        /* \"#utility.yul\":18970:19063   */\n      tag_564\n      jump\t// in\n    tag_768:\n        /* \"#utility.yul\":19088:19090   */\n      0x20\n        /* \"#utility.yul\":19083:19086   */\n      dup3\n        /* \"#utility.yul\":19079:19091   */\n      add\n        /* \"#utility.yul\":19072:19091   */\n      swap1\n      pop\n        /* \"#utility.yul\":18731:19097   */\n      swap2\n      swap1\n      pop\n      jump\t// out\n        /* \"#utility.yul\":19103:19522   */\n    tag_307:\n        /* \"#utility.yul\":19269:19273   */\n      0x00\n        /* \"#utility.yul\":19307:19309   */\n      0x20\n        /* \"#utility.yul\":19296:19305   */\n      dup3\n        /* \"#utility.yul\":19292:19310   */\n      add\n        /* \"#utility.yul\":19284:19310   */\n      swap1\n      pop\n        /* \"#utility.yul\":19356:19365   */\n      dup2\n        /* \"#utility.yul\":19350:19354   */\n      dup2\n        /* \"#utility.yul\":19346:19366   */\n      sub\n        /* \"#utility.yul\":19342:19343   */\n      0x00\n        /* \"#utility.yul\":19331:19340   */\n      dup4\n        /* \"#utility.yul\":19327:19344   */\n      add\n        /* \"#utility.yul\":19320:19367   */\n      mstore\n        /* \"#utility.yul\":19384:19515   */\n      tag_770\n        /* \"#utility.yul\":19510:19514   */\n      dup2\n        /* \"#utility.yul\":19384:19515   */\n      tag_565\n      jump\t// in\n    tag_770:\n        /* \"#utility.yul\":19376:19515   */\n      swap1\n      pop\n        /* \"#utility.yul\":19103:19522   */\n      swap2\n      swap1\n      pop\n      jump\t// out\n        /* \"#utility.yul\":19528:19707   */\n    tag_566:\n        /* \"#utility.yul\":19668:19699   */\n      0x496e73756666696369656e7420636f6e74726163742062616c616e6365000000\n        /* \"#utility.yul\":19664:19665   */\n      0x00\n        /* \"#utility.yul\":19656:19662   */\n      dup3\n        /* \"#utility.yul\":19652:19666   */\n      add\n        /* \"#utility.yul\":19645:19700   */\n      mstore\n        /* \"#utility.yul\":19528:19707   */\n      pop\n      jump\t// out\n        /* \"#utility.yul\":19713:20079   */\n    tag_567:\n        /* \"#utility.yul\":19855:19858   */\n      0x00\n        /* \"#utility.yul\":19876:19943   */\n      tag_773\n        /* \"#utility.yul\":19940:19942   */\n      0x1d\n        /* \"#utility.yul\":19935:19938   */\n      dup4\n        /* \"#utility.yul\":19876:19943   */\n      tag_540\n      jump\t// in\n    tag_773:\n        /* \"#utility.yul\":19869:19943   */\n      swap2\n      pop\n        /* \"#utility.yul\":19952:20045   */\n      tag_774\n        /* \"#utility.yul\":20041:20044   */\n      dup3\n        /* \"#utility.yul\":19952:20045   */\n      tag_566\n      jump\t// in\n    tag_774:\n        /* \"#utility.yul\":20070:20072   */\n      0x20\n        /* \"#utility.yul\":20065:20068   */\n      dup3\n        /* \"#utility.yul\":20061:20073   */\n      add\n        /* \"#utility.yul\":20054:20073   */\n      swap1\n      pop\n        /* \"#utility.yul\":19713:20079   */\n      swap2\n      swap1\n      pop\n      jump\t// out\n        /* \"#utility.yul\":20085:20504   */\n    tag_310:\n        /* \"#utility.yul\":20251:20255   */\n      0x00\n        /* \"#utility.yul\":20289:20291   */\n      0x20\n        /* \"#utility.yul\":20278:20287   */\n      dup3\n        /* \"#utility.yul\":20274:20292   */\n      add\n        /* \"#utility.yul\":20266:20292   */\n      swap1\n      pop\n        /* \"#utility.yul\":20338:20347   */\n      dup2\n        /* \"#utility.yul\":20332:20336   */\n      dup2\n        /* \"#utility.yul\":20328:20348   */\n      sub\n        /* \"#utility.yul\":20324:20325   */\n      0x00\n        /* \"#utility.yul\":20313:20322   */\n      dup4\n        /* \"#utility.yul\":20309:20326   */\n      add\n        /* \"#utility.yul\":20302:20349   */\n      mstore\n        /* \"#utility.yul\":20366:20497   */\n      tag_776\n        /* \"#utility.yul\":20492:20496   */\n      dup2\n        /* \"#utility.yul\":20366:20497   */\n      tag_567\n      jump\t// in\n    tag_776:\n        /* \"#utility.yul\":20358:20497   */\n      swap1\n      pop\n        /* \"#utility.yul\":20085:20504   */\n      swap2\n      swap1\n      pop\n      jump\t// out\n        /* \"#utility.yul\":20510:20685   */\n    tag_568:\n        /* \"#utility.yul\":20650:20677   */\n      0x45544820726566756e642072657175657374206661696c656400000000000000\n        /* \"#utility.yul\":20646:20647   */\n      0x00\n        /* \"#utility.yul\":20638:20644   */\n      dup3\n        /* \"#utility.yul\":20634:20648   */\n      add\n        /* \"#utility.yul\":20627:20678   */\n      mstore\n        /* \"#utility.yul\":20510:20685   */\n      pop\n      jump\t// out\n        /* \"#utility.yul\":20691:21057   */\n    tag_569:\n        /* \"#utility.yul\":20833:20836   */\n      0x00\n        /* \"#utility.yul\":20854:20921   */\n      tag_779\n        /* \"#utility.yul\":20918:20920   */\n      0x19\n        /* \"#utility.yul\":20913:20916   */\n      dup4\n        /* \"#utility.yul\":20854:20921   */\n      tag_540\n      jump\t// in\n    tag_779:\n        /* \"#utility.yul\":20847:20921   */\n      swap2\n      pop\n        /* \"#utility.yul\":20930:21023   */\n      tag_780\n        /* \"#utility.yul\":21019:21022   */\n      dup3\n        /* \"#utility.yul\":20930:21023   */\n      tag_568\n      jump\t// in\n    tag_780:\n        /* \"#utility.yul\":21048:21050   */\n      0x20\n        /* \"#utility.yul\":21043:21046   */\n      dup3\n        /* \"#utility.yul\":21039:21051   */\n      add\n        /* \"#utility.yul\":21032:21051   */\n      swap1\n      pop\n        /* \"#utility.yul\":20691:21057   */\n      swap2\n      swap1\n      pop\n      jump\t// out\n        /* \"#utility.yul\":21063:21482   */\n    tag_317:\n        /* \"#utility.yul\":21229:21233   */\n      0x00\n        /* \"#utility.yul\":21267:21269   */\n      0x20\n        /* \"#utility.yul\":21256:21265   */\n      dup3\n        /* \"#utility.yul\":21252:21270   */\n      add\n        /* \"#utility.yul\":21244:21270   */\n      swap1\n      pop\n        /* \"#utility.yul\":21316:21325   */\n      dup2\n        /* \"#utility.yul\":21310:21314   */\n      dup2\n        /* \"#utility.yul\":21306:21326   */\n      sub\n        /* \"#utility.yul\":21302:21303   */\n      0x00\n        /* \"#utility.yul\":21291:21300   */\n      dup4\n        /* \"#utility.yul\":21287:21304   */\n      add\n        /* \"#utility.yul\":21280:21327   */\n      mstore\n        /* \"#utility.yul\":21344:21475   */\n      tag_782\n        /* \"#utility.yul\":21470:21474   */\n      dup2\n        /* \"#utility.yul\":21344:21475   */\n      tag_569\n      jump\t// in\n    tag_782:\n        /* \"#utility.yul\":21336:21475   */\n      swap1\n      pop\n        /* \"#utility.yul\":21063:21482   */\n      swap2\n      swap1\n      pop\n      jump\t// out\n        /* \"#utility.yul\":21488:21663   */\n    tag_570:\n        /* \"#utility.yul\":21628:21655   */\n      0x466565206d757374206265203e203020616e64203c2039303000000000000000\n        /* \"#utility.yul\":21624:21625   */\n      0x00\n        /* \"#utility.yul\":21616:21622   */\n      dup3\n        /* \"#utility.yul\":21612:21626   */\n      add\n        /* \"#utility.yul\":21605:21656   */\n      mstore\n        /* \"#utility.yul\":21488:21663   */\n      pop\n      jump\t// out\n        /* \"#utility.yul\":21669:22035   */\n    tag_571:\n        /* \"#utility.yul\":21811:21814   */\n      0x00\n        /* \"#utility.yul\":21832:21899   */\n      tag_785\n        /* \"#utility.yul\":21896:21898   */\n      0x19\n        /* \"#utility.yul\":21891:21894   */\n      dup4\n        /* \"#utility.yul\":21832:21899   */\n      tag_540\n      jump\t// in\n    tag_785:\n        /* \"#utility.yul\":21825:21899   */\n      swap2\n      pop\n        /* \"#utility.yul\":21908:22001   */\n      tag_786\n        /* \"#utility.yul\":21997:22000   */\n      dup3\n        /* \"#utility.yul\":21908:22001   */\n      tag_570\n      jump\t// in\n    tag_786:\n        /* \"#utility.yul\":22026:22028   */\n      0x20\n        /* \"#utility.yul\":22021:22024   */\n      dup3\n        /* \"#utility.yul\":22017:22029   */\n      add\n        /* \"#utility.yul\":22010:22029   */\n      swap1\n      pop\n        /* \"#utility.yul\":21669:22035   */\n      swap2\n      swap1\n      pop\n      jump\t// out\n        /* \"#utility.yul\":22041:22460   */\n    tag_328:\n        /* \"#utility.yul\":22207:22211   */\n      0x00\n        /* \"#utility.yul\":22245:22247   */\n      0x20\n        /* \"#utility.yul\":22234:22243   */\n      dup3\n        /* \"#utility.yul\":22230:22248   */\n      add\n        /* \"#utility.yul\":22222:22248   */\n      swap1\n      pop\n        /* \"#utility.yul\":22294:22303   */\n      dup2\n        /* \"#utility.yul\":22288:22292   */\n      dup2\n        /* \"#utility.yul\":22284:22304   */\n      sub\n        /* \"#utility.yul\":22280:22281   */\n      0x00\n        /* \"#utility.yul\":22269:22278   */\n      dup4\n        /* \"#utility.yul\":22265:22282   */\n      add\n        /* \"#utility.yul\":22258:22305   */\n      mstore\n        /* \"#utility.yul\":22322:22453   */\n      tag_788\n        /* \"#utility.yul\":22448:22452   */\n      dup2\n        /* \"#utility.yul\":22322:22453   */\n      tag_571\n      jump\t// in\n    tag_788:\n        /* \"#utility.yul\":22314:22453   */\n      swap1\n      pop\n        /* \"#utility.yul\":22041:22460   */\n      swap2\n      swap1\n      pop\n      jump\t// out\n        /* \"#utility.yul\":22466:22635   */\n    tag_572:\n        /* \"#utility.yul\":22606:22627   */\n      0x4e6f20726566756e6461626c6520746f6b656e00000000000000000000000000\n        /* \"#utility.yul\":22602:22603   */\n      0x00\n        /* \"#utility.yul\":22594:22600   */\n      dup3\n        /* \"#utility.yul\":22590:22604   */\n      add\n        /* \"#utility.yul\":22583:22628   */\n      mstore\n        /* \"#utility.yul\":22466:22635   */\n      pop\n      jump\t// out\n        /* \"#utility.yul\":22641:23007   */\n    tag_573:\n        /* \"#utility.yul\":22783:22786   */\n      0x00\n        /* \"#utility.yul\":22804:22871   */\n      tag_791\n        /* \"#utility.yul\":22868:22870   */\n      0x13\n        /* \"#utility.yul\":22863:22866   */\n      dup4\n        /* \"#utility.yul\":22804:22871   */\n      tag_540\n      jump\t// in\n    tag_791:\n        /* \"#utility.yul\":22797:22871   */\n      swap2\n      pop\n        /* \"#utility.yul\":22880:22973   */\n      tag_792\n        /* \"#utility.yul\":22969:22972   */\n      dup3\n        /* \"#utility.yul\":22880:22973   */\n      tag_572\n      jump\t// in\n    tag_792:\n        /* \"#utility.yul\":22998:23000   */\n      0x20\n        /* \"#utility.yul\":22993:22996   */\n      dup3\n        /* \"#utility.yul\":22989:23001   */\n      add\n        /* \"#utility.yul\":22982:23001   */\n      swap1\n      pop\n        /* \"#utility.yul\":22641:23007   */\n      swap2\n      swap1\n      pop\n      jump\t// out\n        /* \"#utility.yul\":23013:23432   */\n    tag_335:\n        /* \"#utility.yul\":23179:23183   */\n      0x00\n        /* \"#utility.yul\":23217:23219   */\n      0x20\n        /* \"#utility.yul\":23206:23215   */\n      dup3\n        /* \"#utility.yul\":23202:23220   */\n      add\n        /* \"#utility.yul\":23194:23220   */\n      swap1\n      pop\n        /* \"#utility.yul\":23266:23275   */\n      dup2\n        /* \"#utility.yul\":23260:23264   */\n      dup2\n        /* \"#utility.yul\":23256:23276   */\n      sub\n        /* \"#utility.yul\":23252:23253   */\n      0x00\n        /* \"#utility.yul\":23241:23250   */\n      dup4\n        /* \"#utility.yul\":23237:23254   */\n      add\n        /* \"#utility.yul\":23230:23277   */\n      mstore\n        /* \"#utility.yul\":23294:23425   */\n      tag_794\n        /* \"#utility.yul\":23420:23424   */\n      dup2\n        /* \"#utility.yul\":23294:23425   */\n      tag_573\n      jump\t// in\n    tag_794:\n        /* \"#utility.yul\":23286:23425   */\n      swap1\n      pop\n        /* \"#utility.yul\":23013:23432   */\n      swap2\n      swap1\n      pop\n      jump\t// out\n        /* \"#utility.yul\":23438:23581   */\n    tag_574:\n        /* \"#utility.yul\":23495:23500   */\n      0x00\n        /* \"#utility.yul\":23526:23532   */\n      dup2\n        /* \"#utility.yul\":23520:23533   */\n      mload\n        /* \"#utility.yul\":23511:23533   */\n      swap1\n      pop\n        /* \"#utility.yul\":23542:23575   */\n      tag_796\n        /* \"#utility.yul\":23569:23574   */\n      dup2\n        /* \"#utility.yul\":23542:23575   */\n      tag_535\n      jump\t// in\n    tag_796:\n        /* \"#utility.yul\":23438:23581   */\n      swap3\n      swap2\n      pop\n      pop\n      jump\t// out\n        /* \"#utility.yul\":23587:23938   */\n    tag_340:\n        /* \"#utility.yul\":23657:23663   */\n      0x00\n        /* \"#utility.yul\":23706:23708   */\n      0x20\n        /* \"#utility.yul\":23694:23703   */\n      dup3\n        /* \"#utility.yul\":23685:23692   */\n      dup5\n        /* \"#utility.yul\":23681:23704   */\n      sub\n        /* \"#utility.yul\":23677:23709   */\n      slt\n        /* \"#utility.yul\":23674:23793   */\n      iszero\n      tag_798\n      jumpi\n        /* \"#utility.yul\":23712:23791   */\n      tag_799\n      tag_527\n      jump\t// in\n    tag_799:\n        /* \"#utility.yul\":23674:23793   */\n    tag_798:\n        /* \"#utility.yul\":23832:23833   */\n      0x00\n        /* \"#utility.yul\":23857:23921   */\n      tag_800\n        /* \"#utility.yul\":23913:23920   */\n      dup5\n        /* \"#utility.yul\":23904:23910   */\n      dup3\n        /* \"#utility.yul\":23893:23902   */\n      dup6\n        /* \"#utility.yul\":23889:23911   */\n      add\n        /* \"#utility.yul\":23857:23921   */\n      tag_574\n      jump\t// in\n    tag_800:\n        /* \"#utility.yul\":23847:23921   */\n      swap2\n      pop\n        /* \"#utility.yul\":23803:23931   */\n      pop\n        /* \"#utility.yul\":23587:23938   */\n      swap3\n      swap2\n      pop\n      pop\n      jump\t// out\n        /* \"#utility.yul\":23944:24171   */\n    tag_575:\n        /* \"#utility.yul\":24084:24118   */\n      0x496e73756666696369656e74204d61726b6574706c616365277320746f6b656e\n        /* \"#utility.yul\":24080:24081   */\n      0x00\n        /* \"#utility.yul\":24072:24078   */\n      dup3\n        /* \"#utility.yul\":24068:24082   */\n      add\n        /* \"#utility.yul\":24061:24119   */\n      mstore\n        /* \"#utility.yul\":24153:24163   */\n      0x2062616c616e6365000000000000000000000000000000000000000000000000\n        /* \"#utility.yul\":24148:24150   */\n      0x20\n        /* \"#utility.yul\":24140:24146   */\n      dup3\n        /* \"#utility.yul\":24136:24151   */\n      add\n        /* \"#utility.yul\":24129:24164   */\n      mstore\n        /* \"#utility.yul\":23944:24171   */\n      pop\n      jump\t// out\n        /* \"#utility.yul\":24177:24543   */\n    tag_576:\n        /* \"#utility.yul\":24319:24322   */\n      0x00\n        /* \"#utility.yul\":24340:24407   */\n      tag_803\n        /* \"#utility.yul\":24404:24406   */\n      0x28\n        /* \"#utility.yul\":24399:24402   */\n      dup4\n        /* \"#utility.yul\":24340:24407   */\n      tag_540\n      jump\t// in\n    tag_803:\n        /* \"#utility.yul\":24333:24407   */\n      swap2\n      pop\n        /* \"#utility.yul\":24416:24509   */\n      tag_804\n        /* \"#utility.yul\":24505:24508   */\n      dup3\n        /* \"#utility.yul\":24416:24509   */\n      tag_575\n      jump\t// in\n    tag_804:\n        /* \"#utility.yul\":24534:24536   */\n      0x40\n        /* \"#utility.yul\":24529:24532   */\n      dup3\n        /* \"#utility.yul\":24525:24537   */\n      add\n        /* \"#utility.yul\":24518:24537   */\n      swap1\n      pop\n        /* \"#utility.yul\":24177:24543   */\n      swap2\n      swap1\n      pop\n      jump\t// out\n        /* \"#utility.yul\":24549:24968   */\n    tag_343:\n        /* \"#utility.yul\":24715:24719   */\n      0x00\n        /* \"#utility.yul\":24753:24755   */\n      0x20\n        /* \"#utility.yul\":24742:24751   */\n      dup3\n        /* \"#utility.yul\":24738:24756   */\n      add\n        /* \"#utility.yul\":24730:24756   */\n      swap1\n      pop\n        /* \"#utility.yul\":24802:24811   */\n      dup2\n        /* \"#utility.yul\":24796:24800   */\n      dup2\n        /* \"#utility.yul\":24792:24812   */\n      sub\n        /* \"#utility.yul\":24788:24789   */\n      0x00\n        /* \"#utility.yul\":24777:24786   */\n      dup4\n        /* \"#utility.yul\":24773:24790   */\n      add\n        /* \"#utility.yul\":24766:24813   */\n      mstore\n        /* \"#utility.yul\":24830:24961   */\n      tag_806\n        /* \"#utility.yul\":24956:24960   */\n      dup2\n        /* \"#utility.yul\":24830:24961   */\n      tag_576\n      jump\t// in\n    tag_806:\n        /* \"#utility.yul\":24822:24961   */\n      swap1\n      pop\n        /* \"#utility.yul\":24549:24968   */\n      swap2\n      swap1\n      pop\n      jump\t// out\n        /* \"#utility.yul\":24974:25117   */\n    tag_577:\n        /* \"#utility.yul\":25031:25036   */\n      0x00\n        /* \"#utility.yul\":25062:25068   */\n      dup2\n        /* \"#utility.yul\":25056:25069   */\n      mload\n        /* \"#utility.yul\":25047:25069   */\n      swap1\n      pop\n        /* \"#utility.yul\":25078:25111   */\n      tag_808\n        /* \"#utility.yul\":25105:25110   */\n      dup2\n        /* \"#utility.yul\":25078:25111   */\n      tag_531\n      jump\t// in\n    tag_808:\n        /* \"#utility.yul\":24974:25117   */\n      swap3\n      swap2\n      pop\n      pop\n      jump\t// out\n        /* \"#utility.yul\":25123:25474   */\n    tag_355:\n        /* \"#utility.yul\":25193:25199   */\n      0x00\n        /* \"#utility.yul\":25242:25244   */\n      0x20\n        /* \"#utility.yul\":25230:25239   */\n      dup3\n        /* \"#utility.yul\":25221:25228   */\n      dup5\n        /* \"#utility.yul\":25217:25240   */\n      sub\n        /* \"#utility.yul\":25213:25245   */\n      slt\n        /* \"#utility.yul\":25210:25329   */\n      iszero\n      tag_810\n      jumpi\n        /* \"#utility.yul\":25248:25327   */\n      tag_811\n      tag_527\n      jump\t// in\n    tag_811:\n        /* \"#utility.yul\":25210:25329   */\n    tag_810:\n        /* \"#utility.yul\":25368:25369   */\n      0x00\n        /* \"#utility.yul\":25393:25457   */\n      tag_812\n        /* \"#utility.yul\":25449:25456   */\n      dup5\n        /* \"#utility.yul\":25440:25446   */\n      dup3\n        /* \"#utility.yul\":25429:25438   */\n      dup6\n        /* \"#utility.yul\":25425:25447   */\n      add\n        /* \"#utility.yul\":25393:25457   */\n      tag_577\n      jump\t// in\n    tag_812:\n        /* \"#utility.yul\":25383:25457   */\n      swap2\n      pop\n        /* \"#utility.yul\":25339:25467   */\n      pop\n        /* \"#utility.yul\":25123:25474   */\n      swap3\n      swap2\n      pop\n      pop\n      jump\t// out\n        /* \"#utility.yul\":25480:25643   */\n    tag_578:\n        /* \"#utility.yul\":25620:25635   */\n      0x4e6f74204e4654206f776e657200000000000000000000000000000000000000\n        /* \"#utility.yul\":25616:25617   */\n      0x00\n        /* \"#utility.yul\":25608:25614   */\n      dup3\n        /* \"#utility.yul\":25604:25618   */\n      add\n        /* \"#utility.yul\":25597:25636   */\n      mstore\n        /* \"#utility.yul\":25480:25643   */\n      pop\n      jump\t// out\n        /* \"#utility.yul\":25649:26015   */\n    tag_579:\n        /* \"#utility.yul\":25791:25794   */\n      0x00\n        /* \"#utility.yul\":25812:25879   */\n      tag_815\n        /* \"#utility.yul\":25876:25878   */\n      0x0d\n        /* \"#utility.yul\":25871:25874   */\n      dup4\n        /* \"#utility.yul\":25812:25879   */\n      tag_540\n      jump\t// in\n    tag_815:\n        /* \"#utility.yul\":25805:25879   */\n      swap2\n      pop\n        /* \"#utility.yul\":25888:25981   */\n      tag_816\n        /* \"#utility.yul\":25977:25980   */\n      dup3\n        /* \"#utility.yul\":25888:25981   */\n      tag_578\n      jump\t// in\n    tag_816:\n        /* \"#utility.yul\":26006:26008   */\n      0x20\n        /* \"#utility.yul\":26001:26004   */\n      dup3\n        /* \"#utility.yul\":25997:26009   */\n      add\n        /* \"#utility.yul\":25990:26009   */\n      swap1\n      pop\n        /* \"#utility.yul\":25649:26015   */\n      swap2\n      swap1\n      pop\n      jump\t// out\n        /* \"#utility.yul\":26021:26440   */\n    tag_358:\n        /* \"#utility.yul\":26187:26191   */\n      0x00\n        /* \"#utility.yul\":26225:26227   */\n      0x20\n        /* \"#utility.yul\":26214:26223   */\n      dup3\n        /* \"#utility.yul\":26210:26228   */\n      add\n        /* \"#utility.yul\":26202:26228   */\n      swap1\n      pop\n        /* \"#utility.yul\":26274:26283   */\n      dup2\n        /* \"#utility.yul\":26268:26272   */\n      dup2\n        /* \"#utility.yul\":26264:26284   */\n      sub\n        /* \"#utility.yul\":26260:26261   */\n      0x00\n        /* \"#utility.yul\":26249:26258   */\n      dup4\n        /* \"#utility.yul\":26245:26262   */\n      add\n        /* \"#utility.yul\":26238:26285   */\n      mstore\n        /* \"#utility.yul\":26302:26433   */\n      tag_818\n        /* \"#utility.yul\":26428:26432   */\n      dup2\n        /* \"#utility.yul\":26302:26433   */\n      tag_579\n      jump\t// in\n    tag_818:\n        /* \"#utility.yul\":26294:26433   */\n      swap1\n      pop\n        /* \"#utility.yul\":26021:26440   */\n      swap2\n      swap1\n      pop\n      jump\t// out\n        /* \"#utility.yul\":26446:26621   */\n    tag_580:\n        /* \"#utility.yul\":26586:26613   */\n      0x556e737570706f72746564207061796d656e7420746f6b656e00000000000000\n        /* \"#utility.yul\":26582:26583   */\n      0x00\n        /* \"#utility.yul\":26574:26580   */\n      dup3\n        /* \"#utility.yul\":26570:26584   */\n      add\n        /* \"#utility.yul\":26563:26614   */\n      mstore\n        /* \"#utility.yul\":26446:26621   */\n      pop\n      jump\t// out\n        /* \"#utility.yul\":26627:26993   */\n    tag_581:\n        /* \"#utility.yul\":26769:26772   */\n      0x00\n        /* \"#utility.yul\":26790:26857   */\n      tag_821\n        /* \"#utility.yul\":26854:26856   */\n      0x19\n        /* \"#utility.yul\":26849:26852   */\n      dup4\n        /* \"#utility.yul\":26790:26857   */\n      tag_540\n      jump\t// in\n    tag_821:\n        /* \"#utility.yul\":26783:26857   */\n      swap2\n      pop\n        /* \"#utility.yul\":26866:26959   */\n      tag_822\n        /* \"#utility.yul\":26955:26958   */\n      dup3\n        /* \"#utility.yul\":26866:26959   */\n      tag_580\n      jump\t// in\n    tag_822:\n        /* \"#utility.yul\":26984:26986   */\n      0x20\n        /* \"#utility.yul\":26979:26982   */\n      dup3\n        /* \"#utility.yul\":26975:26987   */\n      add\n        /* \"#utility.yul\":26968:26987   */\n      swap1\n      pop\n        /* \"#utility.yul\":26627:26993   */\n      swap2\n      swap1\n      pop\n      jump\t// out\n        /* \"#utility.yul\":26999:27418   */\n    tag_365:\n        /* \"#utility.yul\":27165:27169   */\n      0x00\n        /* \"#utility.yul\":27203:27205   */\n      0x20\n        /* \"#utility.yul\":27192:27201   */\n      dup3\n        /* \"#utility.yul\":27188:27206   */\n      add\n        /* \"#utility.yul\":27180:27206   */\n      swap1\n      pop\n        /* \"#utility.yul\":27252:27261   */\n      dup2\n        /* \"#utility.yul\":27246:27250   */\n      dup2\n        /* \"#utility.yul\":27242:27262   */\n      sub\n        /* \"#utility.yul\":27238:27239   */\n      0x00\n        /* \"#utility.yul\":27227:27236   */\n      dup4\n        /* \"#utility.yul\":27223:27240   */\n      add\n        /* \"#utility.yul\":27216:27263   */\n      mstore\n        /* \"#utility.yul\":27280:27411   */\n      tag_824\n        /* \"#utility.yul\":27406:27410   */\n      dup2\n        /* \"#utility.yul\":27280:27411   */\n      tag_581\n      jump\t// in\n    tag_824:\n        /* \"#utility.yul\":27272:27411   */\n      swap1\n      pop\n        /* \"#utility.yul\":26999:27418   */\n      swap2\n      swap1\n      pop\n      jump\t// out\n        /* \"#utility.yul\":27424:27598   */\n    tag_582:\n        /* \"#utility.yul\":27564:27590   */\n      0x50726963652073686f756c64206e6f74206265207a65726f0000000000000000\n        /* \"#utility.yul\":27560:27561   */\n      0x00\n        /* \"#utility.yul\":27552:27558   */\n      dup3\n        /* \"#utility.yul\":27548:27562   */\n      add\n        /* \"#utility.yul\":27541:27591   */\n      mstore\n        /* \"#utility.yul\":27424:27598   */\n      pop\n      jump\t// out\n        /* \"#utility.yul\":27604:27970   */\n    tag_583:\n        /* \"#utility.yul\":27746:27749   */\n      0x00\n        /* \"#utility.yul\":27767:27834   */\n      tag_827\n        /* \"#utility.yul\":27831:27833   */\n      0x18\n        /* \"#utility.yul\":27826:27829   */\n      dup4\n        /* \"#utility.yul\":27767:27834   */\n      tag_540\n      jump\t// in\n    tag_827:\n        /* \"#utility.yul\":27760:27834   */\n      swap2\n      pop\n        /* \"#utility.yul\":27843:27936   */\n      tag_828\n        /* \"#utility.yul\":27932:27935   */\n      dup3\n        /* \"#utility.yul\":27843:27936   */\n      tag_582\n      jump\t// in\n    tag_828:\n        /* \"#utility.yul\":27961:27963   */\n      0x20\n        /* \"#utility.yul\":27956:27959   */\n      dup3\n        /* \"#utility.yul\":27952:27964   */\n      add\n        /* \"#utility.yul\":27945:27964   */\n      swap1\n      pop\n        /* \"#utility.yul\":27604:27970   */\n      swap2\n      swap1\n      pop\n      jump\t// out\n        /* \"#utility.yul\":27976:28395   */\n    tag_369:\n        /* \"#utility.yul\":28142:28146   */\n      0x00\n        /* \"#utility.yul\":28180:28182   */\n      0x20\n        /* \"#utility.yul\":28169:28178   */\n      dup3\n        /* \"#utility.yul\":28165:28183   */\n      add\n        /* \"#utility.yul\":28157:28183   */\n      swap1\n      pop\n        /* \"#utility.yul\":28229:28238   */\n      dup2\n        /* \"#utility.yul\":28223:28227   */\n      dup2\n        /* \"#utility.yul\":28219:28239   */\n      sub\n        /* \"#utility.yul\":28215:28216   */\n      0x00\n        /* \"#utility.yul\":28204:28213   */\n      dup4\n        /* \"#utility.yul\":28200:28217   */\n      add\n        /* \"#utility.yul\":28193:28240   */\n      mstore\n        /* \"#utility.yul\":28257:28388   */\n      tag_830\n        /* \"#utility.yul\":28383:28387   */\n      dup2\n        /* \"#utility.yul\":28257:28388   */\n      tag_583\n      jump\t// in\n    tag_830:\n        /* \"#utility.yul\":28249:28388   */\n      swap1\n      pop\n        /* \"#utility.yul\":27976:28395   */\n      swap2\n      swap1\n      pop\n      jump\t// out\n        /* \"#utility.yul\":28401:28517   */\n    tag_584:\n        /* \"#utility.yul\":28471:28492   */\n      tag_832\n        /* \"#utility.yul\":28486:28491   */\n      dup2\n        /* \"#utility.yul\":28471:28492   */\n      tag_537\n      jump\t// in\n    tag_832:\n        /* \"#utility.yul\":28464:28469   */\n      dup2\n        /* \"#utility.yul\":28461:28493   */\n      eq\n        /* \"#utility.yul\":28451:28511   */\n      tag_833\n      jumpi\n        /* \"#utility.yul\":28507:28508   */\n      0x00\n        /* \"#utility.yul\":28504:28505   */\n      dup1\n        /* \"#utility.yul\":28497:28509   */\n      revert\n        /* \"#utility.yul\":28451:28511   */\n    tag_833:\n        /* \"#utility.yul\":28401:28517   */\n      pop\n      jump\t// out\n        /* \"#utility.yul\":28523:28660   */\n    tag_585:\n        /* \"#utility.yul\":28577:28582   */\n      0x00\n        /* \"#utility.yul\":28608:28614   */\n      dup2\n        /* \"#utility.yul\":28602:28615   */\n      mload\n        /* \"#utility.yul\":28593:28615   */\n      swap1\n      pop\n        /* \"#utility.yul\":28624:28654   */\n      tag_835\n        /* \"#utility.yul\":28648:28653   */\n      dup2\n        /* \"#utility.yul\":28624:28654   */\n      tag_584\n      jump\t// in\n    tag_835:\n        /* \"#utility.yul\":28523:28660   */\n      swap3\n      swap2\n      pop\n      pop\n      jump\t// out\n        /* \"#utility.yul\":28666:29011   */\n    tag_374:\n        /* \"#utility.yul\":28733:28739   */\n      0x00\n        /* \"#utility.yul\":28782:28784   */\n      0x20\n        /* \"#utility.yul\":28770:28779   */\n      dup3\n        /* \"#utility.yul\":28761:28768   */\n      dup5\n        /* \"#utility.yul\":28757:28780   */\n      sub\n        /* \"#utility.yul\":28753:28785   */\n      slt\n        /* \"#utility.yul\":28750:28869   */\n      iszero\n      tag_837\n      jumpi\n        /* \"#utility.yul\":28788:28867   */\n      tag_838\n      tag_527\n      jump\t// in\n    tag_838:\n        /* \"#utility.yul\":28750:28869   */\n    tag_837:\n        /* \"#utility.yul\":28908:28909   */\n      0x00\n        /* \"#utility.yul\":28933:28994   */\n      tag_839\n        /* \"#utility.yul\":28986:28993   */\n      dup5\n        /* \"#utility.yul\":28977:28983   */\n      dup3\n        /* \"#utility.yul\":28966:28975   */\n      dup6\n        /* \"#utility.yul\":28962:28984   */\n      add\n        /* \"#utility.yul\":28933:28994   */\n      tag_585\n      jump\t// in\n    tag_839:\n        /* \"#utility.yul\":28923:28994   */\n      swap2\n      pop\n        /* \"#utility.yul\":28879:29004   */\n      pop\n        /* \"#utility.yul\":28666:29011   */\n      swap3\n      swap2\n      pop\n      pop\n      jump\t// out\n        /* \"#utility.yul\":29017:29188   */\n    tag_586:\n        /* \"#utility.yul\":29157:29180   */\n      0x4e465420417070726f76616c2072657175697265640000000000000000000000\n        /* \"#utility.yul\":29153:29154   */\n      0x00\n        /* \"#utility.yul\":29145:29151   */\n      dup3\n        /* \"#utility.yul\":29141:29155   */\n      add\n        /* \"#utility.yul\":29134:29181   */\n      mstore\n        /* \"#utility.yul\":29017:29188   */\n      pop\n      jump\t// out\n        /* \"#utility.yul\":29194:29560   */\n    tag_587:\n        /* \"#utility.yul\":29336:29339   */\n      0x00\n        /* \"#utility.yul\":29357:29424   */\n      tag_842\n        /* \"#utility.yul\":29421:29423   */\n      0x15\n        /* \"#utility.yul\":29416:29419   */\n      dup4\n        /* \"#utility.yul\":29357:29424   */\n      tag_540\n      jump\t// in\n    tag_842:\n        /* \"#utility.yul\":29350:29424   */\n      swap2\n      pop\n        /* \"#utility.yul\":29433:29526   */\n      tag_843\n        /* \"#utility.yul\":29522:29525   */\n      dup3\n        /* \"#utility.yul\":29433:29526   */\n      tag_586\n      jump\t// in\n    tag_843:\n        /* \"#utility.yul\":29551:29553   */\n      0x20\n        /* \"#utility.yul\":29546:29549   */\n      dup3\n        /* \"#utility.yul\":29542:29554   */\n      add\n        /* \"#utility.yul\":29535:29554   */\n      swap1\n      pop\n        /* \"#utility.yul\":29194:29560   */\n      swap2\n      swap1\n      pop\n      jump\t// out\n        /* \"#utility.yul\":29566:29985   */\n    tag_382:\n        /* \"#utility.yul\":29732:29736   */\n      0x00\n        /* \"#utility.yul\":29770:29772   */\n      0x20\n        /* \"#utility.yul\":29759:29768   */\n      dup3\n        /* \"#utility.yul\":29755:29773   */\n      add\n        /* \"#utility.yul\":29747:29773   */\n      swap1\n      pop\n        /* \"#utility.yul\":29819:29828   */\n      dup2\n        /* \"#utility.yul\":29813:29817   */\n      dup2\n        /* \"#utility.yul\":29809:29829   */\n      sub\n        /* \"#utility.yul\":29805:29806   */\n      0x00\n        /* \"#utility.yul\":29794:29803   */\n      dup4\n        /* \"#utility.yul\":29790:29807   */\n      add\n        /* \"#utility.yul\":29783:29830   */\n      mstore\n        /* \"#utility.yul\":29847:29978   */\n      tag_845\n        /* \"#utility.yul\":29973:29977   */\n      dup2\n        /* \"#utility.yul\":29847:29978   */\n      tag_587\n      jump\t// in\n    tag_845:\n        /* \"#utility.yul\":29839:29978   */\n      swap1\n      pop\n        /* \"#utility.yul\":29566:29985   */\n      swap2\n      swap1\n      pop\n      jump\t// out\n        /* \"#utility.yul\":29991:30170   */\n    tag_588:\n        /* \"#utility.yul\":30131:30162   */\n      0x4e6f20746f6b656e206561726e696e677320746f207769746864726177000000\n        /* \"#utility.yul\":30127:30128   */\n      0x00\n        /* \"#utility.yul\":30119:30125   */\n      dup3\n        /* \"#utility.yul\":30115:30129   */\n      add\n        /* \"#utility.yul\":30108:30163   */\n      mstore\n        /* \"#utility.yul\":29991:30170   */\n      pop\n      jump\t// out\n        /* \"#utility.yul\":30176:30542   */\n    tag_589:\n        /* \"#utility.yul\":30318:30321   */\n      0x00\n        /* \"#utility.yul\":30339:30406   */\n      tag_848\n        /* \"#utility.yul\":30403:30405   */\n      0x1d\n        /* \"#utility.yul\":30398:30401   */\n      dup4\n        /* \"#utility.yul\":30339:30406   */\n      tag_540\n      jump\t// in\n    tag_848:\n        /* \"#utility.yul\":30332:30406   */\n      swap2\n      pop\n        /* \"#utility.yul\":30415:30508   */\n      tag_849\n        /* \"#utility.yul\":30504:30507   */\n      dup3\n        /* \"#utility.yul\":30415:30508   */\n      tag_588\n      jump\t// in\n    tag_849:\n        /* \"#utility.yul\":30533:30535   */\n      0x20\n        /* \"#utility.yul\":30528:30531   */\n      dup3\n        /* \"#utility.yul\":30524:30536   */\n      add\n        /* \"#utility.yul\":30517:30536   */\n      swap1\n      pop\n        /* \"#utility.yul\":30176:30542   */\n      swap2\n      swap1\n      pop\n      jump\t// out\n        /* \"#utility.yul\":30548:30967   */\n    tag_405:\n        /* \"#utility.yul\":30714:30718   */\n      0x00\n        /* \"#utility.yul\":30752:30754   */\n      0x20\n        /* \"#utility.yul\":30741:30750   */\n      dup3\n        /* \"#utility.yul\":30737:30755   */\n      add\n        /* \"#utility.yul\":30729:30755   */\n      swap1\n      pop\n        /* \"#utility.yul\":30801:30810   */\n      dup2\n        /* \"#utility.yul\":30795:30799   */\n      dup2\n        /* \"#utility.yul\":30791:30811   */\n      sub\n        /* \"#utility.yul\":30787:30788   */\n      0x00\n        /* \"#utility.yul\":30776:30785   */\n      dup4\n        /* \"#utility.yul\":30772:30789   */\n      add\n        /* \"#utility.yul\":30765:30812   */\n      mstore\n        /* \"#utility.yul\":30829:30960   */\n      tag_851\n        /* \"#utility.yul\":30955:30959   */\n      dup2\n        /* \"#utility.yul\":30829:30960   */\n      tag_589\n      jump\t// in\n    tag_851:\n        /* \"#utility.yul\":30821:30960   */\n      swap1\n      pop\n        /* \"#utility.yul\":30548:30967   */\n      swap2\n      swap1\n      pop\n      jump\t// out\n        /* \"#utility.yul\":30973:31154   */\n    tag_590:\n        /* \"#utility.yul\":31113:31146   */\n      0x596f7572206269642069732062656c6f77206d696e696d756d20707269636500\n        /* \"#utility.yul\":31109:31110   */\n      0x00\n        /* \"#utility.yul\":31101:31107   */\n      dup3\n        /* \"#utility.yul\":31097:31111   */\n      add\n        /* \"#utility.yul\":31090:31147   */\n      mstore\n        /* \"#utility.yul\":30973:31154   */\n      pop\n      jump\t// out\n        /* \"#utility.yul\":31160:31526   */\n    tag_591:\n        /* \"#utility.yul\":31302:31305   */\n      0x00\n        /* \"#utility.yul\":31323:31390   */\n      tag_854\n        /* \"#utility.yul\":31387:31389   */\n      0x1f\n        /* \"#utility.yul\":31382:31385   */\n      dup4\n        /* \"#utility.yul\":31323:31390   */\n      tag_540\n      jump\t// in\n    tag_854:\n        /* \"#utility.yul\":31316:31390   */\n      swap2\n      pop\n        /* \"#utility.yul\":31399:31492   */\n      tag_855\n        /* \"#utility.yul\":31488:31491   */\n      dup3\n        /* \"#utility.yul\":31399:31492   */\n      tag_590\n      jump\t// in\n    tag_855:\n        /* \"#utility.yul\":31517:31519   */\n      0x20\n        /* \"#utility.yul\":31512:31515   */\n      dup3\n        /* \"#utility.yul\":31508:31520   */\n      add\n        /* \"#utility.yul\":31501:31520   */\n      swap1\n      pop\n        /* \"#utility.yul\":31160:31526   */\n      swap2\n      swap1\n      pop\n      jump\t// out\n        /* \"#utility.yul\":31532:31951   */\n    tag_437:\n        /* \"#utility.yul\":31698:31702   */\n      0x00\n        /* \"#utility.yul\":31736:31738   */\n      0x20\n        /* \"#utility.yul\":31725:31734   */\n      dup3\n        /* \"#utility.yul\":31721:31739   */\n      add\n        /* \"#utility.yul\":31713:31739   */\n      swap1\n      pop\n        /* \"#utility.yul\":31785:31794   */\n      dup2\n        /* \"#utility.yul\":31779:31783   */\n      dup2\n        /* \"#utility.yul\":31775:31795   */\n      sub\n        /* \"#utility.yul\":31771:31772   */\n      0x00\n        /* \"#utility.yul\":31760:31769   */\n      dup4\n        /* \"#utility.yul\":31756:31773   */\n      add\n        /* \"#utility.yul\":31749:31796   */\n      mstore\n        /* \"#utility.yul\":31813:31944   */\n      tag_857\n        /* \"#utility.yul\":31939:31943   */\n      dup2\n        /* \"#utility.yul\":31813:31944   */\n      tag_591\n      jump\t// in\n    tag_857:\n        /* \"#utility.yul\":31805:31944   */\n      swap1\n      pop\n        /* \"#utility.yul\":31532:31951   */\n      swap2\n      swap1\n      pop\n      jump\t// out\n        /* \"#utility.yul\":31957:32125   */\n    tag_592:\n        /* \"#utility.yul\":32097:32117   */\n      0x496e636f7272656374204554482073656e740000000000000000000000000000\n        /* \"#utility.yul\":32093:32094   */\n      0x00\n        /* \"#utility.yul\":32085:32091   */\n      dup3\n        /* \"#utility.yul\":32081:32095   */\n      add\n        /* \"#utility.yul\":32074:32118   */\n      mstore\n        /* \"#utility.yul\":31957:32125   */\n      pop\n      jump\t// out\n        /* \"#utility.yul\":32131:32497   */\n    tag_593:\n        /* \"#utility.yul\":32273:32276   */\n      0x00\n        /* \"#utility.yul\":32294:32361   */\n      tag_860\n        /* \"#utility.yul\":32358:32360   */\n      0x12\n        /* \"#utility.yul\":32353:32356   */\n      dup4\n        /* \"#utility.yul\":32294:32361   */\n      tag_540\n      jump\t// in\n    tag_860:\n        /* \"#utility.yul\":32287:32361   */\n      swap2\n      pop\n        /* \"#utility.yul\":32370:32463   */\n      tag_861\n        /* \"#utility.yul\":32459:32462   */\n      dup3\n        /* \"#utility.yul\":32370:32463   */\n      tag_592\n      jump\t// in\n    tag_861:\n        /* \"#utility.yul\":32488:32490   */\n      0x20\n        /* \"#utility.yul\":32483:32486   */\n      dup3\n        /* \"#utility.yul\":32479:32491   */\n      add\n        /* \"#utility.yul\":32472:32491   */\n      swap1\n      pop\n        /* \"#utility.yul\":32131:32497   */\n      swap2\n      swap1\n      pop\n      jump\t// out\n        /* \"#utility.yul\":32503:32922   */\n    tag_441:\n        /* \"#utility.yul\":32669:32673   */\n      0x00\n        /* \"#utility.yul\":32707:32709   */\n      0x20\n        /* \"#utility.yul\":32696:32705   */\n      dup3\n        /* \"#utility.yul\":32692:32710   */\n      add\n        /* \"#utility.yul\":32684:32710   */\n      swap1\n      pop\n        /* \"#utility.yul\":32756:32765   */\n      dup2\n        /* \"#utility.yul\":32750:32754   */\n      dup2\n        /* \"#utility.yul\":32746:32766   */\n      sub\n        /* \"#utility.yul\":32742:32743   */\n      0x00\n        /* \"#utility.yul\":32731:32740   */\n      dup4\n        /* \"#utility.yul\":32727:32744   */\n      add\n        /* \"#utility.yul\":32720:32767   */\n      mstore\n        /* \"#utility.yul\":32784:32915   */\n      tag_863\n        /* \"#utility.yul\":32910:32914   */\n      dup2\n        /* \"#utility.yul\":32784:32915   */\n      tag_593\n      jump\t// in\n    tag_863:\n        /* \"#utility.yul\":32776:32915   */\n      swap1\n      pop\n        /* \"#utility.yul\":32503:32922   */\n      swap2\n      swap1\n      pop\n      jump\t// out\n        /* \"#utility.yul\":32928:33099   */\n    tag_594:\n        /* \"#utility.yul\":33068:33091   */\n      0x546f6b656e207472616e73666572206661696c65640000000000000000000000\n        /* \"#utility.yul\":33064:33065   */\n      0x00\n        /* \"#utility.yul\":33056:33062   */\n      dup3\n        /* \"#utility.yul\":33052:33066   */\n      add\n        /* \"#utility.yul\":33045:33092   */\n      mstore\n        /* \"#utility.yul\":32928:33099   */\n      pop\n      jump\t// out\n        /* \"#utility.yul\":33105:33471   */\n    tag_595:\n        /* \"#utility.yul\":33247:33250   */\n      0x00\n        /* \"#utility.yul\":33268:33335   */\n      tag_866\n        /* \"#utility.yul\":33332:33334   */\n      0x15\n        /* \"#utility.yul\":33327:33330   */\n      dup4\n        /* \"#utility.yul\":33268:33335   */\n      tag_540\n      jump\t// in\n    tag_866:\n        /* \"#utility.yul\":33261:33335   */\n      swap2\n      pop\n        /* \"#utility.yul\":33344:33437   */\n      tag_867\n        /* \"#utility.yul\":33433:33436   */\n      dup3\n        /* \"#utility.yul\":33344:33437   */\n      tag_594\n      jump\t// in\n    tag_867:\n        /* \"#utility.yul\":33462:33464   */\n      0x20\n        /* \"#utility.yul\":33457:33460   */\n      dup3\n        /* \"#utility.yul\":33453:33465   */\n      add\n        /* \"#utility.yul\":33446:33465   */\n      swap1\n      pop\n        /* \"#utility.yul\":33105:33471   */\n      swap2\n      swap1\n      pop\n      jump\t// out\n        /* \"#utility.yul\":33477:33896   */\n    tag_449:\n        /* \"#utility.yul\":33643:33647   */\n      0x00\n        /* \"#utility.yul\":33681:33683   */\n      0x20\n        /* \"#utility.yul\":33670:33679   */\n      dup3\n        /* \"#utility.yul\":33666:33684   */\n      add\n        /* \"#utility.yul\":33658:33684   */\n      swap1\n      pop\n        /* \"#utility.yul\":33730:33739   */\n      dup2\n        /* \"#utility.yul\":33724:33728   */\n      dup2\n        /* \"#utility.yul\":33720:33740   */\n      sub\n        /* \"#utility.yul\":33716:33717   */\n      0x00\n        /* \"#utility.yul\":33705:33714   */\n      dup4\n        /* \"#utility.yul\":33701:33718   */\n      add\n        /* \"#utility.yul\":33694:33741   */\n      mstore\n        /* \"#utility.yul\":33758:33889   */\n      tag_869\n        /* \"#utility.yul\":33884:33888   */\n      dup2\n        /* \"#utility.yul\":33758:33889   */\n      tag_595\n      jump\t// in\n    tag_869:\n        /* \"#utility.yul\":33750:33889   */\n      swap1\n      pop\n        /* \"#utility.yul\":33477:33896   */\n      swap2\n      swap1\n      pop\n      jump\t// out\n        /* \"#utility.yul\":33902:34124   */\n    tag_596:\n        /* \"#utility.yul\":34042:34076   */\n      0x426964206d75737420626520686967686572207468616e2063757272656e7420\n        /* \"#utility.yul\":34038:34039   */\n      0x00\n        /* \"#utility.yul\":34030:34036   */\n      dup3\n        /* \"#utility.yul\":34026:34040   */\n      add\n        /* \"#utility.yul\":34019:34077   */\n      mstore\n        /* \"#utility.yul\":34111:34116   */\n      0x6269640000000000000000000000000000000000000000000000000000000000\n        /* \"#utility.yul\":34106:34108   */\n      0x20\n        /* \"#utility.yul\":34098:34104   */\n      dup3\n        /* \"#utility.yul\":34094:34109   */\n      add\n        /* \"#utility.yul\":34087:34117   */\n      mstore\n        /* \"#utility.yul\":33902:34124   */\n      pop\n      jump\t// out\n        /* \"#utility.yul\":34130:34496   */\n    tag_597:\n        /* \"#utility.yul\":34272:34275   */\n      0x00\n        /* \"#utility.yul\":34293:34360   */\n      tag_872\n        /* \"#utility.yul\":34357:34359   */\n      0x23\n        /* \"#utility.yul\":34352:34355   */\n      dup4\n        /* \"#utility.yul\":34293:34360   */\n      tag_540\n      jump\t// in\n    tag_872:\n        /* \"#utility.yul\":34286:34360   */\n      swap2\n      pop\n        /* \"#utility.yul\":34369:34462   */\n      tag_873\n        /* \"#utility.yul\":34458:34461   */\n      dup3\n        /* \"#utility.yul\":34369:34462   */\n      tag_596\n      jump\t// in\n    tag_873:\n        /* \"#utility.yul\":34487:34489   */\n      0x40\n        /* \"#utility.yul\":34482:34485   */\n      dup3\n        /* \"#utility.yul\":34478:34490   */\n      add\n        /* \"#utility.yul\":34471:34490   */\n      swap1\n      pop\n        /* \"#utility.yul\":34130:34496   */\n      swap2\n      swap1\n      pop\n      jump\t// out\n        /* \"#utility.yul\":34502:34921   */\n    tag_452:\n        /* \"#utility.yul\":34668:34672   */\n      0x00\n        /* \"#utility.yul\":34706:34708   */\n      0x20\n        /* \"#utility.yul\":34695:34704   */\n      dup3\n        /* \"#utility.yul\":34691:34709   */\n      add\n        /* \"#utility.yul\":34683:34709   */\n      swap1\n      pop\n        /* \"#utility.yul\":34755:34764   */\n      dup2\n        /* \"#utility.yul\":34749:34753   */\n      dup2\n        /* \"#utility.yul\":34745:34765   */\n      sub\n        /* \"#utility.yul\":34741:34742   */\n      0x00\n        /* \"#utility.yul\":34730:34739   */\n      dup4\n        /* \"#utility.yul\":34726:34743   */\n      add\n        /* \"#utility.yul\":34719:34766   */\n      mstore\n        /* \"#utility.yul\":34783:34914   */\n      tag_875\n        /* \"#utility.yul\":34909:34913   */\n      dup2\n        /* \"#utility.yul\":34783:34914   */\n      tag_597\n      jump\t// in\n    tag_875:\n        /* \"#utility.yul\":34775:34914   */\n      swap1\n      pop\n        /* \"#utility.yul\":34502:34921   */\n      swap2\n      swap1\n      pop\n      jump\t// out\n        /* \"#utility.yul\":34927:35095   */\n    tag_598:\n        /* \"#utility.yul\":35067:35087   */\n      0x4e6f2045544820746f2077697468647261770000000000000000000000000000\n        /* \"#utility.yul\":35063:35064   */\n      0x00\n        /* \"#utility.yul\":35055:35061   */\n      dup3\n        /* \"#utility.yul\":35051:35065   */\n      add\n        /* \"#utility.yul\":35044:35088   */\n      mstore\n        /* \"#utility.yul\":34927:35095   */\n      pop\n      jump\t// out\n        /* \"#utility.yul\":35101:35467   */\n    tag_599:\n        /* \"#utility.yul\":35243:35246   */\n      0x00\n        /* \"#utility.yul\":35264:35331   */\n      tag_878\n        /* \"#utility.yul\":35328:35330   */\n      0x12\n        /* \"#utility.yul\":35323:35326   */\n      dup4\n        /* \"#utility.yul\":35264:35331   */\n      tag_540\n      jump\t// in\n    tag_878:\n        /* \"#utility.yul\":35257:35331   */\n      swap2\n      pop\n        /* \"#utility.yul\":35340:35433   */\n      tag_879\n        /* \"#utility.yul\":35429:35432   */\n      dup3\n        /* \"#utility.yul\":35340:35433   */\n      tag_598\n      jump\t// in\n    tag_879:\n        /* \"#utility.yul\":35458:35460   */\n      0x20\n        /* \"#utility.yul\":35453:35456   */\n      dup3\n        /* \"#utility.yul\":35449:35461   */\n      add\n        /* \"#utility.yul\":35442:35461   */\n      swap1\n      pop\n        /* \"#utility.yul\":35101:35467   */\n      swap2\n      swap1\n      pop\n      jump\t// out\n        /* \"#utility.yul\":35473:35892   */\n    tag_470:\n        /* \"#utility.yul\":35639:35643   */\n      0x00\n        /* \"#utility.yul\":35677:35679   */\n      0x20\n        /* \"#utility.yul\":35666:35675   */\n      dup3\n        /* \"#utility.yul\":35662:35680   */\n      add\n        /* \"#utility.yul\":35654:35680   */\n      swap1\n      pop\n        /* \"#utility.yul\":35726:35735   */\n      dup2\n        /* \"#utility.yul\":35720:35724   */\n      dup2\n        /* \"#utility.yul\":35716:35736   */\n      sub\n        /* \"#utility.yul\":35712:35713   */\n      0x00\n        /* \"#utility.yul\":35701:35710   */\n      dup4\n        /* \"#utility.yul\":35697:35714   */\n      add\n        /* \"#utility.yul\":35690:35737   */\n      mstore\n        /* \"#utility.yul\":35754:35885   */\n      tag_881\n        /* \"#utility.yul\":35880:35884   */\n      dup2\n        /* \"#utility.yul\":35754:35885   */\n      tag_599\n      jump\t// in\n    tag_881:\n        /* \"#utility.yul\":35746:35885   */\n      swap1\n      pop\n        /* \"#utility.yul\":35473:35892   */\n      swap2\n      swap1\n      pop\n      jump\t// out\n        /* \"#utility.yul\":35898:36076   */\n    tag_600:\n        /* \"#utility.yul\":36038:36068   */\n      0x455448206561726e696e6773207472616e73666572206661696c656400000000\n        /* \"#utility.yul\":36034:36035   */\n      0x00\n        /* \"#utility.yul\":36026:36032   */\n      dup3\n        /* \"#utility.yul\":36022:36036   */\n      add\n        /* \"#utility.yul\":36015:36069   */\n      mstore\n        /* \"#utility.yul\":35898:36076   */\n      pop\n      jump\t// out\n        /* \"#utility.yul\":36082:36448   */\n    tag_601:\n        /* \"#utility.yul\":36224:36227   */\n      0x00\n        /* \"#utility.yul\":36245:36312   */\n      tag_884\n        /* \"#utility.yul\":36309:36311   */\n      0x1c\n        /* \"#utility.yul\":36304:36307   */\n      dup4\n        /* \"#utility.yul\":36245:36312   */\n      tag_540\n      jump\t// in\n    tag_884:\n        /* \"#utility.yul\":36238:36312   */\n      swap2\n      pop\n        /* \"#utility.yul\":36321:36414   */\n      tag_885\n        /* \"#utility.yul\":36410:36413   */\n      dup3\n        /* \"#utility.yul\":36321:36414   */\n      tag_600\n      jump\t// in\n    tag_885:\n        /* \"#utility.yul\":36439:36441   */\n      0x20\n        /* \"#utility.yul\":36434:36437   */\n      dup3\n        /* \"#utility.yul\":36430:36442   */\n      add\n        /* \"#utility.yul\":36423:36442   */\n      swap1\n      pop\n        /* \"#utility.yul\":36082:36448   */\n      swap2\n      swap1\n      pop\n      jump\t// out\n        /* \"#utility.yul\":36454:36873   */\n    tag_477:\n        /* \"#utility.yul\":36620:36624   */\n      0x00\n        /* \"#utility.yul\":36658:36660   */\n      0x20\n        /* \"#utility.yul\":36647:36656   */\n      dup3\n        /* \"#utility.yul\":36643:36661   */\n      add\n        /* \"#utility.yul\":36635:36661   */\n      swap1\n      pop\n        /* \"#utility.yul\":36707:36716   */\n      dup2\n        /* \"#utility.yul\":36701:36705   */\n      dup2\n        /* \"#utility.yul\":36697:36717   */\n      sub\n        /* \"#utility.yul\":36693:36694   */\n      0x00\n        /* \"#utility.yul\":36682:36691   */\n      dup4\n        /* \"#utility.yul\":36678:36695   */\n      add\n        /* \"#utility.yul\":36671:36718   */\n      mstore\n        /* \"#utility.yul\":36735:36866   */\n      tag_887\n        /* \"#utility.yul\":36861:36865   */\n      dup2\n        /* \"#utility.yul\":36735:36866   */\n      tag_601\n      jump\t// in\n    tag_887:\n        /* \"#utility.yul\":36727:36866   */\n      swap1\n      pop\n        /* \"#utility.yul\":36454:36873   */\n      swap2\n      swap1\n      pop\n      jump\t// out\n\n    auxdata: 0xa26469706673582212200a7dd5377dde09b0617f887101c570aea25f2c53a7d2dfe18c74eb38e15bf8aa64736f6c63430008180033\n}\n",
				"bytecode": {
					"linkReferences": {},
					"object": "608060405260c86002556101f46003553480156200001b575f80fd5b50604051620048423803806200484283398181016040528101906200004191906200031a565b3360015f819055505f73ffffffffffffffffffffffffffffffffffffffff168173ffffffffffffffffffffffffffffffffffffffff1603620000bc575f6040517f1e4fbdf7000000000000000000000000000000000000000000000000000000008152600401620000b391906200039a565b60405180910390fd5b620000cd81620001f260201b60201c565b505f600160146101000a81548160ff02191690831515021790555083600d5f6101000a81548173ffffffffffffffffffffffffffffffffffffffff021916908373ffffffffffffffffffffffffffffffffffffffff16021790555082600a5f6101000a81548173ffffffffffffffffffffffffffffffffffffffff021916908373ffffffffffffffffffffffffffffffffffffffff16021790555081600b5f6101000a81548173ffffffffffffffffffffffffffffffffffffffff021916908373ffffffffffffffffffffffffffffffffffffffff16021790555080600c5f6101000a81548173ffffffffffffffffffffffffffffffffffffffff021916908373ffffffffffffffffffffffffffffffffffffffff16021790555050505050620003b5565b5f60015f9054906101000a900473ffffffffffffffffffffffffffffffffffffffff1690508160015f6101000a81548173ffffffffffffffffffffffffffffffffffffffff021916908373ffffffffffffffffffffffffffffffffffffffff1602179055508173ffffffffffffffffffffffffffffffffffffffff168173ffffffffffffffffffffffffffffffffffffffff167f8be0079c531659141344cd1fd0a4f28419497f9722a3daafe3b4186f6b6457e060405160405180910390a35050565b5f80fd5b5f73ffffffffffffffffffffffffffffffffffffffff82169050919050565b5f620002e482620002b9565b9050919050565b620002f681620002d8565b811462000301575f80fd5b50565b5f815190506200031481620002eb565b92915050565b5f805f8060808587031215620003355762000334620002b5565b5b5f620003448782880162000304565b9450506020620003578782880162000304565b93505060406200036a8782880162000304565b92505060606200037d8782880162000304565b91505092959194509250565b6200039481620002d8565b82525050565b5f602082019050620003af5f83018462000389565b92915050565b61447f80620003c35f395ff3fe6080604052600436106101f8575f3560e01c80638456cb591161010c578063bf6aee981161009f578063de74e57b1161006e578063de74e57b1461066c578063ed952ccd146106ac578063f2fde38b146106e8578063fd95c73914610710578063ff743e8914610726576101f8565b8063bf6aee98146105c4578063c86d4040146105ee578063d56d229d14610618578063d73792a914610642576101f8565b806399c5c8aa116100db57806399c5c8aa14610518578063a3269b0914610542578063ad6561ec1461057e578063bc063e1a1461059a576101f8565b80638456cb5914610488578063884282a11461049e5780638da5cb5b146104c657806392e67c06146104f0576101f8565b80634c97cf7c1161018f5780635c975abb1161015e5780635c975abb146103cc57806365c11bf0146103f65780636a1669641461041e578063715018a614610448578063729737911461045e576101f8565b80634c97cf7c1461033e57806352fb654114610366578063550dddeb1461037c5780635c3b37db146103a4576101f8565b80632b1fd58a116101cb5780632b1fd58a146102b0578063305a67a8146102d857806330eb80cd146103005780633f4ba83a14610328576101f8565b80630382d424146101fc5780630eaaf4c8146102385780631e534be6146102605780631f8ca0b514610288575b5f80fd5b348015610207575f80fd5b50610222600480360381019061021d919061340c565b610763565b60405161022f9190613462565b60405180910390f35b348015610243575f80fd5b5061025e600480360381019061025991906134a5565b610783565b005b34801561026b575f80fd5b50610286600480360381019061028191906134d0565b610960565b005b348015610293575f80fd5b506102ae60048036038101906102a991906134d0565b610a78565b005b3480156102bb575f80fd5b506102d660048036038101906102d191906134a5565b610b90565b005b3480156102e3575f80fd5b506102fe60048036038101906102f991906134a5565b6111b4565b005b34801561030b575f80fd5b50610326600480360381019061032191906134a5565b611413565b005b348015610333575f80fd5b5061033c6114eb565b005b348015610349575f80fd5b50610364600480360381019061035f91906134d0565b6114fd565b005b348015610371575f80fd5b5061037a611615565b005b348015610387575f80fd5b506103a2600480360381019061039d91906134a5565b611814565b005b3480156103af575f80fd5b506103ca60048036038101906103c591906134d0565b6118b4565b005b3480156103d7575f80fd5b506103e0611b23565b6040516103ed9190613515565b60405180910390f35b348015610401575f80fd5b5061041c6004803603810190610417919061352e565b611b39565b005b348015610429575f80fd5b506104326121b0565b60405161043f9190613462565b60405180910390f35b348015610453575f80fd5b5061045c6121b6565b005b348015610469575f80fd5b506104726121c9565b60405161047f919061358d565b60405180910390f35b348015610493575f80fd5b5061049c6121ee565b005b3480156104a9575f80fd5b506104c460048036038101906104bf91906134d0565b612200565b005b3480156104d1575f80fd5b506104da6123a6565b6040516104e7919061358d565b60405180910390f35b3480156104fb575f80fd5b50610516600480360381019061051191906134d0565b6123ce565b005b348015610523575f80fd5b5061052c6124e1565b604051610539919061358d565b60405180910390f35b34801561054d575f80fd5b50610568600480360381019061056391906134d0565b612506565b6040516105759190613462565b60405180910390f35b610598600480360381019061059391906135a6565b61251b565b005b3480156105a5575f80fd5b506105ae612b54565b6040516105bb9190613462565b60405180910390f35b3480156105cf575f80fd5b506105d8612b5a565b6040516105e59190613462565b60405180910390f35b3480156105f9575f80fd5b50610602612b60565b60405161060f919061358d565b60405180910390f35b348015610623575f80fd5b5061062c612b85565b604051610639919061358d565b60405180910390f35b34801561064d575f80fd5b50610656612baa565b6040516106639190613462565b60405180910390f35b348015610677575f80fd5b50610692600480360381019061068d91906134a5565b612bb0565b6040516106a39594939291906135f6565b60405180910390f35b3480156106b7575f80fd5b506106d260048036038101906106cd91906134d0565b612c2c565b6040516106df9190613462565b60405180910390f35b3480156106f3575f80fd5b5061070e600480360381019061070991906134d0565b612c41565b005b34801561071b575f80fd5b50610724612cc5565b005b348015610731575f80fd5b5061074c600480360381019061074791906134a5565b612e18565b60405161075a929190613647565b60405180910390f35b6009602052815f5260405f20602052805f5260405f205f91509150505481565b61078b612e57565b610793612e9b565b5f60075f8381526020019081526020015f206040518060400160405290815f82015f9054906101000a900473ffffffffffffffffffffffffffffffffffffffff1673ffffffffffffffffffffffffffffffffffffffff1673ffffffffffffffffffffffffffffffffffffffff16815260200160018201548152505090503373ffffffffffffffffffffffffffffffffffffffff16815f015173ffffffffffffffffffffffffffffffffffffffff1614610881576040517f08c379a0000000000000000000000000000000000000000000000000000000008152600401610878906136c8565b60405180910390fd5b6108c660065f8481526020019081526020015f206002015f9054906101000a900473ffffffffffffffffffffffffffffffffffffffff16825f01518360200151612edc565b60075f8381526020019081526020015f205f8082015f6101000a81549073ffffffffffffffffffffffffffffffffffffffff0219169055600182015f905550503373ffffffffffffffffffffffffffffffffffffffff167f5e9c7ae3229b2cda5065d7058fcc05765c695c29ce05313fbe96cb2ca639231a8360405161094c9190613462565b60405180910390a25061095d613036565b50565b61096861303f565b5f73ffffffffffffffffffffffffffffffffffffffff168173ffffffffffffffffffffffffffffffffffffffff16036109d6576040517f08c379a00000000000000000000000000000000000000000000000000000000081526004016109cd90613730565b60405180910390fd5b5f600c5f9054906101000a900473ffffffffffffffffffffffffffffffffffffffff16905081600c5f6101000a81548173ffffffffffffffffffffffffffffffffffffffff021916908373ffffffffffffffffffffffffffffffffffffffff1602179055507f7dcd2c12cfcc397a33bdadd64452f757ead5ae363dcd02873aebbb68d4ee47d08183604051610a6c92919061374e565b60405180910390a15050565b610a8061303f565b5f73ffffffffffffffffffffffffffffffffffffffff168173ffffffffffffffffffffffffffffffffffffffff1603610aee576040517f08c379a0000000000000000000000000000000000000000000000000000000008152600401610ae590613730565b60405180910390fd5b5f600a5f9054906101000a900473ffffffffffffffffffffffffffffffffffffffff16905081600a5f6101000a81548173ffffffffffffffffffffffffffffffffffffffff021916908373ffffffffffffffffffffffffffffffffffffffff1602179055507fc3470c74402cd9ae145a41ef14d7a54822da2ad9e12cbec2c0c70efa93a89cd68183604051610b8492919061374e565b60405180910390a15050565b610b98612e57565b610ba0612e9b565b8060065f8281526020019081526020015f206004015f9054906101000a900460ff16610c01576040517f08c379a0000000000000000000000000000000000000000000000000000000008152600401610bf8906137bf565b60405180910390fd5b5f60065f8481526020019081526020015f2090505f60075f8581526020019081526020015f206040518060400160405290815f82015f9054906101000a900473ffffffffffffffffffffffffffffffffffffffff1673ffffffffffffffffffffffffffffffffffffffff1673ffffffffffffffffffffffffffffffffffffffff16815260200160018201548152505090503373ffffffffffffffffffffffffffffffffffffffff16825f015f9054906101000a900473ffffffffffffffffffffffffffffffffffffffff1673ffffffffffffffffffffffffffffffffffffffff1614610d22576040517f08c379a0000000000000000000000000000000000000000000000000000000008152600401610d1990613827565b60405180910390fd5b5f816020015111610d68576040517f08c379a0000000000000000000000000000000000000000000000000000000008152600401610d5f9061388f565b60405180910390fd5b5f6127106002548360200151610d7e91906138da565b610d889190613948565b90508060045f828254610d9b9190613978565b925050819055505f818360200151610db391906139ab565b90505f73ffffffffffffffffffffffffffffffffffffffff16846002015f9054906101000a900473ffffffffffffffffffffffffffffffffffffffff1673ffffffffffffffffffffffffffffffffffffffff1603610edb575f845f015f9054906101000a900473ffffffffffffffffffffffffffffffffffffffff1673ffffffffffffffffffffffffffffffffffffffff1682604051610e5290613a0b565b5f6040518083038185875af1925050503d805f8114610e8c576040519150601f19603f3d011682016040523d82523d5f602084013e610e91565b606091505b5050905080610ed5576040517f08c379a0000000000000000000000000000000000000000000000000000000008152600401610ecc90613a69565b60405180910390fd5b50610fc2565b8160055f866002015f9054906101000a900473ffffffffffffffffffffffffffffffffffffffff1673ffffffffffffffffffffffffffffffffffffffff1673ffffffffffffffffffffffffffffffffffffffff1681526020019081526020015f205f828254610f4a9190613978565b92505081905550610fc1845f015f9054906101000a900473ffffffffffffffffffffffffffffffffffffffff1682866002015f9054906101000a900473ffffffffffffffffffffffffffffffffffffffff1673ffffffffffffffffffffffffffffffffffffffff166130c69092919063ffffffff16565b5b600d5f9054906101000a900473ffffffffffffffffffffffffffffffffffffffff1673ffffffffffffffffffffffffffffffffffffffff166323b872dd30855f015187600101546040518463ffffffff1660e01b815260040161102793929190613a87565b5f604051808303815f87803b15801561103e575f80fd5b505af1158015611050573d5f803e3d5ffd5b5050505060065f8781526020019081526020015f205f8082015f6101000a81549073ffffffffffffffffffffffffffffffffffffffff0219169055600182015f9055600282015f6101000a81549073ffffffffffffffffffffffffffffffffffffffff0219169055600382015f9055600482015f6101000a81549060ff0219169055505060075f8781526020019081526020015f205f8082015f6101000a81549073ffffffffffffffffffffffffffffffffffffffff0219169055600182015f90555050835f015f9054906101000a900473ffffffffffffffffffffffffffffffffffffffff1673ffffffffffffffffffffffffffffffffffffffff16835f015173ffffffffffffffffffffffffffffffffffffffff167f8562eb94748e30bb0071e932744ce902b460c683474fcb3bfd567ffa16b1afb288866020015160405161119c929190613abc565b60405180910390a350505050506111b1613036565b50565b6111bc612e9b565b6111c4612e57565b60065f8281526020019081526020015f206004015f9054906101000a900460ff16611224576040517f08c379a000000000000000000000000000000000000000000000000000000000815260040161121b906137bf565b60405180910390fd5b3373ffffffffffffffffffffffffffffffffffffffff1660065f8381526020019081526020015f205f015f9054906101000a900473ffffffffffffffffffffffffffffffffffffffff1673ffffffffffffffffffffffffffffffffffffffff16146112c4576040517f08c379a00000000000000000000000000000000000000000000000000000000081526004016112bb90613b2d565b60405180910390fd5b600d5f9054906101000a900473ffffffffffffffffffffffffffffffffffffffff1673ffffffffffffffffffffffffffffffffffffffff166323b872dd3033846040518463ffffffff1660e01b815260040161132293929190613a87565b5f604051808303815f87803b158015611339575f80fd5b505af115801561134b573d5f803e3d5ffd5b5050505060065f8281526020019081526020015f205f8082015f6101000a81549073ffffffffffffffffffffffffffffffffffffffff0219169055600182015f9055600282015f6101000a81549073ffffffffffffffffffffffffffffffffffffffff0219169055600382015f9055600482015f6101000a81549060ff021916905550507f8e25282255ab31897df2b0456bb993ac7f84d376861aefd84901d2d63a7428a28133604051611400929190613b4b565b60405180910390a1611410613036565b50565b61141b61303f565b611423612e9b565b5f8111611465576040517f08c379a000000000000000000000000000000000000000000000000000000000815260040161145c90613bbc565b60405180910390fd5b6003548111156114aa576040517f08c379a00000000000000000000000000000000000000000000000000000000081526004016114a190613c24565b60405180910390fd5b806002819055507fe18aa129833f655a8166b6185277fee7a53f67e46fd32329bc2fc2ac21274d55816040516114e09190613462565b60405180910390a150565b6114f361303f565b6114fb613145565b565b61150561303f565b5f73ffffffffffffffffffffffffffffffffffffffff168173ffffffffffffffffffffffffffffffffffffffff1603611573576040517f08c379a000000000000000000000000000000000000000000000000000000000815260040161156a90613730565b60405180910390fd5b5f600b5f9054906101000a900473ffffffffffffffffffffffffffffffffffffffff16905081600b5f6101000a81548173ffffffffffffffffffffffffffffffffffffffff021916908373ffffffffffffffffffffffffffffffffffffffff1602179055507f495ea904988daa5f88f7d03303cced2c8a506050b1a7d20644a75313de113813818360405161160992919061374e565b60405180910390a15050565b61161d612e57565b5f60085f3373ffffffffffffffffffffffffffffffffffffffff1673ffffffffffffffffffffffffffffffffffffffff1681526020019081526020015f205490505f81116116a0576040517f08c379a000000000000000000000000000000000000000000000000000000000815260040161169790613c8c565b60405180910390fd5b478111156116e3576040517f08c379a00000000000000000000000000000000000000000000000000000000081526004016116da90613cf4565b60405180910390fd5b5f60085f3373ffffffffffffffffffffffffffffffffffffffff1673ffffffffffffffffffffffffffffffffffffffff1681526020019081526020015f20819055505f3373ffffffffffffffffffffffffffffffffffffffff168260405161174a90613a0b565b5f6040518083038185875af1925050503d805f8114611784576040519150601f19603f3d011682016040523d82523d5f602084013e611789565b606091505b50509050806117cd576040517f08c379a00000000000000000000000000000000000000000000000000000000081526004016117c490613d5c565b60405180910390fd5b7fd55b5fe81317b854ac11454adf7e5a9a0adf69184d643ef9ae6bfda6a015c5bc5f338460405161180093929190613a87565b60405180910390a15050611812613036565b565b61181c61303f565b611824612e9b565b5f81118015611834575061038481105b611873576040517f08c379a000000000000000000000000000000000000000000000000000000000815260040161186a90613dc4565b60405180910390fd5b806003819055507f5d46f46c0e5b2045e0cb8c00367d35d9f3f1fc035950ac8f5c675f6c0a791ba0816040516118a99190613462565b60405180910390a150565b6118bc612e57565b5f60095f3373ffffffffffffffffffffffffffffffffffffffff1673ffffffffffffffffffffffffffffffffffffffff1681526020019081526020015f205f8373ffffffffffffffffffffffffffffffffffffffff1673ffffffffffffffffffffffffffffffffffffffff1681526020019081526020015f205490505f811161197a576040517f08c379a000000000000000000000000000000000000000000000000000000000815260040161197190613e2c565b60405180910390fd5b808273ffffffffffffffffffffffffffffffffffffffff166370a08231306040518263ffffffff1660e01b81526004016119b4919061358d565b602060405180830381865afa1580156119cf573d5f803e3d5ffd5b505050506040513d601f19601f820116820180604052508101906119f39190613e5e565b1015611a34576040517f08c379a0000000000000000000000000000000000000000000000000000000008152600401611a2b90613ef9565b60405180910390fd5b5f60095f3373ffffffffffffffffffffffffffffffffffffffff1673ffffffffffffffffffffffffffffffffffffffff1681526020019081526020015f205f8473ffffffffffffffffffffffffffffffffffffffff1673ffffffffffffffffffffffffffffffffffffffff1681526020019081526020015f2081905550611adc33828473ffffffffffffffffffffffffffffffffffffffff166130c69092919063ffffffff16565b7fd55b5fe81317b854ac11454adf7e5a9a0adf69184d643ef9ae6bfda6a015c5bc823383604051611b0f93929190613a87565b60405180910390a150611b20613036565b50565b5f600160149054906101000a900460ff16905090565b611b41612e9b565b823373ffffffffffffffffffffffffffffffffffffffff16600d5f9054906101000a900473ffffffffffffffffffffffffffffffffffffffff1673ffffffffffffffffffffffffffffffffffffffff16636352211e836040518263ffffffff1660e01b8152600401611bb39190613462565b602060405180830381865afa158015611bce573d5f803e3d5ffd5b505050506040513d601f19601f82011682018060405250810190611bf29190613f2b565b73ffffffffffffffffffffffffffffffffffffffff1614611c48576040517f08c379a0000000000000000000000000000000000000000000000000000000008152600401611c3f90613fa0565b60405180910390fd5b825f73ffffffffffffffffffffffffffffffffffffffff168173ffffffffffffffffffffffffffffffffffffffff161480611ccf5750600a5f9054906101000a900473ffffffffffffffffffffffffffffffffffffffff1673ffffffffffffffffffffffffffffffffffffffff168173ffffffffffffffffffffffffffffffffffffffff16145b80611d265750600b5f9054906101000a900473ffffffffffffffffffffffffffffffffffffffff1673ffffffffffffffffffffffffffffffffffffffff168173ffffffffffffffffffffffffffffffffffffffff16145b80611d7d5750600c5f9054906101000a900473ffffffffffffffffffffffffffffffffffffffff1673ffffffffffffffffffffffffffffffffffffffff168173ffffffffffffffffffffffffffffffffffffffff16145b611dbc576040517f08c379a0000000000000000000000000000000000000000000000000000000008152600401611db390614008565b60405180910390fd5b5f8311611dfe576040517f08c379a0000000000000000000000000000000000000000000000000000000008152600401611df590614070565b60405180910390fd5b600d5f9054906101000a900473ffffffffffffffffffffffffffffffffffffffff1673ffffffffffffffffffffffffffffffffffffffff1663e985e9c533306040518363ffffffff1660e01b8152600401611e5a92919061374e565b602060405180830381865afa158015611e75573d5f803e3d5ffd5b505050506040513d601f19601f82011682018060405250810190611e9991906140b8565b80611f6757503073ffffffffffffffffffffffffffffffffffffffff16600d5f9054906101000a900473ffffffffffffffffffffffffffffffffffffffff1673ffffffffffffffffffffffffffffffffffffffff1663081812fc876040518263ffffffff1660e01b8152600401611f109190613462565b602060405180830381865afa158015611f2b573d5f803e3d5ffd5b505050506040513d601f19601f82011682018060405250810190611f4f9190613f2b565b73ffffffffffffffffffffffffffffffffffffffff16145b611fa6576040517f08c379a0000000000000000000000000000000000000000000000000000000008152600401611f9d9061412d565b60405180910390fd5b600d5f9054906101000a900473ffffffffffffffffffffffffffffffffffffffff1673ffffffffffffffffffffffffffffffffffffffff166323b872dd3330886040518463ffffffff1660e01b815260040161200493929190613a87565b5f604051808303815f87803b15801561201b575f80fd5b505af115801561202d573d5f803e3d5ffd5b505050506040518060a001604052803373ffffffffffffffffffffffffffffffffffffffff1681526020018681526020018573ffffffffffffffffffffffffffffffffffffffff1681526020018481526020016001151581525060065f8781526020019081526020015f205f820151815f015f6101000a81548173ffffffffffffffffffffffffffffffffffffffff021916908373ffffffffffffffffffffffffffffffffffffffff160217905550602082015181600101556040820151816002015f6101000a81548173ffffffffffffffffffffffffffffffffffffffff021916908373ffffffffffffffffffffffffffffffffffffffff160217905550606082015181600301556080820151816004015f6101000a81548160ff021916908315150217905550905050843373ffffffffffffffffffffffffffffffffffffffff167fd061156af97cd0d4f446110c8e476140c682158f5621e4bd532b4c5b2e84d12586866040516121a1929190613647565b60405180910390a35050505050565b60025481565b6121be61303f565b6121c75f6131a7565b565b600a5f9054906101000a900473ffffffffffffffffffffffffffffffffffffffff1681565b6121f661303f565b6121fe61326a565b565b61220861303f565b612210612e57565b5f60055f8373ffffffffffffffffffffffffffffffffffffffff1673ffffffffffffffffffffffffffffffffffffffff1681526020019081526020015f205490505f8111612293576040517f08c379a000000000000000000000000000000000000000000000000000000000815260040161228a90614195565b60405180910390fd5b5f60055f8473ffffffffffffffffffffffffffffffffffffffff1673ffffffffffffffffffffffffffffffffffffffff1681526020019081526020015f20819055508173ffffffffffffffffffffffffffffffffffffffff1663a9059cbb6122f96123a6565b836040518363ffffffff1660e01b8152600401612317929190613647565b6020604051808303815f875af1158015612333573d5f803e3d5ffd5b505050506040513d601f19601f8201168201806040525081019061235791906140b8565b507fea48aee669694ac6f98626c299ecc46ccedfc3fcd05314c975bdee3de9b544b66123816123a6565b838360405161239293929190613a87565b60405180910390a1506123a3613036565b50565b5f60015f9054906101000a900473ffffffffffffffffffffffffffffffffffffffff16905090565b6123d661303f565b5f73ffffffffffffffffffffffffffffffffffffffff168173ffffffffffffffffffffffffffffffffffffffff1603612444576040517f08c379a000000000000000000000000000000000000000000000000000000000815260040161243b90613730565b60405180910390fd5b80600d5f6101000a81548173ffffffffffffffffffffffffffffffffffffffff021916908373ffffffffffffffffffffffffffffffffffffffff1602179055507f51d2761f030964e882529b208c5390589ddac658d9a1a6d3b8a1cbaed35e7d33600d5f9054906101000a900473ffffffffffffffffffffffffffffffffffffffff16826040516124d692919061374e565b60405180910390a150565b600b5f9054906101000a900473ffffffffffffffffffffffffffffffffffffffff1681565b6005602052805f5260405f205f915090505481565b612523612e9b565b61252b612e57565b8260065f8281526020019081526020015f206004015f9054906101000a900460ff1661258c576040517f08c379a0000000000000000000000000000000000000000000000000000000008152600401612583906137bf565b60405180910390fd5b815f73ffffffffffffffffffffffffffffffffffffffff168173ffffffffffffffffffffffffffffffffffffffff1614806126135750600a5f9054906101000a900473ffffffffffffffffffffffffffffffffffffffff1673ffffffffffffffffffffffffffffffffffffffff168173ffffffffffffffffffffffffffffffffffffffff16145b8061266a5750600b5f9054906101000a900473ffffffffffffffffffffffffffffffffffffffff1673ffffffffffffffffffffffffffffffffffffffff168173ffffffffffffffffffffffffffffffffffffffff16145b806126c15750600c5f9054906101000a900473ffffffffffffffffffffffffffffffffffffffff1673ffffffffffffffffffffffffffffffffffffffff168173ffffffffffffffffffffffffffffffffffffffff16145b612700576040517f08c379a00000000000000000000000000000000000000000000000000000000081526004016126f790614008565b60405180910390fd5b5f60065f8781526020019081526020015f206040518060a00160405290815f82015f9054906101000a900473ffffffffffffffffffffffffffffffffffffffff1673ffffffffffffffffffffffffffffffffffffffff1673ffffffffffffffffffffffffffffffffffffffff16815260200160018201548152602001600282015f9054906101000a900473ffffffffffffffffffffffffffffffffffffffff1673ffffffffffffffffffffffffffffffffffffffff1673ffffffffffffffffffffffffffffffffffffffff16815260200160038201548152602001600482015f9054906101000a900460ff1615151515815250509050806060015185101561283d576040517f08c379a0000000000000000000000000000000000000000000000000000000008152600401612834906141fd565b60405180910390fd5b5f73ffffffffffffffffffffffffffffffffffffffff16816040015173ffffffffffffffffffffffffffffffffffffffff16036128bb578434146128b6576040517f08c379a00000000000000000000000000000000000000000000000000000000081526004016128ad90614265565b60405180910390fd5b612981565b5f816040015173ffffffffffffffffffffffffffffffffffffffff166323b872dd3330896040518463ffffffff1660e01b81526004016128fd93929190613a87565b6020604051808303815f875af1158015612919573d5f803e3d5ffd5b505050506040513d601f19601f8201168201806040525081019061293d91906140b8565b90508061297f576040517f08c379a0000000000000000000000000000000000000000000000000000000008152600401612976906142cd565b60405180910390fd5b505b5f60075f8881526020019081526020015f206040518060400160405290815f82015f9054906101000a900473ffffffffffffffffffffffffffffffffffffffff1673ffffffffffffffffffffffffffffffffffffffff1673ffffffffffffffffffffffffffffffffffffffff168152602001600182015481525050905080602001518611612a44576040517f08c379a0000000000000000000000000000000000000000000000000000000008152600401612a3b9061435b565b60405180910390fd5b5f81602001511115612a6757612a668260400151825f01518360200151612edc565b5b60405180604001604052803373ffffffffffffffffffffffffffffffffffffffff1681526020018781525060075f8981526020019081526020015f205f820151815f015f6101000a81548173ffffffffffffffffffffffffffffffffffffffff021916908373ffffffffffffffffffffffffffffffffffffffff160217905550602082015181600101559050503373ffffffffffffffffffffffffffffffffffffffff16877f0e54eff26401bf69b81b26f60bd85ef47f5d85275c1d268d84f68d6897431c4788604051612b3b9190613462565b60405180910390a350505050612b4f613036565b505050565b60035481565b60045481565b600c5f9054906101000a900473ffffffffffffffffffffffffffffffffffffffff1681565b600d5f9054906101000a900473ffffffffffffffffffffffffffffffffffffffff1681565b61271081565b6006602052805f5260405f205f91509050805f015f9054906101000a900473ffffffffffffffffffffffffffffffffffffffff1690806001015490806002015f9054906101000a900473ffffffffffffffffffffffffffffffffffffffff1690806003015490806004015f9054906101000a900460ff16905085565b6008602052805f5260405f205f915090505481565b612c4961303f565b5f73ffffffffffffffffffffffffffffffffffffffff168173ffffffffffffffffffffffffffffffffffffffff1603612cb9575f6040517f1e4fbdf7000000000000000000000000000000000000000000000000000000008152600401612cb0919061358d565b60405180910390fd5b612cc2816131a7565b50565b612ccd61303f565b612cd5612e57565b5f60045490505f8111612d1d576040517f08c379a0000000000000000000000000000000000000000000000000000000008152600401612d14906143c3565b60405180910390fd5b5f6004819055505f3373ffffffffffffffffffffffffffffffffffffffff1682604051612d4990613a0b565b5f6040518083038185875af1925050503d805f8114612d83576040519150601f19603f3d011682016040523d82523d5f602084013e612d88565b606091505b5050905080612dcc576040517f08c379a0000000000000000000000000000000000000000000000000000000008152600401612dc39061442b565b60405180910390fd5b7fd6ddd782abf6e1531f3aa9f2801ae73391efd91e3846a441334a4e911f74bf43612df56123a6565b83604051612e04929190613647565b60405180910390a15050612e16613036565b565b6007602052805f5260405f205f91509050805f015f9054906101000a900473ffffffffffffffffffffffffffffffffffffffff16908060010154905082565b60025f5403612e92576040517f3ee5aeb500000000000000000000000000000000000000000000000000000000815260040160405180910390fd5b60025f81905550565b612ea3611b23565b15612eda576040517fd93c066500000000000000000000000000000000000000000000000000000000815260040160405180910390fd5b565b5f73ffffffffffffffffffffffffffffffffffffffff168373ffffffffffffffffffffffffffffffffffffffff1603612f67578060085f8473ffffffffffffffffffffffffffffffffffffffff1673ffffffffffffffffffffffffffffffffffffffff1681526020019081526020015f205f828254612f5b9190613978565b92505081905550612ff6565b8060095f8473ffffffffffffffffffffffffffffffffffffffff1673ffffffffffffffffffffffffffffffffffffffff1681526020019081526020015f205f8573ffffffffffffffffffffffffffffffffffffffff1673ffffffffffffffffffffffffffffffffffffffff1681526020019081526020015f205f828254612fee9190613978565b925050819055505b7f97ded04b4dd3dab6c02011a161d44b56a32fc8dac48ee2a011bc2beed61b16e082848360405161302993929190613a87565b60405180910390a1505050565b60015f81905550565b6130476132cc565b73ffffffffffffffffffffffffffffffffffffffff166130656123a6565b73ffffffffffffffffffffffffffffffffffffffff16146130c4576130886132cc565b6040517f118cdaa70000000000000000000000000000000000000000000000000000000081526004016130bb919061358d565b60405180910390fd5b565b613140838473ffffffffffffffffffffffffffffffffffffffff1663a9059cbb85856040516024016130f9929190613647565b604051602081830303815290604052915060e01b6020820180517bffffffffffffffffffffffffffffffffffffffffffffffffffffffff83818316178352505050506132d3565b505050565b61314d61336e565b5f600160146101000a81548160ff0219169083151502179055507f5db9ee0a495bf2e6ff9c91a7834c1ba4fdd244a5e8aa4e537bd38aeae4b073aa6131906132cc565b60405161319d919061358d565b60405180910390a1565b5f60015f9054906101000a900473ffffffffffffffffffffffffffffffffffffffff1690508160015f6101000a81548173ffffffffffffffffffffffffffffffffffffffff021916908373ffffffffffffffffffffffffffffffffffffffff1602179055508173ffffffffffffffffffffffffffffffffffffffff168173ffffffffffffffffffffffffffffffffffffffff167f8be0079c531659141344cd1fd0a4f28419497f9722a3daafe3b4186f6b6457e060405160405180910390a35050565b613272612e9b565b60018060146101000a81548160ff0219169083151502179055507f62e78cea01bee320cd4e420270b5ea74000d11b0c9f74754ebdbfc544b05a2586132b56132cc565b6040516132c2919061358d565b60405180910390a1565b5f33905090565b5f8060205f8451602086015f885af1806132f2576040513d5f823e3d81fd5b3d92505f519150505f821461330b576001811415613326565b5f8473ffffffffffffffffffffffffffffffffffffffff163b145b1561336857836040517f5274afe700000000000000000000000000000000000000000000000000000000815260040161335f919061358d565b60405180910390fd5b50505050565b613376611b23565b6133ac576040517f8dfc202b00000000000000000000000000000000000000000000000000000000815260040160405180910390fd5b565b5f80fd5b5f73ffffffffffffffffffffffffffffffffffffffff82169050919050565b5f6133db826133b2565b9050919050565b6133eb816133d1565b81146133f5575f80fd5b50565b5f81359050613406816133e2565b92915050565b5f8060408385031215613422576134216133ae565b5b5f61342f858286016133f8565b9250506020613440858286016133f8565b9150509250929050565b5f819050919050565b61345c8161344a565b82525050565b5f6020820190506134755f830184613453565b92915050565b6134848161344a565b811461348e575f80fd5b50565b5f8135905061349f8161347b565b92915050565b5f602082840312156134ba576134b96133ae565b5b5f6134c784828501613491565b91505092915050565b5f602082840312156134e5576134e46133ae565b5b5f6134f2848285016133f8565b91505092915050565b5f8115159050919050565b61350f816134fb565b82525050565b5f6020820190506135285f830184613506565b92915050565b5f805f60608486031215613545576135446133ae565b5b5f61355286828701613491565b9350506020613563868287016133f8565b925050604061357486828701613491565b9150509250925092565b613587816133d1565b82525050565b5f6020820190506135a05f83018461357e565b92915050565b5f805f606084860312156135bd576135bc6133ae565b5b5f6135ca86828701613491565b93505060206135db86828701613491565b92505060406135ec868287016133f8565b9150509250925092565b5f60a0820190506136095f83018861357e565b6136166020830187613453565b613623604083018661357e565b6136306060830185613453565b61363d6080830184613506565b9695505050505050565b5f60408201905061365a5f83018561357e565b6136676020830184613453565b9392505050565b5f82825260208201905092915050565b7f4e6f74207468652063757272656e7420626964646572000000000000000000005f82015250565b5f6136b260168361366e565b91506136bd8261367e565b602082019050919050565b5f6020820190508181035f8301526136df816136a6565b9050919050565b7f496e76616c6964206164647265737300000000000000000000000000000000005f82015250565b5f61371a600f8361366e565b9150613725826136e6565b602082019050919050565b5f6020820190508181035f8301526137478161370e565b9050919050565b5f6040820190506137615f83018561357e565b61376e602083018461357e565b9392505050565b7f4c697374696e67206e6f742061637469766500000000000000000000000000005f82015250565b5f6137a960128361366e565b91506137b482613775565b602082019050919050565b5f6020820190508181035f8301526137d68161379d565b9050919050565b7f4f6e6c792073656c6c65722063616e20616363657074206269640000000000005f82015250565b5f613811601a8361366e565b915061381c826137dd565b602082019050919050565b5f6020820190508181035f83015261383e81613805565b9050919050565b7f4e6f2061637469766520626964000000000000000000000000000000000000005f82015250565b5f613879600d8361366e565b915061388482613845565b602082019050919050565b5f6020820190508181035f8301526138a68161386d565b9050919050565b7f4e487b71000000000000000000000000000000000000000000000000000000005f52601160045260245ffd5b5f6138e48261344a565b91506138ef8361344a565b92508282026138fd8161344a565b91508282048414831517613914576139136138ad565b5b5092915050565b7f4e487b71000000000000000000000000000000000000000000000000000000005f52601260045260245ffd5b5f6139528261344a565b915061395d8361344a565b92508261396d5761396c61391b565b5b828204905092915050565b5f6139828261344a565b915061398d8361344a565b92508282019050808211156139a5576139a46138ad565b5b92915050565b5f6139b58261344a565b91506139c08361344a565b92508282039050818111156139d8576139d76138ad565b5b92915050565b5f81905092915050565b50565b5f6139f65f836139de565b9150613a01826139e8565b5f82019050919050565b5f613a15826139eb565b9150819050919050565b7f455448207472616e7366657220746f2073656c6c6572206661696c65640000005f82015250565b5f613a53601d8361366e565b9150613a5e82613a1f565b602082019050919050565b5f6020820190508181035f830152613a8081613a47565b9050919050565b5f606082019050613a9a5f83018661357e565b613aa7602083018561357e565b613ab46040830184613453565b949350505050565b5f604082019050613acf5f830185613453565b613adc6020830184613453565b9392505050565b7f4e6f74206c697374696e67206f776e65720000000000000000000000000000005f82015250565b5f613b1760118361366e565b9150613b2282613ae3565b602082019050919050565b5f6020820190508181035f830152613b4481613b0b565b9050919050565b5f604082019050613b5e5f830185613453565b613b6b602083018461357e565b9392505050565b7f496e76616c6964206665652075706461746500000000000000000000000000005f82015250565b5f613ba660128361366e565b9150613bb182613b72565b602082019050919050565b5f6020820190508181035f830152613bd381613b9a565b9050919050565b7f4665652065786365656473207468726573686f6c6400000000000000000000005f82015250565b5f613c0e60158361366e565b9150613c1982613bda565b602082019050919050565b5f6020820190508181035f830152613c3b81613c02565b9050919050565b7f4e6f20726566756e6461626c6520616d6f756e740000000000000000000000005f82015250565b5f613c7660148361366e565b9150613c8182613c42565b602082019050919050565b5f6020820190508181035f830152613ca381613c6a565b9050919050565b7f496e73756666696369656e7420636f6e74726163742062616c616e63650000005f82015250565b5f613cde601d8361366e565b9150613ce982613caa565b602082019050919050565b5f6020820190508181035f830152613d0b81613cd2565b9050919050565b7f45544820726566756e642072657175657374206661696c6564000000000000005f82015250565b5f613d4660198361366e565b9150613d5182613d12565b602082019050919050565b5f6020820190508181035f830152613d7381613d3a565b9050919050565b7f466565206d757374206265203e203020616e64203c20393030000000000000005f82015250565b5f613dae60198361366e565b9150613db982613d7a565b602082019050919050565b5f6020820190508181035f830152613ddb81613da2565b9050919050565b7f4e6f20726566756e6461626c6520746f6b656e000000000000000000000000005f82015250565b5f613e1660138361366e565b9150613e2182613de2565b602082019050919050565b5f6020820190508181035f830152613e4381613e0a565b9050919050565b5f81519050613e588161347b565b92915050565b5f60208284031215613e7357613e726133ae565b5b5f613e8084828501613e4a565b91505092915050565b7f496e73756666696369656e74204d61726b6574706c616365277320746f6b656e5f8201527f2062616c616e6365000000000000000000000000000000000000000000000000602082015250565b5f613ee360288361366e565b9150613eee82613e89565b604082019050919050565b5f6020820190508181035f830152613f1081613ed7565b9050919050565b5f81519050613f25816133e2565b92915050565b5f60208284031215613f4057613f3f6133ae565b5b5f613f4d84828501613f17565b91505092915050565b7f4e6f74204e4654206f776e6572000000000000000000000000000000000000005f82015250565b5f613f8a600d8361366e565b9150613f9582613f56565b602082019050919050565b5f6020820190508181035f830152613fb781613f7e565b9050919050565b7f556e737570706f72746564207061796d656e7420746f6b656e000000000000005f82015250565b5f613ff260198361366e565b9150613ffd82613fbe565b602082019050919050565b5f6020820190508181035f83015261401f81613fe6565b9050919050565b7f50726963652073686f756c64206e6f74206265207a65726f00000000000000005f82015250565b5f61405a60188361366e565b915061406582614026565b602082019050919050565b5f6020820190508181035f8301526140878161404e565b9050919050565b614097816134fb565b81146140a1575f80fd5b50565b5f815190506140b28161408e565b92915050565b5f602082840312156140cd576140cc6133ae565b5b5f6140da848285016140a4565b91505092915050565b7f4e465420417070726f76616c20726571756972656400000000000000000000005f82015250565b5f61411760158361366e565b9150614122826140e3565b602082019050919050565b5f6020820190508181035f8301526141448161410b565b9050919050565b7f4e6f20746f6b656e206561726e696e677320746f2077697468647261770000005f82015250565b5f61417f601d8361366e565b915061418a8261414b565b602082019050919050565b5f6020820190508181035f8301526141ac81614173565b9050919050565b7f596f7572206269642069732062656c6f77206d696e696d756d207072696365005f82015250565b5f6141e7601f8361366e565b91506141f2826141b3565b602082019050919050565b5f6020820190508181035f830152614214816141db565b9050919050565b7f496e636f7272656374204554482073656e7400000000000000000000000000005f82015250565b5f61424f60128361366e565b915061425a8261421b565b602082019050919050565b5f6020820190508181035f83015261427c81614243565b9050919050565b7f546f6b656e207472616e73666572206661696c656400000000000000000000005f82015250565b5f6142b760158361366e565b91506142c282614283565b602082019050919050565b5f6020820190508181035f8301526142e4816142ab565b9050919050565b7f426964206d75737420626520686967686572207468616e2063757272656e74205f8201527f6269640000000000000000000000000000000000000000000000000000000000602082015250565b5f61434560238361366e565b9150614350826142eb565b604082019050919050565b5f6020820190508181035f83015261437281614339565b9050919050565b7f4e6f2045544820746f20776974686472617700000000000000000000000000005f82015250565b5f6143ad60128361366e565b91506143b882614379565b602082019050919050565b5f6020820190508181035f8301526143da816143a1565b9050919050565b7f455448206561726e696e6773207472616e73666572206661696c6564000000005f82015250565b5f614415601c8361366e565b9150614420826143e1565b602082019050919050565b5f6020820190508181035f83015261444281614409565b905091905056fea26469706673582212200a7dd5377dde09b0617f887101c570aea25f2c53a7d2dfe18c74eb38e15bf8aa64736f6c63430008180033",
					"opcodes": "PUSH1 0x80 PUSH1 0x40 MSTORE PUSH1 0xC8 PUSH1 0x2 SSTORE PUSH2 0x1F4 PUSH1 0x3 SSTORE CALLVALUE DUP1 ISZERO PUSH3 0x1B JUMPI PUSH0 DUP1 REVERT JUMPDEST POP PUSH1 0x40 MLOAD PUSH3 0x4842 CODESIZE SUB DUP1 PUSH3 0x4842 DUP4 CODECOPY DUP2 DUP2 ADD PUSH1 0x40 MSTORE DUP2 ADD SWAP1 PUSH3 0x41 SWAP2 SWAP1 PUSH3 0x31A JUMP JUMPDEST CALLER PUSH1 0x1 PUSH0 DUP2 SWAP1 SSTORE POP PUSH0 PUSH20 0xFFFFFFFFFFFFFFFFFFFFFFFFFFFFFFFFFFFFFFFF AND DUP2 PUSH20 0xFFFFFFFFFFFFFFFFFFFFFFFFFFFFFFFFFFFFFFFF AND SUB PUSH3 0xBC JUMPI PUSH0 PUSH1 0x40 MLOAD PUSH32 0x1E4FBDF700000000000000000000000000000000000000000000000000000000 DUP2 MSTORE PUSH1 0x4 ADD PUSH3 0xB3 SWAP2 SWAP1 PUSH3 0x39A JUMP JUMPDEST PUSH1 0x40 MLOAD DUP1 SWAP2 SUB SWAP1 REVERT JUMPDEST PUSH3 0xCD DUP2 PUSH3 0x1F2 PUSH1 0x20 SHL PUSH1 0x20 SHR JUMP JUMPDEST POP PUSH0 PUSH1 0x1 PUSH1 0x14 PUSH2 0x100 EXP DUP2 SLOAD DUP2 PUSH1 0xFF MUL NOT AND SWAP1 DUP4 ISZERO ISZERO MUL OR SWAP1 SSTORE POP DUP4 PUSH1 0xD PUSH0 PUSH2 0x100 EXP DUP2 SLOAD DUP2 PUSH20 0xFFFFFFFFFFFFFFFFFFFFFFFFFFFFFFFFFFFFFFFF MUL NOT AND SWAP1 DUP4 PUSH20 0xFFFFFFFFFFFFFFFFFFFFFFFFFFFFFFFFFFFFFFFF AND MUL OR SWAP1 SSTORE POP DUP3 PUSH1 0xA PUSH0 PUSH2 0x100 EXP DUP2 SLOAD DUP2 PUSH20 0xFFFFFFFFFFFFFFFFFFFFFFFFFFFFFFFFFFFFFFFF MUL NOT AND SWAP1 DUP4 PUSH20 0xFFFFFFFFFFFFFFFFFFFFFFFFFFFFFFFFFFFFFFFF AND MUL OR SWAP1 SSTORE POP DUP2 PUSH1 0xB PUSH0 PUSH2 0x100 EXP DUP2 SLOAD DUP2 PUSH20 0xFFFFFFFFFFFFFFFFFFFFFFFFFFFFFFFFFFFFFFFF MUL NOT AND SWAP1 DUP4 PUSH20 0xFFFFFFFFFFFFFFFFFFFFFFFFFFFFFFFFFFFFFFFF AND MUL OR SWAP1 SSTORE POP DUP1 PUSH1 0xC PUSH0 PUSH2 0x100 EXP DUP2 SLOAD DUP2 PUSH20 0xFFFFFFFFFFFFFFFFFFFFFFFFFFFFFFFFFFFFFFFF MUL NOT AND SWAP1 DUP4 PUSH20 0xFFFFFFFFFFFFFFFFFFFFFFFFFFFFFFFFFFFFFFFF AND MUL OR SWAP1 SSTORE POP POP POP POP POP PUSH3 0x3B5 JUMP JUMPDEST PUSH0 PUSH1 0x1 PUSH0 SWAP1 SLOAD SWAP1 PUSH2 0x100 EXP SWAP1 DIV PUSH20 0xFFFFFFFFFFFFFFFFFFFFFFFFFFFFFFFFFFFFFFFF AND SWAP1 POP DUP2 PUSH1 0x1 PUSH0 PUSH2 0x100 EXP DUP2 SLOAD DUP2 PUSH20 0xFFFFFFFFFFFFFFFFFFFFFFFFFFFFFFFFFFFFFFFF MUL NOT AND SWAP1 DUP4 PUSH20 0xFFFFFFFFFFFFFFFFFFFFFFFFFFFFFFFFFFFFFFFF AND MUL OR SWAP1 SSTORE POP DUP2 PUSH20 0xFFFFFFFFFFFFFFFFFFFFFFFFFFFFFFFFFFFFFFFF AND DUP2 PUSH20 0xFFFFFFFFFFFFFFFFFFFFFFFFFFFFFFFFFFFFFFFF AND PUSH32 0x8BE0079C531659141344CD1FD0A4F28419497F9722A3DAAFE3B4186F6B6457E0 PUSH1 0x40 MLOAD PUSH1 0x40 MLOAD DUP1 SWAP2 SUB SWAP1 LOG3 POP POP JUMP JUMPDEST PUSH0 DUP1 REVERT JUMPDEST PUSH0 PUSH20 0xFFFFFFFFFFFFFFFFFFFFFFFFFFFFFFFFFFFFFFFF DUP3 AND SWAP1 POP SWAP2 SWAP1 POP JUMP JUMPDEST PUSH0 PUSH3 0x2E4 DUP3 PUSH3 0x2B9 JUMP JUMPDEST SWAP1 POP SWAP2 SWAP1 POP JUMP JUMPDEST PUSH3 0x2F6 DUP2 PUSH3 0x2D8 JUMP JUMPDEST DUP2 EQ PUSH3 0x301 JUMPI PUSH0 DUP1 REVERT JUMPDEST POP JUMP JUMPDEST PUSH0 DUP2 MLOAD SWAP1 POP PUSH3 0x314 DUP2 PUSH3 0x2EB JUMP JUMPDEST SWAP3 SWAP2 POP POP JUMP JUMPDEST PUSH0 DUP1 PUSH0 DUP1 PUSH1 0x80 DUP6 DUP8 SUB SLT ISZERO PUSH3 0x335 JUMPI PUSH3 0x334 PUSH3 0x2B5 JUMP JUMPDEST JUMPDEST PUSH0 PUSH3 0x344 DUP8 DUP3 DUP9 ADD PUSH3 0x304 JUMP JUMPDEST SWAP5 POP POP PUSH1 0x20 PUSH3 0x357 DUP8 DUP3 DUP9 ADD PUSH3 0x304 JUMP JUMPDEST SWAP4 POP POP PUSH1 0x40 PUSH3 0x36A DUP8 DUP3 DUP9 ADD PUSH3 0x304 JUMP JUMPDEST SWAP3 POP POP PUSH1 0x60 PUSH3 0x37D DUP8 DUP3 DUP9 ADD PUSH3 0x304 JUMP JUMPDEST SWAP2 POP POP SWAP3 SWAP6 SWAP2 SWAP5 POP SWAP3 POP JUMP JUMPDEST PUSH3 0x394 DUP2 PUSH3 0x2D8 JUMP JUMPDEST DUP3 MSTORE POP POP JUMP JUMPDEST PUSH0 PUSH1 0x20 DUP3 ADD SWAP1 POP PUSH3 0x3AF PUSH0 DUP4 ADD DUP5 PUSH3 0x389 JUMP JUMPDEST SWAP3 SWAP2 POP POP JUMP JUMPDEST PUSH2 0x447F DUP1 PUSH3 0x3C3 PUSH0 CODECOPY PUSH0 RETURN INVALID PUSH1 0x80 PUSH1 0x40 MSTORE PUSH1 0x4 CALLDATASIZE LT PUSH2 0x1F8 JUMPI PUSH0 CALLDATALOAD PUSH1 0xE0 SHR DUP1 PUSH4 0x8456CB59 GT PUSH2 0x10C JUMPI DUP1 PUSH4 0xBF6AEE98 GT PUSH2 0x9F JUMPI DUP1 PUSH4 0xDE74E57B GT PUSH2 0x6E JUMPI DUP1 PUSH4 0xDE74E57B EQ PUSH2 0x66C JUMPI DUP1 PUSH4 0xED952CCD EQ PUSH2 0x6AC JUMPI DUP1 PUSH4 0xF2FDE38B EQ PUSH2 0x6E8 JUMPI DUP1 PUSH4 0xFD95C739 EQ PUSH2 0x710 JUMPI DUP1 PUSH4 0xFF743E89 EQ PUSH2 0x726 JUMPI PUSH2 0x1F8 JUMP JUMPDEST DUP1 PUSH4 0xBF6AEE98 EQ PUSH2 0x5C4 JUMPI DUP1 PUSH4 0xC86D4040 EQ PUSH2 0x5EE JUMPI DUP1 PUSH4 0xD56D229D EQ PUSH2 0x618 JUMPI DUP1 PUSH4 0xD73792A9 EQ PUSH2 0x642 JUMPI PUSH2 0x1F8 JUMP JUMPDEST DUP1 PUSH4 0x99C5C8AA GT PUSH2 0xDB JUMPI DUP1 PUSH4 0x99C5C8AA EQ PUSH2 0x518 JUMPI DUP1 PUSH4 0xA3269B09 EQ PUSH2 0x542 JUMPI DUP1 PUSH4 0xAD6561EC EQ PUSH2 0x57E JUMPI DUP1 PUSH4 0xBC063E1A EQ PUSH2 0x59A JUMPI PUSH2 0x1F8 JUMP JUMPDEST DUP1 PUSH4 0x8456CB59 EQ PUSH2 0x488 JUMPI DUP1 PUSH4 0x884282A1 EQ PUSH2 0x49E JUMPI DUP1 PUSH4 0x8DA5CB5B EQ PUSH2 0x4C6 JUMPI DUP1 PUSH4 0x92E67C06 EQ PUSH2 0x4F0 JUMPI PUSH2 0x1F8 JUMP JUMPDEST DUP1 PUSH4 0x4C97CF7C GT PUSH2 0x18F JUMPI DUP1 PUSH4 0x5C975ABB GT PUSH2 0x15E JUMPI DUP1 PUSH4 0x5C975ABB EQ PUSH2 0x3CC JUMPI DUP1 PUSH4 0x65C11BF0 EQ PUSH2 0x3F6 JUMPI DUP1 PUSH4 0x6A166964 EQ PUSH2 0x41E JUMPI DUP1 PUSH4 0x715018A6 EQ PUSH2 0x448 JUMPI DUP1 PUSH4 0x72973791 EQ PUSH2 0x45E JUMPI PUSH2 0x1F8 JUMP JUMPDEST DUP1 PUSH4 0x4C97CF7C EQ PUSH2 0x33E JUMPI DUP1 PUSH4 0x52FB6541 EQ PUSH2 0x366 JUMPI DUP1 PUSH4 0x550DDDEB EQ PUSH2 0x37C JUMPI DUP1 PUSH4 0x5C3B37DB EQ PUSH2 0x3A4 JUMPI PUSH2 0x1F8 JUMP JUMPDEST DUP1 PUSH4 0x2B1FD58A GT PUSH2 0x1CB JUMPI DUP1 PUSH4 0x2B1FD58A EQ PUSH2 0x2B0 JUMPI DUP1 PUSH4 0x305A67A8 EQ PUSH2 0x2D8 JUMPI DUP1 PUSH4 0x30EB80CD EQ PUSH2 0x300 JUMPI DUP1 PUSH4 0x3F4BA83A EQ PUSH2 0x328 JUMPI PUSH2 0x1F8 JUMP JUMPDEST DUP1 PUSH4 0x382D424 EQ PUSH2 0x1FC JUMPI DUP1 PUSH4 0xEAAF4C8 EQ PUSH2 0x238 JUMPI DUP1 PUSH4 0x1E534BE6 EQ PUSH2 0x260 JUMPI DUP1 PUSH4 0x1F8CA0B5 EQ PUSH2 0x288 JUMPI JUMPDEST PUSH0 DUP1 REVERT JUMPDEST CALLVALUE DUP1 ISZERO PUSH2 0x207 JUMPI PUSH0 DUP1 REVERT JUMPDEST POP PUSH2 0x222 PUSH1 0x4 DUP1 CALLDATASIZE SUB DUP2 ADD SWAP1 PUSH2 0x21D SWAP2 SWAP1 PUSH2 0x340C JUMP JUMPDEST PUSH2 0x763 JUMP JUMPDEST PUSH1 0x40 MLOAD PUSH2 0x22F SWAP2 SWAP1 PUSH2 0x3462 JUMP JUMPDEST PUSH1 0x40 MLOAD DUP1 SWAP2 SUB SWAP1 RETURN JUMPDEST CALLVALUE DUP1 ISZERO PUSH2 0x243 JUMPI PUSH0 DUP1 REVERT JUMPDEST POP PUSH2 0x25E PUSH1 0x4 DUP1 CALLDATASIZE SUB DUP2 ADD SWAP1 PUSH2 0x259 SWAP2 SWAP1 PUSH2 0x34A5 JUMP JUMPDEST PUSH2 0x783 JUMP JUMPDEST STOP JUMPDEST CALLVALUE DUP1 ISZERO PUSH2 0x26B JUMPI PUSH0 DUP1 REVERT JUMPDEST POP PUSH2 0x286 PUSH1 0x4 DUP1 CALLDATASIZE SUB DUP2 ADD SWAP1 PUSH2 0x281 SWAP2 SWAP1 PUSH2 0x34D0 JUMP JUMPDEST PUSH2 0x960 JUMP JUMPDEST STOP JUMPDEST CALLVALUE DUP1 ISZERO PUSH2 0x293 JUMPI PUSH0 DUP1 REVERT JUMPDEST POP PUSH2 0x2AE PUSH1 0x4 DUP1 CALLDATASIZE SUB DUP2 ADD SWAP1 PUSH2 0x2A9 SWAP2 SWAP1 PUSH2 0x34D0 JUMP JUMPDEST PUSH2 0xA78 JUMP JUMPDEST STOP JUMPDEST CALLVALUE DUP1 ISZERO PUSH2 0x2BB JUMPI PUSH0 DUP1 REVERT JUMPDEST POP PUSH2 0x2D6 PUSH1 0x4 DUP1 CALLDATASIZE SUB DUP2 ADD SWAP1 PUSH2 0x2D1 SWAP2 SWAP1 PUSH2 0x34A5 JUMP JUMPDEST PUSH2 0xB90 JUMP JUMPDEST STOP JUMPDEST CALLVALUE DUP1 ISZERO PUSH2 0x2E3 JUMPI PUSH0 DUP1 REVERT JUMPDEST POP PUSH2 0x2FE PUSH1 0x4 DUP1 CALLDATASIZE SUB DUP2 ADD SWAP1 PUSH2 0x2F9 SWAP2 SWAP1 PUSH2 0x34A5 JUMP JUMPDEST PUSH2 0x11B4 JUMP JUMPDEST STOP JUMPDEST CALLVALUE DUP1 ISZERO PUSH2 0x30B JUMPI PUSH0 DUP1 REVERT JUMPDEST POP PUSH2 0x326 PUSH1 0x4 DUP1 CALLDATASIZE SUB DUP2 ADD SWAP1 PUSH2 0x321 SWAP2 SWAP1 PUSH2 0x34A5 JUMP JUMPDEST PUSH2 0x1413 JUMP JUMPDEST STOP JUMPDEST CALLVALUE DUP1 ISZERO PUSH2 0x333 JUMPI PUSH0 DUP1 REVERT JUMPDEST POP PUSH2 0x33C PUSH2 0x14EB JUMP JUMPDEST STOP JUMPDEST CALLVALUE DUP1 ISZERO PUSH2 0x349 JUMPI PUSH0 DUP1 REVERT JUMPDEST POP PUSH2 0x364 PUSH1 0x4 DUP1 CALLDATASIZE SUB DUP2 ADD SWAP1 PUSH2 0x35F SWAP2 SWAP1 PUSH2 0x34D0 JUMP JUMPDEST PUSH2 0x14FD JUMP JUMPDEST STOP JUMPDEST CALLVALUE DUP1 ISZERO PUSH2 0x371 JUMPI PUSH0 DUP1 REVERT JUMPDEST POP PUSH2 0x37A PUSH2 0x1615 JUMP JUMPDEST STOP JUMPDEST CALLVALUE DUP1 ISZERO PUSH2 0x387 JUMPI PUSH0 DUP1 REVERT JUMPDEST POP PUSH2 0x3A2 PUSH1 0x4 DUP1 CALLDATASIZE SUB DUP2 ADD SWAP1 PUSH2 0x39D SWAP2 SWAP1 PUSH2 0x34A5 JUMP JUMPDEST PUSH2 0x1814 JUMP JUMPDEST STOP JUMPDEST CALLVALUE DUP1 ISZERO PUSH2 0x3AF JUMPI PUSH0 DUP1 REVERT JUMPDEST POP PUSH2 0x3CA PUSH1 0x4 DUP1 CALLDATASIZE SUB DUP2 ADD SWAP1 PUSH2 0x3C5 SWAP2 SWAP1 PUSH2 0x34D0 JUMP JUMPDEST PUSH2 0x18B4 JUMP JUMPDEST STOP JUMPDEST CALLVALUE DUP1 ISZERO PUSH2 0x3D7 JUMPI PUSH0 DUP1 REVERT JUMPDEST POP PUSH2 0x3E0 PUSH2 0x1B23 JUMP JUMPDEST PUSH1 0x40 MLOAD PUSH2 0x3ED SWAP2 SWAP1 PUSH2 0x3515 JUMP JUMPDEST PUSH1 0x40 MLOAD DUP1 SWAP2 SUB SWAP1 RETURN JUMPDEST CALLVALUE DUP1 ISZERO PUSH2 0x401 JUMPI PUSH0 DUP1 REVERT JUMPDEST POP PUSH2 0x41C PUSH1 0x4 DUP1 CALLDATASIZE SUB DUP2 ADD SWAP1 PUSH2 0x417 SWAP2 SWAP1 PUSH2 0x352E JUMP JUMPDEST PUSH2 0x1B39 JUMP JUMPDEST STOP JUMPDEST CALLVALUE DUP1 ISZERO PUSH2 0x429 JUMPI PUSH0 DUP1 REVERT JUMPDEST POP PUSH2 0x432 PUSH2 0x21B0 JUMP JUMPDEST PUSH1 0x40 MLOAD PUSH2 0x43F SWAP2 SWAP1 PUSH2 0x3462 JUMP JUMPDEST PUSH1 0x40 MLOAD DUP1 SWAP2 SUB SWAP1 RETURN JUMPDEST CALLVALUE DUP1 ISZERO PUSH2 0x453 JUMPI PUSH0 DUP1 REVERT JUMPDEST POP PUSH2 0x45C PUSH2 0x21B6 JUMP JUMPDEST STOP JUMPDEST CALLVALUE DUP1 ISZERO PUSH2 0x469 JUMPI PUSH0 DUP1 REVERT JUMPDEST POP PUSH2 0x472 PUSH2 0x21C9 JUMP JUMPDEST PUSH1 0x40 MLOAD PUSH2 0x47F SWAP2 SWAP1 PUSH2 0x358D JUMP JUMPDEST PUSH1 0x40 MLOAD DUP1 SWAP2 SUB SWAP1 RETURN JUMPDEST CALLVALUE DUP1 ISZERO PUSH2 0x493 JUMPI PUSH0 DUP1 REVERT JUMPDEST POP PUSH2 0x49C PUSH2 0x21EE JUMP JUMPDEST STOP JUMPDEST CALLVALUE DUP1 ISZERO PUSH2 0x4A9 JUMPI PUSH0 DUP1 REVERT JUMPDEST POP PUSH2 0x4C4 PUSH1 0x4 DUP1 CALLDATASIZE SUB DUP2 ADD SWAP1 PUSH2 0x4BF SWAP2 SWAP1 PUSH2 0x34D0 JUMP JUMPDEST PUSH2 0x2200 JUMP JUMPDEST STOP JUMPDEST CALLVALUE DUP1 ISZERO PUSH2 0x4D1 JUMPI PUSH0 DUP1 REVERT JUMPDEST POP PUSH2 0x4DA PUSH2 0x23A6 JUMP JUMPDEST PUSH1 0x40 MLOAD PUSH2 0x4E7 SWAP2 SWAP1 PUSH2 0x358D JUMP JUMPDEST PUSH1 0x40 MLOAD DUP1 SWAP2 SUB SWAP1 RETURN JUMPDEST CALLVALUE DUP1 ISZERO PUSH2 0x4FB JUMPI PUSH0 DUP1 REVERT JUMPDEST POP PUSH2 0x516 PUSH1 0x4 DUP1 CALLDATASIZE SUB DUP2 ADD SWAP1 PUSH2 0x511 SWAP2 SWAP1 PUSH2 0x34D0 JUMP JUMPDEST PUSH2 0x23CE JUMP JUMPDEST STOP JUMPDEST CALLVALUE DUP1 ISZERO PUSH2 0x523 JUMPI PUSH0 DUP1 REVERT JUMPDEST POP PUSH2 0x52C PUSH2 0x24E1 JUMP JUMPDEST PUSH1 0x40 MLOAD PUSH2 0x539 SWAP2 SWAP1 PUSH2 0x358D JUMP JUMPDEST PUSH1 0x40 MLOAD DUP1 SWAP2 SUB SWAP1 RETURN JUMPDEST CALLVALUE DUP1 ISZERO PUSH2 0x54D JUMPI PUSH0 DUP1 REVERT JUMPDEST POP PUSH2 0x568 PUSH1 0x4 DUP1 CALLDATASIZE SUB DUP2 ADD SWAP1 PUSH2 0x563 SWAP2 SWAP1 PUSH2 0x34D0 JUMP JUMPDEST PUSH2 0x2506 JUMP JUMPDEST PUSH1 0x40 MLOAD PUSH2 0x575 SWAP2 SWAP1 PUSH2 0x3462 JUMP JUMPDEST PUSH1 0x40 MLOAD DUP1 SWAP2 SUB SWAP1 RETURN JUMPDEST PUSH2 0x598 PUSH1 0x4 DUP1 CALLDATASIZE SUB DUP2 ADD SWAP1 PUSH2 0x593 SWAP2 SWAP1 PUSH2 0x35A6 JUMP JUMPDEST PUSH2 0x251B JUMP JUMPDEST STOP JUMPDEST CALLVALUE DUP1 ISZERO PUSH2 0x5A5 JUMPI PUSH0 DUP1 REVERT JUMPDEST POP PUSH2 0x5AE PUSH2 0x2B54 JUMP JUMPDEST PUSH1 0x40 MLOAD PUSH2 0x5BB SWAP2 SWAP1 PUSH2 0x3462 JUMP JUMPDEST PUSH1 0x40 MLOAD DUP1 SWAP2 SUB SWAP1 RETURN JUMPDEST CALLVALUE DUP1 ISZERO PUSH2 0x5CF JUMPI PUSH0 DUP1 REVERT JUMPDEST POP PUSH2 0x5D8 PUSH2 0x2B5A JUMP JUMPDEST PUSH1 0x40 MLOAD PUSH2 0x5E5 SWAP2 SWAP1 PUSH2 0x3462 JUMP JUMPDEST PUSH1 0x40 MLOAD DUP1 SWAP2 SUB SWAP1 RETURN JUMPDEST CALLVALUE DUP1 ISZERO PUSH2 0x5F9 JUMPI PUSH0 DUP1 REVERT JUMPDEST POP PUSH2 0x602 PUSH2 0x2B60 JUMP JUMPDEST PUSH1 0x40 MLOAD PUSH2 0x60F SWAP2 SWAP1 PUSH2 0x358D JUMP JUMPDEST PUSH1 0x40 MLOAD DUP1 SWAP2 SUB SWAP1 RETURN JUMPDEST CALLVALUE DUP1 ISZERO PUSH2 0x623 JUMPI PUSH0 DUP1 REVERT JUMPDEST POP PUSH2 0x62C PUSH2 0x2B85 JUMP JUMPDEST PUSH1 0x40 MLOAD PUSH2 0x639 SWAP2 SWAP1 PUSH2 0x358D JUMP JUMPDEST PUSH1 0x40 MLOAD DUP1 SWAP2 SUB SWAP1 RETURN JUMPDEST CALLVALUE DUP1 ISZERO PUSH2 0x64D JUMPI PUSH0 DUP1 REVERT JUMPDEST POP PUSH2 0x656 PUSH2 0x2BAA JUMP JUMPDEST PUSH1 0x40 MLOAD PUSH2 0x663 SWAP2 SWAP1 PUSH2 0x3462 JUMP JUMPDEST PUSH1 0x40 MLOAD DUP1 SWAP2 SUB SWAP1 RETURN JUMPDEST CALLVALUE DUP1 ISZERO PUSH2 0x677 JUMPI PUSH0 DUP1 REVERT JUMPDEST POP PUSH2 0x692 PUSH1 0x4 DUP1 CALLDATASIZE SUB DUP2 ADD SWAP1 PUSH2 0x68D SWAP2 SWAP1 PUSH2 0x34A5 JUMP JUMPDEST PUSH2 0x2BB0 JUMP JUMPDEST PUSH1 0x40 MLOAD PUSH2 0x6A3 SWAP6 SWAP5 SWAP4 SWAP3 SWAP2 SWAP1 PUSH2 0x35F6 JUMP JUMPDEST PUSH1 0x40 MLOAD DUP1 SWAP2 SUB SWAP1 RETURN JUMPDEST CALLVALUE DUP1 ISZERO PUSH2 0x6B7 JUMPI PUSH0 DUP1 REVERT JUMPDEST POP PUSH2 0x6D2 PUSH1 0x4 DUP1 CALLDATASIZE SUB DUP2 ADD SWAP1 PUSH2 0x6CD SWAP2 SWAP1 PUSH2 0x34D0 JUMP JUMPDEST PUSH2 0x2C2C JUMP JUMPDEST PUSH1 0x40 MLOAD PUSH2 0x6DF SWAP2 SWAP1 PUSH2 0x3462 JUMP JUMPDEST PUSH1 0x40 MLOAD DUP1 SWAP2 SUB SWAP1 RETURN JUMPDEST CALLVALUE DUP1 ISZERO PUSH2 0x6F3 JUMPI PUSH0 DUP1 REVERT JUMPDEST POP PUSH2 0x70E PUSH1 0x4 DUP1 CALLDATASIZE SUB DUP2 ADD SWAP1 PUSH2 0x709 SWAP2 SWAP1 PUSH2 0x34D0 JUMP JUMPDEST PUSH2 0x2C41 JUMP JUMPDEST STOP JUMPDEST CALLVALUE DUP1 ISZERO PUSH2 0x71B JUMPI PUSH0 DUP1 REVERT JUMPDEST POP PUSH2 0x724 PUSH2 0x2CC5 JUMP JUMPDEST STOP JUMPDEST CALLVALUE DUP1 ISZERO PUSH2 0x731 JUMPI PUSH0 DUP1 REVERT JUMPDEST POP PUSH2 0x74C PUSH1 0x4 DUP1 CALLDATASIZE SUB DUP2 ADD SWAP1 PUSH2 0x747 SWAP2 SWAP1 PUSH2 0x34A5 JUMP JUMPDEST PUSH2 0x2E18 JUMP JUMPDEST PUSH1 0x40 MLOAD PUSH2 0x75A SWAP3 SWAP2 SWAP1 PUSH2 0x3647 JUMP JUMPDEST PUSH1 0x40 MLOAD DUP1 SWAP2 SUB SWAP1 RETURN JUMPDEST PUSH1 0x9 PUSH1 0x20 MSTORE DUP2 PUSH0 MSTORE PUSH1 0x40 PUSH0 KECCAK256 PUSH1 0x20 MSTORE DUP1 PUSH0 MSTORE PUSH1 0x40 PUSH0 KECCAK256 PUSH0 SWAP2 POP SWAP2 POP POP SLOAD DUP2 JUMP JUMPDEST PUSH2 0x78B PUSH2 0x2E57 JUMP JUMPDEST PUSH2 0x793 PUSH2 0x2E9B JUMP JUMPDEST PUSH0 PUSH1 0x7 PUSH0 DUP4 DUP2 MSTORE PUSH1 0x20 ADD SWAP1 DUP2 MSTORE PUSH1 0x20 ADD PUSH0 KECCAK256 PUSH1 0x40 MLOAD DUP1 PUSH1 0x40 ADD PUSH1 0x40 MSTORE SWAP1 DUP2 PUSH0 DUP3 ADD PUSH0 SWAP1 SLOAD SWAP1 PUSH2 0x100 EXP SWAP1 DIV PUSH20 0xFFFFFFFFFFFFFFFFFFFFFFFFFFFFFFFFFFFFFFFF AND PUSH20 0xFFFFFFFFFFFFFFFFFFFFFFFFFFFFFFFFFFFFFFFF AND PUSH20 0xFFFFFFFFFFFFFFFFFFFFFFFFFFFFFFFFFFFFFFFF AND DUP2 MSTORE PUSH1 0x20 ADD PUSH1 0x1 DUP3 ADD SLOAD DUP2 MSTORE POP POP SWAP1 POP CALLER PUSH20 0xFFFFFFFFFFFFFFFFFFFFFFFFFFFFFFFFFFFFFFFF AND DUP2 PUSH0 ADD MLOAD PUSH20 0xFFFFFFFFFFFFFFFFFFFFFFFFFFFFFFFFFFFFFFFF AND EQ PUSH2 0x881 JUMPI PUSH1 0x40 MLOAD PUSH32 0x8C379A000000000000000000000000000000000000000000000000000000000 DUP2 MSTORE PUSH1 0x4 ADD PUSH2 0x878 SWAP1 PUSH2 0x36C8 JUMP JUMPDEST PUSH1 0x40 MLOAD DUP1 SWAP2 SUB SWAP1 REVERT JUMPDEST PUSH2 0x8C6 PUSH1 0x6 PUSH0 DUP5 DUP2 MSTORE PUSH1 0x20 ADD SWAP1 DUP2 MSTORE PUSH1 0x20 ADD PUSH0 KECCAK256 PUSH1 0x2 ADD PUSH0 SWAP1 SLOAD SWAP1 PUSH2 0x100 EXP SWAP1 DIV PUSH20 0xFFFFFFFFFFFFFFFFFFFFFFFFFFFFFFFFFFFFFFFF AND DUP3 PUSH0 ADD MLOAD DUP4 PUSH1 0x20 ADD MLOAD PUSH2 0x2EDC JUMP JUMPDEST PUSH1 0x7 PUSH0 DUP4 DUP2 MSTORE PUSH1 0x20 ADD SWAP1 DUP2 MSTORE PUSH1 0x20 ADD PUSH0 KECCAK256 PUSH0 DUP1 DUP3 ADD PUSH0 PUSH2 0x100 EXP DUP2 SLOAD SWAP1 PUSH20 0xFFFFFFFFFFFFFFFFFFFFFFFFFFFFFFFFFFFFFFFF MUL NOT AND SWAP1 SSTORE PUSH1 0x1 DUP3 ADD PUSH0 SWAP1 SSTORE POP POP CALLER PUSH20 0xFFFFFFFFFFFFFFFFFFFFFFFFFFFFFFFFFFFFFFFF AND PUSH32 0x5E9C7AE3229B2CDA5065D7058FCC05765C695C29CE05313FBE96CB2CA639231A DUP4 PUSH1 0x40 MLOAD PUSH2 0x94C SWAP2 SWAP1 PUSH2 0x3462 JUMP JUMPDEST PUSH1 0x40 MLOAD DUP1 SWAP2 SUB SWAP1 LOG2 POP PUSH2 0x95D PUSH2 0x3036 JUMP JUMPDEST POP JUMP JUMPDEST PUSH2 0x968 PUSH2 0x303F JUMP JUMPDEST PUSH0 PUSH20 0xFFFFFFFFFFFFFFFFFFFFFFFFFFFFFFFFFFFFFFFF AND DUP2 PUSH20 0xFFFFFFFFFFFFFFFFFFFFFFFFFFFFFFFFFFFFFFFF AND SUB PUSH2 0x9D6 JUMPI PUSH1 0x40 MLOAD PUSH32 0x8C379A000000000000000000000000000000000000000000000000000000000 DUP2 MSTORE PUSH1 0x4 ADD PUSH2 0x9CD SWAP1 PUSH2 0x3730 JUMP JUMPDEST PUSH1 0x40 MLOAD DUP1 SWAP2 SUB SWAP1 REVERT JUMPDEST PUSH0 PUSH1 0xC PUSH0 SWAP1 SLOAD SWAP1 PUSH2 0x100 EXP SWAP1 DIV PUSH20 0xFFFFFFFFFFFFFFFFFFFFFFFFFFFFFFFFFFFFFFFF AND SWAP1 POP DUP2 PUSH1 0xC PUSH0 PUSH2 0x100 EXP DUP2 SLOAD DUP2 PUSH20 0xFFFFFFFFFFFFFFFFFFFFFFFFFFFFFFFFFFFFFFFF MUL NOT AND SWAP1 DUP4 PUSH20 0xFFFFFFFFFFFFFFFFFFFFFFFFFFFFFFFFFFFFFFFF AND MUL OR SWAP1 SSTORE POP PUSH32 0x7DCD2C12CFCC397A33BDADD64452F757EAD5AE363DCD02873AEBBB68D4EE47D0 DUP2 DUP4 PUSH1 0x40 MLOAD PUSH2 0xA6C SWAP3 SWAP2 SWAP1 PUSH2 0x374E JUMP JUMPDEST PUSH1 0x40 MLOAD DUP1 SWAP2 SUB SWAP1 LOG1 POP POP JUMP JUMPDEST PUSH2 0xA80 PUSH2 0x303F JUMP JUMPDEST PUSH0 PUSH20 0xFFFFFFFFFFFFFFFFFFFFFFFFFFFFFFFFFFFFFFFF AND DUP2 PUSH20 0xFFFFFFFFFFFFFFFFFFFFFFFFFFFFFFFFFFFFFFFF AND SUB PUSH2 0xAEE JUMPI PUSH1 0x40 MLOAD PUSH32 0x8C379A000000000000000000000000000000000000000000000000000000000 DUP2 MSTORE PUSH1 0x4 ADD PUSH2 0xAE5 SWAP1 PUSH2 0x3730 JUMP JUMPDEST PUSH1 0x40 MLOAD DUP1 SWAP2 SUB SWAP1 REVERT JUMPDEST PUSH0 PUSH1 0xA PUSH0 SWAP1 SLOAD SWAP1 PUSH2 0x100 EXP SWAP1 DIV PUSH20 0xFFFFFFFFFFFFFFFFFFFFFFFFFFFFFFFFFFFFFFFF AND SWAP1 POP DUP2 PUSH1 0xA PUSH0 PUSH2 0x100 EXP DUP2 SLOAD DUP2 PUSH20 0xFFFFFFFFFFFFFFFFFFFFFFFFFFFFFFFFFFFFFFFF MUL NOT AND SWAP1 DUP4 PUSH20 0xFFFFFFFFFFFFFFFFFFFFFFFFFFFFFFFFFFFFFFFF AND MUL OR SWAP1 SSTORE POP PUSH32 0xC3470C74402CD9AE145A41EF14D7A54822DA2AD9E12CBEC2C0C70EFA93A89CD6 DUP2 DUP4 PUSH1 0x40 MLOAD PUSH2 0xB84 SWAP3 SWAP2 SWAP1 PUSH2 0x374E JUMP JUMPDEST PUSH1 0x40 MLOAD DUP1 SWAP2 SUB SWAP1 LOG1 POP POP JUMP JUMPDEST PUSH2 0xB98 PUSH2 0x2E57 JUMP JUMPDEST PUSH2 0xBA0 PUSH2 0x2E9B JUMP JUMPDEST DUP1 PUSH1 0x6 PUSH0 DUP3 DUP2 MSTORE PUSH1 0x20 ADD SWAP1 DUP2 MSTORE PUSH1 0x20 ADD PUSH0 KECCAK256 PUSH1 0x4 ADD PUSH0 SWAP1 SLOAD SWAP1 PUSH2 0x100 EXP SWAP1 DIV PUSH1 0xFF AND PUSH2 0xC01 JUMPI PUSH1 0x40 MLOAD PUSH32 0x8C379A000000000000000000000000000000000000000000000000000000000 DUP2 MSTORE PUSH1 0x4 ADD PUSH2 0xBF8 SWAP1 PUSH2 0x37BF JUMP JUMPDEST PUSH1 0x40 MLOAD DUP1 SWAP2 SUB SWAP1 REVERT JUMPDEST PUSH0 PUSH1 0x6 PUSH0 DUP5 DUP2 MSTORE PUSH1 0x20 ADD SWAP1 DUP2 MSTORE PUSH1 0x20 ADD PUSH0 KECCAK256 SWAP1 POP PUSH0 PUSH1 0x7 PUSH0 DUP6 DUP2 MSTORE PUSH1 0x20 ADD SWAP1 DUP2 MSTORE PUSH1 0x20 ADD PUSH0 KECCAK256 PUSH1 0x40 MLOAD DUP1 PUSH1 0x40 ADD PUSH1 0x40 MSTORE SWAP1 DUP2 PUSH0 DUP3 ADD PUSH0 SWAP1 SLOAD SWAP1 PUSH2 0x100 EXP SWAP1 DIV PUSH20 0xFFFFFFFFFFFFFFFFFFFFFFFFFFFFFFFFFFFFFFFF AND PUSH20 0xFFFFFFFFFFFFFFFFFFFFFFFFFFFFFFFFFFFFFFFF AND PUSH20 0xFFFFFFFFFFFFFFFFFFFFFFFFFFFFFFFFFFFFFFFF AND DUP2 MSTORE PUSH1 0x20 ADD PUSH1 0x1 DUP3 ADD SLOAD DUP2 MSTORE POP POP SWAP1 POP CALLER PUSH20 0xFFFFFFFFFFFFFFFFFFFFFFFFFFFFFFFFFFFFFFFF AND DUP3 PUSH0 ADD PUSH0 SWAP1 SLOAD SWAP1 PUSH2 0x100 EXP SWAP1 DIV PUSH20 0xFFFFFFFFFFFFFFFFFFFFFFFFFFFFFFFFFFFFFFFF AND PUSH20 0xFFFFFFFFFFFFFFFFFFFFFFFFFFFFFFFFFFFFFFFF AND EQ PUSH2 0xD22 JUMPI PUSH1 0x40 MLOAD PUSH32 0x8C379A000000000000000000000000000000000000000000000000000000000 DUP2 MSTORE PUSH1 0x4 ADD PUSH2 0xD19 SWAP1 PUSH2 0x3827 JUMP JUMPDEST PUSH1 0x40 MLOAD DUP1 SWAP2 SUB SWAP1 REVERT JUMPDEST PUSH0 DUP2 PUSH1 0x20 ADD MLOAD GT PUSH2 0xD68 JUMPI PUSH1 0x40 MLOAD PUSH32 0x8C379A000000000000000000000000000000000000000000000000000000000 DUP2 MSTORE PUSH1 0x4 ADD PUSH2 0xD5F SWAP1 PUSH2 0x388F JUMP JUMPDEST PUSH1 0x40 MLOAD DUP1 SWAP2 SUB SWAP1 REVERT JUMPDEST PUSH0 PUSH2 0x2710 PUSH1 0x2 SLOAD DUP4 PUSH1 0x20 ADD MLOAD PUSH2 0xD7E SWAP2 SWAP1 PUSH2 0x38DA JUMP JUMPDEST PUSH2 0xD88 SWAP2 SWAP1 PUSH2 0x3948 JUMP JUMPDEST SWAP1 POP DUP1 PUSH1 0x4 PUSH0 DUP3 DUP3 SLOAD PUSH2 0xD9B SWAP2 SWAP1 PUSH2 0x3978 JUMP JUMPDEST SWAP3 POP POP DUP2 SWAP1 SSTORE POP PUSH0 DUP2 DUP4 PUSH1 0x20 ADD MLOAD PUSH2 0xDB3 SWAP2 SWAP1 PUSH2 0x39AB JUMP JUMPDEST SWAP1 POP PUSH0 PUSH20 0xFFFFFFFFFFFFFFFFFFFFFFFFFFFFFFFFFFFFFFFF AND DUP5 PUSH1 0x2 ADD PUSH0 SWAP1 SLOAD SWAP1 PUSH2 0x100 EXP SWAP1 DIV PUSH20 0xFFFFFFFFFFFFFFFFFFFFFFFFFFFFFFFFFFFFFFFF AND PUSH20 0xFFFFFFFFFFFFFFFFFFFFFFFFFFFFFFFFFFFFFFFF AND SUB PUSH2 0xEDB JUMPI PUSH0 DUP5 PUSH0 ADD PUSH0 SWAP1 SLOAD SWAP1 PUSH2 0x100 EXP SWAP1 DIV PUSH20 0xFFFFFFFFFFFFFFFFFFFFFFFFFFFFFFFFFFFFFFFF AND PUSH20 0xFFFFFFFFFFFFFFFFFFFFFFFFFFFFFFFFFFFFFFFF AND DUP3 PUSH1 0x40 MLOAD PUSH2 0xE52 SWAP1 PUSH2 0x3A0B JUMP JUMPDEST PUSH0 PUSH1 0x40 MLOAD DUP1 DUP4 SUB DUP2 DUP6 DUP8 GAS CALL SWAP3 POP POP POP RETURNDATASIZE DUP1 PUSH0 DUP2 EQ PUSH2 0xE8C JUMPI PUSH1 0x40 MLOAD SWAP2 POP PUSH1 0x1F NOT PUSH1 0x3F RETURNDATASIZE ADD AND DUP3 ADD PUSH1 0x40 MSTORE RETURNDATASIZE DUP3 MSTORE RETURNDATASIZE PUSH0 PUSH1 0x20 DUP5 ADD RETURNDATACOPY PUSH2 0xE91 JUMP JUMPDEST PUSH1 0x60 SWAP2 POP JUMPDEST POP POP SWAP1 POP DUP1 PUSH2 0xED5 JUMPI PUSH1 0x40 MLOAD PUSH32 0x8C379A000000000000000000000000000000000000000000000000000000000 DUP2 MSTORE PUSH1 0x4 ADD PUSH2 0xECC SWAP1 PUSH2 0x3A69 JUMP JUMPDEST PUSH1 0x40 MLOAD DUP1 SWAP2 SUB SWAP1 REVERT JUMPDEST POP PUSH2 0xFC2 JUMP JUMPDEST DUP2 PUSH1 0x5 PUSH0 DUP7 PUSH1 0x2 ADD PUSH0 SWAP1 SLOAD SWAP1 PUSH2 0x100 EXP SWAP1 DIV PUSH20 0xFFFFFFFFFFFFFFFFFFFFFFFFFFFFFFFFFFFFFFFF AND PUSH20 0xFFFFFFFFFFFFFFFFFFFFFFFFFFFFFFFFFFFFFFFF AND PUSH20 0xFFFFFFFFFFFFFFFFFFFFFFFFFFFFFFFFFFFFFFFF AND DUP2 MSTORE PUSH1 0x20 ADD SWAP1 DUP2 MSTORE PUSH1 0x20 ADD PUSH0 KECCAK256 PUSH0 DUP3 DUP3 SLOAD PUSH2 0xF4A SWAP2 SWAP1 PUSH2 0x3978 JUMP JUMPDEST SWAP3 POP POP DUP2 SWAP1 SSTORE POP PUSH2 0xFC1 DUP5 PUSH0 ADD PUSH0 SWAP1 SLOAD SWAP1 PUSH2 0x100 EXP SWAP1 DIV PUSH20 0xFFFFFFFFFFFFFFFFFFFFFFFFFFFFFFFFFFFFFFFF AND DUP3 DUP7 PUSH1 0x2 ADD PUSH0 SWAP1 SLOAD SWAP1 PUSH2 0x100 EXP SWAP1 DIV PUSH20 0xFFFFFFFFFFFFFFFFFFFFFFFFFFFFFFFFFFFFFFFF AND PUSH20 0xFFFFFFFFFFFFFFFFFFFFFFFFFFFFFFFFFFFFFFFF AND PUSH2 0x30C6 SWAP1 SWAP3 SWAP2 SWAP1 PUSH4 0xFFFFFFFF AND JUMP JUMPDEST JUMPDEST PUSH1 0xD PUSH0 SWAP1 SLOAD SWAP1 PUSH2 0x100 EXP SWAP1 DIV PUSH20 0xFFFFFFFFFFFFFFFFFFFFFFFFFFFFFFFFFFFFFFFF AND PUSH20 0xFFFFFFFFFFFFFFFFFFFFFFFFFFFFFFFFFFFFFFFF AND PUSH4 0x23B872DD ADDRESS DUP6 PUSH0 ADD MLOAD DUP8 PUSH1 0x1 ADD SLOAD PUSH1 0x40 MLOAD DUP5 PUSH4 0xFFFFFFFF AND PUSH1 0xE0 SHL DUP2 MSTORE PUSH1 0x4 ADD PUSH2 0x1027 SWAP4 SWAP3 SWAP2 SWAP1 PUSH2 0x3A87 JUMP JUMPDEST PUSH0 PUSH1 0x40 MLOAD DUP1 DUP4 SUB DUP2 PUSH0 DUP8 DUP1 EXTCODESIZE ISZERO DUP1 ISZERO PUSH2 0x103E JUMPI PUSH0 DUP1 REVERT JUMPDEST POP GAS CALL ISZERO DUP1 ISZERO PUSH2 0x1050 JUMPI RETURNDATASIZE PUSH0 DUP1 RETURNDATACOPY RETURNDATASIZE PUSH0 REVERT JUMPDEST POP POP POP POP PUSH1 0x6 PUSH0 DUP8 DUP2 MSTORE PUSH1 0x20 ADD SWAP1 DUP2 MSTORE PUSH1 0x20 ADD PUSH0 KECCAK256 PUSH0 DUP1 DUP3 ADD PUSH0 PUSH2 0x100 EXP DUP2 SLOAD SWAP1 PUSH20 0xFFFFFFFFFFFFFFFFFFFFFFFFFFFFFFFFFFFFFFFF MUL NOT AND SWAP1 SSTORE PUSH1 0x1 DUP3 ADD PUSH0 SWAP1 SSTORE PUSH1 0x2 DUP3 ADD PUSH0 PUSH2 0x100 EXP DUP2 SLOAD SWAP1 PUSH20 0xFFFFFFFFFFFFFFFFFFFFFFFFFFFFFFFFFFFFFFFF MUL NOT AND SWAP1 SSTORE PUSH1 0x3 DUP3 ADD PUSH0 SWAP1 SSTORE PUSH1 0x4 DUP3 ADD PUSH0 PUSH2 0x100 EXP DUP2 SLOAD SWAP1 PUSH1 0xFF MUL NOT AND SWAP1 SSTORE POP POP PUSH1 0x7 PUSH0 DUP8 DUP2 MSTORE PUSH1 0x20 ADD SWAP1 DUP2 MSTORE PUSH1 0x20 ADD PUSH0 KECCAK256 PUSH0 DUP1 DUP3 ADD PUSH0 PUSH2 0x100 EXP DUP2 SLOAD SWAP1 PUSH20 0xFFFFFFFFFFFFFFFFFFFFFFFFFFFFFFFFFFFFFFFF MUL NOT AND SWAP1 SSTORE PUSH1 0x1 DUP3 ADD PUSH0 SWAP1 SSTORE POP POP DUP4 PUSH0 ADD PUSH0 SWAP1 SLOAD SWAP1 PUSH2 0x100 EXP SWAP1 DIV PUSH20 0xFFFFFFFFFFFFFFFFFFFFFFFFFFFFFFFFFFFFFFFF AND PUSH20 0xFFFFFFFFFFFFFFFFFFFFFFFFFFFFFFFFFFFFFFFF AND DUP4 PUSH0 ADD MLOAD PUSH20 0xFFFFFFFFFFFFFFFFFFFFFFFFFFFFFFFFFFFFFFFF AND PUSH32 0x8562EB94748E30BB0071E932744CE902B460C683474FCB3BFD567FFA16B1AFB2 DUP9 DUP7 PUSH1 0x20 ADD MLOAD PUSH1 0x40 MLOAD PUSH2 0x119C SWAP3 SWAP2 SWAP1 PUSH2 0x3ABC JUMP JUMPDEST PUSH1 0x40 MLOAD DUP1 SWAP2 SUB SWAP1 LOG3 POP POP POP POP POP PUSH2 0x11B1 PUSH2 0x3036 JUMP JUMPDEST POP JUMP JUMPDEST PUSH2 0x11BC PUSH2 0x2E9B JUMP JUMPDEST PUSH2 0x11C4 PUSH2 0x2E57 JUMP JUMPDEST PUSH1 0x6 PUSH0 DUP3 DUP2 MSTORE PUSH1 0x20 ADD SWAP1 DUP2 MSTORE PUSH1 0x20 ADD PUSH0 KECCAK256 PUSH1 0x4 ADD PUSH0 SWAP1 SLOAD SWAP1 PUSH2 0x100 EXP SWAP1 DIV PUSH1 0xFF AND PUSH2 0x1224 JUMPI PUSH1 0x40 MLOAD PUSH32 0x8C379A000000000000000000000000000000000000000000000000000000000 DUP2 MSTORE PUSH1 0x4 ADD PUSH2 0x121B SWAP1 PUSH2 0x37BF JUMP JUMPDEST PUSH1 0x40 MLOAD DUP1 SWAP2 SUB SWAP1 REVERT JUMPDEST CALLER PUSH20 0xFFFFFFFFFFFFFFFFFFFFFFFFFFFFFFFFFFFFFFFF AND PUSH1 0x6 PUSH0 DUP4 DUP2 MSTORE PUSH1 0x20 ADD SWAP1 DUP2 MSTORE PUSH1 0x20 ADD PUSH0 KECCAK256 PUSH0 ADD PUSH0 SWAP1 SLOAD SWAP1 PUSH2 0x100 EXP SWAP1 DIV PUSH20 0xFFFFFFFFFFFFFFFFFFFFFFFFFFFFFFFFFFFFFFFF AND PUSH20 0xFFFFFFFFFFFFFFFFFFFFFFFFFFFFFFFFFFFFFFFF AND EQ PUSH2 0x12C4 JUMPI PUSH1 0x40 MLOAD PUSH32 0x8C379A000000000000000000000000000000000000000000000000000000000 DUP2 MSTORE PUSH1 0x4 ADD PUSH2 0x12BB SWAP1 PUSH2 0x3B2D JUMP JUMPDEST PUSH1 0x40 MLOAD DUP1 SWAP2 SUB SWAP1 REVERT JUMPDEST PUSH1 0xD PUSH0 SWAP1 SLOAD SWAP1 PUSH2 0x100 EXP SWAP1 DIV PUSH20 0xFFFFFFFFFFFFFFFFFFFFFFFFFFFFFFFFFFFFFFFF AND PUSH20 0xFFFFFFFFFFFFFFFFFFFFFFFFFFFFFFFFFFFFFFFF AND PUSH4 0x23B872DD ADDRESS CALLER DUP5 PUSH1 0x40 MLOAD DUP5 PUSH4 0xFFFFFFFF AND PUSH1 0xE0 SHL DUP2 MSTORE PUSH1 0x4 ADD PUSH2 0x1322 SWAP4 SWAP3 SWAP2 SWAP1 PUSH2 0x3A87 JUMP JUMPDEST PUSH0 PUSH1 0x40 MLOAD DUP1 DUP4 SUB DUP2 PUSH0 DUP8 DUP1 EXTCODESIZE ISZERO DUP1 ISZERO PUSH2 0x1339 JUMPI PUSH0 DUP1 REVERT JUMPDEST POP GAS CALL ISZERO DUP1 ISZERO PUSH2 0x134B JUMPI RETURNDATASIZE PUSH0 DUP1 RETURNDATACOPY RETURNDATASIZE PUSH0 REVERT JUMPDEST POP POP POP POP PUSH1 0x6 PUSH0 DUP3 DUP2 MSTORE PUSH1 0x20 ADD SWAP1 DUP2 MSTORE PUSH1 0x20 ADD PUSH0 KECCAK256 PUSH0 DUP1 DUP3 ADD PUSH0 PUSH2 0x100 EXP DUP2 SLOAD SWAP1 PUSH20 0xFFFFFFFFFFFFFFFFFFFFFFFFFFFFFFFFFFFFFFFF MUL NOT AND SWAP1 SSTORE PUSH1 0x1 DUP3 ADD PUSH0 SWAP1 SSTORE PUSH1 0x2 DUP3 ADD PUSH0 PUSH2 0x100 EXP DUP2 SLOAD SWAP1 PUSH20 0xFFFFFFFFFFFFFFFFFFFFFFFFFFFFFFFFFFFFFFFF MUL NOT AND SWAP1 SSTORE PUSH1 0x3 DUP3 ADD PUSH0 SWAP1 SSTORE PUSH1 0x4 DUP3 ADD PUSH0 PUSH2 0x100 EXP DUP2 SLOAD SWAP1 PUSH1 0xFF MUL NOT AND SWAP1 SSTORE POP POP PUSH32 0x8E25282255AB31897DF2B0456BB993AC7F84D376861AEFD84901D2D63A7428A2 DUP2 CALLER PUSH1 0x40 MLOAD PUSH2 0x1400 SWAP3 SWAP2 SWAP1 PUSH2 0x3B4B JUMP JUMPDEST PUSH1 0x40 MLOAD DUP1 SWAP2 SUB SWAP1 LOG1 PUSH2 0x1410 PUSH2 0x3036 JUMP JUMPDEST POP JUMP JUMPDEST PUSH2 0x141B PUSH2 0x303F JUMP JUMPDEST PUSH2 0x1423 PUSH2 0x2E9B JUMP JUMPDEST PUSH0 DUP2 GT PUSH2 0x1465 JUMPI PUSH1 0x40 MLOAD PUSH32 0x8C379A000000000000000000000000000000000000000000000000000000000 DUP2 MSTORE PUSH1 0x4 ADD PUSH2 0x145C SWAP1 PUSH2 0x3BBC JUMP JUMPDEST PUSH1 0x40 MLOAD DUP1 SWAP2 SUB SWAP1 REVERT JUMPDEST PUSH1 0x3 SLOAD DUP2 GT ISZERO PUSH2 0x14AA JUMPI PUSH1 0x40 MLOAD PUSH32 0x8C379A000000000000000000000000000000000000000000000000000000000 DUP2 MSTORE PUSH1 0x4 ADD PUSH2 0x14A1 SWAP1 PUSH2 0x3C24 JUMP JUMPDEST PUSH1 0x40 MLOAD DUP1 SWAP2 SUB SWAP1 REVERT JUMPDEST DUP1 PUSH1 0x2 DUP2 SWAP1 SSTORE POP PUSH32 0xE18AA129833F655A8166B6185277FEE7A53F67E46FD32329BC2FC2AC21274D55 DUP2 PUSH1 0x40 MLOAD PUSH2 0x14E0 SWAP2 SWAP1 PUSH2 0x3462 JUMP JUMPDEST PUSH1 0x40 MLOAD DUP1 SWAP2 SUB SWAP1 LOG1 POP JUMP JUMPDEST PUSH2 0x14F3 PUSH2 0x303F JUMP JUMPDEST PUSH2 0x14FB PUSH2 0x3145 JUMP JUMPDEST JUMP JUMPDEST PUSH2 0x1505 PUSH2 0x303F JUMP JUMPDEST PUSH0 PUSH20 0xFFFFFFFFFFFFFFFFFFFFFFFFFFFFFFFFFFFFFFFF AND DUP2 PUSH20 0xFFFFFFFFFFFFFFFFFFFFFFFFFFFFFFFFFFFFFFFF AND SUB PUSH2 0x1573 JUMPI PUSH1 0x40 MLOAD PUSH32 0x8C379A000000000000000000000000000000000000000000000000000000000 DUP2 MSTORE PUSH1 0x4 ADD PUSH2 0x156A SWAP1 PUSH2 0x3730 JUMP JUMPDEST PUSH1 0x40 MLOAD DUP1 SWAP2 SUB SWAP1 REVERT JUMPDEST PUSH0 PUSH1 0xB PUSH0 SWAP1 SLOAD SWAP1 PUSH2 0x100 EXP SWAP1 DIV PUSH20 0xFFFFFFFFFFFFFFFFFFFFFFFFFFFFFFFFFFFFFFFF AND SWAP1 POP DUP2 PUSH1 0xB PUSH0 PUSH2 0x100 EXP DUP2 SLOAD DUP2 PUSH20 0xFFFFFFFFFFFFFFFFFFFFFFFFFFFFFFFFFFFFFFFF MUL NOT AND SWAP1 DUP4 PUSH20 0xFFFFFFFFFFFFFFFFFFFFFFFFFFFFFFFFFFFFFFFF AND MUL OR SWAP1 SSTORE POP PUSH32 0x495EA904988DAA5F88F7D03303CCED2C8A506050B1A7D20644A75313DE113813 DUP2 DUP4 PUSH1 0x40 MLOAD PUSH2 0x1609 SWAP3 SWAP2 SWAP1 PUSH2 0x374E JUMP JUMPDEST PUSH1 0x40 MLOAD DUP1 SWAP2 SUB SWAP1 LOG1 POP POP JUMP JUMPDEST PUSH2 0x161D PUSH2 0x2E57 JUMP JUMPDEST PUSH0 PUSH1 0x8 PUSH0 CALLER PUSH20 0xFFFFFFFFFFFFFFFFFFFFFFFFFFFFFFFFFFFFFFFF AND PUSH20 0xFFFFFFFFFFFFFFFFFFFFFFFFFFFFFFFFFFFFFFFF AND DUP2 MSTORE PUSH1 0x20 ADD SWAP1 DUP2 MSTORE PUSH1 0x20 ADD PUSH0 KECCAK256 SLOAD SWAP1 POP PUSH0 DUP2 GT PUSH2 0x16A0 JUMPI PUSH1 0x40 MLOAD PUSH32 0x8C379A000000000000000000000000000000000000000000000000000000000 DUP2 MSTORE PUSH1 0x4 ADD PUSH2 0x1697 SWAP1 PUSH2 0x3C8C JUMP JUMPDEST PUSH1 0x40 MLOAD DUP1 SWAP2 SUB SWAP1 REVERT JUMPDEST SELFBALANCE DUP2 GT ISZERO PUSH2 0x16E3 JUMPI PUSH1 0x40 MLOAD PUSH32 0x8C379A000000000000000000000000000000000000000000000000000000000 DUP2 MSTORE PUSH1 0x4 ADD PUSH2 0x16DA SWAP1 PUSH2 0x3CF4 JUMP JUMPDEST PUSH1 0x40 MLOAD DUP1 SWAP2 SUB SWAP1 REVERT JUMPDEST PUSH0 PUSH1 0x8 PUSH0 CALLER PUSH20 0xFFFFFFFFFFFFFFFFFFFFFFFFFFFFFFFFFFFFFFFF AND PUSH20 0xFFFFFFFFFFFFFFFFFFFFFFFFFFFFFFFFFFFFFFFF AND DUP2 MSTORE PUSH1 0x20 ADD SWAP1 DUP2 MSTORE PUSH1 0x20 ADD PUSH0 KECCAK256 DUP2 SWAP1 SSTORE POP PUSH0 CALLER PUSH20 0xFFFFFFFFFFFFFFFFFFFFFFFFFFFFFFFFFFFFFFFF AND DUP3 PUSH1 0x40 MLOAD PUSH2 0x174A SWAP1 PUSH2 0x3A0B JUMP JUMPDEST PUSH0 PUSH1 0x40 MLOAD DUP1 DUP4 SUB DUP2 DUP6 DUP8 GAS CALL SWAP3 POP POP POP RETURNDATASIZE DUP1 PUSH0 DUP2 EQ PUSH2 0x1784 JUMPI PUSH1 0x40 MLOAD SWAP2 POP PUSH1 0x1F NOT PUSH1 0x3F RETURNDATASIZE ADD AND DUP3 ADD PUSH1 0x40 MSTORE RETURNDATASIZE DUP3 MSTORE RETURNDATASIZE PUSH0 PUSH1 0x20 DUP5 ADD RETURNDATACOPY PUSH2 0x1789 JUMP JUMPDEST PUSH1 0x60 SWAP2 POP JUMPDEST POP POP SWAP1 POP DUP1 PUSH2 0x17CD JUMPI PUSH1 0x40 MLOAD PUSH32 0x8C379A000000000000000000000000000000000000000000000000000000000 DUP2 MSTORE PUSH1 0x4 ADD PUSH2 0x17C4 SWAP1 PUSH2 0x3D5C JUMP JUMPDEST PUSH1 0x40 MLOAD DUP1 SWAP2 SUB SWAP1 REVERT JUMPDEST PUSH32 0xD55B5FE81317B854AC11454ADF7E5A9A0ADF69184D643EF9AE6BFDA6A015C5BC PUSH0 CALLER DUP5 PUSH1 0x40 MLOAD PUSH2 0x1800 SWAP4 SWAP3 SWAP2 SWAP1 PUSH2 0x3A87 JUMP JUMPDEST PUSH1 0x40 MLOAD DUP1 SWAP2 SUB SWAP1 LOG1 POP POP PUSH2 0x1812 PUSH2 0x3036 JUMP JUMPDEST JUMP JUMPDEST PUSH2 0x181C PUSH2 0x303F JUMP JUMPDEST PUSH2 0x1824 PUSH2 0x2E9B JUMP JUMPDEST PUSH0 DUP2 GT DUP1 ISZERO PUSH2 0x1834 JUMPI POP PUSH2 0x384 DUP2 LT JUMPDEST PUSH2 0x1873 JUMPI PUSH1 0x40 MLOAD PUSH32 0x8C379A000000000000000000000000000000000000000000000000000000000 DUP2 MSTORE PUSH1 0x4 ADD PUSH2 0x186A SWAP1 PUSH2 0x3DC4 JUMP JUMPDEST PUSH1 0x40 MLOAD DUP1 SWAP2 SUB SWAP1 REVERT JUMPDEST DUP1 PUSH1 0x3 DUP2 SWAP1 SSTORE POP PUSH32 0x5D46F46C0E5B2045E0CB8C00367D35D9F3F1FC035950AC8F5C675F6C0A791BA0 DUP2 PUSH1 0x40 MLOAD PUSH2 0x18A9 SWAP2 SWAP1 PUSH2 0x3462 JUMP JUMPDEST PUSH1 0x40 MLOAD DUP1 SWAP2 SUB SWAP1 LOG1 POP JUMP JUMPDEST PUSH2 0x18BC PUSH2 0x2E57 JUMP JUMPDEST PUSH0 PUSH1 0x9 PUSH0 CALLER PUSH20 0xFFFFFFFFFFFFFFFFFFFFFFFFFFFFFFFFFFFFFFFF AND PUSH20 0xFFFFFFFFFFFFFFFFFFFFFFFFFFFFFFFFFFFFFFFF AND DUP2 MSTORE PUSH1 0x20 ADD SWAP1 DUP2 MSTORE PUSH1 0x20 ADD PUSH0 KECCAK256 PUSH0 DUP4 PUSH20 0xFFFFFFFFFFFFFFFFFFFFFFFFFFFFFFFFFFFFFFFF AND PUSH20 0xFFFFFFFFFFFFFFFFFFFFFFFFFFFFFFFFFFFFFFFF AND DUP2 MSTORE PUSH1 0x20 ADD SWAP1 DUP2 MSTORE PUSH1 0x20 ADD PUSH0 KECCAK256 SLOAD SWAP1 POP PUSH0 DUP2 GT PUSH2 0x197A JUMPI PUSH1 0x40 MLOAD PUSH32 0x8C379A000000000000000000000000000000000000000000000000000000000 DUP2 MSTORE PUSH1 0x4 ADD PUSH2 0x1971 SWAP1 PUSH2 0x3E2C JUMP JUMPDEST PUSH1 0x40 MLOAD DUP1 SWAP2 SUB SWAP1 REVERT JUMPDEST DUP1 DUP3 PUSH20 0xFFFFFFFFFFFFFFFFFFFFFFFFFFFFFFFFFFFFFFFF AND PUSH4 0x70A08231 ADDRESS PUSH1 0x40 MLOAD DUP3 PUSH4 0xFFFFFFFF AND PUSH1 0xE0 SHL DUP2 MSTORE PUSH1 0x4 ADD PUSH2 0x19B4 SWAP2 SWAP1 PUSH2 0x358D JUMP JUMPDEST PUSH1 0x20 PUSH1 0x40 MLOAD DUP1 DUP4 SUB DUP2 DUP7 GAS STATICCALL ISZERO DUP1 ISZERO PUSH2 0x19CF JUMPI RETURNDATASIZE PUSH0 DUP1 RETURNDATACOPY RETURNDATASIZE PUSH0 REVERT JUMPDEST POP POP POP POP PUSH1 0x40 MLOAD RETURNDATASIZE PUSH1 0x1F NOT PUSH1 0x1F DUP3 ADD AND DUP3 ADD DUP1 PUSH1 0x40 MSTORE POP DUP2 ADD SWAP1 PUSH2 0x19F3 SWAP2 SWAP1 PUSH2 0x3E5E JUMP JUMPDEST LT ISZERO PUSH2 0x1A34 JUMPI PUSH1 0x40 MLOAD PUSH32 0x8C379A000000000000000000000000000000000000000000000000000000000 DUP2 MSTORE PUSH1 0x4 ADD PUSH2 0x1A2B SWAP1 PUSH2 0x3EF9 JUMP JUMPDEST PUSH1 0x40 MLOAD DUP1 SWAP2 SUB SWAP1 REVERT JUMPDEST PUSH0 PUSH1 0x9 PUSH0 CALLER PUSH20 0xFFFFFFFFFFFFFFFFFFFFFFFFFFFFFFFFFFFFFFFF AND PUSH20 0xFFFFFFFFFFFFFFFFFFFFFFFFFFFFFFFFFFFFFFFF AND DUP2 MSTORE PUSH1 0x20 ADD SWAP1 DUP2 MSTORE PUSH1 0x20 ADD PUSH0 KECCAK256 PUSH0 DUP5 PUSH20 0xFFFFFFFFFFFFFFFFFFFFFFFFFFFFFFFFFFFFFFFF AND PUSH20 0xFFFFFFFFFFFFFFFFFFFFFFFFFFFFFFFFFFFFFFFF AND DUP2 MSTORE PUSH1 0x20 ADD SWAP1 DUP2 MSTORE PUSH1 0x20 ADD PUSH0 KECCAK256 DUP2 SWAP1 SSTORE POP PUSH2 0x1ADC CALLER DUP3 DUP5 PUSH20 0xFFFFFFFFFFFFFFFFFFFFFFFFFFFFFFFFFFFFFFFF AND PUSH2 0x30C6 SWAP1 SWAP3 SWAP2 SWAP1 PUSH4 0xFFFFFFFF AND JUMP JUMPDEST PUSH32 0xD55B5FE81317B854AC11454ADF7E5A9A0ADF69184D643EF9AE6BFDA6A015C5BC DUP3 CALLER DUP4 PUSH1 0x40 MLOAD PUSH2 0x1B0F SWAP4 SWAP3 SWAP2 SWAP1 PUSH2 0x3A87 JUMP JUMPDEST PUSH1 0x40 MLOAD DUP1 SWAP2 SUB SWAP1 LOG1 POP PUSH2 0x1B20 PUSH2 0x3036 JUMP JUMPDEST POP JUMP JUMPDEST PUSH0 PUSH1 0x1 PUSH1 0x14 SWAP1 SLOAD SWAP1 PUSH2 0x100 EXP SWAP1 DIV PUSH1 0xFF AND SWAP1 POP SWAP1 JUMP JUMPDEST PUSH2 0x1B41 PUSH2 0x2E9B JUMP JUMPDEST DUP3 CALLER PUSH20 0xFFFFFFFFFFFFFFFFFFFFFFFFFFFFFFFFFFFFFFFF AND PUSH1 0xD PUSH0 SWAP1 SLOAD SWAP1 PUSH2 0x100 EXP SWAP1 DIV PUSH20 0xFFFFFFFFFFFFFFFFFFFFFFFFFFFFFFFFFFFFFFFF AND PUSH20 0xFFFFFFFFFFFFFFFFFFFFFFFFFFFFFFFFFFFFFFFF AND PUSH4 0x6352211E DUP4 PUSH1 0x40 MLOAD DUP3 PUSH4 0xFFFFFFFF AND PUSH1 0xE0 SHL DUP2 MSTORE PUSH1 0x4 ADD PUSH2 0x1BB3 SWAP2 SWAP1 PUSH2 0x3462 JUMP JUMPDEST PUSH1 0x20 PUSH1 0x40 MLOAD DUP1 DUP4 SUB DUP2 DUP7 GAS STATICCALL ISZERO DUP1 ISZERO PUSH2 0x1BCE JUMPI RETURNDATASIZE PUSH0 DUP1 RETURNDATACOPY RETURNDATASIZE PUSH0 REVERT JUMPDEST POP POP POP POP PUSH1 0x40 MLOAD RETURNDATASIZE PUSH1 0x1F NOT PUSH1 0x1F DUP3 ADD AND DUP3 ADD DUP1 PUSH1 0x40 MSTORE POP DUP2 ADD SWAP1 PUSH2 0x1BF2 SWAP2 SWAP1 PUSH2 0x3F2B JUMP JUMPDEST PUSH20 0xFFFFFFFFFFFFFFFFFFFFFFFFFFFFFFFFFFFFFFFF AND EQ PUSH2 0x1C48 JUMPI PUSH1 0x40 MLOAD PUSH32 0x8C379A000000000000000000000000000000000000000000000000000000000 DUP2 MSTORE PUSH1 0x4 ADD PUSH2 0x1C3F SWAP1 PUSH2 0x3FA0 JUMP JUMPDEST PUSH1 0x40 MLOAD DUP1 SWAP2 SUB SWAP1 REVERT JUMPDEST DUP3 PUSH0 PUSH20 0xFFFFFFFFFFFFFFFFFFFFFFFFFFFFFFFFFFFFFFFF AND DUP2 PUSH20 0xFFFFFFFFFFFFFFFFFFFFFFFFFFFFFFFFFFFFFFFF AND EQ DUP1 PUSH2 0x1CCF JUMPI POP PUSH1 0xA PUSH0 SWAP1 SLOAD SWAP1 PUSH2 0x100 EXP SWAP1 DIV PUSH20 0xFFFFFFFFFFFFFFFFFFFFFFFFFFFFFFFFFFFFFFFF AND PUSH20 0xFFFFFFFFFFFFFFFFFFFFFFFFFFFFFFFFFFFFFFFF AND DUP2 PUSH20 0xFFFFFFFFFFFFFFFFFFFFFFFFFFFFFFFFFFFFFFFF AND EQ JUMPDEST DUP1 PUSH2 0x1D26 JUMPI POP PUSH1 0xB PUSH0 SWAP1 SLOAD SWAP1 PUSH2 0x100 EXP SWAP1 DIV PUSH20 0xFFFFFFFFFFFFFFFFFFFFFFFFFFFFFFFFFFFFFFFF AND PUSH20 0xFFFFFFFFFFFFFFFFFFFFFFFFFFFFFFFFFFFFFFFF AND DUP2 PUSH20 0xFFFFFFFFFFFFFFFFFFFFFFFFFFFFFFFFFFFFFFFF AND EQ JUMPDEST DUP1 PUSH2 0x1D7D JUMPI POP PUSH1 0xC PUSH0 SWAP1 SLOAD SWAP1 PUSH2 0x100 EXP SWAP1 DIV PUSH20 0xFFFFFFFFFFFFFFFFFFFFFFFFFFFFFFFFFFFFFFFF AND PUSH20 0xFFFFFFFFFFFFFFFFFFFFFFFFFFFFFFFFFFFFFFFF AND DUP2 PUSH20 0xFFFFFFFFFFFFFFFFFFFFFFFFFFFFFFFFFFFFFFFF AND EQ JUMPDEST PUSH2 0x1DBC JUMPI PUSH1 0x40 MLOAD PUSH32 0x8C379A000000000000000000000000000000000000000000000000000000000 DUP2 MSTORE PUSH1 0x4 ADD PUSH2 0x1DB3 SWAP1 PUSH2 0x4008 JUMP JUMPDEST PUSH1 0x40 MLOAD DUP1 SWAP2 SUB SWAP1 REVERT JUMPDEST PUSH0 DUP4 GT PUSH2 0x1DFE JUMPI PUSH1 0x40 MLOAD PUSH32 0x8C379A000000000000000000000000000000000000000000000000000000000 DUP2 MSTORE PUSH1 0x4 ADD PUSH2 0x1DF5 SWAP1 PUSH2 0x4070 JUMP JUMPDEST PUSH1 0x40 MLOAD DUP1 SWAP2 SUB SWAP1 REVERT JUMPDEST PUSH1 0xD PUSH0 SWAP1 SLOAD SWAP1 PUSH2 0x100 EXP SWAP1 DIV PUSH20 0xFFFFFFFFFFFFFFFFFFFFFFFFFFFFFFFFFFFFFFFF AND PUSH20 0xFFFFFFFFFFFFFFFFFFFFFFFFFFFFFFFFFFFFFFFF AND PUSH4 0xE985E9C5 CALLER ADDRESS PUSH1 0x40 MLOAD DUP4 PUSH4 0xFFFFFFFF AND PUSH1 0xE0 SHL DUP2 MSTORE PUSH1 0x4 ADD PUSH2 0x1E5A SWAP3 SWAP2 SWAP1 PUSH2 0x374E JUMP JUMPDEST PUSH1 0x20 PUSH1 0x40 MLOAD DUP1 DUP4 SUB DUP2 DUP7 GAS STATICCALL ISZERO DUP1 ISZERO PUSH2 0x1E75 JUMPI RETURNDATASIZE PUSH0 DUP1 RETURNDATACOPY RETURNDATASIZE PUSH0 REVERT JUMPDEST POP POP POP POP PUSH1 0x40 MLOAD RETURNDATASIZE PUSH1 0x1F NOT PUSH1 0x1F DUP3 ADD AND DUP3 ADD DUP1 PUSH1 0x40 MSTORE POP DUP2 ADD SWAP1 PUSH2 0x1E99 SWAP2 SWAP1 PUSH2 0x40B8 JUMP JUMPDEST DUP1 PUSH2 0x1F67 JUMPI POP ADDRESS PUSH20 0xFFFFFFFFFFFFFFFFFFFFFFFFFFFFFFFFFFFFFFFF AND PUSH1 0xD PUSH0 SWAP1 SLOAD SWAP1 PUSH2 0x100 EXP SWAP1 DIV PUSH20 0xFFFFFFFFFFFFFFFFFFFFFFFFFFFFFFFFFFFFFFFF AND PUSH20 0xFFFFFFFFFFFFFFFFFFFFFFFFFFFFFFFFFFFFFFFF AND PUSH4 0x81812FC DUP8 PUSH1 0x40 MLOAD DUP3 PUSH4 0xFFFFFFFF AND PUSH1 0xE0 SHL DUP2 MSTORE PUSH1 0x4 ADD PUSH2 0x1F10 SWAP2 SWAP1 PUSH2 0x3462 JUMP JUMPDEST PUSH1 0x20 PUSH1 0x40 MLOAD DUP1 DUP4 SUB DUP2 DUP7 GAS STATICCALL ISZERO DUP1 ISZERO PUSH2 0x1F2B JUMPI RETURNDATASIZE PUSH0 DUP1 RETURNDATACOPY RETURNDATASIZE PUSH0 REVERT JUMPDEST POP POP POP POP PUSH1 0x40 MLOAD RETURNDATASIZE PUSH1 0x1F NOT PUSH1 0x1F DUP3 ADD AND DUP3 ADD DUP1 PUSH1 0x40 MSTORE POP DUP2 ADD SWAP1 PUSH2 0x1F4F SWAP2 SWAP1 PUSH2 0x3F2B JUMP JUMPDEST PUSH20 0xFFFFFFFFFFFFFFFFFFFFFFFFFFFFFFFFFFFFFFFF AND EQ JUMPDEST PUSH2 0x1FA6 JUMPI PUSH1 0x40 MLOAD PUSH32 0x8C379A000000000000000000000000000000000000000000000000000000000 DUP2 MSTORE PUSH1 0x4 ADD PUSH2 0x1F9D SWAP1 PUSH2 0x412D JUMP JUMPDEST PUSH1 0x40 MLOAD DUP1 SWAP2 SUB SWAP1 REVERT JUMPDEST PUSH1 0xD PUSH0 SWAP1 SLOAD SWAP1 PUSH2 0x100 EXP SWAP1 DIV PUSH20 0xFFFFFFFFFFFFFFFFFFFFFFFFFFFFFFFFFFFFFFFF AND PUSH20 0xFFFFFFFFFFFFFFFFFFFFFFFFFFFFFFFFFFFFFFFF AND PUSH4 0x23B872DD CALLER ADDRESS DUP9 PUSH1 0x40 MLOAD DUP5 PUSH4 0xFFFFFFFF AND PUSH1 0xE0 SHL DUP2 MSTORE PUSH1 0x4 ADD PUSH2 0x2004 SWAP4 SWAP3 SWAP2 SWAP1 PUSH2 0x3A87 JUMP JUMPDEST PUSH0 PUSH1 0x40 MLOAD DUP1 DUP4 SUB DUP2 PUSH0 DUP8 DUP1 EXTCODESIZE ISZERO DUP1 ISZERO PUSH2 0x201B JUMPI PUSH0 DUP1 REVERT JUMPDEST POP GAS CALL ISZERO DUP1 ISZERO PUSH2 0x202D JUMPI RETURNDATASIZE PUSH0 DUP1 RETURNDATACOPY RETURNDATASIZE PUSH0 REVERT JUMPDEST POP POP POP POP PUSH1 0x40 MLOAD DUP1 PUSH1 0xA0 ADD PUSH1 0x40 MSTORE DUP1 CALLER PUSH20 0xFFFFFFFFFFFFFFFFFFFFFFFFFFFFFFFFFFFFFFFF AND DUP2 MSTORE PUSH1 0x20 ADD DUP7 DUP2 MSTORE PUSH1 0x20 ADD DUP6 PUSH20 0xFFFFFFFFFFFFFFFFFFFFFFFFFFFFFFFFFFFFFFFF AND DUP2 MSTORE PUSH1 0x20 ADD DUP5 DUP2 MSTORE PUSH1 0x20 ADD PUSH1 0x1 ISZERO ISZERO DUP2 MSTORE POP PUSH1 0x6 PUSH0 DUP8 DUP2 MSTORE PUSH1 0x20 ADD SWAP1 DUP2 MSTORE PUSH1 0x20 ADD PUSH0 KECCAK256 PUSH0 DUP3 ADD MLOAD DUP2 PUSH0 ADD PUSH0 PUSH2 0x100 EXP DUP2 SLOAD DUP2 PUSH20 0xFFFFFFFFFFFFFFFFFFFFFFFFFFFFFFFFFFFFFFFF MUL NOT AND SWAP1 DUP4 PUSH20 0xFFFFFFFFFFFFFFFFFFFFFFFFFFFFFFFFFFFFFFFF AND MUL OR SWAP1 SSTORE POP PUSH1 0x20 DUP3 ADD MLOAD DUP2 PUSH1 0x1 ADD SSTORE PUSH1 0x40 DUP3 ADD MLOAD DUP2 PUSH1 0x2 ADD PUSH0 PUSH2 0x100 EXP DUP2 SLOAD DUP2 PUSH20 0xFFFFFFFFFFFFFFFFFFFFFFFFFFFFFFFFFFFFFFFF MUL NOT AND SWAP1 DUP4 PUSH20 0xFFFFFFFFFFFFFFFFFFFFFFFFFFFFFFFFFFFFFFFF AND MUL OR SWAP1 SSTORE POP PUSH1 0x60 DUP3 ADD MLOAD DUP2 PUSH1 0x3 ADD SSTORE PUSH1 0x80 DUP3 ADD MLOAD DUP2 PUSH1 0x4 ADD PUSH0 PUSH2 0x100 EXP DUP2 SLOAD DUP2 PUSH1 0xFF MUL NOT AND SWAP1 DUP4 ISZERO ISZERO MUL OR SWAP1 SSTORE POP SWAP1 POP POP DUP5 CALLER PUSH20 0xFFFFFFFFFFFFFFFFFFFFFFFFFFFFFFFFFFFFFFFF AND PUSH32 0xD061156AF97CD0D4F446110C8E476140C682158F5621E4BD532B4C5B2E84D125 DUP7 DUP7 PUSH1 0x40 MLOAD PUSH2 0x21A1 SWAP3 SWAP2 SWAP1 PUSH2 0x3647 JUMP JUMPDEST PUSH1 0x40 MLOAD DUP1 SWAP2 SUB SWAP1 LOG3 POP POP POP POP POP JUMP JUMPDEST PUSH1 0x2 SLOAD DUP2 JUMP JUMPDEST PUSH2 0x21BE PUSH2 0x303F JUMP JUMPDEST PUSH2 0x21C7 PUSH0 PUSH2 0x31A7 JUMP JUMPDEST JUMP JUMPDEST PUSH1 0xA PUSH0 SWAP1 SLOAD SWAP1 PUSH2 0x100 EXP SWAP1 DIV PUSH20 0xFFFFFFFFFFFFFFFFFFFFFFFFFFFFFFFFFFFFFFFF AND DUP2 JUMP JUMPDEST PUSH2 0x21F6 PUSH2 0x303F JUMP JUMPDEST PUSH2 0x21FE PUSH2 0x326A JUMP JUMPDEST JUMP JUMPDEST PUSH2 0x2208 PUSH2 0x303F JUMP JUMPDEST PUSH2 0x2210 PUSH2 0x2E57 JUMP JUMPDEST PUSH0 PUSH1 0x5 PUSH0 DUP4 PUSH20 0xFFFFFFFFFFFFFFFFFFFFFFFFFFFFFFFFFFFFFFFF AND PUSH20 0xFFFFFFFFFFFFFFFFFFFFFFFFFFFFFFFFFFFFFFFF AND DUP2 MSTORE PUSH1 0x20 ADD SWAP1 DUP2 MSTORE PUSH1 0x20 ADD PUSH0 KECCAK256 SLOAD SWAP1 POP PUSH0 DUP2 GT PUSH2 0x2293 JUMPI PUSH1 0x40 MLOAD PUSH32 0x8C379A000000000000000000000000000000000000000000000000000000000 DUP2 MSTORE PUSH1 0x4 ADD PUSH2 0x228A SWAP1 PUSH2 0x4195 JUMP JUMPDEST PUSH1 0x40 MLOAD DUP1 SWAP2 SUB SWAP1 REVERT JUMPDEST PUSH0 PUSH1 0x5 PUSH0 DUP5 PUSH20 0xFFFFFFFFFFFFFFFFFFFFFFFFFFFFFFFFFFFFFFFF AND PUSH20 0xFFFFFFFFFFFFFFFFFFFFFFFFFFFFFFFFFFFFFFFF AND DUP2 MSTORE PUSH1 0x20 ADD SWAP1 DUP2 MSTORE PUSH1 0x20 ADD PUSH0 KECCAK256 DUP2 SWAP1 SSTORE POP DUP2 PUSH20 0xFFFFFFFFFFFFFFFFFFFFFFFFFFFFFFFFFFFFFFFF AND PUSH4 0xA9059CBB PUSH2 0x22F9 PUSH2 0x23A6 JUMP JUMPDEST DUP4 PUSH1 0x40 MLOAD DUP4 PUSH4 0xFFFFFFFF AND PUSH1 0xE0 SHL DUP2 MSTORE PUSH1 0x4 ADD PUSH2 0x2317 SWAP3 SWAP2 SWAP1 PUSH2 0x3647 JUMP JUMPDEST PUSH1 0x20 PUSH1 0x40 MLOAD DUP1 DUP4 SUB DUP2 PUSH0 DUP8 GAS CALL ISZERO DUP1 ISZERO PUSH2 0x2333 JUMPI RETURNDATASIZE PUSH0 DUP1 RETURNDATACOPY RETURNDATASIZE PUSH0 REVERT JUMPDEST POP POP POP POP PUSH1 0x40 MLOAD RETURNDATASIZE PUSH1 0x1F NOT PUSH1 0x1F DUP3 ADD AND DUP3 ADD DUP1 PUSH1 0x40 MSTORE POP DUP2 ADD SWAP1 PUSH2 0x2357 SWAP2 SWAP1 PUSH2 0x40B8 JUMP JUMPDEST POP PUSH32 0xEA48AEE669694AC6F98626C299ECC46CCEDFC3FCD05314C975BDEE3DE9B544B6 PUSH2 0x2381 PUSH2 0x23A6 JUMP JUMPDEST DUP4 DUP4 PUSH1 0x40 MLOAD PUSH2 0x2392 SWAP4 SWAP3 SWAP2 SWAP1 PUSH2 0x3A87 JUMP JUMPDEST PUSH1 0x40 MLOAD DUP1 SWAP2 SUB SWAP1 LOG1 POP PUSH2 0x23A3 PUSH2 0x3036 JUMP JUMPDEST POP JUMP JUMPDEST PUSH0 PUSH1 0x1 PUSH0 SWAP1 SLOAD SWAP1 PUSH2 0x100 EXP SWAP1 DIV PUSH20 0xFFFFFFFFFFFFFFFFFFFFFFFFFFFFFFFFFFFFFFFF AND SWAP1 POP SWAP1 JUMP JUMPDEST PUSH2 0x23D6 PUSH2 0x303F JUMP JUMPDEST PUSH0 PUSH20 0xFFFFFFFFFFFFFFFFFFFFFFFFFFFFFFFFFFFFFFFF AND DUP2 PUSH20 0xFFFFFFFFFFFFFFFFFFFFFFFFFFFFFFFFFFFFFFFF AND SUB PUSH2 0x2444 JUMPI PUSH1 0x40 MLOAD PUSH32 0x8C379A000000000000000000000000000000000000000000000000000000000 DUP2 MSTORE PUSH1 0x4 ADD PUSH2 0x243B SWAP1 PUSH2 0x3730 JUMP JUMPDEST PUSH1 0x40 MLOAD DUP1 SWAP2 SUB SWAP1 REVERT JUMPDEST DUP1 PUSH1 0xD PUSH0 PUSH2 0x100 EXP DUP2 SLOAD DUP2 PUSH20 0xFFFFFFFFFFFFFFFFFFFFFFFFFFFFFFFFFFFFFFFF MUL NOT AND SWAP1 DUP4 PUSH20 0xFFFFFFFFFFFFFFFFFFFFFFFFFFFFFFFFFFFFFFFF AND MUL OR SWAP1 SSTORE POP PUSH32 0x51D2761F030964E882529B208C5390589DDAC658D9A1A6D3B8A1CBAED35E7D33 PUSH1 0xD PUSH0 SWAP1 SLOAD SWAP1 PUSH2 0x100 EXP SWAP1 DIV PUSH20 0xFFFFFFFFFFFFFFFFFFFFFFFFFFFFFFFFFFFFFFFF AND DUP3 PUSH1 0x40 MLOAD PUSH2 0x24D6 SWAP3 SWAP2 SWAP1 PUSH2 0x374E JUMP JUMPDEST PUSH1 0x40 MLOAD DUP1 SWAP2 SUB SWAP1 LOG1 POP JUMP JUMPDEST PUSH1 0xB PUSH0 SWAP1 SLOAD SWAP1 PUSH2 0x100 EXP SWAP1 DIV PUSH20 0xFFFFFFFFFFFFFFFFFFFFFFFFFFFFFFFFFFFFFFFF AND DUP2 JUMP JUMPDEST PUSH1 0x5 PUSH1 0x20 MSTORE DUP1 PUSH0 MSTORE PUSH1 0x40 PUSH0 KECCAK256 PUSH0 SWAP2 POP SWAP1 POP SLOAD DUP2 JUMP JUMPDEST PUSH2 0x2523 PUSH2 0x2E9B JUMP JUMPDEST PUSH2 0x252B PUSH2 0x2E57 JUMP JUMPDEST DUP3 PUSH1 0x6 PUSH0 DUP3 DUP2 MSTORE PUSH1 0x20 ADD SWAP1 DUP2 MSTORE PUSH1 0x20 ADD PUSH0 KECCAK256 PUSH1 0x4 ADD PUSH0 SWAP1 SLOAD SWAP1 PUSH2 0x100 EXP SWAP1 DIV PUSH1 0xFF AND PUSH2 0x258C JUMPI PUSH1 0x40 MLOAD PUSH32 0x8C379A000000000000000000000000000000000000000000000000000000000 DUP2 MSTORE PUSH1 0x4 ADD PUSH2 0x2583 SWAP1 PUSH2 0x37BF JUMP JUMPDEST PUSH1 0x40 MLOAD DUP1 SWAP2 SUB SWAP1 REVERT JUMPDEST DUP2 PUSH0 PUSH20 0xFFFFFFFFFFFFFFFFFFFFFFFFFFFFFFFFFFFFFFFF AND DUP2 PUSH20 0xFFFFFFFFFFFFFFFFFFFFFFFFFFFFFFFFFFFFFFFF AND EQ DUP1 PUSH2 0x2613 JUMPI POP PUSH1 0xA PUSH0 SWAP1 SLOAD SWAP1 PUSH2 0x100 EXP SWAP1 DIV PUSH20 0xFFFFFFFFFFFFFFFFFFFFFFFFFFFFFFFFFFFFFFFF AND PUSH20 0xFFFFFFFFFFFFFFFFFFFFFFFFFFFFFFFFFFFFFFFF AND DUP2 PUSH20 0xFFFFFFFFFFFFFFFFFFFFFFFFFFFFFFFFFFFFFFFF AND EQ JUMPDEST DUP1 PUSH2 0x266A JUMPI POP PUSH1 0xB PUSH0 SWAP1 SLOAD SWAP1 PUSH2 0x100 EXP SWAP1 DIV PUSH20 0xFFFFFFFFFFFFFFFFFFFFFFFFFFFFFFFFFFFFFFFF AND PUSH20 0xFFFFFFFFFFFFFFFFFFFFFFFFFFFFFFFFFFFFFFFF AND DUP2 PUSH20 0xFFFFFFFFFFFFFFFFFFFFFFFFFFFFFFFFFFFFFFFF AND EQ JUMPDEST DUP1 PUSH2 0x26C1 JUMPI POP PUSH1 0xC PUSH0 SWAP1 SLOAD SWAP1 PUSH2 0x100 EXP SWAP1 DIV PUSH20 0xFFFFFFFFFFFFFFFFFFFFFFFFFFFFFFFFFFFFFFFF AND PUSH20 0xFFFFFFFFFFFFFFFFFFFFFFFFFFFFFFFFFFFFFFFF AND DUP2 PUSH20 0xFFFFFFFFFFFFFFFFFFFFFFFFFFFFFFFFFFFFFFFF AND EQ JUMPDEST PUSH2 0x2700 JUMPI PUSH1 0x40 MLOAD PUSH32 0x8C379A000000000000000000000000000000000000000000000000000000000 DUP2 MSTORE PUSH1 0x4 ADD PUSH2 0x26F7 SWAP1 PUSH2 0x4008 JUMP JUMPDEST PUSH1 0x40 MLOAD DUP1 SWAP2 SUB SWAP1 REVERT JUMPDEST PUSH0 PUSH1 0x6 PUSH0 DUP8 DUP2 MSTORE PUSH1 0x20 ADD SWAP1 DUP2 MSTORE PUSH1 0x20 ADD PUSH0 KECCAK256 PUSH1 0x40 MLOAD DUP1 PUSH1 0xA0 ADD PUSH1 0x40 MSTORE SWAP1 DUP2 PUSH0 DUP3 ADD PUSH0 SWAP1 SLOAD SWAP1 PUSH2 0x100 EXP SWAP1 DIV PUSH20 0xFFFFFFFFFFFFFFFFFFFFFFFFFFFFFFFFFFFFFFFF AND PUSH20 0xFFFFFFFFFFFFFFFFFFFFFFFFFFFFFFFFFFFFFFFF AND PUSH20 0xFFFFFFFFFFFFFFFFFFFFFFFFFFFFFFFFFFFFFFFF AND DUP2 MSTORE PUSH1 0x20 ADD PUSH1 0x1 DUP3 ADD SLOAD DUP2 MSTORE PUSH1 0x20 ADD PUSH1 0x2 DUP3 ADD PUSH0 SWAP1 SLOAD SWAP1 PUSH2 0x100 EXP SWAP1 DIV PUSH20 0xFFFFFFFFFFFFFFFFFFFFFFFFFFFFFFFFFFFFFFFF AND PUSH20 0xFFFFFFFFFFFFFFFFFFFFFFFFFFFFFFFFFFFFFFFF AND PUSH20 0xFFFFFFFFFFFFFFFFFFFFFFFFFFFFFFFFFFFFFFFF AND DUP2 MSTORE PUSH1 0x20 ADD PUSH1 0x3 DUP3 ADD SLOAD DUP2 MSTORE PUSH1 0x20 ADD PUSH1 0x4 DUP3 ADD PUSH0 SWAP1 SLOAD SWAP1 PUSH2 0x100 EXP SWAP1 DIV PUSH1 0xFF AND ISZERO ISZERO ISZERO ISZERO DUP2 MSTORE POP POP SWAP1 POP DUP1 PUSH1 0x60 ADD MLOAD DUP6 LT ISZERO PUSH2 0x283D JUMPI PUSH1 0x40 MLOAD PUSH32 0x8C379A000000000000000000000000000000000000000000000000000000000 DUP2 MSTORE PUSH1 0x4 ADD PUSH2 0x2834 SWAP1 PUSH2 0x41FD JUMP JUMPDEST PUSH1 0x40 MLOAD DUP1 SWAP2 SUB SWAP1 REVERT JUMPDEST PUSH0 PUSH20 0xFFFFFFFFFFFFFFFFFFFFFFFFFFFFFFFFFFFFFFFF AND DUP2 PUSH1 0x40 ADD MLOAD PUSH20 0xFFFFFFFFFFFFFFFFFFFFFFFFFFFFFFFFFFFFFFFF AND SUB PUSH2 0x28BB JUMPI DUP5 CALLVALUE EQ PUSH2 0x28B6 JUMPI PUSH1 0x40 MLOAD PUSH32 0x8C379A000000000000000000000000000000000000000000000000000000000 DUP2 MSTORE PUSH1 0x4 ADD PUSH2 0x28AD SWAP1 PUSH2 0x4265 JUMP JUMPDEST PUSH1 0x40 MLOAD DUP1 SWAP2 SUB SWAP1 REVERT JUMPDEST PUSH2 0x2981 JUMP JUMPDEST PUSH0 DUP2 PUSH1 0x40 ADD MLOAD PUSH20 0xFFFFFFFFFFFFFFFFFFFFFFFFFFFFFFFFFFFFFFFF AND PUSH4 0x23B872DD CALLER ADDRESS DUP10 PUSH1 0x40 MLOAD DUP5 PUSH4 0xFFFFFFFF AND PUSH1 0xE0 SHL DUP2 MSTORE PUSH1 0x4 ADD PUSH2 0x28FD SWAP4 SWAP3 SWAP2 SWAP1 PUSH2 0x3A87 JUMP JUMPDEST PUSH1 0x20 PUSH1 0x40 MLOAD DUP1 DUP4 SUB DUP2 PUSH0 DUP8 GAS CALL ISZERO DUP1 ISZERO PUSH2 0x2919 JUMPI RETURNDATASIZE PUSH0 DUP1 RETURNDATACOPY RETURNDATASIZE PUSH0 REVERT JUMPDEST POP POP POP POP PUSH1 0x40 MLOAD RETURNDATASIZE PUSH1 0x1F NOT PUSH1 0x1F DUP3 ADD AND DUP3 ADD DUP1 PUSH1 0x40 MSTORE POP DUP2 ADD SWAP1 PUSH2 0x293D SWAP2 SWAP1 PUSH2 0x40B8 JUMP JUMPDEST SWAP1 POP DUP1 PUSH2 0x297F JUMPI PUSH1 0x40 MLOAD PUSH32 0x8C379A000000000000000000000000000000000000000000000000000000000 DUP2 MSTORE PUSH1 0x4 ADD PUSH2 0x2976 SWAP1 PUSH2 0x42CD JUMP JUMPDEST PUSH1 0x40 MLOAD DUP1 SWAP2 SUB SWAP1 REVERT JUMPDEST POP JUMPDEST PUSH0 PUSH1 0x7 PUSH0 DUP9 DUP2 MSTORE PUSH1 0x20 ADD SWAP1 DUP2 MSTORE PUSH1 0x20 ADD PUSH0 KECCAK256 PUSH1 0x40 MLOAD DUP1 PUSH1 0x40 ADD PUSH1 0x40 MSTORE SWAP1 DUP2 PUSH0 DUP3 ADD PUSH0 SWAP1 SLOAD SWAP1 PUSH2 0x100 EXP SWAP1 DIV PUSH20 0xFFFFFFFFFFFFFFFFFFFFFFFFFFFFFFFFFFFFFFFF AND PUSH20 0xFFFFFFFFFFFFFFFFFFFFFFFFFFFFFFFFFFFFFFFF AND PUSH20 0xFFFFFFFFFFFFFFFFFFFFFFFFFFFFFFFFFFFFFFFF AND DUP2 MSTORE PUSH1 0x20 ADD PUSH1 0x1 DUP3 ADD SLOAD DUP2 MSTORE POP POP SWAP1 POP DUP1 PUSH1 0x20 ADD MLOAD DUP7 GT PUSH2 0x2A44 JUMPI PUSH1 0x40 MLOAD PUSH32 0x8C379A000000000000000000000000000000000000000000000000000000000 DUP2 MSTORE PUSH1 0x4 ADD PUSH2 0x2A3B SWAP1 PUSH2 0x435B JUMP JUMPDEST PUSH1 0x40 MLOAD DUP1 SWAP2 SUB SWAP1 REVERT JUMPDEST PUSH0 DUP2 PUSH1 0x20 ADD MLOAD GT ISZERO PUSH2 0x2A67 JUMPI PUSH2 0x2A66 DUP3 PUSH1 0x40 ADD MLOAD DUP3 PUSH0 ADD MLOAD DUP4 PUSH1 0x20 ADD MLOAD PUSH2 0x2EDC JUMP JUMPDEST JUMPDEST PUSH1 0x40 MLOAD DUP1 PUSH1 0x40 ADD PUSH1 0x40 MSTORE DUP1 CALLER PUSH20 0xFFFFFFFFFFFFFFFFFFFFFFFFFFFFFFFFFFFFFFFF AND DUP2 MSTORE PUSH1 0x20 ADD DUP8 DUP2 MSTORE POP PUSH1 0x7 PUSH0 DUP10 DUP2 MSTORE PUSH1 0x20 ADD SWAP1 DUP2 MSTORE PUSH1 0x20 ADD PUSH0 KECCAK256 PUSH0 DUP3 ADD MLOAD DUP2 PUSH0 ADD PUSH0 PUSH2 0x100 EXP DUP2 SLOAD DUP2 PUSH20 0xFFFFFFFFFFFFFFFFFFFFFFFFFFFFFFFFFFFFFFFF MUL NOT AND SWAP1 DUP4 PUSH20 0xFFFFFFFFFFFFFFFFFFFFFFFFFFFFFFFFFFFFFFFF AND MUL OR SWAP1 SSTORE POP PUSH1 0x20 DUP3 ADD MLOAD DUP2 PUSH1 0x1 ADD SSTORE SWAP1 POP POP CALLER PUSH20 0xFFFFFFFFFFFFFFFFFFFFFFFFFFFFFFFFFFFFFFFF AND DUP8 PUSH32 0xE54EFF26401BF69B81B26F60BD85EF47F5D85275C1D268D84F68D6897431C47 DUP9 PUSH1 0x40 MLOAD PUSH2 0x2B3B SWAP2 SWAP1 PUSH2 0x3462 JUMP JUMPDEST PUSH1 0x40 MLOAD DUP1 SWAP2 SUB SWAP1 LOG3 POP POP POP POP PUSH2 0x2B4F PUSH2 0x3036 JUMP JUMPDEST POP POP POP JUMP JUMPDEST PUSH1 0x3 SLOAD DUP2 JUMP JUMPDEST PUSH1 0x4 SLOAD DUP2 JUMP JUMPDEST PUSH1 0xC PUSH0 SWAP1 SLOAD SWAP1 PUSH2 0x100 EXP SWAP1 DIV PUSH20 0xFFFFFFFFFFFFFFFFFFFFFFFFFFFFFFFFFFFFFFFF AND DUP2 JUMP JUMPDEST PUSH1 0xD PUSH0 SWAP1 SLOAD SWAP1 PUSH2 0x100 EXP SWAP1 DIV PUSH20 0xFFFFFFFFFFFFFFFFFFFFFFFFFFFFFFFFFFFFFFFF AND DUP2 JUMP JUMPDEST PUSH2 0x2710 DUP2 JUMP JUMPDEST PUSH1 0x6 PUSH1 0x20 MSTORE DUP1 PUSH0 MSTORE PUSH1 0x40 PUSH0 KECCAK256 PUSH0 SWAP2 POP SWAP1 POP DUP1 PUSH0 ADD PUSH0 SWAP1 SLOAD SWAP1 PUSH2 0x100 EXP SWAP1 DIV PUSH20 0xFFFFFFFFFFFFFFFFFFFFFFFFFFFFFFFFFFFFFFFF AND SWAP1 DUP1 PUSH1 0x1 ADD SLOAD SWAP1 DUP1 PUSH1 0x2 ADD PUSH0 SWAP1 SLOAD SWAP1 PUSH2 0x100 EXP SWAP1 DIV PUSH20 0xFFFFFFFFFFFFFFFFFFFFFFFFFFFFFFFFFFFFFFFF AND SWAP1 DUP1 PUSH1 0x3 ADD SLOAD SWAP1 DUP1 PUSH1 0x4 ADD PUSH0 SWAP1 SLOAD SWAP1 PUSH2 0x100 EXP SWAP1 DIV PUSH1 0xFF AND SWAP1 POP DUP6 JUMP JUMPDEST PUSH1 0x8 PUSH1 0x20 MSTORE DUP1 PUSH0 MSTORE PUSH1 0x40 PUSH0 KECCAK256 PUSH0 SWAP2 POP SWAP1 POP SLOAD DUP2 JUMP JUMPDEST PUSH2 0x2C49 PUSH2 0x303F JUMP JUMPDEST PUSH0 PUSH20 0xFFFFFFFFFFFFFFFFFFFFFFFFFFFFFFFFFFFFFFFF AND DUP2 PUSH20 0xFFFFFFFFFFFFFFFFFFFFFFFFFFFFFFFFFFFFFFFF AND SUB PUSH2 0x2CB9 JUMPI PUSH0 PUSH1 0x40 MLOAD PUSH32 0x1E4FBDF700000000000000000000000000000000000000000000000000000000 DUP2 MSTORE PUSH1 0x4 ADD PUSH2 0x2CB0 SWAP2 SWAP1 PUSH2 0x358D JUMP JUMPDEST PUSH1 0x40 MLOAD DUP1 SWAP2 SUB SWAP1 REVERT JUMPDEST PUSH2 0x2CC2 DUP2 PUSH2 0x31A7 JUMP JUMPDEST POP JUMP JUMPDEST PUSH2 0x2CCD PUSH2 0x303F JUMP JUMPDEST PUSH2 0x2CD5 PUSH2 0x2E57 JUMP JUMPDEST PUSH0 PUSH1 0x4 SLOAD SWAP1 POP PUSH0 DUP2 GT PUSH2 0x2D1D JUMPI PUSH1 0x40 MLOAD PUSH32 0x8C379A000000000000000000000000000000000000000000000000000000000 DUP2 MSTORE PUSH1 0x4 ADD PUSH2 0x2D14 SWAP1 PUSH2 0x43C3 JUMP JUMPDEST PUSH1 0x40 MLOAD DUP1 SWAP2 SUB SWAP1 REVERT JUMPDEST PUSH0 PUSH1 0x4 DUP2 SWAP1 SSTORE POP PUSH0 CALLER PUSH20 0xFFFFFFFFFFFFFFFFFFFFFFFFFFFFFFFFFFFFFFFF AND DUP3 PUSH1 0x40 MLOAD PUSH2 0x2D49 SWAP1 PUSH2 0x3A0B JUMP JUMPDEST PUSH0 PUSH1 0x40 MLOAD DUP1 DUP4 SUB DUP2 DUP6 DUP8 GAS CALL SWAP3 POP POP POP RETURNDATASIZE DUP1 PUSH0 DUP2 EQ PUSH2 0x2D83 JUMPI PUSH1 0x40 MLOAD SWAP2 POP PUSH1 0x1F NOT PUSH1 0x3F RETURNDATASIZE ADD AND DUP3 ADD PUSH1 0x40 MSTORE RETURNDATASIZE DUP3 MSTORE RETURNDATASIZE PUSH0 PUSH1 0x20 DUP5 ADD RETURNDATACOPY PUSH2 0x2D88 JUMP JUMPDEST PUSH1 0x60 SWAP2 POP JUMPDEST POP POP SWAP1 POP DUP1 PUSH2 0x2DCC JUMPI PUSH1 0x40 MLOAD PUSH32 0x8C379A000000000000000000000000000000000000000000000000000000000 DUP2 MSTORE PUSH1 0x4 ADD PUSH2 0x2DC3 SWAP1 PUSH2 0x442B JUMP JUMPDEST PUSH1 0x40 MLOAD DUP1 SWAP2 SUB SWAP1 REVERT JUMPDEST PUSH32 0xD6DDD782ABF6E1531F3AA9F2801AE73391EFD91E3846A441334A4E911F74BF43 PUSH2 0x2DF5 PUSH2 0x23A6 JUMP JUMPDEST DUP4 PUSH1 0x40 MLOAD PUSH2 0x2E04 SWAP3 SWAP2 SWAP1 PUSH2 0x3647 JUMP JUMPDEST PUSH1 0x40 MLOAD DUP1 SWAP2 SUB SWAP1 LOG1 POP POP PUSH2 0x2E16 PUSH2 0x3036 JUMP JUMPDEST JUMP JUMPDEST PUSH1 0x7 PUSH1 0x20 MSTORE DUP1 PUSH0 MSTORE PUSH1 0x40 PUSH0 KECCAK256 PUSH0 SWAP2 POP SWAP1 POP DUP1 PUSH0 ADD PUSH0 SWAP1 SLOAD SWAP1 PUSH2 0x100 EXP SWAP1 DIV PUSH20 0xFFFFFFFFFFFFFFFFFFFFFFFFFFFFFFFFFFFFFFFF AND SWAP1 DUP1 PUSH1 0x1 ADD SLOAD SWAP1 POP DUP3 JUMP JUMPDEST PUSH1 0x2 PUSH0 SLOAD SUB PUSH2 0x2E92 JUMPI PUSH1 0x40 MLOAD PUSH32 0x3EE5AEB500000000000000000000000000000000000000000000000000000000 DUP2 MSTORE PUSH1 0x4 ADD PUSH1 0x40 MLOAD DUP1 SWAP2 SUB SWAP1 REVERT JUMPDEST PUSH1 0x2 PUSH0 DUP2 SWAP1 SSTORE POP JUMP JUMPDEST PUSH2 0x2EA3 PUSH2 0x1B23 JUMP JUMPDEST ISZERO PUSH2 0x2EDA JUMPI PUSH1 0x40 MLOAD PUSH32 0xD93C066500000000000000000000000000000000000000000000000000000000 DUP2 MSTORE PUSH1 0x4 ADD PUSH1 0x40 MLOAD DUP1 SWAP2 SUB SWAP1 REVERT JUMPDEST JUMP JUMPDEST PUSH0 PUSH20 0xFFFFFFFFFFFFFFFFFFFFFFFFFFFFFFFFFFFFFFFF AND DUP4 PUSH20 0xFFFFFFFFFFFFFFFFFFFFFFFFFFFFFFFFFFFFFFFF AND SUB PUSH2 0x2F67 JUMPI DUP1 PUSH1 0x8 PUSH0 DUP5 PUSH20 0xFFFFFFFFFFFFFFFFFFFFFFFFFFFFFFFFFFFFFFFF AND PUSH20 0xFFFFFFFFFFFFFFFFFFFFFFFFFFFFFFFFFFFFFFFF AND DUP2 MSTORE PUSH1 0x20 ADD SWAP1 DUP2 MSTORE PUSH1 0x20 ADD PUSH0 KECCAK256 PUSH0 DUP3 DUP3 SLOAD PUSH2 0x2F5B SWAP2 SWAP1 PUSH2 0x3978 JUMP JUMPDEST SWAP3 POP POP DUP2 SWAP1 SSTORE POP PUSH2 0x2FF6 JUMP JUMPDEST DUP1 PUSH1 0x9 PUSH0 DUP5 PUSH20 0xFFFFFFFFFFFFFFFFFFFFFFFFFFFFFFFFFFFFFFFF AND PUSH20 0xFFFFFFFFFFFFFFFFFFFFFFFFFFFFFFFFFFFFFFFF AND DUP2 MSTORE PUSH1 0x20 ADD SWAP1 DUP2 MSTORE PUSH1 0x20 ADD PUSH0 KECCAK256 PUSH0 DUP6 PUSH20 0xFFFFFFFFFFFFFFFFFFFFFFFFFFFFFFFFFFFFFFFF AND PUSH20 0xFFFFFFFFFFFFFFFFFFFFFFFFFFFFFFFFFFFFFFFF AND DUP2 MSTORE PUSH1 0x20 ADD SWAP1 DUP2 MSTORE PUSH1 0x20 ADD PUSH0 KECCAK256 PUSH0 DUP3 DUP3 SLOAD PUSH2 0x2FEE SWAP2 SWAP1 PUSH2 0x3978 JUMP JUMPDEST SWAP3 POP POP DUP2 SWAP1 SSTORE POP JUMPDEST PUSH32 0x97DED04B4DD3DAB6C02011A161D44B56A32FC8DAC48EE2A011BC2BEED61B16E0 DUP3 DUP5 DUP4 PUSH1 0x40 MLOAD PUSH2 0x3029 SWAP4 SWAP3 SWAP2 SWAP1 PUSH2 0x3A87 JUMP JUMPDEST PUSH1 0x40 MLOAD DUP1 SWAP2 SUB SWAP1 LOG1 POP POP POP JUMP JUMPDEST PUSH1 0x1 PUSH0 DUP2 SWAP1 SSTORE POP JUMP JUMPDEST PUSH2 0x3047 PUSH2 0x32CC JUMP JUMPDEST PUSH20 0xFFFFFFFFFFFFFFFFFFFFFFFFFFFFFFFFFFFFFFFF AND PUSH2 0x3065 PUSH2 0x23A6 JUMP JUMPDEST PUSH20 0xFFFFFFFFFFFFFFFFFFFFFFFFFFFFFFFFFFFFFFFF AND EQ PUSH2 0x30C4 JUMPI PUSH2 0x3088 PUSH2 0x32CC JUMP JUMPDEST PUSH1 0x40 MLOAD PUSH32 0x118CDAA700000000000000000000000000000000000000000000000000000000 DUP2 MSTORE PUSH1 0x4 ADD PUSH2 0x30BB SWAP2 SWAP1 PUSH2 0x358D JUMP JUMPDEST PUSH1 0x40 MLOAD DUP1 SWAP2 SUB SWAP1 REVERT JUMPDEST JUMP JUMPDEST PUSH2 0x3140 DUP4 DUP5 PUSH20 0xFFFFFFFFFFFFFFFFFFFFFFFFFFFFFFFFFFFFFFFF AND PUSH4 0xA9059CBB DUP6 DUP6 PUSH1 0x40 MLOAD PUSH1 0x24 ADD PUSH2 0x30F9 SWAP3 SWAP2 SWAP1 PUSH2 0x3647 JUMP JUMPDEST PUSH1 0x40 MLOAD PUSH1 0x20 DUP2 DUP4 SUB SUB DUP2 MSTORE SWAP1 PUSH1 0x40 MSTORE SWAP2 POP PUSH1 0xE0 SHL PUSH1 0x20 DUP3 ADD DUP1 MLOAD PUSH28 0xFFFFFFFFFFFFFFFFFFFFFFFFFFFFFFFFFFFFFFFFFFFFFFFFFFFFFFFF DUP4 DUP2 DUP4 AND OR DUP4 MSTORE POP POP POP POP PUSH2 0x32D3 JUMP JUMPDEST POP POP POP JUMP JUMPDEST PUSH2 0x314D PUSH2 0x336E JUMP JUMPDEST PUSH0 PUSH1 0x1 PUSH1 0x14 PUSH2 0x100 EXP DUP2 SLOAD DUP2 PUSH1 0xFF MUL NOT AND SWAP1 DUP4 ISZERO ISZERO MUL OR SWAP1 SSTORE POP PUSH32 0x5DB9EE0A495BF2E6FF9C91A7834C1BA4FDD244A5E8AA4E537BD38AEAE4B073AA PUSH2 0x3190 PUSH2 0x32CC JUMP JUMPDEST PUSH1 0x40 MLOAD PUSH2 0x319D SWAP2 SWAP1 PUSH2 0x358D JUMP JUMPDEST PUSH1 0x40 MLOAD DUP1 SWAP2 SUB SWAP1 LOG1 JUMP JUMPDEST PUSH0 PUSH1 0x1 PUSH0 SWAP1 SLOAD SWAP1 PUSH2 0x100 EXP SWAP1 DIV PUSH20 0xFFFFFFFFFFFFFFFFFFFFFFFFFFFFFFFFFFFFFFFF AND SWAP1 POP DUP2 PUSH1 0x1 PUSH0 PUSH2 0x100 EXP DUP2 SLOAD DUP2 PUSH20 0xFFFFFFFFFFFFFFFFFFFFFFFFFFFFFFFFFFFFFFFF MUL NOT AND SWAP1 DUP4 PUSH20 0xFFFFFFFFFFFFFFFFFFFFFFFFFFFFFFFFFFFFFFFF AND MUL OR SWAP1 SSTORE POP DUP2 PUSH20 0xFFFFFFFFFFFFFFFFFFFFFFFFFFFFFFFFFFFFFFFF AND DUP2 PUSH20 0xFFFFFFFFFFFFFFFFFFFFFFFFFFFFFFFFFFFFFFFF AND PUSH32 0x8BE0079C531659141344CD1FD0A4F28419497F9722A3DAAFE3B4186F6B6457E0 PUSH1 0x40 MLOAD PUSH1 0x40 MLOAD DUP1 SWAP2 SUB SWAP1 LOG3 POP POP JUMP JUMPDEST PUSH2 0x3272 PUSH2 0x2E9B JUMP JUMPDEST PUSH1 0x1 DUP1 PUSH1 0x14 PUSH2 0x100 EXP DUP2 SLOAD DUP2 PUSH1 0xFF MUL NOT AND SWAP1 DUP4 ISZERO ISZERO MUL OR SWAP1 SSTORE POP PUSH32 0x62E78CEA01BEE320CD4E420270B5EA74000D11B0C9F74754EBDBFC544B05A258 PUSH2 0x32B5 PUSH2 0x32CC JUMP JUMPDEST PUSH1 0x40 MLOAD PUSH2 0x32C2 SWAP2 SWAP1 PUSH2 0x358D JUMP JUMPDEST PUSH1 0x40 MLOAD DUP1 SWAP2 SUB SWAP1 LOG1 JUMP JUMPDEST PUSH0 CALLER SWAP1 POP SWAP1 JUMP JUMPDEST PUSH0 DUP1 PUSH1 0x20 PUSH0 DUP5 MLOAD PUSH1 0x20 DUP7 ADD PUSH0 DUP9 GAS CALL DUP1 PUSH2 0x32F2 JUMPI PUSH1 0x40 MLOAD RETURNDATASIZE PUSH0 DUP3 RETURNDATACOPY RETURNDATASIZE DUP2 REVERT JUMPDEST RETURNDATASIZE SWAP3 POP PUSH0 MLOAD SWAP2 POP POP PUSH0 DUP3 EQ PUSH2 0x330B JUMPI PUSH1 0x1 DUP2 EQ ISZERO PUSH2 0x3326 JUMP JUMPDEST PUSH0 DUP5 PUSH20 0xFFFFFFFFFFFFFFFFFFFFFFFFFFFFFFFFFFFFFFFF AND EXTCODESIZE EQ JUMPDEST ISZERO PUSH2 0x3368 JUMPI DUP4 PUSH1 0x40 MLOAD PUSH32 0x5274AFE700000000000000000000000000000000000000000000000000000000 DUP2 MSTORE PUSH1 0x4 ADD PUSH2 0x335F SWAP2 SWAP1 PUSH2 0x358D JUMP JUMPDEST PUSH1 0x40 MLOAD DUP1 SWAP2 SUB SWAP1 REVERT JUMPDEST POP POP POP POP JUMP JUMPDEST PUSH2 0x3376 PUSH2 0x1B23 JUMP JUMPDEST PUSH2 0x33AC JUMPI PUSH1 0x40 MLOAD PUSH32 0x8DFC202B00000000000000000000000000000000000000000000000000000000 DUP2 MSTORE PUSH1 0x4 ADD PUSH1 0x40 MLOAD DUP1 SWAP2 SUB SWAP1 REVERT JUMPDEST JUMP JUMPDEST PUSH0 DUP1 REVERT JUMPDEST PUSH0 PUSH20 0xFFFFFFFFFFFFFFFFFFFFFFFFFFFFFFFFFFFFFFFF DUP3 AND SWAP1 POP SWAP2 SWAP1 POP JUMP JUMPDEST PUSH0 PUSH2 0x33DB DUP3 PUSH2 0x33B2 JUMP JUMPDEST SWAP1 POP SWAP2 SWAP1 POP JUMP JUMPDEST PUSH2 0x33EB DUP2 PUSH2 0x33D1 JUMP JUMPDEST DUP2 EQ PUSH2 0x33F5 JUMPI PUSH0 DUP1 REVERT JUMPDEST POP JUMP JUMPDEST PUSH0 DUP2 CALLDATALOAD SWAP1 POP PUSH2 0x3406 DUP2 PUSH2 0x33E2 JUMP JUMPDEST SWAP3 SWAP2 POP POP JUMP JUMPDEST PUSH0 DUP1 PUSH1 0x40 DUP4 DUP6 SUB SLT ISZERO PUSH2 0x3422 JUMPI PUSH2 0x3421 PUSH2 0x33AE JUMP JUMPDEST JUMPDEST PUSH0 PUSH2 0x342F DUP6 DUP3 DUP7 ADD PUSH2 0x33F8 JUMP JUMPDEST SWAP3 POP POP PUSH1 0x20 PUSH2 0x3440 DUP6 DUP3 DUP7 ADD PUSH2 0x33F8 JUMP JUMPDEST SWAP2 POP POP SWAP3 POP SWAP3 SWAP1 POP JUMP JUMPDEST PUSH0 DUP2 SWAP1 POP SWAP2 SWAP1 POP JUMP JUMPDEST PUSH2 0x345C DUP2 PUSH2 0x344A JUMP JUMPDEST DUP3 MSTORE POP POP JUMP JUMPDEST PUSH0 PUSH1 0x20 DUP3 ADD SWAP1 POP PUSH2 0x3475 PUSH0 DUP4 ADD DUP5 PUSH2 0x3453 JUMP JUMPDEST SWAP3 SWAP2 POP POP JUMP JUMPDEST PUSH2 0x3484 DUP2 PUSH2 0x344A JUMP JUMPDEST DUP2 EQ PUSH2 0x348E JUMPI PUSH0 DUP1 REVERT JUMPDEST POP JUMP JUMPDEST PUSH0 DUP2 CALLDATALOAD SWAP1 POP PUSH2 0x349F DUP2 PUSH2 0x347B JUMP JUMPDEST SWAP3 SWAP2 POP POP JUMP JUMPDEST PUSH0 PUSH1 0x20 DUP3 DUP5 SUB SLT ISZERO PUSH2 0x34BA JUMPI PUSH2 0x34B9 PUSH2 0x33AE JUMP JUMPDEST JUMPDEST PUSH0 PUSH2 0x34C7 DUP5 DUP3 DUP6 ADD PUSH2 0x3491 JUMP JUMPDEST SWAP2 POP POP SWAP3 SWAP2 POP POP JUMP JUMPDEST PUSH0 PUSH1 0x20 DUP3 DUP5 SUB SLT ISZERO PUSH2 0x34E5 JUMPI PUSH2 0x34E4 PUSH2 0x33AE JUMP JUMPDEST JUMPDEST PUSH0 PUSH2 0x34F2 DUP5 DUP3 DUP6 ADD PUSH2 0x33F8 JUMP JUMPDEST SWAP2 POP POP SWAP3 SWAP2 POP POP JUMP JUMPDEST PUSH0 DUP2 ISZERO ISZERO SWAP1 POP SWAP2 SWAP1 POP JUMP JUMPDEST PUSH2 0x350F DUP2 PUSH2 0x34FB JUMP JUMPDEST DUP3 MSTORE POP POP JUMP JUMPDEST PUSH0 PUSH1 0x20 DUP3 ADD SWAP1 POP PUSH2 0x3528 PUSH0 DUP4 ADD DUP5 PUSH2 0x3506 JUMP JUMPDEST SWAP3 SWAP2 POP POP JUMP JUMPDEST PUSH0 DUP1 PUSH0 PUSH1 0x60 DUP5 DUP7 SUB SLT ISZERO PUSH2 0x3545 JUMPI PUSH2 0x3544 PUSH2 0x33AE JUMP JUMPDEST JUMPDEST PUSH0 PUSH2 0x3552 DUP7 DUP3 DUP8 ADD PUSH2 0x3491 JUMP JUMPDEST SWAP4 POP POP PUSH1 0x20 PUSH2 0x3563 DUP7 DUP3 DUP8 ADD PUSH2 0x33F8 JUMP JUMPDEST SWAP3 POP POP PUSH1 0x40 PUSH2 0x3574 DUP7 DUP3 DUP8 ADD PUSH2 0x3491 JUMP JUMPDEST SWAP2 POP POP SWAP3 POP SWAP3 POP SWAP3 JUMP JUMPDEST PUSH2 0x3587 DUP2 PUSH2 0x33D1 JUMP JUMPDEST DUP3 MSTORE POP POP JUMP JUMPDEST PUSH0 PUSH1 0x20 DUP3 ADD SWAP1 POP PUSH2 0x35A0 PUSH0 DUP4 ADD DUP5 PUSH2 0x357E JUMP JUMPDEST SWAP3 SWAP2 POP POP JUMP JUMPDEST PUSH0 DUP1 PUSH0 PUSH1 0x60 DUP5 DUP7 SUB SLT ISZERO PUSH2 0x35BD JUMPI PUSH2 0x35BC PUSH2 0x33AE JUMP JUMPDEST JUMPDEST PUSH0 PUSH2 0x35CA DUP7 DUP3 DUP8 ADD PUSH2 0x3491 JUMP JUMPDEST SWAP4 POP POP PUSH1 0x20 PUSH2 0x35DB DUP7 DUP3 DUP8 ADD PUSH2 0x3491 JUMP JUMPDEST SWAP3 POP POP PUSH1 0x40 PUSH2 0x35EC DUP7 DUP3 DUP8 ADD PUSH2 0x33F8 JUMP JUMPDEST SWAP2 POP POP SWAP3 POP SWAP3 POP SWAP3 JUMP JUMPDEST PUSH0 PUSH1 0xA0 DUP3 ADD SWAP1 POP PUSH2 0x3609 PUSH0 DUP4 ADD DUP9 PUSH2 0x357E JUMP JUMPDEST PUSH2 0x3616 PUSH1 0x20 DUP4 ADD DUP8 PUSH2 0x3453 JUMP JUMPDEST PUSH2 0x3623 PUSH1 0x40 DUP4 ADD DUP7 PUSH2 0x357E JUMP JUMPDEST PUSH2 0x3630 PUSH1 0x60 DUP4 ADD DUP6 PUSH2 0x3453 JUMP JUMPDEST PUSH2 0x363D PUSH1 0x80 DUP4 ADD DUP5 PUSH2 0x3506 JUMP JUMPDEST SWAP7 SWAP6 POP POP POP POP POP POP JUMP JUMPDEST PUSH0 PUSH1 0x40 DUP3 ADD SWAP1 POP PUSH2 0x365A PUSH0 DUP4 ADD DUP6 PUSH2 0x357E JUMP JUMPDEST PUSH2 0x3667 PUSH1 0x20 DUP4 ADD DUP5 PUSH2 0x3453 JUMP JUMPDEST SWAP4 SWAP3 POP POP POP JUMP JUMPDEST PUSH0 DUP3 DUP3 MSTORE PUSH1 0x20 DUP3 ADD SWAP1 POP SWAP3 SWAP2 POP POP JUMP JUMPDEST PUSH32 0x4E6F74207468652063757272656E742062696464657200000000000000000000 PUSH0 DUP3 ADD MSTORE POP JUMP JUMPDEST PUSH0 PUSH2 0x36B2 PUSH1 0x16 DUP4 PUSH2 0x366E JUMP JUMPDEST SWAP2 POP PUSH2 0x36BD DUP3 PUSH2 0x367E JUMP JUMPDEST PUSH1 0x20 DUP3 ADD SWAP1 POP SWAP2 SWAP1 POP JUMP JUMPDEST PUSH0 PUSH1 0x20 DUP3 ADD SWAP1 POP DUP2 DUP2 SUB PUSH0 DUP4 ADD MSTORE PUSH2 0x36DF DUP2 PUSH2 0x36A6 JUMP JUMPDEST SWAP1 POP SWAP2 SWAP1 POP JUMP JUMPDEST PUSH32 0x496E76616C696420616464726573730000000000000000000000000000000000 PUSH0 DUP3 ADD MSTORE POP JUMP JUMPDEST PUSH0 PUSH2 0x371A PUSH1 0xF DUP4 PUSH2 0x366E JUMP JUMPDEST SWAP2 POP PUSH2 0x3725 DUP3 PUSH2 0x36E6 JUMP JUMPDEST PUSH1 0x20 DUP3 ADD SWAP1 POP SWAP2 SWAP1 POP JUMP JUMPDEST PUSH0 PUSH1 0x20 DUP3 ADD SWAP1 POP DUP2 DUP2 SUB PUSH0 DUP4 ADD MSTORE PUSH2 0x3747 DUP2 PUSH2 0x370E JUMP JUMPDEST SWAP1 POP SWAP2 SWAP1 POP JUMP JUMPDEST PUSH0 PUSH1 0x40 DUP3 ADD SWAP1 POP PUSH2 0x3761 PUSH0 DUP4 ADD DUP6 PUSH2 0x357E JUMP JUMPDEST PUSH2 0x376E PUSH1 0x20 DUP4 ADD DUP5 PUSH2 0x357E JUMP JUMPDEST SWAP4 SWAP3 POP POP POP JUMP JUMPDEST PUSH32 0x4C697374696E67206E6F74206163746976650000000000000000000000000000 PUSH0 DUP3 ADD MSTORE POP JUMP JUMPDEST PUSH0 PUSH2 0x37A9 PUSH1 0x12 DUP4 PUSH2 0x366E JUMP JUMPDEST SWAP2 POP PUSH2 0x37B4 DUP3 PUSH2 0x3775 JUMP JUMPDEST PUSH1 0x20 DUP3 ADD SWAP1 POP SWAP2 SWAP1 POP JUMP JUMPDEST PUSH0 PUSH1 0x20 DUP3 ADD SWAP1 POP DUP2 DUP2 SUB PUSH0 DUP4 ADD MSTORE PUSH2 0x37D6 DUP2 PUSH2 0x379D JUMP JUMPDEST SWAP1 POP SWAP2 SWAP1 POP JUMP JUMPDEST PUSH32 0x4F6E6C792073656C6C65722063616E2061636365707420626964000000000000 PUSH0 DUP3 ADD MSTORE POP JUMP JUMPDEST PUSH0 PUSH2 0x3811 PUSH1 0x1A DUP4 PUSH2 0x366E JUMP JUMPDEST SWAP2 POP PUSH2 0x381C DUP3 PUSH2 0x37DD JUMP JUMPDEST PUSH1 0x20 DUP3 ADD SWAP1 POP SWAP2 SWAP1 POP JUMP JUMPDEST PUSH0 PUSH1 0x20 DUP3 ADD SWAP1 POP DUP2 DUP2 SUB PUSH0 DUP4 ADD MSTORE PUSH2 0x383E DUP2 PUSH2 0x3805 JUMP JUMPDEST SWAP1 POP SWAP2 SWAP1 POP JUMP JUMPDEST PUSH32 0x4E6F206163746976652062696400000000000000000000000000000000000000 PUSH0 DUP3 ADD MSTORE POP JUMP JUMPDEST PUSH0 PUSH2 0x3879 PUSH1 0xD DUP4 PUSH2 0x366E JUMP JUMPDEST SWAP2 POP PUSH2 0x3884 DUP3 PUSH2 0x3845 JUMP JUMPDEST PUSH1 0x20 DUP3 ADD SWAP1 POP SWAP2 SWAP1 POP JUMP JUMPDEST PUSH0 PUSH1 0x20 DUP3 ADD SWAP1 POP DUP2 DUP2 SUB PUSH0 DUP4 ADD MSTORE PUSH2 0x38A6 DUP2 PUSH2 0x386D JUMP JUMPDEST SWAP1 POP SWAP2 SWAP1 POP JUMP JUMPDEST PUSH32 0x4E487B7100000000000000000000000000000000000000000000000000000000 PUSH0 MSTORE PUSH1 0x11 PUSH1 0x4 MSTORE PUSH1 0x24 PUSH0 REVERT JUMPDEST PUSH0 PUSH2 0x38E4 DUP3 PUSH2 0x344A JUMP JUMPDEST SWAP2 POP PUSH2 0x38EF DUP4 PUSH2 0x344A JUMP JUMPDEST SWAP3 POP DUP3 DUP3 MUL PUSH2 0x38FD DUP2 PUSH2 0x344A JUMP JUMPDEST SWAP2 POP DUP3 DUP3 DIV DUP5 EQ DUP4 ISZERO OR PUSH2 0x3914 JUMPI PUSH2 0x3913 PUSH2 0x38AD JUMP JUMPDEST JUMPDEST POP SWAP3 SWAP2 POP POP JUMP JUMPDEST PUSH32 0x4E487B7100000000000000000000000000000000000000000000000000000000 PUSH0 MSTORE PUSH1 0x12 PUSH1 0x4 MSTORE PUSH1 0x24 PUSH0 REVERT JUMPDEST PUSH0 PUSH2 0x3952 DUP3 PUSH2 0x344A JUMP JUMPDEST SWAP2 POP PUSH2 0x395D DUP4 PUSH2 0x344A JUMP JUMPDEST SWAP3 POP DUP3 PUSH2 0x396D JUMPI PUSH2 0x396C PUSH2 0x391B JUMP JUMPDEST JUMPDEST DUP3 DUP3 DIV SWAP1 POP SWAP3 SWAP2 POP POP JUMP JUMPDEST PUSH0 PUSH2 0x3982 DUP3 PUSH2 0x344A JUMP JUMPDEST SWAP2 POP PUSH2 0x398D DUP4 PUSH2 0x344A JUMP JUMPDEST SWAP3 POP DUP3 DUP3 ADD SWAP1 POP DUP1 DUP3 GT ISZERO PUSH2 0x39A5 JUMPI PUSH2 0x39A4 PUSH2 0x38AD JUMP JUMPDEST JUMPDEST SWAP3 SWAP2 POP POP JUMP JUMPDEST PUSH0 PUSH2 0x39B5 DUP3 PUSH2 0x344A JUMP JUMPDEST SWAP2 POP PUSH2 0x39C0 DUP4 PUSH2 0x344A JUMP JUMPDEST SWAP3 POP DUP3 DUP3 SUB SWAP1 POP DUP2 DUP2 GT ISZERO PUSH2 0x39D8 JUMPI PUSH2 0x39D7 PUSH2 0x38AD JUMP JUMPDEST JUMPDEST SWAP3 SWAP2 POP POP JUMP JUMPDEST PUSH0 DUP2 SWAP1 POP SWAP3 SWAP2 POP POP JUMP JUMPDEST POP JUMP JUMPDEST PUSH0 PUSH2 0x39F6 PUSH0 DUP4 PUSH2 0x39DE JUMP JUMPDEST SWAP2 POP PUSH2 0x3A01 DUP3 PUSH2 0x39E8 JUMP JUMPDEST PUSH0 DUP3 ADD SWAP1 POP SWAP2 SWAP1 POP JUMP JUMPDEST PUSH0 PUSH2 0x3A15 DUP3 PUSH2 0x39EB JUMP JUMPDEST SWAP2 POP DUP2 SWAP1 POP SWAP2 SWAP1 POP JUMP JUMPDEST PUSH32 0x455448207472616E7366657220746F2073656C6C6572206661696C6564000000 PUSH0 DUP3 ADD MSTORE POP JUMP JUMPDEST PUSH0 PUSH2 0x3A53 PUSH1 0x1D DUP4 PUSH2 0x366E JUMP JUMPDEST SWAP2 POP PUSH2 0x3A5E DUP3 PUSH2 0x3A1F JUMP JUMPDEST PUSH1 0x20 DUP3 ADD SWAP1 POP SWAP2 SWAP1 POP JUMP JUMPDEST PUSH0 PUSH1 0x20 DUP3 ADD SWAP1 POP DUP2 DUP2 SUB PUSH0 DUP4 ADD MSTORE PUSH2 0x3A80 DUP2 PUSH2 0x3A47 JUMP JUMPDEST SWAP1 POP SWAP2 SWAP1 POP JUMP JUMPDEST PUSH0 PUSH1 0x60 DUP3 ADD SWAP1 POP PUSH2 0x3A9A PUSH0 DUP4 ADD DUP7 PUSH2 0x357E JUMP JUMPDEST PUSH2 0x3AA7 PUSH1 0x20 DUP4 ADD DUP6 PUSH2 0x357E JUMP JUMPDEST PUSH2 0x3AB4 PUSH1 0x40 DUP4 ADD DUP5 PUSH2 0x3453 JUMP JUMPDEST SWAP5 SWAP4 POP POP POP POP JUMP JUMPDEST PUSH0 PUSH1 0x40 DUP3 ADD SWAP1 POP PUSH2 0x3ACF PUSH0 DUP4 ADD DUP6 PUSH2 0x3453 JUMP JUMPDEST PUSH2 0x3ADC PUSH1 0x20 DUP4 ADD DUP5 PUSH2 0x3453 JUMP JUMPDEST SWAP4 SWAP3 POP POP POP JUMP JUMPDEST PUSH32 0x4E6F74206C697374696E67206F776E6572000000000000000000000000000000 PUSH0 DUP3 ADD MSTORE POP JUMP JUMPDEST PUSH0 PUSH2 0x3B17 PUSH1 0x11 DUP4 PUSH2 0x366E JUMP JUMPDEST SWAP2 POP PUSH2 0x3B22 DUP3 PUSH2 0x3AE3 JUMP JUMPDEST PUSH1 0x20 DUP3 ADD SWAP1 POP SWAP2 SWAP1 POP JUMP JUMPDEST PUSH0 PUSH1 0x20 DUP3 ADD SWAP1 POP DUP2 DUP2 SUB PUSH0 DUP4 ADD MSTORE PUSH2 0x3B44 DUP2 PUSH2 0x3B0B JUMP JUMPDEST SWAP1 POP SWAP2 SWAP1 POP JUMP JUMPDEST PUSH0 PUSH1 0x40 DUP3 ADD SWAP1 POP PUSH2 0x3B5E PUSH0 DUP4 ADD DUP6 PUSH2 0x3453 JUMP JUMPDEST PUSH2 0x3B6B PUSH1 0x20 DUP4 ADD DUP5 PUSH2 0x357E JUMP JUMPDEST SWAP4 SWAP3 POP POP POP JUMP JUMPDEST PUSH32 0x496E76616C696420666565207570646174650000000000000000000000000000 PUSH0 DUP3 ADD MSTORE POP JUMP JUMPDEST PUSH0 PUSH2 0x3BA6 PUSH1 0x12 DUP4 PUSH2 0x366E JUMP JUMPDEST SWAP2 POP PUSH2 0x3BB1 DUP3 PUSH2 0x3B72 JUMP JUMPDEST PUSH1 0x20 DUP3 ADD SWAP1 POP SWAP2 SWAP1 POP JUMP JUMPDEST PUSH0 PUSH1 0x20 DUP3 ADD SWAP1 POP DUP2 DUP2 SUB PUSH0 DUP4 ADD MSTORE PUSH2 0x3BD3 DUP2 PUSH2 0x3B9A JUMP JUMPDEST SWAP1 POP SWAP2 SWAP1 POP JUMP JUMPDEST PUSH32 0x4665652065786365656473207468726573686F6C640000000000000000000000 PUSH0 DUP3 ADD MSTORE POP JUMP JUMPDEST PUSH0 PUSH2 0x3C0E PUSH1 0x15 DUP4 PUSH2 0x366E JUMP JUMPDEST SWAP2 POP PUSH2 0x3C19 DUP3 PUSH2 0x3BDA JUMP JUMPDEST PUSH1 0x20 DUP3 ADD SWAP1 POP SWAP2 SWAP1 POP JUMP JUMPDEST PUSH0 PUSH1 0x20 DUP3 ADD SWAP1 POP DUP2 DUP2 SUB PUSH0 DUP4 ADD MSTORE PUSH2 0x3C3B DUP2 PUSH2 0x3C02 JUMP JUMPDEST SWAP1 POP SWAP2 SWAP1 POP JUMP JUMPDEST PUSH32 0x4E6F20726566756E6461626C6520616D6F756E74000000000000000000000000 PUSH0 DUP3 ADD MSTORE POP JUMP JUMPDEST PUSH0 PUSH2 0x3C76 PUSH1 0x14 DUP4 PUSH2 0x366E JUMP JUMPDEST SWAP2 POP PUSH2 0x3C81 DUP3 PUSH2 0x3C42 JUMP JUMPDEST PUSH1 0x20 DUP3 ADD SWAP1 POP SWAP2 SWAP1 POP JUMP JUMPDEST PUSH0 PUSH1 0x20 DUP3 ADD SWAP1 POP DUP2 DUP2 SUB PUSH0 DUP4 ADD MSTORE PUSH2 0x3CA3 DUP2 PUSH2 0x3C6A JUMP JUMPDEST SWAP1 POP SWAP2 SWAP1 POP JUMP JUMPDEST PUSH32 0x496E73756666696369656E7420636F6E74726163742062616C616E6365000000 PUSH0 DUP3 ADD MSTORE POP JUMP JUMPDEST PUSH0 PUSH2 0x3CDE PUSH1 0x1D DUP4 PUSH2 0x366E JUMP JUMPDEST SWAP2 POP PUSH2 0x3CE9 DUP3 PUSH2 0x3CAA JUMP JUMPDEST PUSH1 0x20 DUP3 ADD SWAP1 POP SWAP2 SWAP1 POP JUMP JUMPDEST PUSH0 PUSH1 0x20 DUP3 ADD SWAP1 POP DUP2 DUP2 SUB PUSH0 DUP4 ADD MSTORE PUSH2 0x3D0B DUP2 PUSH2 0x3CD2 JUMP JUMPDEST SWAP1 POP SWAP2 SWAP1 POP JUMP JUMPDEST PUSH32 0x45544820726566756E642072657175657374206661696C656400000000000000 PUSH0 DUP3 ADD MSTORE POP JUMP JUMPDEST PUSH0 PUSH2 0x3D46 PUSH1 0x19 DUP4 PUSH2 0x366E JUMP JUMPDEST SWAP2 POP PUSH2 0x3D51 DUP3 PUSH2 0x3D12 JUMP JUMPDEST PUSH1 0x20 DUP3 ADD SWAP1 POP SWAP2 SWAP1 POP JUMP JUMPDEST PUSH0 PUSH1 0x20 DUP3 ADD SWAP1 POP DUP2 DUP2 SUB PUSH0 DUP4 ADD MSTORE PUSH2 0x3D73 DUP2 PUSH2 0x3D3A JUMP JUMPDEST SWAP1 POP SWAP2 SWAP1 POP JUMP JUMPDEST PUSH32 0x466565206D757374206265203E203020616E64203C2039303000000000000000 PUSH0 DUP3 ADD MSTORE POP JUMP JUMPDEST PUSH0 PUSH2 0x3DAE PUSH1 0x19 DUP4 PUSH2 0x366E JUMP JUMPDEST SWAP2 POP PUSH2 0x3DB9 DUP3 PUSH2 0x3D7A JUMP JUMPDEST PUSH1 0x20 DUP3 ADD SWAP1 POP SWAP2 SWAP1 POP JUMP JUMPDEST PUSH0 PUSH1 0x20 DUP3 ADD SWAP1 POP DUP2 DUP2 SUB PUSH0 DUP4 ADD MSTORE PUSH2 0x3DDB DUP2 PUSH2 0x3DA2 JUMP JUMPDEST SWAP1 POP SWAP2 SWAP1 POP JUMP JUMPDEST PUSH32 0x4E6F20726566756E6461626C6520746F6B656E00000000000000000000000000 PUSH0 DUP3 ADD MSTORE POP JUMP JUMPDEST PUSH0 PUSH2 0x3E16 PUSH1 0x13 DUP4 PUSH2 0x366E JUMP JUMPDEST SWAP2 POP PUSH2 0x3E21 DUP3 PUSH2 0x3DE2 JUMP JUMPDEST PUSH1 0x20 DUP3 ADD SWAP1 POP SWAP2 SWAP1 POP JUMP JUMPDEST PUSH0 PUSH1 0x20 DUP3 ADD SWAP1 POP DUP2 DUP2 SUB PUSH0 DUP4 ADD MSTORE PUSH2 0x3E43 DUP2 PUSH2 0x3E0A JUMP JUMPDEST SWAP1 POP SWAP2 SWAP1 POP JUMP JUMPDEST PUSH0 DUP2 MLOAD SWAP1 POP PUSH2 0x3E58 DUP2 PUSH2 0x347B JUMP JUMPDEST SWAP3 SWAP2 POP POP JUMP JUMPDEST PUSH0 PUSH1 0x20 DUP3 DUP5 SUB SLT ISZERO PUSH2 0x3E73 JUMPI PUSH2 0x3E72 PUSH2 0x33AE JUMP JUMPDEST JUMPDEST PUSH0 PUSH2 0x3E80 DUP5 DUP3 DUP6 ADD PUSH2 0x3E4A JUMP JUMPDEST SWAP2 POP POP SWAP3 SWAP2 POP POP JUMP JUMPDEST PUSH32 0x496E73756666696369656E74204D61726B6574706C616365277320746F6B656E PUSH0 DUP3 ADD MSTORE PUSH32 0x2062616C616E6365000000000000000000000000000000000000000000000000 PUSH1 0x20 DUP3 ADD MSTORE POP JUMP JUMPDEST PUSH0 PUSH2 0x3EE3 PUSH1 0x28 DUP4 PUSH2 0x366E JUMP JUMPDEST SWAP2 POP PUSH2 0x3EEE DUP3 PUSH2 0x3E89 JUMP JUMPDEST PUSH1 0x40 DUP3 ADD SWAP1 POP SWAP2 SWAP1 POP JUMP JUMPDEST PUSH0 PUSH1 0x20 DUP3 ADD SWAP1 POP DUP2 DUP2 SUB PUSH0 DUP4 ADD MSTORE PUSH2 0x3F10 DUP2 PUSH2 0x3ED7 JUMP JUMPDEST SWAP1 POP SWAP2 SWAP1 POP JUMP JUMPDEST PUSH0 DUP2 MLOAD SWAP1 POP PUSH2 0x3F25 DUP2 PUSH2 0x33E2 JUMP JUMPDEST SWAP3 SWAP2 POP POP JUMP JUMPDEST PUSH0 PUSH1 0x20 DUP3 DUP5 SUB SLT ISZERO PUSH2 0x3F40 JUMPI PUSH2 0x3F3F PUSH2 0x33AE JUMP JUMPDEST JUMPDEST PUSH0 PUSH2 0x3F4D DUP5 DUP3 DUP6 ADD PUSH2 0x3F17 JUMP JUMPDEST SWAP2 POP POP SWAP3 SWAP2 POP POP JUMP JUMPDEST PUSH32 0x4E6F74204E4654206F776E657200000000000000000000000000000000000000 PUSH0 DUP3 ADD MSTORE POP JUMP JUMPDEST PUSH0 PUSH2 0x3F8A PUSH1 0xD DUP4 PUSH2 0x366E JUMP JUMPDEST SWAP2 POP PUSH2 0x3F95 DUP3 PUSH2 0x3F56 JUMP JUMPDEST PUSH1 0x20 DUP3 ADD SWAP1 POP SWAP2 SWAP1 POP JUMP JUMPDEST PUSH0 PUSH1 0x20 DUP3 ADD SWAP1 POP DUP2 DUP2 SUB PUSH0 DUP4 ADD MSTORE PUSH2 0x3FB7 DUP2 PUSH2 0x3F7E JUMP JUMPDEST SWAP1 POP SWAP2 SWAP1 POP JUMP JUMPDEST PUSH32 0x556E737570706F72746564207061796D656E7420746F6B656E00000000000000 PUSH0 DUP3 ADD MSTORE POP JUMP JUMPDEST PUSH0 PUSH2 0x3FF2 PUSH1 0x19 DUP4 PUSH2 0x366E JUMP JUMPDEST SWAP2 POP PUSH2 0x3FFD DUP3 PUSH2 0x3FBE JUMP JUMPDEST PUSH1 0x20 DUP3 ADD SWAP1 POP SWAP2 SWAP1 POP JUMP JUMPDEST PUSH0 PUSH1 0x20 DUP3 ADD SWAP1 POP DUP2 DUP2 SUB PUSH0 DUP4 ADD MSTORE PUSH2 0x401F DUP2 PUSH2 0x3FE6 JUMP JUMPDEST SWAP1 POP SWAP2 SWAP1 POP JUMP JUMPDEST PUSH32 0x50726963652073686F756C64206E6F74206265207A65726F0000000000000000 PUSH0 DUP3 ADD MSTORE POP JUMP JUMPDEST PUSH0 PUSH2 0x405A PUSH1 0x18 DUP4 PUSH2 0x366E JUMP JUMPDEST SWAP2 POP PUSH2 0x4065 DUP3 PUSH2 0x4026 JUMP JUMPDEST PUSH1 0x20 DUP3 ADD SWAP1 POP SWAP2 SWAP1 POP JUMP JUMPDEST PUSH0 PUSH1 0x20 DUP3 ADD SWAP1 POP DUP2 DUP2 SUB PUSH0 DUP4 ADD MSTORE PUSH2 0x4087 DUP2 PUSH2 0x404E JUMP JUMPDEST SWAP1 POP SWAP2 SWAP1 POP JUMP JUMPDEST PUSH2 0x4097 DUP2 PUSH2 0x34FB JUMP JUMPDEST DUP2 EQ PUSH2 0x40A1 JUMPI PUSH0 DUP1 REVERT JUMPDEST POP JUMP JUMPDEST PUSH0 DUP2 MLOAD SWAP1 POP PUSH2 0x40B2 DUP2 PUSH2 0x408E JUMP JUMPDEST SWAP3 SWAP2 POP POP JUMP JUMPDEST PUSH0 PUSH1 0x20 DUP3 DUP5 SUB SLT ISZERO PUSH2 0x40CD JUMPI PUSH2 0x40CC PUSH2 0x33AE JUMP JUMPDEST JUMPDEST PUSH0 PUSH2 0x40DA DUP5 DUP3 DUP6 ADD PUSH2 0x40A4 JUMP JUMPDEST SWAP2 POP POP SWAP3 SWAP2 POP POP JUMP JUMPDEST PUSH32 0x4E465420417070726F76616C2072657175697265640000000000000000000000 PUSH0 DUP3 ADD MSTORE POP JUMP JUMPDEST PUSH0 PUSH2 0x4117 PUSH1 0x15 DUP4 PUSH2 0x366E JUMP JUMPDEST SWAP2 POP PUSH2 0x4122 DUP3 PUSH2 0x40E3 JUMP JUMPDEST PUSH1 0x20 DUP3 ADD SWAP1 POP SWAP2 SWAP1 POP JUMP JUMPDEST PUSH0 PUSH1 0x20 DUP3 ADD SWAP1 POP DUP2 DUP2 SUB PUSH0 DUP4 ADD MSTORE PUSH2 0x4144 DUP2 PUSH2 0x410B JUMP JUMPDEST SWAP1 POP SWAP2 SWAP1 POP JUMP JUMPDEST PUSH32 0x4E6F20746F6B656E206561726E696E677320746F207769746864726177000000 PUSH0 DUP3 ADD MSTORE POP JUMP JUMPDEST PUSH0 PUSH2 0x417F PUSH1 0x1D DUP4 PUSH2 0x366E JUMP JUMPDEST SWAP2 POP PUSH2 0x418A DUP3 PUSH2 0x414B JUMP JUMPDEST PUSH1 0x20 DUP3 ADD SWAP1 POP SWAP2 SWAP1 POP JUMP JUMPDEST PUSH0 PUSH1 0x20 DUP3 ADD SWAP1 POP DUP2 DUP2 SUB PUSH0 DUP4 ADD MSTORE PUSH2 0x41AC DUP2 PUSH2 0x4173 JUMP JUMPDEST SWAP1 POP SWAP2 SWAP1 POP JUMP JUMPDEST PUSH32 0x596F7572206269642069732062656C6F77206D696E696D756D20707269636500 PUSH0 DUP3 ADD MSTORE POP JUMP JUMPDEST PUSH0 PUSH2 0x41E7 PUSH1 0x1F DUP4 PUSH2 0x366E JUMP JUMPDEST SWAP2 POP PUSH2 0x41F2 DUP3 PUSH2 0x41B3 JUMP JUMPDEST PUSH1 0x20 DUP3 ADD SWAP1 POP SWAP2 SWAP1 POP JUMP JUMPDEST PUSH0 PUSH1 0x20 DUP3 ADD SWAP1 POP DUP2 DUP2 SUB PUSH0 DUP4 ADD MSTORE PUSH2 0x4214 DUP2 PUSH2 0x41DB JUMP JUMPDEST SWAP1 POP SWAP2 SWAP1 POP JUMP JUMPDEST PUSH32 0x496E636F7272656374204554482073656E740000000000000000000000000000 PUSH0 DUP3 ADD MSTORE POP JUMP JUMPDEST PUSH0 PUSH2 0x424F PUSH1 0x12 DUP4 PUSH2 0x366E JUMP JUMPDEST SWAP2 POP PUSH2 0x425A DUP3 PUSH2 0x421B JUMP JUMPDEST PUSH1 0x20 DUP3 ADD SWAP1 POP SWAP2 SWAP1 POP JUMP JUMPDEST PUSH0 PUSH1 0x20 DUP3 ADD SWAP1 POP DUP2 DUP2 SUB PUSH0 DUP4 ADD MSTORE PUSH2 0x427C DUP2 PUSH2 0x4243 JUMP JUMPDEST SWAP1 POP SWAP2 SWAP1 POP JUMP JUMPDEST PUSH32 0x546F6B656E207472616E73666572206661696C65640000000000000000000000 PUSH0 DUP3 ADD MSTORE POP JUMP JUMPDEST PUSH0 PUSH2 0x42B7 PUSH1 0x15 DUP4 PUSH2 0x366E JUMP JUMPDEST SWAP2 POP PUSH2 0x42C2 DUP3 PUSH2 0x4283 JUMP JUMPDEST PUSH1 0x20 DUP3 ADD SWAP1 POP SWAP2 SWAP1 POP JUMP JUMPDEST PUSH0 PUSH1 0x20 DUP3 ADD SWAP1 POP DUP2 DUP2 SUB PUSH0 DUP4 ADD MSTORE PUSH2 0x42E4 DUP2 PUSH2 0x42AB JUMP JUMPDEST SWAP1 POP SWAP2 SWAP1 POP JUMP JUMPDEST PUSH32 0x426964206D75737420626520686967686572207468616E2063757272656E7420 PUSH0 DUP3 ADD MSTORE PUSH32 0x6269640000000000000000000000000000000000000000000000000000000000 PUSH1 0x20 DUP3 ADD MSTORE POP JUMP JUMPDEST PUSH0 PUSH2 0x4345 PUSH1 0x23 DUP4 PUSH2 0x366E JUMP JUMPDEST SWAP2 POP PUSH2 0x4350 DUP3 PUSH2 0x42EB JUMP JUMPDEST PUSH1 0x40 DUP3 ADD SWAP1 POP SWAP2 SWAP1 POP JUMP JUMPDEST PUSH0 PUSH1 0x20 DUP3 ADD SWAP1 POP DUP2 DUP2 SUB PUSH0 DUP4 ADD MSTORE PUSH2 0x4372 DUP2 PUSH2 0x4339 JUMP JUMPDEST SWAP1 POP SWAP2 SWAP1 POP JUMP JUMPDEST PUSH32 0x4E6F2045544820746F2077697468647261770000000000000000000000000000 PUSH0 DUP3 ADD MSTORE POP JUMP JUMPDEST PUSH0 PUSH2 0x43AD PUSH1 0x12 DUP4 PUSH2 0x366E JUMP JUMPDEST SWAP2 POP PUSH2 0x43B8 DUP3 PUSH2 0x4379 JUMP JUMPDEST PUSH1 0x20 DUP3 ADD SWAP1 POP SWAP2 SWAP1 POP JUMP JUMPDEST PUSH0 PUSH1 0x20 DUP3 ADD SWAP1 POP DUP2 DUP2 SUB PUSH0 DUP4 ADD MSTORE PUSH2 0x43DA DUP2 PUSH2 0x43A1 JUMP JUMPDEST SWAP1 POP SWAP2 SWAP1 POP JUMP JUMPDEST PUSH32 0x455448206561726E696E6773207472616E73666572206661696C656400000000 PUSH0 DUP3 ADD MSTORE POP JUMP JUMPDEST PUSH0 PUSH2 0x4415 PUSH1 0x1C DUP4 PUSH2 0x366E JUMP JUMPDEST SWAP2 POP PUSH2 0x4420 DUP3 PUSH2 0x43E1 JUMP JUMPDEST PUSH1 0x20 DUP3 ADD SWAP1 POP SWAP2 SWAP1 POP JUMP JUMPDEST PUSH0 PUSH1 0x20 DUP3 ADD SWAP1 POP DUP2 DUP2 SUB PUSH0 DUP4 ADD MSTORE PUSH2 0x4442 DUP2 PUSH2 0x4409 JUMP JUMPDEST SWAP1 POP SWAP2 SWAP1 POP JUMP INVALID LOG2 PUSH5 0x6970667358 0x22 SLT KECCAK256 EXP PUSH30 0xD5377DDE09B0617F887101C570AEA25F2C53A7D2DFE18C74EB38E15BF8AA PUSH5 0x736F6C6343 STOP ADDMOD XOR STOP CALLER "
				},
				"gasEstimates": {
					"creation": {
						"codeDepositCost": "3507000",
						"executionCost": "infinite",
						"totalCost": "infinite"
					},
					"external": {
						"FEE_DENOMINATOR()": "436",
						"MAX_FEE()": "2536",
						"MLIFE()": "2641",
						"acceptBid(uint256)": "infinite",
						"adminsEthEarnings()": "2470",
						"adminsTokenEarnings(address)": "2869",
						"cancelListing(uint256)": "infinite",
						"createListing(uint256,address,uint256)": "infinite",
						"currentBids(uint256)": "infinite",
						"ethRefundsForBidders(address)": "2868",
						"listings(uint256)": "infinite",
						"marketplaceFee()": "2514",
						"nftContract()": "2597",
						"owner()": "2605",
						"pause()": "infinite",
						"paused()": "2569",
						"placeBid(uint256,uint256,address)": "infinite",
						"renounceOwnership()": "infinite",
						"tokenRefundsForBidders(address,address)": "infinite",
						"tokenUSDC()": "2575",
						"tokenUSDT()": "2553",
						"transferOwnership(address)": "infinite",
						"unpause()": "infinite",
						"updateMLifeTokenAddress(address)": "infinite",
						"updateMarketplaceFee(uint256)": "infinite",
						"updateMaxFee(uint256)": "infinite",
						"updateNftContract(address)": "infinite",
						"updateUsdcTokenAddress(address)": "infinite",
						"updateUsdtTokenAddress(address)": "infinite",
						"withdrawAdminEthEarnings()": "infinite",
						"withdrawAdminTokenEarnings(address)": "infinite",
						"withdrawBid(uint256)": "infinite",
						"withdrawEthRefunds()": "infinite",
						"withdrawTokenRefunds(address)": "infinite"
					},
					"internal": {
						"_refundBid(address,address,uint256)": "infinite"
					}
				},
				"methodIdentifiers": {
					"FEE_DENOMINATOR()": "d73792a9",
					"MAX_FEE()": "bc063e1a",
					"MLIFE()": "72973791",
					"acceptBid(uint256)": "2b1fd58a",
					"adminsEthEarnings()": "bf6aee98",
					"adminsTokenEarnings(address)": "a3269b09",
					"cancelListing(uint256)": "305a67a8",
					"createListing(uint256,address,uint256)": "65c11bf0",
					"currentBids(uint256)": "ff743e89",
					"ethRefundsForBidders(address)": "ed952ccd",
					"listings(uint256)": "de74e57b",
					"marketplaceFee()": "6a166964",
					"nftContract()": "d56d229d",
					"owner()": "8da5cb5b",
					"pause()": "8456cb59",
					"paused()": "5c975abb",
					"placeBid(uint256,uint256,address)": "ad6561ec",
					"renounceOwnership()": "715018a6",
					"tokenRefundsForBidders(address,address)": "0382d424",
					"tokenUSDC()": "c86d4040",
					"tokenUSDT()": "99c5c8aa",
					"transferOwnership(address)": "f2fde38b",
					"unpause()": "3f4ba83a",
					"updateMLifeTokenAddress(address)": "1f8ca0b5",
					"updateMarketplaceFee(uint256)": "30eb80cd",
					"updateMaxFee(uint256)": "550dddeb",
					"updateNftContract(address)": "92e67c06",
					"updateUsdcTokenAddress(address)": "1e534be6",
					"updateUsdtTokenAddress(address)": "4c97cf7c",
					"withdrawAdminEthEarnings()": "fd95c739",
					"withdrawAdminTokenEarnings(address)": "884282a1",
					"withdrawBid(uint256)": "0eaaf4c8",
					"withdrawEthRefunds()": "52fb6541",
					"withdrawTokenRefunds(address)": "5c3b37db"
				}
			},
			"storageLayout": {
				"storage": [
					{
						"astId": 999,
						"contract": "mainnet/0x81906929b10416a65A305d498267fE20adfC4746/contracts/Marketplace.sol:Marketplace",
						"label": "_status",
						"offset": 0,
						"slot": "0",
						"type": "t_uint256"
					},
					{
						"astId": 8,
						"contract": "mainnet/0x81906929b10416a65A305d498267fE20adfC4746/contracts/Marketplace.sol:Marketplace",
						"label": "_owner",
						"offset": 0,
						"slot": "1",
						"type": "t_address"
					},
					{
						"astId": 880,
						"contract": "mainnet/0x81906929b10416a65A305d498267fE20adfC4746/contracts/Marketplace.sol:Marketplace",
						"label": "_paused",
						"offset": 20,
						"slot": "1",
						"type": "t_bool"
					},
					{
						"astId": 1107,
						"contract": "mainnet/0x81906929b10416a65A305d498267fE20adfC4746/contracts/Marketplace.sol:Marketplace",
						"label": "marketplaceFee",
						"offset": 0,
						"slot": "2",
						"type": "t_uint256"
					},
					{
						"astId": 1113,
						"contract": "mainnet/0x81906929b10416a65A305d498267fE20adfC4746/contracts/Marketplace.sol:Marketplace",
						"label": "MAX_FEE",
						"offset": 0,
						"slot": "3",
						"type": "t_uint256"
					},
					{
						"astId": 1115,
						"contract": "mainnet/0x81906929b10416a65A305d498267fE20adfC4746/contracts/Marketplace.sol:Marketplace",
						"label": "adminsEthEarnings",
						"offset": 0,
						"slot": "4",
						"type": "t_uint256"
					},
					{
						"astId": 1119,
						"contract": "mainnet/0x81906929b10416a65A305d498267fE20adfC4746/contracts/Marketplace.sol:Marketplace",
						"label": "adminsTokenEarnings",
						"offset": 0,
						"slot": "5",
						"type": "t_mapping(t_address,t_uint256)"
					},
					{
						"astId": 1124,
						"contract": "mainnet/0x81906929b10416a65A305d498267fE20adfC4746/contracts/Marketplace.sol:Marketplace",
						"label": "listings",
						"offset": 0,
						"slot": "6",
						"type": "t_mapping(t_uint256,t_struct(Listing)1095_storage)"
					},
					{
						"astId": 1129,
						"contract": "mainnet/0x81906929b10416a65A305d498267fE20adfC4746/contracts/Marketplace.sol:Marketplace",
						"label": "currentBids",
						"offset": 0,
						"slot": "7",
						"type": "t_mapping(t_uint256,t_struct(Bid)1100_storage)"
					},
					{
						"astId": 1133,
						"contract": "mainnet/0x81906929b10416a65A305d498267fE20adfC4746/contracts/Marketplace.sol:Marketplace",
						"label": "ethRefundsForBidders",
						"offset": 0,
						"slot": "8",
						"type": "t_mapping(t_address,t_uint256)"
					},
					{
						"astId": 1139,
						"contract": "mainnet/0x81906929b10416a65A305d498267fE20adfC4746/contracts/Marketplace.sol:Marketplace",
						"label": "tokenRefundsForBidders",
						"offset": 0,
						"slot": "9",
						"type": "t_mapping(t_address,t_mapping(t_address,t_uint256))"
					},
					{
						"astId": 1141,
						"contract": "mainnet/0x81906929b10416a65A305d498267fE20adfC4746/contracts/Marketplace.sol:Marketplace",
						"label": "MLIFE",
						"offset": 0,
						"slot": "10",
						"type": "t_address"
					},
					{
						"astId": 1143,
						"contract": "mainnet/0x81906929b10416a65A305d498267fE20adfC4746/contracts/Marketplace.sol:Marketplace",
						"label": "tokenUSDT",
						"offset": 0,
						"slot": "11",
						"type": "t_address"
					},
					{
						"astId": 1145,
						"contract": "mainnet/0x81906929b10416a65A305d498267fE20adfC4746/contracts/Marketplace.sol:Marketplace",
						"label": "tokenUSDC",
						"offset": 0,
						"slot": "12",
						"type": "t_address"
					},
					{
						"astId": 1147,
						"contract": "mainnet/0x81906929b10416a65A305d498267fE20adfC4746/contracts/Marketplace.sol:Marketplace",
						"label": "nftContract",
						"offset": 0,
						"slot": "13",
						"type": "t_address"
					}
				],
				"types": {
					"t_address": {
						"encoding": "inplace",
						"label": "address",
						"numberOfBytes": "20"
					},
					"t_bool": {
						"encoding": "inplace",
						"label": "bool",
						"numberOfBytes": "1"
					},
					"t_mapping(t_address,t_mapping(t_address,t_uint256))": {
						"encoding": "mapping",
						"key": "t_address",
						"label": "mapping(address => mapping(address => uint256))",
						"numberOfBytes": "32",
						"value": "t_mapping(t_address,t_uint256)"
					},
					"t_mapping(t_address,t_uint256)": {
						"encoding": "mapping",
						"key": "t_address",
						"label": "mapping(address => uint256)",
						"numberOfBytes": "32",
						"value": "t_uint256"
					},
					"t_mapping(t_uint256,t_struct(Bid)1100_storage)": {
						"encoding": "mapping",
						"key": "t_uint256",
						"label": "mapping(uint256 => struct Marketplace.Bid)",
						"numberOfBytes": "32",
						"value": "t_struct(Bid)1100_storage"
					},
					"t_mapping(t_uint256,t_struct(Listing)1095_storage)": {
						"encoding": "mapping",
						"key": "t_uint256",
						"label": "mapping(uint256 => struct Marketplace.Listing)",
						"numberOfBytes": "32",
						"value": "t_struct(Listing)1095_storage"
					},
					"t_struct(Bid)1100_storage": {
						"encoding": "inplace",
						"label": "struct Marketplace.Bid",
						"members": [
							{
								"astId": 1097,
								"contract": "mainnet/0x81906929b10416a65A305d498267fE20adfC4746/contracts/Marketplace.sol:Marketplace",
								"label": "bidder",
								"offset": 0,
								"slot": "0",
								"type": "t_address"
							},
							{
								"astId": 1099,
								"contract": "mainnet/0x81906929b10416a65A305d498267fE20adfC4746/contracts/Marketplace.sol:Marketplace",
								"label": "amount",
								"offset": 0,
								"slot": "1",
								"type": "t_uint256"
							}
						],
						"numberOfBytes": "64"
					},
					"t_struct(Listing)1095_storage": {
						"encoding": "inplace",
						"label": "struct Marketplace.Listing",
						"members": [
							{
								"astId": 1086,
								"contract": "mainnet/0x81906929b10416a65A305d498267fE20adfC4746/contracts/Marketplace.sol:Marketplace",
								"label": "seller",
								"offset": 0,
								"slot": "0",
								"type": "t_address"
							},
							{
								"astId": 1088,
								"contract": "mainnet/0x81906929b10416a65A305d498267fE20adfC4746/contracts/Marketplace.sol:Marketplace",
								"label": "tokenId",
								"offset": 0,
								"slot": "1",
								"type": "t_uint256"
							},
							{
								"astId": 1090,
								"contract": "mainnet/0x81906929b10416a65A305d498267fE20adfC4746/contracts/Marketplace.sol:Marketplace",
								"label": "paymentToken",
								"offset": 0,
								"slot": "2",
								"type": "t_address"
							},
							{
								"astId": 1092,
								"contract": "mainnet/0x81906929b10416a65A305d498267fE20adfC4746/contracts/Marketplace.sol:Marketplace",
								"label": "minPrice",
								"offset": 0,
								"slot": "3",
								"type": "t_uint256"
							},
							{
								"astId": 1094,
								"contract": "mainnet/0x81906929b10416a65A305d498267fE20adfC4746/contracts/Marketplace.sol:Marketplace",
								"label": "active",
								"offset": 0,
								"slot": "4",
								"type": "t_bool"
							}
						],
						"numberOfBytes": "160"
					},
					"t_uint256": {
						"encoding": "inplace",
						"label": "uint256",
						"numberOfBytes": "32"
					}
				}
			},
			"userdoc": {
				"kind": "user",
				"methods": {},
				"notice": "This smart contract is used within the ManageLife ecosystem for buying and selling MLRE properties",
				"version": 1
			}
		}
	}
}