{
	"0x81906929b10416a65A305d498267fE20adfC4746/contracts/Marketplace.sol": {
		"Marketplace": {
			"abi": [
				{
					"inputs": [
						{
							"internalType": "address",
							"name": "_nftContract",
							"type": "address"
						},
						{
							"internalType": "address",
							"name": "_MLIFE",
							"type": "address"
						},
						{
							"internalType": "address",
							"name": "_tokenUSDT",
							"type": "address"
						},
						{
							"internalType": "address",
							"name": "_tokenUSDC",
							"type": "address"
						}
					],
					"stateMutability": "nonpayable",
					"type": "constructor"
				},
				{
					"inputs": [],
					"name": "EnforcedPause",
					"type": "error"
				},
				{
					"inputs": [],
					"name": "ExpectedPause",
					"type": "error"
				},
				{
					"inputs": [
						{
							"internalType": "address",
							"name": "owner",
							"type": "address"
						}
					],
					"name": "OwnableInvalidOwner",
					"type": "error"
				},
				{
					"inputs": [
						{
							"internalType": "address",
							"name": "account",
							"type": "address"
						}
					],
					"name": "OwnableUnauthorizedAccount",
					"type": "error"
				},
				{
					"inputs": [],
					"name": "ReentrancyGuardReentrantCall",
					"type": "error"
				},
				{
					"inputs": [
						{
							"internalType": "address",
							"name": "token",
							"type": "address"
						}
					],
					"name": "SafeERC20FailedOperation",
					"type": "error"
				},
				{
					"anonymous": false,
					"inputs": [
						{
							"indexed": true,
							"internalType": "address",
							"name": "admin",
							"type": "address"
						},
						{
							"indexed": false,
							"internalType": "uint256",
							"name": "amount",
							"type": "uint256"
						}
					],
					"name": "AdminEthWithdrawals",
					"type": "event"
				},
				{
					"anonymous": false,
					"inputs": [
						{
							"indexed": true,
							"internalType": "address",
							"name": "admin",
							"type": "address"
						},
						{
							"indexed": true,
							"internalType": "address",
							"name": "token",
							"type": "address"
						},
						{
							"indexed": false,
							"internalType": "uint256",
							"name": "amount",
							"type": "uint256"
						}
					],
					"name": "AdminTokenWithdrawals",
					"type": "event"
				},
				{
					"anonymous": false,
					"inputs": [
						{
							"indexed": true,
							"internalType": "uint256",
							"name": "tokenId",
							"type": "uint256"
						},
						{
							"indexed": true,
							"internalType": "address",
							"name": "bidder",
							"type": "address"
						},
						{
							"indexed": false,
							"internalType": "uint256",
							"name": "amount",
							"type": "uint256"
						}
					],
					"name": "BidPlaced",
					"type": "event"
				},
				{
					"anonymous": false,
					"inputs": [
						{
							"indexed": true,
							"internalType": "uint256",
							"name": "tokenId",
							"type": "uint256"
						},
						{
							"indexed": true,
							"internalType": "address",
							"name": "bidder",
							"type": "address"
						}
					],
					"name": "BidWithdrawn",
					"type": "event"
				},
				{
					"anonymous": false,
					"inputs": [
						{
							"indexed": true,
							"internalType": "uint256",
							"name": "tokenId",
							"type": "uint256"
						},
						{
							"indexed": false,
							"internalType": "address",
							"name": "seller",
							"type": "address"
						}
					],
					"name": "ListingCancelled",
					"type": "event"
				},
				{
					"anonymous": false,
					"inputs": [
						{
							"indexed": true,
							"internalType": "address",
							"name": "seller",
							"type": "address"
						},
						{
							"indexed": true,
							"internalType": "uint256",
							"name": "tokenId",
							"type": "uint256"
						},
						{
							"indexed": false,
							"internalType": "address",
							"name": "paymentToken",
							"type": "address"
						},
						{
							"indexed": false,
							"internalType": "uint256",
							"name": "minPrice",
							"type": "uint256"
						}
					],
					"name": "ListingCreated",
					"type": "event"
				},
				{
					"anonymous": false,
					"inputs": [
						{
							"indexed": false,
							"internalType": "address",
							"name": "oldAddress",
							"type": "address"
						},
						{
							"indexed": false,
							"internalType": "address",
							"name": "newAddress",
							"type": "address"
						}
					],
					"name": "MLifeTokenAddressUpdated",
					"type": "event"
				},
				{
					"anonymous": false,
					"inputs": [
						{
							"indexed": false,
							"internalType": "uint256",
							"name": "newFee",
							"type": "uint256"
						}
					],
					"name": "MarketplaceFeeUpdated",
					"type": "event"
				},
				{
					"anonymous": false,
					"inputs": [
						{
							"indexed": false,
							"internalType": "uint256",
							"name": "newMaxFee",
							"type": "uint256"
						}
					],
					"name": "MaxFeeUpdated",
					"type": "event"
				},
				{
					"anonymous": false,
					"inputs": [
						{
							"indexed": true,
							"internalType": "uint256",
							"name": "tokenId",
							"type": "uint256"
						},
						{
							"indexed": true,
							"internalType": "address",
							"name": "buyer",
							"type": "address"
						},
						{
							"indexed": true,
							"internalType": "address",
							"name": "seller",
							"type": "address"
						},
						{
							"indexed": false,
							"internalType": "uint256",
							"name": "price",
							"type": "uint256"
						}
					],
					"name": "NFTSold",
					"type": "event"
				},
				{
					"anonymous": false,
					"inputs": [
						{
							"indexed": false,
							"internalType": "address",
							"name": "oldAddress",
							"type": "address"
						},
						{
							"indexed": false,
							"internalType": "address",
							"name": "newAddress",
							"type": "address"
						}
					],
					"name": "NftAddressUpdated",
					"type": "event"
				},
				{
					"anonymous": false,
					"inputs": [
						{
							"indexed": true,
							"internalType": "address",
							"name": "previousOwner",
							"type": "address"
						},
						{
							"indexed": true,
							"internalType": "address",
							"name": "newOwner",
							"type": "address"
						}
					],
					"name": "OwnershipTransferred",
					"type": "event"
				},
				{
					"anonymous": false,
					"inputs": [],
					"name": "Paused",
					"type": "event"
				},
				{
					"anonymous": false,
					"inputs": [
						{
							"indexed": false,
							"internalType": "address",
							"name": "account",
							"type": "address"
						}
					],
					"name": "Paused",
					"type": "event"
				},
				{
					"anonymous": false,
					"inputs": [
						{
							"indexed": true,
							"internalType": "address",
							"name": "receiver",
							"type": "address"
						},
						{
							"indexed": true,
							"internalType": "address",
							"name": "tokenType",
							"type": "address"
						},
						{
							"indexed": false,
							"internalType": "uint256",
							"name": "amount",
							"type": "uint256"
						}
					],
					"name": "RefundIssued",
					"type": "event"
				},
				{
					"anonymous": false,
					"inputs": [
						{
							"indexed": true,
							"internalType": "address",
							"name": "paymentType",
							"type": "address"
						},
						{
							"indexed": true,
							"internalType": "address",
							"name": "receiver",
							"type": "address"
						},
						{
							"indexed": false,
							"internalType": "uint256",
							"name": "amount",
							"type": "uint256"
						}
					],
					"name": "RefundWithdrawn",
					"type": "event"
				},
				{
					"anonymous": false,
					"inputs": [],
					"name": "Unpaused",
					"type": "event"
				},
				{
					"anonymous": false,
					"inputs": [
						{
							"indexed": false,
							"internalType": "address",
							"name": "account",
							"type": "address"
						}
					],
					"name": "Unpaused",
					"type": "event"
				},
				{
					"anonymous": false,
					"inputs": [
						{
							"indexed": false,
							"internalType": "address",
							"name": "oldAddress",
							"type": "address"
						},
						{
							"indexed": false,
							"internalType": "address",
							"name": "newAddress",
							"type": "address"
						}
					],
					"name": "UsdcAddressUpdated",
					"type": "event"
				},
				{
					"anonymous": false,
					"inputs": [
						{
							"indexed": false,
							"internalType": "address",
							"name": "oldAddress",
							"type": "address"
						},
						{
							"indexed": false,
							"internalType": "address",
							"name": "newAddress",
							"type": "address"
						}
					],
					"name": "UsdtAddressUpdated",
					"type": "event"
				},
				{
					"inputs": [],
					"name": "FEE_DENOMINATOR",
					"outputs": [
						{
							"internalType": "uint256",
							"name": "",
							"type": "uint256"
						}
					],
					"stateMutability": "view",
					"type": "function"
				},
				{
					"inputs": [],
					"name": "MAX_FEE",
					"outputs": [
						{
							"internalType": "uint256",
							"name": "",
							"type": "uint256"
						}
					],
					"stateMutability": "view",
					"type": "function"
				},
				{
					"inputs": [],
					"name": "MLIFE",
					"outputs": [
						{
							"internalType": "address",
							"name": "",
							"type": "address"
						}
					],
					"stateMutability": "view",
					"type": "function"
				},
				{
					"inputs": [
						{
							"internalType": "uint256",
							"name": "tokenId",
							"type": "uint256"
						}
					],
					"name": "acceptBid",
					"outputs": [],
					"stateMutability": "nonpayable",
					"type": "function"
				},
				{
					"inputs": [],
					"name": "adminsEthEarnings",
					"outputs": [
						{
							"internalType": "uint256",
							"name": "",
							"type": "uint256"
						}
					],
					"stateMutability": "view",
					"type": "function"
				},
				{
					"inputs": [
						{
							"internalType": "address",
							"name": "",
							"type": "address"
						}
					],
					"name": "adminsTokenEarnings",
					"outputs": [
						{
							"internalType": "uint256",
							"name": "",
							"type": "uint256"
						}
					],
					"stateMutability": "view",
					"type": "function"
				},
				{
					"inputs": [
						{
							"internalType": "uint256",
							"name": "tokenId",
							"type": "uint256"
						}
					],
					"name": "cancelListing",
					"outputs": [],
					"stateMutability": "nonpayable",
					"type": "function"
				},
				{
					"inputs": [
						{
							"internalType": "uint256",
							"name": "tokenId",
							"type": "uint256"
						},
						{
							"internalType": "address",
							"name": "paymentToken",
							"type": "address"
						},
						{
							"internalType": "uint256",
							"name": "minPrice",
							"type": "uint256"
						}
					],
					"name": "createListing",
					"outputs": [],
					"stateMutability": "nonpayable",
					"type": "function"
				},
				{
					"inputs": [
						{
							"internalType": "uint256",
							"name": "",
							"type": "uint256"
						}
					],
					"name": "currentBids",
					"outputs": [
						{
							"internalType": "address",
							"name": "bidder",
							"type": "address"
						},
						{
							"internalType": "uint256",
							"name": "amount",
							"type": "uint256"
						}
					],
					"stateMutability": "view",
					"type": "function"
				},
				{
					"inputs": [
						{
							"internalType": "address",
							"name": "",
							"type": "address"
						}
					],
					"name": "ethRefundsForBidders",
					"outputs": [
						{
							"internalType": "uint256",
							"name": "",
							"type": "uint256"
						}
					],
					"stateMutability": "view",
					"type": "function"
				},
				{
					"inputs": [
						{
							"internalType": "uint256",
							"name": "",
							"type": "uint256"
						}
					],
					"name": "listings",
					"outputs": [
						{
							"internalType": "address",
							"name": "seller",
							"type": "address"
						},
						{
							"internalType": "uint256",
							"name": "tokenId",
							"type": "uint256"
						},
						{
							"internalType": "address",
							"name": "paymentToken",
							"type": "address"
						},
						{
							"internalType": "uint256",
							"name": "minPrice",
							"type": "uint256"
						},
						{
							"internalType": "bool",
							"name": "active",
							"type": "bool"
						}
					],
					"stateMutability": "view",
					"type": "function"
				},
				{
					"inputs": [],
					"name": "marketplaceFee",
					"outputs": [
						{
							"internalType": "uint256",
							"name": "",
							"type": "uint256"
						}
					],
					"stateMutability": "view",
					"type": "function"
				},
				{
					"inputs": [],
					"name": "nftContract",
					"outputs": [
						{
							"internalType": "address",
							"name": "",
							"type": "address"
						}
					],
					"stateMutability": "view",
					"type": "function"
				},
				{
					"inputs": [
						{
							"internalType": "address",
							"name": "",
							"type": "address"
						},
						{
							"internalType": "address",
							"name": "",
							"type": "address"
						},
						{
							"internalType": "uint256",
							"name": "",
							"type": "uint256"
						},
						{
							"internalType": "bytes",
							"name": "",
							"type": "bytes"
						}
					],
					"name": "onERC721Received",
					"outputs": [
						{
							"internalType": "bytes4",
							"name": "",
							"type": "bytes4"
						}
					],
					"stateMutability": "pure",
					"type": "function"
				},
				{
					"inputs": [],
					"name": "owner",
					"outputs": [
						{
							"internalType": "address",
							"name": "",
							"type": "address"
						}
					],
					"stateMutability": "view",
					"type": "function"
				},
				{
					"inputs": [],
					"name": "pause",
					"outputs": [],
					"stateMutability": "nonpayable",
					"type": "function"
				},
				{
					"inputs": [],
					"name": "paused",
					"outputs": [
						{
							"internalType": "bool",
							"name": "",
							"type": "bool"
						}
					],
					"stateMutability": "view",
					"type": "function"
				},
				{
					"inputs": [
						{
							"internalType": "uint256",
							"name": "tokenId",
							"type": "uint256"
						},
						{
							"internalType": "uint256",
							"name": "amount",
							"type": "uint256"
						},
						{
							"internalType": "address",
							"name": "paymentType",
							"type": "address"
						}
					],
					"name": "placeBid",
					"outputs": [],
					"stateMutability": "payable",
					"type": "function"
				},
				{
					"inputs": [],
					"name": "renounceOwnership",
					"outputs": [],
					"stateMutability": "nonpayable",
					"type": "function"
				},
				{
					"inputs": [
						{
							"internalType": "address",
							"name": "",
							"type": "address"
						},
						{
							"internalType": "address",
							"name": "",
							"type": "address"
						}
					],
					"name": "tokenRefundsForBidders",
					"outputs": [
						{
							"internalType": "uint256",
							"name": "",
							"type": "uint256"
						}
					],
					"stateMutability": "view",
					"type": "function"
				},
				{
					"inputs": [],
					"name": "tokenUSDC",
					"outputs": [
						{
							"internalType": "address",
							"name": "",
							"type": "address"
						}
					],
					"stateMutability": "view",
					"type": "function"
				},
				{
					"inputs": [],
					"name": "tokenUSDT",
					"outputs": [
						{
							"internalType": "address",
							"name": "",
							"type": "address"
						}
					],
					"stateMutability": "view",
					"type": "function"
				},
				{
					"inputs": [
						{
							"internalType": "address",
							"name": "newOwner",
							"type": "address"
						}
					],
					"name": "transferOwnership",
					"outputs": [],
					"stateMutability": "nonpayable",
					"type": "function"
				},
				{
					"inputs": [],
					"name": "unpause",
					"outputs": [],
					"stateMutability": "nonpayable",
					"type": "function"
				},
				{
					"inputs": [
						{
							"internalType": "address",
							"name": "newAddress",
							"type": "address"
						}
					],
					"name": "updateMLifeTokenAddress",
					"outputs": [],
					"stateMutability": "nonpayable",
					"type": "function"
				},
				{
					"inputs": [
						{
							"internalType": "uint256",
							"name": "newFee",
							"type": "uint256"
						}
					],
					"name": "updateMarketplaceFee",
					"outputs": [],
					"stateMutability": "nonpayable",
					"type": "function"
				},
				{
					"inputs": [
						{
							"internalType": "uint256",
							"name": "newMaxFee",
							"type": "uint256"
						}
					],
					"name": "updateMaxFee",
					"outputs": [],
					"stateMutability": "nonpayable",
					"type": "function"
				},
				{
					"inputs": [
						{
							"internalType": "address",
							"name": "newAddress",
							"type": "address"
						}
					],
					"name": "updateNftContract",
					"outputs": [],
					"stateMutability": "nonpayable",
					"type": "function"
				},
				{
					"inputs": [
						{
							"internalType": "address",
							"name": "newAddress",
							"type": "address"
						}
					],
					"name": "updateUsdcTokenAddress",
					"outputs": [],
					"stateMutability": "nonpayable",
					"type": "function"
				},
				{
					"inputs": [
						{
							"internalType": "address",
							"name": "newAddress",
							"type": "address"
						}
					],
					"name": "updateUsdtTokenAddress",
					"outputs": [],
					"stateMutability": "nonpayable",
					"type": "function"
				},
				{
					"inputs": [],
					"name": "withdrawAdminEthEarnings",
					"outputs": [],
					"stateMutability": "nonpayable",
					"type": "function"
				},
				{
					"inputs": [
						{
							"internalType": "address",
							"name": "tokenAddress",
							"type": "address"
						}
					],
					"name": "withdrawAdminTokenEarnings",
					"outputs": [],
					"stateMutability": "nonpayable",
					"type": "function"
				},
				{
					"inputs": [],
					"name": "withdrawEthRefunds",
					"outputs": [],
					"stateMutability": "nonpayable",
					"type": "function"
				},
				{
					"inputs": [
						{
							"internalType": "address",
							"name": "paymentToken",
							"type": "address"
						}
					],
					"name": "withdrawTokenRefunds",
					"outputs": [],
					"stateMutability": "nonpayable",
					"type": "function"
				},
				{
					"stateMutability": "payable",
					"type": "receive"
				}
			],
			"devdoc": {
				"author": "https://managelife.io",
				"details": "A different marketplace contract needs to be built for the NFTi",
				"errors": {
					"EnforcedPause()": [
						{
							"details": "The operation failed because the contract is paused."
						}
					],
					"ExpectedPause()": [
						{
							"details": "The operation failed because the contract is not paused."
						}
					],
					"OwnableInvalidOwner(address)": [
						{
							"details": "The owner is not a valid owner account. (eg. `address(0)`)"
						}
					],
					"OwnableUnauthorizedAccount(address)": [
						{
							"details": "The caller account is not authorized to perform an operation."
						}
					],
					"ReentrancyGuardReentrantCall()": [
						{
							"details": "Unauthorized reentrant call."
						}
					],
					"SafeERC20FailedOperation(address)": [
						{
							"details": "An operation with an ERC-20 token failed."
						}
					]
				},
				"events": {
					"Paused(address)": {
						"details": "Emitted when the pause is triggered by `account`."
					},
					"Unpaused(address)": {
						"details": "Emitted when the pause is lifted by `account`."
					}
				},
				"kind": "dev",
				"methods": {
					"owner()": {
						"details": "Returns the address of the current owner."
					},
					"paused()": {
						"details": "Returns true if the contract is paused, and false otherwise."
					},
					"renounceOwnership()": {
						"details": "Leaves the contract without owner. It will not be possible to call `onlyOwner` functions. Can only be called by the current owner. NOTE: Renouncing ownership will leave the contract without an owner, thereby disabling any functionality that is only available to the owner."
					},
					"transferOwnership(address)": {
						"details": "Transfers ownership of the contract to a new account (`newOwner`). Can only be called by the current owner."
					}
				},
				"title": "ManageLife Marketplace",
				"version": 1
			},
			"evm": {
				"assembly": "    /* \"0x81906929b10416a65A305d498267fE20adfC4746/contracts/Marketplace.sol\":726:11637  contract Marketplace is ReentrancyGuard, Ownable, Pausable, IERC721Receiver {... */\n  mstore(0x40, 0x80)\n    /* \"0x81906929b10416a65A305d498267fE20adfC4746/contracts/Marketplace.sol\":1135:1138  200 */\n  0xc8\n    /* \"0x81906929b10416a65A305d498267fE20adfC4746/contracts/Marketplace.sol\":1103:1138  uint256 public marketplaceFee = 200 */\n  0x02\n  sstore\n    /* \"0x81906929b10416a65A305d498267fE20adfC4746/contracts/Marketplace.sol\":1235:1238  500 */\n  0x01f4\n    /* \"0x81906929b10416a65A305d498267fE20adfC4746/contracts/Marketplace.sol\":1210:1238  uint256 public MAX_FEE = 500 */\n  0x03\n  sstore\n    /* \"0x81906929b10416a65A305d498267fE20adfC4746/contracts/Marketplace.sol\":3506:4053  constructor(... */\n  callvalue\n  dup1\n  iszero\n  tag_1\n  jumpi\n  0x00\n  dup1\n  revert\ntag_1:\n  pop\n  mload(0x40)\n  sub(codesize, bytecodeSize)\n  dup1\n  bytecodeSize\n  dup4\n  codecopy\n  dup2\n  dup2\n  add\n  0x40\n  mstore\n  dup2\n  add\n  swap1\n  tag_2\n  swap2\n  swap1\n  tag_3\n  jump\t// in\ntag_2:\n    /* \"0x81906929b10416a65A305d498267fE20adfC4746/contracts/Marketplace.sol\":3642:3652  msg.sender */\n  caller\n    /* \"@openzeppelin/contracts/utils/ReentrancyGuard.sol\":1857:1858  1 */\n  0x01\n    /* \"@openzeppelin/contracts/utils/ReentrancyGuard.sol\":2061:2068  _status */\n  0x00\n    /* \"@openzeppelin/contracts/utils/ReentrancyGuard.sol\":2061:2082  _status = NOT_ENTERED */\n  dup2\n  swap1\n  sstore\n  pop\n    /* \"@openzeppelin/contracts/access/Ownable.sol\":1297:1298  0 */\n  0x00\n    /* \"@openzeppelin/contracts/access/Ownable.sol\":1273:1299  initialOwner == address(0) */\n  0xffffffffffffffffffffffffffffffffffffffff\n  and\n    /* \"@openzeppelin/contracts/access/Ownable.sol\":1273:1285  initialOwner */\n  dup2\n    /* \"@openzeppelin/contracts/access/Ownable.sol\":1273:1299  initialOwner == address(0) */\n  0xffffffffffffffffffffffffffffffffffffffff\n  and\n  sub\n    /* \"@openzeppelin/contracts/access/Ownable.sol\":1269:1364  if (initialOwner == address(0)) {... */\n  tag_10\n  jumpi\n    /* \"@openzeppelin/contracts/access/Ownable.sol\":1350:1351  0 */\n  0x00\n    /* \"@openzeppelin/contracts/access/Ownable.sol\":1322:1353  OwnableInvalidOwner(address(0)) */\n  mload(0x40)\n  0x1e4fbdf700000000000000000000000000000000000000000000000000000000\n  dup2\n  mstore\n  0x04\n  add\n  tag_11\n  swap2\n  swap1\n  tag_12\n  jump\t// in\ntag_11:\n  mload(0x40)\n  dup1\n  swap2\n  sub\n  swap1\n  revert\n    /* \"@openzeppelin/contracts/access/Ownable.sol\":1269:1364  if (initialOwner == address(0)) {... */\ntag_10:\n    /* \"@openzeppelin/contracts/access/Ownable.sol\":1373:1405  _transferOwnership(initialOwner) */\n  tag_13\n    /* \"@openzeppelin/contracts/access/Ownable.sol\":1392:1404  initialOwner */\n  dup2\n    /* \"@openzeppelin/contracts/access/Ownable.sol\":1373:1391  _transferOwnership */\n  shl(0x20, tag_14)\n    /* \"@openzeppelin/contracts/access/Ownable.sol\":1373:1405  _transferOwnership(initialOwner) */\n  0x20\n  shr\n  jump\t// in\ntag_13:\n    /* \"@openzeppelin/contracts/access/Ownable.sol\":1225:1412  constructor(address initialOwner) {... */\n  pop\n    /* \"@openzeppelin/contracts/utils/Pausable.sol\":1241:1246  false */\n  0x00\n    /* \"@openzeppelin/contracts/utils/Pausable.sol\":1231:1238  _paused */\n  0x01\n  0x14\n    /* \"@openzeppelin/contracts/utils/Pausable.sol\":1231:1246  _paused = false */\n  0x0100\n  exp\n  dup2\n  sload\n  dup2\n  0xff\n  mul\n  not\n  and\n  swap1\n  dup4\n  iszero\n  iszero\n  mul\n  or\n  swap1\n  sstore\n  pop\n    /* \"0x81906929b10416a65A305d498267fE20adfC4746/contracts/Marketplace.sol\":3696:3697  0 */\n  0x00\n    /* \"0x81906929b10416a65A305d498267fE20adfC4746/contracts/Marketplace.sol\":3672:3698  _nftContract != address(0) */\n  0xffffffffffffffffffffffffffffffffffffffff\n  and\n    /* \"0x81906929b10416a65A305d498267fE20adfC4746/contracts/Marketplace.sol\":3672:3684  _nftContract */\n  dup5\n    /* \"0x81906929b10416a65A305d498267fE20adfC4746/contracts/Marketplace.sol\":3672:3698  _nftContract != address(0) */\n  0xffffffffffffffffffffffffffffffffffffffff\n  and\n  sub\n    /* \"0x81906929b10416a65A305d498267fE20adfC4746/contracts/Marketplace.sol\":3664:3723  require(_nftContract != address(0), \"Invalid NFT contract\") */\n  tag_17\n  jumpi\n  mload(0x40)\n  0x08c379a000000000000000000000000000000000000000000000000000000000\n  dup2\n  mstore\n  0x04\n  add\n  tag_18\n  swap1\n  tag_19\n  jump\t// in\ntag_18:\n  mload(0x40)\n  dup1\n  swap2\n  sub\n  swap1\n  revert\ntag_17:\n    /* \"0x81906929b10416a65A305d498267fE20adfC4746/contracts/Marketplace.sol\":3759:3760  0 */\n  0x00\n    /* \"0x81906929b10416a65A305d498267fE20adfC4746/contracts/Marketplace.sol\":3741:3761  _MLIFE != address(0) */\n  0xffffffffffffffffffffffffffffffffffffffff\n  and\n    /* \"0x81906929b10416a65A305d498267fE20adfC4746/contracts/Marketplace.sol\":3741:3747  _MLIFE */\n  dup4\n    /* \"0x81906929b10416a65A305d498267fE20adfC4746/contracts/Marketplace.sol\":3741:3761  _MLIFE != address(0) */\n  0xffffffffffffffffffffffffffffffffffffffff\n  and\n  sub\n    /* \"0x81906929b10416a65A305d498267fE20adfC4746/contracts/Marketplace.sol\":3733:3787  require(_MLIFE != address(0), \"Invalid MLIFE address\") */\n  tag_20\n  jumpi\n  mload(0x40)\n  0x08c379a000000000000000000000000000000000000000000000000000000000\n  dup2\n  mstore\n  0x04\n  add\n  tag_21\n  swap1\n  tag_22\n  jump\t// in\ntag_21:\n  mload(0x40)\n  dup1\n  swap2\n  sub\n  swap1\n  revert\ntag_20:\n    /* \"0x81906929b10416a65A305d498267fE20adfC4746/contracts/Marketplace.sol\":3827:3828  0 */\n  0x00\n    /* \"0x81906929b10416a65A305d498267fE20adfC4746/contracts/Marketplace.sol\":3805:3829  _tokenUSDT != address(0) */\n  0xffffffffffffffffffffffffffffffffffffffff\n  and\n    /* \"0x81906929b10416a65A305d498267fE20adfC4746/contracts/Marketplace.sol\":3805:3815  _tokenUSDT */\n  dup3\n    /* \"0x81906929b10416a65A305d498267fE20adfC4746/contracts/Marketplace.sol\":3805:3829  _tokenUSDT != address(0) */\n  0xffffffffffffffffffffffffffffffffffffffff\n  and\n  sub\n    /* \"0x81906929b10416a65A305d498267fE20adfC4746/contracts/Marketplace.sol\":3797:3854  require(_tokenUSDT != address(0), \"Invalid USDT address\") */\n  tag_23\n  jumpi\n  mload(0x40)\n  0x08c379a000000000000000000000000000000000000000000000000000000000\n  dup2\n  mstore\n  0x04\n  add\n  tag_24\n  swap1\n  tag_25\n  jump\t// in\ntag_24:\n  mload(0x40)\n  dup1\n  swap2\n  sub\n  swap1\n  revert\ntag_23:\n    /* \"0x81906929b10416a65A305d498267fE20adfC4746/contracts/Marketplace.sol\":3894:3895  0 */\n  0x00\n    /* \"0x81906929b10416a65A305d498267fE20adfC4746/contracts/Marketplace.sol\":3872:3896  _tokenUSDC != address(0) */\n  0xffffffffffffffffffffffffffffffffffffffff\n  and\n    /* \"0x81906929b10416a65A305d498267fE20adfC4746/contracts/Marketplace.sol\":3872:3882  _tokenUSDC */\n  dup2\n    /* \"0x81906929b10416a65A305d498267fE20adfC4746/contracts/Marketplace.sol\":3872:3896  _tokenUSDC != address(0) */\n  0xffffffffffffffffffffffffffffffffffffffff\n  and\n  sub\n    /* \"0x81906929b10416a65A305d498267fE20adfC4746/contracts/Marketplace.sol\":3864:3921  require(_tokenUSDC != address(0), \"Invalid USDC address\") */\n  tag_26\n  jumpi\n  mload(0x40)\n  0x08c379a000000000000000000000000000000000000000000000000000000000\n  dup2\n  mstore\n  0x04\n  add\n  tag_27\n  swap1\n  tag_28\n  jump\t// in\ntag_27:\n  mload(0x40)\n  dup1\n  swap2\n  sub\n  swap1\n  revert\ntag_26:\n    /* \"0x81906929b10416a65A305d498267fE20adfC4746/contracts/Marketplace.sol\":3946:3958  _nftContract */\n  dup4\n    /* \"0x81906929b10416a65A305d498267fE20adfC4746/contracts/Marketplace.sol\":3932:3943  nftContract */\n  0x0d\n  0x00\n    /* \"0x81906929b10416a65A305d498267fE20adfC4746/contracts/Marketplace.sol\":3932:3958  nftContract = _nftContract */\n  0x0100\n  exp\n  dup2\n  sload\n  dup2\n  0xffffffffffffffffffffffffffffffffffffffff\n  mul\n  not\n  and\n  swap1\n  dup4\n  0xffffffffffffffffffffffffffffffffffffffff\n  and\n  mul\n  or\n  swap1\n  sstore\n  pop\n    /* \"0x81906929b10416a65A305d498267fE20adfC4746/contracts/Marketplace.sol\":3976:3982  _MLIFE */\n  dup3\n    /* \"0x81906929b10416a65A305d498267fE20adfC4746/contracts/Marketplace.sol\":3968:3973  MLIFE */\n  0x0a\n  0x00\n    /* \"0x81906929b10416a65A305d498267fE20adfC4746/contracts/Marketplace.sol\":3968:3982  MLIFE = _MLIFE */\n  0x0100\n  exp\n  dup2\n  sload\n  dup2\n  0xffffffffffffffffffffffffffffffffffffffff\n  mul\n  not\n  and\n  swap1\n  dup4\n  0xffffffffffffffffffffffffffffffffffffffff\n  and\n  mul\n  or\n  swap1\n  sstore\n  pop\n    /* \"0x81906929b10416a65A305d498267fE20adfC4746/contracts/Marketplace.sol\":4004:4014  _tokenUSDT */\n  dup2\n    /* \"0x81906929b10416a65A305d498267fE20adfC4746/contracts/Marketplace.sol\":3992:4001  tokenUSDT */\n  0x0b\n  0x00\n    /* \"0x81906929b10416a65A305d498267fE20adfC4746/contracts/Marketplace.sol\":3992:4014  tokenUSDT = _tokenUSDT */\n  0x0100\n  exp\n  dup2\n  sload\n  dup2\n  0xffffffffffffffffffffffffffffffffffffffff\n  mul\n  not\n  and\n  swap1\n  dup4\n  0xffffffffffffffffffffffffffffffffffffffff\n  and\n  mul\n  or\n  swap1\n  sstore\n  pop\n    /* \"0x81906929b10416a65A305d498267fE20adfC4746/contracts/Marketplace.sol\":4036:4046  _tokenUSDC */\n  dup1\n    /* \"0x81906929b10416a65A305d498267fE20adfC4746/contracts/Marketplace.sol\":4024:4033  tokenUSDC */\n  0x0c\n  0x00\n    /* \"0x81906929b10416a65A305d498267fE20adfC4746/contracts/Marketplace.sol\":4024:4046  tokenUSDC = _tokenUSDC */\n  0x0100\n  exp\n  dup2\n  sload\n  dup2\n  0xffffffffffffffffffffffffffffffffffffffff\n  mul\n  not\n  and\n  swap1\n  dup4\n  0xffffffffffffffffffffffffffffffffffffffff\n  and\n  mul\n  or\n  swap1\n  sstore\n  pop\n    /* \"0x81906929b10416a65A305d498267fE20adfC4746/contracts/Marketplace.sol\":3506:4053  constructor(... */\n  pop\n  pop\n  pop\n  pop\n    /* \"0x81906929b10416a65A305d498267fE20adfC4746/contracts/Marketplace.sol\":726:11637  contract Marketplace is ReentrancyGuard, Ownable, Pausable, IERC721Receiver {... */\n  jump(tag_29)\n    /* \"@openzeppelin/contracts/access/Ownable.sol\":2912:3099  function _transferOwnership(address newOwner) internal virtual {... */\ntag_14:\n    /* \"@openzeppelin/contracts/access/Ownable.sol\":2985:3001  address oldOwner */\n  0x00\n    /* \"@openzeppelin/contracts/access/Ownable.sol\":3004:3010  _owner */\n  0x01\n  0x00\n  swap1\n  sload\n  swap1\n  0x0100\n  exp\n  swap1\n  div\n  0xffffffffffffffffffffffffffffffffffffffff\n  and\n    /* \"@openzeppelin/contracts/access/Ownable.sol\":2985:3010  address oldOwner = _owner */\n  swap1\n  pop\n    /* \"@openzeppelin/contracts/access/Ownable.sol\":3029:3037  newOwner */\n  dup2\n    /* \"@openzeppelin/contracts/access/Ownable.sol\":3020:3026  _owner */\n  0x01\n  0x00\n    /* \"@openzeppelin/contracts/access/Ownable.sol\":3020:3037  _owner = newOwner */\n  0x0100\n  exp\n  dup2\n  sload\n  dup2\n  0xffffffffffffffffffffffffffffffffffffffff\n  mul\n  not\n  and\n  swap1\n  dup4\n  0xffffffffffffffffffffffffffffffffffffffff\n  and\n  mul\n  or\n  swap1\n  sstore\n  pop\n    /* \"@openzeppelin/contracts/access/Ownable.sol\":3083:3091  newOwner */\n  dup2\n    /* \"@openzeppelin/contracts/access/Ownable.sol\":3052:3092  OwnershipTransferred(oldOwner, newOwner) */\n  0xffffffffffffffffffffffffffffffffffffffff\n  and\n    /* \"@openzeppelin/contracts/access/Ownable.sol\":3073:3081  oldOwner */\n  dup2\n    /* \"@openzeppelin/contracts/access/Ownable.sol\":3052:3092  OwnershipTransferred(oldOwner, newOwner) */\n  0xffffffffffffffffffffffffffffffffffffffff\n  and\n  0x8be0079c531659141344cd1fd0a4f28419497f9722a3daafe3b4186f6b6457e0\n  mload(0x40)\n  mload(0x40)\n  dup1\n  swap2\n  sub\n  swap1\n  log3\n    /* \"@openzeppelin/contracts/access/Ownable.sol\":2975:3099  {... */\n  pop\n    /* \"@openzeppelin/contracts/access/Ownable.sol\":2912:3099  function _transferOwnership(address newOwner) internal virtual {... */\n  pop\n  jump\t// out\n    /* \"#utility.yul\":88:205   */\ntag_32:\n    /* \"#utility.yul\":197:198   */\n  0x00\n    /* \"#utility.yul\":194:195   */\n  dup1\n    /* \"#utility.yul\":187:199   */\n  revert\n    /* \"#utility.yul\":334:460   */\ntag_34:\n    /* \"#utility.yul\":371:378   */\n  0x00\n    /* \"#utility.yul\":411:453   */\n  0xffffffffffffffffffffffffffffffffffffffff\n    /* \"#utility.yul\":404:409   */\n  dup3\n    /* \"#utility.yul\":400:454   */\n  and\n    /* \"#utility.yul\":389:454   */\n  swap1\n  pop\n    /* \"#utility.yul\":334:460   */\n  swap2\n  swap1\n  pop\n  jump\t// out\n    /* \"#utility.yul\":466:562   */\ntag_35:\n    /* \"#utility.yul\":503:510   */\n  0x00\n    /* \"#utility.yul\":532:556   */\n  tag_54\n    /* \"#utility.yul\":550:555   */\n  dup3\n    /* \"#utility.yul\":532:556   */\n  tag_34\n  jump\t// in\ntag_54:\n    /* \"#utility.yul\":521:556   */\n  swap1\n  pop\n    /* \"#utility.yul\":466:562   */\n  swap2\n  swap1\n  pop\n  jump\t// out\n    /* \"#utility.yul\":568:690   */\ntag_36:\n    /* \"#utility.yul\":641:665   */\n  tag_56\n    /* \"#utility.yul\":659:664   */\n  dup2\n    /* \"#utility.yul\":641:665   */\n  tag_35\n  jump\t// in\ntag_56:\n    /* \"#utility.yul\":634:639   */\n  dup2\n    /* \"#utility.yul\":631:666   */\n  eq\n    /* \"#utility.yul\":621:684   */\n  tag_57\n  jumpi\n    /* \"#utility.yul\":680:681   */\n  0x00\n    /* \"#utility.yul\":677:678   */\n  dup1\n    /* \"#utility.yul\":670:682   */\n  revert\n    /* \"#utility.yul\":621:684   */\ntag_57:\n    /* \"#utility.yul\":568:690   */\n  pop\n  jump\t// out\n    /* \"#utility.yul\":696:839   */\ntag_37:\n    /* \"#utility.yul\":753:758   */\n  0x00\n    /* \"#utility.yul\":784:790   */\n  dup2\n    /* \"#utility.yul\":778:791   */\n  mload\n    /* \"#utility.yul\":769:791   */\n  swap1\n  pop\n    /* \"#utility.yul\":800:833   */\n  tag_59\n    /* \"#utility.yul\":827:832   */\n  dup2\n    /* \"#utility.yul\":800:833   */\n  tag_36\n  jump\t// in\ntag_59:\n    /* \"#utility.yul\":696:839   */\n  swap3\n  swap2\n  pop\n  pop\n  jump\t// out\n    /* \"#utility.yul\":845:1665   */\ntag_3:\n    /* \"#utility.yul\":942:948   */\n  0x00\n    /* \"#utility.yul\":950:956   */\n  dup1\n    /* \"#utility.yul\":958:964   */\n  0x00\n    /* \"#utility.yul\":966:972   */\n  dup1\n    /* \"#utility.yul\":1015:1018   */\n  0x80\n    /* \"#utility.yul\":1003:1012   */\n  dup6\n    /* \"#utility.yul\":994:1001   */\n  dup8\n    /* \"#utility.yul\":990:1013   */\n  sub\n    /* \"#utility.yul\":986:1019   */\n  slt\n    /* \"#utility.yul\":983:1103   */\n  iszero\n  tag_61\n  jumpi\n    /* \"#utility.yul\":1022:1101   */\n  tag_62\n  tag_32\n  jump\t// in\ntag_62:\n    /* \"#utility.yul\":983:1103   */\ntag_61:\n    /* \"#utility.yul\":1142:1143   */\n  0x00\n    /* \"#utility.yul\":1167:1231   */\n  tag_63\n    /* \"#utility.yul\":1223:1230   */\n  dup8\n    /* \"#utility.yul\":1214:1220   */\n  dup3\n    /* \"#utility.yul\":1203:1212   */\n  dup9\n    /* \"#utility.yul\":1199:1221   */\n  add\n    /* \"#utility.yul\":1167:1231   */\n  tag_37\n  jump\t// in\ntag_63:\n    /* \"#utility.yul\":1157:1231   */\n  swap5\n  pop\n    /* \"#utility.yul\":1113:1241   */\n  pop\n    /* \"#utility.yul\":1280:1282   */\n  0x20\n    /* \"#utility.yul\":1306:1370   */\n  tag_64\n    /* \"#utility.yul\":1362:1369   */\n  dup8\n    /* \"#utility.yul\":1353:1359   */\n  dup3\n    /* \"#utility.yul\":1342:1351   */\n  dup9\n    /* \"#utility.yul\":1338:1360   */\n  add\n    /* \"#utility.yul\":1306:1370   */\n  tag_37\n  jump\t// in\ntag_64:\n    /* \"#utility.yul\":1296:1370   */\n  swap4\n  pop\n    /* \"#utility.yul\":1251:1380   */\n  pop\n    /* \"#utility.yul\":1419:1421   */\n  0x40\n    /* \"#utility.yul\":1445:1509   */\n  tag_65\n    /* \"#utility.yul\":1501:1508   */\n  dup8\n    /* \"#utility.yul\":1492:1498   */\n  dup3\n    /* \"#utility.yul\":1481:1490   */\n  dup9\n    /* \"#utility.yul\":1477:1499   */\n  add\n    /* \"#utility.yul\":1445:1509   */\n  tag_37\n  jump\t// in\ntag_65:\n    /* \"#utility.yul\":1435:1509   */\n  swap3\n  pop\n    /* \"#utility.yul\":1390:1519   */\n  pop\n    /* \"#utility.yul\":1558:1560   */\n  0x60\n    /* \"#utility.yul\":1584:1648   */\n  tag_66\n    /* \"#utility.yul\":1640:1647   */\n  dup8\n    /* \"#utility.yul\":1631:1637   */\n  dup3\n    /* \"#utility.yul\":1620:1629   */\n  dup9\n    /* \"#utility.yul\":1616:1638   */\n  add\n    /* \"#utility.yul\":1584:1648   */\n  tag_37\n  jump\t// in\ntag_66:\n    /* \"#utility.yul\":1574:1648   */\n  swap2\n  pop\n    /* \"#utility.yul\":1529:1658   */\n  pop\n    /* \"#utility.yul\":845:1665   */\n  swap3\n  swap6\n  swap2\n  swap5\n  pop\n  swap3\n  pop\n  jump\t// out\n    /* \"#utility.yul\":1671:1789   */\ntag_38:\n    /* \"#utility.yul\":1758:1782   */\n  tag_68\n    /* \"#utility.yul\":1776:1781   */\n  dup2\n    /* \"#utility.yul\":1758:1782   */\n  tag_35\n  jump\t// in\ntag_68:\n    /* \"#utility.yul\":1753:1756   */\n  dup3\n    /* \"#utility.yul\":1746:1783   */\n  mstore\n    /* \"#utility.yul\":1671:1789   */\n  pop\n  pop\n  jump\t// out\n    /* \"#utility.yul\":1795:2017   */\ntag_12:\n    /* \"#utility.yul\":1888:1892   */\n  0x00\n    /* \"#utility.yul\":1926:1928   */\n  0x20\n    /* \"#utility.yul\":1915:1924   */\n  dup3\n    /* \"#utility.yul\":1911:1929   */\n  add\n    /* \"#utility.yul\":1903:1929   */\n  swap1\n  pop\n    /* \"#utility.yul\":1939:2010   */\n  tag_70\n    /* \"#utility.yul\":2007:2008   */\n  0x00\n    /* \"#utility.yul\":1996:2005   */\n  dup4\n    /* \"#utility.yul\":1992:2009   */\n  add\n    /* \"#utility.yul\":1983:1989   */\n  dup5\n    /* \"#utility.yul\":1939:2010   */\n  tag_38\n  jump\t// in\ntag_70:\n    /* \"#utility.yul\":1795:2017   */\n  swap3\n  swap2\n  pop\n  pop\n  jump\t// out\n    /* \"#utility.yul\":2023:2192   */\ntag_39:\n    /* \"#utility.yul\":2107:2118   */\n  0x00\n    /* \"#utility.yul\":2141:2147   */\n  dup3\n    /* \"#utility.yul\":2136:2139   */\n  dup3\n    /* \"#utility.yul\":2129:2148   */\n  mstore\n    /* \"#utility.yul\":2181:2185   */\n  0x20\n    /* \"#utility.yul\":2176:2179   */\n  dup3\n    /* \"#utility.yul\":2172:2186   */\n  add\n    /* \"#utility.yul\":2157:2186   */\n  swap1\n  pop\n    /* \"#utility.yul\":2023:2192   */\n  swap3\n  swap2\n  pop\n  pop\n  jump\t// out\n    /* \"#utility.yul\":2198:2368   */\ntag_40:\n    /* \"#utility.yul\":2338:2360   */\n  0x496e76616c6964204e465420636f6e7472616374000000000000000000000000\n    /* \"#utility.yul\":2334:2335   */\n  0x00\n    /* \"#utility.yul\":2326:2332   */\n  dup3\n    /* \"#utility.yul\":2322:2336   */\n  add\n    /* \"#utility.yul\":2315:2361   */\n  mstore\n    /* \"#utility.yul\":2198:2368   */\n  pop\n  jump\t// out\n    /* \"#utility.yul\":2374:2740   */\ntag_41:\n    /* \"#utility.yul\":2516:2519   */\n  0x00\n    /* \"#utility.yul\":2537:2604   */\n  tag_74\n    /* \"#utility.yul\":2601:2603   */\n  0x14\n    /* \"#utility.yul\":2596:2599   */\n  dup4\n    /* \"#utility.yul\":2537:2604   */\n  tag_39\n  jump\t// in\ntag_74:\n    /* \"#utility.yul\":2530:2604   */\n  swap2\n  pop\n    /* \"#utility.yul\":2613:2706   */\n  tag_75\n    /* \"#utility.yul\":2702:2705   */\n  dup3\n    /* \"#utility.yul\":2613:2706   */\n  tag_40\n  jump\t// in\ntag_75:\n    /* \"#utility.yul\":2731:2733   */\n  0x20\n    /* \"#utility.yul\":2726:2729   */\n  dup3\n    /* \"#utility.yul\":2722:2734   */\n  add\n    /* \"#utility.yul\":2715:2734   */\n  swap1\n  pop\n    /* \"#utility.yul\":2374:2740   */\n  swap2\n  swap1\n  pop\n  jump\t// out\n    /* \"#utility.yul\":2746:3165   */\ntag_19:\n    /* \"#utility.yul\":2912:2916   */\n  0x00\n    /* \"#utility.yul\":2950:2952   */\n  0x20\n    /* \"#utility.yul\":2939:2948   */\n  dup3\n    /* \"#utility.yul\":2935:2953   */\n  add\n    /* \"#utility.yul\":2927:2953   */\n  swap1\n  pop\n    /* \"#utility.yul\":2999:3008   */\n  dup2\n    /* \"#utility.yul\":2993:2997   */\n  dup2\n    /* \"#utility.yul\":2989:3009   */\n  sub\n    /* \"#utility.yul\":2985:2986   */\n  0x00\n    /* \"#utility.yul\":2974:2983   */\n  dup4\n    /* \"#utility.yul\":2970:2987   */\n  add\n    /* \"#utility.yul\":2963:3010   */\n  mstore\n    /* \"#utility.yul\":3027:3158   */\n  tag_77\n    /* \"#utility.yul\":3153:3157   */\n  dup2\n    /* \"#utility.yul\":3027:3158   */\n  tag_41\n  jump\t// in\ntag_77:\n    /* \"#utility.yul\":3019:3158   */\n  swap1\n  pop\n    /* \"#utility.yul\":2746:3165   */\n  swap2\n  swap1\n  pop\n  jump\t// out\n    /* \"#utility.yul\":3171:3342   */\ntag_42:\n    /* \"#utility.yul\":3311:3334   */\n  0x496e76616c6964204d4c49464520616464726573730000000000000000000000\n    /* \"#utility.yul\":3307:3308   */\n  0x00\n    /* \"#utility.yul\":3299:3305   */\n  dup3\n    /* \"#utility.yul\":3295:3309   */\n  add\n    /* \"#utility.yul\":3288:3335   */\n  mstore\n    /* \"#utility.yul\":3171:3342   */\n  pop\n  jump\t// out\n    /* \"#utility.yul\":3348:3714   */\ntag_43:\n    /* \"#utility.yul\":3490:3493   */\n  0x00\n    /* \"#utility.yul\":3511:3578   */\n  tag_80\n    /* \"#utility.yul\":3575:3577   */\n  0x15\n    /* \"#utility.yul\":3570:3573   */\n  dup4\n    /* \"#utility.yul\":3511:3578   */\n  tag_39\n  jump\t// in\ntag_80:\n    /* \"#utility.yul\":3504:3578   */\n  swap2\n  pop\n    /* \"#utility.yul\":3587:3680   */\n  tag_81\n    /* \"#utility.yul\":3676:3679   */\n  dup3\n    /* \"#utility.yul\":3587:3680   */\n  tag_42\n  jump\t// in\ntag_81:\n    /* \"#utility.yul\":3705:3707   */\n  0x20\n    /* \"#utility.yul\":3700:3703   */\n  dup3\n    /* \"#utility.yul\":3696:3708   */\n  add\n    /* \"#utility.yul\":3689:3708   */\n  swap1\n  pop\n    /* \"#utility.yul\":3348:3714   */\n  swap2\n  swap1\n  pop\n  jump\t// out\n    /* \"#utility.yul\":3720:4139   */\ntag_22:\n    /* \"#utility.yul\":3886:3890   */\n  0x00\n    /* \"#utility.yul\":3924:3926   */\n  0x20\n    /* \"#utility.yul\":3913:3922   */\n  dup3\n    /* \"#utility.yul\":3909:3927   */\n  add\n    /* \"#utility.yul\":3901:3927   */\n  swap1\n  pop\n    /* \"#utility.yul\":3973:3982   */\n  dup2\n    /* \"#utility.yul\":3967:3971   */\n  dup2\n    /* \"#utility.yul\":3963:3983   */\n  sub\n    /* \"#utility.yul\":3959:3960   */\n  0x00\n    /* \"#utility.yul\":3948:3957   */\n  dup4\n    /* \"#utility.yul\":3944:3961   */\n  add\n    /* \"#utility.yul\":3937:3984   */\n  mstore\n    /* \"#utility.yul\":4001:4132   */\n  tag_83\n    /* \"#utility.yul\":4127:4131   */\n  dup2\n    /* \"#utility.yul\":4001:4132   */\n  tag_43\n  jump\t// in\ntag_83:\n    /* \"#utility.yul\":3993:4132   */\n  swap1\n  pop\n    /* \"#utility.yul\":3720:4139   */\n  swap2\n  swap1\n  pop\n  jump\t// out\n    /* \"#utility.yul\":4145:4315   */\ntag_44:\n    /* \"#utility.yul\":4285:4307   */\n  0x496e76616c696420555344542061646472657373000000000000000000000000\n    /* \"#utility.yul\":4281:4282   */\n  0x00\n    /* \"#utility.yul\":4273:4279   */\n  dup3\n    /* \"#utility.yul\":4269:4283   */\n  add\n    /* \"#utility.yul\":4262:4308   */\n  mstore\n    /* \"#utility.yul\":4145:4315   */\n  pop\n  jump\t// out\n    /* \"#utility.yul\":4321:4687   */\ntag_45:\n    /* \"#utility.yul\":4463:4466   */\n  0x00\n    /* \"#utility.yul\":4484:4551   */\n  tag_86\n    /* \"#utility.yul\":4548:4550   */\n  0x14\n    /* \"#utility.yul\":4543:4546   */\n  dup4\n    /* \"#utility.yul\":4484:4551   */\n  tag_39\n  jump\t// in\ntag_86:\n    /* \"#utility.yul\":4477:4551   */\n  swap2\n  pop\n    /* \"#utility.yul\":4560:4653   */\n  tag_87\n    /* \"#utility.yul\":4649:4652   */\n  dup3\n    /* \"#utility.yul\":4560:4653   */\n  tag_44\n  jump\t// in\ntag_87:\n    /* \"#utility.yul\":4678:4680   */\n  0x20\n    /* \"#utility.yul\":4673:4676   */\n  dup3\n    /* \"#utility.yul\":4669:4681   */\n  add\n    /* \"#utility.yul\":4662:4681   */\n  swap1\n  pop\n    /* \"#utility.yul\":4321:4687   */\n  swap2\n  swap1\n  pop\n  jump\t// out\n    /* \"#utility.yul\":4693:5112   */\ntag_25:\n    /* \"#utility.yul\":4859:4863   */\n  0x00\n    /* \"#utility.yul\":4897:4899   */\n  0x20\n    /* \"#utility.yul\":4886:4895   */\n  dup3\n    /* \"#utility.yul\":4882:4900   */\n  add\n    /* \"#utility.yul\":4874:4900   */\n  swap1\n  pop\n    /* \"#utility.yul\":4946:4955   */\n  dup2\n    /* \"#utility.yul\":4940:4944   */\n  dup2\n    /* \"#utility.yul\":4936:4956   */\n  sub\n    /* \"#utility.yul\":4932:4933   */\n  0x00\n    /* \"#utility.yul\":4921:4930   */\n  dup4\n    /* \"#utility.yul\":4917:4934   */\n  add\n    /* \"#utility.yul\":4910:4957   */\n  mstore\n    /* \"#utility.yul\":4974:5105   */\n  tag_89\n    /* \"#utility.yul\":5100:5104   */\n  dup2\n    /* \"#utility.yul\":4974:5105   */\n  tag_45\n  jump\t// in\ntag_89:\n    /* \"#utility.yul\":4966:5105   */\n  swap1\n  pop\n    /* \"#utility.yul\":4693:5112   */\n  swap2\n  swap1\n  pop\n  jump\t// out\n    /* \"#utility.yul\":5118:5288   */\ntag_46:\n    /* \"#utility.yul\":5258:5280   */\n  0x496e76616c696420555344432061646472657373000000000000000000000000\n    /* \"#utility.yul\":5254:5255   */\n  0x00\n    /* \"#utility.yul\":5246:5252   */\n  dup3\n    /* \"#utility.yul\":5242:5256   */\n  add\n    /* \"#utility.yul\":5235:5281   */\n  mstore\n    /* \"#utility.yul\":5118:5288   */\n  pop\n  jump\t// out\n    /* \"#utility.yul\":5294:5660   */\ntag_47:\n    /* \"#utility.yul\":5436:5439   */\n  0x00\n    /* \"#utility.yul\":5457:5524   */\n  tag_92\n    /* \"#utility.yul\":5521:5523   */\n  0x14\n    /* \"#utility.yul\":5516:5519   */\n  dup4\n    /* \"#utility.yul\":5457:5524   */\n  tag_39\n  jump\t// in\ntag_92:\n    /* \"#utility.yul\":5450:5524   */\n  swap2\n  pop\n    /* \"#utility.yul\":5533:5626   */\n  tag_93\n    /* \"#utility.yul\":5622:5625   */\n  dup3\n    /* \"#utility.yul\":5533:5626   */\n  tag_46\n  jump\t// in\ntag_93:\n    /* \"#utility.yul\":5651:5653   */\n  0x20\n    /* \"#utility.yul\":5646:5649   */\n  dup3\n    /* \"#utility.yul\":5642:5654   */\n  add\n    /* \"#utility.yul\":5635:5654   */\n  swap1\n  pop\n    /* \"#utility.yul\":5294:5660   */\n  swap2\n  swap1\n  pop\n  jump\t// out\n    /* \"#utility.yul\":5666:6085   */\ntag_28:\n    /* \"#utility.yul\":5832:5836   */\n  0x00\n    /* \"#utility.yul\":5870:5872   */\n  0x20\n    /* \"#utility.yul\":5859:5868   */\n  dup3\n    /* \"#utility.yul\":5855:5873   */\n  add\n    /* \"#utility.yul\":5847:5873   */\n  swap1\n  pop\n    /* \"#utility.yul\":5919:5928   */\n  dup2\n    /* \"#utility.yul\":5913:5917   */\n  dup2\n    /* \"#utility.yul\":5909:5929   */\n  sub\n    /* \"#utility.yul\":5905:5906   */\n  0x00\n    /* \"#utility.yul\":5894:5903   */\n  dup4\n    /* \"#utility.yul\":5890:5907   */\n  add\n    /* \"#utility.yul\":5883:5930   */\n  mstore\n    /* \"#utility.yul\":5947:6078   */\n  tag_95\n    /* \"#utility.yul\":6073:6077   */\n  dup2\n    /* \"#utility.yul\":5947:6078   */\n  tag_47\n  jump\t// in\ntag_95:\n    /* \"#utility.yul\":5939:6078   */\n  swap1\n  pop\n    /* \"#utility.yul\":5666:6085   */\n  swap2\n  swap1\n  pop\n  jump\t// out\n    /* \"0x81906929b10416a65A305d498267fE20adfC4746/contracts/Marketplace.sol\":726:11637  contract Marketplace is ReentrancyGuard, Ownable, Pausable, IERC721Receiver {... */\ntag_29:\n  dataSize(sub_0)\n  dup1\n  dataOffset(sub_0)\n  0x00\n  codecopy\n  0x00\n  return\nstop\n\nsub_0: assembly {\n        /* \"0x81906929b10416a65A305d498267fE20adfC4746/contracts/Marketplace.sol\":726:11637  contract Marketplace is ReentrancyGuard, Ownable, Pausable, IERC721Receiver {... */\n      mstore(0x40, 0x80)\n      jumpi(tag_1, lt(calldatasize, 0x04))\n      shr(0xe0, calldataload(0x00))\n      dup1\n      0x8456cb59\n      gt\n      tag_37\n      jumpi\n      dup1\n      0xbf6aee98\n      gt\n      tag_38\n      jumpi\n      dup1\n      0xde74e57b\n      gt\n      tag_39\n      jumpi\n      dup1\n      0xde74e57b\n      eq\n      tag_32\n      jumpi\n      dup1\n      0xed952ccd\n      eq\n      tag_33\n      jumpi\n      dup1\n      0xf2fde38b\n      eq\n      tag_34\n      jumpi\n      dup1\n      0xfd95c739\n      eq\n      tag_35\n      jumpi\n      dup1\n      0xff743e89\n      eq\n      tag_36\n      jumpi\n      jump(tag_2)\n    tag_39:\n      dup1\n      0xbf6aee98\n      eq\n      tag_28\n      jumpi\n      dup1\n      0xc86d4040\n      eq\n      tag_29\n      jumpi\n      dup1\n      0xd56d229d\n      eq\n      tag_30\n      jumpi\n      dup1\n      0xd73792a9\n      eq\n      tag_31\n      jumpi\n      jump(tag_2)\n    tag_38:\n      dup1\n      0x99c5c8aa\n      gt\n      tag_40\n      jumpi\n      dup1\n      0x99c5c8aa\n      eq\n      tag_24\n      jumpi\n      dup1\n      0xa3269b09\n      eq\n      tag_25\n      jumpi\n      dup1\n      0xad6561ec\n      eq\n      tag_26\n      jumpi\n      dup1\n      0xbc063e1a\n      eq\n      tag_27\n      jumpi\n      jump(tag_2)\n    tag_40:\n      dup1\n      0x8456cb59\n      eq\n      tag_20\n      jumpi\n      dup1\n      0x884282a1\n      eq\n      tag_21\n      jumpi\n      dup1\n      0x8da5cb5b\n      eq\n      tag_22\n      jumpi\n      dup1\n      0x92e67c06\n      eq\n      tag_23\n      jumpi\n      jump(tag_2)\n    tag_37:\n      dup1\n      0x4c97cf7c\n      gt\n      tag_41\n      jumpi\n      dup1\n      0x5c975abb\n      gt\n      tag_42\n      jumpi\n      dup1\n      0x5c975abb\n      eq\n      tag_15\n      jumpi\n      dup1\n      0x65c11bf0\n      eq\n      tag_16\n      jumpi\n      dup1\n      0x6a166964\n      eq\n      tag_17\n      jumpi\n      dup1\n      0x715018a6\n      eq\n      tag_18\n      jumpi\n      dup1\n      0x72973791\n      eq\n      tag_19\n      jumpi\n      jump(tag_2)\n    tag_42:\n      dup1\n      0x4c97cf7c\n      eq\n      tag_11\n      jumpi\n      dup1\n      0x52fb6541\n      eq\n      tag_12\n      jumpi\n      dup1\n      0x550dddeb\n      eq\n      tag_13\n      jumpi\n      dup1\n      0x5c3b37db\n      eq\n      tag_14\n      jumpi\n      jump(tag_2)\n    tag_41:\n      dup1\n      0x2b1fd58a\n      gt\n      tag_43\n      jumpi\n      dup1\n      0x2b1fd58a\n      eq\n      tag_7\n      jumpi\n      dup1\n      0x305a67a8\n      eq\n      tag_8\n      jumpi\n      dup1\n      0x30eb80cd\n      eq\n      tag_9\n      jumpi\n      dup1\n      0x3f4ba83a\n      eq\n      tag_10\n      jumpi\n      jump(tag_2)\n    tag_43:\n      dup1\n      0x0382d424\n      eq\n      tag_3\n      jumpi\n      dup1\n      0x150b7a02\n      eq\n      tag_4\n      jumpi\n      dup1\n      0x1e534be6\n      eq\n      tag_5\n      jumpi\n      dup1\n      0x1f8ca0b5\n      eq\n      tag_6\n      jumpi\n      jump(tag_2)\n    tag_1:\n      jumpi(tag_2, calldatasize)\n      stop\n    tag_2:\n      0x00\n      dup1\n      revert\n        /* \"0x81906929b10416a65A305d498267fE20adfC4746/contracts/Marketplace.sol\":1529:1606  mapping(address => mapping(address => uint256)) public tokenRefundsForBidders */\n    tag_3:\n      callvalue\n      dup1\n      iszero\n      tag_46\n      jumpi\n      0x00\n      dup1\n      revert\n    tag_46:\n      pop\n      tag_47\n      0x04\n      dup1\n      calldatasize\n      sub\n      dup2\n      add\n      swap1\n      tag_48\n      swap2\n      swap1\n      tag_49\n      jump\t// in\n    tag_48:\n      tag_50\n      jump\t// in\n    tag_47:\n      mload(0x40)\n      tag_51\n      swap2\n      swap1\n      tag_52\n      jump\t// in\n    tag_51:\n      mload(0x40)\n      dup1\n      swap2\n      sub\n      swap1\n      return\n        /* \"0x81906929b10416a65A305d498267fE20adfC4746/contracts/Marketplace.sol\":10923:11175  function onERC721Received(... */\n    tag_4:\n      callvalue\n      dup1\n      iszero\n      tag_53\n      jumpi\n      0x00\n      dup1\n      revert\n    tag_53:\n      pop\n      tag_54\n      0x04\n      dup1\n      calldatasize\n      sub\n      dup2\n      add\n      swap1\n      tag_55\n      swap2\n      swap1\n      tag_56\n      jump\t// in\n    tag_55:\n      tag_57\n      jump\t// in\n    tag_54:\n      mload(0x40)\n      tag_58\n      swap2\n      swap1\n      tag_59\n      jump\t// in\n    tag_58:\n      mload(0x40)\n      dup1\n      swap2\n      sub\n      swap1\n      return\n        /* \"0x81906929b10416a65A305d498267fE20adfC4746/contracts/Marketplace.sol\":5244:5472  function updateUsdcTokenAddress(address newAddress) external onlyOwner {... */\n    tag_5:\n      callvalue\n      dup1\n      iszero\n      tag_60\n      jumpi\n      0x00\n      dup1\n      revert\n    tag_60:\n      pop\n      tag_61\n      0x04\n      dup1\n      calldatasize\n      sub\n      dup2\n      add\n      swap1\n      tag_62\n      swap2\n      swap1\n      tag_63\n      jump\t// in\n    tag_62:\n      tag_64\n      jump\t// in\n    tag_61:\n      stop\n        /* \"0x81906929b10416a65A305d498267fE20adfC4746/contracts/Marketplace.sol\":4777:5004  function updateMLifeTokenAddress(address newAddress) external onlyOwner {... */\n    tag_6:\n      callvalue\n      dup1\n      iszero\n      tag_65\n      jumpi\n      0x00\n      dup1\n      revert\n    tag_65:\n      pop\n      tag_66\n      0x04\n      dup1\n      calldatasize\n      sub\n      dup2\n      add\n      swap1\n      tag_67\n      swap2\n      swap1\n      tag_63\n      jump\t// in\n    tag_67:\n      tag_68\n      jump\t// in\n    tag_66:\n      stop\n        /* \"0x81906929b10416a65A305d498267fE20adfC4746/contracts/Marketplace.sol\":8849:9936  function acceptBid(uint256 tokenId) external nonReentrant whenNotPaused isListingActive(tokenId) {... */\n    tag_7:\n      callvalue\n      dup1\n      iszero\n      tag_69\n      jumpi\n      0x00\n      dup1\n      revert\n    tag_69:\n      pop\n      tag_70\n      0x04\n      dup1\n      calldatasize\n      sub\n      dup2\n      add\n      swap1\n      tag_71\n      swap2\n      swap1\n      tag_72\n      jump\t// in\n    tag_71:\n      tag_73\n      jump\t// in\n    tag_70:\n      stop\n        /* \"0x81906929b10416a65A305d498267fE20adfC4746/contracts/Marketplace.sol\":7383:7775  function cancelListing(uint256 tokenId) external whenNotPaused nonReentrant {... */\n    tag_8:\n      callvalue\n      dup1\n      iszero\n      tag_74\n      jumpi\n      0x00\n      dup1\n      revert\n    tag_74:\n      pop\n      tag_75\n      0x04\n      dup1\n      calldatasize\n      sub\n      dup2\n      add\n      swap1\n      tag_76\n      swap2\n      swap1\n      tag_72\n      jump\t// in\n    tag_76:\n      tag_77\n      jump\t// in\n    tag_75:\n      stop\n        /* \"0x81906929b10416a65A305d498267fE20adfC4746/contracts/Marketplace.sol\":4325:4539  function updateMarketplaceFee(uint256 newFee) external onlyOwner {... */\n    tag_9:\n      callvalue\n      dup1\n      iszero\n      tag_78\n      jumpi\n      0x00\n      dup1\n      revert\n    tag_78:\n      pop\n      tag_79\n      0x04\n      dup1\n      calldatasize\n      sub\n      dup2\n      add\n      swap1\n      tag_80\n      swap2\n      swap1\n      tag_72\n      jump\t// in\n    tag_80:\n      tag_81\n      jump\t// in\n    tag_79:\n      stop\n        /* \"0x81906929b10416a65A305d498267fE20adfC4746/contracts/Marketplace.sol\":4229:4319  function unpause() external onlyOwner {... */\n    tag_10:\n      callvalue\n      dup1\n      iszero\n      tag_82\n      jumpi\n      0x00\n      dup1\n      revert\n    tag_82:\n      pop\n      tag_83\n      tag_84\n      jump\t// in\n    tag_83:\n      stop\n        /* \"0x81906929b10416a65A305d498267fE20adfC4746/contracts/Marketplace.sol\":5010:5238  function updateUsdtTokenAddress(address newAddress) external onlyOwner {... */\n    tag_11:\n      callvalue\n      dup1\n      iszero\n      tag_85\n      jumpi\n      0x00\n      dup1\n      revert\n    tag_85:\n      pop\n      tag_86\n      0x04\n      dup1\n      calldatasize\n      sub\n      dup2\n      add\n      swap1\n      tag_87\n      swap2\n      swap1\n      tag_63\n      jump\t// in\n    tag_87:\n      tag_88\n      jump\t// in\n    tag_86:\n      stop\n        /* \"0x81906929b10416a65A305d498267fE20adfC4746/contracts/Marketplace.sol\":9942:10415  function withdrawEthRefunds() external nonReentrant {... */\n    tag_12:\n      callvalue\n      dup1\n      iszero\n      tag_89\n      jumpi\n      0x00\n      dup1\n      revert\n    tag_89:\n      pop\n      tag_90\n      tag_91\n      jump\t// in\n    tag_90:\n      stop\n        /* \"0x81906929b10416a65A305d498267fE20adfC4746/contracts/Marketplace.sol\":5478:5683  function updateMaxFee(uint256 newMaxFee) external onlyOwner {... */\n    tag_13:\n      callvalue\n      dup1\n      iszero\n      tag_92\n      jumpi\n      0x00\n      dup1\n      revert\n    tag_92:\n      pop\n      tag_93\n      0x04\n      dup1\n      calldatasize\n      sub\n      dup2\n      add\n      swap1\n      tag_94\n      swap2\n      swap1\n      tag_72\n      jump\t// in\n    tag_94:\n      tag_95\n      jump\t// in\n    tag_93:\n      stop\n        /* \"0x81906929b10416a65A305d498267fE20adfC4746/contracts/Marketplace.sol\":10421:10917  function withdrawTokenRefunds(address paymentToken) external nonReentrant {... */\n    tag_14:\n      callvalue\n      dup1\n      iszero\n      tag_96\n      jumpi\n      0x00\n      dup1\n      revert\n    tag_96:\n      pop\n      tag_97\n      0x04\n      dup1\n      calldatasize\n      sub\n      dup2\n      add\n      swap1\n      tag_98\n      swap2\n      swap1\n      tag_63\n      jump\t// in\n    tag_98:\n      tag_99\n      jump\t// in\n    tag_97:\n      stop\n        /* \"@openzeppelin/contracts/utils/Pausable.sol\":1850:1934  function paused() public view virtual returns (bool) {... */\n    tag_15:\n      callvalue\n      dup1\n      iszero\n      tag_100\n      jumpi\n      0x00\n      dup1\n      revert\n    tag_100:\n      pop\n      tag_101\n      tag_102\n      jump\t// in\n    tag_101:\n      mload(0x40)\n      tag_103\n      swap2\n      swap1\n      tag_104\n      jump\t// in\n    tag_103:\n      mload(0x40)\n      dup1\n      swap2\n      sub\n      swap1\n      return\n        /* \"0x81906929b10416a65A305d498267fE20adfC4746/contracts/Marketplace.sol\":6540:7377  function createListing(... */\n    tag_16:\n      callvalue\n      dup1\n      iszero\n      tag_105\n      jumpi\n      0x00\n      dup1\n      revert\n    tag_105:\n      pop\n      tag_106\n      0x04\n      dup1\n      calldatasize\n      sub\n      dup2\n      add\n      swap1\n      tag_107\n      swap2\n      swap1\n      tag_108\n      jump\t// in\n    tag_107:\n      tag_109\n      jump\t// in\n    tag_106:\n      stop\n        /* \"0x81906929b10416a65A305d498267fE20adfC4746/contracts/Marketplace.sol\":1103:1138  uint256 public marketplaceFee = 200 */\n    tag_17:\n      callvalue\n      dup1\n      iszero\n      tag_110\n      jumpi\n      0x00\n      dup1\n      revert\n    tag_110:\n      pop\n      tag_111\n      tag_112\n      jump\t// in\n    tag_111:\n      mload(0x40)\n      tag_113\n      swap2\n      swap1\n      tag_52\n      jump\t// in\n    tag_113:\n      mload(0x40)\n      dup1\n      swap2\n      sub\n      swap1\n      return\n        /* \"@openzeppelin/contracts/access/Ownable.sol\":2293:2394  function renounceOwnership() public virtual onlyOwner {... */\n    tag_18:\n      callvalue\n      dup1\n      iszero\n      tag_114\n      jumpi\n      0x00\n      dup1\n      revert\n    tag_114:\n      pop\n      tag_115\n      tag_116\n      jump\t// in\n    tag_115:\n      stop\n        /* \"0x81906929b10416a65A305d498267fE20adfC4746/contracts/Marketplace.sol\":1613:1633  address public MLIFE */\n    tag_19:\n      callvalue\n      dup1\n      iszero\n      tag_117\n      jumpi\n      0x00\n      dup1\n      revert\n    tag_117:\n      pop\n      tag_118\n      tag_119\n      jump\t// in\n    tag_118:\n      mload(0x40)\n      tag_120\n      swap2\n      swap1\n      tag_121\n      jump\t// in\n    tag_120:\n      mload(0x40)\n      dup1\n      swap2\n      sub\n      swap1\n      return\n        /* \"0x81906929b10416a65A305d498267fE20adfC4746/contracts/Marketplace.sol\":4139:4223  function pause() external onlyOwner {... */\n    tag_20:\n      callvalue\n      dup1\n      iszero\n      tag_122\n      jumpi\n      0x00\n      dup1\n      revert\n    tag_122:\n      pop\n      tag_123\n      tag_124\n      jump\t// in\n    tag_123:\n      stop\n        /* \"0x81906929b10416a65A305d498267fE20adfC4746/contracts/Marketplace.sol\":6065:6455  function withdrawAdminTokenEarnings(address tokenAddress) external onlyOwner nonReentrant {... */\n    tag_21:\n      callvalue\n      dup1\n      iszero\n      tag_125\n      jumpi\n      0x00\n      dup1\n      revert\n    tag_125:\n      pop\n      tag_126\n      0x04\n      dup1\n      calldatasize\n      sub\n      dup2\n      add\n      swap1\n      tag_127\n      swap2\n      swap1\n      tag_63\n      jump\t// in\n    tag_127:\n      tag_128\n      jump\t// in\n    tag_126:\n      stop\n        /* \"@openzeppelin/contracts/access/Ownable.sol\":1638:1723  function owner() public view virtual returns (address) {... */\n    tag_22:\n      callvalue\n      dup1\n      iszero\n      tag_129\n      jumpi\n      0x00\n      dup1\n      revert\n    tag_129:\n      pop\n      tag_130\n      tag_131\n      jump\t// in\n    tag_130:\n      mload(0x40)\n      tag_132\n      swap2\n      swap1\n      tag_121\n      jump\t// in\n    tag_132:\n      mload(0x40)\n      dup1\n      swap2\n      sub\n      swap1\n      return\n        /* \"0x81906929b10416a65A305d498267fE20adfC4746/contracts/Marketplace.sol\":4545:4771  function updateNftContract(address newAddress) external onlyOwner {... */\n    tag_23:\n      callvalue\n      dup1\n      iszero\n      tag_133\n      jumpi\n      0x00\n      dup1\n      revert\n    tag_133:\n      pop\n      tag_134\n      0x04\n      dup1\n      calldatasize\n      sub\n      dup2\n      add\n      swap1\n      tag_135\n      swap2\n      swap1\n      tag_63\n      jump\t// in\n    tag_135:\n      tag_136\n      jump\t// in\n    tag_134:\n      stop\n        /* \"0x81906929b10416a65A305d498267fE20adfC4746/contracts/Marketplace.sol\":1639:1663  address public tokenUSDT */\n    tag_24:\n      callvalue\n      dup1\n      iszero\n      tag_137\n      jumpi\n      0x00\n      dup1\n      revert\n    tag_137:\n      pop\n      tag_138\n      tag_139\n      jump\t// in\n    tag_138:\n      mload(0x40)\n      tag_140\n      swap2\n      swap1\n      tag_121\n      jump\t// in\n    tag_140:\n      mload(0x40)\n      dup1\n      swap2\n      sub\n      swap1\n      return\n        /* \"0x81906929b10416a65A305d498267fE20adfC4746/contracts/Marketplace.sol\":1311:1365  mapping(address => uint256) public adminsTokenEarnings */\n    tag_25:\n      callvalue\n      dup1\n      iszero\n      tag_141\n      jumpi\n      0x00\n      dup1\n      revert\n    tag_141:\n      pop\n      tag_142\n      0x04\n      dup1\n      calldatasize\n      sub\n      dup2\n      add\n      swap1\n      tag_143\n      swap2\n      swap1\n      tag_63\n      jump\t// in\n    tag_143:\n      tag_144\n      jump\t// in\n    tag_142:\n      mload(0x40)\n      tag_145\n      swap2\n      swap1\n      tag_52\n      jump\t// in\n    tag_145:\n      mload(0x40)\n      dup1\n      swap2\n      sub\n      swap1\n      return\n        /* \"0x81906929b10416a65A305d498267fE20adfC4746/contracts/Marketplace.sol\":7781:8843  function placeBid(... */\n    tag_26:\n      tag_146\n      0x04\n      dup1\n      calldatasize\n      sub\n      dup2\n      add\n      swap1\n      tag_147\n      swap2\n      swap1\n      tag_148\n      jump\t// in\n    tag_147:\n      tag_149\n      jump\t// in\n    tag_146:\n      stop\n        /* \"0x81906929b10416a65A305d498267fE20adfC4746/contracts/Marketplace.sol\":1210:1238  uint256 public MAX_FEE = 500 */\n    tag_27:\n      callvalue\n      dup1\n      iszero\n      tag_150\n      jumpi\n      0x00\n      dup1\n      revert\n    tag_150:\n      pop\n      tag_151\n      tag_152\n      jump\t// in\n    tag_151:\n      mload(0x40)\n      tag_153\n      swap2\n      swap1\n      tag_52\n      jump\t// in\n    tag_153:\n      mload(0x40)\n      dup1\n      swap2\n      sub\n      swap1\n      return\n        /* \"0x81906929b10416a65A305d498267fE20adfC4746/contracts/Marketplace.sol\":1273:1305  uint256 public adminsEthEarnings */\n    tag_28:\n      callvalue\n      dup1\n      iszero\n      tag_154\n      jumpi\n      0x00\n      dup1\n      revert\n    tag_154:\n      pop\n      tag_155\n      tag_156\n      jump\t// in\n    tag_155:\n      mload(0x40)\n      tag_157\n      swap2\n      swap1\n      tag_52\n      jump\t// in\n    tag_157:\n      mload(0x40)\n      dup1\n      swap2\n      sub\n      swap1\n      return\n        /* \"0x81906929b10416a65A305d498267fE20adfC4746/contracts/Marketplace.sol\":1669:1693  address public tokenUSDC */\n    tag_29:\n      callvalue\n      dup1\n      iszero\n      tag_158\n      jumpi\n      0x00\n      dup1\n      revert\n    tag_158:\n      pop\n      tag_159\n      tag_160\n      jump\t// in\n    tag_159:\n      mload(0x40)\n      tag_161\n      swap2\n      swap1\n      tag_121\n      jump\t// in\n    tag_161:\n      mload(0x40)\n      dup1\n      swap2\n      sub\n      swap1\n      return\n        /* \"0x81906929b10416a65A305d498267fE20adfC4746/contracts/Marketplace.sol\":1699:1725  address public nftContract */\n    tag_30:\n      callvalue\n      dup1\n      iszero\n      tag_162\n      jumpi\n      0x00\n      dup1\n      revert\n    tag_162:\n      pop\n      tag_163\n      tag_164\n      jump\t// in\n    tag_163:\n      mload(0x40)\n      tag_165\n      swap2\n      swap1\n      tag_121\n      jump\t// in\n    tag_165:\n      mload(0x40)\n      dup1\n      swap2\n      sub\n      swap1\n      return\n        /* \"0x81906929b10416a65A305d498267fE20adfC4746/contracts/Marketplace.sol\":1157:1204  uint256 public constant FEE_DENOMINATOR = 10000 */\n    tag_31:\n      callvalue\n      dup1\n      iszero\n      tag_166\n      jumpi\n      0x00\n      dup1\n      revert\n    tag_166:\n      pop\n      tag_167\n      tag_168\n      jump\t// in\n    tag_167:\n      mload(0x40)\n      tag_169\n      swap2\n      swap1\n      tag_52\n      jump\t// in\n    tag_169:\n      mload(0x40)\n      dup1\n      swap2\n      sub\n      swap1\n      return\n        /* \"0x81906929b10416a65A305d498267fE20adfC4746/contracts/Marketplace.sol\":1371:1414  mapping(uint256 => Listing) public listings */\n    tag_32:\n      callvalue\n      dup1\n      iszero\n      tag_170\n      jumpi\n      0x00\n      dup1\n      revert\n    tag_170:\n      pop\n      tag_171\n      0x04\n      dup1\n      calldatasize\n      sub\n      dup2\n      add\n      swap1\n      tag_172\n      swap2\n      swap1\n      tag_72\n      jump\t// in\n    tag_172:\n      tag_173\n      jump\t// in\n    tag_171:\n      mload(0x40)\n      tag_174\n      swap6\n      swap5\n      swap4\n      swap3\n      swap2\n      swap1\n      tag_175\n      jump\t// in\n    tag_174:\n      mload(0x40)\n      dup1\n      swap2\n      sub\n      swap1\n      return\n        /* \"0x81906929b10416a65A305d498267fE20adfC4746/contracts/Marketplace.sol\":1468:1523  mapping(address => uint256) public ethRefundsForBidders */\n    tag_33:\n      callvalue\n      dup1\n      iszero\n      tag_176\n      jumpi\n      0x00\n      dup1\n      revert\n    tag_176:\n      pop\n      tag_177\n      0x04\n      dup1\n      calldatasize\n      sub\n      dup2\n      add\n      swap1\n      tag_178\n      swap2\n      swap1\n      tag_63\n      jump\t// in\n    tag_178:\n      tag_179\n      jump\t// in\n    tag_177:\n      mload(0x40)\n      tag_180\n      swap2\n      swap1\n      tag_52\n      jump\t// in\n    tag_180:\n      mload(0x40)\n      dup1\n      swap2\n      sub\n      swap1\n      return\n        /* \"@openzeppelin/contracts/access/Ownable.sol\":2543:2758  function transferOwnership(address newOwner) public virtual onlyOwner {... */\n    tag_34:\n      callvalue\n      dup1\n      iszero\n      tag_181\n      jumpi\n      0x00\n      dup1\n      revert\n    tag_181:\n      pop\n      tag_182\n      0x04\n      dup1\n      calldatasize\n      sub\n      dup2\n      add\n      swap1\n      tag_183\n      swap2\n      swap1\n      tag_63\n      jump\t// in\n    tag_183:\n      tag_184\n      jump\t// in\n    tag_182:\n      stop\n        /* \"0x81906929b10416a65A305d498267fE20adfC4746/contracts/Marketplace.sol\":5689:6059  function withdrawAdminEthEarnings() external onlyOwner nonReentrant {... */\n    tag_35:\n      callvalue\n      dup1\n      iszero\n      tag_185\n      jumpi\n      0x00\n      dup1\n      revert\n    tag_185:\n      pop\n      tag_186\n      tag_187\n      jump\t// in\n    tag_186:\n      stop\n        /* \"0x81906929b10416a65A305d498267fE20adfC4746/contracts/Marketplace.sol\":1420:1462  mapping(uint256 => Bid) public currentBids */\n    tag_36:\n      callvalue\n      dup1\n      iszero\n      tag_188\n      jumpi\n      0x00\n      dup1\n      revert\n    tag_188:\n      pop\n      tag_189\n      0x04\n      dup1\n      calldatasize\n      sub\n      dup2\n      add\n      swap1\n      tag_190\n      swap2\n      swap1\n      tag_72\n      jump\t// in\n    tag_190:\n      tag_191\n      jump\t// in\n    tag_189:\n      mload(0x40)\n      tag_192\n      swap3\n      swap2\n      swap1\n      tag_193\n      jump\t// in\n    tag_192:\n      mload(0x40)\n      dup1\n      swap2\n      sub\n      swap1\n      return\n        /* \"0x81906929b10416a65A305d498267fE20adfC4746/contracts/Marketplace.sol\":1529:1606  mapping(address => mapping(address => uint256)) public tokenRefundsForBidders */\n    tag_50:\n      mstore(0x20, 0x09)\n      dup2\n      0x00\n      mstore\n      mstore(0x20, keccak256(0x00, 0x40))\n      dup1\n      0x00\n      mstore\n      keccak256(0x00, 0x40)\n      0x00\n      swap2\n      pop\n      swap2\n      pop\n      pop\n      sload\n      dup2\n      jump\t// out\n        /* \"0x81906929b10416a65A305d498267fE20adfC4746/contracts/Marketplace.sol\":10923:11175  function onERC721Received(... */\n    tag_57:\n        /* \"0x81906929b10416a65A305d498267fE20adfC4746/contracts/Marketplace.sol\":11113:11119  bytes4 */\n      0x00\n        /* \"0x81906929b10416a65A305d498267fE20adfC4746/contracts/Marketplace.sol\":11138:11168  this.onERC721Received.selector */\n      shl(0xe0, 0x150b7a02)\n        /* \"0x81906929b10416a65A305d498267fE20adfC4746/contracts/Marketplace.sol\":11131:11168  return this.onERC721Received.selector */\n      swap1\n      pop\n        /* \"0x81906929b10416a65A305d498267fE20adfC4746/contracts/Marketplace.sol\":10923:11175  function onERC721Received(... */\n      swap6\n      swap5\n      pop\n      pop\n      pop\n      pop\n      pop\n      jump\t// out\n        /* \"0x81906929b10416a65A305d498267fE20adfC4746/contracts/Marketplace.sol\":5244:5472  function updateUsdcTokenAddress(address newAddress) external onlyOwner {... */\n    tag_64:\n        /* \"@openzeppelin/contracts/access/Ownable.sol\":1531:1544  _checkOwner() */\n      tag_196\n        /* \"@openzeppelin/contracts/access/Ownable.sol\":1531:1542  _checkOwner */\n      tag_197\n        /* \"@openzeppelin/contracts/access/Ownable.sol\":1531:1544  _checkOwner() */\n      jump\t// in\n    tag_196:\n        /* \"0x81906929b10416a65A305d498267fE20adfC4746/contracts/Marketplace.sol\":5355:5356  0 */\n      0x00\n        /* \"0x81906929b10416a65A305d498267fE20adfC4746/contracts/Marketplace.sol\":5333:5357  newAddress != address(0) */\n      0xffffffffffffffffffffffffffffffffffffffff\n      and\n        /* \"0x81906929b10416a65A305d498267fE20adfC4746/contracts/Marketplace.sol\":5333:5343  newAddress */\n      dup2\n        /* \"0x81906929b10416a65A305d498267fE20adfC4746/contracts/Marketplace.sol\":5333:5357  newAddress != address(0) */\n      0xffffffffffffffffffffffffffffffffffffffff\n      and\n      sub\n        /* \"0x81906929b10416a65A305d498267fE20adfC4746/contracts/Marketplace.sol\":5325:5377  require(newAddress != address(0), \"Invalid address\") */\n      tag_199\n      jumpi\n      mload(0x40)\n      0x08c379a000000000000000000000000000000000000000000000000000000000\n      dup2\n      mstore\n      0x04\n      add\n      tag_200\n      swap1\n      tag_201\n      jump\t// in\n    tag_200:\n      mload(0x40)\n      dup1\n      swap2\n      sub\n      swap1\n      revert\n    tag_199:\n        /* \"0x81906929b10416a65A305d498267fE20adfC4746/contracts/Marketplace.sol\":5392:5433  UsdcAddressUpdated(tokenUSDC, newAddress) */\n      0x7dcd2c12cfcc397a33bdadd64452f757ead5ae363dcd02873aebbb68d4ee47d0\n        /* \"0x81906929b10416a65A305d498267fE20adfC4746/contracts/Marketplace.sol\":5411:5420  tokenUSDC */\n      0x0c\n      0x00\n      swap1\n      sload\n      swap1\n      0x0100\n      exp\n      swap1\n      div\n      0xffffffffffffffffffffffffffffffffffffffff\n      and\n        /* \"0x81906929b10416a65A305d498267fE20adfC4746/contracts/Marketplace.sol\":5422:5432  newAddress */\n      dup3\n        /* \"0x81906929b10416a65A305d498267fE20adfC4746/contracts/Marketplace.sol\":5392:5433  UsdcAddressUpdated(tokenUSDC, newAddress) */\n      mload(0x40)\n      tag_202\n      swap3\n      swap2\n      swap1\n      tag_203\n      jump\t// in\n    tag_202:\n      mload(0x40)\n      dup1\n      swap2\n      sub\n      swap1\n      log1\n        /* \"0x81906929b10416a65A305d498267fE20adfC4746/contracts/Marketplace.sol\":5455:5465  newAddress */\n      dup1\n        /* \"0x81906929b10416a65A305d498267fE20adfC4746/contracts/Marketplace.sol\":5443:5452  tokenUSDC */\n      0x0c\n      0x00\n        /* \"0x81906929b10416a65A305d498267fE20adfC4746/contracts/Marketplace.sol\":5443:5465  tokenUSDC = newAddress */\n      0x0100\n      exp\n      dup2\n      sload\n      dup2\n      0xffffffffffffffffffffffffffffffffffffffff\n      mul\n      not\n      and\n      swap1\n      dup4\n      0xffffffffffffffffffffffffffffffffffffffff\n      and\n      mul\n      or\n      swap1\n      sstore\n      pop\n        /* \"0x81906929b10416a65A305d498267fE20adfC4746/contracts/Marketplace.sol\":5244:5472  function updateUsdcTokenAddress(address newAddress) external onlyOwner {... */\n      pop\n      jump\t// out\n        /* \"0x81906929b10416a65A305d498267fE20adfC4746/contracts/Marketplace.sol\":4777:5004  function updateMLifeTokenAddress(address newAddress) external onlyOwner {... */\n    tag_68:\n        /* \"@openzeppelin/contracts/access/Ownable.sol\":1531:1544  _checkOwner() */\n      tag_205\n        /* \"@openzeppelin/contracts/access/Ownable.sol\":1531:1542  _checkOwner */\n      tag_197\n        /* \"@openzeppelin/contracts/access/Ownable.sol\":1531:1544  _checkOwner() */\n      jump\t// in\n    tag_205:\n        /* \"0x81906929b10416a65A305d498267fE20adfC4746/contracts/Marketplace.sol\":4889:4890  0 */\n      0x00\n        /* \"0x81906929b10416a65A305d498267fE20adfC4746/contracts/Marketplace.sol\":4867:4891  newAddress != address(0) */\n      0xffffffffffffffffffffffffffffffffffffffff\n      and\n        /* \"0x81906929b10416a65A305d498267fE20adfC4746/contracts/Marketplace.sol\":4867:4877  newAddress */\n      dup2\n        /* \"0x81906929b10416a65A305d498267fE20adfC4746/contracts/Marketplace.sol\":4867:4891  newAddress != address(0) */\n      0xffffffffffffffffffffffffffffffffffffffff\n      and\n      sub\n        /* \"0x81906929b10416a65A305d498267fE20adfC4746/contracts/Marketplace.sol\":4859:4911  require(newAddress != address(0), \"Invalid address\") */\n      tag_207\n      jumpi\n      mload(0x40)\n      0x08c379a000000000000000000000000000000000000000000000000000000000\n      dup2\n      mstore\n      0x04\n      add\n      tag_208\n      swap1\n      tag_201\n      jump\t// in\n    tag_208:\n      mload(0x40)\n      dup1\n      swap2\n      sub\n      swap1\n      revert\n    tag_207:\n        /* \"0x81906929b10416a65A305d498267fE20adfC4746/contracts/Marketplace.sol\":4926:4969  MLifeTokenAddressUpdated(MLIFE, newAddress) */\n      0xc3470c74402cd9ae145a41ef14d7a54822da2ad9e12cbec2c0c70efa93a89cd6\n        /* \"0x81906929b10416a65A305d498267fE20adfC4746/contracts/Marketplace.sol\":4951:4956  MLIFE */\n      0x0a\n      0x00\n      swap1\n      sload\n      swap1\n      0x0100\n      exp\n      swap1\n      div\n      0xffffffffffffffffffffffffffffffffffffffff\n      and\n        /* \"0x81906929b10416a65A305d498267fE20adfC4746/contracts/Marketplace.sol\":4958:4968  newAddress */\n      dup3\n        /* \"0x81906929b10416a65A305d498267fE20adfC4746/contracts/Marketplace.sol\":4926:4969  MLifeTokenAddressUpdated(MLIFE, newAddress) */\n      mload(0x40)\n      tag_209\n      swap3\n      swap2\n      swap1\n      tag_203\n      jump\t// in\n    tag_209:\n      mload(0x40)\n      dup1\n      swap2\n      sub\n      swap1\n      log1\n        /* \"0x81906929b10416a65A305d498267fE20adfC4746/contracts/Marketplace.sol\":4987:4997  newAddress */\n      dup1\n        /* \"0x81906929b10416a65A305d498267fE20adfC4746/contracts/Marketplace.sol\":4979:4984  MLIFE */\n      0x0a\n      0x00\n        /* \"0x81906929b10416a65A305d498267fE20adfC4746/contracts/Marketplace.sol\":4979:4997  MLIFE = newAddress */\n      0x0100\n      exp\n      dup2\n      sload\n      dup2\n      0xffffffffffffffffffffffffffffffffffffffff\n      mul\n      not\n      and\n      swap1\n      dup4\n      0xffffffffffffffffffffffffffffffffffffffff\n      and\n      mul\n      or\n      swap1\n      sstore\n      pop\n        /* \"0x81906929b10416a65A305d498267fE20adfC4746/contracts/Marketplace.sol\":4777:5004  function updateMLifeTokenAddress(address newAddress) external onlyOwner {... */\n      pop\n      jump\t// out\n        /* \"0x81906929b10416a65A305d498267fE20adfC4746/contracts/Marketplace.sol\":8849:9936  function acceptBid(uint256 tokenId) external nonReentrant whenNotPaused isListingActive(tokenId) {... */\n    tag_73:\n        /* \"@openzeppelin/contracts/utils/ReentrancyGuard.sol\":2500:2521  _nonReentrantBefore() */\n      tag_211\n        /* \"@openzeppelin/contracts/utils/ReentrancyGuard.sol\":2500:2519  _nonReentrantBefore */\n      tag_212\n        /* \"@openzeppelin/contracts/utils/ReentrancyGuard.sol\":2500:2521  _nonReentrantBefore() */\n      jump\t// in\n    tag_211:\n        /* \"@openzeppelin/contracts/utils/Pausable.sol\":1474:1493  _requireNotPaused() */\n      tag_214\n        /* \"@openzeppelin/contracts/utils/Pausable.sol\":1474:1491  _requireNotPaused */\n      tag_215\n        /* \"@openzeppelin/contracts/utils/Pausable.sol\":1474:1493  _requireNotPaused() */\n      jump\t// in\n    tag_214:\n        /* \"0x81906929b10416a65A305d498267fE20adfC4746/contracts/Marketplace.sol\":8937:8944  tokenId */\n      dup1\n        /* \"0x81906929b10416a65A305d498267fE20adfC4746/contracts/Marketplace.sol\":3435:3443  listings */\n      0x06\n        /* \"0x81906929b10416a65A305d498267fE20adfC4746/contracts/Marketplace.sol\":3435:3452  listings[tokenId] */\n      0x00\n        /* \"0x81906929b10416a65A305d498267fE20adfC4746/contracts/Marketplace.sol\":3444:3451  tokenId */\n      dup3\n        /* \"0x81906929b10416a65A305d498267fE20adfC4746/contracts/Marketplace.sol\":3435:3452  listings[tokenId] */\n      dup2\n      mstore\n      0x20\n      add\n      swap1\n      dup2\n      mstore\n      0x20\n      add\n      0x00\n      keccak256\n        /* \"0x81906929b10416a65A305d498267fE20adfC4746/contracts/Marketplace.sol\":3435:3459  listings[tokenId].active */\n      0x04\n      add\n      0x00\n      swap1\n      sload\n      swap1\n      0x0100\n      exp\n      swap1\n      div\n      0xff\n      and\n        /* \"0x81906929b10416a65A305d498267fE20adfC4746/contracts/Marketplace.sol\":3427:3482  require(listings[tokenId].active, \"Listing not active\") */\n      tag_217\n      jumpi\n      mload(0x40)\n      0x08c379a000000000000000000000000000000000000000000000000000000000\n      dup2\n      mstore\n      0x04\n      add\n      tag_218\n      swap1\n      tag_219\n      jump\t// in\n    tag_218:\n      mload(0x40)\n      dup1\n      swap2\n      sub\n      swap1\n      revert\n    tag_217:\n        /* \"0x81906929b10416a65A305d498267fE20adfC4746/contracts/Marketplace.sol\":8956:8979  Listing storage listing */\n      0x00\n        /* \"0x81906929b10416a65A305d498267fE20adfC4746/contracts/Marketplace.sol\":8982:8990  listings */\n      0x06\n        /* \"0x81906929b10416a65A305d498267fE20adfC4746/contracts/Marketplace.sol\":8982:8999  listings[tokenId] */\n      0x00\n        /* \"0x81906929b10416a65A305d498267fE20adfC4746/contracts/Marketplace.sol\":8991:8998  tokenId */\n      dup5\n        /* \"0x81906929b10416a65A305d498267fE20adfC4746/contracts/Marketplace.sol\":8982:8999  listings[tokenId] */\n      dup2\n      mstore\n      0x20\n      add\n      swap1\n      dup2\n      mstore\n      0x20\n      add\n      0x00\n      keccak256\n        /* \"0x81906929b10416a65A305d498267fE20adfC4746/contracts/Marketplace.sol\":8956:8999  Listing storage listing = listings[tokenId] */\n      swap1\n      pop\n        /* \"0x81906929b10416a65A305d498267fE20adfC4746/contracts/Marketplace.sol\":9009:9023  Bid memory bid */\n      0x00\n        /* \"0x81906929b10416a65A305d498267fE20adfC4746/contracts/Marketplace.sol\":9026:9037  currentBids */\n      0x07\n        /* \"0x81906929b10416a65A305d498267fE20adfC4746/contracts/Marketplace.sol\":9026:9046  currentBids[tokenId] */\n      0x00\n        /* \"0x81906929b10416a65A305d498267fE20adfC4746/contracts/Marketplace.sol\":9038:9045  tokenId */\n      dup6\n        /* \"0x81906929b10416a65A305d498267fE20adfC4746/contracts/Marketplace.sol\":9026:9046  currentBids[tokenId] */\n      dup2\n      mstore\n      0x20\n      add\n      swap1\n      dup2\n      mstore\n      0x20\n      add\n      0x00\n      keccak256\n        /* \"0x81906929b10416a65A305d498267fE20adfC4746/contracts/Marketplace.sol\":9009:9046  Bid memory bid = currentBids[tokenId] */\n      mload(0x40)\n      dup1\n      0x40\n      add\n      0x40\n      mstore\n      swap1\n      dup2\n      0x00\n      dup3\n      add\n      0x00\n      swap1\n      sload\n      swap1\n      0x0100\n      exp\n      swap1\n      div\n      0xffffffffffffffffffffffffffffffffffffffff\n      and\n      0xffffffffffffffffffffffffffffffffffffffff\n      and\n      0xffffffffffffffffffffffffffffffffffffffff\n      and\n      dup2\n      mstore\n      0x20\n      add\n      0x01\n      dup3\n      add\n      sload\n      dup2\n      mstore\n      pop\n      pop\n      swap1\n      pop\n        /* \"0x81906929b10416a65A305d498267fE20adfC4746/contracts/Marketplace.sol\":9083:9093  msg.sender */\n      caller\n        /* \"0x81906929b10416a65A305d498267fE20adfC4746/contracts/Marketplace.sol\":9065:9093  listing.seller == msg.sender */\n      0xffffffffffffffffffffffffffffffffffffffff\n      and\n        /* \"0x81906929b10416a65A305d498267fE20adfC4746/contracts/Marketplace.sol\":9065:9072  listing */\n      dup3\n        /* \"0x81906929b10416a65A305d498267fE20adfC4746/contracts/Marketplace.sol\":9065:9079  listing.seller */\n      0x00\n      add\n      0x00\n      swap1\n      sload\n      swap1\n      0x0100\n      exp\n      swap1\n      div\n      0xffffffffffffffffffffffffffffffffffffffff\n      and\n        /* \"0x81906929b10416a65A305d498267fE20adfC4746/contracts/Marketplace.sol\":9065:9093  listing.seller == msg.sender */\n      0xffffffffffffffffffffffffffffffffffffffff\n      and\n      eq\n        /* \"0x81906929b10416a65A305d498267fE20adfC4746/contracts/Marketplace.sol\":9057:9124  require(listing.seller == msg.sender, \"Only seller can accept bid\") */\n      tag_221\n      jumpi\n      mload(0x40)\n      0x08c379a000000000000000000000000000000000000000000000000000000000\n      dup2\n      mstore\n      0x04\n      add\n      tag_222\n      swap1\n      tag_223\n      jump\t// in\n    tag_222:\n      mload(0x40)\n      dup1\n      swap2\n      sub\n      swap1\n      revert\n    tag_221:\n        /* \"0x81906929b10416a65A305d498267fE20adfC4746/contracts/Marketplace.sol\":9155:9156  0 */\n      0x00\n        /* \"0x81906929b10416a65A305d498267fE20adfC4746/contracts/Marketplace.sol\":9142:9145  bid */\n      dup2\n        /* \"0x81906929b10416a65A305d498267fE20adfC4746/contracts/Marketplace.sol\":9142:9152  bid.amount */\n      0x20\n      add\n      mload\n        /* \"0x81906929b10416a65A305d498267fE20adfC4746/contracts/Marketplace.sol\":9142:9156  bid.amount > 0 */\n      gt\n        /* \"0x81906929b10416a65A305d498267fE20adfC4746/contracts/Marketplace.sol\":9134:9174  require(bid.amount > 0, \"No active bid\") */\n      tag_224\n      jumpi\n      mload(0x40)\n      0x08c379a000000000000000000000000000000000000000000000000000000000\n      dup2\n      mstore\n      0x04\n      add\n      tag_225\n      swap1\n      tag_226\n      jump\t// in\n    tag_225:\n      mload(0x40)\n      dup1\n      swap2\n      sub\n      swap1\n      revert\n    tag_224:\n        /* \"0x81906929b10416a65A305d498267fE20adfC4746/contracts/Marketplace.sol\":9185:9196  uint256 fee */\n      0x00\n        /* \"0x81906929b10416a65A305d498267fE20adfC4746/contracts/Marketplace.sol\":1199:1204  10000 */\n      0x2710\n        /* \"0x81906929b10416a65A305d498267fE20adfC4746/contracts/Marketplace.sol\":9213:9227  marketplaceFee */\n      sload(0x02)\n        /* \"0x81906929b10416a65A305d498267fE20adfC4746/contracts/Marketplace.sol\":9200:9203  bid */\n      dup4\n        /* \"0x81906929b10416a65A305d498267fE20adfC4746/contracts/Marketplace.sol\":9200:9210  bid.amount */\n      0x20\n      add\n      mload\n        /* \"0x81906929b10416a65A305d498267fE20adfC4746/contracts/Marketplace.sol\":9200:9227  bid.amount * marketplaceFee */\n      tag_227\n      swap2\n      swap1\n      tag_228\n      jump\t// in\n    tag_227:\n        /* \"0x81906929b10416a65A305d498267fE20adfC4746/contracts/Marketplace.sol\":9199:9246  (bid.amount * marketplaceFee) / FEE_DENOMINATOR */\n      tag_229\n      swap2\n      swap1\n      tag_230\n      jump\t// in\n    tag_229:\n        /* \"0x81906929b10416a65A305d498267fE20adfC4746/contracts/Marketplace.sol\":9185:9246  uint256 fee = (bid.amount * marketplaceFee) / FEE_DENOMINATOR */\n      swap1\n      pop\n        /* \"0x81906929b10416a65A305d498267fE20adfC4746/contracts/Marketplace.sol\":9256:9278  uint256 sellerProceeds */\n      0x00\n        /* \"0x81906929b10416a65A305d498267fE20adfC4746/contracts/Marketplace.sol\":9294:9297  fee */\n      dup2\n        /* \"0x81906929b10416a65A305d498267fE20adfC4746/contracts/Marketplace.sol\":9281:9284  bid */\n      dup4\n        /* \"0x81906929b10416a65A305d498267fE20adfC4746/contracts/Marketplace.sol\":9281:9291  bid.amount */\n      0x20\n      add\n      mload\n        /* \"0x81906929b10416a65A305d498267fE20adfC4746/contracts/Marketplace.sol\":9281:9297  bid.amount - fee */\n      tag_231\n      swap2\n      swap1\n      tag_232\n      jump\t// in\n    tag_231:\n        /* \"0x81906929b10416a65A305d498267fE20adfC4746/contracts/Marketplace.sol\":9256:9297  uint256 sellerProceeds = bid.amount - fee */\n      swap1\n      pop\n        /* \"0x81906929b10416a65A305d498267fE20adfC4746/contracts/Marketplace.sol\":9344:9345  0 */\n      0x00\n        /* \"0x81906929b10416a65A305d498267fE20adfC4746/contracts/Marketplace.sol\":9312:9346  listing.paymentToken == address(0) */\n      0xffffffffffffffffffffffffffffffffffffffff\n      and\n        /* \"0x81906929b10416a65A305d498267fE20adfC4746/contracts/Marketplace.sol\":9312:9319  listing */\n      dup5\n        /* \"0x81906929b10416a65A305d498267fE20adfC4746/contracts/Marketplace.sol\":9312:9332  listing.paymentToken */\n      0x02\n      add\n      0x00\n      swap1\n      sload\n      swap1\n      0x0100\n      exp\n      swap1\n      div\n      0xffffffffffffffffffffffffffffffffffffffff\n      and\n        /* \"0x81906929b10416a65A305d498267fE20adfC4746/contracts/Marketplace.sol\":9312:9346  listing.paymentToken == address(0) */\n      0xffffffffffffffffffffffffffffffffffffffff\n      and\n      sub\n        /* \"0x81906929b10416a65A305d498267fE20adfC4746/contracts/Marketplace.sol\":9308:9695  if (listing.paymentToken == address(0)) {... */\n      tag_233\n      jumpi\n        /* \"0x81906929b10416a65A305d498267fE20adfC4746/contracts/Marketplace.sol\":9383:9386  fee */\n      dup2\n        /* \"0x81906929b10416a65A305d498267fE20adfC4746/contracts/Marketplace.sol\":9362:9379  adminsEthEarnings */\n      0x04\n      0x00\n        /* \"0x81906929b10416a65A305d498267fE20adfC4746/contracts/Marketplace.sol\":9362:9386  adminsEthEarnings += fee */\n      dup3\n      dup3\n      sload\n      tag_234\n      swap2\n      swap1\n      tag_235\n      jump\t// in\n    tag_234:\n      swap3\n      pop\n      pop\n      dup2\n      swap1\n      sstore\n      pop\n        /* \"0x81906929b10416a65A305d498267fE20adfC4746/contracts/Marketplace.sol\":9401:9413  bool success */\n      0x00\n        /* \"0x81906929b10416a65A305d498267fE20adfC4746/contracts/Marketplace.sol\":9419:9426  listing */\n      dup5\n        /* \"0x81906929b10416a65A305d498267fE20adfC4746/contracts/Marketplace.sol\":9419:9433  listing.seller */\n      0x00\n      add\n      0x00\n      swap1\n      sload\n      swap1\n      0x0100\n      exp\n      swap1\n      div\n      0xffffffffffffffffffffffffffffffffffffffff\n      and\n        /* \"0x81906929b10416a65A305d498267fE20adfC4746/contracts/Marketplace.sol\":9419:9438  listing.seller.call */\n      0xffffffffffffffffffffffffffffffffffffffff\n      and\n        /* \"0x81906929b10416a65A305d498267fE20adfC4746/contracts/Marketplace.sol\":9446:9460  sellerProceeds */\n      dup3\n        /* \"0x81906929b10416a65A305d498267fE20adfC4746/contracts/Marketplace.sol\":9419:9465  listing.seller.call{value: sellerProceeds}(\"\") */\n      mload(0x40)\n      tag_236\n      swap1\n      tag_237\n      jump\t// in\n    tag_236:\n      0x00\n      mload(0x40)\n      dup1\n      dup4\n      sub\n      dup2\n      dup6\n      dup8\n      gas\n      call\n      swap3\n      pop\n      pop\n      pop\n      returndatasize\n      dup1\n      0x00\n      dup2\n      eq\n      tag_240\n      jumpi\n      mload(0x40)\n      swap2\n      pop\n      and(add(returndatasize, 0x3f), not(0x1f))\n      dup3\n      add\n      0x40\n      mstore\n      returndatasize\n      dup3\n      mstore\n      returndatasize\n      0x00\n      0x20\n      dup5\n      add\n      returndatacopy\n      jump(tag_239)\n    tag_240:\n      0x60\n      swap2\n      pop\n    tag_239:\n      pop\n        /* \"0x81906929b10416a65A305d498267fE20adfC4746/contracts/Marketplace.sol\":9400:9465  (bool success, ) = listing.seller.call{value: sellerProceeds}(\"\") */\n      pop\n      swap1\n      pop\n        /* \"0x81906929b10416a65A305d498267fE20adfC4746/contracts/Marketplace.sol\":9487:9494  success */\n      dup1\n        /* \"0x81906929b10416a65A305d498267fE20adfC4746/contracts/Marketplace.sol\":9479:9518  require(success, \"ETH transfer failed\") */\n      tag_241\n      jumpi\n      mload(0x40)\n      0x08c379a000000000000000000000000000000000000000000000000000000000\n      dup2\n      mstore\n      0x04\n      add\n      tag_242\n      swap1\n      tag_243\n      jump\t// in\n    tag_242:\n      mload(0x40)\n      dup1\n      swap2\n      sub\n      swap1\n      revert\n    tag_241:\n        /* \"0x81906929b10416a65A305d498267fE20adfC4746/contracts/Marketplace.sol\":9348:9529  {... */\n      pop\n        /* \"0x81906929b10416a65A305d498267fE20adfC4746/contracts/Marketplace.sol\":9308:9695  if (listing.paymentToken == address(0)) {... */\n      jump(tag_244)\n    tag_233:\n        /* \"0x81906929b10416a65A305d498267fE20adfC4746/contracts/Marketplace.sol\":9594:9597  fee */\n      dup2\n        /* \"0x81906929b10416a65A305d498267fE20adfC4746/contracts/Marketplace.sol\":9549:9568  adminsTokenEarnings */\n      0x05\n        /* \"0x81906929b10416a65A305d498267fE20adfC4746/contracts/Marketplace.sol\":9549:9590  adminsTokenEarnings[listing.paymentToken] */\n      0x00\n        /* \"0x81906929b10416a65A305d498267fE20adfC4746/contracts/Marketplace.sol\":9569:9576  listing */\n      dup7\n        /* \"0x81906929b10416a65A305d498267fE20adfC4746/contracts/Marketplace.sol\":9569:9589  listing.paymentToken */\n      0x02\n      add\n      0x00\n      swap1\n      sload\n      swap1\n      0x0100\n      exp\n      swap1\n      div\n      0xffffffffffffffffffffffffffffffffffffffff\n      and\n        /* \"0x81906929b10416a65A305d498267fE20adfC4746/contracts/Marketplace.sol\":9549:9590  adminsTokenEarnings[listing.paymentToken] */\n      0xffffffffffffffffffffffffffffffffffffffff\n      and\n      0xffffffffffffffffffffffffffffffffffffffff\n      and\n      dup2\n      mstore\n      0x20\n      add\n      swap1\n      dup2\n      mstore\n      0x20\n      add\n      0x00\n      keccak256\n      0x00\n        /* \"0x81906929b10416a65A305d498267fE20adfC4746/contracts/Marketplace.sol\":9549:9597  adminsTokenEarnings[listing.paymentToken] += fee */\n      dup3\n      dup3\n      sload\n      tag_245\n      swap2\n      swap1\n      tag_235\n      jump\t// in\n    tag_245:\n      swap3\n      pop\n      pop\n      dup2\n      swap1\n      sstore\n      pop\n        /* \"0x81906929b10416a65A305d498267fE20adfC4746/contracts/Marketplace.sol\":9611:9684  IERC20(listing.paymentToken).safeTransfer(listing.seller, sellerProceeds) */\n      tag_246\n        /* \"0x81906929b10416a65A305d498267fE20adfC4746/contracts/Marketplace.sol\":9653:9660  listing */\n      dup5\n        /* \"0x81906929b10416a65A305d498267fE20adfC4746/contracts/Marketplace.sol\":9653:9667  listing.seller */\n      0x00\n      add\n      0x00\n      swap1\n      sload\n      swap1\n      0x0100\n      exp\n      swap1\n      div\n      0xffffffffffffffffffffffffffffffffffffffff\n      and\n        /* \"0x81906929b10416a65A305d498267fE20adfC4746/contracts/Marketplace.sol\":9669:9683  sellerProceeds */\n      dup3\n        /* \"0x81906929b10416a65A305d498267fE20adfC4746/contracts/Marketplace.sol\":9618:9625  listing */\n      dup7\n        /* \"0x81906929b10416a65A305d498267fE20adfC4746/contracts/Marketplace.sol\":9618:9638  listing.paymentToken */\n      0x02\n      add\n      0x00\n      swap1\n      sload\n      swap1\n      0x0100\n      exp\n      swap1\n      div\n      0xffffffffffffffffffffffffffffffffffffffff\n      and\n        /* \"0x81906929b10416a65A305d498267fE20adfC4746/contracts/Marketplace.sol\":9611:9652  IERC20(listing.paymentToken).safeTransfer */\n      0xffffffffffffffffffffffffffffffffffffffff\n      and\n      tag_247\n      swap1\n        /* \"0x81906929b10416a65A305d498267fE20adfC4746/contracts/Marketplace.sol\":9611:9684  IERC20(listing.paymentToken).safeTransfer(listing.seller, sellerProceeds) */\n      swap3\n      swap2\n      swap1\n      0xffffffff\n      and\n      jump\t// in\n    tag_246:\n        /* \"0x81906929b10416a65A305d498267fE20adfC4746/contracts/Marketplace.sol\":9308:9695  if (listing.paymentToken == address(0)) {... */\n    tag_244:\n        /* \"0x81906929b10416a65A305d498267fE20adfC4746/contracts/Marketplace.sol\":9713:9724  nftContract */\n      0x0d\n      0x00\n      swap1\n      sload\n      swap1\n      0x0100\n      exp\n      swap1\n      div\n      0xffffffffffffffffffffffffffffffffffffffff\n      and\n        /* \"0x81906929b10416a65A305d498267fE20adfC4746/contracts/Marketplace.sol\":9705:9742  IERC721(nftContract).safeTransferFrom */\n      0xffffffffffffffffffffffffffffffffffffffff\n      and\n      0x42842e0e\n        /* \"0x81906929b10416a65A305d498267fE20adfC4746/contracts/Marketplace.sol\":9751:9755  this */\n      address\n        /* \"0x81906929b10416a65A305d498267fE20adfC4746/contracts/Marketplace.sol\":9758:9761  bid */\n      dup6\n        /* \"0x81906929b10416a65A305d498267fE20adfC4746/contracts/Marketplace.sol\":9758:9768  bid.bidder */\n      0x00\n      add\n      mload\n        /* \"0x81906929b10416a65A305d498267fE20adfC4746/contracts/Marketplace.sol\":9770:9777  listing */\n      dup8\n        /* \"0x81906929b10416a65A305d498267fE20adfC4746/contracts/Marketplace.sol\":9770:9785  listing.tokenId */\n      0x01\n      add\n      sload\n        /* \"0x81906929b10416a65A305d498267fE20adfC4746/contracts/Marketplace.sol\":9705:9786  IERC721(nftContract).safeTransferFrom(address(this), bid.bidder, listing.tokenId) */\n      mload(0x40)\n      dup5\n      0xffffffff\n      and\n      0xe0\n      shl\n      dup2\n      mstore\n      0x04\n      add\n      tag_248\n      swap4\n      swap3\n      swap2\n      swap1\n      tag_249\n      jump\t// in\n    tag_248:\n      0x00\n      mload(0x40)\n      dup1\n      dup4\n      sub\n      dup2\n      0x00\n      dup8\n      dup1\n      extcodesize\n      iszero\n      dup1\n      iszero\n      tag_250\n      jumpi\n      0x00\n      dup1\n      revert\n    tag_250:\n      pop\n      gas\n      call\n      iszero\n      dup1\n      iszero\n      tag_252\n      jumpi\n      returndatasize\n      0x00\n      dup1\n      returndatacopy\n      revert(0x00, returndatasize)\n    tag_252:\n      pop\n      pop\n      pop\n      pop\n        /* \"0x81906929b10416a65A305d498267fE20adfC4746/contracts/Marketplace.sol\":9804:9812  listings */\n      0x06\n        /* \"0x81906929b10416a65A305d498267fE20adfC4746/contracts/Marketplace.sol\":9804:9821  listings[tokenId] */\n      0x00\n        /* \"0x81906929b10416a65A305d498267fE20adfC4746/contracts/Marketplace.sol\":9813:9820  tokenId */\n      dup8\n        /* \"0x81906929b10416a65A305d498267fE20adfC4746/contracts/Marketplace.sol\":9804:9821  listings[tokenId] */\n      dup2\n      mstore\n      0x20\n      add\n      swap1\n      dup2\n      mstore\n      0x20\n      add\n      0x00\n      keccak256\n      0x00\n        /* \"0x81906929b10416a65A305d498267fE20adfC4746/contracts/Marketplace.sol\":9797:9821  delete listings[tokenId] */\n      dup1\n      dup3\n      add\n      exp(0x0100, 0x00)\n      dup2\n      sload\n      swap1\n      0xffffffffffffffffffffffffffffffffffffffff\n      mul\n      not\n      and\n      swap1\n      sstore\n      0x01\n      dup3\n      add\n      0x00\n      swap1\n      sstore\n      0x02\n      dup3\n      add\n      exp(0x0100, 0x00)\n      dup2\n      sload\n      swap1\n      0xffffffffffffffffffffffffffffffffffffffff\n      mul\n      not\n      and\n      swap1\n      sstore\n      0x03\n      dup3\n      add\n      0x00\n      swap1\n      sstore\n      0x04\n      dup3\n      add\n      exp(0x0100, 0x00)\n      dup2\n      sload\n      swap1\n      0xff\n      mul\n      not\n      and\n      swap1\n      sstore\n      pop\n      pop\n        /* \"0x81906929b10416a65A305d498267fE20adfC4746/contracts/Marketplace.sol\":9838:9849  currentBids */\n      0x07\n        /* \"0x81906929b10416a65A305d498267fE20adfC4746/contracts/Marketplace.sol\":9838:9858  currentBids[tokenId] */\n      0x00\n        /* \"0x81906929b10416a65A305d498267fE20adfC4746/contracts/Marketplace.sol\":9850:9857  tokenId */\n      dup8\n        /* \"0x81906929b10416a65A305d498267fE20adfC4746/contracts/Marketplace.sol\":9838:9858  currentBids[tokenId] */\n      dup2\n      mstore\n      0x20\n      add\n      swap1\n      dup2\n      mstore\n      0x20\n      add\n      0x00\n      keccak256\n      0x00\n        /* \"0x81906929b10416a65A305d498267fE20adfC4746/contracts/Marketplace.sol\":9831:9858  delete currentBids[tokenId] */\n      dup1\n      dup3\n      add\n      exp(0x0100, 0x00)\n      dup2\n      sload\n      swap1\n      0xffffffffffffffffffffffffffffffffffffffff\n      mul\n      not\n      and\n      swap1\n      sstore\n      0x01\n      dup3\n      add\n      0x00\n      swap1\n      sstore\n      pop\n      pop\n        /* \"0x81906929b10416a65A305d498267fE20adfC4746/contracts/Marketplace.sol\":9902:9909  listing */\n      dup4\n        /* \"0x81906929b10416a65A305d498267fE20adfC4746/contracts/Marketplace.sol\":9902:9916  listing.seller */\n      0x00\n      add\n      0x00\n      swap1\n      sload\n      swap1\n      0x0100\n      exp\n      swap1\n      div\n      0xffffffffffffffffffffffffffffffffffffffff\n      and\n        /* \"0x81906929b10416a65A305d498267fE20adfC4746/contracts/Marketplace.sol\":9873:9929  NFTSold(tokenId, bid.bidder, listing.seller, bid.amount) */\n      0xffffffffffffffffffffffffffffffffffffffff\n      and\n        /* \"0x81906929b10416a65A305d498267fE20adfC4746/contracts/Marketplace.sol\":9890:9893  bid */\n      dup4\n        /* \"0x81906929b10416a65A305d498267fE20adfC4746/contracts/Marketplace.sol\":9890:9900  bid.bidder */\n      0x00\n      add\n      mload\n        /* \"0x81906929b10416a65A305d498267fE20adfC4746/contracts/Marketplace.sol\":9873:9929  NFTSold(tokenId, bid.bidder, listing.seller, bid.amount) */\n      0xffffffffffffffffffffffffffffffffffffffff\n      and\n        /* \"0x81906929b10416a65A305d498267fE20adfC4746/contracts/Marketplace.sol\":9881:9888  tokenId */\n      dup8\n        /* \"0x81906929b10416a65A305d498267fE20adfC4746/contracts/Marketplace.sol\":9873:9929  NFTSold(tokenId, bid.bidder, listing.seller, bid.amount) */\n      0x8562eb94748e30bb0071e932744ce902b460c683474fcb3bfd567ffa16b1afb2\n        /* \"0x81906929b10416a65A305d498267fE20adfC4746/contracts/Marketplace.sol\":9918:9921  bid */\n      dup7\n        /* \"0x81906929b10416a65A305d498267fE20adfC4746/contracts/Marketplace.sol\":9918:9928  bid.amount */\n      0x20\n      add\n      mload\n        /* \"0x81906929b10416a65A305d498267fE20adfC4746/contracts/Marketplace.sol\":9873:9929  NFTSold(tokenId, bid.bidder, listing.seller, bid.amount) */\n      mload(0x40)\n      tag_253\n      swap2\n      swap1\n      tag_52\n      jump\t// in\n    tag_253:\n      mload(0x40)\n      dup1\n      swap2\n      sub\n      swap1\n      log4\n        /* \"0x81906929b10416a65A305d498267fE20adfC4746/contracts/Marketplace.sol\":8946:9936  {... */\n      pop\n      pop\n      pop\n      pop\n        /* \"@openzeppelin/contracts/utils/Pausable.sol\":1503:1504  _ */\n      pop\n        /* \"@openzeppelin/contracts/utils/ReentrancyGuard.sol\":2542:2562  _nonReentrantAfter() */\n      tag_254\n        /* \"@openzeppelin/contracts/utils/ReentrancyGuard.sol\":2542:2560  _nonReentrantAfter */\n      tag_255\n        /* \"@openzeppelin/contracts/utils/ReentrancyGuard.sol\":2542:2562  _nonReentrantAfter() */\n      jump\t// in\n    tag_254:\n        /* \"0x81906929b10416a65A305d498267fE20adfC4746/contracts/Marketplace.sol\":8849:9936  function acceptBid(uint256 tokenId) external nonReentrant whenNotPaused isListingActive(tokenId) {... */\n      pop\n      jump\t// out\n        /* \"0x81906929b10416a65A305d498267fE20adfC4746/contracts/Marketplace.sol\":7383:7775  function cancelListing(uint256 tokenId) external whenNotPaused nonReentrant {... */\n    tag_77:\n        /* \"@openzeppelin/contracts/utils/Pausable.sol\":1474:1493  _requireNotPaused() */\n      tag_257\n        /* \"@openzeppelin/contracts/utils/Pausable.sol\":1474:1491  _requireNotPaused */\n      tag_215\n        /* \"@openzeppelin/contracts/utils/Pausable.sol\":1474:1493  _requireNotPaused() */\n      jump\t// in\n    tag_257:\n        /* \"@openzeppelin/contracts/utils/ReentrancyGuard.sol\":2500:2521  _nonReentrantBefore() */\n      tag_259\n        /* \"@openzeppelin/contracts/utils/ReentrancyGuard.sol\":2500:2519  _nonReentrantBefore */\n      tag_212\n        /* \"@openzeppelin/contracts/utils/ReentrancyGuard.sol\":2500:2521  _nonReentrantBefore() */\n      jump\t// in\n    tag_259:\n        /* \"0x81906929b10416a65A305d498267fE20adfC4746/contracts/Marketplace.sol\":7477:7485  listings */\n      0x06\n        /* \"0x81906929b10416a65A305d498267fE20adfC4746/contracts/Marketplace.sol\":7477:7494  listings[tokenId] */\n      0x00\n        /* \"0x81906929b10416a65A305d498267fE20adfC4746/contracts/Marketplace.sol\":7486:7493  tokenId */\n      dup3\n        /* \"0x81906929b10416a65A305d498267fE20adfC4746/contracts/Marketplace.sol\":7477:7494  listings[tokenId] */\n      dup2\n      mstore\n      0x20\n      add\n      swap1\n      dup2\n      mstore\n      0x20\n      add\n      0x00\n      keccak256\n        /* \"0x81906929b10416a65A305d498267fE20adfC4746/contracts/Marketplace.sol\":7477:7501  listings[tokenId].active */\n      0x04\n      add\n      0x00\n      swap1\n      sload\n      swap1\n      0x0100\n      exp\n      swap1\n      div\n      0xff\n      and\n        /* \"0x81906929b10416a65A305d498267fE20adfC4746/contracts/Marketplace.sol\":7469:7524  require(listings[tokenId].active, \"Listing not active\") */\n      tag_261\n      jumpi\n      mload(0x40)\n      0x08c379a000000000000000000000000000000000000000000000000000000000\n      dup2\n      mstore\n      0x04\n      add\n      tag_262\n      swap1\n      tag_219\n      jump\t// in\n    tag_262:\n      mload(0x40)\n      dup1\n      swap2\n      sub\n      swap1\n      revert\n    tag_261:\n        /* \"0x81906929b10416a65A305d498267fE20adfC4746/contracts/Marketplace.sol\":7570:7580  msg.sender */\n      caller\n        /* \"0x81906929b10416a65A305d498267fE20adfC4746/contracts/Marketplace.sol\":7542:7580  listings[tokenId].seller == msg.sender */\n      0xffffffffffffffffffffffffffffffffffffffff\n      and\n        /* \"0x81906929b10416a65A305d498267fE20adfC4746/contracts/Marketplace.sol\":7542:7550  listings */\n      0x06\n        /* \"0x81906929b10416a65A305d498267fE20adfC4746/contracts/Marketplace.sol\":7542:7559  listings[tokenId] */\n      0x00\n        /* \"0x81906929b10416a65A305d498267fE20adfC4746/contracts/Marketplace.sol\":7551:7558  tokenId */\n      dup4\n        /* \"0x81906929b10416a65A305d498267fE20adfC4746/contracts/Marketplace.sol\":7542:7559  listings[tokenId] */\n      dup2\n      mstore\n      0x20\n      add\n      swap1\n      dup2\n      mstore\n      0x20\n      add\n      0x00\n      keccak256\n        /* \"0x81906929b10416a65A305d498267fE20adfC4746/contracts/Marketplace.sol\":7542:7566  listings[tokenId].seller */\n      0x00\n      add\n      0x00\n      swap1\n      sload\n      swap1\n      0x0100\n      exp\n      swap1\n      div\n      0xffffffffffffffffffffffffffffffffffffffff\n      and\n        /* \"0x81906929b10416a65A305d498267fE20adfC4746/contracts/Marketplace.sol\":7542:7580  listings[tokenId].seller == msg.sender */\n      0xffffffffffffffffffffffffffffffffffffffff\n      and\n      eq\n        /* \"0x81906929b10416a65A305d498267fE20adfC4746/contracts/Marketplace.sol\":7534:7602  require(listings[tokenId].seller == msg.sender, \"Not listing owner\") */\n      tag_263\n      jumpi\n      mload(0x40)\n      0x08c379a000000000000000000000000000000000000000000000000000000000\n      dup2\n      mstore\n      0x04\n      add\n      tag_264\n      swap1\n      tag_265\n      jump\t// in\n    tag_264:\n      mload(0x40)\n      dup1\n      swap2\n      sub\n      swap1\n      revert\n    tag_263:\n        /* \"0x81906929b10416a65A305d498267fE20adfC4746/contracts/Marketplace.sol\":7621:7632  nftContract */\n      0x0d\n      0x00\n      swap1\n      sload\n      swap1\n      0x0100\n      exp\n      swap1\n      div\n      0xffffffffffffffffffffffffffffffffffffffff\n      and\n        /* \"0x81906929b10416a65A305d498267fE20adfC4746/contracts/Marketplace.sol\":7613:7646  IERC721(nftContract).transferFrom */\n      0xffffffffffffffffffffffffffffffffffffffff\n      and\n      0x23b872dd\n        /* \"0x81906929b10416a65A305d498267fE20adfC4746/contracts/Marketplace.sol\":7655:7659  this */\n      address\n        /* \"0x81906929b10416a65A305d498267fE20adfC4746/contracts/Marketplace.sol\":7662:7672  msg.sender */\n      caller\n        /* \"0x81906929b10416a65A305d498267fE20adfC4746/contracts/Marketplace.sol\":7674:7681  tokenId */\n      dup5\n        /* \"0x81906929b10416a65A305d498267fE20adfC4746/contracts/Marketplace.sol\":7613:7682  IERC721(nftContract).transferFrom(address(this), msg.sender, tokenId) */\n      mload(0x40)\n      dup5\n      0xffffffff\n      and\n      0xe0\n      shl\n      dup2\n      mstore\n      0x04\n      add\n      tag_266\n      swap4\n      swap3\n      swap2\n      swap1\n      tag_249\n      jump\t// in\n    tag_266:\n      0x00\n      mload(0x40)\n      dup1\n      dup4\n      sub\n      dup2\n      0x00\n      dup8\n      dup1\n      extcodesize\n      iszero\n      dup1\n      iszero\n      tag_267\n      jumpi\n      0x00\n      dup1\n      revert\n    tag_267:\n      pop\n      gas\n      call\n      iszero\n      dup1\n      iszero\n      tag_269\n      jumpi\n      returndatasize\n      0x00\n      dup1\n      returndatacopy\n      revert(0x00, returndatasize)\n    tag_269:\n      pop\n      pop\n      pop\n      pop\n        /* \"0x81906929b10416a65A305d498267fE20adfC4746/contracts/Marketplace.sol\":7699:7707  listings */\n      0x06\n        /* \"0x81906929b10416a65A305d498267fE20adfC4746/contracts/Marketplace.sol\":7699:7716  listings[tokenId] */\n      0x00\n        /* \"0x81906929b10416a65A305d498267fE20adfC4746/contracts/Marketplace.sol\":7708:7715  tokenId */\n      dup3\n        /* \"0x81906929b10416a65A305d498267fE20adfC4746/contracts/Marketplace.sol\":7699:7716  listings[tokenId] */\n      dup2\n      mstore\n      0x20\n      add\n      swap1\n      dup2\n      mstore\n      0x20\n      add\n      0x00\n      keccak256\n      0x00\n        /* \"0x81906929b10416a65A305d498267fE20adfC4746/contracts/Marketplace.sol\":7692:7716  delete listings[tokenId] */\n      dup1\n      dup3\n      add\n      exp(0x0100, 0x00)\n      dup2\n      sload\n      swap1\n      0xffffffffffffffffffffffffffffffffffffffff\n      mul\n      not\n      and\n      swap1\n      sstore\n      0x01\n      dup3\n      add\n      0x00\n      swap1\n      sstore\n      0x02\n      dup3\n      add\n      exp(0x0100, 0x00)\n      dup2\n      sload\n      swap1\n      0xffffffffffffffffffffffffffffffffffffffff\n      mul\n      not\n      and\n      swap1\n      sstore\n      0x03\n      dup3\n      add\n      0x00\n      swap1\n      sstore\n      0x04\n      dup3\n      add\n      exp(0x0100, 0x00)\n      dup2\n      sload\n      swap1\n      0xff\n      mul\n      not\n      and\n      swap1\n      sstore\n      pop\n      pop\n        /* \"0x81906929b10416a65A305d498267fE20adfC4746/contracts/Marketplace.sol\":7748:7755  tokenId */\n      dup1\n        /* \"0x81906929b10416a65A305d498267fE20adfC4746/contracts/Marketplace.sol\":7731:7768  ListingCancelled(tokenId, msg.sender) */\n      0x8e25282255ab31897df2b0456bb993ac7f84d376861aefd84901d2d63a7428a2\n        /* \"0x81906929b10416a65A305d498267fE20adfC4746/contracts/Marketplace.sol\":7757:7767  msg.sender */\n      caller\n        /* \"0x81906929b10416a65A305d498267fE20adfC4746/contracts/Marketplace.sol\":7731:7768  ListingCancelled(tokenId, msg.sender) */\n      mload(0x40)\n      tag_270\n      swap2\n      swap1\n      tag_121\n      jump\t// in\n    tag_270:\n      mload(0x40)\n      dup1\n      swap2\n      sub\n      swap1\n      log2\n        /* \"@openzeppelin/contracts/utils/ReentrancyGuard.sol\":2542:2562  _nonReentrantAfter() */\n      tag_271\n        /* \"@openzeppelin/contracts/utils/ReentrancyGuard.sol\":2542:2560  _nonReentrantAfter */\n      tag_255\n        /* \"@openzeppelin/contracts/utils/ReentrancyGuard.sol\":2542:2562  _nonReentrantAfter() */\n      jump\t// in\n    tag_271:\n        /* \"0x81906929b10416a65A305d498267fE20adfC4746/contracts/Marketplace.sol\":7383:7775  function cancelListing(uint256 tokenId) external whenNotPaused nonReentrant {... */\n      pop\n      jump\t// out\n        /* \"0x81906929b10416a65A305d498267fE20adfC4746/contracts/Marketplace.sol\":4325:4539  function updateMarketplaceFee(uint256 newFee) external onlyOwner {... */\n    tag_81:\n        /* \"@openzeppelin/contracts/access/Ownable.sol\":1531:1544  _checkOwner() */\n      tag_273\n        /* \"@openzeppelin/contracts/access/Ownable.sol\":1531:1542  _checkOwner */\n      tag_197\n        /* \"@openzeppelin/contracts/access/Ownable.sol\":1531:1544  _checkOwner() */\n      jump\t// in\n    tag_273:\n        /* \"0x81906929b10416a65A305d498267fE20adfC4746/contracts/Marketplace.sol\":4417:4418  0 */\n      0x00\n        /* \"0x81906929b10416a65A305d498267fE20adfC4746/contracts/Marketplace.sol\":4408:4414  newFee */\n      dup2\n        /* \"0x81906929b10416a65A305d498267fE20adfC4746/contracts/Marketplace.sol\":4408:4418  newFee > 0 */\n      gt\n        /* \"0x81906929b10416a65A305d498267fE20adfC4746/contracts/Marketplace.sol\":4408:4439  newFee > 0 && newFee <= MAX_FEE */\n      dup1\n      iszero\n      tag_275\n      jumpi\n      pop\n        /* \"0x81906929b10416a65A305d498267fE20adfC4746/contracts/Marketplace.sol\":4432:4439  MAX_FEE */\n      sload(0x03)\n        /* \"0x81906929b10416a65A305d498267fE20adfC4746/contracts/Marketplace.sol\":4422:4428  newFee */\n      dup2\n        /* \"0x81906929b10416a65A305d498267fE20adfC4746/contracts/Marketplace.sol\":4422:4439  newFee <= MAX_FEE */\n      gt\n      iszero\n        /* \"0x81906929b10416a65A305d498267fE20adfC4746/contracts/Marketplace.sol\":4408:4439  newFee > 0 && newFee <= MAX_FEE */\n    tag_275:\n        /* \"0x81906929b10416a65A305d498267fE20adfC4746/contracts/Marketplace.sol\":4400:4455  require(newFee > 0 && newFee <= MAX_FEE, \"Invalid fee\") */\n      tag_276\n      jumpi\n      mload(0x40)\n      0x08c379a000000000000000000000000000000000000000000000000000000000\n      dup2\n      mstore\n      0x04\n      add\n      tag_277\n      swap1\n      tag_278\n      jump\t// in\n    tag_277:\n      mload(0x40)\n      dup1\n      swap2\n      sub\n      swap1\n      revert\n    tag_276:\n        /* \"0x81906929b10416a65A305d498267fE20adfC4746/contracts/Marketplace.sol\":4482:4488  newFee */\n      dup1\n        /* \"0x81906929b10416a65A305d498267fE20adfC4746/contracts/Marketplace.sol\":4465:4479  marketplaceFee */\n      0x02\n        /* \"0x81906929b10416a65A305d498267fE20adfC4746/contracts/Marketplace.sol\":4465:4488  marketplaceFee = newFee */\n      dup2\n      swap1\n      sstore\n      pop\n        /* \"0x81906929b10416a65A305d498267fE20adfC4746/contracts/Marketplace.sol\":4503:4532  MarketplaceFeeUpdated(newFee) */\n      0xe18aa129833f655a8166b6185277fee7a53f67e46fd32329bc2fc2ac21274d55\n        /* \"0x81906929b10416a65A305d498267fE20adfC4746/contracts/Marketplace.sol\":4525:4531  newFee */\n      dup2\n        /* \"0x81906929b10416a65A305d498267fE20adfC4746/contracts/Marketplace.sol\":4503:4532  MarketplaceFeeUpdated(newFee) */\n      mload(0x40)\n      tag_279\n      swap2\n      swap1\n      tag_52\n      jump\t// in\n    tag_279:\n      mload(0x40)\n      dup1\n      swap2\n      sub\n      swap1\n      log1\n        /* \"0x81906929b10416a65A305d498267fE20adfC4746/contracts/Marketplace.sol\":4325:4539  function updateMarketplaceFee(uint256 newFee) external onlyOwner {... */\n      pop\n      jump\t// out\n        /* \"0x81906929b10416a65A305d498267fE20adfC4746/contracts/Marketplace.sol\":4229:4319  function unpause() external onlyOwner {... */\n    tag_84:\n        /* \"@openzeppelin/contracts/access/Ownable.sol\":1531:1544  _checkOwner() */\n      tag_281\n        /* \"@openzeppelin/contracts/access/Ownable.sol\":1531:1542  _checkOwner */\n      tag_197\n        /* \"@openzeppelin/contracts/access/Ownable.sol\":1531:1544  _checkOwner() */\n      jump\t// in\n    tag_281:\n        /* \"0x81906929b10416a65A305d498267fE20adfC4746/contracts/Marketplace.sol\":4277:4287  _unpause() */\n      tag_283\n        /* \"0x81906929b10416a65A305d498267fE20adfC4746/contracts/Marketplace.sol\":4277:4285  _unpause */\n      tag_284\n        /* \"0x81906929b10416a65A305d498267fE20adfC4746/contracts/Marketplace.sol\":4277:4287  _unpause() */\n      jump\t// in\n    tag_283:\n        /* \"0x81906929b10416a65A305d498267fE20adfC4746/contracts/Marketplace.sol\":4302:4312  Unpaused() */\n      0xa45f47fdea8a1efdd9029a5691c7f759c32b7c698632b563573e155625d16933\n      mload(0x40)\n      mload(0x40)\n      dup1\n      swap2\n      sub\n      swap1\n      log1\n        /* \"0x81906929b10416a65A305d498267fE20adfC4746/contracts/Marketplace.sol\":4229:4319  function unpause() external onlyOwner {... */\n      jump\t// out\n        /* \"0x81906929b10416a65A305d498267fE20adfC4746/contracts/Marketplace.sol\":5010:5238  function updateUsdtTokenAddress(address newAddress) external onlyOwner {... */\n    tag_88:\n        /* \"@openzeppelin/contracts/access/Ownable.sol\":1531:1544  _checkOwner() */\n      tag_286\n        /* \"@openzeppelin/contracts/access/Ownable.sol\":1531:1542  _checkOwner */\n      tag_197\n        /* \"@openzeppelin/contracts/access/Ownable.sol\":1531:1544  _checkOwner() */\n      jump\t// in\n    tag_286:\n        /* \"0x81906929b10416a65A305d498267fE20adfC4746/contracts/Marketplace.sol\":5121:5122  0 */\n      0x00\n        /* \"0x81906929b10416a65A305d498267fE20adfC4746/contracts/Marketplace.sol\":5099:5123  newAddress != address(0) */\n      0xffffffffffffffffffffffffffffffffffffffff\n      and\n        /* \"0x81906929b10416a65A305d498267fE20adfC4746/contracts/Marketplace.sol\":5099:5109  newAddress */\n      dup2\n        /* \"0x81906929b10416a65A305d498267fE20adfC4746/contracts/Marketplace.sol\":5099:5123  newAddress != address(0) */\n      0xffffffffffffffffffffffffffffffffffffffff\n      and\n      sub\n        /* \"0x81906929b10416a65A305d498267fE20adfC4746/contracts/Marketplace.sol\":5091:5143  require(newAddress != address(0), \"Invalid address\") */\n      tag_288\n      jumpi\n      mload(0x40)\n      0x08c379a000000000000000000000000000000000000000000000000000000000\n      dup2\n      mstore\n      0x04\n      add\n      tag_289\n      swap1\n      tag_201\n      jump\t// in\n    tag_289:\n      mload(0x40)\n      dup1\n      swap2\n      sub\n      swap1\n      revert\n    tag_288:\n        /* \"0x81906929b10416a65A305d498267fE20adfC4746/contracts/Marketplace.sol\":5158:5199  UsdtAddressUpdated(tokenUSDT, newAddress) */\n      0x495ea904988daa5f88f7d03303cced2c8a506050b1a7d20644a75313de113813\n        /* \"0x81906929b10416a65A305d498267fE20adfC4746/contracts/Marketplace.sol\":5177:5186  tokenUSDT */\n      0x0b\n      0x00\n      swap1\n      sload\n      swap1\n      0x0100\n      exp\n      swap1\n      div\n      0xffffffffffffffffffffffffffffffffffffffff\n      and\n        /* \"0x81906929b10416a65A305d498267fE20adfC4746/contracts/Marketplace.sol\":5188:5198  newAddress */\n      dup3\n        /* \"0x81906929b10416a65A305d498267fE20adfC4746/contracts/Marketplace.sol\":5158:5199  UsdtAddressUpdated(tokenUSDT, newAddress) */\n      mload(0x40)\n      tag_290\n      swap3\n      swap2\n      swap1\n      tag_203\n      jump\t// in\n    tag_290:\n      mload(0x40)\n      dup1\n      swap2\n      sub\n      swap1\n      log1\n        /* \"0x81906929b10416a65A305d498267fE20adfC4746/contracts/Marketplace.sol\":5221:5231  newAddress */\n      dup1\n        /* \"0x81906929b10416a65A305d498267fE20adfC4746/contracts/Marketplace.sol\":5209:5218  tokenUSDT */\n      0x0b\n      0x00\n        /* \"0x81906929b10416a65A305d498267fE20adfC4746/contracts/Marketplace.sol\":5209:5231  tokenUSDT = newAddress */\n      0x0100\n      exp\n      dup2\n      sload\n      dup2\n      0xffffffffffffffffffffffffffffffffffffffff\n      mul\n      not\n      and\n      swap1\n      dup4\n      0xffffffffffffffffffffffffffffffffffffffff\n      and\n      mul\n      or\n      swap1\n      sstore\n      pop\n        /* \"0x81906929b10416a65A305d498267fE20adfC4746/contracts/Marketplace.sol\":5010:5238  function updateUsdtTokenAddress(address newAddress) external onlyOwner {... */\n      pop\n      jump\t// out\n        /* \"0x81906929b10416a65A305d498267fE20adfC4746/contracts/Marketplace.sol\":9942:10415  function withdrawEthRefunds() external nonReentrant {... */\n    tag_91:\n        /* \"@openzeppelin/contracts/utils/ReentrancyGuard.sol\":2500:2521  _nonReentrantBefore() */\n      tag_292\n        /* \"@openzeppelin/contracts/utils/ReentrancyGuard.sol\":2500:2519  _nonReentrantBefore */\n      tag_212\n        /* \"@openzeppelin/contracts/utils/ReentrancyGuard.sol\":2500:2521  _nonReentrantBefore() */\n      jump\t// in\n    tag_292:\n        /* \"0x81906929b10416a65A305d498267fE20adfC4746/contracts/Marketplace.sol\":10004:10018  uint256 amount */\n      0x00\n        /* \"0x81906929b10416a65A305d498267fE20adfC4746/contracts/Marketplace.sol\":10021:10041  ethRefundsForBidders */\n      0x08\n        /* \"0x81906929b10416a65A305d498267fE20adfC4746/contracts/Marketplace.sol\":10021:10053  ethRefundsForBidders[msg.sender] */\n      0x00\n        /* \"0x81906929b10416a65A305d498267fE20adfC4746/contracts/Marketplace.sol\":10042:10052  msg.sender */\n      caller\n        /* \"0x81906929b10416a65A305d498267fE20adfC4746/contracts/Marketplace.sol\":10021:10053  ethRefundsForBidders[msg.sender] */\n      0xffffffffffffffffffffffffffffffffffffffff\n      and\n      0xffffffffffffffffffffffffffffffffffffffff\n      and\n      dup2\n      mstore\n      0x20\n      add\n      swap1\n      dup2\n      mstore\n      0x20\n      add\n      0x00\n      keccak256\n      sload\n        /* \"0x81906929b10416a65A305d498267fE20adfC4746/contracts/Marketplace.sol\":10004:10053  uint256 amount = ethRefundsForBidders[msg.sender] */\n      swap1\n      pop\n        /* \"0x81906929b10416a65A305d498267fE20adfC4746/contracts/Marketplace.sol\":10080:10081  0 */\n      0x00\n        /* \"0x81906929b10416a65A305d498267fE20adfC4746/contracts/Marketplace.sol\":10071:10077  amount */\n      dup2\n        /* \"0x81906929b10416a65A305d498267fE20adfC4746/contracts/Marketplace.sol\":10071:10081  amount > 0 */\n      gt\n        /* \"0x81906929b10416a65A305d498267fE20adfC4746/contracts/Marketplace.sol\":10063:10106  require(amount > 0, \"No refundable amount\") */\n      tag_294\n      jumpi\n      mload(0x40)\n      0x08c379a000000000000000000000000000000000000000000000000000000000\n      dup2\n      mstore\n      0x04\n      add\n      tag_295\n      swap1\n      tag_296\n      jump\t// in\n    tag_295:\n      mload(0x40)\n      dup1\n      swap2\n      sub\n      swap1\n      revert\n    tag_294:\n        /* \"0x81906929b10416a65A305d498267fE20adfC4746/contracts/Marketplace.sol\":10134:10155  address(this).balance */\n      selfbalance\n        /* \"0x81906929b10416a65A305d498267fE20adfC4746/contracts/Marketplace.sol\":10124:10130  amount */\n      dup2\n        /* \"0x81906929b10416a65A305d498267fE20adfC4746/contracts/Marketplace.sol\":10124:10155  amount <= address(this).balance */\n      gt\n      iszero\n        /* \"0x81906929b10416a65A305d498267fE20adfC4746/contracts/Marketplace.sol\":10116:10189  require(amount <= address(this).balance, \"Insufficient contract balance\") */\n      tag_297\n      jumpi\n      mload(0x40)\n      0x08c379a000000000000000000000000000000000000000000000000000000000\n      dup2\n      mstore\n      0x04\n      add\n      tag_298\n      swap1\n      tag_299\n      jump\t// in\n    tag_298:\n      mload(0x40)\n      dup1\n      swap2\n      sub\n      swap1\n      revert\n    tag_297:\n        /* \"0x81906929b10416a65A305d498267fE20adfC4746/contracts/Marketplace.sol\":10235:10236  0 */\n      0x00\n        /* \"0x81906929b10416a65A305d498267fE20adfC4746/contracts/Marketplace.sol\":10200:10220  ethRefundsForBidders */\n      0x08\n        /* \"0x81906929b10416a65A305d498267fE20adfC4746/contracts/Marketplace.sol\":10200:10232  ethRefundsForBidders[msg.sender] */\n      0x00\n        /* \"0x81906929b10416a65A305d498267fE20adfC4746/contracts/Marketplace.sol\":10221:10231  msg.sender */\n      caller\n        /* \"0x81906929b10416a65A305d498267fE20adfC4746/contracts/Marketplace.sol\":10200:10232  ethRefundsForBidders[msg.sender] */\n      0xffffffffffffffffffffffffffffffffffffffff\n      and\n      0xffffffffffffffffffffffffffffffffffffffff\n      and\n      dup2\n      mstore\n      0x20\n      add\n      swap1\n      dup2\n      mstore\n      0x20\n      add\n      0x00\n      keccak256\n        /* \"0x81906929b10416a65A305d498267fE20adfC4746/contracts/Marketplace.sol\":10200:10236  ethRefundsForBidders[msg.sender] = 0 */\n      dup2\n      swap1\n      sstore\n      pop\n        /* \"0x81906929b10416a65A305d498267fE20adfC4746/contracts/Marketplace.sol\":10247:10259  bool success */\n      0x00\n        /* \"0x81906929b10416a65A305d498267fE20adfC4746/contracts/Marketplace.sol\":10265:10275  msg.sender */\n      caller\n        /* \"0x81906929b10416a65A305d498267fE20adfC4746/contracts/Marketplace.sol\":10265:10280  msg.sender.call */\n      0xffffffffffffffffffffffffffffffffffffffff\n      and\n        /* \"0x81906929b10416a65A305d498267fE20adfC4746/contracts/Marketplace.sol\":10288:10294  amount */\n      dup3\n        /* \"0x81906929b10416a65A305d498267fE20adfC4746/contracts/Marketplace.sol\":10265:10299  msg.sender.call{value: amount}(\"\") */\n      mload(0x40)\n      tag_300\n      swap1\n      tag_237\n      jump\t// in\n    tag_300:\n      0x00\n      mload(0x40)\n      dup1\n      dup4\n      sub\n      dup2\n      dup6\n      dup8\n      gas\n      call\n      swap3\n      pop\n      pop\n      pop\n      returndatasize\n      dup1\n      0x00\n      dup2\n      eq\n      tag_303\n      jumpi\n      mload(0x40)\n      swap2\n      pop\n      and(add(returndatasize, 0x3f), not(0x1f))\n      dup3\n      add\n      0x40\n      mstore\n      returndatasize\n      dup3\n      mstore\n      returndatasize\n      0x00\n      0x20\n      dup5\n      add\n      returndatacopy\n      jump(tag_302)\n    tag_303:\n      0x60\n      swap2\n      pop\n    tag_302:\n      pop\n        /* \"0x81906929b10416a65A305d498267fE20adfC4746/contracts/Marketplace.sol\":10246:10299  (bool success, ) = msg.sender.call{value: amount}(\"\") */\n      pop\n      swap1\n      pop\n        /* \"0x81906929b10416a65A305d498267fE20adfC4746/contracts/Marketplace.sol\":10317:10324  success */\n      dup1\n        /* \"0x81906929b10416a65A305d498267fE20adfC4746/contracts/Marketplace.sol\":10309:10346  require(success, \"ETH refund failed\") */\n      tag_304\n      jumpi\n      mload(0x40)\n      0x08c379a000000000000000000000000000000000000000000000000000000000\n      dup2\n      mstore\n      0x04\n      add\n      tag_305\n      swap1\n      tag_306\n      jump\t// in\n    tag_305:\n      mload(0x40)\n      dup1\n      swap2\n      sub\n      swap1\n      revert\n    tag_304:\n        /* \"0x81906929b10416a65A305d498267fE20adfC4746/contracts/Marketplace.sol\":10389:10399  msg.sender */\n      caller\n        /* \"0x81906929b10416a65A305d498267fE20adfC4746/contracts/Marketplace.sol\":10361:10408  RefundWithdrawn(address(0), msg.sender, amount) */\n      0xffffffffffffffffffffffffffffffffffffffff\n      and\n        /* \"0x81906929b10416a65A305d498267fE20adfC4746/contracts/Marketplace.sol\":10385:10386  0 */\n      0x00\n        /* \"0x81906929b10416a65A305d498267fE20adfC4746/contracts/Marketplace.sol\":10361:10408  RefundWithdrawn(address(0), msg.sender, amount) */\n      0xffffffffffffffffffffffffffffffffffffffff\n      and\n      0xd55b5fe81317b854ac11454adf7e5a9a0adf69184d643ef9ae6bfda6a015c5bc\n        /* \"0x81906929b10416a65A305d498267fE20adfC4746/contracts/Marketplace.sol\":10401:10407  amount */\n      dup5\n        /* \"0x81906929b10416a65A305d498267fE20adfC4746/contracts/Marketplace.sol\":10361:10408  RefundWithdrawn(address(0), msg.sender, amount) */\n      mload(0x40)\n      tag_307\n      swap2\n      swap1\n      tag_52\n      jump\t// in\n    tag_307:\n      mload(0x40)\n      dup1\n      swap2\n      sub\n      swap1\n      log3\n        /* \"0x81906929b10416a65A305d498267fE20adfC4746/contracts/Marketplace.sol\":9994:10415  {... */\n      pop\n      pop\n        /* \"@openzeppelin/contracts/utils/ReentrancyGuard.sol\":2542:2562  _nonReentrantAfter() */\n      tag_308\n        /* \"@openzeppelin/contracts/utils/ReentrancyGuard.sol\":2542:2560  _nonReentrantAfter */\n      tag_255\n        /* \"@openzeppelin/contracts/utils/ReentrancyGuard.sol\":2542:2562  _nonReentrantAfter() */\n      jump\t// in\n    tag_308:\n        /* \"0x81906929b10416a65A305d498267fE20adfC4746/contracts/Marketplace.sol\":9942:10415  function withdrawEthRefunds() external nonReentrant {... */\n      jump\t// out\n        /* \"0x81906929b10416a65A305d498267fE20adfC4746/contracts/Marketplace.sol\":5478:5683  function updateMaxFee(uint256 newMaxFee) external onlyOwner {... */\n    tag_95:\n        /* \"@openzeppelin/contracts/access/Ownable.sol\":1531:1544  _checkOwner() */\n      tag_310\n        /* \"@openzeppelin/contracts/access/Ownable.sol\":1531:1542  _checkOwner */\n      tag_197\n        /* \"@openzeppelin/contracts/access/Ownable.sol\":1531:1544  _checkOwner() */\n      jump\t// in\n    tag_310:\n        /* \"0x81906929b10416a65A305d498267fE20adfC4746/contracts/Marketplace.sol\":5568:5569  0 */\n      0x00\n        /* \"0x81906929b10416a65A305d498267fE20adfC4746/contracts/Marketplace.sol\":5556:5565  newMaxFee */\n      dup2\n        /* \"0x81906929b10416a65A305d498267fE20adfC4746/contracts/Marketplace.sol\":5556:5569  newMaxFee > 0 */\n      gt\n        /* \"0x81906929b10416a65A305d498267fE20adfC4746/contracts/Marketplace.sol\":5556:5588  newMaxFee > 0 && newMaxFee < 900 */\n      dup1\n      iszero\n      tag_312\n      jumpi\n      pop\n        /* \"0x81906929b10416a65A305d498267fE20adfC4746/contracts/Marketplace.sol\":5585:5588  900 */\n      0x0384\n        /* \"0x81906929b10416a65A305d498267fE20adfC4746/contracts/Marketplace.sol\":5573:5582  newMaxFee */\n      dup2\n        /* \"0x81906929b10416a65A305d498267fE20adfC4746/contracts/Marketplace.sol\":5573:5588  newMaxFee < 900 */\n      lt\n        /* \"0x81906929b10416a65A305d498267fE20adfC4746/contracts/Marketplace.sol\":5556:5588  newMaxFee > 0 && newMaxFee < 900 */\n    tag_312:\n        /* \"0x81906929b10416a65A305d498267fE20adfC4746/contracts/Marketplace.sol\":5548:5608  require(newMaxFee > 0 && newMaxFee < 900, \"Invalid max fee\") */\n      tag_313\n      jumpi\n      mload(0x40)\n      0x08c379a000000000000000000000000000000000000000000000000000000000\n      dup2\n      mstore\n      0x04\n      add\n      tag_314\n      swap1\n      tag_315\n      jump\t// in\n    tag_314:\n      mload(0x40)\n      dup1\n      swap2\n      sub\n      swap1\n      revert\n    tag_313:\n        /* \"0x81906929b10416a65A305d498267fE20adfC4746/contracts/Marketplace.sol\":5628:5637  newMaxFee */\n      dup1\n        /* \"0x81906929b10416a65A305d498267fE20adfC4746/contracts/Marketplace.sol\":5618:5625  MAX_FEE */\n      0x03\n        /* \"0x81906929b10416a65A305d498267fE20adfC4746/contracts/Marketplace.sol\":5618:5637  MAX_FEE = newMaxFee */\n      dup2\n      swap1\n      sstore\n      pop\n        /* \"0x81906929b10416a65A305d498267fE20adfC4746/contracts/Marketplace.sol\":5652:5676  MaxFeeUpdated(newMaxFee) */\n      0x5d46f46c0e5b2045e0cb8c00367d35d9f3f1fc035950ac8f5c675f6c0a791ba0\n        /* \"0x81906929b10416a65A305d498267fE20adfC4746/contracts/Marketplace.sol\":5666:5675  newMaxFee */\n      dup2\n        /* \"0x81906929b10416a65A305d498267fE20adfC4746/contracts/Marketplace.sol\":5652:5676  MaxFeeUpdated(newMaxFee) */\n      mload(0x40)\n      tag_316\n      swap2\n      swap1\n      tag_52\n      jump\t// in\n    tag_316:\n      mload(0x40)\n      dup1\n      swap2\n      sub\n      swap1\n      log1\n        /* \"0x81906929b10416a65A305d498267fE20adfC4746/contracts/Marketplace.sol\":5478:5683  function updateMaxFee(uint256 newMaxFee) external onlyOwner {... */\n      pop\n      jump\t// out\n        /* \"0x81906929b10416a65A305d498267fE20adfC4746/contracts/Marketplace.sol\":10421:10917  function withdrawTokenRefunds(address paymentToken) external nonReentrant {... */\n    tag_99:\n        /* \"@openzeppelin/contracts/utils/ReentrancyGuard.sol\":2500:2521  _nonReentrantBefore() */\n      tag_318\n        /* \"@openzeppelin/contracts/utils/ReentrancyGuard.sol\":2500:2519  _nonReentrantBefore */\n      tag_212\n        /* \"@openzeppelin/contracts/utils/ReentrancyGuard.sol\":2500:2521  _nonReentrantBefore() */\n      jump\t// in\n    tag_318:\n        /* \"0x81906929b10416a65A305d498267fE20adfC4746/contracts/Marketplace.sol\":10505:10519  uint256 amount */\n      0x00\n        /* \"0x81906929b10416a65A305d498267fE20adfC4746/contracts/Marketplace.sol\":10522:10544  tokenRefundsForBidders */\n      0x09\n        /* \"0x81906929b10416a65A305d498267fE20adfC4746/contracts/Marketplace.sol\":10522:10556  tokenRefundsForBidders[msg.sender] */\n      0x00\n        /* \"0x81906929b10416a65A305d498267fE20adfC4746/contracts/Marketplace.sol\":10545:10555  msg.sender */\n      caller\n        /* \"0x81906929b10416a65A305d498267fE20adfC4746/contracts/Marketplace.sol\":10522:10556  tokenRefundsForBidders[msg.sender] */\n      0xffffffffffffffffffffffffffffffffffffffff\n      and\n      0xffffffffffffffffffffffffffffffffffffffff\n      and\n      dup2\n      mstore\n      0x20\n      add\n      swap1\n      dup2\n      mstore\n      0x20\n      add\n      0x00\n      keccak256\n        /* \"0x81906929b10416a65A305d498267fE20adfC4746/contracts/Marketplace.sol\":10522:10570  tokenRefundsForBidders[msg.sender][paymentToken] */\n      0x00\n        /* \"0x81906929b10416a65A305d498267fE20adfC4746/contracts/Marketplace.sol\":10557:10569  paymentToken */\n      dup4\n        /* \"0x81906929b10416a65A305d498267fE20adfC4746/contracts/Marketplace.sol\":10522:10570  tokenRefundsForBidders[msg.sender][paymentToken] */\n      0xffffffffffffffffffffffffffffffffffffffff\n      and\n      0xffffffffffffffffffffffffffffffffffffffff\n      and\n      dup2\n      mstore\n      0x20\n      add\n      swap1\n      dup2\n      mstore\n      0x20\n      add\n      0x00\n      keccak256\n      sload\n        /* \"0x81906929b10416a65A305d498267fE20adfC4746/contracts/Marketplace.sol\":10505:10570  uint256 amount = tokenRefundsForBidders[msg.sender][paymentToken] */\n      swap1\n      pop\n        /* \"0x81906929b10416a65A305d498267fE20adfC4746/contracts/Marketplace.sol\":10597:10598  0 */\n      0x00\n        /* \"0x81906929b10416a65A305d498267fE20adfC4746/contracts/Marketplace.sol\":10588:10594  amount */\n      dup2\n        /* \"0x81906929b10416a65A305d498267fE20adfC4746/contracts/Marketplace.sol\":10588:10598  amount > 0 */\n      gt\n        /* \"0x81906929b10416a65A305d498267fE20adfC4746/contracts/Marketplace.sol\":10580:10622  require(amount > 0, \"No refundable token\") */\n      tag_320\n      jumpi\n      mload(0x40)\n      0x08c379a000000000000000000000000000000000000000000000000000000000\n      dup2\n      mstore\n      0x04\n      add\n      tag_321\n      swap1\n      tag_322\n      jump\t// in\n    tag_321:\n      mload(0x40)\n      dup1\n      swap2\n      sub\n      swap1\n      revert\n    tag_320:\n        /* \"0x81906929b10416a65A305d498267fE20adfC4746/contracts/Marketplace.sol\":10689:10695  amount */\n      dup1\n        /* \"0x81906929b10416a65A305d498267fE20adfC4746/contracts/Marketplace.sol\":10647:10659  paymentToken */\n      dup3\n        /* \"0x81906929b10416a65A305d498267fE20adfC4746/contracts/Marketplace.sol\":10640:10670  IERC20(paymentToken).balanceOf */\n      0xffffffffffffffffffffffffffffffffffffffff\n      and\n      0x70a08231\n        /* \"0x81906929b10416a65A305d498267fE20adfC4746/contracts/Marketplace.sol\":10679:10683  this */\n      address\n        /* \"0x81906929b10416a65A305d498267fE20adfC4746/contracts/Marketplace.sol\":10640:10685  IERC20(paymentToken).balanceOf(address(this)) */\n      mload(0x40)\n      dup3\n      0xffffffff\n      and\n      0xe0\n      shl\n      dup2\n      mstore\n      0x04\n      add\n      tag_323\n      swap2\n      swap1\n      tag_121\n      jump\t// in\n    tag_323:\n      0x20\n      mload(0x40)\n      dup1\n      dup4\n      sub\n      dup2\n      dup7\n      gas\n      staticcall\n      iszero\n      dup1\n      iszero\n      tag_325\n      jumpi\n      returndatasize\n      0x00\n      dup1\n      returndatacopy\n      revert(0x00, returndatasize)\n    tag_325:\n      pop\n      pop\n      pop\n      pop\n      mload(0x40)\n      returndatasize\n      not(0x1f)\n      0x1f\n      dup3\n      add\n      and\n      dup3\n      add\n      dup1\n      0x40\n      mstore\n      pop\n      dup2\n      add\n      swap1\n      tag_326\n      swap2\n      swap1\n      tag_327\n      jump\t// in\n    tag_326:\n        /* \"0x81906929b10416a65A305d498267fE20adfC4746/contracts/Marketplace.sol\":10640:10695  IERC20(paymentToken).balanceOf(address(this)) >= amount */\n      lt\n      iszero\n        /* \"0x81906929b10416a65A305d498267fE20adfC4746/contracts/Marketplace.sol\":10632:10720  require(IERC20(paymentToken).balanceOf(address(this)) >= amount, \"Insufficient balance\") */\n      tag_328\n      jumpi\n      mload(0x40)\n      0x08c379a000000000000000000000000000000000000000000000000000000000\n      dup2\n      mstore\n      0x04\n      add\n      tag_329\n      swap1\n      tag_330\n      jump\t// in\n    tag_329:\n      mload(0x40)\n      dup1\n      swap2\n      sub\n      swap1\n      revert\n    tag_328:\n        /* \"0x81906929b10416a65A305d498267fE20adfC4746/contracts/Marketplace.sol\":10782:10783  0 */\n      0x00\n        /* \"0x81906929b10416a65A305d498267fE20adfC4746/contracts/Marketplace.sol\":10731:10753  tokenRefundsForBidders */\n      0x09\n        /* \"0x81906929b10416a65A305d498267fE20adfC4746/contracts/Marketplace.sol\":10731:10765  tokenRefundsForBidders[msg.sender] */\n      0x00\n        /* \"0x81906929b10416a65A305d498267fE20adfC4746/contracts/Marketplace.sol\":10754:10764  msg.sender */\n      caller\n        /* \"0x81906929b10416a65A305d498267fE20adfC4746/contracts/Marketplace.sol\":10731:10765  tokenRefundsForBidders[msg.sender] */\n      0xffffffffffffffffffffffffffffffffffffffff\n      and\n      0xffffffffffffffffffffffffffffffffffffffff\n      and\n      dup2\n      mstore\n      0x20\n      add\n      swap1\n      dup2\n      mstore\n      0x20\n      add\n      0x00\n      keccak256\n        /* \"0x81906929b10416a65A305d498267fE20adfC4746/contracts/Marketplace.sol\":10731:10779  tokenRefundsForBidders[msg.sender][paymentToken] */\n      0x00\n        /* \"0x81906929b10416a65A305d498267fE20adfC4746/contracts/Marketplace.sol\":10766:10778  paymentToken */\n      dup5\n        /* \"0x81906929b10416a65A305d498267fE20adfC4746/contracts/Marketplace.sol\":10731:10779  tokenRefundsForBidders[msg.sender][paymentToken] */\n      0xffffffffffffffffffffffffffffffffffffffff\n      and\n      0xffffffffffffffffffffffffffffffffffffffff\n      and\n      dup2\n      mstore\n      0x20\n      add\n      swap1\n      dup2\n      mstore\n      0x20\n      add\n      0x00\n      keccak256\n        /* \"0x81906929b10416a65A305d498267fE20adfC4746/contracts/Marketplace.sol\":10731:10783  tokenRefundsForBidders[msg.sender][paymentToken] = 0 */\n      dup2\n      swap1\n      sstore\n      pop\n        /* \"0x81906929b10416a65A305d498267fE20adfC4746/contracts/Marketplace.sol\":10793:10846  IERC20(paymentToken).safeTransfer(msg.sender, amount) */\n      tag_331\n        /* \"0x81906929b10416a65A305d498267fE20adfC4746/contracts/Marketplace.sol\":10827:10837  msg.sender */\n      caller\n        /* \"0x81906929b10416a65A305d498267fE20adfC4746/contracts/Marketplace.sol\":10839:10845  amount */\n      dup3\n        /* \"0x81906929b10416a65A305d498267fE20adfC4746/contracts/Marketplace.sol\":10800:10812  paymentToken */\n      dup5\n        /* \"0x81906929b10416a65A305d498267fE20adfC4746/contracts/Marketplace.sol\":10793:10826  IERC20(paymentToken).safeTransfer */\n      0xffffffffffffffffffffffffffffffffffffffff\n      and\n      tag_247\n      swap1\n        /* \"0x81906929b10416a65A305d498267fE20adfC4746/contracts/Marketplace.sol\":10793:10846  IERC20(paymentToken).safeTransfer(msg.sender, amount) */\n      swap3\n      swap2\n      swap1\n      0xffffffff\n      and\n      jump\t// in\n    tag_331:\n        /* \"0x81906929b10416a65A305d498267fE20adfC4746/contracts/Marketplace.sol\":10891:10901  msg.sender */\n      caller\n        /* \"0x81906929b10416a65A305d498267fE20adfC4746/contracts/Marketplace.sol\":10861:10910  RefundWithdrawn(paymentToken, msg.sender, amount) */\n      0xffffffffffffffffffffffffffffffffffffffff\n      and\n        /* \"0x81906929b10416a65A305d498267fE20adfC4746/contracts/Marketplace.sol\":10877:10889  paymentToken */\n      dup3\n        /* \"0x81906929b10416a65A305d498267fE20adfC4746/contracts/Marketplace.sol\":10861:10910  RefundWithdrawn(paymentToken, msg.sender, amount) */\n      0xffffffffffffffffffffffffffffffffffffffff\n      and\n      0xd55b5fe81317b854ac11454adf7e5a9a0adf69184d643ef9ae6bfda6a015c5bc\n        /* \"0x81906929b10416a65A305d498267fE20adfC4746/contracts/Marketplace.sol\":10903:10909  amount */\n      dup4\n        /* \"0x81906929b10416a65A305d498267fE20adfC4746/contracts/Marketplace.sol\":10861:10910  RefundWithdrawn(paymentToken, msg.sender, amount) */\n      mload(0x40)\n      tag_332\n      swap2\n      swap1\n      tag_52\n      jump\t// in\n    tag_332:\n      mload(0x40)\n      dup1\n      swap2\n      sub\n      swap1\n      log3\n        /* \"0x81906929b10416a65A305d498267fE20adfC4746/contracts/Marketplace.sol\":10495:10917  {... */\n      pop\n        /* \"@openzeppelin/contracts/utils/ReentrancyGuard.sol\":2542:2562  _nonReentrantAfter() */\n      tag_333\n        /* \"@openzeppelin/contracts/utils/ReentrancyGuard.sol\":2542:2560  _nonReentrantAfter */\n      tag_255\n        /* \"@openzeppelin/contracts/utils/ReentrancyGuard.sol\":2542:2562  _nonReentrantAfter() */\n      jump\t// in\n    tag_333:\n        /* \"0x81906929b10416a65A305d498267fE20adfC4746/contracts/Marketplace.sol\":10421:10917  function withdrawTokenRefunds(address paymentToken) external nonReentrant {... */\n      pop\n      jump\t// out\n        /* \"@openzeppelin/contracts/utils/Pausable.sol\":1850:1934  function paused() public view virtual returns (bool) {... */\n    tag_102:\n        /* \"@openzeppelin/contracts/utils/Pausable.sol\":1897:1901  bool */\n      0x00\n        /* \"@openzeppelin/contracts/utils/Pausable.sol\":1920:1927  _paused */\n      0x01\n      0x14\n      swap1\n      sload\n      swap1\n      0x0100\n      exp\n      swap1\n      div\n      0xff\n      and\n        /* \"@openzeppelin/contracts/utils/Pausable.sol\":1913:1927  return _paused */\n      swap1\n      pop\n        /* \"@openzeppelin/contracts/utils/Pausable.sol\":1850:1934  function paused() public view virtual returns (bool) {... */\n      swap1\n      jump\t// out\n        /* \"0x81906929b10416a65A305d498267fE20adfC4746/contracts/Marketplace.sol\":6540:7377  function createListing(... */\n    tag_109:\n        /* \"@openzeppelin/contracts/utils/Pausable.sol\":1474:1493  _requireNotPaused() */\n      tag_336\n        /* \"@openzeppelin/contracts/utils/Pausable.sol\":1474:1491  _requireNotPaused */\n      tag_215\n        /* \"@openzeppelin/contracts/utils/Pausable.sol\":1474:1493  _requireNotPaused() */\n      jump\t// in\n    tag_336:\n        /* \"0x81906929b10416a65A305d498267fE20adfC4746/contracts/Marketplace.sol\":6686:6693  tokenId */\n      dup3\n        /* \"0x81906929b10416a65A305d498267fE20adfC4746/contracts/Marketplace.sol\":3094:3104  msg.sender */\n      caller\n        /* \"0x81906929b10416a65A305d498267fE20adfC4746/contracts/Marketplace.sol\":3053:3104  IERC721(nftContract).ownerOf(tokenId) == msg.sender */\n      0xffffffffffffffffffffffffffffffffffffffff\n      and\n        /* \"0x81906929b10416a65A305d498267fE20adfC4746/contracts/Marketplace.sol\":3061:3072  nftContract */\n      0x0d\n      0x00\n      swap1\n      sload\n      swap1\n      0x0100\n      exp\n      swap1\n      div\n      0xffffffffffffffffffffffffffffffffffffffff\n      and\n        /* \"0x81906929b10416a65A305d498267fE20adfC4746/contracts/Marketplace.sol\":3053:3081  IERC721(nftContract).ownerOf */\n      0xffffffffffffffffffffffffffffffffffffffff\n      and\n      0x6352211e\n        /* \"0x81906929b10416a65A305d498267fE20adfC4746/contracts/Marketplace.sol\":3082:3089  tokenId */\n      dup4\n        /* \"0x81906929b10416a65A305d498267fE20adfC4746/contracts/Marketplace.sol\":3053:3090  IERC721(nftContract).ownerOf(tokenId) */\n      mload(0x40)\n      dup3\n      0xffffffff\n      and\n      0xe0\n      shl\n      dup2\n      mstore\n      0x04\n      add\n      tag_338\n      swap2\n      swap1\n      tag_52\n      jump\t// in\n    tag_338:\n      0x20\n      mload(0x40)\n      dup1\n      dup4\n      sub\n      dup2\n      dup7\n      gas\n      staticcall\n      iszero\n      dup1\n      iszero\n      tag_340\n      jumpi\n      returndatasize\n      0x00\n      dup1\n      returndatacopy\n      revert(0x00, returndatasize)\n    tag_340:\n      pop\n      pop\n      pop\n      pop\n      mload(0x40)\n      returndatasize\n      not(0x1f)\n      0x1f\n      dup3\n      add\n      and\n      dup3\n      add\n      dup1\n      0x40\n      mstore\n      pop\n      dup2\n      add\n      swap1\n      tag_341\n      swap2\n      swap1\n      tag_342\n      jump\t// in\n    tag_341:\n        /* \"0x81906929b10416a65A305d498267fE20adfC4746/contracts/Marketplace.sol\":3053:3104  IERC721(nftContract).ownerOf(tokenId) == msg.sender */\n      0xffffffffffffffffffffffffffffffffffffffff\n      and\n      eq\n        /* \"0x81906929b10416a65A305d498267fE20adfC4746/contracts/Marketplace.sol\":3045:3122  require(IERC721(nftContract).ownerOf(tokenId) == msg.sender, \"Not NFT owner\") */\n      tag_343\n      jumpi\n      mload(0x40)\n      0x08c379a000000000000000000000000000000000000000000000000000000000\n      dup2\n      mstore\n      0x04\n      add\n      tag_344\n      swap1\n      tag_345\n      jump\t// in\n    tag_344:\n      mload(0x40)\n      dup1\n      swap2\n      sub\n      swap1\n      revert\n    tag_343:\n        /* \"0x81906929b10416a65A305d498267fE20adfC4746/contracts/Marketplace.sol\":6713:6725  paymentToken */\n      dup3\n        /* \"0x81906929b10416a65A305d498267fE20adfC4746/contracts/Marketplace.sol\":3236:3237  0 */\n      0x00\n        /* \"0x81906929b10416a65A305d498267fE20adfC4746/contracts/Marketplace.sol\":3219:3238  token == address(0) */\n      0xffffffffffffffffffffffffffffffffffffffff\n      and\n        /* \"0x81906929b10416a65A305d498267fE20adfC4746/contracts/Marketplace.sol\":3219:3224  token */\n      dup2\n        /* \"0x81906929b10416a65A305d498267fE20adfC4746/contracts/Marketplace.sol\":3219:3238  token == address(0) */\n      0xffffffffffffffffffffffffffffffffffffffff\n      and\n      eq\n        /* \"0x81906929b10416a65A305d498267fE20adfC4746/contracts/Marketplace.sol\":3219:3256  token == address(0) || token == MLIFE */\n      dup1\n      tag_347\n      jumpi\n      pop\n        /* \"0x81906929b10416a65A305d498267fE20adfC4746/contracts/Marketplace.sol\":3251:3256  MLIFE */\n      0x0a\n      0x00\n      swap1\n      sload\n      swap1\n      0x0100\n      exp\n      swap1\n      div\n      0xffffffffffffffffffffffffffffffffffffffff\n      and\n        /* \"0x81906929b10416a65A305d498267fE20adfC4746/contracts/Marketplace.sol\":3242:3256  token == MLIFE */\n      0xffffffffffffffffffffffffffffffffffffffff\n      and\n        /* \"0x81906929b10416a65A305d498267fE20adfC4746/contracts/Marketplace.sol\":3242:3247  token */\n      dup2\n        /* \"0x81906929b10416a65A305d498267fE20adfC4746/contracts/Marketplace.sol\":3242:3256  token == MLIFE */\n      0xffffffffffffffffffffffffffffffffffffffff\n      and\n      eq\n        /* \"0x81906929b10416a65A305d498267fE20adfC4746/contracts/Marketplace.sol\":3219:3256  token == address(0) || token == MLIFE */\n    tag_347:\n        /* \"0x81906929b10416a65A305d498267fE20adfC4746/contracts/Marketplace.sol\":3219:3278  token == address(0) || token == MLIFE || token == tokenUSDT */\n      dup1\n      tag_348\n      jumpi\n      pop\n        /* \"0x81906929b10416a65A305d498267fE20adfC4746/contracts/Marketplace.sol\":3269:3278  tokenUSDT */\n      0x0b\n      0x00\n      swap1\n      sload\n      swap1\n      0x0100\n      exp\n      swap1\n      div\n      0xffffffffffffffffffffffffffffffffffffffff\n      and\n        /* \"0x81906929b10416a65A305d498267fE20adfC4746/contracts/Marketplace.sol\":3260:3278  token == tokenUSDT */\n      0xffffffffffffffffffffffffffffffffffffffff\n      and\n        /* \"0x81906929b10416a65A305d498267fE20adfC4746/contracts/Marketplace.sol\":3260:3265  token */\n      dup2\n        /* \"0x81906929b10416a65A305d498267fE20adfC4746/contracts/Marketplace.sol\":3260:3278  token == tokenUSDT */\n      0xffffffffffffffffffffffffffffffffffffffff\n      and\n      eq\n        /* \"0x81906929b10416a65A305d498267fE20adfC4746/contracts/Marketplace.sol\":3219:3278  token == address(0) || token == MLIFE || token == tokenUSDT */\n    tag_348:\n        /* \"0x81906929b10416a65A305d498267fE20adfC4746/contracts/Marketplace.sol\":3219:3300  token == address(0) || token == MLIFE || token == tokenUSDT || token == tokenUSDC */\n      dup1\n      tag_349\n      jumpi\n      pop\n        /* \"0x81906929b10416a65A305d498267fE20adfC4746/contracts/Marketplace.sol\":3291:3300  tokenUSDC */\n      0x0c\n      0x00\n      swap1\n      sload\n      swap1\n      0x0100\n      exp\n      swap1\n      div\n      0xffffffffffffffffffffffffffffffffffffffff\n      and\n        /* \"0x81906929b10416a65A305d498267fE20adfC4746/contracts/Marketplace.sol\":3282:3300  token == tokenUSDC */\n      0xffffffffffffffffffffffffffffffffffffffff\n      and\n        /* \"0x81906929b10416a65A305d498267fE20adfC4746/contracts/Marketplace.sol\":3282:3287  token */\n      dup2\n        /* \"0x81906929b10416a65A305d498267fE20adfC4746/contracts/Marketplace.sol\":3282:3300  token == tokenUSDC */\n      0xffffffffffffffffffffffffffffffffffffffff\n      and\n      eq\n        /* \"0x81906929b10416a65A305d498267fE20adfC4746/contracts/Marketplace.sol\":3219:3300  token == address(0) || token == MLIFE || token == tokenUSDT || token == tokenUSDC */\n    tag_349:\n        /* \"0x81906929b10416a65A305d498267fE20adfC4746/contracts/Marketplace.sol\":3198:3351  require(... */\n      tag_350\n      jumpi\n      mload(0x40)\n      0x08c379a000000000000000000000000000000000000000000000000000000000\n      dup2\n      mstore\n      0x04\n      add\n      tag_351\n      swap1\n      tag_352\n      jump\t// in\n    tag_351:\n      mload(0x40)\n      dup1\n      swap2\n      sub\n      swap1\n      revert\n    tag_350:\n        /* \"0x81906929b10416a65A305d498267fE20adfC4746/contracts/Marketplace.sol\":6756:6757  0 */\n      0x00\n        /* \"0x81906929b10416a65A305d498267fE20adfC4746/contracts/Marketplace.sol\":6745:6753  minPrice */\n      dup4\n        /* \"0x81906929b10416a65A305d498267fE20adfC4746/contracts/Marketplace.sol\":6745:6757  minPrice > 0 */\n      gt\n        /* \"0x81906929b10416a65A305d498267fE20adfC4746/contracts/Marketplace.sol\":6737:6786  require(minPrice > 0, \"Price should not be zero\") */\n      tag_354\n      jumpi\n      mload(0x40)\n      0x08c379a000000000000000000000000000000000000000000000000000000000\n      dup2\n      mstore\n      0x04\n      add\n      tag_355\n      swap1\n      tag_356\n      jump\t// in\n    tag_355:\n      mload(0x40)\n      dup1\n      swap2\n      sub\n      swap1\n      revert\n    tag_354:\n        /* \"0x81906929b10416a65A305d498267fE20adfC4746/contracts/Marketplace.sol\":6825:6836  nftContract */\n      0x0d\n      0x00\n      swap1\n      sload\n      swap1\n      0x0100\n      exp\n      swap1\n      div\n      0xffffffffffffffffffffffffffffffffffffffff\n      and\n        /* \"0x81906929b10416a65A305d498267fE20adfC4746/contracts/Marketplace.sol\":6817:6854  IERC721(nftContract).isApprovedForAll */\n      0xffffffffffffffffffffffffffffffffffffffff\n      and\n      0xe985e9c5\n        /* \"0x81906929b10416a65A305d498267fE20adfC4746/contracts/Marketplace.sol\":6855:6865  msg.sender */\n      caller\n        /* \"0x81906929b10416a65A305d498267fE20adfC4746/contracts/Marketplace.sol\":6875:6879  this */\n      address\n        /* \"0x81906929b10416a65A305d498267fE20adfC4746/contracts/Marketplace.sol\":6817:6881  IERC721(nftContract).isApprovedForAll(msg.sender, address(this)) */\n      mload(0x40)\n      dup4\n      0xffffffff\n      and\n      0xe0\n      shl\n      dup2\n      mstore\n      0x04\n      add\n      tag_357\n      swap3\n      swap2\n      swap1\n      tag_203\n      jump\t// in\n    tag_357:\n      0x20\n      mload(0x40)\n      dup1\n      dup4\n      sub\n      dup2\n      dup7\n      gas\n      staticcall\n      iszero\n      dup1\n      iszero\n      tag_359\n      jumpi\n      returndatasize\n      0x00\n      dup1\n      returndatacopy\n      revert(0x00, returndatasize)\n    tag_359:\n      pop\n      pop\n      pop\n      pop\n      mload(0x40)\n      returndatasize\n      not(0x1f)\n      0x1f\n      dup3\n      add\n      and\n      dup3\n      add\n      dup1\n      0x40\n      mstore\n      pop\n      dup2\n      add\n      swap1\n      tag_360\n      swap2\n      swap1\n      tag_361\n      jump\t// in\n    tag_360:\n        /* \"0x81906929b10416a65A305d498267fE20adfC4746/contracts/Marketplace.sol\":6817:6959  IERC721(nftContract).isApprovedForAll(msg.sender, address(this)) ||... */\n      dup1\n      tag_362\n      jumpi\n      pop\n        /* \"0x81906929b10416a65A305d498267fE20adfC4746/contracts/Marketplace.sol\":6954:6958  this */\n      address\n        /* \"0x81906929b10416a65A305d498267fE20adfC4746/contracts/Marketplace.sol\":6901:6959  IERC721(nftContract).getApproved(tokenId) == address(this) */\n      0xffffffffffffffffffffffffffffffffffffffff\n      and\n        /* \"0x81906929b10416a65A305d498267fE20adfC4746/contracts/Marketplace.sol\":6909:6920  nftContract */\n      0x0d\n      0x00\n      swap1\n      sload\n      swap1\n      0x0100\n      exp\n      swap1\n      div\n      0xffffffffffffffffffffffffffffffffffffffff\n      and\n        /* \"0x81906929b10416a65A305d498267fE20adfC4746/contracts/Marketplace.sol\":6901:6933  IERC721(nftContract).getApproved */\n      0xffffffffffffffffffffffffffffffffffffffff\n      and\n      0x081812fc\n        /* \"0x81906929b10416a65A305d498267fE20adfC4746/contracts/Marketplace.sol\":6934:6941  tokenId */\n      dup8\n        /* \"0x81906929b10416a65A305d498267fE20adfC4746/contracts/Marketplace.sol\":6901:6942  IERC721(nftContract).getApproved(tokenId) */\n      mload(0x40)\n      dup3\n      0xffffffff\n      and\n      0xe0\n      shl\n      dup2\n      mstore\n      0x04\n      add\n      tag_363\n      swap2\n      swap1\n      tag_52\n      jump\t// in\n    tag_363:\n      0x20\n      mload(0x40)\n      dup1\n      dup4\n      sub\n      dup2\n      dup7\n      gas\n      staticcall\n      iszero\n      dup1\n      iszero\n      tag_365\n      jumpi\n      returndatasize\n      0x00\n      dup1\n      returndatacopy\n      revert(0x00, returndatasize)\n    tag_365:\n      pop\n      pop\n      pop\n      pop\n      mload(0x40)\n      returndatasize\n      not(0x1f)\n      0x1f\n      dup3\n      add\n      and\n      dup3\n      add\n      dup1\n      0x40\n      mstore\n      pop\n      dup2\n      add\n      swap1\n      tag_366\n      swap2\n      swap1\n      tag_342\n      jump\t// in\n    tag_366:\n        /* \"0x81906929b10416a65A305d498267fE20adfC4746/contracts/Marketplace.sol\":6901:6959  IERC721(nftContract).getApproved(tokenId) == address(this) */\n      0xffffffffffffffffffffffffffffffffffffffff\n      and\n      eq\n        /* \"0x81906929b10416a65A305d498267fE20adfC4746/contracts/Marketplace.sol\":6817:6959  IERC721(nftContract).isApprovedForAll(msg.sender, address(this)) ||... */\n    tag_362:\n        /* \"0x81906929b10416a65A305d498267fE20adfC4746/contracts/Marketplace.sol\":6796:7006  require(... */\n      tag_367\n      jumpi\n      mload(0x40)\n      0x08c379a000000000000000000000000000000000000000000000000000000000\n      dup2\n      mstore\n      0x04\n      add\n      tag_368\n      swap1\n      tag_369\n      jump\t// in\n    tag_368:\n      mload(0x40)\n      dup1\n      swap2\n      sub\n      swap1\n      revert\n    tag_367:\n        /* \"0x81906929b10416a65A305d498267fE20adfC4746/contracts/Marketplace.sol\":7024:7035  nftContract */\n      0x0d\n      0x00\n      swap1\n      sload\n      swap1\n      0x0100\n      exp\n      swap1\n      div\n      0xffffffffffffffffffffffffffffffffffffffff\n      and\n        /* \"0x81906929b10416a65A305d498267fE20adfC4746/contracts/Marketplace.sol\":7016:7049  IERC721(nftContract).transferFrom */\n      0xffffffffffffffffffffffffffffffffffffffff\n      and\n      0x23b872dd\n        /* \"0x81906929b10416a65A305d498267fE20adfC4746/contracts/Marketplace.sol\":7050:7060  msg.sender */\n      caller\n        /* \"0x81906929b10416a65A305d498267fE20adfC4746/contracts/Marketplace.sol\":7070:7074  this */\n      address\n        /* \"0x81906929b10416a65A305d498267fE20adfC4746/contracts/Marketplace.sol\":7077:7084  tokenId */\n      dup9\n        /* \"0x81906929b10416a65A305d498267fE20adfC4746/contracts/Marketplace.sol\":7016:7085  IERC721(nftContract).transferFrom(msg.sender, address(this), tokenId) */\n      mload(0x40)\n      dup5\n      0xffffffff\n      and\n      0xe0\n      shl\n      dup2\n      mstore\n      0x04\n      add\n      tag_370\n      swap4\n      swap3\n      swap2\n      swap1\n      tag_249\n      jump\t// in\n    tag_370:\n      0x00\n      mload(0x40)\n      dup1\n      dup4\n      sub\n      dup2\n      0x00\n      dup8\n      dup1\n      extcodesize\n      iszero\n      dup1\n      iszero\n      tag_371\n      jumpi\n      0x00\n      dup1\n      revert\n    tag_371:\n      pop\n      gas\n      call\n      iszero\n      dup1\n      iszero\n      tag_373\n      jumpi\n      returndatasize\n      0x00\n      dup1\n      returndatacopy\n      revert(0x00, returndatasize)\n    tag_373:\n      pop\n      pop\n      pop\n      pop\n        /* \"0x81906929b10416a65A305d498267fE20adfC4746/contracts/Marketplace.sol\":7116:7295  Listing({... */\n      mload(0x40)\n      dup1\n      0xa0\n      add\n      0x40\n      mstore\n      dup1\n        /* \"0x81906929b10416a65A305d498267fE20adfC4746/contracts/Marketplace.sol\":7146:7156  msg.sender */\n      caller\n        /* \"0x81906929b10416a65A305d498267fE20adfC4746/contracts/Marketplace.sol\":7116:7295  Listing({... */\n      0xffffffffffffffffffffffffffffffffffffffff\n      and\n      dup2\n      mstore\n      0x20\n      add\n        /* \"0x81906929b10416a65A305d498267fE20adfC4746/contracts/Marketplace.sol\":7179:7186  tokenId */\n      dup7\n        /* \"0x81906929b10416a65A305d498267fE20adfC4746/contracts/Marketplace.sol\":7116:7295  Listing({... */\n      dup2\n      mstore\n      0x20\n      add\n        /* \"0x81906929b10416a65A305d498267fE20adfC4746/contracts/Marketplace.sol\":7214:7226  paymentToken */\n      dup6\n        /* \"0x81906929b10416a65A305d498267fE20adfC4746/contracts/Marketplace.sol\":7116:7295  Listing({... */\n      0xffffffffffffffffffffffffffffffffffffffff\n      and\n      dup2\n      mstore\n      0x20\n      add\n        /* \"0x81906929b10416a65A305d498267fE20adfC4746/contracts/Marketplace.sol\":7250:7258  minPrice */\n      dup5\n        /* \"0x81906929b10416a65A305d498267fE20adfC4746/contracts/Marketplace.sol\":7116:7295  Listing({... */\n      dup2\n      mstore\n      0x20\n      add\n        /* \"0x81906929b10416a65A305d498267fE20adfC4746/contracts/Marketplace.sol\":7280:7284  true */\n      0x01\n        /* \"0x81906929b10416a65A305d498267fE20adfC4746/contracts/Marketplace.sol\":7116:7295  Listing({... */\n      iszero\n      iszero\n      dup2\n      mstore\n      pop\n        /* \"0x81906929b10416a65A305d498267fE20adfC4746/contracts/Marketplace.sol\":7096:7104  listings */\n      0x06\n        /* \"0x81906929b10416a65A305d498267fE20adfC4746/contracts/Marketplace.sol\":7096:7113  listings[tokenId] */\n      0x00\n        /* \"0x81906929b10416a65A305d498267fE20adfC4746/contracts/Marketplace.sol\":7105:7112  tokenId */\n      dup8\n        /* \"0x81906929b10416a65A305d498267fE20adfC4746/contracts/Marketplace.sol\":7096:7113  listings[tokenId] */\n      dup2\n      mstore\n      0x20\n      add\n      swap1\n      dup2\n      mstore\n      0x20\n      add\n      0x00\n      keccak256\n        /* \"0x81906929b10416a65A305d498267fE20adfC4746/contracts/Marketplace.sol\":7096:7295  listings[tokenId] = Listing({... */\n      0x00\n      dup3\n      add\n      mload\n      dup2\n      0x00\n      add\n      exp(0x0100, 0x00)\n      dup2\n      sload\n      dup2\n      0xffffffffffffffffffffffffffffffffffffffff\n      mul\n      not\n      and\n      swap1\n      dup4\n      0xffffffffffffffffffffffffffffffffffffffff\n      and\n      mul\n      or\n      swap1\n      sstore\n      pop\n      0x20\n      dup3\n      add\n      mload\n      dup2\n      0x01\n      add\n      sstore\n      0x40\n      dup3\n      add\n      mload\n      dup2\n      0x02\n      add\n      exp(0x0100, 0x00)\n      dup2\n      sload\n      dup2\n      0xffffffffffffffffffffffffffffffffffffffff\n      mul\n      not\n      and\n      swap1\n      dup4\n      0xffffffffffffffffffffffffffffffffffffffff\n      and\n      mul\n      or\n      swap1\n      sstore\n      pop\n      0x60\n      dup3\n      add\n      mload\n      dup2\n      0x03\n      add\n      sstore\n      0x80\n      dup3\n      add\n      mload\n      dup2\n      0x04\n      add\n      exp(0x0100, 0x00)\n      dup2\n      sload\n      dup2\n      0xff\n      mul\n      not\n      and\n      swap1\n      dup4\n      iszero\n      iszero\n      mul\n      or\n      swap1\n      sstore\n      pop\n      swap1\n      pop\n      pop\n        /* \"0x81906929b10416a65A305d498267fE20adfC4746/contracts/Marketplace.sol\":7338:7345  tokenId */\n      dup5\n        /* \"0x81906929b10416a65A305d498267fE20adfC4746/contracts/Marketplace.sol\":7326:7336  msg.sender */\n      caller\n        /* \"0x81906929b10416a65A305d498267fE20adfC4746/contracts/Marketplace.sol\":7311:7370  ListingCreated(msg.sender, tokenId, paymentToken, minPrice) */\n      0xffffffffffffffffffffffffffffffffffffffff\n      and\n      0xd061156af97cd0d4f446110c8e476140c682158f5621e4bd532b4c5b2e84d125\n        /* \"0x81906929b10416a65A305d498267fE20adfC4746/contracts/Marketplace.sol\":7347:7359  paymentToken */\n      dup7\n        /* \"0x81906929b10416a65A305d498267fE20adfC4746/contracts/Marketplace.sol\":7361:7369  minPrice */\n      dup7\n        /* \"0x81906929b10416a65A305d498267fE20adfC4746/contracts/Marketplace.sol\":7311:7370  ListingCreated(msg.sender, tokenId, paymentToken, minPrice) */\n      mload(0x40)\n      tag_374\n      swap3\n      swap2\n      swap1\n      tag_193\n      jump\t// in\n    tag_374:\n      mload(0x40)\n      dup1\n      swap2\n      sub\n      swap1\n      log3\n        /* \"0x81906929b10416a65A305d498267fE20adfC4746/contracts/Marketplace.sol\":3132:3133  _ */\n      pop\n        /* \"@openzeppelin/contracts/utils/Pausable.sol\":1503:1504  _ */\n      pop\n        /* \"0x81906929b10416a65A305d498267fE20adfC4746/contracts/Marketplace.sol\":6540:7377  function createListing(... */\n      pop\n      pop\n      pop\n      jump\t// out\n        /* \"0x81906929b10416a65A305d498267fE20adfC4746/contracts/Marketplace.sol\":1103:1138  uint256 public marketplaceFee = 200 */\n    tag_112:\n      sload(0x02)\n      dup2\n      jump\t// out\n        /* \"@openzeppelin/contracts/access/Ownable.sol\":2293:2394  function renounceOwnership() public virtual onlyOwner {... */\n    tag_116:\n        /* \"@openzeppelin/contracts/access/Ownable.sol\":1531:1544  _checkOwner() */\n      tag_376\n        /* \"@openzeppelin/contracts/access/Ownable.sol\":1531:1542  _checkOwner */\n      tag_197\n        /* \"@openzeppelin/contracts/access/Ownable.sol\":1531:1544  _checkOwner() */\n      jump\t// in\n    tag_376:\n        /* \"@openzeppelin/contracts/access/Ownable.sol\":2357:2387  _transferOwnership(address(0)) */\n      tag_378\n        /* \"@openzeppelin/contracts/access/Ownable.sol\":2384:2385  0 */\n      0x00\n        /* \"@openzeppelin/contracts/access/Ownable.sol\":2357:2375  _transferOwnership */\n      tag_379\n        /* \"@openzeppelin/contracts/access/Ownable.sol\":2357:2387  _transferOwnership(address(0)) */\n      jump\t// in\n    tag_378:\n        /* \"@openzeppelin/contracts/access/Ownable.sol\":2293:2394  function renounceOwnership() public virtual onlyOwner {... */\n      jump\t// out\n        /* \"0x81906929b10416a65A305d498267fE20adfC4746/contracts/Marketplace.sol\":1613:1633  address public MLIFE */\n    tag_119:\n      0x0a\n      0x00\n      swap1\n      sload\n      swap1\n      0x0100\n      exp\n      swap1\n      div\n      0xffffffffffffffffffffffffffffffffffffffff\n      and\n      dup2\n      jump\t// out\n        /* \"0x81906929b10416a65A305d498267fE20adfC4746/contracts/Marketplace.sol\":4139:4223  function pause() external onlyOwner {... */\n    tag_124:\n        /* \"@openzeppelin/contracts/access/Ownable.sol\":1531:1544  _checkOwner() */\n      tag_381\n        /* \"@openzeppelin/contracts/access/Ownable.sol\":1531:1542  _checkOwner */\n      tag_197\n        /* \"@openzeppelin/contracts/access/Ownable.sol\":1531:1544  _checkOwner() */\n      jump\t// in\n    tag_381:\n        /* \"0x81906929b10416a65A305d498267fE20adfC4746/contracts/Marketplace.sol\":4185:4193  _pause() */\n      tag_383\n        /* \"0x81906929b10416a65A305d498267fE20adfC4746/contracts/Marketplace.sol\":4185:4191  _pause */\n      tag_384\n        /* \"0x81906929b10416a65A305d498267fE20adfC4746/contracts/Marketplace.sol\":4185:4193  _pause() */\n      jump\t// in\n    tag_383:\n        /* \"0x81906929b10416a65A305d498267fE20adfC4746/contracts/Marketplace.sol\":4208:4216  Paused() */\n      0x9e87fac88ff661f02d44f95383c817fece4bce600a3dab7a54406878b965e752\n      mload(0x40)\n      mload(0x40)\n      dup1\n      swap2\n      sub\n      swap1\n      log1\n        /* \"0x81906929b10416a65A305d498267fE20adfC4746/contracts/Marketplace.sol\":4139:4223  function pause() external onlyOwner {... */\n      jump\t// out\n        /* \"0x81906929b10416a65A305d498267fE20adfC4746/contracts/Marketplace.sol\":6065:6455  function withdrawAdminTokenEarnings(address tokenAddress) external onlyOwner nonReentrant {... */\n    tag_128:\n        /* \"@openzeppelin/contracts/access/Ownable.sol\":1531:1544  _checkOwner() */\n      tag_386\n        /* \"@openzeppelin/contracts/access/Ownable.sol\":1531:1542  _checkOwner */\n      tag_197\n        /* \"@openzeppelin/contracts/access/Ownable.sol\":1531:1544  _checkOwner() */\n      jump\t// in\n    tag_386:\n        /* \"@openzeppelin/contracts/utils/ReentrancyGuard.sol\":2500:2521  _nonReentrantBefore() */\n      tag_388\n        /* \"@openzeppelin/contracts/utils/ReentrancyGuard.sol\":2500:2519  _nonReentrantBefore */\n      tag_212\n        /* \"@openzeppelin/contracts/utils/ReentrancyGuard.sol\":2500:2521  _nonReentrantBefore() */\n      jump\t// in\n    tag_388:\n        /* \"0x81906929b10416a65A305d498267fE20adfC4746/contracts/Marketplace.sol\":6165:6181  uint256 earnings */\n      0x00\n        /* \"0x81906929b10416a65A305d498267fE20adfC4746/contracts/Marketplace.sol\":6184:6203  adminsTokenEarnings */\n      0x05\n        /* \"0x81906929b10416a65A305d498267fE20adfC4746/contracts/Marketplace.sol\":6184:6217  adminsTokenEarnings[tokenAddress] */\n      0x00\n        /* \"0x81906929b10416a65A305d498267fE20adfC4746/contracts/Marketplace.sol\":6204:6216  tokenAddress */\n      dup4\n        /* \"0x81906929b10416a65A305d498267fE20adfC4746/contracts/Marketplace.sol\":6184:6217  adminsTokenEarnings[tokenAddress] */\n      0xffffffffffffffffffffffffffffffffffffffff\n      and\n      0xffffffffffffffffffffffffffffffffffffffff\n      and\n      dup2\n      mstore\n      0x20\n      add\n      swap1\n      dup2\n      mstore\n      0x20\n      add\n      0x00\n      keccak256\n      sload\n        /* \"0x81906929b10416a65A305d498267fE20adfC4746/contracts/Marketplace.sol\":6165:6217  uint256 earnings = adminsTokenEarnings[tokenAddress] */\n      swap1\n      pop\n        /* \"0x81906929b10416a65A305d498267fE20adfC4746/contracts/Marketplace.sol\":6246:6247  0 */\n      0x00\n        /* \"0x81906929b10416a65A305d498267fE20adfC4746/contracts/Marketplace.sol\":6235:6243  earnings */\n      dup2\n        /* \"0x81906929b10416a65A305d498267fE20adfC4746/contracts/Marketplace.sol\":6235:6247  earnings > 0 */\n      gt\n        /* \"0x81906929b10416a65A305d498267fE20adfC4746/contracts/Marketplace.sol\":6227:6269  require(earnings > 0, \"No token earnings\") */\n      tag_390\n      jumpi\n      mload(0x40)\n      0x08c379a000000000000000000000000000000000000000000000000000000000\n      dup2\n      mstore\n      0x04\n      add\n      tag_391\n      swap1\n      tag_392\n      jump\t// in\n    tag_391:\n      mload(0x40)\n      dup1\n      swap2\n      sub\n      swap1\n      revert\n    tag_390:\n        /* \"0x81906929b10416a65A305d498267fE20adfC4746/contracts/Marketplace.sol\":6316:6317  0 */\n      0x00\n        /* \"0x81906929b10416a65A305d498267fE20adfC4746/contracts/Marketplace.sol\":6280:6299  adminsTokenEarnings */\n      0x05\n        /* \"0x81906929b10416a65A305d498267fE20adfC4746/contracts/Marketplace.sol\":6280:6313  adminsTokenEarnings[tokenAddress] */\n      0x00\n        /* \"0x81906929b10416a65A305d498267fE20adfC4746/contracts/Marketplace.sol\":6300:6312  tokenAddress */\n      dup5\n        /* \"0x81906929b10416a65A305d498267fE20adfC4746/contracts/Marketplace.sol\":6280:6313  adminsTokenEarnings[tokenAddress] */\n      0xffffffffffffffffffffffffffffffffffffffff\n      and\n      0xffffffffffffffffffffffffffffffffffffffff\n      and\n      dup2\n      mstore\n      0x20\n      add\n      swap1\n      dup2\n      mstore\n      0x20\n      add\n      0x00\n      keccak256\n        /* \"0x81906929b10416a65A305d498267fE20adfC4746/contracts/Marketplace.sol\":6280:6317  adminsTokenEarnings[tokenAddress] = 0 */\n      dup2\n      swap1\n      sstore\n      pop\n        /* \"0x81906929b10416a65A305d498267fE20adfC4746/contracts/Marketplace.sol\":6327:6379  IERC20(tokenAddress).safeTransfer(owner(), earnings) */\n      tag_393\n        /* \"0x81906929b10416a65A305d498267fE20adfC4746/contracts/Marketplace.sol\":6361:6368  owner() */\n      tag_394\n        /* \"0x81906929b10416a65A305d498267fE20adfC4746/contracts/Marketplace.sol\":6361:6366  owner */\n      tag_131\n        /* \"0x81906929b10416a65A305d498267fE20adfC4746/contracts/Marketplace.sol\":6361:6368  owner() */\n      jump\t// in\n    tag_394:\n        /* \"0x81906929b10416a65A305d498267fE20adfC4746/contracts/Marketplace.sol\":6370:6378  earnings */\n      dup3\n        /* \"0x81906929b10416a65A305d498267fE20adfC4746/contracts/Marketplace.sol\":6334:6346  tokenAddress */\n      dup5\n        /* \"0x81906929b10416a65A305d498267fE20adfC4746/contracts/Marketplace.sol\":6327:6360  IERC20(tokenAddress).safeTransfer */\n      0xffffffffffffffffffffffffffffffffffffffff\n      and\n      tag_247\n      swap1\n        /* \"0x81906929b10416a65A305d498267fE20adfC4746/contracts/Marketplace.sol\":6327:6379  IERC20(tokenAddress).safeTransfer(owner(), earnings) */\n      swap3\n      swap2\n      swap1\n      0xffffffff\n      and\n      jump\t// in\n    tag_393:\n        /* \"0x81906929b10416a65A305d498267fE20adfC4746/contracts/Marketplace.sol\":6425:6437  tokenAddress */\n      dup2\n        /* \"0x81906929b10416a65A305d498267fE20adfC4746/contracts/Marketplace.sol\":6394:6448  AdminTokenWithdrawals(owner(), tokenAddress, earnings) */\n      0xffffffffffffffffffffffffffffffffffffffff\n      and\n        /* \"0x81906929b10416a65A305d498267fE20adfC4746/contracts/Marketplace.sol\":6416:6423  owner() */\n      tag_395\n        /* \"0x81906929b10416a65A305d498267fE20adfC4746/contracts/Marketplace.sol\":6416:6421  owner */\n      tag_131\n        /* \"0x81906929b10416a65A305d498267fE20adfC4746/contracts/Marketplace.sol\":6416:6423  owner() */\n      jump\t// in\n    tag_395:\n        /* \"0x81906929b10416a65A305d498267fE20adfC4746/contracts/Marketplace.sol\":6394:6448  AdminTokenWithdrawals(owner(), tokenAddress, earnings) */\n      0xffffffffffffffffffffffffffffffffffffffff\n      and\n      0xea48aee669694ac6f98626c299ecc46ccedfc3fcd05314c975bdee3de9b544b6\n        /* \"0x81906929b10416a65A305d498267fE20adfC4746/contracts/Marketplace.sol\":6439:6447  earnings */\n      dup4\n        /* \"0x81906929b10416a65A305d498267fE20adfC4746/contracts/Marketplace.sol\":6394:6448  AdminTokenWithdrawals(owner(), tokenAddress, earnings) */\n      mload(0x40)\n      tag_396\n      swap2\n      swap1\n      tag_52\n      jump\t// in\n    tag_396:\n      mload(0x40)\n      dup1\n      swap2\n      sub\n      swap1\n      log3\n        /* \"0x81906929b10416a65A305d498267fE20adfC4746/contracts/Marketplace.sol\":6155:6455  {... */\n      pop\n        /* \"@openzeppelin/contracts/utils/ReentrancyGuard.sol\":2542:2562  _nonReentrantAfter() */\n      tag_397\n        /* \"@openzeppelin/contracts/utils/ReentrancyGuard.sol\":2542:2560  _nonReentrantAfter */\n      tag_255\n        /* \"@openzeppelin/contracts/utils/ReentrancyGuard.sol\":2542:2562  _nonReentrantAfter() */\n      jump\t// in\n    tag_397:\n        /* \"0x81906929b10416a65A305d498267fE20adfC4746/contracts/Marketplace.sol\":6065:6455  function withdrawAdminTokenEarnings(address tokenAddress) external onlyOwner nonReentrant {... */\n      pop\n      jump\t// out\n        /* \"@openzeppelin/contracts/access/Ownable.sol\":1638:1723  function owner() public view virtual returns (address) {... */\n    tag_131:\n        /* \"@openzeppelin/contracts/access/Ownable.sol\":1684:1691  address */\n      0x00\n        /* \"@openzeppelin/contracts/access/Ownable.sol\":1710:1716  _owner */\n      0x01\n      0x00\n      swap1\n      sload\n      swap1\n      0x0100\n      exp\n      swap1\n      div\n      0xffffffffffffffffffffffffffffffffffffffff\n      and\n        /* \"@openzeppelin/contracts/access/Ownable.sol\":1703:1716  return _owner */\n      swap1\n      pop\n        /* \"@openzeppelin/contracts/access/Ownable.sol\":1638:1723  function owner() public view virtual returns (address) {... */\n      swap1\n      jump\t// out\n        /* \"0x81906929b10416a65A305d498267fE20adfC4746/contracts/Marketplace.sol\":4545:4771  function updateNftContract(address newAddress) external onlyOwner {... */\n    tag_136:\n        /* \"@openzeppelin/contracts/access/Ownable.sol\":1531:1544  _checkOwner() */\n      tag_400\n        /* \"@openzeppelin/contracts/access/Ownable.sol\":1531:1542  _checkOwner */\n      tag_197\n        /* \"@openzeppelin/contracts/access/Ownable.sol\":1531:1544  _checkOwner() */\n      jump\t// in\n    tag_400:\n        /* \"0x81906929b10416a65A305d498267fE20adfC4746/contracts/Marketplace.sol\":4651:4652  0 */\n      0x00\n        /* \"0x81906929b10416a65A305d498267fE20adfC4746/contracts/Marketplace.sol\":4629:4653  newAddress != address(0) */\n      0xffffffffffffffffffffffffffffffffffffffff\n      and\n        /* \"0x81906929b10416a65A305d498267fE20adfC4746/contracts/Marketplace.sol\":4629:4639  newAddress */\n      dup2\n        /* \"0x81906929b10416a65A305d498267fE20adfC4746/contracts/Marketplace.sol\":4629:4653  newAddress != address(0) */\n      0xffffffffffffffffffffffffffffffffffffffff\n      and\n      sub\n        /* \"0x81906929b10416a65A305d498267fE20adfC4746/contracts/Marketplace.sol\":4621:4673  require(newAddress != address(0), \"Invalid address\") */\n      tag_402\n      jumpi\n      mload(0x40)\n      0x08c379a000000000000000000000000000000000000000000000000000000000\n      dup2\n      mstore\n      0x04\n      add\n      tag_403\n      swap1\n      tag_201\n      jump\t// in\n    tag_403:\n      mload(0x40)\n      dup1\n      swap2\n      sub\n      swap1\n      revert\n    tag_402:\n        /* \"0x81906929b10416a65A305d498267fE20adfC4746/contracts/Marketplace.sol\":4688:4730  NftAddressUpdated(nftContract, newAddress) */\n      0x51d2761f030964e882529b208c5390589ddac658d9a1a6d3b8a1cbaed35e7d33\n        /* \"0x81906929b10416a65A305d498267fE20adfC4746/contracts/Marketplace.sol\":4706:4717  nftContract */\n      0x0d\n      0x00\n      swap1\n      sload\n      swap1\n      0x0100\n      exp\n      swap1\n      div\n      0xffffffffffffffffffffffffffffffffffffffff\n      and\n        /* \"0x81906929b10416a65A305d498267fE20adfC4746/contracts/Marketplace.sol\":4719:4729  newAddress */\n      dup3\n        /* \"0x81906929b10416a65A305d498267fE20adfC4746/contracts/Marketplace.sol\":4688:4730  NftAddressUpdated(nftContract, newAddress) */\n      mload(0x40)\n      tag_404\n      swap3\n      swap2\n      swap1\n      tag_203\n      jump\t// in\n    tag_404:\n      mload(0x40)\n      dup1\n      swap2\n      sub\n      swap1\n      log1\n        /* \"0x81906929b10416a65A305d498267fE20adfC4746/contracts/Marketplace.sol\":4754:4764  newAddress */\n      dup1\n        /* \"0x81906929b10416a65A305d498267fE20adfC4746/contracts/Marketplace.sol\":4740:4751  nftContract */\n      0x0d\n      0x00\n        /* \"0x81906929b10416a65A305d498267fE20adfC4746/contracts/Marketplace.sol\":4740:4764  nftContract = newAddress */\n      0x0100\n      exp\n      dup2\n      sload\n      dup2\n      0xffffffffffffffffffffffffffffffffffffffff\n      mul\n      not\n      and\n      swap1\n      dup4\n      0xffffffffffffffffffffffffffffffffffffffff\n      and\n      mul\n      or\n      swap1\n      sstore\n      pop\n        /* \"0x81906929b10416a65A305d498267fE20adfC4746/contracts/Marketplace.sol\":4545:4771  function updateNftContract(address newAddress) external onlyOwner {... */\n      pop\n      jump\t// out\n        /* \"0x81906929b10416a65A305d498267fE20adfC4746/contracts/Marketplace.sol\":1639:1663  address public tokenUSDT */\n    tag_139:\n      0x0b\n      0x00\n      swap1\n      sload\n      swap1\n      0x0100\n      exp\n      swap1\n      div\n      0xffffffffffffffffffffffffffffffffffffffff\n      and\n      dup2\n      jump\t// out\n        /* \"0x81906929b10416a65A305d498267fE20adfC4746/contracts/Marketplace.sol\":1311:1365  mapping(address => uint256) public adminsTokenEarnings */\n    tag_144:\n      mstore(0x20, 0x05)\n      dup1\n      0x00\n      mstore\n      keccak256(0x00, 0x40)\n      0x00\n      swap2\n      pop\n      swap1\n      pop\n      sload\n      dup2\n      jump\t// out\n        /* \"0x81906929b10416a65A305d498267fE20adfC4746/contracts/Marketplace.sol\":7781:8843  function placeBid(... */\n    tag_149:\n        /* \"@openzeppelin/contracts/utils/Pausable.sol\":1474:1493  _requireNotPaused() */\n      tag_406\n        /* \"@openzeppelin/contracts/utils/Pausable.sol\":1474:1491  _requireNotPaused */\n      tag_215\n        /* \"@openzeppelin/contracts/utils/Pausable.sol\":1474:1493  _requireNotPaused() */\n      jump\t// in\n    tag_406:\n        /* \"@openzeppelin/contracts/utils/ReentrancyGuard.sol\":2500:2521  _nonReentrantBefore() */\n      tag_408\n        /* \"@openzeppelin/contracts/utils/ReentrancyGuard.sol\":2500:2519  _nonReentrantBefore */\n      tag_212\n        /* \"@openzeppelin/contracts/utils/ReentrancyGuard.sol\":2500:2521  _nonReentrantBefore() */\n      jump\t// in\n    tag_408:\n        /* \"0x81906929b10416a65A305d498267fE20adfC4746/contracts/Marketplace.sol\":7943:7950  tokenId */\n      dup3\n        /* \"0x81906929b10416a65A305d498267fE20adfC4746/contracts/Marketplace.sol\":3435:3443  listings */\n      0x06\n        /* \"0x81906929b10416a65A305d498267fE20adfC4746/contracts/Marketplace.sol\":3435:3452  listings[tokenId] */\n      0x00\n        /* \"0x81906929b10416a65A305d498267fE20adfC4746/contracts/Marketplace.sol\":3444:3451  tokenId */\n      dup3\n        /* \"0x81906929b10416a65A305d498267fE20adfC4746/contracts/Marketplace.sol\":3435:3452  listings[tokenId] */\n      dup2\n      mstore\n      0x20\n      add\n      swap1\n      dup2\n      mstore\n      0x20\n      add\n      0x00\n      keccak256\n        /* \"0x81906929b10416a65A305d498267fE20adfC4746/contracts/Marketplace.sol\":3435:3459  listings[tokenId].active */\n      0x04\n      add\n      0x00\n      swap1\n      sload\n      swap1\n      0x0100\n      exp\n      swap1\n      div\n      0xff\n      and\n        /* \"0x81906929b10416a65A305d498267fE20adfC4746/contracts/Marketplace.sol\":3427:3482  require(listings[tokenId].active, \"Listing not active\") */\n      tag_410\n      jumpi\n      mload(0x40)\n      0x08c379a000000000000000000000000000000000000000000000000000000000\n      dup2\n      mstore\n      0x04\n      add\n      tag_411\n      swap1\n      tag_219\n      jump\t// in\n    tag_411:\n      mload(0x40)\n      dup1\n      swap2\n      sub\n      swap1\n      revert\n    tag_410:\n        /* \"0x81906929b10416a65A305d498267fE20adfC4746/contracts/Marketplace.sol\":7970:7981  paymentType */\n      dup2\n        /* \"0x81906929b10416a65A305d498267fE20adfC4746/contracts/Marketplace.sol\":3236:3237  0 */\n      0x00\n        /* \"0x81906929b10416a65A305d498267fE20adfC4746/contracts/Marketplace.sol\":3219:3238  token == address(0) */\n      0xffffffffffffffffffffffffffffffffffffffff\n      and\n        /* \"0x81906929b10416a65A305d498267fE20adfC4746/contracts/Marketplace.sol\":3219:3224  token */\n      dup2\n        /* \"0x81906929b10416a65A305d498267fE20adfC4746/contracts/Marketplace.sol\":3219:3238  token == address(0) */\n      0xffffffffffffffffffffffffffffffffffffffff\n      and\n      eq\n        /* \"0x81906929b10416a65A305d498267fE20adfC4746/contracts/Marketplace.sol\":3219:3256  token == address(0) || token == MLIFE */\n      dup1\n      tag_413\n      jumpi\n      pop\n        /* \"0x81906929b10416a65A305d498267fE20adfC4746/contracts/Marketplace.sol\":3251:3256  MLIFE */\n      0x0a\n      0x00\n      swap1\n      sload\n      swap1\n      0x0100\n      exp\n      swap1\n      div\n      0xffffffffffffffffffffffffffffffffffffffff\n      and\n        /* \"0x81906929b10416a65A305d498267fE20adfC4746/contracts/Marketplace.sol\":3242:3256  token == MLIFE */\n      0xffffffffffffffffffffffffffffffffffffffff\n      and\n        /* \"0x81906929b10416a65A305d498267fE20adfC4746/contracts/Marketplace.sol\":3242:3247  token */\n      dup2\n        /* \"0x81906929b10416a65A305d498267fE20adfC4746/contracts/Marketplace.sol\":3242:3256  token == MLIFE */\n      0xffffffffffffffffffffffffffffffffffffffff\n      and\n      eq\n        /* \"0x81906929b10416a65A305d498267fE20adfC4746/contracts/Marketplace.sol\":3219:3256  token == address(0) || token == MLIFE */\n    tag_413:\n        /* \"0x81906929b10416a65A305d498267fE20adfC4746/contracts/Marketplace.sol\":3219:3278  token == address(0) || token == MLIFE || token == tokenUSDT */\n      dup1\n      tag_414\n      jumpi\n      pop\n        /* \"0x81906929b10416a65A305d498267fE20adfC4746/contracts/Marketplace.sol\":3269:3278  tokenUSDT */\n      0x0b\n      0x00\n      swap1\n      sload\n      swap1\n      0x0100\n      exp\n      swap1\n      div\n      0xffffffffffffffffffffffffffffffffffffffff\n      and\n        /* \"0x81906929b10416a65A305d498267fE20adfC4746/contracts/Marketplace.sol\":3260:3278  token == tokenUSDT */\n      0xffffffffffffffffffffffffffffffffffffffff\n      and\n        /* \"0x81906929b10416a65A305d498267fE20adfC4746/contracts/Marketplace.sol\":3260:3265  token */\n      dup2\n        /* \"0x81906929b10416a65A305d498267fE20adfC4746/contracts/Marketplace.sol\":3260:3278  token == tokenUSDT */\n      0xffffffffffffffffffffffffffffffffffffffff\n      and\n      eq\n        /* \"0x81906929b10416a65A305d498267fE20adfC4746/contracts/Marketplace.sol\":3219:3278  token == address(0) || token == MLIFE || token == tokenUSDT */\n    tag_414:\n        /* \"0x81906929b10416a65A305d498267fE20adfC4746/contracts/Marketplace.sol\":3219:3300  token == address(0) || token == MLIFE || token == tokenUSDT || token == tokenUSDC */\n      dup1\n      tag_415\n      jumpi\n      pop\n        /* \"0x81906929b10416a65A305d498267fE20adfC4746/contracts/Marketplace.sol\":3291:3300  tokenUSDC */\n      0x0c\n      0x00\n      swap1\n      sload\n      swap1\n      0x0100\n      exp\n      swap1\n      div\n      0xffffffffffffffffffffffffffffffffffffffff\n      and\n        /* \"0x81906929b10416a65A305d498267fE20adfC4746/contracts/Marketplace.sol\":3282:3300  token == tokenUSDC */\n      0xffffffffffffffffffffffffffffffffffffffff\n      and\n        /* \"0x81906929b10416a65A305d498267fE20adfC4746/contracts/Marketplace.sol\":3282:3287  token */\n      dup2\n        /* \"0x81906929b10416a65A305d498267fE20adfC4746/contracts/Marketplace.sol\":3282:3300  token == tokenUSDC */\n      0xffffffffffffffffffffffffffffffffffffffff\n      and\n      eq\n        /* \"0x81906929b10416a65A305d498267fE20adfC4746/contracts/Marketplace.sol\":3219:3300  token == address(0) || token == MLIFE || token == tokenUSDT || token == tokenUSDC */\n    tag_415:\n        /* \"0x81906929b10416a65A305d498267fE20adfC4746/contracts/Marketplace.sol\":3198:3351  require(... */\n      tag_416\n      jumpi\n      mload(0x40)\n      0x08c379a000000000000000000000000000000000000000000000000000000000\n      dup2\n      mstore\n      0x04\n      add\n      tag_417\n      swap1\n      tag_352\n      jump\t// in\n    tag_417:\n      mload(0x40)\n      dup1\n      swap2\n      sub\n      swap1\n      revert\n    tag_416:\n        /* \"0x81906929b10416a65A305d498267fE20adfC4746/contracts/Marketplace.sol\":7993:8015  Listing memory listing */\n      0x00\n        /* \"0x81906929b10416a65A305d498267fE20adfC4746/contracts/Marketplace.sol\":8018:8026  listings */\n      0x06\n        /* \"0x81906929b10416a65A305d498267fE20adfC4746/contracts/Marketplace.sol\":8018:8035  listings[tokenId] */\n      0x00\n        /* \"0x81906929b10416a65A305d498267fE20adfC4746/contracts/Marketplace.sol\":8027:8034  tokenId */\n      dup8\n        /* \"0x81906929b10416a65A305d498267fE20adfC4746/contracts/Marketplace.sol\":8018:8035  listings[tokenId] */\n      dup2\n      mstore\n      0x20\n      add\n      swap1\n      dup2\n      mstore\n      0x20\n      add\n      0x00\n      keccak256\n        /* \"0x81906929b10416a65A305d498267fE20adfC4746/contracts/Marketplace.sol\":7993:8035  Listing memory listing = listings[tokenId] */\n      mload(0x40)\n      dup1\n      0xa0\n      add\n      0x40\n      mstore\n      swap1\n      dup2\n      0x00\n      dup3\n      add\n      0x00\n      swap1\n      sload\n      swap1\n      0x0100\n      exp\n      swap1\n      div\n      0xffffffffffffffffffffffffffffffffffffffff\n      and\n      0xffffffffffffffffffffffffffffffffffffffff\n      and\n      0xffffffffffffffffffffffffffffffffffffffff\n      and\n      dup2\n      mstore\n      0x20\n      add\n      0x01\n      dup3\n      add\n      sload\n      dup2\n      mstore\n      0x20\n      add\n      0x02\n      dup3\n      add\n      0x00\n      swap1\n      sload\n      swap1\n      0x0100\n      exp\n      swap1\n      div\n      0xffffffffffffffffffffffffffffffffffffffff\n      and\n      0xffffffffffffffffffffffffffffffffffffffff\n      and\n      0xffffffffffffffffffffffffffffffffffffffff\n      and\n      dup2\n      mstore\n      0x20\n      add\n      0x03\n      dup3\n      add\n      sload\n      dup2\n      mstore\n      0x20\n      add\n      0x04\n      dup3\n      add\n      0x00\n      swap1\n      sload\n      swap1\n      0x0100\n      exp\n      swap1\n      div\n      0xff\n      and\n      iszero\n      iszero\n      iszero\n      iszero\n      dup2\n      mstore\n      pop\n      pop\n      swap1\n      pop\n        /* \"0x81906929b10416a65A305d498267fE20adfC4746/contracts/Marketplace.sol\":8063:8070  listing */\n      dup1\n        /* \"0x81906929b10416a65A305d498267fE20adfC4746/contracts/Marketplace.sol\":8063:8079  listing.minPrice */\n      0x60\n      add\n      mload\n        /* \"0x81906929b10416a65A305d498267fE20adfC4746/contracts/Marketplace.sol\":8053:8059  amount */\n      dup6\n        /* \"0x81906929b10416a65A305d498267fE20adfC4746/contracts/Marketplace.sol\":8053:8079  amount >= listing.minPrice */\n      lt\n      iszero\n        /* \"0x81906929b10416a65A305d498267fE20adfC4746/contracts/Marketplace.sol\":8045:8115  require(amount >= listing.minPrice, \"Your bid is below minimum price\") */\n      tag_419\n      jumpi\n      mload(0x40)\n      0x08c379a000000000000000000000000000000000000000000000000000000000\n      dup2\n      mstore\n      0x04\n      add\n      tag_420\n      swap1\n      tag_421\n      jump\t// in\n    tag_420:\n      mload(0x40)\n      dup1\n      swap2\n      sub\n      swap1\n      revert\n    tag_419:\n        /* \"0x81906929b10416a65A305d498267fE20adfC4746/contracts/Marketplace.sol\":8170:8171  0 */\n      0x00\n        /* \"0x81906929b10416a65A305d498267fE20adfC4746/contracts/Marketplace.sol\":8147:8172  paymentType == address(0) */\n      0xffffffffffffffffffffffffffffffffffffffff\n      and\n        /* \"0x81906929b10416a65A305d498267fE20adfC4746/contracts/Marketplace.sol\":8147:8158  paymentType */\n      dup5\n        /* \"0x81906929b10416a65A305d498267fE20adfC4746/contracts/Marketplace.sol\":8147:8172  paymentType == address(0) */\n      0xffffffffffffffffffffffffffffffffffffffff\n      and\n      eq\n        /* \"0x81906929b10416a65A305d498267fE20adfC4746/contracts/Marketplace.sol\":8147:8195  paymentType == address(0) && msg.value == amount */\n      dup1\n      iszero\n      tag_422\n      jumpi\n      pop\n        /* \"0x81906929b10416a65A305d498267fE20adfC4746/contracts/Marketplace.sol\":8189:8195  amount */\n      dup5\n        /* \"0x81906929b10416a65A305d498267fE20adfC4746/contracts/Marketplace.sol\":8176:8185  msg.value */\n      callvalue\n        /* \"0x81906929b10416a65A305d498267fE20adfC4746/contracts/Marketplace.sol\":8176:8195  msg.value == amount */\n      eq\n        /* \"0x81906929b10416a65A305d498267fE20adfC4746/contracts/Marketplace.sol\":8147:8195  paymentType == address(0) && msg.value == amount */\n    tag_422:\n        /* \"0x81906929b10416a65A305d498267fE20adfC4746/contracts/Marketplace.sol\":8146:8257  (paymentType == address(0) && msg.value == amount) ||... */\n      dup1\n      tag_423\n      jumpi\n      pop\n        /* \"0x81906929b10416a65A305d498267fE20adfC4746/contracts/Marketplace.sol\":8236:8237  0 */\n      0x00\n        /* \"0x81906929b10416a65A305d498267fE20adfC4746/contracts/Marketplace.sol\":8213:8238  paymentType != address(0) */\n      0xffffffffffffffffffffffffffffffffffffffff\n      and\n        /* \"0x81906929b10416a65A305d498267fE20adfC4746/contracts/Marketplace.sol\":8213:8224  paymentType */\n      dup5\n        /* \"0x81906929b10416a65A305d498267fE20adfC4746/contracts/Marketplace.sol\":8213:8238  paymentType != address(0) */\n      0xffffffffffffffffffffffffffffffffffffffff\n      and\n      eq\n      iszero\n        /* \"0x81906929b10416a65A305d498267fE20adfC4746/contracts/Marketplace.sol\":8213:8256  paymentType != address(0) && msg.value == 0 */\n      dup1\n      iszero\n      tag_424\n      jumpi\n      pop\n        /* \"0x81906929b10416a65A305d498267fE20adfC4746/contracts/Marketplace.sol\":8255:8256  0 */\n      0x00\n        /* \"0x81906929b10416a65A305d498267fE20adfC4746/contracts/Marketplace.sol\":8242:8251  msg.value */\n      callvalue\n        /* \"0x81906929b10416a65A305d498267fE20adfC4746/contracts/Marketplace.sol\":8242:8256  msg.value == 0 */\n      eq\n        /* \"0x81906929b10416a65A305d498267fE20adfC4746/contracts/Marketplace.sol\":8213:8256  paymentType != address(0) && msg.value == 0 */\n    tag_424:\n        /* \"0x81906929b10416a65A305d498267fE20adfC4746/contracts/Marketplace.sol\":8146:8257  (paymentType == address(0) && msg.value == amount) ||... */\n    tag_423:\n        /* \"0x81906929b10416a65A305d498267fE20adfC4746/contracts/Marketplace.sol\":8125:8300  require(... */\n      tag_425\n      jumpi\n      mload(0x40)\n      0x08c379a000000000000000000000000000000000000000000000000000000000\n      dup2\n      mstore\n      0x04\n      add\n      tag_426\n      swap1\n      tag_427\n      jump\t// in\n    tag_426:\n      mload(0x40)\n      dup1\n      swap2\n      sub\n      swap1\n      revert\n    tag_425:\n        /* \"0x81906929b10416a65A305d498267fE20adfC4746/contracts/Marketplace.sol\":8338:8339  0 */\n      0x00\n        /* \"0x81906929b10416a65A305d498267fE20adfC4746/contracts/Marketplace.sol\":8315:8340  paymentType != address(0) */\n      0xffffffffffffffffffffffffffffffffffffffff\n      and\n        /* \"0x81906929b10416a65A305d498267fE20adfC4746/contracts/Marketplace.sol\":8315:8326  paymentType */\n      dup5\n        /* \"0x81906929b10416a65A305d498267fE20adfC4746/contracts/Marketplace.sol\":8315:8340  paymentType != address(0) */\n      0xffffffffffffffffffffffffffffffffffffffff\n      and\n      eq\n        /* \"0x81906929b10416a65A305d498267fE20adfC4746/contracts/Marketplace.sol\":8311:8438  if (paymentType != address(0)) {... */\n      tag_428\n      jumpi\n        /* \"0x81906929b10416a65A305d498267fE20adfC4746/contracts/Marketplace.sol\":8356:8427  IERC20(paymentType).safeTransferFrom(msg.sender, address(this), amount) */\n      tag_429\n        /* \"0x81906929b10416a65A305d498267fE20adfC4746/contracts/Marketplace.sol\":8393:8403  msg.sender */\n      caller\n        /* \"0x81906929b10416a65A305d498267fE20adfC4746/contracts/Marketplace.sol\":8413:8417  this */\n      address\n        /* \"0x81906929b10416a65A305d498267fE20adfC4746/contracts/Marketplace.sol\":8420:8426  amount */\n      dup8\n        /* \"0x81906929b10416a65A305d498267fE20adfC4746/contracts/Marketplace.sol\":8363:8374  paymentType */\n      dup8\n        /* \"0x81906929b10416a65A305d498267fE20adfC4746/contracts/Marketplace.sol\":8356:8392  IERC20(paymentType).safeTransferFrom */\n      0xffffffffffffffffffffffffffffffffffffffff\n      and\n      tag_430\n      swap1\n        /* \"0x81906929b10416a65A305d498267fE20adfC4746/contracts/Marketplace.sol\":8356:8427  IERC20(paymentType).safeTransferFrom(msg.sender, address(this), amount) */\n      swap4\n      swap3\n      swap2\n      swap1\n      0xffffffff\n      and\n      jump\t// in\n    tag_429:\n        /* \"0x81906929b10416a65A305d498267fE20adfC4746/contracts/Marketplace.sol\":8311:8438  if (paymentType != address(0)) {... */\n    tag_428:\n        /* \"0x81906929b10416a65A305d498267fE20adfC4746/contracts/Marketplace.sol\":8448:8469  Bid memory currentBid */\n      0x00\n        /* \"0x81906929b10416a65A305d498267fE20adfC4746/contracts/Marketplace.sol\":8472:8483  currentBids */\n      0x07\n        /* \"0x81906929b10416a65A305d498267fE20adfC4746/contracts/Marketplace.sol\":8472:8492  currentBids[tokenId] */\n      0x00\n        /* \"0x81906929b10416a65A305d498267fE20adfC4746/contracts/Marketplace.sol\":8484:8491  tokenId */\n      dup9\n        /* \"0x81906929b10416a65A305d498267fE20adfC4746/contracts/Marketplace.sol\":8472:8492  currentBids[tokenId] */\n      dup2\n      mstore\n      0x20\n      add\n      swap1\n      dup2\n      mstore\n      0x20\n      add\n      0x00\n      keccak256\n        /* \"0x81906929b10416a65A305d498267fE20adfC4746/contracts/Marketplace.sol\":8448:8492  Bid memory currentBid = currentBids[tokenId] */\n      mload(0x40)\n      dup1\n      0x40\n      add\n      0x40\n      mstore\n      swap1\n      dup2\n      0x00\n      dup3\n      add\n      0x00\n      swap1\n      sload\n      swap1\n      0x0100\n      exp\n      swap1\n      div\n      0xffffffffffffffffffffffffffffffffffffffff\n      and\n      0xffffffffffffffffffffffffffffffffffffffff\n      and\n      0xffffffffffffffffffffffffffffffffffffffff\n      and\n      dup2\n      mstore\n      0x20\n      add\n      0x01\n      dup3\n      add\n      sload\n      dup2\n      mstore\n      pop\n      pop\n      swap1\n      pop\n        /* \"0x81906929b10416a65A305d498267fE20adfC4746/contracts/Marketplace.sol\":8519:8529  currentBid */\n      dup1\n        /* \"0x81906929b10416a65A305d498267fE20adfC4746/contracts/Marketplace.sol\":8519:8536  currentBid.amount */\n      0x20\n      add\n      mload\n        /* \"0x81906929b10416a65A305d498267fE20adfC4746/contracts/Marketplace.sol\":8510:8516  amount */\n      dup7\n        /* \"0x81906929b10416a65A305d498267fE20adfC4746/contracts/Marketplace.sol\":8510:8536  amount > currentBid.amount */\n      gt\n        /* \"0x81906929b10416a65A305d498267fE20adfC4746/contracts/Marketplace.sol\":8502:8576  require(amount > currentBid.amount, \"Bid must be higher than current bid\") */\n      tag_431\n      jumpi\n      mload(0x40)\n      0x08c379a000000000000000000000000000000000000000000000000000000000\n      dup2\n      mstore\n      0x04\n      add\n      tag_432\n      swap1\n      tag_433\n      jump\t// in\n    tag_432:\n      mload(0x40)\n      dup1\n      swap2\n      sub\n      swap1\n      revert\n    tag_431:\n        /* \"0x81906929b10416a65A305d498267fE20adfC4746/contracts/Marketplace.sol\":8611:8612  0 */\n      0x00\n        /* \"0x81906929b10416a65A305d498267fE20adfC4746/contracts/Marketplace.sol\":8591:8601  currentBid */\n      dup2\n        /* \"0x81906929b10416a65A305d498267fE20adfC4746/contracts/Marketplace.sol\":8591:8608  currentBid.amount */\n      0x20\n      add\n      mload\n        /* \"0x81906929b10416a65A305d498267fE20adfC4746/contracts/Marketplace.sol\":8591:8612  currentBid.amount > 0 */\n      gt\n        /* \"0x81906929b10416a65A305d498267fE20adfC4746/contracts/Marketplace.sol\":8587:8709  if (currentBid.amount > 0) {... */\n      iszero\n      tag_434\n      jumpi\n        /* \"0x81906929b10416a65A305d498267fE20adfC4746/contracts/Marketplace.sol\":8628:8698  _refundBid(listing.paymentToken, currentBid.bidder, currentBid.amount) */\n      tag_435\n        /* \"0x81906929b10416a65A305d498267fE20adfC4746/contracts/Marketplace.sol\":8639:8646  listing */\n      dup3\n        /* \"0x81906929b10416a65A305d498267fE20adfC4746/contracts/Marketplace.sol\":8639:8659  listing.paymentToken */\n      0x40\n      add\n      mload\n        /* \"0x81906929b10416a65A305d498267fE20adfC4746/contracts/Marketplace.sol\":8661:8671  currentBid */\n      dup3\n        /* \"0x81906929b10416a65A305d498267fE20adfC4746/contracts/Marketplace.sol\":8661:8678  currentBid.bidder */\n      0x00\n      add\n      mload\n        /* \"0x81906929b10416a65A305d498267fE20adfC4746/contracts/Marketplace.sol\":8680:8690  currentBid */\n      dup4\n        /* \"0x81906929b10416a65A305d498267fE20adfC4746/contracts/Marketplace.sol\":8680:8697  currentBid.amount */\n      0x20\n      add\n      mload\n        /* \"0x81906929b10416a65A305d498267fE20adfC4746/contracts/Marketplace.sol\":8628:8638  _refundBid */\n      tag_436\n        /* \"0x81906929b10416a65A305d498267fE20adfC4746/contracts/Marketplace.sol\":8628:8698  _refundBid(listing.paymentToken, currentBid.bidder, currentBid.amount) */\n      jump\t// in\n    tag_435:\n        /* \"0x81906929b10416a65A305d498267fE20adfC4746/contracts/Marketplace.sol\":8587:8709  if (currentBid.amount > 0) {... */\n    tag_434:\n        /* \"0x81906929b10416a65A305d498267fE20adfC4746/contracts/Marketplace.sol\":8742:8783  Bid({bidder: msg.sender, amount: amount}) */\n      mload(0x40)\n      dup1\n      0x40\n      add\n      0x40\n      mstore\n      dup1\n        /* \"0x81906929b10416a65A305d498267fE20adfC4746/contracts/Marketplace.sol\":8755:8765  msg.sender */\n      caller\n        /* \"0x81906929b10416a65A305d498267fE20adfC4746/contracts/Marketplace.sol\":8742:8783  Bid({bidder: msg.sender, amount: amount}) */\n      0xffffffffffffffffffffffffffffffffffffffff\n      and\n      dup2\n      mstore\n      0x20\n      add\n        /* \"0x81906929b10416a65A305d498267fE20adfC4746/contracts/Marketplace.sol\":8775:8781  amount */\n      dup8\n        /* \"0x81906929b10416a65A305d498267fE20adfC4746/contracts/Marketplace.sol\":8742:8783  Bid({bidder: msg.sender, amount: amount}) */\n      dup2\n      mstore\n      pop\n        /* \"0x81906929b10416a65A305d498267fE20adfC4746/contracts/Marketplace.sol\":8719:8730  currentBids */\n      0x07\n        /* \"0x81906929b10416a65A305d498267fE20adfC4746/contracts/Marketplace.sol\":8719:8739  currentBids[tokenId] */\n      0x00\n        /* \"0x81906929b10416a65A305d498267fE20adfC4746/contracts/Marketplace.sol\":8731:8738  tokenId */\n      dup10\n        /* \"0x81906929b10416a65A305d498267fE20adfC4746/contracts/Marketplace.sol\":8719:8739  currentBids[tokenId] */\n      dup2\n      mstore\n      0x20\n      add\n      swap1\n      dup2\n      mstore\n      0x20\n      add\n      0x00\n      keccak256\n        /* \"0x81906929b10416a65A305d498267fE20adfC4746/contracts/Marketplace.sol\":8719:8783  currentBids[tokenId] = Bid({bidder: msg.sender, amount: amount}) */\n      0x00\n      dup3\n      add\n      mload\n      dup2\n      0x00\n      add\n      exp(0x0100, 0x00)\n      dup2\n      sload\n      dup2\n      0xffffffffffffffffffffffffffffffffffffffff\n      mul\n      not\n      and\n      swap1\n      dup4\n      0xffffffffffffffffffffffffffffffffffffffff\n      and\n      mul\n      or\n      swap1\n      sstore\n      pop\n      0x20\n      dup3\n      add\n      mload\n      dup2\n      0x01\n      add\n      sstore\n      swap1\n      pop\n      pop\n        /* \"0x81906929b10416a65A305d498267fE20adfC4746/contracts/Marketplace.sol\":8817:8827  msg.sender */\n      caller\n        /* \"0x81906929b10416a65A305d498267fE20adfC4746/contracts/Marketplace.sol\":8798:8836  BidPlaced(tokenId, msg.sender, amount) */\n      0xffffffffffffffffffffffffffffffffffffffff\n      and\n        /* \"0x81906929b10416a65A305d498267fE20adfC4746/contracts/Marketplace.sol\":8808:8815  tokenId */\n      dup8\n        /* \"0x81906929b10416a65A305d498267fE20adfC4746/contracts/Marketplace.sol\":8798:8836  BidPlaced(tokenId, msg.sender, amount) */\n      0x0e54eff26401bf69b81b26f60bd85ef47f5d85275c1d268d84f68d6897431c47\n        /* \"0x81906929b10416a65A305d498267fE20adfC4746/contracts/Marketplace.sol\":8829:8835  amount */\n      dup9\n        /* \"0x81906929b10416a65A305d498267fE20adfC4746/contracts/Marketplace.sol\":8798:8836  BidPlaced(tokenId, msg.sender, amount) */\n      mload(0x40)\n      tag_437\n      swap2\n      swap1\n      tag_52\n      jump\t// in\n    tag_437:\n      mload(0x40)\n      dup1\n      swap2\n      sub\n      swap1\n      log3\n        /* \"0x81906929b10416a65A305d498267fE20adfC4746/contracts/Marketplace.sol\":7983:8843  {... */\n      pop\n      pop\n        /* \"0x81906929b10416a65A305d498267fE20adfC4746/contracts/Marketplace.sol\":3492:3493  _ */\n      pop\n        /* \"@openzeppelin/contracts/utils/ReentrancyGuard.sol\":2531:2532  _ */\n      pop\n        /* \"@openzeppelin/contracts/utils/ReentrancyGuard.sol\":2542:2562  _nonReentrantAfter() */\n      tag_438\n        /* \"@openzeppelin/contracts/utils/ReentrancyGuard.sol\":2542:2560  _nonReentrantAfter */\n      tag_255\n        /* \"@openzeppelin/contracts/utils/ReentrancyGuard.sol\":2542:2562  _nonReentrantAfter() */\n      jump\t// in\n    tag_438:\n        /* \"0x81906929b10416a65A305d498267fE20adfC4746/contracts/Marketplace.sol\":7781:8843  function placeBid(... */\n      pop\n      pop\n      pop\n      jump\t// out\n        /* \"0x81906929b10416a65A305d498267fE20adfC4746/contracts/Marketplace.sol\":1210:1238  uint256 public MAX_FEE = 500 */\n    tag_152:\n      sload(0x03)\n      dup2\n      jump\t// out\n        /* \"0x81906929b10416a65A305d498267fE20adfC4746/contracts/Marketplace.sol\":1273:1305  uint256 public adminsEthEarnings */\n    tag_156:\n      sload(0x04)\n      dup2\n      jump\t// out\n        /* \"0x81906929b10416a65A305d498267fE20adfC4746/contracts/Marketplace.sol\":1669:1693  address public tokenUSDC */\n    tag_160:\n      0x0c\n      0x00\n      swap1\n      sload\n      swap1\n      0x0100\n      exp\n      swap1\n      div\n      0xffffffffffffffffffffffffffffffffffffffff\n      and\n      dup2\n      jump\t// out\n        /* \"0x81906929b10416a65A305d498267fE20adfC4746/contracts/Marketplace.sol\":1699:1725  address public nftContract */\n    tag_164:\n      0x0d\n      0x00\n      swap1\n      sload\n      swap1\n      0x0100\n      exp\n      swap1\n      div\n      0xffffffffffffffffffffffffffffffffffffffff\n      and\n      dup2\n      jump\t// out\n        /* \"0x81906929b10416a65A305d498267fE20adfC4746/contracts/Marketplace.sol\":1157:1204  uint256 public constant FEE_DENOMINATOR = 10000 */\n    tag_168:\n        /* \"0x81906929b10416a65A305d498267fE20adfC4746/contracts/Marketplace.sol\":1199:1204  10000 */\n      0x2710\n        /* \"0x81906929b10416a65A305d498267fE20adfC4746/contracts/Marketplace.sol\":1157:1204  uint256 public constant FEE_DENOMINATOR = 10000 */\n      dup2\n      jump\t// out\n        /* \"0x81906929b10416a65A305d498267fE20adfC4746/contracts/Marketplace.sol\":1371:1414  mapping(uint256 => Listing) public listings */\n    tag_173:\n      mstore(0x20, 0x06)\n      dup1\n      0x00\n      mstore\n      keccak256(0x00, 0x40)\n      0x00\n      swap2\n      pop\n      swap1\n      pop\n      dup1\n      0x00\n      add\n      0x00\n      swap1\n      sload\n      swap1\n      0x0100\n      exp\n      swap1\n      div\n      0xffffffffffffffffffffffffffffffffffffffff\n      and\n      swap1\n      dup1\n      0x01\n      add\n      sload\n      swap1\n      dup1\n      0x02\n      add\n      0x00\n      swap1\n      sload\n      swap1\n      0x0100\n      exp\n      swap1\n      div\n      0xffffffffffffffffffffffffffffffffffffffff\n      and\n      swap1\n      dup1\n      0x03\n      add\n      sload\n      swap1\n      dup1\n      0x04\n      add\n      0x00\n      swap1\n      sload\n      swap1\n      0x0100\n      exp\n      swap1\n      div\n      0xff\n      and\n      swap1\n      pop\n      dup6\n      jump\t// out\n        /* \"0x81906929b10416a65A305d498267fE20adfC4746/contracts/Marketplace.sol\":1468:1523  mapping(address => uint256) public ethRefundsForBidders */\n    tag_179:\n      mstore(0x20, 0x08)\n      dup1\n      0x00\n      mstore\n      keccak256(0x00, 0x40)\n      0x00\n      swap2\n      pop\n      swap1\n      pop\n      sload\n      dup2\n      jump\t// out\n        /* \"@openzeppelin/contracts/access/Ownable.sol\":2543:2758  function transferOwnership(address newOwner) public virtual onlyOwner {... */\n    tag_184:\n        /* \"@openzeppelin/contracts/access/Ownable.sol\":1531:1544  _checkOwner() */\n      tag_440\n        /* \"@openzeppelin/contracts/access/Ownable.sol\":1531:1542  _checkOwner */\n      tag_197\n        /* \"@openzeppelin/contracts/access/Ownable.sol\":1531:1544  _checkOwner() */\n      jump\t// in\n    tag_440:\n        /* \"@openzeppelin/contracts/access/Ownable.sol\":2647:2648  0 */\n      0x00\n        /* \"@openzeppelin/contracts/access/Ownable.sol\":2627:2649  newOwner == address(0) */\n      0xffffffffffffffffffffffffffffffffffffffff\n      and\n        /* \"@openzeppelin/contracts/access/Ownable.sol\":2627:2635  newOwner */\n      dup2\n        /* \"@openzeppelin/contracts/access/Ownable.sol\":2627:2649  newOwner == address(0) */\n      0xffffffffffffffffffffffffffffffffffffffff\n      and\n      sub\n        /* \"@openzeppelin/contracts/access/Ownable.sol\":2623:2714  if (newOwner == address(0)) {... */\n      tag_442\n      jumpi\n        /* \"@openzeppelin/contracts/access/Ownable.sol\":2700:2701  0 */\n      0x00\n        /* \"@openzeppelin/contracts/access/Ownable.sol\":2672:2703  OwnableInvalidOwner(address(0)) */\n      mload(0x40)\n      0x1e4fbdf700000000000000000000000000000000000000000000000000000000\n      dup2\n      mstore\n      0x04\n      add\n      tag_443\n      swap2\n      swap1\n      tag_121\n      jump\t// in\n    tag_443:\n      mload(0x40)\n      dup1\n      swap2\n      sub\n      swap1\n      revert\n        /* \"@openzeppelin/contracts/access/Ownable.sol\":2623:2714  if (newOwner == address(0)) {... */\n    tag_442:\n        /* \"@openzeppelin/contracts/access/Ownable.sol\":2723:2751  _transferOwnership(newOwner) */\n      tag_444\n        /* \"@openzeppelin/contracts/access/Ownable.sol\":2742:2750  newOwner */\n      dup2\n        /* \"@openzeppelin/contracts/access/Ownable.sol\":2723:2741  _transferOwnership */\n      tag_379\n        /* \"@openzeppelin/contracts/access/Ownable.sol\":2723:2751  _transferOwnership(newOwner) */\n      jump\t// in\n    tag_444:\n        /* \"@openzeppelin/contracts/access/Ownable.sol\":2543:2758  function transferOwnership(address newOwner) public virtual onlyOwner {... */\n      pop\n      jump\t// out\n        /* \"0x81906929b10416a65A305d498267fE20adfC4746/contracts/Marketplace.sol\":5689:6059  function withdrawAdminEthEarnings() external onlyOwner nonReentrant {... */\n    tag_187:\n        /* \"@openzeppelin/contracts/access/Ownable.sol\":1531:1544  _checkOwner() */\n      tag_446\n        /* \"@openzeppelin/contracts/access/Ownable.sol\":1531:1542  _checkOwner */\n      tag_197\n        /* \"@openzeppelin/contracts/access/Ownable.sol\":1531:1544  _checkOwner() */\n      jump\t// in\n    tag_446:\n        /* \"@openzeppelin/contracts/utils/ReentrancyGuard.sol\":2500:2521  _nonReentrantBefore() */\n      tag_448\n        /* \"@openzeppelin/contracts/utils/ReentrancyGuard.sol\":2500:2519  _nonReentrantBefore */\n      tag_212\n        /* \"@openzeppelin/contracts/utils/ReentrancyGuard.sol\":2500:2521  _nonReentrantBefore() */\n      jump\t// in\n    tag_448:\n        /* \"0x81906929b10416a65A305d498267fE20adfC4746/contracts/Marketplace.sol\":5767:5783  uint256 earnings */\n      0x00\n        /* \"0x81906929b10416a65A305d498267fE20adfC4746/contracts/Marketplace.sol\":5786:5803  adminsEthEarnings */\n      sload(0x04)\n        /* \"0x81906929b10416a65A305d498267fE20adfC4746/contracts/Marketplace.sol\":5767:5803  uint256 earnings = adminsEthEarnings */\n      swap1\n      pop\n        /* \"0x81906929b10416a65A305d498267fE20adfC4746/contracts/Marketplace.sol\":5832:5833  0 */\n      0x00\n        /* \"0x81906929b10416a65A305d498267fE20adfC4746/contracts/Marketplace.sol\":5821:5829  earnings */\n      dup2\n        /* \"0x81906929b10416a65A305d498267fE20adfC4746/contracts/Marketplace.sol\":5821:5833  earnings > 0 */\n      gt\n        /* \"0x81906929b10416a65A305d498267fE20adfC4746/contracts/Marketplace.sol\":5813:5856  require(earnings > 0, \"No ETH to withdraw\") */\n      tag_450\n      jumpi\n      mload(0x40)\n      0x08c379a000000000000000000000000000000000000000000000000000000000\n      dup2\n      mstore\n      0x04\n      add\n      tag_451\n      swap1\n      tag_452\n      jump\t// in\n    tag_451:\n      mload(0x40)\n      dup1\n      swap2\n      sub\n      swap1\n      revert\n    tag_450:\n        /* \"0x81906929b10416a65A305d498267fE20adfC4746/contracts/Marketplace.sol\":5886:5887  0 */\n      0x00\n        /* \"0x81906929b10416a65A305d498267fE20adfC4746/contracts/Marketplace.sol\":5866:5883  adminsEthEarnings */\n      0x04\n        /* \"0x81906929b10416a65A305d498267fE20adfC4746/contracts/Marketplace.sol\":5866:5887  adminsEthEarnings = 0 */\n      dup2\n      swap1\n      sstore\n      pop\n        /* \"0x81906929b10416a65A305d498267fE20adfC4746/contracts/Marketplace.sol\":5899:5911  bool success */\n      0x00\n        /* \"0x81906929b10416a65A305d498267fE20adfC4746/contracts/Marketplace.sol\":5917:5924  owner() */\n      tag_453\n        /* \"0x81906929b10416a65A305d498267fE20adfC4746/contracts/Marketplace.sol\":5917:5922  owner */\n      tag_131\n        /* \"0x81906929b10416a65A305d498267fE20adfC4746/contracts/Marketplace.sol\":5917:5924  owner() */\n      jump\t// in\n    tag_453:\n        /* \"0x81906929b10416a65A305d498267fE20adfC4746/contracts/Marketplace.sol\":5917:5929  owner().call */\n      0xffffffffffffffffffffffffffffffffffffffff\n      and\n        /* \"0x81906929b10416a65A305d498267fE20adfC4746/contracts/Marketplace.sol\":5937:5945  earnings */\n      dup3\n        /* \"0x81906929b10416a65A305d498267fE20adfC4746/contracts/Marketplace.sol\":5917:5950  owner().call{value: earnings}(\"\") */\n      mload(0x40)\n      tag_454\n      swap1\n      tag_237\n      jump\t// in\n    tag_454:\n      0x00\n      mload(0x40)\n      dup1\n      dup4\n      sub\n      dup2\n      dup6\n      dup8\n      gas\n      call\n      swap3\n      pop\n      pop\n      pop\n      returndatasize\n      dup1\n      0x00\n      dup2\n      eq\n      tag_457\n      jumpi\n      mload(0x40)\n      swap2\n      pop\n      and(add(returndatasize, 0x3f), not(0x1f))\n      dup3\n      add\n      0x40\n      mstore\n      returndatasize\n      dup3\n      mstore\n      returndatasize\n      0x00\n      0x20\n      dup5\n      add\n      returndatacopy\n      jump(tag_456)\n    tag_457:\n      0x60\n      swap2\n      pop\n    tag_456:\n      pop\n        /* \"0x81906929b10416a65A305d498267fE20adfC4746/contracts/Marketplace.sol\":5898:5950  (bool success, ) = owner().call{value: earnings}(\"\") */\n      pop\n      swap1\n      pop\n        /* \"0x81906929b10416a65A305d498267fE20adfC4746/contracts/Marketplace.sol\":5968:5975  success */\n      dup1\n        /* \"0x81906929b10416a65A305d498267fE20adfC4746/contracts/Marketplace.sol\":5960:5999  require(success, \"ETH transfer failed\") */\n      tag_458\n      jumpi\n      mload(0x40)\n      0x08c379a000000000000000000000000000000000000000000000000000000000\n      dup2\n      mstore\n      0x04\n      add\n      tag_459\n      swap1\n      tag_243\n      jump\t// in\n    tag_459:\n      mload(0x40)\n      dup1\n      swap2\n      sub\n      swap1\n      revert\n    tag_458:\n        /* \"0x81906929b10416a65A305d498267fE20adfC4746/contracts/Marketplace.sol\":6034:6041  owner() */\n      tag_460\n        /* \"0x81906929b10416a65A305d498267fE20adfC4746/contracts/Marketplace.sol\":6034:6039  owner */\n      tag_131\n        /* \"0x81906929b10416a65A305d498267fE20adfC4746/contracts/Marketplace.sol\":6034:6041  owner() */\n      jump\t// in\n    tag_460:\n        /* \"0x81906929b10416a65A305d498267fE20adfC4746/contracts/Marketplace.sol\":6014:6052  AdminEthWithdrawals(owner(), earnings) */\n      0xffffffffffffffffffffffffffffffffffffffff\n      and\n      0xd6ddd782abf6e1531f3aa9f2801ae73391efd91e3846a441334a4e911f74bf43\n        /* \"0x81906929b10416a65A305d498267fE20adfC4746/contracts/Marketplace.sol\":6043:6051  earnings */\n      dup4\n        /* \"0x81906929b10416a65A305d498267fE20adfC4746/contracts/Marketplace.sol\":6014:6052  AdminEthWithdrawals(owner(), earnings) */\n      mload(0x40)\n      tag_461\n      swap2\n      swap1\n      tag_52\n      jump\t// in\n    tag_461:\n      mload(0x40)\n      dup1\n      swap2\n      sub\n      swap1\n      log2\n        /* \"0x81906929b10416a65A305d498267fE20adfC4746/contracts/Marketplace.sol\":5757:6059  {... */\n      pop\n      pop\n        /* \"@openzeppelin/contracts/utils/ReentrancyGuard.sol\":2542:2562  _nonReentrantAfter() */\n      tag_462\n        /* \"@openzeppelin/contracts/utils/ReentrancyGuard.sol\":2542:2560  _nonReentrantAfter */\n      tag_255\n        /* \"@openzeppelin/contracts/utils/ReentrancyGuard.sol\":2542:2562  _nonReentrantAfter() */\n      jump\t// in\n    tag_462:\n        /* \"0x81906929b10416a65A305d498267fE20adfC4746/contracts/Marketplace.sol\":5689:6059  function withdrawAdminEthEarnings() external onlyOwner nonReentrant {... */\n      jump\t// out\n        /* \"0x81906929b10416a65A305d498267fE20adfC4746/contracts/Marketplace.sol\":1420:1462  mapping(uint256 => Bid) public currentBids */\n    tag_191:\n      mstore(0x20, 0x07)\n      dup1\n      0x00\n      mstore\n      keccak256(0x00, 0x40)\n      0x00\n      swap2\n      pop\n      swap1\n      pop\n      dup1\n      0x00\n      add\n      0x00\n      swap1\n      sload\n      swap1\n      0x0100\n      exp\n      swap1\n      div\n      0xffffffffffffffffffffffffffffffffffffffff\n      and\n      swap1\n      dup1\n      0x01\n      add\n      sload\n      swap1\n      pop\n      dup3\n      jump\t// out\n        /* \"@openzeppelin/contracts/access/Ownable.sol\":1796:1958  function _checkOwner() internal view virtual {... */\n    tag_197:\n        /* \"@openzeppelin/contracts/access/Ownable.sol\":1866:1878  _msgSender() */\n      tag_464\n        /* \"@openzeppelin/contracts/access/Ownable.sol\":1866:1876  _msgSender */\n      tag_465\n        /* \"@openzeppelin/contracts/access/Ownable.sol\":1866:1878  _msgSender() */\n      jump\t// in\n    tag_464:\n        /* \"@openzeppelin/contracts/access/Ownable.sol\":1855:1878  owner() != _msgSender() */\n      0xffffffffffffffffffffffffffffffffffffffff\n      and\n        /* \"@openzeppelin/contracts/access/Ownable.sol\":1855:1862  owner() */\n      tag_466\n        /* \"@openzeppelin/contracts/access/Ownable.sol\":1855:1860  owner */\n      tag_131\n        /* \"@openzeppelin/contracts/access/Ownable.sol\":1855:1862  owner() */\n      jump\t// in\n    tag_466:\n        /* \"@openzeppelin/contracts/access/Ownable.sol\":1855:1878  owner() != _msgSender() */\n      0xffffffffffffffffffffffffffffffffffffffff\n      and\n      eq\n        /* \"@openzeppelin/contracts/access/Ownable.sol\":1851:1952  if (owner() != _msgSender()) {... */\n      tag_467\n      jumpi\n        /* \"@openzeppelin/contracts/access/Ownable.sol\":1928:1940  _msgSender() */\n      tag_468\n        /* \"@openzeppelin/contracts/access/Ownable.sol\":1928:1938  _msgSender */\n      tag_465\n        /* \"@openzeppelin/contracts/access/Ownable.sol\":1928:1940  _msgSender() */\n      jump\t// in\n    tag_468:\n        /* \"@openzeppelin/contracts/access/Ownable.sol\":1901:1941  OwnableUnauthorizedAccount(_msgSender()) */\n      mload(0x40)\n      0x118cdaa700000000000000000000000000000000000000000000000000000000\n      dup2\n      mstore\n      0x04\n      add\n      tag_469\n      swap2\n      swap1\n      tag_121\n      jump\t// in\n    tag_469:\n      mload(0x40)\n      dup1\n      swap2\n      sub\n      swap1\n      revert\n        /* \"@openzeppelin/contracts/access/Ownable.sol\":1851:1952  if (owner() != _msgSender()) {... */\n    tag_467:\n        /* \"@openzeppelin/contracts/access/Ownable.sol\":1796:1958  function _checkOwner() internal view virtual {... */\n      jump\t// out\n        /* \"@openzeppelin/contracts/utils/ReentrancyGuard.sol\":2575:2882  function _nonReentrantBefore() private {... */\n    tag_212:\n        /* \"@openzeppelin/contracts/utils/ReentrancyGuard.sol\":1899:1900  2 */\n      0x02\n        /* \"@openzeppelin/contracts/utils/ReentrancyGuard.sol\":2702:2709  _status */\n      sload(0x00)\n        /* \"@openzeppelin/contracts/utils/ReentrancyGuard.sol\":2702:2720  _status == ENTERED */\n      sub\n        /* \"@openzeppelin/contracts/utils/ReentrancyGuard.sol\":2698:2784  if (_status == ENTERED) {... */\n      tag_471\n      jumpi\n        /* \"@openzeppelin/contracts/utils/ReentrancyGuard.sol\":2743:2773  ReentrancyGuardReentrantCall() */\n      mload(0x40)\n      0x3ee5aeb500000000000000000000000000000000000000000000000000000000\n      dup2\n      mstore\n      0x04\n      add\n      mload(0x40)\n      dup1\n      swap2\n      sub\n      swap1\n      revert\n        /* \"@openzeppelin/contracts/utils/ReentrancyGuard.sol\":2698:2784  if (_status == ENTERED) {... */\n    tag_471:\n        /* \"@openzeppelin/contracts/utils/ReentrancyGuard.sol\":1899:1900  2 */\n      0x02\n        /* \"@openzeppelin/contracts/utils/ReentrancyGuard.sol\":2858:2865  _status */\n      0x00\n        /* \"@openzeppelin/contracts/utils/ReentrancyGuard.sol\":2858:2875  _status = ENTERED */\n      dup2\n      swap1\n      sstore\n      pop\n        /* \"@openzeppelin/contracts/utils/ReentrancyGuard.sol\":2575:2882  function _nonReentrantBefore() private {... */\n      jump\t// out\n        /* \"@openzeppelin/contracts/utils/Pausable.sol\":2002:2130  function _requireNotPaused() internal view virtual {... */\n    tag_215:\n        /* \"@openzeppelin/contracts/utils/Pausable.sol\":2067:2075  paused() */\n      tag_473\n        /* \"@openzeppelin/contracts/utils/Pausable.sol\":2067:2073  paused */\n      tag_102\n        /* \"@openzeppelin/contracts/utils/Pausable.sol\":2067:2075  paused() */\n      jump\t// in\n    tag_473:\n        /* \"@openzeppelin/contracts/utils/Pausable.sol\":2063:2124  if (paused()) {... */\n      iszero\n      tag_474\n      jumpi\n        /* \"@openzeppelin/contracts/utils/Pausable.sol\":2098:2113  EnforcedPause() */\n      mload(0x40)\n      0xd93c066500000000000000000000000000000000000000000000000000000000\n      dup2\n      mstore\n      0x04\n      add\n      mload(0x40)\n      dup1\n      swap2\n      sub\n      swap1\n      revert\n        /* \"@openzeppelin/contracts/utils/Pausable.sol\":2063:2124  if (paused()) {... */\n    tag_474:\n        /* \"@openzeppelin/contracts/utils/Pausable.sol\":2002:2130  function _requireNotPaused() internal view virtual {... */\n      jump\t// out\n        /* \"@openzeppelin/contracts/token/ERC20/utils/SafeERC20.sol\":1219:1379  function safeTransfer(IERC20 token, address to, uint256 value) internal {... */\n    tag_247:\n        /* \"@openzeppelin/contracts/token/ERC20/utils/SafeERC20.sol\":1301:1372  _callOptionalReturn(token, abi.encodeCall(token.transfer, (to, value))) */\n      tag_476\n        /* \"@openzeppelin/contracts/token/ERC20/utils/SafeERC20.sol\":1321:1326  token */\n      dup4\n        /* \"@openzeppelin/contracts/token/ERC20/utils/SafeERC20.sol\":1343:1348  token */\n      dup5\n        /* \"@openzeppelin/contracts/token/ERC20/utils/SafeERC20.sol\":1343:1357  token.transfer */\n      0xffffffffffffffffffffffffffffffffffffffff\n      and\n      0xa9059cbb\n        /* \"@openzeppelin/contracts/token/ERC20/utils/SafeERC20.sol\":1360:1362  to */\n      dup6\n        /* \"@openzeppelin/contracts/token/ERC20/utils/SafeERC20.sol\":1364:1369  value */\n      dup6\n        /* \"@openzeppelin/contracts/token/ERC20/utils/SafeERC20.sol\":1328:1371  abi.encodeCall(token.transfer, (to, value)) */\n      add(0x24, mload(0x40))\n      tag_477\n      swap3\n      swap2\n      swap1\n      tag_193\n      jump\t// in\n    tag_477:\n      mload(0x40)\n      0x20\n      dup2\n      dup4\n      sub\n      sub\n      dup2\n      mstore\n      swap1\n      0x40\n      mstore\n      swap2\n      pop\n      0xe0\n      shl\n      0x20\n      dup3\n      add\n      dup1\n      mload\n      0xffffffffffffffffffffffffffffffffffffffffffffffffffffffff\n      dup4\n      dup2\n      dup4\n      and\n      or\n      dup4\n      mstore\n      pop\n      pop\n      pop\n      pop\n        /* \"@openzeppelin/contracts/token/ERC20/utils/SafeERC20.sol\":1301:1320  _callOptionalReturn */\n      tag_478\n        /* \"@openzeppelin/contracts/token/ERC20/utils/SafeERC20.sol\":1301:1372  _callOptionalReturn(token, abi.encodeCall(token.transfer, (to, value))) */\n      jump\t// in\n    tag_476:\n        /* \"@openzeppelin/contracts/token/ERC20/utils/SafeERC20.sol\":1219:1379  function safeTransfer(IERC20 token, address to, uint256 value) internal {... */\n      pop\n      pop\n      pop\n      jump\t// out\n        /* \"@openzeppelin/contracts/utils/ReentrancyGuard.sol\":2888:3096  function _nonReentrantAfter() private {... */\n    tag_255:\n        /* \"@openzeppelin/contracts/utils/ReentrancyGuard.sol\":1857:1858  1 */\n      0x01\n        /* \"@openzeppelin/contracts/utils/ReentrancyGuard.sol\":3068:3075  _status */\n      0x00\n        /* \"@openzeppelin/contracts/utils/ReentrancyGuard.sol\":3068:3089  _status = NOT_ENTERED */\n      dup2\n      swap1\n      sstore\n      pop\n        /* \"@openzeppelin/contracts/utils/ReentrancyGuard.sol\":2888:3096  function _nonReentrantAfter() private {... */\n      jump\t// out\n        /* \"@openzeppelin/contracts/utils/Pausable.sol\":2710:2827  function _unpause() internal virtual whenPaused {... */\n    tag_284:\n        /* \"@openzeppelin/contracts/utils/Pausable.sol\":1721:1737  _requirePaused() */\n      tag_481\n        /* \"@openzeppelin/contracts/utils/Pausable.sol\":1721:1735  _requirePaused */\n      tag_482\n        /* \"@openzeppelin/contracts/utils/Pausable.sol\":1721:1737  _requirePaused() */\n      jump\t// in\n    tag_481:\n        /* \"@openzeppelin/contracts/utils/Pausable.sol\":2778:2783  false */\n      0x00\n        /* \"@openzeppelin/contracts/utils/Pausable.sol\":2768:2775  _paused */\n      0x01\n      0x14\n        /* \"@openzeppelin/contracts/utils/Pausable.sol\":2768:2783  _paused = false */\n      0x0100\n      exp\n      dup2\n      sload\n      dup2\n      0xff\n      mul\n      not\n      and\n      swap1\n      dup4\n      iszero\n      iszero\n      mul\n      or\n      swap1\n      sstore\n      pop\n        /* \"@openzeppelin/contracts/utils/Pausable.sol\":2798:2820  Unpaused(_msgSender()) */\n      0x5db9ee0a495bf2e6ff9c91a7834c1ba4fdd244a5e8aa4e537bd38aeae4b073aa\n        /* \"@openzeppelin/contracts/utils/Pausable.sol\":2807:2819  _msgSender() */\n      tag_484\n        /* \"@openzeppelin/contracts/utils/Pausable.sol\":2807:2817  _msgSender */\n      tag_465\n        /* \"@openzeppelin/contracts/utils/Pausable.sol\":2807:2819  _msgSender() */\n      jump\t// in\n    tag_484:\n        /* \"@openzeppelin/contracts/utils/Pausable.sol\":2798:2820  Unpaused(_msgSender()) */\n      mload(0x40)\n      tag_485\n      swap2\n      swap1\n      tag_121\n      jump\t// in\n    tag_485:\n      mload(0x40)\n      dup1\n      swap2\n      sub\n      swap1\n      log1\n        /* \"@openzeppelin/contracts/utils/Pausable.sol\":2710:2827  function _unpause() internal virtual whenPaused {... */\n      jump\t// out\n        /* \"@openzeppelin/contracts/access/Ownable.sol\":2912:3099  function _transferOwnership(address newOwner) internal virtual {... */\n    tag_379:\n        /* \"@openzeppelin/contracts/access/Ownable.sol\":2985:3001  address oldOwner */\n      0x00\n        /* \"@openzeppelin/contracts/access/Ownable.sol\":3004:3010  _owner */\n      0x01\n      0x00\n      swap1\n      sload\n      swap1\n      0x0100\n      exp\n      swap1\n      div\n      0xffffffffffffffffffffffffffffffffffffffff\n      and\n        /* \"@openzeppelin/contracts/access/Ownable.sol\":2985:3010  address oldOwner = _owner */\n      swap1\n      pop\n        /* \"@openzeppelin/contracts/access/Ownable.sol\":3029:3037  newOwner */\n      dup2\n        /* \"@openzeppelin/contracts/access/Ownable.sol\":3020:3026  _owner */\n      0x01\n      0x00\n        /* \"@openzeppelin/contracts/access/Ownable.sol\":3020:3037  _owner = newOwner */\n      0x0100\n      exp\n      dup2\n      sload\n      dup2\n      0xffffffffffffffffffffffffffffffffffffffff\n      mul\n      not\n      and\n      swap1\n      dup4\n      0xffffffffffffffffffffffffffffffffffffffff\n      and\n      mul\n      or\n      swap1\n      sstore\n      pop\n        /* \"@openzeppelin/contracts/access/Ownable.sol\":3083:3091  newOwner */\n      dup2\n        /* \"@openzeppelin/contracts/access/Ownable.sol\":3052:3092  OwnershipTransferred(oldOwner, newOwner) */\n      0xffffffffffffffffffffffffffffffffffffffff\n      and\n        /* \"@openzeppelin/contracts/access/Ownable.sol\":3073:3081  oldOwner */\n      dup2\n        /* \"@openzeppelin/contracts/access/Ownable.sol\":3052:3092  OwnershipTransferred(oldOwner, newOwner) */\n      0xffffffffffffffffffffffffffffffffffffffff\n      and\n      0x8be0079c531659141344cd1fd0a4f28419497f9722a3daafe3b4186f6b6457e0\n      mload(0x40)\n      mload(0x40)\n      dup1\n      swap2\n      sub\n      swap1\n      log3\n        /* \"@openzeppelin/contracts/access/Ownable.sol\":2975:3099  {... */\n      pop\n        /* \"@openzeppelin/contracts/access/Ownable.sol\":2912:3099  function _transferOwnership(address newOwner) internal virtual {... */\n      pop\n      jump\t// out\n        /* \"@openzeppelin/contracts/utils/Pausable.sol\":2463:2578  function _pause() internal virtual whenNotPaused {... */\n    tag_384:\n        /* \"@openzeppelin/contracts/utils/Pausable.sol\":1474:1493  _requireNotPaused() */\n      tag_488\n        /* \"@openzeppelin/contracts/utils/Pausable.sol\":1474:1491  _requireNotPaused */\n      tag_215\n        /* \"@openzeppelin/contracts/utils/Pausable.sol\":1474:1493  _requireNotPaused() */\n      jump\t// in\n    tag_488:\n        /* \"@openzeppelin/contracts/utils/Pausable.sol\":2532:2536  true */\n      0x01\n        /* \"@openzeppelin/contracts/utils/Pausable.sol\":2522:2529  _paused */\n      dup1\n      0x14\n        /* \"@openzeppelin/contracts/utils/Pausable.sol\":2522:2536  _paused = true */\n      0x0100\n      exp\n      dup2\n      sload\n      dup2\n      0xff\n      mul\n      not\n      and\n      swap1\n      dup4\n      iszero\n      iszero\n      mul\n      or\n      swap1\n      sstore\n      pop\n        /* \"@openzeppelin/contracts/utils/Pausable.sol\":2551:2571  Paused(_msgSender()) */\n      0x62e78cea01bee320cd4e420270b5ea74000d11b0c9f74754ebdbfc544b05a258\n        /* \"@openzeppelin/contracts/utils/Pausable.sol\":2558:2570  _msgSender() */\n      tag_490\n        /* \"@openzeppelin/contracts/utils/Pausable.sol\":2558:2568  _msgSender */\n      tag_465\n        /* \"@openzeppelin/contracts/utils/Pausable.sol\":2558:2570  _msgSender() */\n      jump\t// in\n    tag_490:\n        /* \"@openzeppelin/contracts/utils/Pausable.sol\":2551:2571  Paused(_msgSender()) */\n      mload(0x40)\n      tag_491\n      swap2\n      swap1\n      tag_121\n      jump\t// in\n    tag_491:\n      mload(0x40)\n      dup1\n      swap2\n      sub\n      swap1\n      log1\n        /* \"@openzeppelin/contracts/utils/Pausable.sol\":2463:2578  function _pause() internal virtual whenNotPaused {... */\n      jump\t// out\n        /* \"@openzeppelin/contracts/token/ERC20/utils/SafeERC20.sol\":1618:1806  function safeTransferFrom(IERC20 token, address from, address to, uint256 value) internal {... */\n    tag_430:\n        /* \"@openzeppelin/contracts/token/ERC20/utils/SafeERC20.sol\":1718:1799  _callOptionalReturn(token, abi.encodeCall(token.transferFrom, (from, to, value))) */\n      tag_493\n        /* \"@openzeppelin/contracts/token/ERC20/utils/SafeERC20.sol\":1738:1743  token */\n      dup5\n        /* \"@openzeppelin/contracts/token/ERC20/utils/SafeERC20.sol\":1760:1765  token */\n      dup6\n        /* \"@openzeppelin/contracts/token/ERC20/utils/SafeERC20.sol\":1760:1778  token.transferFrom */\n      0xffffffffffffffffffffffffffffffffffffffff\n      and\n      0x23b872dd\n        /* \"@openzeppelin/contracts/token/ERC20/utils/SafeERC20.sol\":1781:1785  from */\n      dup7\n        /* \"@openzeppelin/contracts/token/ERC20/utils/SafeERC20.sol\":1787:1789  to */\n      dup7\n        /* \"@openzeppelin/contracts/token/ERC20/utils/SafeERC20.sol\":1791:1796  value */\n      dup7\n        /* \"@openzeppelin/contracts/token/ERC20/utils/SafeERC20.sol\":1745:1798  abi.encodeCall(token.transferFrom, (from, to, value)) */\n      add(0x24, mload(0x40))\n      tag_494\n      swap4\n      swap3\n      swap2\n      swap1\n      tag_249\n      jump\t// in\n    tag_494:\n      mload(0x40)\n      0x20\n      dup2\n      dup4\n      sub\n      sub\n      dup2\n      mstore\n      swap1\n      0x40\n      mstore\n      swap2\n      pop\n      0xe0\n      shl\n      0x20\n      dup3\n      add\n      dup1\n      mload\n      0xffffffffffffffffffffffffffffffffffffffffffffffffffffffff\n      dup4\n      dup2\n      dup4\n      and\n      or\n      dup4\n      mstore\n      pop\n      pop\n      pop\n      pop\n        /* \"@openzeppelin/contracts/token/ERC20/utils/SafeERC20.sol\":1718:1737  _callOptionalReturn */\n      tag_478\n        /* \"@openzeppelin/contracts/token/ERC20/utils/SafeERC20.sol\":1718:1799  _callOptionalReturn(token, abi.encodeCall(token.transferFrom, (from, to, value))) */\n      jump\t// in\n    tag_493:\n        /* \"@openzeppelin/contracts/token/ERC20/utils/SafeERC20.sol\":1618:1806  function safeTransferFrom(IERC20 token, address from, address to, uint256 value) internal {... */\n      pop\n      pop\n      pop\n      pop\n      jump\t// out\n        /* \"0x81906929b10416a65A305d498267fE20adfC4746/contracts/Marketplace.sol\":11264:11600  function _refundBid(address paymentToken, address bidder, uint256 amount) internal {... */\n    tag_436:\n        /* \"0x81906929b10416a65A305d498267fE20adfC4746/contracts/Marketplace.sol\":11385:11386  0 */\n      0x00\n        /* \"0x81906929b10416a65A305d498267fE20adfC4746/contracts/Marketplace.sol\":11361:11387  paymentToken == address(0) */\n      0xffffffffffffffffffffffffffffffffffffffff\n      and\n        /* \"0x81906929b10416a65A305d498267fE20adfC4746/contracts/Marketplace.sol\":11361:11373  paymentToken */\n      dup4\n        /* \"0x81906929b10416a65A305d498267fE20adfC4746/contracts/Marketplace.sol\":11361:11387  paymentToken == address(0) */\n      0xffffffffffffffffffffffffffffffffffffffff\n      and\n      sub\n        /* \"0x81906929b10416a65A305d498267fE20adfC4746/contracts/Marketplace.sol\":11357:11537  if (paymentToken == address(0)) {... */\n      tag_496\n      jumpi\n        /* \"0x81906929b10416a65A305d498267fE20adfC4746/contracts/Marketplace.sol\":11435:11441  amount */\n      dup1\n        /* \"0x81906929b10416a65A305d498267fE20adfC4746/contracts/Marketplace.sol\":11403:11423  ethRefundsForBidders */\n      0x08\n        /* \"0x81906929b10416a65A305d498267fE20adfC4746/contracts/Marketplace.sol\":11403:11431  ethRefundsForBidders[bidder] */\n      0x00\n        /* \"0x81906929b10416a65A305d498267fE20adfC4746/contracts/Marketplace.sol\":11424:11430  bidder */\n      dup5\n        /* \"0x81906929b10416a65A305d498267fE20adfC4746/contracts/Marketplace.sol\":11403:11431  ethRefundsForBidders[bidder] */\n      0xffffffffffffffffffffffffffffffffffffffff\n      and\n      0xffffffffffffffffffffffffffffffffffffffff\n      and\n      dup2\n      mstore\n      0x20\n      add\n      swap1\n      dup2\n      mstore\n      0x20\n      add\n      0x00\n      keccak256\n      0x00\n        /* \"0x81906929b10416a65A305d498267fE20adfC4746/contracts/Marketplace.sol\":11403:11441  ethRefundsForBidders[bidder] += amount */\n      dup3\n      dup3\n      sload\n      tag_497\n      swap2\n      swap1\n      tag_235\n      jump\t// in\n    tag_497:\n      swap3\n      pop\n      pop\n      dup2\n      swap1\n      sstore\n      pop\n        /* \"0x81906929b10416a65A305d498267fE20adfC4746/contracts/Marketplace.sol\":11357:11537  if (paymentToken == address(0)) {... */\n      jump(tag_498)\n    tag_496:\n        /* \"0x81906929b10416a65A305d498267fE20adfC4746/contracts/Marketplace.sol\":11520:11526  amount */\n      dup1\n        /* \"0x81906929b10416a65A305d498267fE20adfC4746/contracts/Marketplace.sol\":11472:11494  tokenRefundsForBidders */\n      0x09\n        /* \"0x81906929b10416a65A305d498267fE20adfC4746/contracts/Marketplace.sol\":11472:11502  tokenRefundsForBidders[bidder] */\n      0x00\n        /* \"0x81906929b10416a65A305d498267fE20adfC4746/contracts/Marketplace.sol\":11495:11501  bidder */\n      dup5\n        /* \"0x81906929b10416a65A305d498267fE20adfC4746/contracts/Marketplace.sol\":11472:11502  tokenRefundsForBidders[bidder] */\n      0xffffffffffffffffffffffffffffffffffffffff\n      and\n      0xffffffffffffffffffffffffffffffffffffffff\n      and\n      dup2\n      mstore\n      0x20\n      add\n      swap1\n      dup2\n      mstore\n      0x20\n      add\n      0x00\n      keccak256\n        /* \"0x81906929b10416a65A305d498267fE20adfC4746/contracts/Marketplace.sol\":11472:11516  tokenRefundsForBidders[bidder][paymentToken] */\n      0x00\n        /* \"0x81906929b10416a65A305d498267fE20adfC4746/contracts/Marketplace.sol\":11503:11515  paymentToken */\n      dup6\n        /* \"0x81906929b10416a65A305d498267fE20adfC4746/contracts/Marketplace.sol\":11472:11516  tokenRefundsForBidders[bidder][paymentToken] */\n      0xffffffffffffffffffffffffffffffffffffffff\n      and\n      0xffffffffffffffffffffffffffffffffffffffff\n      and\n      dup2\n      mstore\n      0x20\n      add\n      swap1\n      dup2\n      mstore\n      0x20\n      add\n      0x00\n      keccak256\n      0x00\n        /* \"0x81906929b10416a65A305d498267fE20adfC4746/contracts/Marketplace.sol\":11472:11526  tokenRefundsForBidders[bidder][paymentToken] += amount */\n      dup3\n      dup3\n      sload\n      tag_499\n      swap2\n      swap1\n      tag_235\n      jump\t// in\n    tag_499:\n      swap3\n      pop\n      pop\n      dup2\n      swap1\n      sstore\n      pop\n        /* \"0x81906929b10416a65A305d498267fE20adfC4746/contracts/Marketplace.sol\":11357:11537  if (paymentToken == address(0)) {... */\n    tag_498:\n        /* \"0x81906929b10416a65A305d498267fE20adfC4746/contracts/Marketplace.sol\":11572:11584  paymentToken */\n      dup3\n        /* \"0x81906929b10416a65A305d498267fE20adfC4746/contracts/Marketplace.sol\":11551:11593  RefundIssued(bidder, paymentToken, amount) */\n      0xffffffffffffffffffffffffffffffffffffffff\n      and\n        /* \"0x81906929b10416a65A305d498267fE20adfC4746/contracts/Marketplace.sol\":11564:11570  bidder */\n      dup3\n        /* \"0x81906929b10416a65A305d498267fE20adfC4746/contracts/Marketplace.sol\":11551:11593  RefundIssued(bidder, paymentToken, amount) */\n      0xffffffffffffffffffffffffffffffffffffffff\n      and\n      0x97ded04b4dd3dab6c02011a161d44b56a32fc8dac48ee2a011bc2beed61b16e0\n        /* \"0x81906929b10416a65A305d498267fE20adfC4746/contracts/Marketplace.sol\":11586:11592  amount */\n      dup4\n        /* \"0x81906929b10416a65A305d498267fE20adfC4746/contracts/Marketplace.sol\":11551:11593  RefundIssued(bidder, paymentToken, amount) */\n      mload(0x40)\n      tag_500\n      swap2\n      swap1\n      tag_52\n      jump\t// in\n    tag_500:\n      mload(0x40)\n      dup1\n      swap2\n      sub\n      swap1\n      log3\n        /* \"0x81906929b10416a65A305d498267fE20adfC4746/contracts/Marketplace.sol\":11264:11600  function _refundBid(address paymentToken, address bidder, uint256 amount) internal {... */\n      pop\n      pop\n      pop\n      jump\t// out\n        /* \"@openzeppelin/contracts/utils/Context.sol\":656:752  function _msgSender() internal view virtual returns (address) {... */\n    tag_465:\n        /* \"@openzeppelin/contracts/utils/Context.sol\":709:716  address */\n      0x00\n        /* \"@openzeppelin/contracts/utils/Context.sol\":735:745  msg.sender */\n      caller\n        /* \"@openzeppelin/contracts/utils/Context.sol\":728:745  return msg.sender */\n      swap1\n      pop\n        /* \"@openzeppelin/contracts/utils/Context.sol\":656:752  function _msgSender() internal view virtual returns (address) {... */\n      swap1\n      jump\t// out\n        /* \"@openzeppelin/contracts/token/ERC20/utils/SafeERC20.sol\":7686:8406  function _callOptionalReturn(IERC20 token, bytes memory data) private {... */\n    tag_478:\n        /* \"@openzeppelin/contracts/token/ERC20/utils/SafeERC20.sol\":7766:7784  uint256 returnSize */\n      0x00\n        /* \"@openzeppelin/contracts/token/ERC20/utils/SafeERC20.sol\":7794:7813  uint256 returnValue */\n      dup1\n        /* \"@openzeppelin/contracts/token/ERC20/utils/SafeERC20.sol\":7932:7936  0x20 */\n      0x20\n        /* \"@openzeppelin/contracts/token/ERC20/utils/SafeERC20.sol\":7929:7930  0 */\n      0x00\n        /* \"@openzeppelin/contracts/token/ERC20/utils/SafeERC20.sol\":7922:7926  data */\n      dup5\n        /* \"@openzeppelin/contracts/token/ERC20/utils/SafeERC20.sol\":7916:7927  mload(data) */\n      mload\n        /* \"@openzeppelin/contracts/token/ERC20/utils/SafeERC20.sol\":7909:7913  0x20 */\n      0x20\n        /* \"@openzeppelin/contracts/token/ERC20/utils/SafeERC20.sol\":7903:7907  data */\n      dup7\n        /* \"@openzeppelin/contracts/token/ERC20/utils/SafeERC20.sol\":7899:7914  add(data, 0x20) */\n      add\n        /* \"@openzeppelin/contracts/token/ERC20/utils/SafeERC20.sol\":7896:7897  0 */\n      0x00\n        /* \"@openzeppelin/contracts/token/ERC20/utils/SafeERC20.sol\":7889:7894  token */\n      dup9\n        /* \"@openzeppelin/contracts/token/ERC20/utils/SafeERC20.sol\":7882:7887  gas() */\n      gas\n        /* \"@openzeppelin/contracts/token/ERC20/utils/SafeERC20.sol\":7877:7937  call(gas(), token, 0, add(data, 0x20), mload(data), 0, 0x20) */\n      call\n        /* \"@openzeppelin/contracts/token/ERC20/utils/SafeERC20.sol\":7989:7996  success */\n      dup1\n        /* \"@openzeppelin/contracts/token/ERC20/utils/SafeERC20.sol\":7979:8155  if iszero(success) {... */\n      tag_503\n      jumpi\n        /* \"@openzeppelin/contracts/token/ERC20/utils/SafeERC20.sol\":8033:8037  0x40 */\n      0x40\n        /* \"@openzeppelin/contracts/token/ERC20/utils/SafeERC20.sol\":8027:8038  mload(0x40) */\n      mload\n        /* \"@openzeppelin/contracts/token/ERC20/utils/SafeERC20.sol\":8078:8094  returndatasize() */\n      returndatasize\n        /* \"@openzeppelin/contracts/token/ERC20/utils/SafeERC20.sol\":8075:8076  0 */\n      0x00\n        /* \"@openzeppelin/contracts/token/ERC20/utils/SafeERC20.sol\":8070:8073  ptr */\n      dup3\n        /* \"@openzeppelin/contracts/token/ERC20/utils/SafeERC20.sol\":8055:8095  returndatacopy(ptr, 0, returndatasize()) */\n      returndatacopy\n        /* \"@openzeppelin/contracts/token/ERC20/utils/SafeERC20.sol\":8124:8140  returndatasize() */\n      returndatasize\n        /* \"@openzeppelin/contracts/token/ERC20/utils/SafeERC20.sol\":8119:8122  ptr */\n      dup2\n        /* \"@openzeppelin/contracts/token/ERC20/utils/SafeERC20.sol\":8112:8141  revert(ptr, returndatasize()) */\n      revert\n        /* \"@openzeppelin/contracts/token/ERC20/utils/SafeERC20.sol\":7979:8155  if iszero(success) {... */\n    tag_503:\n        /* \"@openzeppelin/contracts/token/ERC20/utils/SafeERC20.sol\":8182:8198  returndatasize() */\n      returndatasize\n        /* \"@openzeppelin/contracts/token/ERC20/utils/SafeERC20.sol\":8168:8198  returnSize := returndatasize() */\n      swap3\n      pop\n        /* \"@openzeppelin/contracts/token/ERC20/utils/SafeERC20.sol\":8232:8233  0 */\n      0x00\n        /* \"@openzeppelin/contracts/token/ERC20/utils/SafeERC20.sol\":8226:8234  mload(0) */\n      mload\n        /* \"@openzeppelin/contracts/token/ERC20/utils/SafeERC20.sol\":8211:8234  returnValue := mload(0) */\n      swap2\n      pop\n        /* \"@openzeppelin/contracts/token/ERC20/utils/SafeERC20.sol\":7848:8244  {... */\n      pop\n        /* \"@openzeppelin/contracts/token/ERC20/utils/SafeERC20.sol\":8272:8273  0 */\n      0x00\n        /* \"@openzeppelin/contracts/token/ERC20/utils/SafeERC20.sol\":8258:8268  returnSize */\n      dup3\n        /* \"@openzeppelin/contracts/token/ERC20/utils/SafeERC20.sol\":8258:8273  returnSize == 0 */\n      eq\n        /* \"@openzeppelin/contracts/token/ERC20/utils/SafeERC20.sol\":8258:8326  returnSize == 0 ? address(token).code.length == 0 : returnValue != 1 */\n      tag_504\n      jumpi\n        /* \"@openzeppelin/contracts/token/ERC20/utils/SafeERC20.sol\":8325:8326  1 */\n      0x01\n        /* \"@openzeppelin/contracts/token/ERC20/utils/SafeERC20.sol\":8310:8321  returnValue */\n      dup2\n        /* \"@openzeppelin/contracts/token/ERC20/utils/SafeERC20.sol\":8310:8326  returnValue != 1 */\n      eq\n      iszero\n        /* \"@openzeppelin/contracts/token/ERC20/utils/SafeERC20.sol\":8258:8326  returnSize == 0 ? address(token).code.length == 0 : returnValue != 1 */\n      jump(tag_505)\n    tag_504:\n        /* \"@openzeppelin/contracts/token/ERC20/utils/SafeERC20.sol\":8306:8307  0 */\n      0x00\n        /* \"@openzeppelin/contracts/token/ERC20/utils/SafeERC20.sol\":8284:8289  token */\n      dup5\n        /* \"@openzeppelin/contracts/token/ERC20/utils/SafeERC20.sol\":8276:8302  address(token).code.length */\n      0xffffffffffffffffffffffffffffffffffffffff\n      and\n      extcodesize\n        /* \"@openzeppelin/contracts/token/ERC20/utils/SafeERC20.sol\":8276:8307  address(token).code.length == 0 */\n      eq\n        /* \"@openzeppelin/contracts/token/ERC20/utils/SafeERC20.sol\":8258:8326  returnSize == 0 ? address(token).code.length == 0 : returnValue != 1 */\n    tag_505:\n        /* \"@openzeppelin/contracts/token/ERC20/utils/SafeERC20.sol\":8254:8400  if (returnSize == 0 ? address(token).code.length == 0 : returnValue != 1) {... */\n      iszero\n      tag_506\n      jumpi\n        /* \"@openzeppelin/contracts/token/ERC20/utils/SafeERC20.sol\":8382:8387  token */\n      dup4\n        /* \"@openzeppelin/contracts/token/ERC20/utils/SafeERC20.sol\":8349:8389  SafeERC20FailedOperation(address(token)) */\n      mload(0x40)\n      0x5274afe700000000000000000000000000000000000000000000000000000000\n      dup2\n      mstore\n      0x04\n      add\n      tag_507\n      swap2\n      swap1\n      tag_121\n      jump\t// in\n    tag_507:\n      mload(0x40)\n      dup1\n      swap2\n      sub\n      swap1\n      revert\n        /* \"@openzeppelin/contracts/token/ERC20/utils/SafeERC20.sol\":8254:8400  if (returnSize == 0 ? address(token).code.length == 0 : returnValue != 1) {... */\n    tag_506:\n        /* \"@openzeppelin/contracts/token/ERC20/utils/SafeERC20.sol\":7756:8406  {... */\n      pop\n      pop\n        /* \"@openzeppelin/contracts/token/ERC20/utils/SafeERC20.sol\":7686:8406  function _callOptionalReturn(IERC20 token, bytes memory data) private {... */\n      pop\n      pop\n      jump\t// out\n        /* \"@openzeppelin/contracts/utils/Pausable.sol\":2202:2328  function _requirePaused() internal view virtual {... */\n    tag_482:\n        /* \"@openzeppelin/contracts/utils/Pausable.sol\":2265:2273  paused() */\n      tag_509\n        /* \"@openzeppelin/contracts/utils/Pausable.sol\":2265:2271  paused */\n      tag_102\n        /* \"@openzeppelin/contracts/utils/Pausable.sol\":2265:2273  paused() */\n      jump\t// in\n    tag_509:\n        /* \"@openzeppelin/contracts/utils/Pausable.sol\":2260:2322  if (!paused()) {... */\n      tag_510\n      jumpi\n        /* \"@openzeppelin/contracts/utils/Pausable.sol\":2296:2311  ExpectedPause() */\n      mload(0x40)\n      0x8dfc202b00000000000000000000000000000000000000000000000000000000\n      dup2\n      mstore\n      0x04\n      add\n      mload(0x40)\n      dup1\n      swap2\n      sub\n      swap1\n      revert\n        /* \"@openzeppelin/contracts/utils/Pausable.sol\":2260:2322  if (!paused()) {... */\n    tag_510:\n        /* \"@openzeppelin/contracts/utils/Pausable.sol\":2202:2328  function _requirePaused() internal view virtual {... */\n      jump\t// out\n        /* \"#utility.yul\":88:205   */\n    tag_512:\n        /* \"#utility.yul\":197:198   */\n      0x00\n        /* \"#utility.yul\":194:195   */\n      dup1\n        /* \"#utility.yul\":187:199   */\n      revert\n        /* \"#utility.yul\":211:328   */\n    tag_513:\n        /* \"#utility.yul\":320:321   */\n      0x00\n        /* \"#utility.yul\":317:318   */\n      dup1\n        /* \"#utility.yul\":310:322   */\n      revert\n        /* \"#utility.yul\":334:460   */\n    tag_514:\n        /* \"#utility.yul\":371:378   */\n      0x00\n        /* \"#utility.yul\":411:453   */\n      0xffffffffffffffffffffffffffffffffffffffff\n        /* \"#utility.yul\":404:409   */\n      dup3\n        /* \"#utility.yul\":400:454   */\n      and\n        /* \"#utility.yul\":389:454   */\n      swap1\n      pop\n        /* \"#utility.yul\":334:460   */\n      swap2\n      swap1\n      pop\n      jump\t// out\n        /* \"#utility.yul\":466:562   */\n    tag_515:\n        /* \"#utility.yul\":503:510   */\n      0x00\n        /* \"#utility.yul\":532:556   */\n      tag_591\n        /* \"#utility.yul\":550:555   */\n      dup3\n        /* \"#utility.yul\":532:556   */\n      tag_514\n      jump\t// in\n    tag_591:\n        /* \"#utility.yul\":521:556   */\n      swap1\n      pop\n        /* \"#utility.yul\":466:562   */\n      swap2\n      swap1\n      pop\n      jump\t// out\n        /* \"#utility.yul\":568:690   */\n    tag_516:\n        /* \"#utility.yul\":641:665   */\n      tag_593\n        /* \"#utility.yul\":659:664   */\n      dup2\n        /* \"#utility.yul\":641:665   */\n      tag_515\n      jump\t// in\n    tag_593:\n        /* \"#utility.yul\":634:639   */\n      dup2\n        /* \"#utility.yul\":631:666   */\n      eq\n        /* \"#utility.yul\":621:684   */\n      tag_594\n      jumpi\n        /* \"#utility.yul\":680:681   */\n      0x00\n        /* \"#utility.yul\":677:678   */\n      dup1\n        /* \"#utility.yul\":670:682   */\n      revert\n        /* \"#utility.yul\":621:684   */\n    tag_594:\n        /* \"#utility.yul\":568:690   */\n      pop\n      jump\t// out\n        /* \"#utility.yul\":696:835   */\n    tag_517:\n        /* \"#utility.yul\":742:747   */\n      0x00\n        /* \"#utility.yul\":780:786   */\n      dup2\n        /* \"#utility.yul\":767:787   */\n      calldataload\n        /* \"#utility.yul\":758:787   */\n      swap1\n      pop\n        /* \"#utility.yul\":796:829   */\n      tag_596\n        /* \"#utility.yul\":823:828   */\n      dup2\n        /* \"#utility.yul\":796:829   */\n      tag_516\n      jump\t// in\n    tag_596:\n        /* \"#utility.yul\":696:835   */\n      swap3\n      swap2\n      pop\n      pop\n      jump\t// out\n        /* \"#utility.yul\":841:1315   */\n    tag_49:\n        /* \"#utility.yul\":909:915   */\n      0x00\n        /* \"#utility.yul\":917:923   */\n      dup1\n        /* \"#utility.yul\":966:968   */\n      0x40\n        /* \"#utility.yul\":954:963   */\n      dup4\n        /* \"#utility.yul\":945:952   */\n      dup6\n        /* \"#utility.yul\":941:964   */\n      sub\n        /* \"#utility.yul\":937:969   */\n      slt\n        /* \"#utility.yul\":934:1053   */\n      iszero\n      tag_598\n      jumpi\n        /* \"#utility.yul\":972:1051   */\n      tag_599\n      tag_512\n      jump\t// in\n    tag_599:\n        /* \"#utility.yul\":934:1053   */\n    tag_598:\n        /* \"#utility.yul\":1092:1093   */\n      0x00\n        /* \"#utility.yul\":1117:1170   */\n      tag_600\n        /* \"#utility.yul\":1162:1169   */\n      dup6\n        /* \"#utility.yul\":1153:1159   */\n      dup3\n        /* \"#utility.yul\":1142:1151   */\n      dup7\n        /* \"#utility.yul\":1138:1160   */\n      add\n        /* \"#utility.yul\":1117:1170   */\n      tag_517\n      jump\t// in\n    tag_600:\n        /* \"#utility.yul\":1107:1170   */\n      swap3\n      pop\n        /* \"#utility.yul\":1063:1180   */\n      pop\n        /* \"#utility.yul\":1219:1221   */\n      0x20\n        /* \"#utility.yul\":1245:1298   */\n      tag_601\n        /* \"#utility.yul\":1290:1297   */\n      dup6\n        /* \"#utility.yul\":1281:1287   */\n      dup3\n        /* \"#utility.yul\":1270:1279   */\n      dup7\n        /* \"#utility.yul\":1266:1288   */\n      add\n        /* \"#utility.yul\":1245:1298   */\n      tag_517\n      jump\t// in\n    tag_601:\n        /* \"#utility.yul\":1235:1298   */\n      swap2\n      pop\n        /* \"#utility.yul\":1190:1308   */\n      pop\n        /* \"#utility.yul\":841:1315   */\n      swap3\n      pop\n      swap3\n      swap1\n      pop\n      jump\t// out\n        /* \"#utility.yul\":1321:1398   */\n    tag_518:\n        /* \"#utility.yul\":1358:1365   */\n      0x00\n        /* \"#utility.yul\":1387:1392   */\n      dup2\n        /* \"#utility.yul\":1376:1392   */\n      swap1\n      pop\n        /* \"#utility.yul\":1321:1398   */\n      swap2\n      swap1\n      pop\n      jump\t// out\n        /* \"#utility.yul\":1404:1522   */\n    tag_519:\n        /* \"#utility.yul\":1491:1515   */\n      tag_604\n        /* \"#utility.yul\":1509:1514   */\n      dup2\n        /* \"#utility.yul\":1491:1515   */\n      tag_518\n      jump\t// in\n    tag_604:\n        /* \"#utility.yul\":1486:1489   */\n      dup3\n        /* \"#utility.yul\":1479:1516   */\n      mstore\n        /* \"#utility.yul\":1404:1522   */\n      pop\n      pop\n      jump\t// out\n        /* \"#utility.yul\":1528:1750   */\n    tag_52:\n        /* \"#utility.yul\":1621:1625   */\n      0x00\n        /* \"#utility.yul\":1659:1661   */\n      0x20\n        /* \"#utility.yul\":1648:1657   */\n      dup3\n        /* \"#utility.yul\":1644:1662   */\n      add\n        /* \"#utility.yul\":1636:1662   */\n      swap1\n      pop\n        /* \"#utility.yul\":1672:1743   */\n      tag_606\n        /* \"#utility.yul\":1740:1741   */\n      0x00\n        /* \"#utility.yul\":1729:1738   */\n      dup4\n        /* \"#utility.yul\":1725:1742   */\n      add\n        /* \"#utility.yul\":1716:1722   */\n      dup5\n        /* \"#utility.yul\":1672:1743   */\n      tag_519\n      jump\t// in\n    tag_606:\n        /* \"#utility.yul\":1528:1750   */\n      swap3\n      swap2\n      pop\n      pop\n      jump\t// out\n        /* \"#utility.yul\":1756:1878   */\n    tag_520:\n        /* \"#utility.yul\":1829:1853   */\n      tag_608\n        /* \"#utility.yul\":1847:1852   */\n      dup2\n        /* \"#utility.yul\":1829:1853   */\n      tag_518\n      jump\t// in\n    tag_608:\n        /* \"#utility.yul\":1822:1827   */\n      dup2\n        /* \"#utility.yul\":1819:1854   */\n      eq\n        /* \"#utility.yul\":1809:1872   */\n      tag_609\n      jumpi\n        /* \"#utility.yul\":1868:1869   */\n      0x00\n        /* \"#utility.yul\":1865:1866   */\n      dup1\n        /* \"#utility.yul\":1858:1870   */\n      revert\n        /* \"#utility.yul\":1809:1872   */\n    tag_609:\n        /* \"#utility.yul\":1756:1878   */\n      pop\n      jump\t// out\n        /* \"#utility.yul\":1884:2023   */\n    tag_521:\n        /* \"#utility.yul\":1930:1935   */\n      0x00\n        /* \"#utility.yul\":1968:1974   */\n      dup2\n        /* \"#utility.yul\":1955:1975   */\n      calldataload\n        /* \"#utility.yul\":1946:1975   */\n      swap1\n      pop\n        /* \"#utility.yul\":1984:2017   */\n      tag_611\n        /* \"#utility.yul\":2011:2016   */\n      dup2\n        /* \"#utility.yul\":1984:2017   */\n      tag_520\n      jump\t// in\n    tag_611:\n        /* \"#utility.yul\":1884:2023   */\n      swap3\n      swap2\n      pop\n      pop\n      jump\t// out\n        /* \"#utility.yul\":2029:2146   */\n    tag_522:\n        /* \"#utility.yul\":2138:2139   */\n      0x00\n        /* \"#utility.yul\":2135:2136   */\n      dup1\n        /* \"#utility.yul\":2128:2140   */\n      revert\n        /* \"#utility.yul\":2152:2269   */\n    tag_523:\n        /* \"#utility.yul\":2261:2262   */\n      0x00\n        /* \"#utility.yul\":2258:2259   */\n      dup1\n        /* \"#utility.yul\":2251:2263   */\n      revert\n        /* \"#utility.yul\":2275:2392   */\n    tag_524:\n        /* \"#utility.yul\":2384:2385   */\n      0x00\n        /* \"#utility.yul\":2381:2382   */\n      dup1\n        /* \"#utility.yul\":2374:2386   */\n      revert\n        /* \"#utility.yul\":2411:2963   */\n    tag_525:\n        /* \"#utility.yul\":2468:2476   */\n      0x00\n        /* \"#utility.yul\":2478:2484   */\n      dup1\n        /* \"#utility.yul\":2528:2531   */\n      dup4\n        /* \"#utility.yul\":2521:2525   */\n      0x1f\n        /* \"#utility.yul\":2513:2519   */\n      dup5\n        /* \"#utility.yul\":2509:2526   */\n      add\n        /* \"#utility.yul\":2505:2532   */\n      slt\n        /* \"#utility.yul\":2495:2617   */\n      tag_616\n      jumpi\n        /* \"#utility.yul\":2536:2615   */\n      tag_617\n      tag_522\n      jump\t// in\n    tag_617:\n        /* \"#utility.yul\":2495:2617   */\n    tag_616:\n        /* \"#utility.yul\":2649:2655   */\n      dup3\n        /* \"#utility.yul\":2636:2656   */\n      calldataload\n        /* \"#utility.yul\":2626:2656   */\n      swap1\n      pop\n        /* \"#utility.yul\":2679:2697   */\n      0xffffffffffffffff\n        /* \"#utility.yul\":2671:2677   */\n      dup2\n        /* \"#utility.yul\":2668:2698   */\n      gt\n        /* \"#utility.yul\":2665:2782   */\n      iszero\n      tag_618\n      jumpi\n        /* \"#utility.yul\":2701:2780   */\n      tag_619\n      tag_523\n      jump\t// in\n    tag_619:\n        /* \"#utility.yul\":2665:2782   */\n    tag_618:\n        /* \"#utility.yul\":2815:2819   */\n      0x20\n        /* \"#utility.yul\":2807:2813   */\n      dup4\n        /* \"#utility.yul\":2803:2820   */\n      add\n        /* \"#utility.yul\":2791:2820   */\n      swap2\n      pop\n        /* \"#utility.yul\":2869:2872   */\n      dup4\n        /* \"#utility.yul\":2861:2865   */\n      0x01\n        /* \"#utility.yul\":2853:2859   */\n      dup3\n        /* \"#utility.yul\":2849:2866   */\n      mul\n        /* \"#utility.yul\":2839:2847   */\n      dup4\n        /* \"#utility.yul\":2835:2867   */\n      add\n        /* \"#utility.yul\":2832:2873   */\n      gt\n        /* \"#utility.yul\":2829:2957   */\n      iszero\n      tag_620\n      jumpi\n        /* \"#utility.yul\":2876:2955   */\n      tag_621\n      tag_524\n      jump\t// in\n    tag_621:\n        /* \"#utility.yul\":2829:2957   */\n    tag_620:\n        /* \"#utility.yul\":2411:2963   */\n      swap3\n      pop\n      swap3\n      swap1\n      pop\n      jump\t// out\n        /* \"#utility.yul\":2969:3932   */\n    tag_56:\n        /* \"#utility.yul\":3066:3072   */\n      0x00\n        /* \"#utility.yul\":3074:3080   */\n      dup1\n        /* \"#utility.yul\":3082:3088   */\n      0x00\n        /* \"#utility.yul\":3090:3096   */\n      dup1\n        /* \"#utility.yul\":3098:3104   */\n      0x00\n        /* \"#utility.yul\":3147:3150   */\n      0x80\n        /* \"#utility.yul\":3135:3144   */\n      dup7\n        /* \"#utility.yul\":3126:3133   */\n      dup9\n        /* \"#utility.yul\":3122:3145   */\n      sub\n        /* \"#utility.yul\":3118:3151   */\n      slt\n        /* \"#utility.yul\":3115:3235   */\n      iszero\n      tag_623\n      jumpi\n        /* \"#utility.yul\":3154:3233   */\n      tag_624\n      tag_512\n      jump\t// in\n    tag_624:\n        /* \"#utility.yul\":3115:3235   */\n    tag_623:\n        /* \"#utility.yul\":3274:3275   */\n      0x00\n        /* \"#utility.yul\":3299:3352   */\n      tag_625\n        /* \"#utility.yul\":3344:3351   */\n      dup9\n        /* \"#utility.yul\":3335:3341   */\n      dup3\n        /* \"#utility.yul\":3324:3333   */\n      dup10\n        /* \"#utility.yul\":3320:3342   */\n      add\n        /* \"#utility.yul\":3299:3352   */\n      tag_517\n      jump\t// in\n    tag_625:\n        /* \"#utility.yul\":3289:3352   */\n      swap6\n      pop\n        /* \"#utility.yul\":3245:3362   */\n      pop\n        /* \"#utility.yul\":3401:3403   */\n      0x20\n        /* \"#utility.yul\":3427:3480   */\n      tag_626\n        /* \"#utility.yul\":3472:3479   */\n      dup9\n        /* \"#utility.yul\":3463:3469   */\n      dup3\n        /* \"#utility.yul\":3452:3461   */\n      dup10\n        /* \"#utility.yul\":3448:3470   */\n      add\n        /* \"#utility.yul\":3427:3480   */\n      tag_517\n      jump\t// in\n    tag_626:\n        /* \"#utility.yul\":3417:3480   */\n      swap5\n      pop\n        /* \"#utility.yul\":3372:3490   */\n      pop\n        /* \"#utility.yul\":3529:3531   */\n      0x40\n        /* \"#utility.yul\":3555:3608   */\n      tag_627\n        /* \"#utility.yul\":3600:3607   */\n      dup9\n        /* \"#utility.yul\":3591:3597   */\n      dup3\n        /* \"#utility.yul\":3580:3589   */\n      dup10\n        /* \"#utility.yul\":3576:3598   */\n      add\n        /* \"#utility.yul\":3555:3608   */\n      tag_521\n      jump\t// in\n    tag_627:\n        /* \"#utility.yul\":3545:3608   */\n      swap4\n      pop\n        /* \"#utility.yul\":3500:3618   */\n      pop\n        /* \"#utility.yul\":3685:3687   */\n      0x60\n        /* \"#utility.yul\":3674:3683   */\n      dup7\n        /* \"#utility.yul\":3670:3688   */\n      add\n        /* \"#utility.yul\":3657:3689   */\n      calldataload\n        /* \"#utility.yul\":3716:3734   */\n      0xffffffffffffffff\n        /* \"#utility.yul\":3708:3714   */\n      dup2\n        /* \"#utility.yul\":3705:3735   */\n      gt\n        /* \"#utility.yul\":3702:3819   */\n      iszero\n      tag_628\n      jumpi\n        /* \"#utility.yul\":3738:3817   */\n      tag_629\n      tag_513\n      jump\t// in\n    tag_629:\n        /* \"#utility.yul\":3702:3819   */\n    tag_628:\n        /* \"#utility.yul\":3851:3915   */\n      tag_630\n        /* \"#utility.yul\":3907:3914   */\n      dup9\n        /* \"#utility.yul\":3898:3904   */\n      dup3\n        /* \"#utility.yul\":3887:3896   */\n      dup10\n        /* \"#utility.yul\":3883:3905   */\n      add\n        /* \"#utility.yul\":3851:3915   */\n      tag_525\n      jump\t// in\n    tag_630:\n        /* \"#utility.yul\":3833:3915   */\n      swap3\n      pop\n      swap3\n      pop\n        /* \"#utility.yul\":3628:3925   */\n      pop\n        /* \"#utility.yul\":2969:3932   */\n      swap3\n      swap6\n      pop\n      swap3\n      swap6\n      swap1\n      swap4\n      pop\n      jump\t// out\n        /* \"#utility.yul\":3938:4087   */\n    tag_526:\n        /* \"#utility.yul\":3974:3981   */\n      0x00\n        /* \"#utility.yul\":4014:4080   */\n      0xffffffff00000000000000000000000000000000000000000000000000000000\n        /* \"#utility.yul\":4007:4012   */\n      dup3\n        /* \"#utility.yul\":4003:4081   */\n      and\n        /* \"#utility.yul\":3992:4081   */\n      swap1\n      pop\n        /* \"#utility.yul\":3938:4087   */\n      swap2\n      swap1\n      pop\n      jump\t// out\n        /* \"#utility.yul\":4093:4208   */\n    tag_527:\n        /* \"#utility.yul\":4178:4201   */\n      tag_633\n        /* \"#utility.yul\":4195:4200   */\n      dup2\n        /* \"#utility.yul\":4178:4201   */\n      tag_526\n      jump\t// in\n    tag_633:\n        /* \"#utility.yul\":4173:4176   */\n      dup3\n        /* \"#utility.yul\":4166:4202   */\n      mstore\n        /* \"#utility.yul\":4093:4208   */\n      pop\n      pop\n      jump\t// out\n        /* \"#utility.yul\":4214:4432   */\n    tag_59:\n        /* \"#utility.yul\":4305:4309   */\n      0x00\n        /* \"#utility.yul\":4343:4345   */\n      0x20\n        /* \"#utility.yul\":4332:4341   */\n      dup3\n        /* \"#utility.yul\":4328:4346   */\n      add\n        /* \"#utility.yul\":4320:4346   */\n      swap1\n      pop\n        /* \"#utility.yul\":4356:4425   */\n      tag_635\n        /* \"#utility.yul\":4422:4423   */\n      0x00\n        /* \"#utility.yul\":4411:4420   */\n      dup4\n        /* \"#utility.yul\":4407:4424   */\n      add\n        /* \"#utility.yul\":4398:4404   */\n      dup5\n        /* \"#utility.yul\":4356:4425   */\n      tag_527\n      jump\t// in\n    tag_635:\n        /* \"#utility.yul\":4214:4432   */\n      swap3\n      swap2\n      pop\n      pop\n      jump\t// out\n        /* \"#utility.yul\":4438:4767   */\n    tag_63:\n        /* \"#utility.yul\":4497:4503   */\n      0x00\n        /* \"#utility.yul\":4546:4548   */\n      0x20\n        /* \"#utility.yul\":4534:4543   */\n      dup3\n        /* \"#utility.yul\":4525:4532   */\n      dup5\n        /* \"#utility.yul\":4521:4544   */\n      sub\n        /* \"#utility.yul\":4517:4549   */\n      slt\n        /* \"#utility.yul\":4514:4633   */\n      iszero\n      tag_637\n      jumpi\n        /* \"#utility.yul\":4552:4631   */\n      tag_638\n      tag_512\n      jump\t// in\n    tag_638:\n        /* \"#utility.yul\":4514:4633   */\n    tag_637:\n        /* \"#utility.yul\":4672:4673   */\n      0x00\n        /* \"#utility.yul\":4697:4750   */\n      tag_639\n        /* \"#utility.yul\":4742:4749   */\n      dup5\n        /* \"#utility.yul\":4733:4739   */\n      dup3\n        /* \"#utility.yul\":4722:4731   */\n      dup6\n        /* \"#utility.yul\":4718:4740   */\n      add\n        /* \"#utility.yul\":4697:4750   */\n      tag_517\n      jump\t// in\n    tag_639:\n        /* \"#utility.yul\":4687:4750   */\n      swap2\n      pop\n        /* \"#utility.yul\":4643:4760   */\n      pop\n        /* \"#utility.yul\":4438:4767   */\n      swap3\n      swap2\n      pop\n      pop\n      jump\t// out\n        /* \"#utility.yul\":4773:5102   */\n    tag_72:\n        /* \"#utility.yul\":4832:4838   */\n      0x00\n        /* \"#utility.yul\":4881:4883   */\n      0x20\n        /* \"#utility.yul\":4869:4878   */\n      dup3\n        /* \"#utility.yul\":4860:4867   */\n      dup5\n        /* \"#utility.yul\":4856:4879   */\n      sub\n        /* \"#utility.yul\":4852:4884   */\n      slt\n        /* \"#utility.yul\":4849:4968   */\n      iszero\n      tag_641\n      jumpi\n        /* \"#utility.yul\":4887:4966   */\n      tag_642\n      tag_512\n      jump\t// in\n    tag_642:\n        /* \"#utility.yul\":4849:4968   */\n    tag_641:\n        /* \"#utility.yul\":5007:5008   */\n      0x00\n        /* \"#utility.yul\":5032:5085   */\n      tag_643\n        /* \"#utility.yul\":5077:5084   */\n      dup5\n        /* \"#utility.yul\":5068:5074   */\n      dup3\n        /* \"#utility.yul\":5057:5066   */\n      dup6\n        /* \"#utility.yul\":5053:5075   */\n      add\n        /* \"#utility.yul\":5032:5085   */\n      tag_521\n      jump\t// in\n    tag_643:\n        /* \"#utility.yul\":5022:5085   */\n      swap2\n      pop\n        /* \"#utility.yul\":4978:5095   */\n      pop\n        /* \"#utility.yul\":4773:5102   */\n      swap3\n      swap2\n      pop\n      pop\n      jump\t// out\n        /* \"#utility.yul\":5108:5198   */\n    tag_528:\n        /* \"#utility.yul\":5142:5149   */\n      0x00\n        /* \"#utility.yul\":5185:5190   */\n      dup2\n        /* \"#utility.yul\":5178:5191   */\n      iszero\n        /* \"#utility.yul\":5171:5192   */\n      iszero\n        /* \"#utility.yul\":5160:5192   */\n      swap1\n      pop\n        /* \"#utility.yul\":5108:5198   */\n      swap2\n      swap1\n      pop\n      jump\t// out\n        /* \"#utility.yul\":5204:5313   */\n    tag_529:\n        /* \"#utility.yul\":5285:5306   */\n      tag_646\n        /* \"#utility.yul\":5300:5305   */\n      dup2\n        /* \"#utility.yul\":5285:5306   */\n      tag_528\n      jump\t// in\n    tag_646:\n        /* \"#utility.yul\":5280:5283   */\n      dup3\n        /* \"#utility.yul\":5273:5307   */\n      mstore\n        /* \"#utility.yul\":5204:5313   */\n      pop\n      pop\n      jump\t// out\n        /* \"#utility.yul\":5319:5529   */\n    tag_104:\n        /* \"#utility.yul\":5406:5410   */\n      0x00\n        /* \"#utility.yul\":5444:5446   */\n      0x20\n        /* \"#utility.yul\":5433:5442   */\n      dup3\n        /* \"#utility.yul\":5429:5447   */\n      add\n        /* \"#utility.yul\":5421:5447   */\n      swap1\n      pop\n        /* \"#utility.yul\":5457:5522   */\n      tag_648\n        /* \"#utility.yul\":5519:5520   */\n      0x00\n        /* \"#utility.yul\":5508:5517   */\n      dup4\n        /* \"#utility.yul\":5504:5521   */\n      add\n        /* \"#utility.yul\":5495:5501   */\n      dup5\n        /* \"#utility.yul\":5457:5522   */\n      tag_529\n      jump\t// in\n    tag_648:\n        /* \"#utility.yul\":5319:5529   */\n      swap3\n      swap2\n      pop\n      pop\n      jump\t// out\n        /* \"#utility.yul\":5535:6154   */\n    tag_108:\n        /* \"#utility.yul\":5612:5618   */\n      0x00\n        /* \"#utility.yul\":5620:5626   */\n      dup1\n        /* \"#utility.yul\":5628:5634   */\n      0x00\n        /* \"#utility.yul\":5677:5679   */\n      0x60\n        /* \"#utility.yul\":5665:5674   */\n      dup5\n        /* \"#utility.yul\":5656:5663   */\n      dup7\n        /* \"#utility.yul\":5652:5675   */\n      sub\n        /* \"#utility.yul\":5648:5680   */\n      slt\n        /* \"#utility.yul\":5645:5764   */\n      iszero\n      tag_650\n      jumpi\n        /* \"#utility.yul\":5683:5762   */\n      tag_651\n      tag_512\n      jump\t// in\n    tag_651:\n        /* \"#utility.yul\":5645:5764   */\n    tag_650:\n        /* \"#utility.yul\":5803:5804   */\n      0x00\n        /* \"#utility.yul\":5828:5881   */\n      tag_652\n        /* \"#utility.yul\":5873:5880   */\n      dup7\n        /* \"#utility.yul\":5864:5870   */\n      dup3\n        /* \"#utility.yul\":5853:5862   */\n      dup8\n        /* \"#utility.yul\":5849:5871   */\n      add\n        /* \"#utility.yul\":5828:5881   */\n      tag_521\n      jump\t// in\n    tag_652:\n        /* \"#utility.yul\":5818:5881   */\n      swap4\n      pop\n        /* \"#utility.yul\":5774:5891   */\n      pop\n        /* \"#utility.yul\":5930:5932   */\n      0x20\n        /* \"#utility.yul\":5956:6009   */\n      tag_653\n        /* \"#utility.yul\":6001:6008   */\n      dup7\n        /* \"#utility.yul\":5992:5998   */\n      dup3\n        /* \"#utility.yul\":5981:5990   */\n      dup8\n        /* \"#utility.yul\":5977:5999   */\n      add\n        /* \"#utility.yul\":5956:6009   */\n      tag_517\n      jump\t// in\n    tag_653:\n        /* \"#utility.yul\":5946:6009   */\n      swap3\n      pop\n        /* \"#utility.yul\":5901:6019   */\n      pop\n        /* \"#utility.yul\":6058:6060   */\n      0x40\n        /* \"#utility.yul\":6084:6137   */\n      tag_654\n        /* \"#utility.yul\":6129:6136   */\n      dup7\n        /* \"#utility.yul\":6120:6126   */\n      dup3\n        /* \"#utility.yul\":6109:6118   */\n      dup8\n        /* \"#utility.yul\":6105:6127   */\n      add\n        /* \"#utility.yul\":6084:6137   */\n      tag_521\n      jump\t// in\n    tag_654:\n        /* \"#utility.yul\":6074:6137   */\n      swap2\n      pop\n        /* \"#utility.yul\":6029:6147   */\n      pop\n        /* \"#utility.yul\":5535:6154   */\n      swap3\n      pop\n      swap3\n      pop\n      swap3\n      jump\t// out\n        /* \"#utility.yul\":6160:6278   */\n    tag_530:\n        /* \"#utility.yul\":6247:6271   */\n      tag_656\n        /* \"#utility.yul\":6265:6270   */\n      dup2\n        /* \"#utility.yul\":6247:6271   */\n      tag_515\n      jump\t// in\n    tag_656:\n        /* \"#utility.yul\":6242:6245   */\n      dup3\n        /* \"#utility.yul\":6235:6272   */\n      mstore\n        /* \"#utility.yul\":6160:6278   */\n      pop\n      pop\n      jump\t// out\n        /* \"#utility.yul\":6284:6506   */\n    tag_121:\n        /* \"#utility.yul\":6377:6381   */\n      0x00\n        /* \"#utility.yul\":6415:6417   */\n      0x20\n        /* \"#utility.yul\":6404:6413   */\n      dup3\n        /* \"#utility.yul\":6400:6418   */\n      add\n        /* \"#utility.yul\":6392:6418   */\n      swap1\n      pop\n        /* \"#utility.yul\":6428:6499   */\n      tag_658\n        /* \"#utility.yul\":6496:6497   */\n      0x00\n        /* \"#utility.yul\":6485:6494   */\n      dup4\n        /* \"#utility.yul\":6481:6498   */\n      add\n        /* \"#utility.yul\":6472:6478   */\n      dup5\n        /* \"#utility.yul\":6428:6499   */\n      tag_530\n      jump\t// in\n    tag_658:\n        /* \"#utility.yul\":6284:6506   */\n      swap3\n      swap2\n      pop\n      pop\n      jump\t// out\n        /* \"#utility.yul\":6512:7131   */\n    tag_148:\n        /* \"#utility.yul\":6589:6595   */\n      0x00\n        /* \"#utility.yul\":6597:6603   */\n      dup1\n        /* \"#utility.yul\":6605:6611   */\n      0x00\n        /* \"#utility.yul\":6654:6656   */\n      0x60\n        /* \"#utility.yul\":6642:6651   */\n      dup5\n        /* \"#utility.yul\":6633:6640   */\n      dup7\n        /* \"#utility.yul\":6629:6652   */\n      sub\n        /* \"#utility.yul\":6625:6657   */\n      slt\n        /* \"#utility.yul\":6622:6741   */\n      iszero\n      tag_660\n      jumpi\n        /* \"#utility.yul\":6660:6739   */\n      tag_661\n      tag_512\n      jump\t// in\n    tag_661:\n        /* \"#utility.yul\":6622:6741   */\n    tag_660:\n        /* \"#utility.yul\":6780:6781   */\n      0x00\n        /* \"#utility.yul\":6805:6858   */\n      tag_662\n        /* \"#utility.yul\":6850:6857   */\n      dup7\n        /* \"#utility.yul\":6841:6847   */\n      dup3\n        /* \"#utility.yul\":6830:6839   */\n      dup8\n        /* \"#utility.yul\":6826:6848   */\n      add\n        /* \"#utility.yul\":6805:6858   */\n      tag_521\n      jump\t// in\n    tag_662:\n        /* \"#utility.yul\":6795:6858   */\n      swap4\n      pop\n        /* \"#utility.yul\":6751:6868   */\n      pop\n        /* \"#utility.yul\":6907:6909   */\n      0x20\n        /* \"#utility.yul\":6933:6986   */\n      tag_663\n        /* \"#utility.yul\":6978:6985   */\n      dup7\n        /* \"#utility.yul\":6969:6975   */\n      dup3\n        /* \"#utility.yul\":6958:6967   */\n      dup8\n        /* \"#utility.yul\":6954:6976   */\n      add\n        /* \"#utility.yul\":6933:6986   */\n      tag_521\n      jump\t// in\n    tag_663:\n        /* \"#utility.yul\":6923:6986   */\n      swap3\n      pop\n        /* \"#utility.yul\":6878:6996   */\n      pop\n        /* \"#utility.yul\":7035:7037   */\n      0x40\n        /* \"#utility.yul\":7061:7114   */\n      tag_664\n        /* \"#utility.yul\":7106:7113   */\n      dup7\n        /* \"#utility.yul\":7097:7103   */\n      dup3\n        /* \"#utility.yul\":7086:7095   */\n      dup8\n        /* \"#utility.yul\":7082:7104   */\n      add\n        /* \"#utility.yul\":7061:7114   */\n      tag_517\n      jump\t// in\n    tag_664:\n        /* \"#utility.yul\":7051:7114   */\n      swap2\n      pop\n        /* \"#utility.yul\":7006:7124   */\n      pop\n        /* \"#utility.yul\":6512:7131   */\n      swap3\n      pop\n      swap3\n      pop\n      swap3\n      jump\t// out\n        /* \"#utility.yul\":7137:7789   */\n    tag_175:\n        /* \"#utility.yul\":7336:7340   */\n      0x00\n        /* \"#utility.yul\":7374:7377   */\n      0xa0\n        /* \"#utility.yul\":7363:7372   */\n      dup3\n        /* \"#utility.yul\":7359:7378   */\n      add\n        /* \"#utility.yul\":7351:7378   */\n      swap1\n      pop\n        /* \"#utility.yul\":7388:7459   */\n      tag_666\n        /* \"#utility.yul\":7456:7457   */\n      0x00\n        /* \"#utility.yul\":7445:7454   */\n      dup4\n        /* \"#utility.yul\":7441:7458   */\n      add\n        /* \"#utility.yul\":7432:7438   */\n      dup9\n        /* \"#utility.yul\":7388:7459   */\n      tag_530\n      jump\t// in\n    tag_666:\n        /* \"#utility.yul\":7469:7541   */\n      tag_667\n        /* \"#utility.yul\":7537:7539   */\n      0x20\n        /* \"#utility.yul\":7526:7535   */\n      dup4\n        /* \"#utility.yul\":7522:7540   */\n      add\n        /* \"#utility.yul\":7513:7519   */\n      dup8\n        /* \"#utility.yul\":7469:7541   */\n      tag_519\n      jump\t// in\n    tag_667:\n        /* \"#utility.yul\":7551:7623   */\n      tag_668\n        /* \"#utility.yul\":7619:7621   */\n      0x40\n        /* \"#utility.yul\":7608:7617   */\n      dup4\n        /* \"#utility.yul\":7604:7622   */\n      add\n        /* \"#utility.yul\":7595:7601   */\n      dup7\n        /* \"#utility.yul\":7551:7623   */\n      tag_530\n      jump\t// in\n    tag_668:\n        /* \"#utility.yul\":7633:7705   */\n      tag_669\n        /* \"#utility.yul\":7701:7703   */\n      0x60\n        /* \"#utility.yul\":7690:7699   */\n      dup4\n        /* \"#utility.yul\":7686:7704   */\n      add\n        /* \"#utility.yul\":7677:7683   */\n      dup6\n        /* \"#utility.yul\":7633:7705   */\n      tag_519\n      jump\t// in\n    tag_669:\n        /* \"#utility.yul\":7715:7782   */\n      tag_670\n        /* \"#utility.yul\":7777:7780   */\n      0x80\n        /* \"#utility.yul\":7766:7775   */\n      dup4\n        /* \"#utility.yul\":7762:7781   */\n      add\n        /* \"#utility.yul\":7753:7759   */\n      dup5\n        /* \"#utility.yul\":7715:7782   */\n      tag_529\n      jump\t// in\n    tag_670:\n        /* \"#utility.yul\":7137:7789   */\n      swap7\n      swap6\n      pop\n      pop\n      pop\n      pop\n      pop\n      pop\n      jump\t// out\n        /* \"#utility.yul\":7795:8127   */\n    tag_193:\n        /* \"#utility.yul\":7916:7920   */\n      0x00\n        /* \"#utility.yul\":7954:7956   */\n      0x40\n        /* \"#utility.yul\":7943:7952   */\n      dup3\n        /* \"#utility.yul\":7939:7957   */\n      add\n        /* \"#utility.yul\":7931:7957   */\n      swap1\n      pop\n        /* \"#utility.yul\":7967:8038   */\n      tag_672\n        /* \"#utility.yul\":8035:8036   */\n      0x00\n        /* \"#utility.yul\":8024:8033   */\n      dup4\n        /* \"#utility.yul\":8020:8037   */\n      add\n        /* \"#utility.yul\":8011:8017   */\n      dup6\n        /* \"#utility.yul\":7967:8038   */\n      tag_530\n      jump\t// in\n    tag_672:\n        /* \"#utility.yul\":8048:8120   */\n      tag_673\n        /* \"#utility.yul\":8116:8118   */\n      0x20\n        /* \"#utility.yul\":8105:8114   */\n      dup4\n        /* \"#utility.yul\":8101:8119   */\n      add\n        /* \"#utility.yul\":8092:8098   */\n      dup5\n        /* \"#utility.yul\":8048:8120   */\n      tag_519\n      jump\t// in\n    tag_673:\n        /* \"#utility.yul\":7795:8127   */\n      swap4\n      swap3\n      pop\n      pop\n      pop\n      jump\t// out\n        /* \"#utility.yul\":8133:8302   */\n    tag_531:\n        /* \"#utility.yul\":8217:8228   */\n      0x00\n        /* \"#utility.yul\":8251:8257   */\n      dup3\n        /* \"#utility.yul\":8246:8249   */\n      dup3\n        /* \"#utility.yul\":8239:8258   */\n      mstore\n        /* \"#utility.yul\":8291:8295   */\n      0x20\n        /* \"#utility.yul\":8286:8289   */\n      dup3\n        /* \"#utility.yul\":8282:8296   */\n      add\n        /* \"#utility.yul\":8267:8296   */\n      swap1\n      pop\n        /* \"#utility.yul\":8133:8302   */\n      swap3\n      swap2\n      pop\n      pop\n      jump\t// out\n        /* \"#utility.yul\":8308:8473   */\n    tag_532:\n        /* \"#utility.yul\":8448:8465   */\n      0x496e76616c696420616464726573730000000000000000000000000000000000\n        /* \"#utility.yul\":8444:8445   */\n      0x00\n        /* \"#utility.yul\":8436:8442   */\n      dup3\n        /* \"#utility.yul\":8432:8446   */\n      add\n        /* \"#utility.yul\":8425:8466   */\n      mstore\n        /* \"#utility.yul\":8308:8473   */\n      pop\n      jump\t// out\n        /* \"#utility.yul\":8479:8845   */\n    tag_533:\n        /* \"#utility.yul\":8621:8624   */\n      0x00\n        /* \"#utility.yul\":8642:8709   */\n      tag_677\n        /* \"#utility.yul\":8706:8708   */\n      0x0f\n        /* \"#utility.yul\":8701:8704   */\n      dup4\n        /* \"#utility.yul\":8642:8709   */\n      tag_531\n      jump\t// in\n    tag_677:\n        /* \"#utility.yul\":8635:8709   */\n      swap2\n      pop\n        /* \"#utility.yul\":8718:8811   */\n      tag_678\n        /* \"#utility.yul\":8807:8810   */\n      dup3\n        /* \"#utility.yul\":8718:8811   */\n      tag_532\n      jump\t// in\n    tag_678:\n        /* \"#utility.yul\":8836:8838   */\n      0x20\n        /* \"#utility.yul\":8831:8834   */\n      dup3\n        /* \"#utility.yul\":8827:8839   */\n      add\n        /* \"#utility.yul\":8820:8839   */\n      swap1\n      pop\n        /* \"#utility.yul\":8479:8845   */\n      swap2\n      swap1\n      pop\n      jump\t// out\n        /* \"#utility.yul\":8851:9270   */\n    tag_201:\n        /* \"#utility.yul\":9017:9021   */\n      0x00\n        /* \"#utility.yul\":9055:9057   */\n      0x20\n        /* \"#utility.yul\":9044:9053   */\n      dup3\n        /* \"#utility.yul\":9040:9058   */\n      add\n        /* \"#utility.yul\":9032:9058   */\n      swap1\n      pop\n        /* \"#utility.yul\":9104:9113   */\n      dup2\n        /* \"#utility.yul\":9098:9102   */\n      dup2\n        /* \"#utility.yul\":9094:9114   */\n      sub\n        /* \"#utility.yul\":9090:9091   */\n      0x00\n        /* \"#utility.yul\":9079:9088   */\n      dup4\n        /* \"#utility.yul\":9075:9092   */\n      add\n        /* \"#utility.yul\":9068:9115   */\n      mstore\n        /* \"#utility.yul\":9132:9263   */\n      tag_680\n        /* \"#utility.yul\":9258:9262   */\n      dup2\n        /* \"#utility.yul\":9132:9263   */\n      tag_533\n      jump\t// in\n    tag_680:\n        /* \"#utility.yul\":9124:9263   */\n      swap1\n      pop\n        /* \"#utility.yul\":8851:9270   */\n      swap2\n      swap1\n      pop\n      jump\t// out\n        /* \"#utility.yul\":9276:9608   */\n    tag_203:\n        /* \"#utility.yul\":9397:9401   */\n      0x00\n        /* \"#utility.yul\":9435:9437   */\n      0x40\n        /* \"#utility.yul\":9424:9433   */\n      dup3\n        /* \"#utility.yul\":9420:9438   */\n      add\n        /* \"#utility.yul\":9412:9438   */\n      swap1\n      pop\n        /* \"#utility.yul\":9448:9519   */\n      tag_682\n        /* \"#utility.yul\":9516:9517   */\n      0x00\n        /* \"#utility.yul\":9505:9514   */\n      dup4\n        /* \"#utility.yul\":9501:9518   */\n      add\n        /* \"#utility.yul\":9492:9498   */\n      dup6\n        /* \"#utility.yul\":9448:9519   */\n      tag_530\n      jump\t// in\n    tag_682:\n        /* \"#utility.yul\":9529:9601   */\n      tag_683\n        /* \"#utility.yul\":9597:9599   */\n      0x20\n        /* \"#utility.yul\":9586:9595   */\n      dup4\n        /* \"#utility.yul\":9582:9600   */\n      add\n        /* \"#utility.yul\":9573:9579   */\n      dup5\n        /* \"#utility.yul\":9529:9601   */\n      tag_530\n      jump\t// in\n    tag_683:\n        /* \"#utility.yul\":9276:9608   */\n      swap4\n      swap3\n      pop\n      pop\n      pop\n      jump\t// out\n        /* \"#utility.yul\":9614:9782   */\n    tag_534:\n        /* \"#utility.yul\":9754:9774   */\n      0x4c697374696e67206e6f74206163746976650000000000000000000000000000\n        /* \"#utility.yul\":9750:9751   */\n      0x00\n        /* \"#utility.yul\":9742:9748   */\n      dup3\n        /* \"#utility.yul\":9738:9752   */\n      add\n        /* \"#utility.yul\":9731:9775   */\n      mstore\n        /* \"#utility.yul\":9614:9782   */\n      pop\n      jump\t// out\n        /* \"#utility.yul\":9788:10154   */\n    tag_535:\n        /* \"#utility.yul\":9930:9933   */\n      0x00\n        /* \"#utility.yul\":9951:10018   */\n      tag_686\n        /* \"#utility.yul\":10015:10017   */\n      0x12\n        /* \"#utility.yul\":10010:10013   */\n      dup4\n        /* \"#utility.yul\":9951:10018   */\n      tag_531\n      jump\t// in\n    tag_686:\n        /* \"#utility.yul\":9944:10018   */\n      swap2\n      pop\n        /* \"#utility.yul\":10027:10120   */\n      tag_687\n        /* \"#utility.yul\":10116:10119   */\n      dup3\n        /* \"#utility.yul\":10027:10120   */\n      tag_534\n      jump\t// in\n    tag_687:\n        /* \"#utility.yul\":10145:10147   */\n      0x20\n        /* \"#utility.yul\":10140:10143   */\n      dup3\n        /* \"#utility.yul\":10136:10148   */\n      add\n        /* \"#utility.yul\":10129:10148   */\n      swap1\n      pop\n        /* \"#utility.yul\":9788:10154   */\n      swap2\n      swap1\n      pop\n      jump\t// out\n        /* \"#utility.yul\":10160:10579   */\n    tag_219:\n        /* \"#utility.yul\":10326:10330   */\n      0x00\n        /* \"#utility.yul\":10364:10366   */\n      0x20\n        /* \"#utility.yul\":10353:10362   */\n      dup3\n        /* \"#utility.yul\":10349:10367   */\n      add\n        /* \"#utility.yul\":10341:10367   */\n      swap1\n      pop\n        /* \"#utility.yul\":10413:10422   */\n      dup2\n        /* \"#utility.yul\":10407:10411   */\n      dup2\n        /* \"#utility.yul\":10403:10423   */\n      sub\n        /* \"#utility.yul\":10399:10400   */\n      0x00\n        /* \"#utility.yul\":10388:10397   */\n      dup4\n        /* \"#utility.yul\":10384:10401   */\n      add\n        /* \"#utility.yul\":10377:10424   */\n      mstore\n        /* \"#utility.yul\":10441:10572   */\n      tag_689\n        /* \"#utility.yul\":10567:10571   */\n      dup2\n        /* \"#utility.yul\":10441:10572   */\n      tag_535\n      jump\t// in\n    tag_689:\n        /* \"#utility.yul\":10433:10572   */\n      swap1\n      pop\n        /* \"#utility.yul\":10160:10579   */\n      swap2\n      swap1\n      pop\n      jump\t// out\n        /* \"#utility.yul\":10585:10761   */\n    tag_536:\n        /* \"#utility.yul\":10725:10753   */\n      0x4f6e6c792073656c6c65722063616e2061636365707420626964000000000000\n        /* \"#utility.yul\":10721:10722   */\n      0x00\n        /* \"#utility.yul\":10713:10719   */\n      dup3\n        /* \"#utility.yul\":10709:10723   */\n      add\n        /* \"#utility.yul\":10702:10754   */\n      mstore\n        /* \"#utility.yul\":10585:10761   */\n      pop\n      jump\t// out\n        /* \"#utility.yul\":10767:11133   */\n    tag_537:\n        /* \"#utility.yul\":10909:10912   */\n      0x00\n        /* \"#utility.yul\":10930:10997   */\n      tag_692\n        /* \"#utility.yul\":10994:10996   */\n      0x1a\n        /* \"#utility.yul\":10989:10992   */\n      dup4\n        /* \"#utility.yul\":10930:10997   */\n      tag_531\n      jump\t// in\n    tag_692:\n        /* \"#utility.yul\":10923:10997   */\n      swap2\n      pop\n        /* \"#utility.yul\":11006:11099   */\n      tag_693\n        /* \"#utility.yul\":11095:11098   */\n      dup3\n        /* \"#utility.yul\":11006:11099   */\n      tag_536\n      jump\t// in\n    tag_693:\n        /* \"#utility.yul\":11124:11126   */\n      0x20\n        /* \"#utility.yul\":11119:11122   */\n      dup3\n        /* \"#utility.yul\":11115:11127   */\n      add\n        /* \"#utility.yul\":11108:11127   */\n      swap1\n      pop\n        /* \"#utility.yul\":10767:11133   */\n      swap2\n      swap1\n      pop\n      jump\t// out\n        /* \"#utility.yul\":11139:11558   */\n    tag_223:\n        /* \"#utility.yul\":11305:11309   */\n      0x00\n        /* \"#utility.yul\":11343:11345   */\n      0x20\n        /* \"#utility.yul\":11332:11341   */\n      dup3\n        /* \"#utility.yul\":11328:11346   */\n      add\n        /* \"#utility.yul\":11320:11346   */\n      swap1\n      pop\n        /* \"#utility.yul\":11392:11401   */\n      dup2\n        /* \"#utility.yul\":11386:11390   */\n      dup2\n        /* \"#utility.yul\":11382:11402   */\n      sub\n        /* \"#utility.yul\":11378:11379   */\n      0x00\n        /* \"#utility.yul\":11367:11376   */\n      dup4\n        /* \"#utility.yul\":11363:11380   */\n      add\n        /* \"#utility.yul\":11356:11403   */\n      mstore\n        /* \"#utility.yul\":11420:11551   */\n      tag_695\n        /* \"#utility.yul\":11546:11550   */\n      dup2\n        /* \"#utility.yul\":11420:11551   */\n      tag_537\n      jump\t// in\n    tag_695:\n        /* \"#utility.yul\":11412:11551   */\n      swap1\n      pop\n        /* \"#utility.yul\":11139:11558   */\n      swap2\n      swap1\n      pop\n      jump\t// out\n        /* \"#utility.yul\":11564:11727   */\n    tag_538:\n        /* \"#utility.yul\":11704:11719   */\n      0x4e6f206163746976652062696400000000000000000000000000000000000000\n        /* \"#utility.yul\":11700:11701   */\n      0x00\n        /* \"#utility.yul\":11692:11698   */\n      dup3\n        /* \"#utility.yul\":11688:11702   */\n      add\n        /* \"#utility.yul\":11681:11720   */\n      mstore\n        /* \"#utility.yul\":11564:11727   */\n      pop\n      jump\t// out\n        /* \"#utility.yul\":11733:12099   */\n    tag_539:\n        /* \"#utility.yul\":11875:11878   */\n      0x00\n        /* \"#utility.yul\":11896:11963   */\n      tag_698\n        /* \"#utility.yul\":11960:11962   */\n      0x0d\n        /* \"#utility.yul\":11955:11958   */\n      dup4\n        /* \"#utility.yul\":11896:11963   */\n      tag_531\n      jump\t// in\n    tag_698:\n        /* \"#utility.yul\":11889:11963   */\n      swap2\n      pop\n        /* \"#utility.yul\":11972:12065   */\n      tag_699\n        /* \"#utility.yul\":12061:12064   */\n      dup3\n        /* \"#utility.yul\":11972:12065   */\n      tag_538\n      jump\t// in\n    tag_699:\n        /* \"#utility.yul\":12090:12092   */\n      0x20\n        /* \"#utility.yul\":12085:12088   */\n      dup3\n        /* \"#utility.yul\":12081:12093   */\n      add\n        /* \"#utility.yul\":12074:12093   */\n      swap1\n      pop\n        /* \"#utility.yul\":11733:12099   */\n      swap2\n      swap1\n      pop\n      jump\t// out\n        /* \"#utility.yul\":12105:12524   */\n    tag_226:\n        /* \"#utility.yul\":12271:12275   */\n      0x00\n        /* \"#utility.yul\":12309:12311   */\n      0x20\n        /* \"#utility.yul\":12298:12307   */\n      dup3\n        /* \"#utility.yul\":12294:12312   */\n      add\n        /* \"#utility.yul\":12286:12312   */\n      swap1\n      pop\n        /* \"#utility.yul\":12358:12367   */\n      dup2\n        /* \"#utility.yul\":12352:12356   */\n      dup2\n        /* \"#utility.yul\":12348:12368   */\n      sub\n        /* \"#utility.yul\":12344:12345   */\n      0x00\n        /* \"#utility.yul\":12333:12342   */\n      dup4\n        /* \"#utility.yul\":12329:12346   */\n      add\n        /* \"#utility.yul\":12322:12369   */\n      mstore\n        /* \"#utility.yul\":12386:12517   */\n      tag_701\n        /* \"#utility.yul\":12512:12516   */\n      dup2\n        /* \"#utility.yul\":12386:12517   */\n      tag_539\n      jump\t// in\n    tag_701:\n        /* \"#utility.yul\":12378:12517   */\n      swap1\n      pop\n        /* \"#utility.yul\":12105:12524   */\n      swap2\n      swap1\n      pop\n      jump\t// out\n        /* \"#utility.yul\":12530:12710   */\n    tag_540:\n        /* \"#utility.yul\":12578:12655   */\n      0x4e487b7100000000000000000000000000000000000000000000000000000000\n        /* \"#utility.yul\":12575:12576   */\n      0x00\n        /* \"#utility.yul\":12568:12656   */\n      mstore\n        /* \"#utility.yul\":12675:12679   */\n      0x11\n        /* \"#utility.yul\":12672:12673   */\n      0x04\n        /* \"#utility.yul\":12665:12680   */\n      mstore\n        /* \"#utility.yul\":12699:12703   */\n      0x24\n        /* \"#utility.yul\":12696:12697   */\n      0x00\n        /* \"#utility.yul\":12689:12704   */\n      revert\n        /* \"#utility.yul\":12716:13126   */\n    tag_228:\n        /* \"#utility.yul\":12756:12763   */\n      0x00\n        /* \"#utility.yul\":12779:12799   */\n      tag_704\n        /* \"#utility.yul\":12797:12798   */\n      dup3\n        /* \"#utility.yul\":12779:12799   */\n      tag_518\n      jump\t// in\n    tag_704:\n        /* \"#utility.yul\":12774:12799   */\n      swap2\n      pop\n        /* \"#utility.yul\":12813:12833   */\n      tag_705\n        /* \"#utility.yul\":12831:12832   */\n      dup4\n        /* \"#utility.yul\":12813:12833   */\n      tag_518\n      jump\t// in\n    tag_705:\n        /* \"#utility.yul\":12808:12833   */\n      swap3\n      pop\n        /* \"#utility.yul\":12868:12869   */\n      dup3\n        /* \"#utility.yul\":12865:12866   */\n      dup3\n        /* \"#utility.yul\":12861:12870   */\n      mul\n        /* \"#utility.yul\":12890:12920   */\n      tag_706\n        /* \"#utility.yul\":12908:12919   */\n      dup2\n        /* \"#utility.yul\":12890:12920   */\n      tag_518\n      jump\t// in\n    tag_706:\n        /* \"#utility.yul\":12879:12920   */\n      swap2\n      pop\n        /* \"#utility.yul\":13069:13070   */\n      dup3\n        /* \"#utility.yul\":13060:13067   */\n      dup3\n        /* \"#utility.yul\":13056:13071   */\n      div\n        /* \"#utility.yul\":13053:13054   */\n      dup5\n        /* \"#utility.yul\":13050:13072   */\n      eq\n        /* \"#utility.yul\":13030:13031   */\n      dup4\n        /* \"#utility.yul\":13023:13032   */\n      iszero\n        /* \"#utility.yul\":13003:13086   */\n      or\n        /* \"#utility.yul\":12980:13119   */\n      tag_707\n      jumpi\n        /* \"#utility.yul\":13099:13117   */\n      tag_708\n      tag_540\n      jump\t// in\n    tag_708:\n        /* \"#utility.yul\":12980:13119   */\n    tag_707:\n        /* \"#utility.yul\":12764:13126   */\n      pop\n        /* \"#utility.yul\":12716:13126   */\n      swap3\n      swap2\n      pop\n      pop\n      jump\t// out\n        /* \"#utility.yul\":13132:13312   */\n    tag_541:\n        /* \"#utility.yul\":13180:13257   */\n      0x4e487b7100000000000000000000000000000000000000000000000000000000\n        /* \"#utility.yul\":13177:13178   */\n      0x00\n        /* \"#utility.yul\":13170:13258   */\n      mstore\n        /* \"#utility.yul\":13277:13281   */\n      0x12\n        /* \"#utility.yul\":13274:13275   */\n      0x04\n        /* \"#utility.yul\":13267:13282   */\n      mstore\n        /* \"#utility.yul\":13301:13305   */\n      0x24\n        /* \"#utility.yul\":13298:13299   */\n      0x00\n        /* \"#utility.yul\":13291:13306   */\n      revert\n        /* \"#utility.yul\":13318:13503   */\n    tag_230:\n        /* \"#utility.yul\":13358:13359   */\n      0x00\n        /* \"#utility.yul\":13375:13395   */\n      tag_711\n        /* \"#utility.yul\":13393:13394   */\n      dup3\n        /* \"#utility.yul\":13375:13395   */\n      tag_518\n      jump\t// in\n    tag_711:\n        /* \"#utility.yul\":13370:13395   */\n      swap2\n      pop\n        /* \"#utility.yul\":13409:13429   */\n      tag_712\n        /* \"#utility.yul\":13427:13428   */\n      dup4\n        /* \"#utility.yul\":13409:13429   */\n      tag_518\n      jump\t// in\n    tag_712:\n        /* \"#utility.yul\":13404:13429   */\n      swap3\n      pop\n        /* \"#utility.yul\":13448:13449   */\n      dup3\n        /* \"#utility.yul\":13438:13473   */\n      tag_713\n      jumpi\n        /* \"#utility.yul\":13453:13471   */\n      tag_714\n      tag_541\n      jump\t// in\n    tag_714:\n        /* \"#utility.yul\":13438:13473   */\n    tag_713:\n        /* \"#utility.yul\":13495:13496   */\n      dup3\n        /* \"#utility.yul\":13492:13493   */\n      dup3\n        /* \"#utility.yul\":13488:13497   */\n      div\n        /* \"#utility.yul\":13483:13497   */\n      swap1\n      pop\n        /* \"#utility.yul\":13318:13503   */\n      swap3\n      swap2\n      pop\n      pop\n      jump\t// out\n        /* \"#utility.yul\":13509:13703   */\n    tag_232:\n        /* \"#utility.yul\":13549:13553   */\n      0x00\n        /* \"#utility.yul\":13569:13589   */\n      tag_716\n        /* \"#utility.yul\":13587:13588   */\n      dup3\n        /* \"#utility.yul\":13569:13589   */\n      tag_518\n      jump\t// in\n    tag_716:\n        /* \"#utility.yul\":13564:13589   */\n      swap2\n      pop\n        /* \"#utility.yul\":13603:13623   */\n      tag_717\n        /* \"#utility.yul\":13621:13622   */\n      dup4\n        /* \"#utility.yul\":13603:13623   */\n      tag_518\n      jump\t// in\n    tag_717:\n        /* \"#utility.yul\":13598:13623   */\n      swap3\n      pop\n        /* \"#utility.yul\":13647:13648   */\n      dup3\n        /* \"#utility.yul\":13644:13645   */\n      dup3\n        /* \"#utility.yul\":13640:13649   */\n      sub\n        /* \"#utility.yul\":13632:13649   */\n      swap1\n      pop\n        /* \"#utility.yul\":13671:13672   */\n      dup2\n        /* \"#utility.yul\":13665:13669   */\n      dup2\n        /* \"#utility.yul\":13662:13673   */\n      gt\n        /* \"#utility.yul\":13659:13696   */\n      iszero\n      tag_718\n      jumpi\n        /* \"#utility.yul\":13676:13694   */\n      tag_719\n      tag_540\n      jump\t// in\n    tag_719:\n        /* \"#utility.yul\":13659:13696   */\n    tag_718:\n        /* \"#utility.yul\":13509:13703   */\n      swap3\n      swap2\n      pop\n      pop\n      jump\t// out\n        /* \"#utility.yul\":13709:13900   */\n    tag_235:\n        /* \"#utility.yul\":13749:13752   */\n      0x00\n        /* \"#utility.yul\":13768:13788   */\n      tag_721\n        /* \"#utility.yul\":13786:13787   */\n      dup3\n        /* \"#utility.yul\":13768:13788   */\n      tag_518\n      jump\t// in\n    tag_721:\n        /* \"#utility.yul\":13763:13788   */\n      swap2\n      pop\n        /* \"#utility.yul\":13802:13822   */\n      tag_722\n        /* \"#utility.yul\":13820:13821   */\n      dup4\n        /* \"#utility.yul\":13802:13822   */\n      tag_518\n      jump\t// in\n    tag_722:\n        /* \"#utility.yul\":13797:13822   */\n      swap3\n      pop\n        /* \"#utility.yul\":13845:13846   */\n      dup3\n        /* \"#utility.yul\":13842:13843   */\n      dup3\n        /* \"#utility.yul\":13838:13847   */\n      add\n        /* \"#utility.yul\":13831:13847   */\n      swap1\n      pop\n        /* \"#utility.yul\":13866:13869   */\n      dup1\n        /* \"#utility.yul\":13863:13864   */\n      dup3\n        /* \"#utility.yul\":13860:13870   */\n      gt\n        /* \"#utility.yul\":13857:13893   */\n      iszero\n      tag_723\n      jumpi\n        /* \"#utility.yul\":13873:13891   */\n      tag_724\n      tag_540\n      jump\t// in\n    tag_724:\n        /* \"#utility.yul\":13857:13893   */\n    tag_723:\n        /* \"#utility.yul\":13709:13900   */\n      swap3\n      swap2\n      pop\n      pop\n      jump\t// out\n        /* \"#utility.yul\":13906:14053   */\n    tag_542:\n        /* \"#utility.yul\":14007:14018   */\n      0x00\n        /* \"#utility.yul\":14044:14047   */\n      dup2\n        /* \"#utility.yul\":14029:14047   */\n      swap1\n      pop\n        /* \"#utility.yul\":13906:14053   */\n      swap3\n      swap2\n      pop\n      pop\n      jump\t// out\n        /* \"#utility.yul\":14059:14173   */\n    tag_543:\n      pop\n      jump\t// out\n        /* \"#utility.yul\":14179:14577   */\n    tag_544:\n        /* \"#utility.yul\":14338:14341   */\n      0x00\n        /* \"#utility.yul\":14359:14442   */\n      tag_728\n        /* \"#utility.yul\":14440:14441   */\n      0x00\n        /* \"#utility.yul\":14435:14438   */\n      dup4\n        /* \"#utility.yul\":14359:14442   */\n      tag_542\n      jump\t// in\n    tag_728:\n        /* \"#utility.yul\":14352:14442   */\n      swap2\n      pop\n        /* \"#utility.yul\":14451:14544   */\n      tag_729\n        /* \"#utility.yul\":14540:14543   */\n      dup3\n        /* \"#utility.yul\":14451:14544   */\n      tag_543\n      jump\t// in\n    tag_729:\n        /* \"#utility.yul\":14569:14570   */\n      0x00\n        /* \"#utility.yul\":14564:14567   */\n      dup3\n        /* \"#utility.yul\":14560:14571   */\n      add\n        /* \"#utility.yul\":14553:14571   */\n      swap1\n      pop\n        /* \"#utility.yul\":14179:14577   */\n      swap2\n      swap1\n      pop\n      jump\t// out\n        /* \"#utility.yul\":14583:14962   */\n    tag_237:\n        /* \"#utility.yul\":14767:14770   */\n      0x00\n        /* \"#utility.yul\":14789:14936   */\n      tag_731\n        /* \"#utility.yul\":14932:14935   */\n      dup3\n        /* \"#utility.yul\":14789:14936   */\n      tag_544\n      jump\t// in\n    tag_731:\n        /* \"#utility.yul\":14782:14936   */\n      swap2\n      pop\n        /* \"#utility.yul\":14953:14956   */\n      dup2\n        /* \"#utility.yul\":14946:14956   */\n      swap1\n      pop\n        /* \"#utility.yul\":14583:14962   */\n      swap2\n      swap1\n      pop\n      jump\t// out\n        /* \"#utility.yul\":14968:15137   */\n    tag_545:\n        /* \"#utility.yul\":15108:15129   */\n      0x455448207472616e73666572206661696c656400000000000000000000000000\n        /* \"#utility.yul\":15104:15105   */\n      0x00\n        /* \"#utility.yul\":15096:15102   */\n      dup3\n        /* \"#utility.yul\":15092:15106   */\n      add\n        /* \"#utility.yul\":15085:15130   */\n      mstore\n        /* \"#utility.yul\":14968:15137   */\n      pop\n      jump\t// out\n        /* \"#utility.yul\":15143:15509   */\n    tag_546:\n        /* \"#utility.yul\":15285:15288   */\n      0x00\n        /* \"#utility.yul\":15306:15373   */\n      tag_734\n        /* \"#utility.yul\":15370:15372   */\n      0x13\n        /* \"#utility.yul\":15365:15368   */\n      dup4\n        /* \"#utility.yul\":15306:15373   */\n      tag_531\n      jump\t// in\n    tag_734:\n        /* \"#utility.yul\":15299:15373   */\n      swap2\n      pop\n        /* \"#utility.yul\":15382:15475   */\n      tag_735\n        /* \"#utility.yul\":15471:15474   */\n      dup3\n        /* \"#utility.yul\":15382:15475   */\n      tag_545\n      jump\t// in\n    tag_735:\n        /* \"#utility.yul\":15500:15502   */\n      0x20\n        /* \"#utility.yul\":15495:15498   */\n      dup3\n        /* \"#utility.yul\":15491:15503   */\n      add\n        /* \"#utility.yul\":15484:15503   */\n      swap1\n      pop\n        /* \"#utility.yul\":15143:15509   */\n      swap2\n      swap1\n      pop\n      jump\t// out\n        /* \"#utility.yul\":15515:15934   */\n    tag_243:\n        /* \"#utility.yul\":15681:15685   */\n      0x00\n        /* \"#utility.yul\":15719:15721   */\n      0x20\n        /* \"#utility.yul\":15708:15717   */\n      dup3\n        /* \"#utility.yul\":15704:15722   */\n      add\n        /* \"#utility.yul\":15696:15722   */\n      swap1\n      pop\n        /* \"#utility.yul\":15768:15777   */\n      dup2\n        /* \"#utility.yul\":15762:15766   */\n      dup2\n        /* \"#utility.yul\":15758:15778   */\n      sub\n        /* \"#utility.yul\":15754:15755   */\n      0x00\n        /* \"#utility.yul\":15743:15752   */\n      dup4\n        /* \"#utility.yul\":15739:15756   */\n      add\n        /* \"#utility.yul\":15732:15779   */\n      mstore\n        /* \"#utility.yul\":15796:15927   */\n      tag_737\n        /* \"#utility.yul\":15922:15926   */\n      dup2\n        /* \"#utility.yul\":15796:15927   */\n      tag_546\n      jump\t// in\n    tag_737:\n        /* \"#utility.yul\":15788:15927   */\n      swap1\n      pop\n        /* \"#utility.yul\":15515:15934   */\n      swap2\n      swap1\n      pop\n      jump\t// out\n        /* \"#utility.yul\":15940:16382   */\n    tag_249:\n        /* \"#utility.yul\":16089:16093   */\n      0x00\n        /* \"#utility.yul\":16127:16129   */\n      0x60\n        /* \"#utility.yul\":16116:16125   */\n      dup3\n        /* \"#utility.yul\":16112:16130   */\n      add\n        /* \"#utility.yul\":16104:16130   */\n      swap1\n      pop\n        /* \"#utility.yul\":16140:16211   */\n      tag_739\n        /* \"#utility.yul\":16208:16209   */\n      0x00\n        /* \"#utility.yul\":16197:16206   */\n      dup4\n        /* \"#utility.yul\":16193:16210   */\n      add\n        /* \"#utility.yul\":16184:16190   */\n      dup7\n        /* \"#utility.yul\":16140:16211   */\n      tag_530\n      jump\t// in\n    tag_739:\n        /* \"#utility.yul\":16221:16293   */\n      tag_740\n        /* \"#utility.yul\":16289:16291   */\n      0x20\n        /* \"#utility.yul\":16278:16287   */\n      dup4\n        /* \"#utility.yul\":16274:16292   */\n      add\n        /* \"#utility.yul\":16265:16271   */\n      dup6\n        /* \"#utility.yul\":16221:16293   */\n      tag_530\n      jump\t// in\n    tag_740:\n        /* \"#utility.yul\":16303:16375   */\n      tag_741\n        /* \"#utility.yul\":16371:16373   */\n      0x40\n        /* \"#utility.yul\":16360:16369   */\n      dup4\n        /* \"#utility.yul\":16356:16374   */\n      add\n        /* \"#utility.yul\":16347:16353   */\n      dup5\n        /* \"#utility.yul\":16303:16375   */\n      tag_519\n      jump\t// in\n    tag_741:\n        /* \"#utility.yul\":15940:16382   */\n      swap5\n      swap4\n      pop\n      pop\n      pop\n      pop\n      jump\t// out\n        /* \"#utility.yul\":16388:16555   */\n    tag_547:\n        /* \"#utility.yul\":16528:16547   */\n      0x4e6f74206c697374696e67206f776e6572000000000000000000000000000000\n        /* \"#utility.yul\":16524:16525   */\n      0x00\n        /* \"#utility.yul\":16516:16522   */\n      dup3\n        /* \"#utility.yul\":16512:16526   */\n      add\n        /* \"#utility.yul\":16505:16548   */\n      mstore\n        /* \"#utility.yul\":16388:16555   */\n      pop\n      jump\t// out\n        /* \"#utility.yul\":16561:16927   */\n    tag_548:\n        /* \"#utility.yul\":16703:16706   */\n      0x00\n        /* \"#utility.yul\":16724:16791   */\n      tag_744\n        /* \"#utility.yul\":16788:16790   */\n      0x11\n        /* \"#utility.yul\":16783:16786   */\n      dup4\n        /* \"#utility.yul\":16724:16791   */\n      tag_531\n      jump\t// in\n    tag_744:\n        /* \"#utility.yul\":16717:16791   */\n      swap2\n      pop\n        /* \"#utility.yul\":16800:16893   */\n      tag_745\n        /* \"#utility.yul\":16889:16892   */\n      dup3\n        /* \"#utility.yul\":16800:16893   */\n      tag_547\n      jump\t// in\n    tag_745:\n        /* \"#utility.yul\":16918:16920   */\n      0x20\n        /* \"#utility.yul\":16913:16916   */\n      dup3\n        /* \"#utility.yul\":16909:16921   */\n      add\n        /* \"#utility.yul\":16902:16921   */\n      swap1\n      pop\n        /* \"#utility.yul\":16561:16927   */\n      swap2\n      swap1\n      pop\n      jump\t// out\n        /* \"#utility.yul\":16933:17352   */\n    tag_265:\n        /* \"#utility.yul\":17099:17103   */\n      0x00\n        /* \"#utility.yul\":17137:17139   */\n      0x20\n        /* \"#utility.yul\":17126:17135   */\n      dup3\n        /* \"#utility.yul\":17122:17140   */\n      add\n        /* \"#utility.yul\":17114:17140   */\n      swap1\n      pop\n        /* \"#utility.yul\":17186:17195   */\n      dup2\n        /* \"#utility.yul\":17180:17184   */\n      dup2\n        /* \"#utility.yul\":17176:17196   */\n      sub\n        /* \"#utility.yul\":17172:17173   */\n      0x00\n        /* \"#utility.yul\":17161:17170   */\n      dup4\n        /* \"#utility.yul\":17157:17174   */\n      add\n        /* \"#utility.yul\":17150:17197   */\n      mstore\n        /* \"#utility.yul\":17214:17345   */\n      tag_747\n        /* \"#utility.yul\":17340:17344   */\n      dup2\n        /* \"#utility.yul\":17214:17345   */\n      tag_548\n      jump\t// in\n    tag_747:\n        /* \"#utility.yul\":17206:17345   */\n      swap1\n      pop\n        /* \"#utility.yul\":16933:17352   */\n      swap2\n      swap1\n      pop\n      jump\t// out\n        /* \"#utility.yul\":17358:17519   */\n    tag_549:\n        /* \"#utility.yul\":17498:17511   */\n      0x496e76616c696420666565000000000000000000000000000000000000000000\n        /* \"#utility.yul\":17494:17495   */\n      0x00\n        /* \"#utility.yul\":17486:17492   */\n      dup3\n        /* \"#utility.yul\":17482:17496   */\n      add\n        /* \"#utility.yul\":17475:17512   */\n      mstore\n        /* \"#utility.yul\":17358:17519   */\n      pop\n      jump\t// out\n        /* \"#utility.yul\":17525:17891   */\n    tag_550:\n        /* \"#utility.yul\":17667:17670   */\n      0x00\n        /* \"#utility.yul\":17688:17755   */\n      tag_750\n        /* \"#utility.yul\":17752:17754   */\n      0x0b\n        /* \"#utility.yul\":17747:17750   */\n      dup4\n        /* \"#utility.yul\":17688:17755   */\n      tag_531\n      jump\t// in\n    tag_750:\n        /* \"#utility.yul\":17681:17755   */\n      swap2\n      pop\n        /* \"#utility.yul\":17764:17857   */\n      tag_751\n        /* \"#utility.yul\":17853:17856   */\n      dup3\n        /* \"#utility.yul\":17764:17857   */\n      tag_549\n      jump\t// in\n    tag_751:\n        /* \"#utility.yul\":17882:17884   */\n      0x20\n        /* \"#utility.yul\":17877:17880   */\n      dup3\n        /* \"#utility.yul\":17873:17885   */\n      add\n        /* \"#utility.yul\":17866:17885   */\n      swap1\n      pop\n        /* \"#utility.yul\":17525:17891   */\n      swap2\n      swap1\n      pop\n      jump\t// out\n        /* \"#utility.yul\":17897:18316   */\n    tag_278:\n        /* \"#utility.yul\":18063:18067   */\n      0x00\n        /* \"#utility.yul\":18101:18103   */\n      0x20\n        /* \"#utility.yul\":18090:18099   */\n      dup3\n        /* \"#utility.yul\":18086:18104   */\n      add\n        /* \"#utility.yul\":18078:18104   */\n      swap1\n      pop\n        /* \"#utility.yul\":18150:18159   */\n      dup2\n        /* \"#utility.yul\":18144:18148   */\n      dup2\n        /* \"#utility.yul\":18140:18160   */\n      sub\n        /* \"#utility.yul\":18136:18137   */\n      0x00\n        /* \"#utility.yul\":18125:18134   */\n      dup4\n        /* \"#utility.yul\":18121:18138   */\n      add\n        /* \"#utility.yul\":18114:18161   */\n      mstore\n        /* \"#utility.yul\":18178:18309   */\n      tag_753\n        /* \"#utility.yul\":18304:18308   */\n      dup2\n        /* \"#utility.yul\":18178:18309   */\n      tag_550\n      jump\t// in\n    tag_753:\n        /* \"#utility.yul\":18170:18309   */\n      swap1\n      pop\n        /* \"#utility.yul\":17897:18316   */\n      swap2\n      swap1\n      pop\n      jump\t// out\n        /* \"#utility.yul\":18322:18492   */\n    tag_551:\n        /* \"#utility.yul\":18462:18484   */\n      0x4e6f20726566756e6461626c6520616d6f756e74000000000000000000000000\n        /* \"#utility.yul\":18458:18459   */\n      0x00\n        /* \"#utility.yul\":18450:18456   */\n      dup3\n        /* \"#utility.yul\":18446:18460   */\n      add\n        /* \"#utility.yul\":18439:18485   */\n      mstore\n        /* \"#utility.yul\":18322:18492   */\n      pop\n      jump\t// out\n        /* \"#utility.yul\":18498:18864   */\n    tag_552:\n        /* \"#utility.yul\":18640:18643   */\n      0x00\n        /* \"#utility.yul\":18661:18728   */\n      tag_756\n        /* \"#utility.yul\":18725:18727   */\n      0x14\n        /* \"#utility.yul\":18720:18723   */\n      dup4\n        /* \"#utility.yul\":18661:18728   */\n      tag_531\n      jump\t// in\n    tag_756:\n        /* \"#utility.yul\":18654:18728   */\n      swap2\n      pop\n        /* \"#utility.yul\":18737:18830   */\n      tag_757\n        /* \"#utility.yul\":18826:18829   */\n      dup3\n        /* \"#utility.yul\":18737:18830   */\n      tag_551\n      jump\t// in\n    tag_757:\n        /* \"#utility.yul\":18855:18857   */\n      0x20\n        /* \"#utility.yul\":18850:18853   */\n      dup3\n        /* \"#utility.yul\":18846:18858   */\n      add\n        /* \"#utility.yul\":18839:18858   */\n      swap1\n      pop\n        /* \"#utility.yul\":18498:18864   */\n      swap2\n      swap1\n      pop\n      jump\t// out\n        /* \"#utility.yul\":18870:19289   */\n    tag_296:\n        /* \"#utility.yul\":19036:19040   */\n      0x00\n        /* \"#utility.yul\":19074:19076   */\n      0x20\n        /* \"#utility.yul\":19063:19072   */\n      dup3\n        /* \"#utility.yul\":19059:19077   */\n      add\n        /* \"#utility.yul\":19051:19077   */\n      swap1\n      pop\n        /* \"#utility.yul\":19123:19132   */\n      dup2\n        /* \"#utility.yul\":19117:19121   */\n      dup2\n        /* \"#utility.yul\":19113:19133   */\n      sub\n        /* \"#utility.yul\":19109:19110   */\n      0x00\n        /* \"#utility.yul\":19098:19107   */\n      dup4\n        /* \"#utility.yul\":19094:19111   */\n      add\n        /* \"#utility.yul\":19087:19134   */\n      mstore\n        /* \"#utility.yul\":19151:19282   */\n      tag_759\n        /* \"#utility.yul\":19277:19281   */\n      dup2\n        /* \"#utility.yul\":19151:19282   */\n      tag_552\n      jump\t// in\n    tag_759:\n        /* \"#utility.yul\":19143:19282   */\n      swap1\n      pop\n        /* \"#utility.yul\":18870:19289   */\n      swap2\n      swap1\n      pop\n      jump\t// out\n        /* \"#utility.yul\":19295:19474   */\n    tag_553:\n        /* \"#utility.yul\":19435:19466   */\n      0x496e73756666696369656e7420636f6e74726163742062616c616e6365000000\n        /* \"#utility.yul\":19431:19432   */\n      0x00\n        /* \"#utility.yul\":19423:19429   */\n      dup3\n        /* \"#utility.yul\":19419:19433   */\n      add\n        /* \"#utility.yul\":19412:19467   */\n      mstore\n        /* \"#utility.yul\":19295:19474   */\n      pop\n      jump\t// out\n        /* \"#utility.yul\":19480:19846   */\n    tag_554:\n        /* \"#utility.yul\":19622:19625   */\n      0x00\n        /* \"#utility.yul\":19643:19710   */\n      tag_762\n        /* \"#utility.yul\":19707:19709   */\n      0x1d\n        /* \"#utility.yul\":19702:19705   */\n      dup4\n        /* \"#utility.yul\":19643:19710   */\n      tag_531\n      jump\t// in\n    tag_762:\n        /* \"#utility.yul\":19636:19710   */\n      swap2\n      pop\n        /* \"#utility.yul\":19719:19812   */\n      tag_763\n        /* \"#utility.yul\":19808:19811   */\n      dup3\n        /* \"#utility.yul\":19719:19812   */\n      tag_553\n      jump\t// in\n    tag_763:\n        /* \"#utility.yul\":19837:19839   */\n      0x20\n        /* \"#utility.yul\":19832:19835   */\n      dup3\n        /* \"#utility.yul\":19828:19840   */\n      add\n        /* \"#utility.yul\":19821:19840   */\n      swap1\n      pop\n        /* \"#utility.yul\":19480:19846   */\n      swap2\n      swap1\n      pop\n      jump\t// out\n        /* \"#utility.yul\":19852:20271   */\n    tag_299:\n        /* \"#utility.yul\":20018:20022   */\n      0x00\n        /* \"#utility.yul\":20056:20058   */\n      0x20\n        /* \"#utility.yul\":20045:20054   */\n      dup3\n        /* \"#utility.yul\":20041:20059   */\n      add\n        /* \"#utility.yul\":20033:20059   */\n      swap1\n      pop\n        /* \"#utility.yul\":20105:20114   */\n      dup2\n        /* \"#utility.yul\":20099:20103   */\n      dup2\n        /* \"#utility.yul\":20095:20115   */\n      sub\n        /* \"#utility.yul\":20091:20092   */\n      0x00\n        /* \"#utility.yul\":20080:20089   */\n      dup4\n        /* \"#utility.yul\":20076:20093   */\n      add\n        /* \"#utility.yul\":20069:20116   */\n      mstore\n        /* \"#utility.yul\":20133:20264   */\n      tag_765\n        /* \"#utility.yul\":20259:20263   */\n      dup2\n        /* \"#utility.yul\":20133:20264   */\n      tag_554\n      jump\t// in\n    tag_765:\n        /* \"#utility.yul\":20125:20264   */\n      swap1\n      pop\n        /* \"#utility.yul\":19852:20271   */\n      swap2\n      swap1\n      pop\n      jump\t// out\n        /* \"#utility.yul\":20277:20444   */\n    tag_555:\n        /* \"#utility.yul\":20417:20436   */\n      0x45544820726566756e64206661696c6564000000000000000000000000000000\n        /* \"#utility.yul\":20413:20414   */\n      0x00\n        /* \"#utility.yul\":20405:20411   */\n      dup3\n        /* \"#utility.yul\":20401:20415   */\n      add\n        /* \"#utility.yul\":20394:20437   */\n      mstore\n        /* \"#utility.yul\":20277:20444   */\n      pop\n      jump\t// out\n        /* \"#utility.yul\":20450:20816   */\n    tag_556:\n        /* \"#utility.yul\":20592:20595   */\n      0x00\n        /* \"#utility.yul\":20613:20680   */\n      tag_768\n        /* \"#utility.yul\":20677:20679   */\n      0x11\n        /* \"#utility.yul\":20672:20675   */\n      dup4\n        /* \"#utility.yul\":20613:20680   */\n      tag_531\n      jump\t// in\n    tag_768:\n        /* \"#utility.yul\":20606:20680   */\n      swap2\n      pop\n        /* \"#utility.yul\":20689:20782   */\n      tag_769\n        /* \"#utility.yul\":20778:20781   */\n      dup3\n        /* \"#utility.yul\":20689:20782   */\n      tag_555\n      jump\t// in\n    tag_769:\n        /* \"#utility.yul\":20807:20809   */\n      0x20\n        /* \"#utility.yul\":20802:20805   */\n      dup3\n        /* \"#utility.yul\":20798:20810   */\n      add\n        /* \"#utility.yul\":20791:20810   */\n      swap1\n      pop\n        /* \"#utility.yul\":20450:20816   */\n      swap2\n      swap1\n      pop\n      jump\t// out\n        /* \"#utility.yul\":20822:21241   */\n    tag_306:\n        /* \"#utility.yul\":20988:20992   */\n      0x00\n        /* \"#utility.yul\":21026:21028   */\n      0x20\n        /* \"#utility.yul\":21015:21024   */\n      dup3\n        /* \"#utility.yul\":21011:21029   */\n      add\n        /* \"#utility.yul\":21003:21029   */\n      swap1\n      pop\n        /* \"#utility.yul\":21075:21084   */\n      dup2\n        /* \"#utility.yul\":21069:21073   */\n      dup2\n        /* \"#utility.yul\":21065:21085   */\n      sub\n        /* \"#utility.yul\":21061:21062   */\n      0x00\n        /* \"#utility.yul\":21050:21059   */\n      dup4\n        /* \"#utility.yul\":21046:21063   */\n      add\n        /* \"#utility.yul\":21039:21086   */\n      mstore\n        /* \"#utility.yul\":21103:21234   */\n      tag_771\n        /* \"#utility.yul\":21229:21233   */\n      dup2\n        /* \"#utility.yul\":21103:21234   */\n      tag_556\n      jump\t// in\n    tag_771:\n        /* \"#utility.yul\":21095:21234   */\n      swap1\n      pop\n        /* \"#utility.yul\":20822:21241   */\n      swap2\n      swap1\n      pop\n      jump\t// out\n        /* \"#utility.yul\":21247:21412   */\n    tag_557:\n        /* \"#utility.yul\":21387:21404   */\n      0x496e76616c6964206d6178206665650000000000000000000000000000000000\n        /* \"#utility.yul\":21383:21384   */\n      0x00\n        /* \"#utility.yul\":21375:21381   */\n      dup3\n        /* \"#utility.yul\":21371:21385   */\n      add\n        /* \"#utility.yul\":21364:21405   */\n      mstore\n        /* \"#utility.yul\":21247:21412   */\n      pop\n      jump\t// out\n        /* \"#utility.yul\":21418:21784   */\n    tag_558:\n        /* \"#utility.yul\":21560:21563   */\n      0x00\n        /* \"#utility.yul\":21581:21648   */\n      tag_774\n        /* \"#utility.yul\":21645:21647   */\n      0x0f\n        /* \"#utility.yul\":21640:21643   */\n      dup4\n        /* \"#utility.yul\":21581:21648   */\n      tag_531\n      jump\t// in\n    tag_774:\n        /* \"#utility.yul\":21574:21648   */\n      swap2\n      pop\n        /* \"#utility.yul\":21657:21750   */\n      tag_775\n        /* \"#utility.yul\":21746:21749   */\n      dup3\n        /* \"#utility.yul\":21657:21750   */\n      tag_557\n      jump\t// in\n    tag_775:\n        /* \"#utility.yul\":21775:21777   */\n      0x20\n        /* \"#utility.yul\":21770:21773   */\n      dup3\n        /* \"#utility.yul\":21766:21778   */\n      add\n        /* \"#utility.yul\":21759:21778   */\n      swap1\n      pop\n        /* \"#utility.yul\":21418:21784   */\n      swap2\n      swap1\n      pop\n      jump\t// out\n        /* \"#utility.yul\":21790:22209   */\n    tag_315:\n        /* \"#utility.yul\":21956:21960   */\n      0x00\n        /* \"#utility.yul\":21994:21996   */\n      0x20\n        /* \"#utility.yul\":21983:21992   */\n      dup3\n        /* \"#utility.yul\":21979:21997   */\n      add\n        /* \"#utility.yul\":21971:21997   */\n      swap1\n      pop\n        /* \"#utility.yul\":22043:22052   */\n      dup2\n        /* \"#utility.yul\":22037:22041   */\n      dup2\n        /* \"#utility.yul\":22033:22053   */\n      sub\n        /* \"#utility.yul\":22029:22030   */\n      0x00\n        /* \"#utility.yul\":22018:22027   */\n      dup4\n        /* \"#utility.yul\":22014:22031   */\n      add\n        /* \"#utility.yul\":22007:22054   */\n      mstore\n        /* \"#utility.yul\":22071:22202   */\n      tag_777\n        /* \"#utility.yul\":22197:22201   */\n      dup2\n        /* \"#utility.yul\":22071:22202   */\n      tag_558\n      jump\t// in\n    tag_777:\n        /* \"#utility.yul\":22063:22202   */\n      swap1\n      pop\n        /* \"#utility.yul\":21790:22209   */\n      swap2\n      swap1\n      pop\n      jump\t// out\n        /* \"#utility.yul\":22215:22384   */\n    tag_559:\n        /* \"#utility.yul\":22355:22376   */\n      0x4e6f20726566756e6461626c6520746f6b656e00000000000000000000000000\n        /* \"#utility.yul\":22351:22352   */\n      0x00\n        /* \"#utility.yul\":22343:22349   */\n      dup3\n        /* \"#utility.yul\":22339:22353   */\n      add\n        /* \"#utility.yul\":22332:22377   */\n      mstore\n        /* \"#utility.yul\":22215:22384   */\n      pop\n      jump\t// out\n        /* \"#utility.yul\":22390:22756   */\n    tag_560:\n        /* \"#utility.yul\":22532:22535   */\n      0x00\n        /* \"#utility.yul\":22553:22620   */\n      tag_780\n        /* \"#utility.yul\":22617:22619   */\n      0x13\n        /* \"#utility.yul\":22612:22615   */\n      dup4\n        /* \"#utility.yul\":22553:22620   */\n      tag_531\n      jump\t// in\n    tag_780:\n        /* \"#utility.yul\":22546:22620   */\n      swap2\n      pop\n        /* \"#utility.yul\":22629:22722   */\n      tag_781\n        /* \"#utility.yul\":22718:22721   */\n      dup3\n        /* \"#utility.yul\":22629:22722   */\n      tag_559\n      jump\t// in\n    tag_781:\n        /* \"#utility.yul\":22747:22749   */\n      0x20\n        /* \"#utility.yul\":22742:22745   */\n      dup3\n        /* \"#utility.yul\":22738:22750   */\n      add\n        /* \"#utility.yul\":22731:22750   */\n      swap1\n      pop\n        /* \"#utility.yul\":22390:22756   */\n      swap2\n      swap1\n      pop\n      jump\t// out\n        /* \"#utility.yul\":22762:23181   */\n    tag_322:\n        /* \"#utility.yul\":22928:22932   */\n      0x00\n        /* \"#utility.yul\":22966:22968   */\n      0x20\n        /* \"#utility.yul\":22955:22964   */\n      dup3\n        /* \"#utility.yul\":22951:22969   */\n      add\n        /* \"#utility.yul\":22943:22969   */\n      swap1\n      pop\n        /* \"#utility.yul\":23015:23024   */\n      dup2\n        /* \"#utility.yul\":23009:23013   */\n      dup2\n        /* \"#utility.yul\":23005:23025   */\n      sub\n        /* \"#utility.yul\":23001:23002   */\n      0x00\n        /* \"#utility.yul\":22990:22999   */\n      dup4\n        /* \"#utility.yul\":22986:23003   */\n      add\n        /* \"#utility.yul\":22979:23026   */\n      mstore\n        /* \"#utility.yul\":23043:23174   */\n      tag_783\n        /* \"#utility.yul\":23169:23173   */\n      dup2\n        /* \"#utility.yul\":23043:23174   */\n      tag_560\n      jump\t// in\n    tag_783:\n        /* \"#utility.yul\":23035:23174   */\n      swap1\n      pop\n        /* \"#utility.yul\":22762:23181   */\n      swap2\n      swap1\n      pop\n      jump\t// out\n        /* \"#utility.yul\":23187:23330   */\n    tag_561:\n        /* \"#utility.yul\":23244:23249   */\n      0x00\n        /* \"#utility.yul\":23275:23281   */\n      dup2\n        /* \"#utility.yul\":23269:23282   */\n      mload\n        /* \"#utility.yul\":23260:23282   */\n      swap1\n      pop\n        /* \"#utility.yul\":23291:23324   */\n      tag_785\n        /* \"#utility.yul\":23318:23323   */\n      dup2\n        /* \"#utility.yul\":23291:23324   */\n      tag_520\n      jump\t// in\n    tag_785:\n        /* \"#utility.yul\":23187:23330   */\n      swap3\n      swap2\n      pop\n      pop\n      jump\t// out\n        /* \"#utility.yul\":23336:23687   */\n    tag_327:\n        /* \"#utility.yul\":23406:23412   */\n      0x00\n        /* \"#utility.yul\":23455:23457   */\n      0x20\n        /* \"#utility.yul\":23443:23452   */\n      dup3\n        /* \"#utility.yul\":23434:23441   */\n      dup5\n        /* \"#utility.yul\":23430:23453   */\n      sub\n        /* \"#utility.yul\":23426:23458   */\n      slt\n        /* \"#utility.yul\":23423:23542   */\n      iszero\n      tag_787\n      jumpi\n        /* \"#utility.yul\":23461:23540   */\n      tag_788\n      tag_512\n      jump\t// in\n    tag_788:\n        /* \"#utility.yul\":23423:23542   */\n    tag_787:\n        /* \"#utility.yul\":23581:23582   */\n      0x00\n        /* \"#utility.yul\":23606:23670   */\n      tag_789\n        /* \"#utility.yul\":23662:23669   */\n      dup5\n        /* \"#utility.yul\":23653:23659   */\n      dup3\n        /* \"#utility.yul\":23642:23651   */\n      dup6\n        /* \"#utility.yul\":23638:23660   */\n      add\n        /* \"#utility.yul\":23606:23670   */\n      tag_561\n      jump\t// in\n    tag_789:\n        /* \"#utility.yul\":23596:23670   */\n      swap2\n      pop\n        /* \"#utility.yul\":23552:23680   */\n      pop\n        /* \"#utility.yul\":23336:23687   */\n      swap3\n      swap2\n      pop\n      pop\n      jump\t// out\n        /* \"#utility.yul\":23693:23863   */\n    tag_562:\n        /* \"#utility.yul\":23833:23855   */\n      0x496e73756666696369656e742062616c616e6365000000000000000000000000\n        /* \"#utility.yul\":23829:23830   */\n      0x00\n        /* \"#utility.yul\":23821:23827   */\n      dup3\n        /* \"#utility.yul\":23817:23831   */\n      add\n        /* \"#utility.yul\":23810:23856   */\n      mstore\n        /* \"#utility.yul\":23693:23863   */\n      pop\n      jump\t// out\n        /* \"#utility.yul\":23869:24235   */\n    tag_563:\n        /* \"#utility.yul\":24011:24014   */\n      0x00\n        /* \"#utility.yul\":24032:24099   */\n      tag_792\n        /* \"#utility.yul\":24096:24098   */\n      0x14\n        /* \"#utility.yul\":24091:24094   */\n      dup4\n        /* \"#utility.yul\":24032:24099   */\n      tag_531\n      jump\t// in\n    tag_792:\n        /* \"#utility.yul\":24025:24099   */\n      swap2\n      pop\n        /* \"#utility.yul\":24108:24201   */\n      tag_793\n        /* \"#utility.yul\":24197:24200   */\n      dup3\n        /* \"#utility.yul\":24108:24201   */\n      tag_562\n      jump\t// in\n    tag_793:\n        /* \"#utility.yul\":24226:24228   */\n      0x20\n        /* \"#utility.yul\":24221:24224   */\n      dup3\n        /* \"#utility.yul\":24217:24229   */\n      add\n        /* \"#utility.yul\":24210:24229   */\n      swap1\n      pop\n        /* \"#utility.yul\":23869:24235   */\n      swap2\n      swap1\n      pop\n      jump\t// out\n        /* \"#utility.yul\":24241:24660   */\n    tag_330:\n        /* \"#utility.yul\":24407:24411   */\n      0x00\n        /* \"#utility.yul\":24445:24447   */\n      0x20\n        /* \"#utility.yul\":24434:24443   */\n      dup3\n        /* \"#utility.yul\":24430:24448   */\n      add\n        /* \"#utility.yul\":24422:24448   */\n      swap1\n      pop\n        /* \"#utility.yul\":24494:24503   */\n      dup2\n        /* \"#utility.yul\":24488:24492   */\n      dup2\n        /* \"#utility.yul\":24484:24504   */\n      sub\n        /* \"#utility.yul\":24480:24481   */\n      0x00\n        /* \"#utility.yul\":24469:24478   */\n      dup4\n        /* \"#utility.yul\":24465:24482   */\n      add\n        /* \"#utility.yul\":24458:24505   */\n      mstore\n        /* \"#utility.yul\":24522:24653   */\n      tag_795\n        /* \"#utility.yul\":24648:24652   */\n      dup2\n        /* \"#utility.yul\":24522:24653   */\n      tag_563\n      jump\t// in\n    tag_795:\n        /* \"#utility.yul\":24514:24653   */\n      swap1\n      pop\n        /* \"#utility.yul\":24241:24660   */\n      swap2\n      swap1\n      pop\n      jump\t// out\n        /* \"#utility.yul\":24666:24809   */\n    tag_564:\n        /* \"#utility.yul\":24723:24728   */\n      0x00\n        /* \"#utility.yul\":24754:24760   */\n      dup2\n        /* \"#utility.yul\":24748:24761   */\n      mload\n        /* \"#utility.yul\":24739:24761   */\n      swap1\n      pop\n        /* \"#utility.yul\":24770:24803   */\n      tag_797\n        /* \"#utility.yul\":24797:24802   */\n      dup2\n        /* \"#utility.yul\":24770:24803   */\n      tag_516\n      jump\t// in\n    tag_797:\n        /* \"#utility.yul\":24666:24809   */\n      swap3\n      swap2\n      pop\n      pop\n      jump\t// out\n        /* \"#utility.yul\":24815:25166   */\n    tag_342:\n        /* \"#utility.yul\":24885:24891   */\n      0x00\n        /* \"#utility.yul\":24934:24936   */\n      0x20\n        /* \"#utility.yul\":24922:24931   */\n      dup3\n        /* \"#utility.yul\":24913:24920   */\n      dup5\n        /* \"#utility.yul\":24909:24932   */\n      sub\n        /* \"#utility.yul\":24905:24937   */\n      slt\n        /* \"#utility.yul\":24902:25021   */\n      iszero\n      tag_799\n      jumpi\n        /* \"#utility.yul\":24940:25019   */\n      tag_800\n      tag_512\n      jump\t// in\n    tag_800:\n        /* \"#utility.yul\":24902:25021   */\n    tag_799:\n        /* \"#utility.yul\":25060:25061   */\n      0x00\n        /* \"#utility.yul\":25085:25149   */\n      tag_801\n        /* \"#utility.yul\":25141:25148   */\n      dup5\n        /* \"#utility.yul\":25132:25138   */\n      dup3\n        /* \"#utility.yul\":25121:25130   */\n      dup6\n        /* \"#utility.yul\":25117:25139   */\n      add\n        /* \"#utility.yul\":25085:25149   */\n      tag_564\n      jump\t// in\n    tag_801:\n        /* \"#utility.yul\":25075:25149   */\n      swap2\n      pop\n        /* \"#utility.yul\":25031:25159   */\n      pop\n        /* \"#utility.yul\":24815:25166   */\n      swap3\n      swap2\n      pop\n      pop\n      jump\t// out\n        /* \"#utility.yul\":25172:25335   */\n    tag_565:\n        /* \"#utility.yul\":25312:25327   */\n      0x4e6f74204e4654206f776e657200000000000000000000000000000000000000\n        /* \"#utility.yul\":25308:25309   */\n      0x00\n        /* \"#utility.yul\":25300:25306   */\n      dup3\n        /* \"#utility.yul\":25296:25310   */\n      add\n        /* \"#utility.yul\":25289:25328   */\n      mstore\n        /* \"#utility.yul\":25172:25335   */\n      pop\n      jump\t// out\n        /* \"#utility.yul\":25341:25707   */\n    tag_566:\n        /* \"#utility.yul\":25483:25486   */\n      0x00\n        /* \"#utility.yul\":25504:25571   */\n      tag_804\n        /* \"#utility.yul\":25568:25570   */\n      0x0d\n        /* \"#utility.yul\":25563:25566   */\n      dup4\n        /* \"#utility.yul\":25504:25571   */\n      tag_531\n      jump\t// in\n    tag_804:\n        /* \"#utility.yul\":25497:25571   */\n      swap2\n      pop\n        /* \"#utility.yul\":25580:25673   */\n      tag_805\n        /* \"#utility.yul\":25669:25672   */\n      dup3\n        /* \"#utility.yul\":25580:25673   */\n      tag_565\n      jump\t// in\n    tag_805:\n        /* \"#utility.yul\":25698:25700   */\n      0x20\n        /* \"#utility.yul\":25693:25696   */\n      dup3\n        /* \"#utility.yul\":25689:25701   */\n      add\n        /* \"#utility.yul\":25682:25701   */\n      swap1\n      pop\n        /* \"#utility.yul\":25341:25707   */\n      swap2\n      swap1\n      pop\n      jump\t// out\n        /* \"#utility.yul\":25713:26132   */\n    tag_345:\n        /* \"#utility.yul\":25879:25883   */\n      0x00\n        /* \"#utility.yul\":25917:25919   */\n      0x20\n        /* \"#utility.yul\":25906:25915   */\n      dup3\n        /* \"#utility.yul\":25902:25920   */\n      add\n        /* \"#utility.yul\":25894:25920   */\n      swap1\n      pop\n        /* \"#utility.yul\":25966:25975   */\n      dup2\n        /* \"#utility.yul\":25960:25964   */\n      dup2\n        /* \"#utility.yul\":25956:25976   */\n      sub\n        /* \"#utility.yul\":25952:25953   */\n      0x00\n        /* \"#utility.yul\":25941:25950   */\n      dup4\n        /* \"#utility.yul\":25937:25954   */\n      add\n        /* \"#utility.yul\":25930:25977   */\n      mstore\n        /* \"#utility.yul\":25994:26125   */\n      tag_807\n        /* \"#utility.yul\":26120:26124   */\n      dup2\n        /* \"#utility.yul\":25994:26125   */\n      tag_566\n      jump\t// in\n    tag_807:\n        /* \"#utility.yul\":25986:26125   */\n      swap1\n      pop\n        /* \"#utility.yul\":25713:26132   */\n      swap2\n      swap1\n      pop\n      jump\t// out\n        /* \"#utility.yul\":26138:26313   */\n    tag_567:\n        /* \"#utility.yul\":26278:26305   */\n      0x556e737570706f72746564207061796d656e7420746f6b656e00000000000000\n        /* \"#utility.yul\":26274:26275   */\n      0x00\n        /* \"#utility.yul\":26266:26272   */\n      dup3\n        /* \"#utility.yul\":26262:26276   */\n      add\n        /* \"#utility.yul\":26255:26306   */\n      mstore\n        /* \"#utility.yul\":26138:26313   */\n      pop\n      jump\t// out\n        /* \"#utility.yul\":26319:26685   */\n    tag_568:\n        /* \"#utility.yul\":26461:26464   */\n      0x00\n        /* \"#utility.yul\":26482:26549   */\n      tag_810\n        /* \"#utility.yul\":26546:26548   */\n      0x19\n        /* \"#utility.yul\":26541:26544   */\n      dup4\n        /* \"#utility.yul\":26482:26549   */\n      tag_531\n      jump\t// in\n    tag_810:\n        /* \"#utility.yul\":26475:26549   */\n      swap2\n      pop\n        /* \"#utility.yul\":26558:26651   */\n      tag_811\n        /* \"#utility.yul\":26647:26650   */\n      dup3\n        /* \"#utility.yul\":26558:26651   */\n      tag_567\n      jump\t// in\n    tag_811:\n        /* \"#utility.yul\":26676:26678   */\n      0x20\n        /* \"#utility.yul\":26671:26674   */\n      dup3\n        /* \"#utility.yul\":26667:26679   */\n      add\n        /* \"#utility.yul\":26660:26679   */\n      swap1\n      pop\n        /* \"#utility.yul\":26319:26685   */\n      swap2\n      swap1\n      pop\n      jump\t// out\n        /* \"#utility.yul\":26691:27110   */\n    tag_352:\n        /* \"#utility.yul\":26857:26861   */\n      0x00\n        /* \"#utility.yul\":26895:26897   */\n      0x20\n        /* \"#utility.yul\":26884:26893   */\n      dup3\n        /* \"#utility.yul\":26880:26898   */\n      add\n        /* \"#utility.yul\":26872:26898   */\n      swap1\n      pop\n        /* \"#utility.yul\":26944:26953   */\n      dup2\n        /* \"#utility.yul\":26938:26942   */\n      dup2\n        /* \"#utility.yul\":26934:26954   */\n      sub\n        /* \"#utility.yul\":26930:26931   */\n      0x00\n        /* \"#utility.yul\":26919:26928   */\n      dup4\n        /* \"#utility.yul\":26915:26932   */\n      add\n        /* \"#utility.yul\":26908:26955   */\n      mstore\n        /* \"#utility.yul\":26972:27103   */\n      tag_813\n        /* \"#utility.yul\":27098:27102   */\n      dup2\n        /* \"#utility.yul\":26972:27103   */\n      tag_568\n      jump\t// in\n    tag_813:\n        /* \"#utility.yul\":26964:27103   */\n      swap1\n      pop\n        /* \"#utility.yul\":26691:27110   */\n      swap2\n      swap1\n      pop\n      jump\t// out\n        /* \"#utility.yul\":27116:27290   */\n    tag_569:\n        /* \"#utility.yul\":27256:27282   */\n      0x50726963652073686f756c64206e6f74206265207a65726f0000000000000000\n        /* \"#utility.yul\":27252:27253   */\n      0x00\n        /* \"#utility.yul\":27244:27250   */\n      dup3\n        /* \"#utility.yul\":27240:27254   */\n      add\n        /* \"#utility.yul\":27233:27283   */\n      mstore\n        /* \"#utility.yul\":27116:27290   */\n      pop\n      jump\t// out\n        /* \"#utility.yul\":27296:27662   */\n    tag_570:\n        /* \"#utility.yul\":27438:27441   */\n      0x00\n        /* \"#utility.yul\":27459:27526   */\n      tag_816\n        /* \"#utility.yul\":27523:27525   */\n      0x18\n        /* \"#utility.yul\":27518:27521   */\n      dup4\n        /* \"#utility.yul\":27459:27526   */\n      tag_531\n      jump\t// in\n    tag_816:\n        /* \"#utility.yul\":27452:27526   */\n      swap2\n      pop\n        /* \"#utility.yul\":27535:27628   */\n      tag_817\n        /* \"#utility.yul\":27624:27627   */\n      dup3\n        /* \"#utility.yul\":27535:27628   */\n      tag_569\n      jump\t// in\n    tag_817:\n        /* \"#utility.yul\":27653:27655   */\n      0x20\n        /* \"#utility.yul\":27648:27651   */\n      dup3\n        /* \"#utility.yul\":27644:27656   */\n      add\n        /* \"#utility.yul\":27637:27656   */\n      swap1\n      pop\n        /* \"#utility.yul\":27296:27662   */\n      swap2\n      swap1\n      pop\n      jump\t// out\n        /* \"#utility.yul\":27668:28087   */\n    tag_356:\n        /* \"#utility.yul\":27834:27838   */\n      0x00\n        /* \"#utility.yul\":27872:27874   */\n      0x20\n        /* \"#utility.yul\":27861:27870   */\n      dup3\n        /* \"#utility.yul\":27857:27875   */\n      add\n        /* \"#utility.yul\":27849:27875   */\n      swap1\n      pop\n        /* \"#utility.yul\":27921:27930   */\n      dup2\n        /* \"#utility.yul\":27915:27919   */\n      dup2\n        /* \"#utility.yul\":27911:27931   */\n      sub\n        /* \"#utility.yul\":27907:27908   */\n      0x00\n        /* \"#utility.yul\":27896:27905   */\n      dup4\n        /* \"#utility.yul\":27892:27909   */\n      add\n        /* \"#utility.yul\":27885:27932   */\n      mstore\n        /* \"#utility.yul\":27949:28080   */\n      tag_819\n        /* \"#utility.yul\":28075:28079   */\n      dup2\n        /* \"#utility.yul\":27949:28080   */\n      tag_570\n      jump\t// in\n    tag_819:\n        /* \"#utility.yul\":27941:28080   */\n      swap1\n      pop\n        /* \"#utility.yul\":27668:28087   */\n      swap2\n      swap1\n      pop\n      jump\t// out\n        /* \"#utility.yul\":28093:28209   */\n    tag_571:\n        /* \"#utility.yul\":28163:28184   */\n      tag_821\n        /* \"#utility.yul\":28178:28183   */\n      dup2\n        /* \"#utility.yul\":28163:28184   */\n      tag_528\n      jump\t// in\n    tag_821:\n        /* \"#utility.yul\":28156:28161   */\n      dup2\n        /* \"#utility.yul\":28153:28185   */\n      eq\n        /* \"#utility.yul\":28143:28203   */\n      tag_822\n      jumpi\n        /* \"#utility.yul\":28199:28200   */\n      0x00\n        /* \"#utility.yul\":28196:28197   */\n      dup1\n        /* \"#utility.yul\":28189:28201   */\n      revert\n        /* \"#utility.yul\":28143:28203   */\n    tag_822:\n        /* \"#utility.yul\":28093:28209   */\n      pop\n      jump\t// out\n        /* \"#utility.yul\":28215:28352   */\n    tag_572:\n        /* \"#utility.yul\":28269:28274   */\n      0x00\n        /* \"#utility.yul\":28300:28306   */\n      dup2\n        /* \"#utility.yul\":28294:28307   */\n      mload\n        /* \"#utility.yul\":28285:28307   */\n      swap1\n      pop\n        /* \"#utility.yul\":28316:28346   */\n      tag_824\n        /* \"#utility.yul\":28340:28345   */\n      dup2\n        /* \"#utility.yul\":28316:28346   */\n      tag_571\n      jump\t// in\n    tag_824:\n        /* \"#utility.yul\":28215:28352   */\n      swap3\n      swap2\n      pop\n      pop\n      jump\t// out\n        /* \"#utility.yul\":28358:28703   */\n    tag_361:\n        /* \"#utility.yul\":28425:28431   */\n      0x00\n        /* \"#utility.yul\":28474:28476   */\n      0x20\n        /* \"#utility.yul\":28462:28471   */\n      dup3\n        /* \"#utility.yul\":28453:28460   */\n      dup5\n        /* \"#utility.yul\":28449:28472   */\n      sub\n        /* \"#utility.yul\":28445:28477   */\n      slt\n        /* \"#utility.yul\":28442:28561   */\n      iszero\n      tag_826\n      jumpi\n        /* \"#utility.yul\":28480:28559   */\n      tag_827\n      tag_512\n      jump\t// in\n    tag_827:\n        /* \"#utility.yul\":28442:28561   */\n    tag_826:\n        /* \"#utility.yul\":28600:28601   */\n      0x00\n        /* \"#utility.yul\":28625:28686   */\n      tag_828\n        /* \"#utility.yul\":28678:28685   */\n      dup5\n        /* \"#utility.yul\":28669:28675   */\n      dup3\n        /* \"#utility.yul\":28658:28667   */\n      dup6\n        /* \"#utility.yul\":28654:28676   */\n      add\n        /* \"#utility.yul\":28625:28686   */\n      tag_572\n      jump\t// in\n    tag_828:\n        /* \"#utility.yul\":28615:28686   */\n      swap2\n      pop\n        /* \"#utility.yul\":28571:28696   */\n      pop\n        /* \"#utility.yul\":28358:28703   */\n      swap3\n      swap2\n      pop\n      pop\n      jump\t// out\n        /* \"#utility.yul\":28709:28880   */\n    tag_573:\n        /* \"#utility.yul\":28849:28872   */\n      0x4e465420417070726f76616c2072657175697265640000000000000000000000\n        /* \"#utility.yul\":28845:28846   */\n      0x00\n        /* \"#utility.yul\":28837:28843   */\n      dup3\n        /* \"#utility.yul\":28833:28847   */\n      add\n        /* \"#utility.yul\":28826:28873   */\n      mstore\n        /* \"#utility.yul\":28709:28880   */\n      pop\n      jump\t// out\n        /* \"#utility.yul\":28886:29252   */\n    tag_574:\n        /* \"#utility.yul\":29028:29031   */\n      0x00\n        /* \"#utility.yul\":29049:29116   */\n      tag_831\n        /* \"#utility.yul\":29113:29115   */\n      0x15\n        /* \"#utility.yul\":29108:29111   */\n      dup4\n        /* \"#utility.yul\":29049:29116   */\n      tag_531\n      jump\t// in\n    tag_831:\n        /* \"#utility.yul\":29042:29116   */\n      swap2\n      pop\n        /* \"#utility.yul\":29125:29218   */\n      tag_832\n        /* \"#utility.yul\":29214:29217   */\n      dup3\n        /* \"#utility.yul\":29125:29218   */\n      tag_573\n      jump\t// in\n    tag_832:\n        /* \"#utility.yul\":29243:29245   */\n      0x20\n        /* \"#utility.yul\":29238:29241   */\n      dup3\n        /* \"#utility.yul\":29234:29246   */\n      add\n        /* \"#utility.yul\":29227:29246   */\n      swap1\n      pop\n        /* \"#utility.yul\":28886:29252   */\n      swap2\n      swap1\n      pop\n      jump\t// out\n        /* \"#utility.yul\":29258:29677   */\n    tag_369:\n        /* \"#utility.yul\":29424:29428   */\n      0x00\n        /* \"#utility.yul\":29462:29464   */\n      0x20\n        /* \"#utility.yul\":29451:29460   */\n      dup3\n        /* \"#utility.yul\":29447:29465   */\n      add\n        /* \"#utility.yul\":29439:29465   */\n      swap1\n      pop\n        /* \"#utility.yul\":29511:29520   */\n      dup2\n        /* \"#utility.yul\":29505:29509   */\n      dup2\n        /* \"#utility.yul\":29501:29521   */\n      sub\n        /* \"#utility.yul\":29497:29498   */\n      0x00\n        /* \"#utility.yul\":29486:29495   */\n      dup4\n        /* \"#utility.yul\":29482:29499   */\n      add\n        /* \"#utility.yul\":29475:29522   */\n      mstore\n        /* \"#utility.yul\":29539:29670   */\n      tag_834\n        /* \"#utility.yul\":29665:29669   */\n      dup2\n        /* \"#utility.yul\":29539:29670   */\n      tag_574\n      jump\t// in\n    tag_834:\n        /* \"#utility.yul\":29531:29670   */\n      swap1\n      pop\n        /* \"#utility.yul\":29258:29677   */\n      swap2\n      swap1\n      pop\n      jump\t// out\n        /* \"#utility.yul\":29683:29850   */\n    tag_575:\n        /* \"#utility.yul\":29823:29842   */\n      0x4e6f20746f6b656e206561726e696e6773000000000000000000000000000000\n        /* \"#utility.yul\":29819:29820   */\n      0x00\n        /* \"#utility.yul\":29811:29817   */\n      dup3\n        /* \"#utility.yul\":29807:29821   */\n      add\n        /* \"#utility.yul\":29800:29843   */\n      mstore\n        /* \"#utility.yul\":29683:29850   */\n      pop\n      jump\t// out\n        /* \"#utility.yul\":29856:30222   */\n    tag_576:\n        /* \"#utility.yul\":29998:30001   */\n      0x00\n        /* \"#utility.yul\":30019:30086   */\n      tag_837\n        /* \"#utility.yul\":30083:30085   */\n      0x11\n        /* \"#utility.yul\":30078:30081   */\n      dup4\n        /* \"#utility.yul\":30019:30086   */\n      tag_531\n      jump\t// in\n    tag_837:\n        /* \"#utility.yul\":30012:30086   */\n      swap2\n      pop\n        /* \"#utility.yul\":30095:30188   */\n      tag_838\n        /* \"#utility.yul\":30184:30187   */\n      dup3\n        /* \"#utility.yul\":30095:30188   */\n      tag_575\n      jump\t// in\n    tag_838:\n        /* \"#utility.yul\":30213:30215   */\n      0x20\n        /* \"#utility.yul\":30208:30211   */\n      dup3\n        /* \"#utility.yul\":30204:30216   */\n      add\n        /* \"#utility.yul\":30197:30216   */\n      swap1\n      pop\n        /* \"#utility.yul\":29856:30222   */\n      swap2\n      swap1\n      pop\n      jump\t// out\n        /* \"#utility.yul\":30228:30647   */\n    tag_392:\n        /* \"#utility.yul\":30394:30398   */\n      0x00\n        /* \"#utility.yul\":30432:30434   */\n      0x20\n        /* \"#utility.yul\":30421:30430   */\n      dup3\n        /* \"#utility.yul\":30417:30435   */\n      add\n        /* \"#utility.yul\":30409:30435   */\n      swap1\n      pop\n        /* \"#utility.yul\":30481:30490   */\n      dup2\n        /* \"#utility.yul\":30475:30479   */\n      dup2\n        /* \"#utility.yul\":30471:30491   */\n      sub\n        /* \"#utility.yul\":30467:30468   */\n      0x00\n        /* \"#utility.yul\":30456:30465   */\n      dup4\n        /* \"#utility.yul\":30452:30469   */\n      add\n        /* \"#utility.yul\":30445:30492   */\n      mstore\n        /* \"#utility.yul\":30509:30640   */\n      tag_840\n        /* \"#utility.yul\":30635:30639   */\n      dup2\n        /* \"#utility.yul\":30509:30640   */\n      tag_576\n      jump\t// in\n    tag_840:\n        /* \"#utility.yul\":30501:30640   */\n      swap1\n      pop\n        /* \"#utility.yul\":30228:30647   */\n      swap2\n      swap1\n      pop\n      jump\t// out\n        /* \"#utility.yul\":30653:30834   */\n    tag_577:\n        /* \"#utility.yul\":30793:30826   */\n      0x596f7572206269642069732062656c6f77206d696e696d756d20707269636500\n        /* \"#utility.yul\":30789:30790   */\n      0x00\n        /* \"#utility.yul\":30781:30787   */\n      dup3\n        /* \"#utility.yul\":30777:30791   */\n      add\n        /* \"#utility.yul\":30770:30827   */\n      mstore\n        /* \"#utility.yul\":30653:30834   */\n      pop\n      jump\t// out\n        /* \"#utility.yul\":30840:31206   */\n    tag_578:\n        /* \"#utility.yul\":30982:30985   */\n      0x00\n        /* \"#utility.yul\":31003:31070   */\n      tag_843\n        /* \"#utility.yul\":31067:31069   */\n      0x1f\n        /* \"#utility.yul\":31062:31065   */\n      dup4\n        /* \"#utility.yul\":31003:31070   */\n      tag_531\n      jump\t// in\n    tag_843:\n        /* \"#utility.yul\":30996:31070   */\n      swap2\n      pop\n        /* \"#utility.yul\":31079:31172   */\n      tag_844\n        /* \"#utility.yul\":31168:31171   */\n      dup3\n        /* \"#utility.yul\":31079:31172   */\n      tag_577\n      jump\t// in\n    tag_844:\n        /* \"#utility.yul\":31197:31199   */\n      0x20\n        /* \"#utility.yul\":31192:31195   */\n      dup3\n        /* \"#utility.yul\":31188:31200   */\n      add\n        /* \"#utility.yul\":31181:31200   */\n      swap1\n      pop\n        /* \"#utility.yul\":30840:31206   */\n      swap2\n      swap1\n      pop\n      jump\t// out\n        /* \"#utility.yul\":31212:31631   */\n    tag_421:\n        /* \"#utility.yul\":31378:31382   */\n      0x00\n        /* \"#utility.yul\":31416:31418   */\n      0x20\n        /* \"#utility.yul\":31405:31414   */\n      dup3\n        /* \"#utility.yul\":31401:31419   */\n      add\n        /* \"#utility.yul\":31393:31419   */\n      swap1\n      pop\n        /* \"#utility.yul\":31465:31474   */\n      dup2\n        /* \"#utility.yul\":31459:31463   */\n      dup2\n        /* \"#utility.yul\":31455:31475   */\n      sub\n        /* \"#utility.yul\":31451:31452   */\n      0x00\n        /* \"#utility.yul\":31440:31449   */\n      dup4\n        /* \"#utility.yul\":31436:31453   */\n      add\n        /* \"#utility.yul\":31429:31476   */\n      mstore\n        /* \"#utility.yul\":31493:31624   */\n      tag_846\n        /* \"#utility.yul\":31619:31623   */\n      dup2\n        /* \"#utility.yul\":31493:31624   */\n      tag_578\n      jump\t// in\n    tag_846:\n        /* \"#utility.yul\":31485:31624   */\n      swap1\n      pop\n        /* \"#utility.yul\":31212:31631   */\n      swap2\n      swap1\n      pop\n      jump\t// out\n        /* \"#utility.yul\":31637:31804   */\n    tag_579:\n        /* \"#utility.yul\":31777:31796   */\n      0x496e76616c6964204554482076616c7565000000000000000000000000000000\n        /* \"#utility.yul\":31773:31774   */\n      0x00\n        /* \"#utility.yul\":31765:31771   */\n      dup3\n        /* \"#utility.yul\":31761:31775   */\n      add\n        /* \"#utility.yul\":31754:31797   */\n      mstore\n        /* \"#utility.yul\":31637:31804   */\n      pop\n      jump\t// out\n        /* \"#utility.yul\":31810:32176   */\n    tag_580:\n        /* \"#utility.yul\":31952:31955   */\n      0x00\n        /* \"#utility.yul\":31973:32040   */\n      tag_849\n        /* \"#utility.yul\":32037:32039   */\n      0x11\n        /* \"#utility.yul\":32032:32035   */\n      dup4\n        /* \"#utility.yul\":31973:32040   */\n      tag_531\n      jump\t// in\n    tag_849:\n        /* \"#utility.yul\":31966:32040   */\n      swap2\n      pop\n        /* \"#utility.yul\":32049:32142   */\n      tag_850\n        /* \"#utility.yul\":32138:32141   */\n      dup3\n        /* \"#utility.yul\":32049:32142   */\n      tag_579\n      jump\t// in\n    tag_850:\n        /* \"#utility.yul\":32167:32169   */\n      0x20\n        /* \"#utility.yul\":32162:32165   */\n      dup3\n        /* \"#utility.yul\":32158:32170   */\n      add\n        /* \"#utility.yul\":32151:32170   */\n      swap1\n      pop\n        /* \"#utility.yul\":31810:32176   */\n      swap2\n      swap1\n      pop\n      jump\t// out\n        /* \"#utility.yul\":32182:32601   */\n    tag_427:\n        /* \"#utility.yul\":32348:32352   */\n      0x00\n        /* \"#utility.yul\":32386:32388   */\n      0x20\n        /* \"#utility.yul\":32375:32384   */\n      dup3\n        /* \"#utility.yul\":32371:32389   */\n      add\n        /* \"#utility.yul\":32363:32389   */\n      swap1\n      pop\n        /* \"#utility.yul\":32435:32444   */\n      dup2\n        /* \"#utility.yul\":32429:32433   */\n      dup2\n        /* \"#utility.yul\":32425:32445   */\n      sub\n        /* \"#utility.yul\":32421:32422   */\n      0x00\n        /* \"#utility.yul\":32410:32419   */\n      dup4\n        /* \"#utility.yul\":32406:32423   */\n      add\n        /* \"#utility.yul\":32399:32446   */\n      mstore\n        /* \"#utility.yul\":32463:32594   */\n      tag_852\n        /* \"#utility.yul\":32589:32593   */\n      dup2\n        /* \"#utility.yul\":32463:32594   */\n      tag_580\n      jump\t// in\n    tag_852:\n        /* \"#utility.yul\":32455:32594   */\n      swap1\n      pop\n        /* \"#utility.yul\":32182:32601   */\n      swap2\n      swap1\n      pop\n      jump\t// out\n        /* \"#utility.yul\":32607:32829   */\n    tag_581:\n        /* \"#utility.yul\":32747:32781   */\n      0x426964206d75737420626520686967686572207468616e2063757272656e7420\n        /* \"#utility.yul\":32743:32744   */\n      0x00\n        /* \"#utility.yul\":32735:32741   */\n      dup3\n        /* \"#utility.yul\":32731:32745   */\n      add\n        /* \"#utility.yul\":32724:32782   */\n      mstore\n        /* \"#utility.yul\":32816:32821   */\n      0x6269640000000000000000000000000000000000000000000000000000000000\n        /* \"#utility.yul\":32811:32813   */\n      0x20\n        /* \"#utility.yul\":32803:32809   */\n      dup3\n        /* \"#utility.yul\":32799:32814   */\n      add\n        /* \"#utility.yul\":32792:32822   */\n      mstore\n        /* \"#utility.yul\":32607:32829   */\n      pop\n      jump\t// out\n        /* \"#utility.yul\":32835:33201   */\n    tag_582:\n        /* \"#utility.yul\":32977:32980   */\n      0x00\n        /* \"#utility.yul\":32998:33065   */\n      tag_855\n        /* \"#utility.yul\":33062:33064   */\n      0x23\n        /* \"#utility.yul\":33057:33060   */\n      dup4\n        /* \"#utility.yul\":32998:33065   */\n      tag_531\n      jump\t// in\n    tag_855:\n        /* \"#utility.yul\":32991:33065   */\n      swap2\n      pop\n        /* \"#utility.yul\":33074:33167   */\n      tag_856\n        /* \"#utility.yul\":33163:33166   */\n      dup3\n        /* \"#utility.yul\":33074:33167   */\n      tag_581\n      jump\t// in\n    tag_856:\n        /* \"#utility.yul\":33192:33194   */\n      0x40\n        /* \"#utility.yul\":33187:33190   */\n      dup3\n        /* \"#utility.yul\":33183:33195   */\n      add\n        /* \"#utility.yul\":33176:33195   */\n      swap1\n      pop\n        /* \"#utility.yul\":32835:33201   */\n      swap2\n      swap1\n      pop\n      jump\t// out\n        /* \"#utility.yul\":33207:33626   */\n    tag_433:\n        /* \"#utility.yul\":33373:33377   */\n      0x00\n        /* \"#utility.yul\":33411:33413   */\n      0x20\n        /* \"#utility.yul\":33400:33409   */\n      dup3\n        /* \"#utility.yul\":33396:33414   */\n      add\n        /* \"#utility.yul\":33388:33414   */\n      swap1\n      pop\n        /* \"#utility.yul\":33460:33469   */\n      dup2\n        /* \"#utility.yul\":33454:33458   */\n      dup2\n        /* \"#utility.yul\":33450:33470   */\n      sub\n        /* \"#utility.yul\":33446:33447   */\n      0x00\n        /* \"#utility.yul\":33435:33444   */\n      dup4\n        /* \"#utility.yul\":33431:33448   */\n      add\n        /* \"#utility.yul\":33424:33471   */\n      mstore\n        /* \"#utility.yul\":33488:33619   */\n      tag_858\n        /* \"#utility.yul\":33614:33618   */\n      dup2\n        /* \"#utility.yul\":33488:33619   */\n      tag_582\n      jump\t// in\n    tag_858:\n        /* \"#utility.yul\":33480:33619   */\n      swap1\n      pop\n        /* \"#utility.yul\":33207:33626   */\n      swap2\n      swap1\n      pop\n      jump\t// out\n        /* \"#utility.yul\":33632:33800   */\n    tag_583:\n        /* \"#utility.yul\":33772:33792   */\n      0x4e6f2045544820746f2077697468647261770000000000000000000000000000\n        /* \"#utility.yul\":33768:33769   */\n      0x00\n        /* \"#utility.yul\":33760:33766   */\n      dup3\n        /* \"#utility.yul\":33756:33770   */\n      add\n        /* \"#utility.yul\":33749:33793   */\n      mstore\n        /* \"#utility.yul\":33632:33800   */\n      pop\n      jump\t// out\n        /* \"#utility.yul\":33806:34172   */\n    tag_584:\n        /* \"#utility.yul\":33948:33951   */\n      0x00\n        /* \"#utility.yul\":33969:34036   */\n      tag_861\n        /* \"#utility.yul\":34033:34035   */\n      0x12\n        /* \"#utility.yul\":34028:34031   */\n      dup4\n        /* \"#utility.yul\":33969:34036   */\n      tag_531\n      jump\t// in\n    tag_861:\n        /* \"#utility.yul\":33962:34036   */\n      swap2\n      pop\n        /* \"#utility.yul\":34045:34138   */\n      tag_862\n        /* \"#utility.yul\":34134:34137   */\n      dup3\n        /* \"#utility.yul\":34045:34138   */\n      tag_583\n      jump\t// in\n    tag_862:\n        /* \"#utility.yul\":34163:34165   */\n      0x20\n        /* \"#utility.yul\":34158:34161   */\n      dup3\n        /* \"#utility.yul\":34154:34166   */\n      add\n        /* \"#utility.yul\":34147:34166   */\n      swap1\n      pop\n        /* \"#utility.yul\":33806:34172   */\n      swap2\n      swap1\n      pop\n      jump\t// out\n        /* \"#utility.yul\":34178:34597   */\n    tag_452:\n        /* \"#utility.yul\":34344:34348   */\n      0x00\n        /* \"#utility.yul\":34382:34384   */\n      0x20\n        /* \"#utility.yul\":34371:34380   */\n      dup3\n        /* \"#utility.yul\":34367:34385   */\n      add\n        /* \"#utility.yul\":34359:34385   */\n      swap1\n      pop\n        /* \"#utility.yul\":34431:34440   */\n      dup2\n        /* \"#utility.yul\":34425:34429   */\n      dup2\n        /* \"#utility.yul\":34421:34441   */\n      sub\n        /* \"#utility.yul\":34417:34418   */\n      0x00\n        /* \"#utility.yul\":34406:34415   */\n      dup4\n        /* \"#utility.yul\":34402:34419   */\n      add\n        /* \"#utility.yul\":34395:34442   */\n      mstore\n        /* \"#utility.yul\":34459:34590   */\n      tag_864\n        /* \"#utility.yul\":34585:34589   */\n      dup2\n        /* \"#utility.yul\":34459:34590   */\n      tag_584\n      jump\t// in\n    tag_864:\n        /* \"#utility.yul\":34451:34590   */\n      swap1\n      pop\n        /* \"#utility.yul\":34178:34597   */\n      swap2\n      swap1\n      pop\n      jump\t// out\n\n    auxdata: 0xa2646970667358221220606e2e4d2981c97835838257c1c2986c77f08dd85eef0afc2d2a226d66b174f364736f6c63430008180033\n}\n",
				"bytecode": {
					"linkReferences": {},
					"object": "608060405260c86002556101f46003553480156200001b575f80fd5b5060405162004a1938038062004a198339818101604052810190620000419190620004de565b3360015f819055505f73ffffffffffffffffffffffffffffffffffffffff168173ffffffffffffffffffffffffffffffffffffffff1603620000bc575f6040517f1e4fbdf7000000000000000000000000000000000000000000000000000000008152600401620000b391906200055e565b60405180910390fd5b620000cd81620003b660201b60201c565b505f600160146101000a81548160ff0219169083151502179055505f73ffffffffffffffffffffffffffffffffffffffff168473ffffffffffffffffffffffffffffffffffffffff160362000159576040517f08c379a00000000000000000000000000000000000000000000000000000000081526004016200015090620005d7565b60405180910390fd5b5f73ffffffffffffffffffffffffffffffffffffffff168373ffffffffffffffffffffffffffffffffffffffff1603620001ca576040517f08c379a0000000000000000000000000000000000000000000000000000000008152600401620001c19062000645565b60405180910390fd5b5f73ffffffffffffffffffffffffffffffffffffffff168273ffffffffffffffffffffffffffffffffffffffff16036200023b576040517f08c379a00000000000000000000000000000000000000000000000000000000081526004016200023290620006b3565b60405180910390fd5b5f73ffffffffffffffffffffffffffffffffffffffff168173ffffffffffffffffffffffffffffffffffffffff1603620002ac576040517f08c379a0000000000000000000000000000000000000000000000000000000008152600401620002a39062000721565b60405180910390fd5b83600d5f6101000a81548173ffffffffffffffffffffffffffffffffffffffff021916908373ffffffffffffffffffffffffffffffffffffffff16021790555082600a5f6101000a81548173ffffffffffffffffffffffffffffffffffffffff021916908373ffffffffffffffffffffffffffffffffffffffff16021790555081600b5f6101000a81548173ffffffffffffffffffffffffffffffffffffffff021916908373ffffffffffffffffffffffffffffffffffffffff16021790555080600c5f6101000a81548173ffffffffffffffffffffffffffffffffffffffff021916908373ffffffffffffffffffffffffffffffffffffffff1602179055505050505062000741565b5f60015f9054906101000a900473ffffffffffffffffffffffffffffffffffffffff1690508160015f6101000a81548173ffffffffffffffffffffffffffffffffffffffff021916908373ffffffffffffffffffffffffffffffffffffffff1602179055508173ffffffffffffffffffffffffffffffffffffffff168173ffffffffffffffffffffffffffffffffffffffff167f8be0079c531659141344cd1fd0a4f28419497f9722a3daafe3b4186f6b6457e060405160405180910390a35050565b5f80fd5b5f73ffffffffffffffffffffffffffffffffffffffff82169050919050565b5f620004a8826200047d565b9050919050565b620004ba816200049c565b8114620004c5575f80fd5b50565b5f81519050620004d881620004af565b92915050565b5f805f8060808587031215620004f957620004f862000479565b5b5f6200050887828801620004c8565b94505060206200051b87828801620004c8565b93505060406200052e87828801620004c8565b92505060606200054187828801620004c8565b91505092959194509250565b62000558816200049c565b82525050565b5f602082019050620005735f8301846200054d565b92915050565b5f82825260208201905092915050565b7f496e76616c6964204e465420636f6e74726163740000000000000000000000005f82015250565b5f620005bf60148362000579565b9150620005cc8262000589565b602082019050919050565b5f6020820190508181035f830152620005f081620005b1565b9050919050565b7f496e76616c6964204d4c494645206164647265737300000000000000000000005f82015250565b5f6200062d60158362000579565b91506200063a82620005f7565b602082019050919050565b5f6020820190508181035f8301526200065e816200061f565b9050919050565b7f496e76616c6964205553445420616464726573730000000000000000000000005f82015250565b5f6200069b60148362000579565b9150620006a88262000665565b602082019050919050565b5f6020820190508181035f830152620006cc816200068d565b9050919050565b7f496e76616c6964205553444320616464726573730000000000000000000000005f82015250565b5f6200070960148362000579565b91506200071682620006d3565b602082019050919050565b5f6020820190508181035f8301526200073a81620006fb565b9050919050565b6142ca806200074f5f395ff3fe6080604052600436106101fc575f3560e01c80638456cb591161010c578063bf6aee981161009f578063de74e57b1161006e578063de74e57b1461068b578063ed952ccd146106cb578063f2fde38b14610707578063fd95c7391461072f578063ff743e891461074557610203565b8063bf6aee98146105e3578063c86d40401461060d578063d56d229d14610637578063d73792a91461066157610203565b806399c5c8aa116100db57806399c5c8aa14610537578063a3269b0914610561578063ad6561ec1461059d578063bc063e1a146105b957610203565b80638456cb59146104a7578063884282a1146104bd5780638da5cb5b146104e557806392e67c061461050f57610203565b80634c97cf7c1161018f5780635c975abb1161015e5780635c975abb146103eb57806365c11bf0146104155780636a1669641461043d578063715018a614610467578063729737911461047d57610203565b80634c97cf7c1461035d57806352fb654114610385578063550dddeb1461039b5780635c3b37db146103c357610203565b80632b1fd58a116101cb5780632b1fd58a146102cf578063305a67a8146102f757806330eb80cd1461031f5780633f4ba83a1461034757610203565b80630382d42414610207578063150b7a02146102435780631e534be61461027f5780631f8ca0b5146102a757610203565b3661020357005b5f80fd5b348015610212575f80fd5b5061022d60048036038101906102289190613333565b610782565b60405161023a9190613389565b60405180910390f35b34801561024e575f80fd5b506102696004803603810190610264919061342d565b6107a2565b60405161027691906134eb565b60405180910390f35b34801561028a575f80fd5b506102a560048036038101906102a09190613504565b6107b6565b005b3480156102b2575f80fd5b506102cd60048036038101906102c89190613504565b6108c9565b005b3480156102da575f80fd5b506102f560048036038101906102f0919061352f565b6109dc565b005b348015610302575f80fd5b5061031d6004803603810190610318919061352f565b610fff565b005b34801561032a575f80fd5b506103456004803603810190610340919061352f565b61125d565b005b348015610352575f80fd5b5061035b6112f6565b005b348015610368575f80fd5b50610383600480360381019061037e9190613504565b611334565b005b348015610390575f80fd5b50610399611447565b005b3480156103a6575f80fd5b506103c160048036038101906103bc919061352f565b611670565b005b3480156103ce575f80fd5b506103e960048036038101906103e49190613504565b611708565b005b3480156103f6575f80fd5b506103ff6119a1565b60405161040c9190613574565b60405180910390f35b348015610420575f80fd5b5061043b6004803603810190610436919061358d565b6119b7565b005b348015610448575f80fd5b5061045161202e565b60405161045e9190613389565b60405180910390f35b348015610472575f80fd5b5061047b612034565b005b348015610488575f80fd5b50610491612047565b60405161049e91906135ec565b60405180910390f35b3480156104b2575f80fd5b506104bb61206c565b005b3480156104c8575f80fd5b506104e360048036038101906104de9190613504565b6120aa565b005b3480156104f0575f80fd5b506104f9612229565b60405161050691906135ec565b60405180910390f35b34801561051a575f80fd5b5061053560048036038101906105309190613504565b612251565b005b348015610542575f80fd5b5061054b612364565b60405161055891906135ec565b60405180910390f35b34801561056c575f80fd5b5061058760048036038101906105829190613504565b612389565b6040516105949190613389565b60405180910390f35b6105b760048036038101906105b29190613605565b61239e565b005b3480156105c4575f80fd5b506105cd6129af565b6040516105da9190613389565b60405180910390f35b3480156105ee575f80fd5b506105f76129b5565b6040516106049190613389565b60405180910390f35b348015610618575f80fd5b506106216129bb565b60405161062e91906135ec565b60405180910390f35b348015610642575f80fd5b5061064b6129e0565b60405161065891906135ec565b60405180910390f35b34801561066c575f80fd5b50610675612a05565b6040516106829190613389565b60405180910390f35b348015610696575f80fd5b506106b160048036038101906106ac919061352f565b612a0b565b6040516106c2959493929190613655565b60405180910390f35b3480156106d6575f80fd5b506106f160048036038101906106ec9190613504565b612a87565b6040516106fe9190613389565b60405180910390f35b348015610712575f80fd5b5061072d60048036038101906107289190613504565b612a9c565b005b34801561073a575f80fd5b50610743612b20565b005b348015610750575f80fd5b5061076b6004803603810190610766919061352f565b612c8f565b6040516107799291906136a6565b60405180910390f35b6009602052815f5260405f20602052805f5260405f205f91509150505481565b5f63150b7a0260e01b905095945050505050565b6107be612cce565b5f73ffffffffffffffffffffffffffffffffffffffff168173ffffffffffffffffffffffffffffffffffffffff160361082c576040517f08c379a000000000000000000000000000000000000000000000000000000000815260040161082390613727565b60405180910390fd5b7f7dcd2c12cfcc397a33bdadd64452f757ead5ae363dcd02873aebbb68d4ee47d0600c5f9054906101000a900473ffffffffffffffffffffffffffffffffffffffff168260405161087e929190613745565b60405180910390a180600c5f6101000a81548173ffffffffffffffffffffffffffffffffffffffff021916908373ffffffffffffffffffffffffffffffffffffffff16021790555050565b6108d1612cce565b5f73ffffffffffffffffffffffffffffffffffffffff168173ffffffffffffffffffffffffffffffffffffffff160361093f576040517f08c379a000000000000000000000000000000000000000000000000000000000815260040161093690613727565b60405180910390fd5b7fc3470c74402cd9ae145a41ef14d7a54822da2ad9e12cbec2c0c70efa93a89cd6600a5f9054906101000a900473ffffffffffffffffffffffffffffffffffffffff1682604051610991929190613745565b60405180910390a180600a5f6101000a81548173ffffffffffffffffffffffffffffffffffffffff021916908373ffffffffffffffffffffffffffffffffffffffff16021790555050565b6109e4612d55565b6109ec612d99565b8060065f8281526020019081526020015f206004015f9054906101000a900460ff16610a4d576040517f08c379a0000000000000000000000000000000000000000000000000000000008152600401610a44906137b6565b60405180910390fd5b5f60065f8481526020019081526020015f2090505f60075f8581526020019081526020015f206040518060400160405290815f82015f9054906101000a900473ffffffffffffffffffffffffffffffffffffffff1673ffffffffffffffffffffffffffffffffffffffff1673ffffffffffffffffffffffffffffffffffffffff16815260200160018201548152505090503373ffffffffffffffffffffffffffffffffffffffff16825f015f9054906101000a900473ffffffffffffffffffffffffffffffffffffffff1673ffffffffffffffffffffffffffffffffffffffff1614610b6e576040517f08c379a0000000000000000000000000000000000000000000000000000000008152600401610b659061381e565b60405180910390fd5b5f816020015111610bb4576040517f08c379a0000000000000000000000000000000000000000000000000000000008152600401610bab90613886565b60405180910390fd5b5f6127106002548360200151610bca91906138d1565b610bd4919061393f565b90505f818360200151610be7919061396f565b90505f73ffffffffffffffffffffffffffffffffffffffff16846002015f9054906101000a900473ffffffffffffffffffffffffffffffffffffffff1673ffffffffffffffffffffffffffffffffffffffff1603610d27578160045f828254610c5091906139a2565b925050819055505f845f015f9054906101000a900473ffffffffffffffffffffffffffffffffffffffff1673ffffffffffffffffffffffffffffffffffffffff1682604051610c9e90613a02565b5f6040518083038185875af1925050503d805f8114610cd8576040519150601f19603f3d011682016040523d82523d5f602084013e610cdd565b606091505b5050905080610d21576040517f08c379a0000000000000000000000000000000000000000000000000000000008152600401610d1890613a60565b60405180910390fd5b50610e0e565b8160055f866002015f9054906101000a900473ffffffffffffffffffffffffffffffffffffffff1673ffffffffffffffffffffffffffffffffffffffff1673ffffffffffffffffffffffffffffffffffffffff1681526020019081526020015f205f828254610d9691906139a2565b92505081905550610e0d845f015f9054906101000a900473ffffffffffffffffffffffffffffffffffffffff1682866002015f9054906101000a900473ffffffffffffffffffffffffffffffffffffffff1673ffffffffffffffffffffffffffffffffffffffff16612dda9092919063ffffffff16565b5b600d5f9054906101000a900473ffffffffffffffffffffffffffffffffffffffff1673ffffffffffffffffffffffffffffffffffffffff166342842e0e30855f015187600101546040518463ffffffff1660e01b8152600401610e7393929190613a7e565b5f604051808303815f87803b158015610e8a575f80fd5b505af1158015610e9c573d5f803e3d5ffd5b5050505060065f8781526020019081526020015f205f8082015f6101000a81549073ffffffffffffffffffffffffffffffffffffffff0219169055600182015f9055600282015f6101000a81549073ffffffffffffffffffffffffffffffffffffffff0219169055600382015f9055600482015f6101000a81549060ff0219169055505060075f8781526020019081526020015f205f8082015f6101000a81549073ffffffffffffffffffffffffffffffffffffffff0219169055600182015f90555050835f015f9054906101000a900473ffffffffffffffffffffffffffffffffffffffff1673ffffffffffffffffffffffffffffffffffffffff16835f015173ffffffffffffffffffffffffffffffffffffffff16877f8562eb94748e30bb0071e932744ce902b460c683474fcb3bfd567ffa16b1afb28660200151604051610fe79190613389565b60405180910390a45050505050610ffc612e59565b50565b611007612d99565b61100f612d55565b60065f8281526020019081526020015f206004015f9054906101000a900460ff1661106f576040517f08c379a0000000000000000000000000000000000000000000000000000000008152600401611066906137b6565b60405180910390fd5b3373ffffffffffffffffffffffffffffffffffffffff1660065f8381526020019081526020015f205f015f9054906101000a900473ffffffffffffffffffffffffffffffffffffffff1673ffffffffffffffffffffffffffffffffffffffff161461110f576040517f08c379a000000000000000000000000000000000000000000000000000000000815260040161110690613afd565b60405180910390fd5b600d5f9054906101000a900473ffffffffffffffffffffffffffffffffffffffff1673ffffffffffffffffffffffffffffffffffffffff166323b872dd3033846040518463ffffffff1660e01b815260040161116d93929190613a7e565b5f604051808303815f87803b158015611184575f80fd5b505af1158015611196573d5f803e3d5ffd5b5050505060065f8281526020019081526020015f205f8082015f6101000a81549073ffffffffffffffffffffffffffffffffffffffff0219169055600182015f9055600282015f6101000a81549073ffffffffffffffffffffffffffffffffffffffff0219169055600382015f9055600482015f6101000a81549060ff02191690555050807f8e25282255ab31897df2b0456bb993ac7f84d376861aefd84901d2d63a7428a23360405161124a91906135ec565b60405180910390a261125a612e59565b50565b611265612cce565b5f8111801561127657506003548111155b6112b5576040517f08c379a00000000000000000000000000000000000000000000000000000000081526004016112ac90613b65565b60405180910390fd5b806002819055507fe18aa129833f655a8166b6185277fee7a53f67e46fd32329bc2fc2ac21274d55816040516112eb9190613389565b60405180910390a150565b6112fe612cce565b611306612e62565b7fa45f47fdea8a1efdd9029a5691c7f759c32b7c698632b563573e155625d1693360405160405180910390a1565b61133c612cce565b5f73ffffffffffffffffffffffffffffffffffffffff168173ffffffffffffffffffffffffffffffffffffffff16036113aa576040517f08c379a00000000000000000000000000000000000000000000000000000000081526004016113a190613727565b60405180910390fd5b7f495ea904988daa5f88f7d03303cced2c8a506050b1a7d20644a75313de113813600b5f9054906101000a900473ffffffffffffffffffffffffffffffffffffffff16826040516113fc929190613745565b60405180910390a180600b5f6101000a81548173ffffffffffffffffffffffffffffffffffffffff021916908373ffffffffffffffffffffffffffffffffffffffff16021790555050565b61144f612d55565b5f60085f3373ffffffffffffffffffffffffffffffffffffffff1673ffffffffffffffffffffffffffffffffffffffff1681526020019081526020015f205490505f81116114d2576040517f08c379a00000000000000000000000000000000000000000000000000000000081526004016114c990613bcd565b60405180910390fd5b47811115611515576040517f08c379a000000000000000000000000000000000000000000000000000000000815260040161150c90613c35565b60405180910390fd5b5f60085f3373ffffffffffffffffffffffffffffffffffffffff1673ffffffffffffffffffffffffffffffffffffffff1681526020019081526020015f20819055505f3373ffffffffffffffffffffffffffffffffffffffff168260405161157c90613a02565b5f6040518083038185875af1925050503d805f81146115b6576040519150601f19603f3d011682016040523d82523d5f602084013e6115bb565b606091505b50509050806115ff576040517f08c379a00000000000000000000000000000000000000000000000000000000081526004016115f690613c9d565b60405180910390fd5b3373ffffffffffffffffffffffffffffffffffffffff165f73ffffffffffffffffffffffffffffffffffffffff167fd55b5fe81317b854ac11454adf7e5a9a0adf69184d643ef9ae6bfda6a015c5bc8460405161165c9190613389565b60405180910390a3505061166e612e59565b565b611678612cce565b5f81118015611688575061038481105b6116c7576040517f08c379a00000000000000000000000000000000000000000000000000000000081526004016116be90613d05565b60405180910390fd5b806003819055507f5d46f46c0e5b2045e0cb8c00367d35d9f3f1fc035950ac8f5c675f6c0a791ba0816040516116fd9190613389565b60405180910390a150565b611710612d55565b5f60095f3373ffffffffffffffffffffffffffffffffffffffff1673ffffffffffffffffffffffffffffffffffffffff1681526020019081526020015f205f8373ffffffffffffffffffffffffffffffffffffffff1673ffffffffffffffffffffffffffffffffffffffff1681526020019081526020015f205490505f81116117ce576040517f08c379a00000000000000000000000000000000000000000000000000000000081526004016117c590613d6d565b60405180910390fd5b808273ffffffffffffffffffffffffffffffffffffffff166370a08231306040518263ffffffff1660e01b815260040161180891906135ec565b602060405180830381865afa158015611823573d5f803e3d5ffd5b505050506040513d601f19601f820116820180604052508101906118479190613d9f565b1015611888576040517f08c379a000000000000000000000000000000000000000000000000000000000815260040161187f90613e14565b60405180910390fd5b5f60095f3373ffffffffffffffffffffffffffffffffffffffff1673ffffffffffffffffffffffffffffffffffffffff1681526020019081526020015f205f8473ffffffffffffffffffffffffffffffffffffffff1673ffffffffffffffffffffffffffffffffffffffff1681526020019081526020015f208190555061193033828473ffffffffffffffffffffffffffffffffffffffff16612dda9092919063ffffffff16565b3373ffffffffffffffffffffffffffffffffffffffff168273ffffffffffffffffffffffffffffffffffffffff167fd55b5fe81317b854ac11454adf7e5a9a0adf69184d643ef9ae6bfda6a015c5bc8360405161198d9190613389565b60405180910390a35061199e612e59565b50565b5f600160149054906101000a900460ff16905090565b6119bf612d99565b823373ffffffffffffffffffffffffffffffffffffffff16600d5f9054906101000a900473ffffffffffffffffffffffffffffffffffffffff1673ffffffffffffffffffffffffffffffffffffffff16636352211e836040518263ffffffff1660e01b8152600401611a319190613389565b602060405180830381865afa158015611a4c573d5f803e3d5ffd5b505050506040513d601f19601f82011682018060405250810190611a709190613e46565b73ffffffffffffffffffffffffffffffffffffffff1614611ac6576040517f08c379a0000000000000000000000000000000000000000000000000000000008152600401611abd90613ebb565b60405180910390fd5b825f73ffffffffffffffffffffffffffffffffffffffff168173ffffffffffffffffffffffffffffffffffffffff161480611b4d5750600a5f9054906101000a900473ffffffffffffffffffffffffffffffffffffffff1673ffffffffffffffffffffffffffffffffffffffff168173ffffffffffffffffffffffffffffffffffffffff16145b80611ba45750600b5f9054906101000a900473ffffffffffffffffffffffffffffffffffffffff1673ffffffffffffffffffffffffffffffffffffffff168173ffffffffffffffffffffffffffffffffffffffff16145b80611bfb5750600c5f9054906101000a900473ffffffffffffffffffffffffffffffffffffffff1673ffffffffffffffffffffffffffffffffffffffff168173ffffffffffffffffffffffffffffffffffffffff16145b611c3a576040517f08c379a0000000000000000000000000000000000000000000000000000000008152600401611c3190613f23565b60405180910390fd5b5f8311611c7c576040517f08c379a0000000000000000000000000000000000000000000000000000000008152600401611c7390613f8b565b60405180910390fd5b600d5f9054906101000a900473ffffffffffffffffffffffffffffffffffffffff1673ffffffffffffffffffffffffffffffffffffffff1663e985e9c533306040518363ffffffff1660e01b8152600401611cd8929190613745565b602060405180830381865afa158015611cf3573d5f803e3d5ffd5b505050506040513d601f19601f82011682018060405250810190611d179190613fd3565b80611de557503073ffffffffffffffffffffffffffffffffffffffff16600d5f9054906101000a900473ffffffffffffffffffffffffffffffffffffffff1673ffffffffffffffffffffffffffffffffffffffff1663081812fc876040518263ffffffff1660e01b8152600401611d8e9190613389565b602060405180830381865afa158015611da9573d5f803e3d5ffd5b505050506040513d601f19601f82011682018060405250810190611dcd9190613e46565b73ffffffffffffffffffffffffffffffffffffffff16145b611e24576040517f08c379a0000000000000000000000000000000000000000000000000000000008152600401611e1b90614048565b60405180910390fd5b600d5f9054906101000a900473ffffffffffffffffffffffffffffffffffffffff1673ffffffffffffffffffffffffffffffffffffffff166323b872dd3330886040518463ffffffff1660e01b8152600401611e8293929190613a7e565b5f604051808303815f87803b158015611e99575f80fd5b505af1158015611eab573d5f803e3d5ffd5b505050506040518060a001604052803373ffffffffffffffffffffffffffffffffffffffff1681526020018681526020018573ffffffffffffffffffffffffffffffffffffffff1681526020018481526020016001151581525060065f8781526020019081526020015f205f820151815f015f6101000a81548173ffffffffffffffffffffffffffffffffffffffff021916908373ffffffffffffffffffffffffffffffffffffffff160217905550602082015181600101556040820151816002015f6101000a81548173ffffffffffffffffffffffffffffffffffffffff021916908373ffffffffffffffffffffffffffffffffffffffff160217905550606082015181600301556080820151816004015f6101000a81548160ff021916908315150217905550905050843373ffffffffffffffffffffffffffffffffffffffff167fd061156af97cd0d4f446110c8e476140c682158f5621e4bd532b4c5b2e84d125868660405161201f9291906136a6565b60405180910390a35050505050565b60025481565b61203c612cce565b6120455f612ec4565b565b600a5f9054906101000a900473ffffffffffffffffffffffffffffffffffffffff1681565b612074612cce565b61207c612f87565b7f9e87fac88ff661f02d44f95383c817fece4bce600a3dab7a54406878b965e75260405160405180910390a1565b6120b2612cce565b6120ba612d55565b5f60055f8373ffffffffffffffffffffffffffffffffffffffff1673ffffffffffffffffffffffffffffffffffffffff1681526020019081526020015f205490505f811161213d576040517f08c379a0000000000000000000000000000000000000000000000000000000008152600401612134906140b0565b60405180910390fd5b5f60055f8473ffffffffffffffffffffffffffffffffffffffff1673ffffffffffffffffffffffffffffffffffffffff1681526020019081526020015f20819055506121b161218a612229565b828473ffffffffffffffffffffffffffffffffffffffff16612dda9092919063ffffffff16565b8173ffffffffffffffffffffffffffffffffffffffff166121d0612229565b73ffffffffffffffffffffffffffffffffffffffff167fea48aee669694ac6f98626c299ecc46ccedfc3fcd05314c975bdee3de9b544b6836040516122159190613389565b60405180910390a350612226612e59565b50565b5f60015f9054906101000a900473ffffffffffffffffffffffffffffffffffffffff16905090565b612259612cce565b5f73ffffffffffffffffffffffffffffffffffffffff168173ffffffffffffffffffffffffffffffffffffffff16036122c7576040517f08c379a00000000000000000000000000000000000000000000000000000000081526004016122be90613727565b60405180910390fd5b7f51d2761f030964e882529b208c5390589ddac658d9a1a6d3b8a1cbaed35e7d33600d5f9054906101000a900473ffffffffffffffffffffffffffffffffffffffff1682604051612319929190613745565b60405180910390a180600d5f6101000a81548173ffffffffffffffffffffffffffffffffffffffff021916908373ffffffffffffffffffffffffffffffffffffffff16021790555050565b600b5f9054906101000a900473ffffffffffffffffffffffffffffffffffffffff1681565b6005602052805f5260405f205f915090505481565b6123a6612d99565b6123ae612d55565b8260065f8281526020019081526020015f206004015f9054906101000a900460ff1661240f576040517f08c379a0000000000000000000000000000000000000000000000000000000008152600401612406906137b6565b60405180910390fd5b815f73ffffffffffffffffffffffffffffffffffffffff168173ffffffffffffffffffffffffffffffffffffffff1614806124965750600a5f9054906101000a900473ffffffffffffffffffffffffffffffffffffffff1673ffffffffffffffffffffffffffffffffffffffff168173ffffffffffffffffffffffffffffffffffffffff16145b806124ed5750600b5f9054906101000a900473ffffffffffffffffffffffffffffffffffffffff1673ffffffffffffffffffffffffffffffffffffffff168173ffffffffffffffffffffffffffffffffffffffff16145b806125445750600c5f9054906101000a900473ffffffffffffffffffffffffffffffffffffffff1673ffffffffffffffffffffffffffffffffffffffff168173ffffffffffffffffffffffffffffffffffffffff16145b612583576040517f08c379a000000000000000000000000000000000000000000000000000000000815260040161257a90613f23565b60405180910390fd5b5f60065f8781526020019081526020015f206040518060a00160405290815f82015f9054906101000a900473ffffffffffffffffffffffffffffffffffffffff1673ffffffffffffffffffffffffffffffffffffffff1673ffffffffffffffffffffffffffffffffffffffff16815260200160018201548152602001600282015f9054906101000a900473ffffffffffffffffffffffffffffffffffffffff1673ffffffffffffffffffffffffffffffffffffffff1673ffffffffffffffffffffffffffffffffffffffff16815260200160038201548152602001600482015f9054906101000a900460ff161515151581525050905080606001518510156126c0576040517f08c379a00000000000000000000000000000000000000000000000000000000081526004016126b790614118565b60405180910390fd5b5f73ffffffffffffffffffffffffffffffffffffffff168473ffffffffffffffffffffffffffffffffffffffff161480156126fa57508434145b8061273c57505f73ffffffffffffffffffffffffffffffffffffffff168473ffffffffffffffffffffffffffffffffffffffff161415801561273b57505f34145b5b61277b576040517f08c379a000000000000000000000000000000000000000000000000000000000815260040161277290614180565b60405180910390fd5b5f73ffffffffffffffffffffffffffffffffffffffff168473ffffffffffffffffffffffffffffffffffffffff16146127dc576127db3330878773ffffffffffffffffffffffffffffffffffffffff16612fe9909392919063ffffffff16565b5b5f60075f8881526020019081526020015f206040518060400160405290815f82015f9054906101000a900473ffffffffffffffffffffffffffffffffffffffff1673ffffffffffffffffffffffffffffffffffffffff1673ffffffffffffffffffffffffffffffffffffffff16815260200160018201548152505090508060200151861161289f576040517f08c379a00000000000000000000000000000000000000000000000000000000081526004016128969061420e565b60405180910390fd5b5f816020015111156128c2576128c18260400151825f0151836020015161306b565b5b60405180604001604052803373ffffffffffffffffffffffffffffffffffffffff1681526020018781525060075f8981526020019081526020015f205f820151815f015f6101000a81548173ffffffffffffffffffffffffffffffffffffffff021916908373ffffffffffffffffffffffffffffffffffffffff160217905550602082015181600101559050503373ffffffffffffffffffffffffffffffffffffffff16877f0e54eff26401bf69b81b26f60bd85ef47f5d85275c1d268d84f68d6897431c47886040516129969190613389565b60405180910390a3505050506129aa612e59565b505050565b60035481565b60045481565b600c5f9054906101000a900473ffffffffffffffffffffffffffffffffffffffff1681565b600d5f9054906101000a900473ffffffffffffffffffffffffffffffffffffffff1681565b61271081565b6006602052805f5260405f205f91509050805f015f9054906101000a900473ffffffffffffffffffffffffffffffffffffffff1690806001015490806002015f9054906101000a900473ffffffffffffffffffffffffffffffffffffffff1690806003015490806004015f9054906101000a900460ff16905085565b6008602052805f5260405f205f915090505481565b612aa4612cce565b5f73ffffffffffffffffffffffffffffffffffffffff168173ffffffffffffffffffffffffffffffffffffffff1603612b14575f6040517f1e4fbdf7000000000000000000000000000000000000000000000000000000008152600401612b0b91906135ec565b60405180910390fd5b612b1d81612ec4565b50565b612b28612cce565b612b30612d55565b5f60045490505f8111612b78576040517f08c379a0000000000000000000000000000000000000000000000000000000008152600401612b6f90614276565b60405180910390fd5b5f6004819055505f612b88612229565b73ffffffffffffffffffffffffffffffffffffffff1682604051612bab90613a02565b5f6040518083038185875af1925050503d805f8114612be5576040519150601f19603f3d011682016040523d82523d5f602084013e612bea565b606091505b5050905080612c2e576040517f08c379a0000000000000000000000000000000000000000000000000000000008152600401612c2590613a60565b60405180910390fd5b612c36612229565b73ffffffffffffffffffffffffffffffffffffffff167fd6ddd782abf6e1531f3aa9f2801ae73391efd91e3846a441334a4e911f74bf4383604051612c7b9190613389565b60405180910390a25050612c8d612e59565b565b6007602052805f5260405f205f91509050805f015f9054906101000a900473ffffffffffffffffffffffffffffffffffffffff16908060010154905082565b612cd66131ef565b73ffffffffffffffffffffffffffffffffffffffff16612cf4612229565b73ffffffffffffffffffffffffffffffffffffffff1614612d5357612d176131ef565b6040517f118cdaa7000000000000000000000000000000000000000000000000000000008152600401612d4a91906135ec565b60405180910390fd5b565b60025f5403612d90576040517f3ee5aeb500000000000000000000000000000000000000000000000000000000815260040160405180910390fd5b60025f81905550565b612da16119a1565b15612dd8576040517fd93c066500000000000000000000000000000000000000000000000000000000815260040160405180910390fd5b565b612e54838473ffffffffffffffffffffffffffffffffffffffff1663a9059cbb8585604051602401612e0d9291906136a6565b604051602081830303815290604052915060e01b6020820180517bffffffffffffffffffffffffffffffffffffffffffffffffffffffff83818316178352505050506131f6565b505050565b60015f81905550565b612e6a613291565b5f600160146101000a81548160ff0219169083151502179055507f5db9ee0a495bf2e6ff9c91a7834c1ba4fdd244a5e8aa4e537bd38aeae4b073aa612ead6131ef565b604051612eba91906135ec565b60405180910390a1565b5f60015f9054906101000a900473ffffffffffffffffffffffffffffffffffffffff1690508160015f6101000a81548173ffffffffffffffffffffffffffffffffffffffff021916908373ffffffffffffffffffffffffffffffffffffffff1602179055508173ffffffffffffffffffffffffffffffffffffffff168173ffffffffffffffffffffffffffffffffffffffff167f8be0079c531659141344cd1fd0a4f28419497f9722a3daafe3b4186f6b6457e060405160405180910390a35050565b612f8f612d99565b60018060146101000a81548160ff0219169083151502179055507f62e78cea01bee320cd4e420270b5ea74000d11b0c9f74754ebdbfc544b05a258612fd26131ef565b604051612fdf91906135ec565b60405180910390a1565b613065848573ffffffffffffffffffffffffffffffffffffffff166323b872dd86868660405160240161301e93929190613a7e565b604051602081830303815290604052915060e01b6020820180517bffffffffffffffffffffffffffffffffffffffffffffffffffffffff83818316178352505050506131f6565b50505050565b5f73ffffffffffffffffffffffffffffffffffffffff168373ffffffffffffffffffffffffffffffffffffffff16036130f6578060085f8473ffffffffffffffffffffffffffffffffffffffff1673ffffffffffffffffffffffffffffffffffffffff1681526020019081526020015f205f8282546130ea91906139a2565b92505081905550613185565b8060095f8473ffffffffffffffffffffffffffffffffffffffff1673ffffffffffffffffffffffffffffffffffffffff1681526020019081526020015f205f8573ffffffffffffffffffffffffffffffffffffffff1673ffffffffffffffffffffffffffffffffffffffff1681526020019081526020015f205f82825461317d91906139a2565b925050819055505b8273ffffffffffffffffffffffffffffffffffffffff168273ffffffffffffffffffffffffffffffffffffffff167f97ded04b4dd3dab6c02011a161d44b56a32fc8dac48ee2a011bc2beed61b16e0836040516131e29190613389565b60405180910390a3505050565b5f33905090565b5f8060205f8451602086015f885af180613215576040513d5f823e3d81fd5b3d92505f519150505f821461322e576001811415613249565b5f8473ffffffffffffffffffffffffffffffffffffffff163b145b1561328b57836040517f5274afe700000000000000000000000000000000000000000000000000000000815260040161328291906135ec565b60405180910390fd5b50505050565b6132996119a1565b6132cf576040517f8dfc202b00000000000000000000000000000000000000000000000000000000815260040160405180910390fd5b565b5f80fd5b5f80fd5b5f73ffffffffffffffffffffffffffffffffffffffff82169050919050565b5f613302826132d9565b9050919050565b613312816132f8565b811461331c575f80fd5b50565b5f8135905061332d81613309565b92915050565b5f8060408385031215613349576133486132d1565b5b5f6133568582860161331f565b92505060206133678582860161331f565b9150509250929050565b5f819050919050565b61338381613371565b82525050565b5f60208201905061339c5f83018461337a565b92915050565b6133ab81613371565b81146133b5575f80fd5b50565b5f813590506133c6816133a2565b92915050565b5f80fd5b5f80fd5b5f80fd5b5f8083601f8401126133ed576133ec6133cc565b5b8235905067ffffffffffffffff81111561340a576134096133d0565b5b602083019150836001820283011115613426576134256133d4565b5b9250929050565b5f805f805f60808688031215613446576134456132d1565b5b5f6134538882890161331f565b95505060206134648882890161331f565b9450506040613475888289016133b8565b935050606086013567ffffffffffffffff811115613496576134956132d5565b5b6134a2888289016133d8565b92509250509295509295909350565b5f7fffffffff0000000000000000000000000000000000000000000000000000000082169050919050565b6134e5816134b1565b82525050565b5f6020820190506134fe5f8301846134dc565b92915050565b5f60208284031215613519576135186132d1565b5b5f6135268482850161331f565b91505092915050565b5f60208284031215613544576135436132d1565b5b5f613551848285016133b8565b91505092915050565b5f8115159050919050565b61356e8161355a565b82525050565b5f6020820190506135875f830184613565565b92915050565b5f805f606084860312156135a4576135a36132d1565b5b5f6135b1868287016133b8565b93505060206135c28682870161331f565b92505060406135d3868287016133b8565b9150509250925092565b6135e6816132f8565b82525050565b5f6020820190506135ff5f8301846135dd565b92915050565b5f805f6060848603121561361c5761361b6132d1565b5b5f613629868287016133b8565b935050602061363a868287016133b8565b925050604061364b8682870161331f565b9150509250925092565b5f60a0820190506136685f8301886135dd565b613675602083018761337a565b61368260408301866135dd565b61368f606083018561337a565b61369c6080830184613565565b9695505050505050565b5f6040820190506136b95f8301856135dd565b6136c6602083018461337a565b9392505050565b5f82825260208201905092915050565b7f496e76616c6964206164647265737300000000000000000000000000000000005f82015250565b5f613711600f836136cd565b915061371c826136dd565b602082019050919050565b5f6020820190508181035f83015261373e81613705565b9050919050565b5f6040820190506137585f8301856135dd565b61376560208301846135dd565b9392505050565b7f4c697374696e67206e6f742061637469766500000000000000000000000000005f82015250565b5f6137a06012836136cd565b91506137ab8261376c565b602082019050919050565b5f6020820190508181035f8301526137cd81613794565b9050919050565b7f4f6e6c792073656c6c65722063616e20616363657074206269640000000000005f82015250565b5f613808601a836136cd565b9150613813826137d4565b602082019050919050565b5f6020820190508181035f830152613835816137fc565b9050919050565b7f4e6f2061637469766520626964000000000000000000000000000000000000005f82015250565b5f613870600d836136cd565b915061387b8261383c565b602082019050919050565b5f6020820190508181035f83015261389d81613864565b9050919050565b7f4e487b71000000000000000000000000000000000000000000000000000000005f52601160045260245ffd5b5f6138db82613371565b91506138e683613371565b92508282026138f481613371565b9150828204841483151761390b5761390a6138a4565b5b5092915050565b7f4e487b71000000000000000000000000000000000000000000000000000000005f52601260045260245ffd5b5f61394982613371565b915061395483613371565b92508261396457613963613912565b5b828204905092915050565b5f61397982613371565b915061398483613371565b925082820390508181111561399c5761399b6138a4565b5b92915050565b5f6139ac82613371565b91506139b783613371565b92508282019050808211156139cf576139ce6138a4565b5b92915050565b5f81905092915050565b50565b5f6139ed5f836139d5565b91506139f8826139df565b5f82019050919050565b5f613a0c826139e2565b9150819050919050565b7f455448207472616e73666572206661696c6564000000000000000000000000005f82015250565b5f613a4a6013836136cd565b9150613a5582613a16565b602082019050919050565b5f6020820190508181035f830152613a7781613a3e565b9050919050565b5f606082019050613a915f8301866135dd565b613a9e60208301856135dd565b613aab604083018461337a565b949350505050565b7f4e6f74206c697374696e67206f776e65720000000000000000000000000000005f82015250565b5f613ae76011836136cd565b9150613af282613ab3565b602082019050919050565b5f6020820190508181035f830152613b1481613adb565b9050919050565b7f496e76616c6964206665650000000000000000000000000000000000000000005f82015250565b5f613b4f600b836136cd565b9150613b5a82613b1b565b602082019050919050565b5f6020820190508181035f830152613b7c81613b43565b9050919050565b7f4e6f20726566756e6461626c6520616d6f756e740000000000000000000000005f82015250565b5f613bb76014836136cd565b9150613bc282613b83565b602082019050919050565b5f6020820190508181035f830152613be481613bab565b9050919050565b7f496e73756666696369656e7420636f6e74726163742062616c616e63650000005f82015250565b5f613c1f601d836136cd565b9150613c2a82613beb565b602082019050919050565b5f6020820190508181035f830152613c4c81613c13565b9050919050565b7f45544820726566756e64206661696c65640000000000000000000000000000005f82015250565b5f613c876011836136cd565b9150613c9282613c53565b602082019050919050565b5f6020820190508181035f830152613cb481613c7b565b9050919050565b7f496e76616c6964206d61782066656500000000000000000000000000000000005f82015250565b5f613cef600f836136cd565b9150613cfa82613cbb565b602082019050919050565b5f6020820190508181035f830152613d1c81613ce3565b9050919050565b7f4e6f20726566756e6461626c6520746f6b656e000000000000000000000000005f82015250565b5f613d576013836136cd565b9150613d6282613d23565b602082019050919050565b5f6020820190508181035f830152613d8481613d4b565b9050919050565b5f81519050613d99816133a2565b92915050565b5f60208284031215613db457613db36132d1565b5b5f613dc184828501613d8b565b91505092915050565b7f496e73756666696369656e742062616c616e63650000000000000000000000005f82015250565b5f613dfe6014836136cd565b9150613e0982613dca565b602082019050919050565b5f6020820190508181035f830152613e2b81613df2565b9050919050565b5f81519050613e4081613309565b92915050565b5f60208284031215613e5b57613e5a6132d1565b5b5f613e6884828501613e32565b91505092915050565b7f4e6f74204e4654206f776e6572000000000000000000000000000000000000005f82015250565b5f613ea5600d836136cd565b9150613eb082613e71565b602082019050919050565b5f6020820190508181035f830152613ed281613e99565b9050919050565b7f556e737570706f72746564207061796d656e7420746f6b656e000000000000005f82015250565b5f613f0d6019836136cd565b9150613f1882613ed9565b602082019050919050565b5f6020820190508181035f830152613f3a81613f01565b9050919050565b7f50726963652073686f756c64206e6f74206265207a65726f00000000000000005f82015250565b5f613f756018836136cd565b9150613f8082613f41565b602082019050919050565b5f6020820190508181035f830152613fa281613f69565b9050919050565b613fb28161355a565b8114613fbc575f80fd5b50565b5f81519050613fcd81613fa9565b92915050565b5f60208284031215613fe857613fe76132d1565b5b5f613ff584828501613fbf565b91505092915050565b7f4e465420417070726f76616c20726571756972656400000000000000000000005f82015250565b5f6140326015836136cd565b915061403d82613ffe565b602082019050919050565b5f6020820190508181035f83015261405f81614026565b9050919050565b7f4e6f20746f6b656e206561726e696e67730000000000000000000000000000005f82015250565b5f61409a6011836136cd565b91506140a582614066565b602082019050919050565b5f6020820190508181035f8301526140c78161408e565b9050919050565b7f596f7572206269642069732062656c6f77206d696e696d756d207072696365005f82015250565b5f614102601f836136cd565b915061410d826140ce565b602082019050919050565b5f6020820190508181035f83015261412f816140f6565b9050919050565b7f496e76616c6964204554482076616c75650000000000000000000000000000005f82015250565b5f61416a6011836136cd565b915061417582614136565b602082019050919050565b5f6020820190508181035f8301526141978161415e565b9050919050565b7f426964206d75737420626520686967686572207468616e2063757272656e74205f8201527f6269640000000000000000000000000000000000000000000000000000000000602082015250565b5f6141f86023836136cd565b91506142038261419e565b604082019050919050565b5f6020820190508181035f830152614225816141ec565b9050919050565b7f4e6f2045544820746f20776974686472617700000000000000000000000000005f82015250565b5f6142606012836136cd565b915061426b8261422c565b602082019050919050565b5f6020820190508181035f83015261428d81614254565b905091905056fea2646970667358221220606e2e4d2981c97835838257c1c2986c77f08dd85eef0afc2d2a226d66b174f364736f6c63430008180033",
					"opcodes": "PUSH1 0x80 PUSH1 0x40 MSTORE PUSH1 0xC8 PUSH1 0x2 SSTORE PUSH2 0x1F4 PUSH1 0x3 SSTORE CALLVALUE DUP1 ISZERO PUSH3 0x1B JUMPI PUSH0 DUP1 REVERT JUMPDEST POP PUSH1 0x40 MLOAD PUSH3 0x4A19 CODESIZE SUB DUP1 PUSH3 0x4A19 DUP4 CODECOPY DUP2 DUP2 ADD PUSH1 0x40 MSTORE DUP2 ADD SWAP1 PUSH3 0x41 SWAP2 SWAP1 PUSH3 0x4DE JUMP JUMPDEST CALLER PUSH1 0x1 PUSH0 DUP2 SWAP1 SSTORE POP PUSH0 PUSH20 0xFFFFFFFFFFFFFFFFFFFFFFFFFFFFFFFFFFFFFFFF AND DUP2 PUSH20 0xFFFFFFFFFFFFFFFFFFFFFFFFFFFFFFFFFFFFFFFF AND SUB PUSH3 0xBC JUMPI PUSH0 PUSH1 0x40 MLOAD PUSH32 0x1E4FBDF700000000000000000000000000000000000000000000000000000000 DUP2 MSTORE PUSH1 0x4 ADD PUSH3 0xB3 SWAP2 SWAP1 PUSH3 0x55E JUMP JUMPDEST PUSH1 0x40 MLOAD DUP1 SWAP2 SUB SWAP1 REVERT JUMPDEST PUSH3 0xCD DUP2 PUSH3 0x3B6 PUSH1 0x20 SHL PUSH1 0x20 SHR JUMP JUMPDEST POP PUSH0 PUSH1 0x1 PUSH1 0x14 PUSH2 0x100 EXP DUP2 SLOAD DUP2 PUSH1 0xFF MUL NOT AND SWAP1 DUP4 ISZERO ISZERO MUL OR SWAP1 SSTORE POP PUSH0 PUSH20 0xFFFFFFFFFFFFFFFFFFFFFFFFFFFFFFFFFFFFFFFF AND DUP5 PUSH20 0xFFFFFFFFFFFFFFFFFFFFFFFFFFFFFFFFFFFFFFFF AND SUB PUSH3 0x159 JUMPI PUSH1 0x40 MLOAD PUSH32 0x8C379A000000000000000000000000000000000000000000000000000000000 DUP2 MSTORE PUSH1 0x4 ADD PUSH3 0x150 SWAP1 PUSH3 0x5D7 JUMP JUMPDEST PUSH1 0x40 MLOAD DUP1 SWAP2 SUB SWAP1 REVERT JUMPDEST PUSH0 PUSH20 0xFFFFFFFFFFFFFFFFFFFFFFFFFFFFFFFFFFFFFFFF AND DUP4 PUSH20 0xFFFFFFFFFFFFFFFFFFFFFFFFFFFFFFFFFFFFFFFF AND SUB PUSH3 0x1CA JUMPI PUSH1 0x40 MLOAD PUSH32 0x8C379A000000000000000000000000000000000000000000000000000000000 DUP2 MSTORE PUSH1 0x4 ADD PUSH3 0x1C1 SWAP1 PUSH3 0x645 JUMP JUMPDEST PUSH1 0x40 MLOAD DUP1 SWAP2 SUB SWAP1 REVERT JUMPDEST PUSH0 PUSH20 0xFFFFFFFFFFFFFFFFFFFFFFFFFFFFFFFFFFFFFFFF AND DUP3 PUSH20 0xFFFFFFFFFFFFFFFFFFFFFFFFFFFFFFFFFFFFFFFF AND SUB PUSH3 0x23B JUMPI PUSH1 0x40 MLOAD PUSH32 0x8C379A000000000000000000000000000000000000000000000000000000000 DUP2 MSTORE PUSH1 0x4 ADD PUSH3 0x232 SWAP1 PUSH3 0x6B3 JUMP JUMPDEST PUSH1 0x40 MLOAD DUP1 SWAP2 SUB SWAP1 REVERT JUMPDEST PUSH0 PUSH20 0xFFFFFFFFFFFFFFFFFFFFFFFFFFFFFFFFFFFFFFFF AND DUP2 PUSH20 0xFFFFFFFFFFFFFFFFFFFFFFFFFFFFFFFFFFFFFFFF AND SUB PUSH3 0x2AC JUMPI PUSH1 0x40 MLOAD PUSH32 0x8C379A000000000000000000000000000000000000000000000000000000000 DUP2 MSTORE PUSH1 0x4 ADD PUSH3 0x2A3 SWAP1 PUSH3 0x721 JUMP JUMPDEST PUSH1 0x40 MLOAD DUP1 SWAP2 SUB SWAP1 REVERT JUMPDEST DUP4 PUSH1 0xD PUSH0 PUSH2 0x100 EXP DUP2 SLOAD DUP2 PUSH20 0xFFFFFFFFFFFFFFFFFFFFFFFFFFFFFFFFFFFFFFFF MUL NOT AND SWAP1 DUP4 PUSH20 0xFFFFFFFFFFFFFFFFFFFFFFFFFFFFFFFFFFFFFFFF AND MUL OR SWAP1 SSTORE POP DUP3 PUSH1 0xA PUSH0 PUSH2 0x100 EXP DUP2 SLOAD DUP2 PUSH20 0xFFFFFFFFFFFFFFFFFFFFFFFFFFFFFFFFFFFFFFFF MUL NOT AND SWAP1 DUP4 PUSH20 0xFFFFFFFFFFFFFFFFFFFFFFFFFFFFFFFFFFFFFFFF AND MUL OR SWAP1 SSTORE POP DUP2 PUSH1 0xB PUSH0 PUSH2 0x100 EXP DUP2 SLOAD DUP2 PUSH20 0xFFFFFFFFFFFFFFFFFFFFFFFFFFFFFFFFFFFFFFFF MUL NOT AND SWAP1 DUP4 PUSH20 0xFFFFFFFFFFFFFFFFFFFFFFFFFFFFFFFFFFFFFFFF AND MUL OR SWAP1 SSTORE POP DUP1 PUSH1 0xC PUSH0 PUSH2 0x100 EXP DUP2 SLOAD DUP2 PUSH20 0xFFFFFFFFFFFFFFFFFFFFFFFFFFFFFFFFFFFFFFFF MUL NOT AND SWAP1 DUP4 PUSH20 0xFFFFFFFFFFFFFFFFFFFFFFFFFFFFFFFFFFFFFFFF AND MUL OR SWAP1 SSTORE POP POP POP POP POP PUSH3 0x741 JUMP JUMPDEST PUSH0 PUSH1 0x1 PUSH0 SWAP1 SLOAD SWAP1 PUSH2 0x100 EXP SWAP1 DIV PUSH20 0xFFFFFFFFFFFFFFFFFFFFFFFFFFFFFFFFFFFFFFFF AND SWAP1 POP DUP2 PUSH1 0x1 PUSH0 PUSH2 0x100 EXP DUP2 SLOAD DUP2 PUSH20 0xFFFFFFFFFFFFFFFFFFFFFFFFFFFFFFFFFFFFFFFF MUL NOT AND SWAP1 DUP4 PUSH20 0xFFFFFFFFFFFFFFFFFFFFFFFFFFFFFFFFFFFFFFFF AND MUL OR SWAP1 SSTORE POP DUP2 PUSH20 0xFFFFFFFFFFFFFFFFFFFFFFFFFFFFFFFFFFFFFFFF AND DUP2 PUSH20 0xFFFFFFFFFFFFFFFFFFFFFFFFFFFFFFFFFFFFFFFF AND PUSH32 0x8BE0079C531659141344CD1FD0A4F28419497F9722A3DAAFE3B4186F6B6457E0 PUSH1 0x40 MLOAD PUSH1 0x40 MLOAD DUP1 SWAP2 SUB SWAP1 LOG3 POP POP JUMP JUMPDEST PUSH0 DUP1 REVERT JUMPDEST PUSH0 PUSH20 0xFFFFFFFFFFFFFFFFFFFFFFFFFFFFFFFFFFFFFFFF DUP3 AND SWAP1 POP SWAP2 SWAP1 POP JUMP JUMPDEST PUSH0 PUSH3 0x4A8 DUP3 PUSH3 0x47D JUMP JUMPDEST SWAP1 POP SWAP2 SWAP1 POP JUMP JUMPDEST PUSH3 0x4BA DUP2 PUSH3 0x49C JUMP JUMPDEST DUP2 EQ PUSH3 0x4C5 JUMPI PUSH0 DUP1 REVERT JUMPDEST POP JUMP JUMPDEST PUSH0 DUP2 MLOAD SWAP1 POP PUSH3 0x4D8 DUP2 PUSH3 0x4AF JUMP JUMPDEST SWAP3 SWAP2 POP POP JUMP JUMPDEST PUSH0 DUP1 PUSH0 DUP1 PUSH1 0x80 DUP6 DUP8 SUB SLT ISZERO PUSH3 0x4F9 JUMPI PUSH3 0x4F8 PUSH3 0x479 JUMP JUMPDEST JUMPDEST PUSH0 PUSH3 0x508 DUP8 DUP3 DUP9 ADD PUSH3 0x4C8 JUMP JUMPDEST SWAP5 POP POP PUSH1 0x20 PUSH3 0x51B DUP8 DUP3 DUP9 ADD PUSH3 0x4C8 JUMP JUMPDEST SWAP4 POP POP PUSH1 0x40 PUSH3 0x52E DUP8 DUP3 DUP9 ADD PUSH3 0x4C8 JUMP JUMPDEST SWAP3 POP POP PUSH1 0x60 PUSH3 0x541 DUP8 DUP3 DUP9 ADD PUSH3 0x4C8 JUMP JUMPDEST SWAP2 POP POP SWAP3 SWAP6 SWAP2 SWAP5 POP SWAP3 POP JUMP JUMPDEST PUSH3 0x558 DUP2 PUSH3 0x49C JUMP JUMPDEST DUP3 MSTORE POP POP JUMP JUMPDEST PUSH0 PUSH1 0x20 DUP3 ADD SWAP1 POP PUSH3 0x573 PUSH0 DUP4 ADD DUP5 PUSH3 0x54D JUMP JUMPDEST SWAP3 SWAP2 POP POP JUMP JUMPDEST PUSH0 DUP3 DUP3 MSTORE PUSH1 0x20 DUP3 ADD SWAP1 POP SWAP3 SWAP2 POP POP JUMP JUMPDEST PUSH32 0x496E76616C6964204E465420636F6E7472616374000000000000000000000000 PUSH0 DUP3 ADD MSTORE POP JUMP JUMPDEST PUSH0 PUSH3 0x5BF PUSH1 0x14 DUP4 PUSH3 0x579 JUMP JUMPDEST SWAP2 POP PUSH3 0x5CC DUP3 PUSH3 0x589 JUMP JUMPDEST PUSH1 0x20 DUP3 ADD SWAP1 POP SWAP2 SWAP1 POP JUMP JUMPDEST PUSH0 PUSH1 0x20 DUP3 ADD SWAP1 POP DUP2 DUP2 SUB PUSH0 DUP4 ADD MSTORE PUSH3 0x5F0 DUP2 PUSH3 0x5B1 JUMP JUMPDEST SWAP1 POP SWAP2 SWAP1 POP JUMP JUMPDEST PUSH32 0x496E76616C6964204D4C49464520616464726573730000000000000000000000 PUSH0 DUP3 ADD MSTORE POP JUMP JUMPDEST PUSH0 PUSH3 0x62D PUSH1 0x15 DUP4 PUSH3 0x579 JUMP JUMPDEST SWAP2 POP PUSH3 0x63A DUP3 PUSH3 0x5F7 JUMP JUMPDEST PUSH1 0x20 DUP3 ADD SWAP1 POP SWAP2 SWAP1 POP JUMP JUMPDEST PUSH0 PUSH1 0x20 DUP3 ADD SWAP1 POP DUP2 DUP2 SUB PUSH0 DUP4 ADD MSTORE PUSH3 0x65E DUP2 PUSH3 0x61F JUMP JUMPDEST SWAP1 POP SWAP2 SWAP1 POP JUMP JUMPDEST PUSH32 0x496E76616C696420555344542061646472657373000000000000000000000000 PUSH0 DUP3 ADD MSTORE POP JUMP JUMPDEST PUSH0 PUSH3 0x69B PUSH1 0x14 DUP4 PUSH3 0x579 JUMP JUMPDEST SWAP2 POP PUSH3 0x6A8 DUP3 PUSH3 0x665 JUMP JUMPDEST PUSH1 0x20 DUP3 ADD SWAP1 POP SWAP2 SWAP1 POP JUMP JUMPDEST PUSH0 PUSH1 0x20 DUP3 ADD SWAP1 POP DUP2 DUP2 SUB PUSH0 DUP4 ADD MSTORE PUSH3 0x6CC DUP2 PUSH3 0x68D JUMP JUMPDEST SWAP1 POP SWAP2 SWAP1 POP JUMP JUMPDEST PUSH32 0x496E76616C696420555344432061646472657373000000000000000000000000 PUSH0 DUP3 ADD MSTORE POP JUMP JUMPDEST PUSH0 PUSH3 0x709 PUSH1 0x14 DUP4 PUSH3 0x579 JUMP JUMPDEST SWAP2 POP PUSH3 0x716 DUP3 PUSH3 0x6D3 JUMP JUMPDEST PUSH1 0x20 DUP3 ADD SWAP1 POP SWAP2 SWAP1 POP JUMP JUMPDEST PUSH0 PUSH1 0x20 DUP3 ADD SWAP1 POP DUP2 DUP2 SUB PUSH0 DUP4 ADD MSTORE PUSH3 0x73A DUP2 PUSH3 0x6FB JUMP JUMPDEST SWAP1 POP SWAP2 SWAP1 POP JUMP JUMPDEST PUSH2 0x42CA DUP1 PUSH3 0x74F PUSH0 CODECOPY PUSH0 RETURN INVALID PUSH1 0x80 PUSH1 0x40 MSTORE PUSH1 0x4 CALLDATASIZE LT PUSH2 0x1FC JUMPI PUSH0 CALLDATALOAD PUSH1 0xE0 SHR DUP1 PUSH4 0x8456CB59 GT PUSH2 0x10C JUMPI DUP1 PUSH4 0xBF6AEE98 GT PUSH2 0x9F JUMPI DUP1 PUSH4 0xDE74E57B GT PUSH2 0x6E JUMPI DUP1 PUSH4 0xDE74E57B EQ PUSH2 0x68B JUMPI DUP1 PUSH4 0xED952CCD EQ PUSH2 0x6CB JUMPI DUP1 PUSH4 0xF2FDE38B EQ PUSH2 0x707 JUMPI DUP1 PUSH4 0xFD95C739 EQ PUSH2 0x72F JUMPI DUP1 PUSH4 0xFF743E89 EQ PUSH2 0x745 JUMPI PUSH2 0x203 JUMP JUMPDEST DUP1 PUSH4 0xBF6AEE98 EQ PUSH2 0x5E3 JUMPI DUP1 PUSH4 0xC86D4040 EQ PUSH2 0x60D JUMPI DUP1 PUSH4 0xD56D229D EQ PUSH2 0x637 JUMPI DUP1 PUSH4 0xD73792A9 EQ PUSH2 0x661 JUMPI PUSH2 0x203 JUMP JUMPDEST DUP1 PUSH4 0x99C5C8AA GT PUSH2 0xDB JUMPI DUP1 PUSH4 0x99C5C8AA EQ PUSH2 0x537 JUMPI DUP1 PUSH4 0xA3269B09 EQ PUSH2 0x561 JUMPI DUP1 PUSH4 0xAD6561EC EQ PUSH2 0x59D JUMPI DUP1 PUSH4 0xBC063E1A EQ PUSH2 0x5B9 JUMPI PUSH2 0x203 JUMP JUMPDEST DUP1 PUSH4 0x8456CB59 EQ PUSH2 0x4A7 JUMPI DUP1 PUSH4 0x884282A1 EQ PUSH2 0x4BD JUMPI DUP1 PUSH4 0x8DA5CB5B EQ PUSH2 0x4E5 JUMPI DUP1 PUSH4 0x92E67C06 EQ PUSH2 0x50F JUMPI PUSH2 0x203 JUMP JUMPDEST DUP1 PUSH4 0x4C97CF7C GT PUSH2 0x18F JUMPI DUP1 PUSH4 0x5C975ABB GT PUSH2 0x15E JUMPI DUP1 PUSH4 0x5C975ABB EQ PUSH2 0x3EB JUMPI DUP1 PUSH4 0x65C11BF0 EQ PUSH2 0x415 JUMPI DUP1 PUSH4 0x6A166964 EQ PUSH2 0x43D JUMPI DUP1 PUSH4 0x715018A6 EQ PUSH2 0x467 JUMPI DUP1 PUSH4 0x72973791 EQ PUSH2 0x47D JUMPI PUSH2 0x203 JUMP JUMPDEST DUP1 PUSH4 0x4C97CF7C EQ PUSH2 0x35D JUMPI DUP1 PUSH4 0x52FB6541 EQ PUSH2 0x385 JUMPI DUP1 PUSH4 0x550DDDEB EQ PUSH2 0x39B JUMPI DUP1 PUSH4 0x5C3B37DB EQ PUSH2 0x3C3 JUMPI PUSH2 0x203 JUMP JUMPDEST DUP1 PUSH4 0x2B1FD58A GT PUSH2 0x1CB JUMPI DUP1 PUSH4 0x2B1FD58A EQ PUSH2 0x2CF JUMPI DUP1 PUSH4 0x305A67A8 EQ PUSH2 0x2F7 JUMPI DUP1 PUSH4 0x30EB80CD EQ PUSH2 0x31F JUMPI DUP1 PUSH4 0x3F4BA83A EQ PUSH2 0x347 JUMPI PUSH2 0x203 JUMP JUMPDEST DUP1 PUSH4 0x382D424 EQ PUSH2 0x207 JUMPI DUP1 PUSH4 0x150B7A02 EQ PUSH2 0x243 JUMPI DUP1 PUSH4 0x1E534BE6 EQ PUSH2 0x27F JUMPI DUP1 PUSH4 0x1F8CA0B5 EQ PUSH2 0x2A7 JUMPI PUSH2 0x203 JUMP JUMPDEST CALLDATASIZE PUSH2 0x203 JUMPI STOP JUMPDEST PUSH0 DUP1 REVERT JUMPDEST CALLVALUE DUP1 ISZERO PUSH2 0x212 JUMPI PUSH0 DUP1 REVERT JUMPDEST POP PUSH2 0x22D PUSH1 0x4 DUP1 CALLDATASIZE SUB DUP2 ADD SWAP1 PUSH2 0x228 SWAP2 SWAP1 PUSH2 0x3333 JUMP JUMPDEST PUSH2 0x782 JUMP JUMPDEST PUSH1 0x40 MLOAD PUSH2 0x23A SWAP2 SWAP1 PUSH2 0x3389 JUMP JUMPDEST PUSH1 0x40 MLOAD DUP1 SWAP2 SUB SWAP1 RETURN JUMPDEST CALLVALUE DUP1 ISZERO PUSH2 0x24E JUMPI PUSH0 DUP1 REVERT JUMPDEST POP PUSH2 0x269 PUSH1 0x4 DUP1 CALLDATASIZE SUB DUP2 ADD SWAP1 PUSH2 0x264 SWAP2 SWAP1 PUSH2 0x342D JUMP JUMPDEST PUSH2 0x7A2 JUMP JUMPDEST PUSH1 0x40 MLOAD PUSH2 0x276 SWAP2 SWAP1 PUSH2 0x34EB JUMP JUMPDEST PUSH1 0x40 MLOAD DUP1 SWAP2 SUB SWAP1 RETURN JUMPDEST CALLVALUE DUP1 ISZERO PUSH2 0x28A JUMPI PUSH0 DUP1 REVERT JUMPDEST POP PUSH2 0x2A5 PUSH1 0x4 DUP1 CALLDATASIZE SUB DUP2 ADD SWAP1 PUSH2 0x2A0 SWAP2 SWAP1 PUSH2 0x3504 JUMP JUMPDEST PUSH2 0x7B6 JUMP JUMPDEST STOP JUMPDEST CALLVALUE DUP1 ISZERO PUSH2 0x2B2 JUMPI PUSH0 DUP1 REVERT JUMPDEST POP PUSH2 0x2CD PUSH1 0x4 DUP1 CALLDATASIZE SUB DUP2 ADD SWAP1 PUSH2 0x2C8 SWAP2 SWAP1 PUSH2 0x3504 JUMP JUMPDEST PUSH2 0x8C9 JUMP JUMPDEST STOP JUMPDEST CALLVALUE DUP1 ISZERO PUSH2 0x2DA JUMPI PUSH0 DUP1 REVERT JUMPDEST POP PUSH2 0x2F5 PUSH1 0x4 DUP1 CALLDATASIZE SUB DUP2 ADD SWAP1 PUSH2 0x2F0 SWAP2 SWAP1 PUSH2 0x352F JUMP JUMPDEST PUSH2 0x9DC JUMP JUMPDEST STOP JUMPDEST CALLVALUE DUP1 ISZERO PUSH2 0x302 JUMPI PUSH0 DUP1 REVERT JUMPDEST POP PUSH2 0x31D PUSH1 0x4 DUP1 CALLDATASIZE SUB DUP2 ADD SWAP1 PUSH2 0x318 SWAP2 SWAP1 PUSH2 0x352F JUMP JUMPDEST PUSH2 0xFFF JUMP JUMPDEST STOP JUMPDEST CALLVALUE DUP1 ISZERO PUSH2 0x32A JUMPI PUSH0 DUP1 REVERT JUMPDEST POP PUSH2 0x345 PUSH1 0x4 DUP1 CALLDATASIZE SUB DUP2 ADD SWAP1 PUSH2 0x340 SWAP2 SWAP1 PUSH2 0x352F JUMP JUMPDEST PUSH2 0x125D JUMP JUMPDEST STOP JUMPDEST CALLVALUE DUP1 ISZERO PUSH2 0x352 JUMPI PUSH0 DUP1 REVERT JUMPDEST POP PUSH2 0x35B PUSH2 0x12F6 JUMP JUMPDEST STOP JUMPDEST CALLVALUE DUP1 ISZERO PUSH2 0x368 JUMPI PUSH0 DUP1 REVERT JUMPDEST POP PUSH2 0x383 PUSH1 0x4 DUP1 CALLDATASIZE SUB DUP2 ADD SWAP1 PUSH2 0x37E SWAP2 SWAP1 PUSH2 0x3504 JUMP JUMPDEST PUSH2 0x1334 JUMP JUMPDEST STOP JUMPDEST CALLVALUE DUP1 ISZERO PUSH2 0x390 JUMPI PUSH0 DUP1 REVERT JUMPDEST POP PUSH2 0x399 PUSH2 0x1447 JUMP JUMPDEST STOP JUMPDEST CALLVALUE DUP1 ISZERO PUSH2 0x3A6 JUMPI PUSH0 DUP1 REVERT JUMPDEST POP PUSH2 0x3C1 PUSH1 0x4 DUP1 CALLDATASIZE SUB DUP2 ADD SWAP1 PUSH2 0x3BC SWAP2 SWAP1 PUSH2 0x352F JUMP JUMPDEST PUSH2 0x1670 JUMP JUMPDEST STOP JUMPDEST CALLVALUE DUP1 ISZERO PUSH2 0x3CE JUMPI PUSH0 DUP1 REVERT JUMPDEST POP PUSH2 0x3E9 PUSH1 0x4 DUP1 CALLDATASIZE SUB DUP2 ADD SWAP1 PUSH2 0x3E4 SWAP2 SWAP1 PUSH2 0x3504 JUMP JUMPDEST PUSH2 0x1708 JUMP JUMPDEST STOP JUMPDEST CALLVALUE DUP1 ISZERO PUSH2 0x3F6 JUMPI PUSH0 DUP1 REVERT JUMPDEST POP PUSH2 0x3FF PUSH2 0x19A1 JUMP JUMPDEST PUSH1 0x40 MLOAD PUSH2 0x40C SWAP2 SWAP1 PUSH2 0x3574 JUMP JUMPDEST PUSH1 0x40 MLOAD DUP1 SWAP2 SUB SWAP1 RETURN JUMPDEST CALLVALUE DUP1 ISZERO PUSH2 0x420 JUMPI PUSH0 DUP1 REVERT JUMPDEST POP PUSH2 0x43B PUSH1 0x4 DUP1 CALLDATASIZE SUB DUP2 ADD SWAP1 PUSH2 0x436 SWAP2 SWAP1 PUSH2 0x358D JUMP JUMPDEST PUSH2 0x19B7 JUMP JUMPDEST STOP JUMPDEST CALLVALUE DUP1 ISZERO PUSH2 0x448 JUMPI PUSH0 DUP1 REVERT JUMPDEST POP PUSH2 0x451 PUSH2 0x202E JUMP JUMPDEST PUSH1 0x40 MLOAD PUSH2 0x45E SWAP2 SWAP1 PUSH2 0x3389 JUMP JUMPDEST PUSH1 0x40 MLOAD DUP1 SWAP2 SUB SWAP1 RETURN JUMPDEST CALLVALUE DUP1 ISZERO PUSH2 0x472 JUMPI PUSH0 DUP1 REVERT JUMPDEST POP PUSH2 0x47B PUSH2 0x2034 JUMP JUMPDEST STOP JUMPDEST CALLVALUE DUP1 ISZERO PUSH2 0x488 JUMPI PUSH0 DUP1 REVERT JUMPDEST POP PUSH2 0x491 PUSH2 0x2047 JUMP JUMPDEST PUSH1 0x40 MLOAD PUSH2 0x49E SWAP2 SWAP1 PUSH2 0x35EC JUMP JUMPDEST PUSH1 0x40 MLOAD DUP1 SWAP2 SUB SWAP1 RETURN JUMPDEST CALLVALUE DUP1 ISZERO PUSH2 0x4B2 JUMPI PUSH0 DUP1 REVERT JUMPDEST POP PUSH2 0x4BB PUSH2 0x206C JUMP JUMPDEST STOP JUMPDEST CALLVALUE DUP1 ISZERO PUSH2 0x4C8 JUMPI PUSH0 DUP1 REVERT JUMPDEST POP PUSH2 0x4E3 PUSH1 0x4 DUP1 CALLDATASIZE SUB DUP2 ADD SWAP1 PUSH2 0x4DE SWAP2 SWAP1 PUSH2 0x3504 JUMP JUMPDEST PUSH2 0x20AA JUMP JUMPDEST STOP JUMPDEST CALLVALUE DUP1 ISZERO PUSH2 0x4F0 JUMPI PUSH0 DUP1 REVERT JUMPDEST POP PUSH2 0x4F9 PUSH2 0x2229 JUMP JUMPDEST PUSH1 0x40 MLOAD PUSH2 0x506 SWAP2 SWAP1 PUSH2 0x35EC JUMP JUMPDEST PUSH1 0x40 MLOAD DUP1 SWAP2 SUB SWAP1 RETURN JUMPDEST CALLVALUE DUP1 ISZERO PUSH2 0x51A JUMPI PUSH0 DUP1 REVERT JUMPDEST POP PUSH2 0x535 PUSH1 0x4 DUP1 CALLDATASIZE SUB DUP2 ADD SWAP1 PUSH2 0x530 SWAP2 SWAP1 PUSH2 0x3504 JUMP JUMPDEST PUSH2 0x2251 JUMP JUMPDEST STOP JUMPDEST CALLVALUE DUP1 ISZERO PUSH2 0x542 JUMPI PUSH0 DUP1 REVERT JUMPDEST POP PUSH2 0x54B PUSH2 0x2364 JUMP JUMPDEST PUSH1 0x40 MLOAD PUSH2 0x558 SWAP2 SWAP1 PUSH2 0x35EC JUMP JUMPDEST PUSH1 0x40 MLOAD DUP1 SWAP2 SUB SWAP1 RETURN JUMPDEST CALLVALUE DUP1 ISZERO PUSH2 0x56C JUMPI PUSH0 DUP1 REVERT JUMPDEST POP PUSH2 0x587 PUSH1 0x4 DUP1 CALLDATASIZE SUB DUP2 ADD SWAP1 PUSH2 0x582 SWAP2 SWAP1 PUSH2 0x3504 JUMP JUMPDEST PUSH2 0x2389 JUMP JUMPDEST PUSH1 0x40 MLOAD PUSH2 0x594 SWAP2 SWAP1 PUSH2 0x3389 JUMP JUMPDEST PUSH1 0x40 MLOAD DUP1 SWAP2 SUB SWAP1 RETURN JUMPDEST PUSH2 0x5B7 PUSH1 0x4 DUP1 CALLDATASIZE SUB DUP2 ADD SWAP1 PUSH2 0x5B2 SWAP2 SWAP1 PUSH2 0x3605 JUMP JUMPDEST PUSH2 0x239E JUMP JUMPDEST STOP JUMPDEST CALLVALUE DUP1 ISZERO PUSH2 0x5C4 JUMPI PUSH0 DUP1 REVERT JUMPDEST POP PUSH2 0x5CD PUSH2 0x29AF JUMP JUMPDEST PUSH1 0x40 MLOAD PUSH2 0x5DA SWAP2 SWAP1 PUSH2 0x3389 JUMP JUMPDEST PUSH1 0x40 MLOAD DUP1 SWAP2 SUB SWAP1 RETURN JUMPDEST CALLVALUE DUP1 ISZERO PUSH2 0x5EE JUMPI PUSH0 DUP1 REVERT JUMPDEST POP PUSH2 0x5F7 PUSH2 0x29B5 JUMP JUMPDEST PUSH1 0x40 MLOAD PUSH2 0x604 SWAP2 SWAP1 PUSH2 0x3389 JUMP JUMPDEST PUSH1 0x40 MLOAD DUP1 SWAP2 SUB SWAP1 RETURN JUMPDEST CALLVALUE DUP1 ISZERO PUSH2 0x618 JUMPI PUSH0 DUP1 REVERT JUMPDEST POP PUSH2 0x621 PUSH2 0x29BB JUMP JUMPDEST PUSH1 0x40 MLOAD PUSH2 0x62E SWAP2 SWAP1 PUSH2 0x35EC JUMP JUMPDEST PUSH1 0x40 MLOAD DUP1 SWAP2 SUB SWAP1 RETURN JUMPDEST CALLVALUE DUP1 ISZERO PUSH2 0x642 JUMPI PUSH0 DUP1 REVERT JUMPDEST POP PUSH2 0x64B PUSH2 0x29E0 JUMP JUMPDEST PUSH1 0x40 MLOAD PUSH2 0x658 SWAP2 SWAP1 PUSH2 0x35EC JUMP JUMPDEST PUSH1 0x40 MLOAD DUP1 SWAP2 SUB SWAP1 RETURN JUMPDEST CALLVALUE DUP1 ISZERO PUSH2 0x66C JUMPI PUSH0 DUP1 REVERT JUMPDEST POP PUSH2 0x675 PUSH2 0x2A05 JUMP JUMPDEST PUSH1 0x40 MLOAD PUSH2 0x682 SWAP2 SWAP1 PUSH2 0x3389 JUMP JUMPDEST PUSH1 0x40 MLOAD DUP1 SWAP2 SUB SWAP1 RETURN JUMPDEST CALLVALUE DUP1 ISZERO PUSH2 0x696 JUMPI PUSH0 DUP1 REVERT JUMPDEST POP PUSH2 0x6B1 PUSH1 0x4 DUP1 CALLDATASIZE SUB DUP2 ADD SWAP1 PUSH2 0x6AC SWAP2 SWAP1 PUSH2 0x352F JUMP JUMPDEST PUSH2 0x2A0B JUMP JUMPDEST PUSH1 0x40 MLOAD PUSH2 0x6C2 SWAP6 SWAP5 SWAP4 SWAP3 SWAP2 SWAP1 PUSH2 0x3655 JUMP JUMPDEST PUSH1 0x40 MLOAD DUP1 SWAP2 SUB SWAP1 RETURN JUMPDEST CALLVALUE DUP1 ISZERO PUSH2 0x6D6 JUMPI PUSH0 DUP1 REVERT JUMPDEST POP PUSH2 0x6F1 PUSH1 0x4 DUP1 CALLDATASIZE SUB DUP2 ADD SWAP1 PUSH2 0x6EC SWAP2 SWAP1 PUSH2 0x3504 JUMP JUMPDEST PUSH2 0x2A87 JUMP JUMPDEST PUSH1 0x40 MLOAD PUSH2 0x6FE SWAP2 SWAP1 PUSH2 0x3389 JUMP JUMPDEST PUSH1 0x40 MLOAD DUP1 SWAP2 SUB SWAP1 RETURN JUMPDEST CALLVALUE DUP1 ISZERO PUSH2 0x712 JUMPI PUSH0 DUP1 REVERT JUMPDEST POP PUSH2 0x72D PUSH1 0x4 DUP1 CALLDATASIZE SUB DUP2 ADD SWAP1 PUSH2 0x728 SWAP2 SWAP1 PUSH2 0x3504 JUMP JUMPDEST PUSH2 0x2A9C JUMP JUMPDEST STOP JUMPDEST CALLVALUE DUP1 ISZERO PUSH2 0x73A JUMPI PUSH0 DUP1 REVERT JUMPDEST POP PUSH2 0x743 PUSH2 0x2B20 JUMP JUMPDEST STOP JUMPDEST CALLVALUE DUP1 ISZERO PUSH2 0x750 JUMPI PUSH0 DUP1 REVERT JUMPDEST POP PUSH2 0x76B PUSH1 0x4 DUP1 CALLDATASIZE SUB DUP2 ADD SWAP1 PUSH2 0x766 SWAP2 SWAP1 PUSH2 0x352F JUMP JUMPDEST PUSH2 0x2C8F JUMP JUMPDEST PUSH1 0x40 MLOAD PUSH2 0x779 SWAP3 SWAP2 SWAP1 PUSH2 0x36A6 JUMP JUMPDEST PUSH1 0x40 MLOAD DUP1 SWAP2 SUB SWAP1 RETURN JUMPDEST PUSH1 0x9 PUSH1 0x20 MSTORE DUP2 PUSH0 MSTORE PUSH1 0x40 PUSH0 KECCAK256 PUSH1 0x20 MSTORE DUP1 PUSH0 MSTORE PUSH1 0x40 PUSH0 KECCAK256 PUSH0 SWAP2 POP SWAP2 POP POP SLOAD DUP2 JUMP JUMPDEST PUSH0 PUSH4 0x150B7A02 PUSH1 0xE0 SHL SWAP1 POP SWAP6 SWAP5 POP POP POP POP POP JUMP JUMPDEST PUSH2 0x7BE PUSH2 0x2CCE JUMP JUMPDEST PUSH0 PUSH20 0xFFFFFFFFFFFFFFFFFFFFFFFFFFFFFFFFFFFFFFFF AND DUP2 PUSH20 0xFFFFFFFFFFFFFFFFFFFFFFFFFFFFFFFFFFFFFFFF AND SUB PUSH2 0x82C JUMPI PUSH1 0x40 MLOAD PUSH32 0x8C379A000000000000000000000000000000000000000000000000000000000 DUP2 MSTORE PUSH1 0x4 ADD PUSH2 0x823 SWAP1 PUSH2 0x3727 JUMP JUMPDEST PUSH1 0x40 MLOAD DUP1 SWAP2 SUB SWAP1 REVERT JUMPDEST PUSH32 0x7DCD2C12CFCC397A33BDADD64452F757EAD5AE363DCD02873AEBBB68D4EE47D0 PUSH1 0xC PUSH0 SWAP1 SLOAD SWAP1 PUSH2 0x100 EXP SWAP1 DIV PUSH20 0xFFFFFFFFFFFFFFFFFFFFFFFFFFFFFFFFFFFFFFFF AND DUP3 PUSH1 0x40 MLOAD PUSH2 0x87E SWAP3 SWAP2 SWAP1 PUSH2 0x3745 JUMP JUMPDEST PUSH1 0x40 MLOAD DUP1 SWAP2 SUB SWAP1 LOG1 DUP1 PUSH1 0xC PUSH0 PUSH2 0x100 EXP DUP2 SLOAD DUP2 PUSH20 0xFFFFFFFFFFFFFFFFFFFFFFFFFFFFFFFFFFFFFFFF MUL NOT AND SWAP1 DUP4 PUSH20 0xFFFFFFFFFFFFFFFFFFFFFFFFFFFFFFFFFFFFFFFF AND MUL OR SWAP1 SSTORE POP POP JUMP JUMPDEST PUSH2 0x8D1 PUSH2 0x2CCE JUMP JUMPDEST PUSH0 PUSH20 0xFFFFFFFFFFFFFFFFFFFFFFFFFFFFFFFFFFFFFFFF AND DUP2 PUSH20 0xFFFFFFFFFFFFFFFFFFFFFFFFFFFFFFFFFFFFFFFF AND SUB PUSH2 0x93F JUMPI PUSH1 0x40 MLOAD PUSH32 0x8C379A000000000000000000000000000000000000000000000000000000000 DUP2 MSTORE PUSH1 0x4 ADD PUSH2 0x936 SWAP1 PUSH2 0x3727 JUMP JUMPDEST PUSH1 0x40 MLOAD DUP1 SWAP2 SUB SWAP1 REVERT JUMPDEST PUSH32 0xC3470C74402CD9AE145A41EF14D7A54822DA2AD9E12CBEC2C0C70EFA93A89CD6 PUSH1 0xA PUSH0 SWAP1 SLOAD SWAP1 PUSH2 0x100 EXP SWAP1 DIV PUSH20 0xFFFFFFFFFFFFFFFFFFFFFFFFFFFFFFFFFFFFFFFF AND DUP3 PUSH1 0x40 MLOAD PUSH2 0x991 SWAP3 SWAP2 SWAP1 PUSH2 0x3745 JUMP JUMPDEST PUSH1 0x40 MLOAD DUP1 SWAP2 SUB SWAP1 LOG1 DUP1 PUSH1 0xA PUSH0 PUSH2 0x100 EXP DUP2 SLOAD DUP2 PUSH20 0xFFFFFFFFFFFFFFFFFFFFFFFFFFFFFFFFFFFFFFFF MUL NOT AND SWAP1 DUP4 PUSH20 0xFFFFFFFFFFFFFFFFFFFFFFFFFFFFFFFFFFFFFFFF AND MUL OR SWAP1 SSTORE POP POP JUMP JUMPDEST PUSH2 0x9E4 PUSH2 0x2D55 JUMP JUMPDEST PUSH2 0x9EC PUSH2 0x2D99 JUMP JUMPDEST DUP1 PUSH1 0x6 PUSH0 DUP3 DUP2 MSTORE PUSH1 0x20 ADD SWAP1 DUP2 MSTORE PUSH1 0x20 ADD PUSH0 KECCAK256 PUSH1 0x4 ADD PUSH0 SWAP1 SLOAD SWAP1 PUSH2 0x100 EXP SWAP1 DIV PUSH1 0xFF AND PUSH2 0xA4D JUMPI PUSH1 0x40 MLOAD PUSH32 0x8C379A000000000000000000000000000000000000000000000000000000000 DUP2 MSTORE PUSH1 0x4 ADD PUSH2 0xA44 SWAP1 PUSH2 0x37B6 JUMP JUMPDEST PUSH1 0x40 MLOAD DUP1 SWAP2 SUB SWAP1 REVERT JUMPDEST PUSH0 PUSH1 0x6 PUSH0 DUP5 DUP2 MSTORE PUSH1 0x20 ADD SWAP1 DUP2 MSTORE PUSH1 0x20 ADD PUSH0 KECCAK256 SWAP1 POP PUSH0 PUSH1 0x7 PUSH0 DUP6 DUP2 MSTORE PUSH1 0x20 ADD SWAP1 DUP2 MSTORE PUSH1 0x20 ADD PUSH0 KECCAK256 PUSH1 0x40 MLOAD DUP1 PUSH1 0x40 ADD PUSH1 0x40 MSTORE SWAP1 DUP2 PUSH0 DUP3 ADD PUSH0 SWAP1 SLOAD SWAP1 PUSH2 0x100 EXP SWAP1 DIV PUSH20 0xFFFFFFFFFFFFFFFFFFFFFFFFFFFFFFFFFFFFFFFF AND PUSH20 0xFFFFFFFFFFFFFFFFFFFFFFFFFFFFFFFFFFFFFFFF AND PUSH20 0xFFFFFFFFFFFFFFFFFFFFFFFFFFFFFFFFFFFFFFFF AND DUP2 MSTORE PUSH1 0x20 ADD PUSH1 0x1 DUP3 ADD SLOAD DUP2 MSTORE POP POP SWAP1 POP CALLER PUSH20 0xFFFFFFFFFFFFFFFFFFFFFFFFFFFFFFFFFFFFFFFF AND DUP3 PUSH0 ADD PUSH0 SWAP1 SLOAD SWAP1 PUSH2 0x100 EXP SWAP1 DIV PUSH20 0xFFFFFFFFFFFFFFFFFFFFFFFFFFFFFFFFFFFFFFFF AND PUSH20 0xFFFFFFFFFFFFFFFFFFFFFFFFFFFFFFFFFFFFFFFF AND EQ PUSH2 0xB6E JUMPI PUSH1 0x40 MLOAD PUSH32 0x8C379A000000000000000000000000000000000000000000000000000000000 DUP2 MSTORE PUSH1 0x4 ADD PUSH2 0xB65 SWAP1 PUSH2 0x381E JUMP JUMPDEST PUSH1 0x40 MLOAD DUP1 SWAP2 SUB SWAP1 REVERT JUMPDEST PUSH0 DUP2 PUSH1 0x20 ADD MLOAD GT PUSH2 0xBB4 JUMPI PUSH1 0x40 MLOAD PUSH32 0x8C379A000000000000000000000000000000000000000000000000000000000 DUP2 MSTORE PUSH1 0x4 ADD PUSH2 0xBAB SWAP1 PUSH2 0x3886 JUMP JUMPDEST PUSH1 0x40 MLOAD DUP1 SWAP2 SUB SWAP1 REVERT JUMPDEST PUSH0 PUSH2 0x2710 PUSH1 0x2 SLOAD DUP4 PUSH1 0x20 ADD MLOAD PUSH2 0xBCA SWAP2 SWAP1 PUSH2 0x38D1 JUMP JUMPDEST PUSH2 0xBD4 SWAP2 SWAP1 PUSH2 0x393F JUMP JUMPDEST SWAP1 POP PUSH0 DUP2 DUP4 PUSH1 0x20 ADD MLOAD PUSH2 0xBE7 SWAP2 SWAP1 PUSH2 0x396F JUMP JUMPDEST SWAP1 POP PUSH0 PUSH20 0xFFFFFFFFFFFFFFFFFFFFFFFFFFFFFFFFFFFFFFFF AND DUP5 PUSH1 0x2 ADD PUSH0 SWAP1 SLOAD SWAP1 PUSH2 0x100 EXP SWAP1 DIV PUSH20 0xFFFFFFFFFFFFFFFFFFFFFFFFFFFFFFFFFFFFFFFF AND PUSH20 0xFFFFFFFFFFFFFFFFFFFFFFFFFFFFFFFFFFFFFFFF AND SUB PUSH2 0xD27 JUMPI DUP2 PUSH1 0x4 PUSH0 DUP3 DUP3 SLOAD PUSH2 0xC50 SWAP2 SWAP1 PUSH2 0x39A2 JUMP JUMPDEST SWAP3 POP POP DUP2 SWAP1 SSTORE POP PUSH0 DUP5 PUSH0 ADD PUSH0 SWAP1 SLOAD SWAP1 PUSH2 0x100 EXP SWAP1 DIV PUSH20 0xFFFFFFFFFFFFFFFFFFFFFFFFFFFFFFFFFFFFFFFF AND PUSH20 0xFFFFFFFFFFFFFFFFFFFFFFFFFFFFFFFFFFFFFFFF AND DUP3 PUSH1 0x40 MLOAD PUSH2 0xC9E SWAP1 PUSH2 0x3A02 JUMP JUMPDEST PUSH0 PUSH1 0x40 MLOAD DUP1 DUP4 SUB DUP2 DUP6 DUP8 GAS CALL SWAP3 POP POP POP RETURNDATASIZE DUP1 PUSH0 DUP2 EQ PUSH2 0xCD8 JUMPI PUSH1 0x40 MLOAD SWAP2 POP PUSH1 0x1F NOT PUSH1 0x3F RETURNDATASIZE ADD AND DUP3 ADD PUSH1 0x40 MSTORE RETURNDATASIZE DUP3 MSTORE RETURNDATASIZE PUSH0 PUSH1 0x20 DUP5 ADD RETURNDATACOPY PUSH2 0xCDD JUMP JUMPDEST PUSH1 0x60 SWAP2 POP JUMPDEST POP POP SWAP1 POP DUP1 PUSH2 0xD21 JUMPI PUSH1 0x40 MLOAD PUSH32 0x8C379A000000000000000000000000000000000000000000000000000000000 DUP2 MSTORE PUSH1 0x4 ADD PUSH2 0xD18 SWAP1 PUSH2 0x3A60 JUMP JUMPDEST PUSH1 0x40 MLOAD DUP1 SWAP2 SUB SWAP1 REVERT JUMPDEST POP PUSH2 0xE0E JUMP JUMPDEST DUP2 PUSH1 0x5 PUSH0 DUP7 PUSH1 0x2 ADD PUSH0 SWAP1 SLOAD SWAP1 PUSH2 0x100 EXP SWAP1 DIV PUSH20 0xFFFFFFFFFFFFFFFFFFFFFFFFFFFFFFFFFFFFFFFF AND PUSH20 0xFFFFFFFFFFFFFFFFFFFFFFFFFFFFFFFFFFFFFFFF AND PUSH20 0xFFFFFFFFFFFFFFFFFFFFFFFFFFFFFFFFFFFFFFFF AND DUP2 MSTORE PUSH1 0x20 ADD SWAP1 DUP2 MSTORE PUSH1 0x20 ADD PUSH0 KECCAK256 PUSH0 DUP3 DUP3 SLOAD PUSH2 0xD96 SWAP2 SWAP1 PUSH2 0x39A2 JUMP JUMPDEST SWAP3 POP POP DUP2 SWAP1 SSTORE POP PUSH2 0xE0D DUP5 PUSH0 ADD PUSH0 SWAP1 SLOAD SWAP1 PUSH2 0x100 EXP SWAP1 DIV PUSH20 0xFFFFFFFFFFFFFFFFFFFFFFFFFFFFFFFFFFFFFFFF AND DUP3 DUP7 PUSH1 0x2 ADD PUSH0 SWAP1 SLOAD SWAP1 PUSH2 0x100 EXP SWAP1 DIV PUSH20 0xFFFFFFFFFFFFFFFFFFFFFFFFFFFFFFFFFFFFFFFF AND PUSH20 0xFFFFFFFFFFFFFFFFFFFFFFFFFFFFFFFFFFFFFFFF AND PUSH2 0x2DDA SWAP1 SWAP3 SWAP2 SWAP1 PUSH4 0xFFFFFFFF AND JUMP JUMPDEST JUMPDEST PUSH1 0xD PUSH0 SWAP1 SLOAD SWAP1 PUSH2 0x100 EXP SWAP1 DIV PUSH20 0xFFFFFFFFFFFFFFFFFFFFFFFFFFFFFFFFFFFFFFFF AND PUSH20 0xFFFFFFFFFFFFFFFFFFFFFFFFFFFFFFFFFFFFFFFF AND PUSH4 0x42842E0E ADDRESS DUP6 PUSH0 ADD MLOAD DUP8 PUSH1 0x1 ADD SLOAD PUSH1 0x40 MLOAD DUP5 PUSH4 0xFFFFFFFF AND PUSH1 0xE0 SHL DUP2 MSTORE PUSH1 0x4 ADD PUSH2 0xE73 SWAP4 SWAP3 SWAP2 SWAP1 PUSH2 0x3A7E JUMP JUMPDEST PUSH0 PUSH1 0x40 MLOAD DUP1 DUP4 SUB DUP2 PUSH0 DUP8 DUP1 EXTCODESIZE ISZERO DUP1 ISZERO PUSH2 0xE8A JUMPI PUSH0 DUP1 REVERT JUMPDEST POP GAS CALL ISZERO DUP1 ISZERO PUSH2 0xE9C JUMPI RETURNDATASIZE PUSH0 DUP1 RETURNDATACOPY RETURNDATASIZE PUSH0 REVERT JUMPDEST POP POP POP POP PUSH1 0x6 PUSH0 DUP8 DUP2 MSTORE PUSH1 0x20 ADD SWAP1 DUP2 MSTORE PUSH1 0x20 ADD PUSH0 KECCAK256 PUSH0 DUP1 DUP3 ADD PUSH0 PUSH2 0x100 EXP DUP2 SLOAD SWAP1 PUSH20 0xFFFFFFFFFFFFFFFFFFFFFFFFFFFFFFFFFFFFFFFF MUL NOT AND SWAP1 SSTORE PUSH1 0x1 DUP3 ADD PUSH0 SWAP1 SSTORE PUSH1 0x2 DUP3 ADD PUSH0 PUSH2 0x100 EXP DUP2 SLOAD SWAP1 PUSH20 0xFFFFFFFFFFFFFFFFFFFFFFFFFFFFFFFFFFFFFFFF MUL NOT AND SWAP1 SSTORE PUSH1 0x3 DUP3 ADD PUSH0 SWAP1 SSTORE PUSH1 0x4 DUP3 ADD PUSH0 PUSH2 0x100 EXP DUP2 SLOAD SWAP1 PUSH1 0xFF MUL NOT AND SWAP1 SSTORE POP POP PUSH1 0x7 PUSH0 DUP8 DUP2 MSTORE PUSH1 0x20 ADD SWAP1 DUP2 MSTORE PUSH1 0x20 ADD PUSH0 KECCAK256 PUSH0 DUP1 DUP3 ADD PUSH0 PUSH2 0x100 EXP DUP2 SLOAD SWAP1 PUSH20 0xFFFFFFFFFFFFFFFFFFFFFFFFFFFFFFFFFFFFFFFF MUL NOT AND SWAP1 SSTORE PUSH1 0x1 DUP3 ADD PUSH0 SWAP1 SSTORE POP POP DUP4 PUSH0 ADD PUSH0 SWAP1 SLOAD SWAP1 PUSH2 0x100 EXP SWAP1 DIV PUSH20 0xFFFFFFFFFFFFFFFFFFFFFFFFFFFFFFFFFFFFFFFF AND PUSH20 0xFFFFFFFFFFFFFFFFFFFFFFFFFFFFFFFFFFFFFFFF AND DUP4 PUSH0 ADD MLOAD PUSH20 0xFFFFFFFFFFFFFFFFFFFFFFFFFFFFFFFFFFFFFFFF AND DUP8 PUSH32 0x8562EB94748E30BB0071E932744CE902B460C683474FCB3BFD567FFA16B1AFB2 DUP7 PUSH1 0x20 ADD MLOAD PUSH1 0x40 MLOAD PUSH2 0xFE7 SWAP2 SWAP1 PUSH2 0x3389 JUMP JUMPDEST PUSH1 0x40 MLOAD DUP1 SWAP2 SUB SWAP1 LOG4 POP POP POP POP POP PUSH2 0xFFC PUSH2 0x2E59 JUMP JUMPDEST POP JUMP JUMPDEST PUSH2 0x1007 PUSH2 0x2D99 JUMP JUMPDEST PUSH2 0x100F PUSH2 0x2D55 JUMP JUMPDEST PUSH1 0x6 PUSH0 DUP3 DUP2 MSTORE PUSH1 0x20 ADD SWAP1 DUP2 MSTORE PUSH1 0x20 ADD PUSH0 KECCAK256 PUSH1 0x4 ADD PUSH0 SWAP1 SLOAD SWAP1 PUSH2 0x100 EXP SWAP1 DIV PUSH1 0xFF AND PUSH2 0x106F JUMPI PUSH1 0x40 MLOAD PUSH32 0x8C379A000000000000000000000000000000000000000000000000000000000 DUP2 MSTORE PUSH1 0x4 ADD PUSH2 0x1066 SWAP1 PUSH2 0x37B6 JUMP JUMPDEST PUSH1 0x40 MLOAD DUP1 SWAP2 SUB SWAP1 REVERT JUMPDEST CALLER PUSH20 0xFFFFFFFFFFFFFFFFFFFFFFFFFFFFFFFFFFFFFFFF AND PUSH1 0x6 PUSH0 DUP4 DUP2 MSTORE PUSH1 0x20 ADD SWAP1 DUP2 MSTORE PUSH1 0x20 ADD PUSH0 KECCAK256 PUSH0 ADD PUSH0 SWAP1 SLOAD SWAP1 PUSH2 0x100 EXP SWAP1 DIV PUSH20 0xFFFFFFFFFFFFFFFFFFFFFFFFFFFFFFFFFFFFFFFF AND PUSH20 0xFFFFFFFFFFFFFFFFFFFFFFFFFFFFFFFFFFFFFFFF AND EQ PUSH2 0x110F JUMPI PUSH1 0x40 MLOAD PUSH32 0x8C379A000000000000000000000000000000000000000000000000000000000 DUP2 MSTORE PUSH1 0x4 ADD PUSH2 0x1106 SWAP1 PUSH2 0x3AFD JUMP JUMPDEST PUSH1 0x40 MLOAD DUP1 SWAP2 SUB SWAP1 REVERT JUMPDEST PUSH1 0xD PUSH0 SWAP1 SLOAD SWAP1 PUSH2 0x100 EXP SWAP1 DIV PUSH20 0xFFFFFFFFFFFFFFFFFFFFFFFFFFFFFFFFFFFFFFFF AND PUSH20 0xFFFFFFFFFFFFFFFFFFFFFFFFFFFFFFFFFFFFFFFF AND PUSH4 0x23B872DD ADDRESS CALLER DUP5 PUSH1 0x40 MLOAD DUP5 PUSH4 0xFFFFFFFF AND PUSH1 0xE0 SHL DUP2 MSTORE PUSH1 0x4 ADD PUSH2 0x116D SWAP4 SWAP3 SWAP2 SWAP1 PUSH2 0x3A7E JUMP JUMPDEST PUSH0 PUSH1 0x40 MLOAD DUP1 DUP4 SUB DUP2 PUSH0 DUP8 DUP1 EXTCODESIZE ISZERO DUP1 ISZERO PUSH2 0x1184 JUMPI PUSH0 DUP1 REVERT JUMPDEST POP GAS CALL ISZERO DUP1 ISZERO PUSH2 0x1196 JUMPI RETURNDATASIZE PUSH0 DUP1 RETURNDATACOPY RETURNDATASIZE PUSH0 REVERT JUMPDEST POP POP POP POP PUSH1 0x6 PUSH0 DUP3 DUP2 MSTORE PUSH1 0x20 ADD SWAP1 DUP2 MSTORE PUSH1 0x20 ADD PUSH0 KECCAK256 PUSH0 DUP1 DUP3 ADD PUSH0 PUSH2 0x100 EXP DUP2 SLOAD SWAP1 PUSH20 0xFFFFFFFFFFFFFFFFFFFFFFFFFFFFFFFFFFFFFFFF MUL NOT AND SWAP1 SSTORE PUSH1 0x1 DUP3 ADD PUSH0 SWAP1 SSTORE PUSH1 0x2 DUP3 ADD PUSH0 PUSH2 0x100 EXP DUP2 SLOAD SWAP1 PUSH20 0xFFFFFFFFFFFFFFFFFFFFFFFFFFFFFFFFFFFFFFFF MUL NOT AND SWAP1 SSTORE PUSH1 0x3 DUP3 ADD PUSH0 SWAP1 SSTORE PUSH1 0x4 DUP3 ADD PUSH0 PUSH2 0x100 EXP DUP2 SLOAD SWAP1 PUSH1 0xFF MUL NOT AND SWAP1 SSTORE POP POP DUP1 PUSH32 0x8E25282255AB31897DF2B0456BB993AC7F84D376861AEFD84901D2D63A7428A2 CALLER PUSH1 0x40 MLOAD PUSH2 0x124A SWAP2 SWAP1 PUSH2 0x35EC JUMP JUMPDEST PUSH1 0x40 MLOAD DUP1 SWAP2 SUB SWAP1 LOG2 PUSH2 0x125A PUSH2 0x2E59 JUMP JUMPDEST POP JUMP JUMPDEST PUSH2 0x1265 PUSH2 0x2CCE JUMP JUMPDEST PUSH0 DUP2 GT DUP1 ISZERO PUSH2 0x1276 JUMPI POP PUSH1 0x3 SLOAD DUP2 GT ISZERO JUMPDEST PUSH2 0x12B5 JUMPI PUSH1 0x40 MLOAD PUSH32 0x8C379A000000000000000000000000000000000000000000000000000000000 DUP2 MSTORE PUSH1 0x4 ADD PUSH2 0x12AC SWAP1 PUSH2 0x3B65 JUMP JUMPDEST PUSH1 0x40 MLOAD DUP1 SWAP2 SUB SWAP1 REVERT JUMPDEST DUP1 PUSH1 0x2 DUP2 SWAP1 SSTORE POP PUSH32 0xE18AA129833F655A8166B6185277FEE7A53F67E46FD32329BC2FC2AC21274D55 DUP2 PUSH1 0x40 MLOAD PUSH2 0x12EB SWAP2 SWAP1 PUSH2 0x3389 JUMP JUMPDEST PUSH1 0x40 MLOAD DUP1 SWAP2 SUB SWAP1 LOG1 POP JUMP JUMPDEST PUSH2 0x12FE PUSH2 0x2CCE JUMP JUMPDEST PUSH2 0x1306 PUSH2 0x2E62 JUMP JUMPDEST PUSH32 0xA45F47FDEA8A1EFDD9029A5691C7F759C32B7C698632B563573E155625D16933 PUSH1 0x40 MLOAD PUSH1 0x40 MLOAD DUP1 SWAP2 SUB SWAP1 LOG1 JUMP JUMPDEST PUSH2 0x133C PUSH2 0x2CCE JUMP JUMPDEST PUSH0 PUSH20 0xFFFFFFFFFFFFFFFFFFFFFFFFFFFFFFFFFFFFFFFF AND DUP2 PUSH20 0xFFFFFFFFFFFFFFFFFFFFFFFFFFFFFFFFFFFFFFFF AND SUB PUSH2 0x13AA JUMPI PUSH1 0x40 MLOAD PUSH32 0x8C379A000000000000000000000000000000000000000000000000000000000 DUP2 MSTORE PUSH1 0x4 ADD PUSH2 0x13A1 SWAP1 PUSH2 0x3727 JUMP JUMPDEST PUSH1 0x40 MLOAD DUP1 SWAP2 SUB SWAP1 REVERT JUMPDEST PUSH32 0x495EA904988DAA5F88F7D03303CCED2C8A506050B1A7D20644A75313DE113813 PUSH1 0xB PUSH0 SWAP1 SLOAD SWAP1 PUSH2 0x100 EXP SWAP1 DIV PUSH20 0xFFFFFFFFFFFFFFFFFFFFFFFFFFFFFFFFFFFFFFFF AND DUP3 PUSH1 0x40 MLOAD PUSH2 0x13FC SWAP3 SWAP2 SWAP1 PUSH2 0x3745 JUMP JUMPDEST PUSH1 0x40 MLOAD DUP1 SWAP2 SUB SWAP1 LOG1 DUP1 PUSH1 0xB PUSH0 PUSH2 0x100 EXP DUP2 SLOAD DUP2 PUSH20 0xFFFFFFFFFFFFFFFFFFFFFFFFFFFFFFFFFFFFFFFF MUL NOT AND SWAP1 DUP4 PUSH20 0xFFFFFFFFFFFFFFFFFFFFFFFFFFFFFFFFFFFFFFFF AND MUL OR SWAP1 SSTORE POP POP JUMP JUMPDEST PUSH2 0x144F PUSH2 0x2D55 JUMP JUMPDEST PUSH0 PUSH1 0x8 PUSH0 CALLER PUSH20 0xFFFFFFFFFFFFFFFFFFFFFFFFFFFFFFFFFFFFFFFF AND PUSH20 0xFFFFFFFFFFFFFFFFFFFFFFFFFFFFFFFFFFFFFFFF AND DUP2 MSTORE PUSH1 0x20 ADD SWAP1 DUP2 MSTORE PUSH1 0x20 ADD PUSH0 KECCAK256 SLOAD SWAP1 POP PUSH0 DUP2 GT PUSH2 0x14D2 JUMPI PUSH1 0x40 MLOAD PUSH32 0x8C379A000000000000000000000000000000000000000000000000000000000 DUP2 MSTORE PUSH1 0x4 ADD PUSH2 0x14C9 SWAP1 PUSH2 0x3BCD JUMP JUMPDEST PUSH1 0x40 MLOAD DUP1 SWAP2 SUB SWAP1 REVERT JUMPDEST SELFBALANCE DUP2 GT ISZERO PUSH2 0x1515 JUMPI PUSH1 0x40 MLOAD PUSH32 0x8C379A000000000000000000000000000000000000000000000000000000000 DUP2 MSTORE PUSH1 0x4 ADD PUSH2 0x150C SWAP1 PUSH2 0x3C35 JUMP JUMPDEST PUSH1 0x40 MLOAD DUP1 SWAP2 SUB SWAP1 REVERT JUMPDEST PUSH0 PUSH1 0x8 PUSH0 CALLER PUSH20 0xFFFFFFFFFFFFFFFFFFFFFFFFFFFFFFFFFFFFFFFF AND PUSH20 0xFFFFFFFFFFFFFFFFFFFFFFFFFFFFFFFFFFFFFFFF AND DUP2 MSTORE PUSH1 0x20 ADD SWAP1 DUP2 MSTORE PUSH1 0x20 ADD PUSH0 KECCAK256 DUP2 SWAP1 SSTORE POP PUSH0 CALLER PUSH20 0xFFFFFFFFFFFFFFFFFFFFFFFFFFFFFFFFFFFFFFFF AND DUP3 PUSH1 0x40 MLOAD PUSH2 0x157C SWAP1 PUSH2 0x3A02 JUMP JUMPDEST PUSH0 PUSH1 0x40 MLOAD DUP1 DUP4 SUB DUP2 DUP6 DUP8 GAS CALL SWAP3 POP POP POP RETURNDATASIZE DUP1 PUSH0 DUP2 EQ PUSH2 0x15B6 JUMPI PUSH1 0x40 MLOAD SWAP2 POP PUSH1 0x1F NOT PUSH1 0x3F RETURNDATASIZE ADD AND DUP3 ADD PUSH1 0x40 MSTORE RETURNDATASIZE DUP3 MSTORE RETURNDATASIZE PUSH0 PUSH1 0x20 DUP5 ADD RETURNDATACOPY PUSH2 0x15BB JUMP JUMPDEST PUSH1 0x60 SWAP2 POP JUMPDEST POP POP SWAP1 POP DUP1 PUSH2 0x15FF JUMPI PUSH1 0x40 MLOAD PUSH32 0x8C379A000000000000000000000000000000000000000000000000000000000 DUP2 MSTORE PUSH1 0x4 ADD PUSH2 0x15F6 SWAP1 PUSH2 0x3C9D JUMP JUMPDEST PUSH1 0x40 MLOAD DUP1 SWAP2 SUB SWAP1 REVERT JUMPDEST CALLER PUSH20 0xFFFFFFFFFFFFFFFFFFFFFFFFFFFFFFFFFFFFFFFF AND PUSH0 PUSH20 0xFFFFFFFFFFFFFFFFFFFFFFFFFFFFFFFFFFFFFFFF AND PUSH32 0xD55B5FE81317B854AC11454ADF7E5A9A0ADF69184D643EF9AE6BFDA6A015C5BC DUP5 PUSH1 0x40 MLOAD PUSH2 0x165C SWAP2 SWAP1 PUSH2 0x3389 JUMP JUMPDEST PUSH1 0x40 MLOAD DUP1 SWAP2 SUB SWAP1 LOG3 POP POP PUSH2 0x166E PUSH2 0x2E59 JUMP JUMPDEST JUMP JUMPDEST PUSH2 0x1678 PUSH2 0x2CCE JUMP JUMPDEST PUSH0 DUP2 GT DUP1 ISZERO PUSH2 0x1688 JUMPI POP PUSH2 0x384 DUP2 LT JUMPDEST PUSH2 0x16C7 JUMPI PUSH1 0x40 MLOAD PUSH32 0x8C379A000000000000000000000000000000000000000000000000000000000 DUP2 MSTORE PUSH1 0x4 ADD PUSH2 0x16BE SWAP1 PUSH2 0x3D05 JUMP JUMPDEST PUSH1 0x40 MLOAD DUP1 SWAP2 SUB SWAP1 REVERT JUMPDEST DUP1 PUSH1 0x3 DUP2 SWAP1 SSTORE POP PUSH32 0x5D46F46C0E5B2045E0CB8C00367D35D9F3F1FC035950AC8F5C675F6C0A791BA0 DUP2 PUSH1 0x40 MLOAD PUSH2 0x16FD SWAP2 SWAP1 PUSH2 0x3389 JUMP JUMPDEST PUSH1 0x40 MLOAD DUP1 SWAP2 SUB SWAP1 LOG1 POP JUMP JUMPDEST PUSH2 0x1710 PUSH2 0x2D55 JUMP JUMPDEST PUSH0 PUSH1 0x9 PUSH0 CALLER PUSH20 0xFFFFFFFFFFFFFFFFFFFFFFFFFFFFFFFFFFFFFFFF AND PUSH20 0xFFFFFFFFFFFFFFFFFFFFFFFFFFFFFFFFFFFFFFFF AND DUP2 MSTORE PUSH1 0x20 ADD SWAP1 DUP2 MSTORE PUSH1 0x20 ADD PUSH0 KECCAK256 PUSH0 DUP4 PUSH20 0xFFFFFFFFFFFFFFFFFFFFFFFFFFFFFFFFFFFFFFFF AND PUSH20 0xFFFFFFFFFFFFFFFFFFFFFFFFFFFFFFFFFFFFFFFF AND DUP2 MSTORE PUSH1 0x20 ADD SWAP1 DUP2 MSTORE PUSH1 0x20 ADD PUSH0 KECCAK256 SLOAD SWAP1 POP PUSH0 DUP2 GT PUSH2 0x17CE JUMPI PUSH1 0x40 MLOAD PUSH32 0x8C379A000000000000000000000000000000000000000000000000000000000 DUP2 MSTORE PUSH1 0x4 ADD PUSH2 0x17C5 SWAP1 PUSH2 0x3D6D JUMP JUMPDEST PUSH1 0x40 MLOAD DUP1 SWAP2 SUB SWAP1 REVERT JUMPDEST DUP1 DUP3 PUSH20 0xFFFFFFFFFFFFFFFFFFFFFFFFFFFFFFFFFFFFFFFF AND PUSH4 0x70A08231 ADDRESS PUSH1 0x40 MLOAD DUP3 PUSH4 0xFFFFFFFF AND PUSH1 0xE0 SHL DUP2 MSTORE PUSH1 0x4 ADD PUSH2 0x1808 SWAP2 SWAP1 PUSH2 0x35EC JUMP JUMPDEST PUSH1 0x20 PUSH1 0x40 MLOAD DUP1 DUP4 SUB DUP2 DUP7 GAS STATICCALL ISZERO DUP1 ISZERO PUSH2 0x1823 JUMPI RETURNDATASIZE PUSH0 DUP1 RETURNDATACOPY RETURNDATASIZE PUSH0 REVERT JUMPDEST POP POP POP POP PUSH1 0x40 MLOAD RETURNDATASIZE PUSH1 0x1F NOT PUSH1 0x1F DUP3 ADD AND DUP3 ADD DUP1 PUSH1 0x40 MSTORE POP DUP2 ADD SWAP1 PUSH2 0x1847 SWAP2 SWAP1 PUSH2 0x3D9F JUMP JUMPDEST LT ISZERO PUSH2 0x1888 JUMPI PUSH1 0x40 MLOAD PUSH32 0x8C379A000000000000000000000000000000000000000000000000000000000 DUP2 MSTORE PUSH1 0x4 ADD PUSH2 0x187F SWAP1 PUSH2 0x3E14 JUMP JUMPDEST PUSH1 0x40 MLOAD DUP1 SWAP2 SUB SWAP1 REVERT JUMPDEST PUSH0 PUSH1 0x9 PUSH0 CALLER PUSH20 0xFFFFFFFFFFFFFFFFFFFFFFFFFFFFFFFFFFFFFFFF AND PUSH20 0xFFFFFFFFFFFFFFFFFFFFFFFFFFFFFFFFFFFFFFFF AND DUP2 MSTORE PUSH1 0x20 ADD SWAP1 DUP2 MSTORE PUSH1 0x20 ADD PUSH0 KECCAK256 PUSH0 DUP5 PUSH20 0xFFFFFFFFFFFFFFFFFFFFFFFFFFFFFFFFFFFFFFFF AND PUSH20 0xFFFFFFFFFFFFFFFFFFFFFFFFFFFFFFFFFFFFFFFF AND DUP2 MSTORE PUSH1 0x20 ADD SWAP1 DUP2 MSTORE PUSH1 0x20 ADD PUSH0 KECCAK256 DUP2 SWAP1 SSTORE POP PUSH2 0x1930 CALLER DUP3 DUP5 PUSH20 0xFFFFFFFFFFFFFFFFFFFFFFFFFFFFFFFFFFFFFFFF AND PUSH2 0x2DDA SWAP1 SWAP3 SWAP2 SWAP1 PUSH4 0xFFFFFFFF AND JUMP JUMPDEST CALLER PUSH20 0xFFFFFFFFFFFFFFFFFFFFFFFFFFFFFFFFFFFFFFFF AND DUP3 PUSH20 0xFFFFFFFFFFFFFFFFFFFFFFFFFFFFFFFFFFFFFFFF AND PUSH32 0xD55B5FE81317B854AC11454ADF7E5A9A0ADF69184D643EF9AE6BFDA6A015C5BC DUP4 PUSH1 0x40 MLOAD PUSH2 0x198D SWAP2 SWAP1 PUSH2 0x3389 JUMP JUMPDEST PUSH1 0x40 MLOAD DUP1 SWAP2 SUB SWAP1 LOG3 POP PUSH2 0x199E PUSH2 0x2E59 JUMP JUMPDEST POP JUMP JUMPDEST PUSH0 PUSH1 0x1 PUSH1 0x14 SWAP1 SLOAD SWAP1 PUSH2 0x100 EXP SWAP1 DIV PUSH1 0xFF AND SWAP1 POP SWAP1 JUMP JUMPDEST PUSH2 0x19BF PUSH2 0x2D99 JUMP JUMPDEST DUP3 CALLER PUSH20 0xFFFFFFFFFFFFFFFFFFFFFFFFFFFFFFFFFFFFFFFF AND PUSH1 0xD PUSH0 SWAP1 SLOAD SWAP1 PUSH2 0x100 EXP SWAP1 DIV PUSH20 0xFFFFFFFFFFFFFFFFFFFFFFFFFFFFFFFFFFFFFFFF AND PUSH20 0xFFFFFFFFFFFFFFFFFFFFFFFFFFFFFFFFFFFFFFFF AND PUSH4 0x6352211E DUP4 PUSH1 0x40 MLOAD DUP3 PUSH4 0xFFFFFFFF AND PUSH1 0xE0 SHL DUP2 MSTORE PUSH1 0x4 ADD PUSH2 0x1A31 SWAP2 SWAP1 PUSH2 0x3389 JUMP JUMPDEST PUSH1 0x20 PUSH1 0x40 MLOAD DUP1 DUP4 SUB DUP2 DUP7 GAS STATICCALL ISZERO DUP1 ISZERO PUSH2 0x1A4C JUMPI RETURNDATASIZE PUSH0 DUP1 RETURNDATACOPY RETURNDATASIZE PUSH0 REVERT JUMPDEST POP POP POP POP PUSH1 0x40 MLOAD RETURNDATASIZE PUSH1 0x1F NOT PUSH1 0x1F DUP3 ADD AND DUP3 ADD DUP1 PUSH1 0x40 MSTORE POP DUP2 ADD SWAP1 PUSH2 0x1A70 SWAP2 SWAP1 PUSH2 0x3E46 JUMP JUMPDEST PUSH20 0xFFFFFFFFFFFFFFFFFFFFFFFFFFFFFFFFFFFFFFFF AND EQ PUSH2 0x1AC6 JUMPI PUSH1 0x40 MLOAD PUSH32 0x8C379A000000000000000000000000000000000000000000000000000000000 DUP2 MSTORE PUSH1 0x4 ADD PUSH2 0x1ABD SWAP1 PUSH2 0x3EBB JUMP JUMPDEST PUSH1 0x40 MLOAD DUP1 SWAP2 SUB SWAP1 REVERT JUMPDEST DUP3 PUSH0 PUSH20 0xFFFFFFFFFFFFFFFFFFFFFFFFFFFFFFFFFFFFFFFF AND DUP2 PUSH20 0xFFFFFFFFFFFFFFFFFFFFFFFFFFFFFFFFFFFFFFFF AND EQ DUP1 PUSH2 0x1B4D JUMPI POP PUSH1 0xA PUSH0 SWAP1 SLOAD SWAP1 PUSH2 0x100 EXP SWAP1 DIV PUSH20 0xFFFFFFFFFFFFFFFFFFFFFFFFFFFFFFFFFFFFFFFF AND PUSH20 0xFFFFFFFFFFFFFFFFFFFFFFFFFFFFFFFFFFFFFFFF AND DUP2 PUSH20 0xFFFFFFFFFFFFFFFFFFFFFFFFFFFFFFFFFFFFFFFF AND EQ JUMPDEST DUP1 PUSH2 0x1BA4 JUMPI POP PUSH1 0xB PUSH0 SWAP1 SLOAD SWAP1 PUSH2 0x100 EXP SWAP1 DIV PUSH20 0xFFFFFFFFFFFFFFFFFFFFFFFFFFFFFFFFFFFFFFFF AND PUSH20 0xFFFFFFFFFFFFFFFFFFFFFFFFFFFFFFFFFFFFFFFF AND DUP2 PUSH20 0xFFFFFFFFFFFFFFFFFFFFFFFFFFFFFFFFFFFFFFFF AND EQ JUMPDEST DUP1 PUSH2 0x1BFB JUMPI POP PUSH1 0xC PUSH0 SWAP1 SLOAD SWAP1 PUSH2 0x100 EXP SWAP1 DIV PUSH20 0xFFFFFFFFFFFFFFFFFFFFFFFFFFFFFFFFFFFFFFFF AND PUSH20 0xFFFFFFFFFFFFFFFFFFFFFFFFFFFFFFFFFFFFFFFF AND DUP2 PUSH20 0xFFFFFFFFFFFFFFFFFFFFFFFFFFFFFFFFFFFFFFFF AND EQ JUMPDEST PUSH2 0x1C3A JUMPI PUSH1 0x40 MLOAD PUSH32 0x8C379A000000000000000000000000000000000000000000000000000000000 DUP2 MSTORE PUSH1 0x4 ADD PUSH2 0x1C31 SWAP1 PUSH2 0x3F23 JUMP JUMPDEST PUSH1 0x40 MLOAD DUP1 SWAP2 SUB SWAP1 REVERT JUMPDEST PUSH0 DUP4 GT PUSH2 0x1C7C JUMPI PUSH1 0x40 MLOAD PUSH32 0x8C379A000000000000000000000000000000000000000000000000000000000 DUP2 MSTORE PUSH1 0x4 ADD PUSH2 0x1C73 SWAP1 PUSH2 0x3F8B JUMP JUMPDEST PUSH1 0x40 MLOAD DUP1 SWAP2 SUB SWAP1 REVERT JUMPDEST PUSH1 0xD PUSH0 SWAP1 SLOAD SWAP1 PUSH2 0x100 EXP SWAP1 DIV PUSH20 0xFFFFFFFFFFFFFFFFFFFFFFFFFFFFFFFFFFFFFFFF AND PUSH20 0xFFFFFFFFFFFFFFFFFFFFFFFFFFFFFFFFFFFFFFFF AND PUSH4 0xE985E9C5 CALLER ADDRESS PUSH1 0x40 MLOAD DUP4 PUSH4 0xFFFFFFFF AND PUSH1 0xE0 SHL DUP2 MSTORE PUSH1 0x4 ADD PUSH2 0x1CD8 SWAP3 SWAP2 SWAP1 PUSH2 0x3745 JUMP JUMPDEST PUSH1 0x20 PUSH1 0x40 MLOAD DUP1 DUP4 SUB DUP2 DUP7 GAS STATICCALL ISZERO DUP1 ISZERO PUSH2 0x1CF3 JUMPI RETURNDATASIZE PUSH0 DUP1 RETURNDATACOPY RETURNDATASIZE PUSH0 REVERT JUMPDEST POP POP POP POP PUSH1 0x40 MLOAD RETURNDATASIZE PUSH1 0x1F NOT PUSH1 0x1F DUP3 ADD AND DUP3 ADD DUP1 PUSH1 0x40 MSTORE POP DUP2 ADD SWAP1 PUSH2 0x1D17 SWAP2 SWAP1 PUSH2 0x3FD3 JUMP JUMPDEST DUP1 PUSH2 0x1DE5 JUMPI POP ADDRESS PUSH20 0xFFFFFFFFFFFFFFFFFFFFFFFFFFFFFFFFFFFFFFFF AND PUSH1 0xD PUSH0 SWAP1 SLOAD SWAP1 PUSH2 0x100 EXP SWAP1 DIV PUSH20 0xFFFFFFFFFFFFFFFFFFFFFFFFFFFFFFFFFFFFFFFF AND PUSH20 0xFFFFFFFFFFFFFFFFFFFFFFFFFFFFFFFFFFFFFFFF AND PUSH4 0x81812FC DUP8 PUSH1 0x40 MLOAD DUP3 PUSH4 0xFFFFFFFF AND PUSH1 0xE0 SHL DUP2 MSTORE PUSH1 0x4 ADD PUSH2 0x1D8E SWAP2 SWAP1 PUSH2 0x3389 JUMP JUMPDEST PUSH1 0x20 PUSH1 0x40 MLOAD DUP1 DUP4 SUB DUP2 DUP7 GAS STATICCALL ISZERO DUP1 ISZERO PUSH2 0x1DA9 JUMPI RETURNDATASIZE PUSH0 DUP1 RETURNDATACOPY RETURNDATASIZE PUSH0 REVERT JUMPDEST POP POP POP POP PUSH1 0x40 MLOAD RETURNDATASIZE PUSH1 0x1F NOT PUSH1 0x1F DUP3 ADD AND DUP3 ADD DUP1 PUSH1 0x40 MSTORE POP DUP2 ADD SWAP1 PUSH2 0x1DCD SWAP2 SWAP1 PUSH2 0x3E46 JUMP JUMPDEST PUSH20 0xFFFFFFFFFFFFFFFFFFFFFFFFFFFFFFFFFFFFFFFF AND EQ JUMPDEST PUSH2 0x1E24 JUMPI PUSH1 0x40 MLOAD PUSH32 0x8C379A000000000000000000000000000000000000000000000000000000000 DUP2 MSTORE PUSH1 0x4 ADD PUSH2 0x1E1B SWAP1 PUSH2 0x4048 JUMP JUMPDEST PUSH1 0x40 MLOAD DUP1 SWAP2 SUB SWAP1 REVERT JUMPDEST PUSH1 0xD PUSH0 SWAP1 SLOAD SWAP1 PUSH2 0x100 EXP SWAP1 DIV PUSH20 0xFFFFFFFFFFFFFFFFFFFFFFFFFFFFFFFFFFFFFFFF AND PUSH20 0xFFFFFFFFFFFFFFFFFFFFFFFFFFFFFFFFFFFFFFFF AND PUSH4 0x23B872DD CALLER ADDRESS DUP9 PUSH1 0x40 MLOAD DUP5 PUSH4 0xFFFFFFFF AND PUSH1 0xE0 SHL DUP2 MSTORE PUSH1 0x4 ADD PUSH2 0x1E82 SWAP4 SWAP3 SWAP2 SWAP1 PUSH2 0x3A7E JUMP JUMPDEST PUSH0 PUSH1 0x40 MLOAD DUP1 DUP4 SUB DUP2 PUSH0 DUP8 DUP1 EXTCODESIZE ISZERO DUP1 ISZERO PUSH2 0x1E99 JUMPI PUSH0 DUP1 REVERT JUMPDEST POP GAS CALL ISZERO DUP1 ISZERO PUSH2 0x1EAB JUMPI RETURNDATASIZE PUSH0 DUP1 RETURNDATACOPY RETURNDATASIZE PUSH0 REVERT JUMPDEST POP POP POP POP PUSH1 0x40 MLOAD DUP1 PUSH1 0xA0 ADD PUSH1 0x40 MSTORE DUP1 CALLER PUSH20 0xFFFFFFFFFFFFFFFFFFFFFFFFFFFFFFFFFFFFFFFF AND DUP2 MSTORE PUSH1 0x20 ADD DUP7 DUP2 MSTORE PUSH1 0x20 ADD DUP6 PUSH20 0xFFFFFFFFFFFFFFFFFFFFFFFFFFFFFFFFFFFFFFFF AND DUP2 MSTORE PUSH1 0x20 ADD DUP5 DUP2 MSTORE PUSH1 0x20 ADD PUSH1 0x1 ISZERO ISZERO DUP2 MSTORE POP PUSH1 0x6 PUSH0 DUP8 DUP2 MSTORE PUSH1 0x20 ADD SWAP1 DUP2 MSTORE PUSH1 0x20 ADD PUSH0 KECCAK256 PUSH0 DUP3 ADD MLOAD DUP2 PUSH0 ADD PUSH0 PUSH2 0x100 EXP DUP2 SLOAD DUP2 PUSH20 0xFFFFFFFFFFFFFFFFFFFFFFFFFFFFFFFFFFFFFFFF MUL NOT AND SWAP1 DUP4 PUSH20 0xFFFFFFFFFFFFFFFFFFFFFFFFFFFFFFFFFFFFFFFF AND MUL OR SWAP1 SSTORE POP PUSH1 0x20 DUP3 ADD MLOAD DUP2 PUSH1 0x1 ADD SSTORE PUSH1 0x40 DUP3 ADD MLOAD DUP2 PUSH1 0x2 ADD PUSH0 PUSH2 0x100 EXP DUP2 SLOAD DUP2 PUSH20 0xFFFFFFFFFFFFFFFFFFFFFFFFFFFFFFFFFFFFFFFF MUL NOT AND SWAP1 DUP4 PUSH20 0xFFFFFFFFFFFFFFFFFFFFFFFFFFFFFFFFFFFFFFFF AND MUL OR SWAP1 SSTORE POP PUSH1 0x60 DUP3 ADD MLOAD DUP2 PUSH1 0x3 ADD SSTORE PUSH1 0x80 DUP3 ADD MLOAD DUP2 PUSH1 0x4 ADD PUSH0 PUSH2 0x100 EXP DUP2 SLOAD DUP2 PUSH1 0xFF MUL NOT AND SWAP1 DUP4 ISZERO ISZERO MUL OR SWAP1 SSTORE POP SWAP1 POP POP DUP5 CALLER PUSH20 0xFFFFFFFFFFFFFFFFFFFFFFFFFFFFFFFFFFFFFFFF AND PUSH32 0xD061156AF97CD0D4F446110C8E476140C682158F5621E4BD532B4C5B2E84D125 DUP7 DUP7 PUSH1 0x40 MLOAD PUSH2 0x201F SWAP3 SWAP2 SWAP1 PUSH2 0x36A6 JUMP JUMPDEST PUSH1 0x40 MLOAD DUP1 SWAP2 SUB SWAP1 LOG3 POP POP POP POP POP JUMP JUMPDEST PUSH1 0x2 SLOAD DUP2 JUMP JUMPDEST PUSH2 0x203C PUSH2 0x2CCE JUMP JUMPDEST PUSH2 0x2045 PUSH0 PUSH2 0x2EC4 JUMP JUMPDEST JUMP JUMPDEST PUSH1 0xA PUSH0 SWAP1 SLOAD SWAP1 PUSH2 0x100 EXP SWAP1 DIV PUSH20 0xFFFFFFFFFFFFFFFFFFFFFFFFFFFFFFFFFFFFFFFF AND DUP2 JUMP JUMPDEST PUSH2 0x2074 PUSH2 0x2CCE JUMP JUMPDEST PUSH2 0x207C PUSH2 0x2F87 JUMP JUMPDEST PUSH32 0x9E87FAC88FF661F02D44F95383C817FECE4BCE600A3DAB7A54406878B965E752 PUSH1 0x40 MLOAD PUSH1 0x40 MLOAD DUP1 SWAP2 SUB SWAP1 LOG1 JUMP JUMPDEST PUSH2 0x20B2 PUSH2 0x2CCE JUMP JUMPDEST PUSH2 0x20BA PUSH2 0x2D55 JUMP JUMPDEST PUSH0 PUSH1 0x5 PUSH0 DUP4 PUSH20 0xFFFFFFFFFFFFFFFFFFFFFFFFFFFFFFFFFFFFFFFF AND PUSH20 0xFFFFFFFFFFFFFFFFFFFFFFFFFFFFFFFFFFFFFFFF AND DUP2 MSTORE PUSH1 0x20 ADD SWAP1 DUP2 MSTORE PUSH1 0x20 ADD PUSH0 KECCAK256 SLOAD SWAP1 POP PUSH0 DUP2 GT PUSH2 0x213D JUMPI PUSH1 0x40 MLOAD PUSH32 0x8C379A000000000000000000000000000000000000000000000000000000000 DUP2 MSTORE PUSH1 0x4 ADD PUSH2 0x2134 SWAP1 PUSH2 0x40B0 JUMP JUMPDEST PUSH1 0x40 MLOAD DUP1 SWAP2 SUB SWAP1 REVERT JUMPDEST PUSH0 PUSH1 0x5 PUSH0 DUP5 PUSH20 0xFFFFFFFFFFFFFFFFFFFFFFFFFFFFFFFFFFFFFFFF AND PUSH20 0xFFFFFFFFFFFFFFFFFFFFFFFFFFFFFFFFFFFFFFFF AND DUP2 MSTORE PUSH1 0x20 ADD SWAP1 DUP2 MSTORE PUSH1 0x20 ADD PUSH0 KECCAK256 DUP2 SWAP1 SSTORE POP PUSH2 0x21B1 PUSH2 0x218A PUSH2 0x2229 JUMP JUMPDEST DUP3 DUP5 PUSH20 0xFFFFFFFFFFFFFFFFFFFFFFFFFFFFFFFFFFFFFFFF AND PUSH2 0x2DDA SWAP1 SWAP3 SWAP2 SWAP1 PUSH4 0xFFFFFFFF AND JUMP JUMPDEST DUP2 PUSH20 0xFFFFFFFFFFFFFFFFFFFFFFFFFFFFFFFFFFFFFFFF AND PUSH2 0x21D0 PUSH2 0x2229 JUMP JUMPDEST PUSH20 0xFFFFFFFFFFFFFFFFFFFFFFFFFFFFFFFFFFFFFFFF AND PUSH32 0xEA48AEE669694AC6F98626C299ECC46CCEDFC3FCD05314C975BDEE3DE9B544B6 DUP4 PUSH1 0x40 MLOAD PUSH2 0x2215 SWAP2 SWAP1 PUSH2 0x3389 JUMP JUMPDEST PUSH1 0x40 MLOAD DUP1 SWAP2 SUB SWAP1 LOG3 POP PUSH2 0x2226 PUSH2 0x2E59 JUMP JUMPDEST POP JUMP JUMPDEST PUSH0 PUSH1 0x1 PUSH0 SWAP1 SLOAD SWAP1 PUSH2 0x100 EXP SWAP1 DIV PUSH20 0xFFFFFFFFFFFFFFFFFFFFFFFFFFFFFFFFFFFFFFFF AND SWAP1 POP SWAP1 JUMP JUMPDEST PUSH2 0x2259 PUSH2 0x2CCE JUMP JUMPDEST PUSH0 PUSH20 0xFFFFFFFFFFFFFFFFFFFFFFFFFFFFFFFFFFFFFFFF AND DUP2 PUSH20 0xFFFFFFFFFFFFFFFFFFFFFFFFFFFFFFFFFFFFFFFF AND SUB PUSH2 0x22C7 JUMPI PUSH1 0x40 MLOAD PUSH32 0x8C379A000000000000000000000000000000000000000000000000000000000 DUP2 MSTORE PUSH1 0x4 ADD PUSH2 0x22BE SWAP1 PUSH2 0x3727 JUMP JUMPDEST PUSH1 0x40 MLOAD DUP1 SWAP2 SUB SWAP1 REVERT JUMPDEST PUSH32 0x51D2761F030964E882529B208C5390589DDAC658D9A1A6D3B8A1CBAED35E7D33 PUSH1 0xD PUSH0 SWAP1 SLOAD SWAP1 PUSH2 0x100 EXP SWAP1 DIV PUSH20 0xFFFFFFFFFFFFFFFFFFFFFFFFFFFFFFFFFFFFFFFF AND DUP3 PUSH1 0x40 MLOAD PUSH2 0x2319 SWAP3 SWAP2 SWAP1 PUSH2 0x3745 JUMP JUMPDEST PUSH1 0x40 MLOAD DUP1 SWAP2 SUB SWAP1 LOG1 DUP1 PUSH1 0xD PUSH0 PUSH2 0x100 EXP DUP2 SLOAD DUP2 PUSH20 0xFFFFFFFFFFFFFFFFFFFFFFFFFFFFFFFFFFFFFFFF MUL NOT AND SWAP1 DUP4 PUSH20 0xFFFFFFFFFFFFFFFFFFFFFFFFFFFFFFFFFFFFFFFF AND MUL OR SWAP1 SSTORE POP POP JUMP JUMPDEST PUSH1 0xB PUSH0 SWAP1 SLOAD SWAP1 PUSH2 0x100 EXP SWAP1 DIV PUSH20 0xFFFFFFFFFFFFFFFFFFFFFFFFFFFFFFFFFFFFFFFF AND DUP2 JUMP JUMPDEST PUSH1 0x5 PUSH1 0x20 MSTORE DUP1 PUSH0 MSTORE PUSH1 0x40 PUSH0 KECCAK256 PUSH0 SWAP2 POP SWAP1 POP SLOAD DUP2 JUMP JUMPDEST PUSH2 0x23A6 PUSH2 0x2D99 JUMP JUMPDEST PUSH2 0x23AE PUSH2 0x2D55 JUMP JUMPDEST DUP3 PUSH1 0x6 PUSH0 DUP3 DUP2 MSTORE PUSH1 0x20 ADD SWAP1 DUP2 MSTORE PUSH1 0x20 ADD PUSH0 KECCAK256 PUSH1 0x4 ADD PUSH0 SWAP1 SLOAD SWAP1 PUSH2 0x100 EXP SWAP1 DIV PUSH1 0xFF AND PUSH2 0x240F JUMPI PUSH1 0x40 MLOAD PUSH32 0x8C379A000000000000000000000000000000000000000000000000000000000 DUP2 MSTORE PUSH1 0x4 ADD PUSH2 0x2406 SWAP1 PUSH2 0x37B6 JUMP JUMPDEST PUSH1 0x40 MLOAD DUP1 SWAP2 SUB SWAP1 REVERT JUMPDEST DUP2 PUSH0 PUSH20 0xFFFFFFFFFFFFFFFFFFFFFFFFFFFFFFFFFFFFFFFF AND DUP2 PUSH20 0xFFFFFFFFFFFFFFFFFFFFFFFFFFFFFFFFFFFFFFFF AND EQ DUP1 PUSH2 0x2496 JUMPI POP PUSH1 0xA PUSH0 SWAP1 SLOAD SWAP1 PUSH2 0x100 EXP SWAP1 DIV PUSH20 0xFFFFFFFFFFFFFFFFFFFFFFFFFFFFFFFFFFFFFFFF AND PUSH20 0xFFFFFFFFFFFFFFFFFFFFFFFFFFFFFFFFFFFFFFFF AND DUP2 PUSH20 0xFFFFFFFFFFFFFFFFFFFFFFFFFFFFFFFFFFFFFFFF AND EQ JUMPDEST DUP1 PUSH2 0x24ED JUMPI POP PUSH1 0xB PUSH0 SWAP1 SLOAD SWAP1 PUSH2 0x100 EXP SWAP1 DIV PUSH20 0xFFFFFFFFFFFFFFFFFFFFFFFFFFFFFFFFFFFFFFFF AND PUSH20 0xFFFFFFFFFFFFFFFFFFFFFFFFFFFFFFFFFFFFFFFF AND DUP2 PUSH20 0xFFFFFFFFFFFFFFFFFFFFFFFFFFFFFFFFFFFFFFFF AND EQ JUMPDEST DUP1 PUSH2 0x2544 JUMPI POP PUSH1 0xC PUSH0 SWAP1 SLOAD SWAP1 PUSH2 0x100 EXP SWAP1 DIV PUSH20 0xFFFFFFFFFFFFFFFFFFFFFFFFFFFFFFFFFFFFFFFF AND PUSH20 0xFFFFFFFFFFFFFFFFFFFFFFFFFFFFFFFFFFFFFFFF AND DUP2 PUSH20 0xFFFFFFFFFFFFFFFFFFFFFFFFFFFFFFFFFFFFFFFF AND EQ JUMPDEST PUSH2 0x2583 JUMPI PUSH1 0x40 MLOAD PUSH32 0x8C379A000000000000000000000000000000000000000000000000000000000 DUP2 MSTORE PUSH1 0x4 ADD PUSH2 0x257A SWAP1 PUSH2 0x3F23 JUMP JUMPDEST PUSH1 0x40 MLOAD DUP1 SWAP2 SUB SWAP1 REVERT JUMPDEST PUSH0 PUSH1 0x6 PUSH0 DUP8 DUP2 MSTORE PUSH1 0x20 ADD SWAP1 DUP2 MSTORE PUSH1 0x20 ADD PUSH0 KECCAK256 PUSH1 0x40 MLOAD DUP1 PUSH1 0xA0 ADD PUSH1 0x40 MSTORE SWAP1 DUP2 PUSH0 DUP3 ADD PUSH0 SWAP1 SLOAD SWAP1 PUSH2 0x100 EXP SWAP1 DIV PUSH20 0xFFFFFFFFFFFFFFFFFFFFFFFFFFFFFFFFFFFFFFFF AND PUSH20 0xFFFFFFFFFFFFFFFFFFFFFFFFFFFFFFFFFFFFFFFF AND PUSH20 0xFFFFFFFFFFFFFFFFFFFFFFFFFFFFFFFFFFFFFFFF AND DUP2 MSTORE PUSH1 0x20 ADD PUSH1 0x1 DUP3 ADD SLOAD DUP2 MSTORE PUSH1 0x20 ADD PUSH1 0x2 DUP3 ADD PUSH0 SWAP1 SLOAD SWAP1 PUSH2 0x100 EXP SWAP1 DIV PUSH20 0xFFFFFFFFFFFFFFFFFFFFFFFFFFFFFFFFFFFFFFFF AND PUSH20 0xFFFFFFFFFFFFFFFFFFFFFFFFFFFFFFFFFFFFFFFF AND PUSH20 0xFFFFFFFFFFFFFFFFFFFFFFFFFFFFFFFFFFFFFFFF AND DUP2 MSTORE PUSH1 0x20 ADD PUSH1 0x3 DUP3 ADD SLOAD DUP2 MSTORE PUSH1 0x20 ADD PUSH1 0x4 DUP3 ADD PUSH0 SWAP1 SLOAD SWAP1 PUSH2 0x100 EXP SWAP1 DIV PUSH1 0xFF AND ISZERO ISZERO ISZERO ISZERO DUP2 MSTORE POP POP SWAP1 POP DUP1 PUSH1 0x60 ADD MLOAD DUP6 LT ISZERO PUSH2 0x26C0 JUMPI PUSH1 0x40 MLOAD PUSH32 0x8C379A000000000000000000000000000000000000000000000000000000000 DUP2 MSTORE PUSH1 0x4 ADD PUSH2 0x26B7 SWAP1 PUSH2 0x4118 JUMP JUMPDEST PUSH1 0x40 MLOAD DUP1 SWAP2 SUB SWAP1 REVERT JUMPDEST PUSH0 PUSH20 0xFFFFFFFFFFFFFFFFFFFFFFFFFFFFFFFFFFFFFFFF AND DUP5 PUSH20 0xFFFFFFFFFFFFFFFFFFFFFFFFFFFFFFFFFFFFFFFF AND EQ DUP1 ISZERO PUSH2 0x26FA JUMPI POP DUP5 CALLVALUE EQ JUMPDEST DUP1 PUSH2 0x273C JUMPI POP PUSH0 PUSH20 0xFFFFFFFFFFFFFFFFFFFFFFFFFFFFFFFFFFFFFFFF AND DUP5 PUSH20 0xFFFFFFFFFFFFFFFFFFFFFFFFFFFFFFFFFFFFFFFF AND EQ ISZERO DUP1 ISZERO PUSH2 0x273B JUMPI POP PUSH0 CALLVALUE EQ JUMPDEST JUMPDEST PUSH2 0x277B JUMPI PUSH1 0x40 MLOAD PUSH32 0x8C379A000000000000000000000000000000000000000000000000000000000 DUP2 MSTORE PUSH1 0x4 ADD PUSH2 0x2772 SWAP1 PUSH2 0x4180 JUMP JUMPDEST PUSH1 0x40 MLOAD DUP1 SWAP2 SUB SWAP1 REVERT JUMPDEST PUSH0 PUSH20 0xFFFFFFFFFFFFFFFFFFFFFFFFFFFFFFFFFFFFFFFF AND DUP5 PUSH20 0xFFFFFFFFFFFFFFFFFFFFFFFFFFFFFFFFFFFFFFFF AND EQ PUSH2 0x27DC JUMPI PUSH2 0x27DB CALLER ADDRESS DUP8 DUP8 PUSH20 0xFFFFFFFFFFFFFFFFFFFFFFFFFFFFFFFFFFFFFFFF AND PUSH2 0x2FE9 SWAP1 SWAP4 SWAP3 SWAP2 SWAP1 PUSH4 0xFFFFFFFF AND JUMP JUMPDEST JUMPDEST PUSH0 PUSH1 0x7 PUSH0 DUP9 DUP2 MSTORE PUSH1 0x20 ADD SWAP1 DUP2 MSTORE PUSH1 0x20 ADD PUSH0 KECCAK256 PUSH1 0x40 MLOAD DUP1 PUSH1 0x40 ADD PUSH1 0x40 MSTORE SWAP1 DUP2 PUSH0 DUP3 ADD PUSH0 SWAP1 SLOAD SWAP1 PUSH2 0x100 EXP SWAP1 DIV PUSH20 0xFFFFFFFFFFFFFFFFFFFFFFFFFFFFFFFFFFFFFFFF AND PUSH20 0xFFFFFFFFFFFFFFFFFFFFFFFFFFFFFFFFFFFFFFFF AND PUSH20 0xFFFFFFFFFFFFFFFFFFFFFFFFFFFFFFFFFFFFFFFF AND DUP2 MSTORE PUSH1 0x20 ADD PUSH1 0x1 DUP3 ADD SLOAD DUP2 MSTORE POP POP SWAP1 POP DUP1 PUSH1 0x20 ADD MLOAD DUP7 GT PUSH2 0x289F JUMPI PUSH1 0x40 MLOAD PUSH32 0x8C379A000000000000000000000000000000000000000000000000000000000 DUP2 MSTORE PUSH1 0x4 ADD PUSH2 0x2896 SWAP1 PUSH2 0x420E JUMP JUMPDEST PUSH1 0x40 MLOAD DUP1 SWAP2 SUB SWAP1 REVERT JUMPDEST PUSH0 DUP2 PUSH1 0x20 ADD MLOAD GT ISZERO PUSH2 0x28C2 JUMPI PUSH2 0x28C1 DUP3 PUSH1 0x40 ADD MLOAD DUP3 PUSH0 ADD MLOAD DUP4 PUSH1 0x20 ADD MLOAD PUSH2 0x306B JUMP JUMPDEST JUMPDEST PUSH1 0x40 MLOAD DUP1 PUSH1 0x40 ADD PUSH1 0x40 MSTORE DUP1 CALLER PUSH20 0xFFFFFFFFFFFFFFFFFFFFFFFFFFFFFFFFFFFFFFFF AND DUP2 MSTORE PUSH1 0x20 ADD DUP8 DUP2 MSTORE POP PUSH1 0x7 PUSH0 DUP10 DUP2 MSTORE PUSH1 0x20 ADD SWAP1 DUP2 MSTORE PUSH1 0x20 ADD PUSH0 KECCAK256 PUSH0 DUP3 ADD MLOAD DUP2 PUSH0 ADD PUSH0 PUSH2 0x100 EXP DUP2 SLOAD DUP2 PUSH20 0xFFFFFFFFFFFFFFFFFFFFFFFFFFFFFFFFFFFFFFFF MUL NOT AND SWAP1 DUP4 PUSH20 0xFFFFFFFFFFFFFFFFFFFFFFFFFFFFFFFFFFFFFFFF AND MUL OR SWAP1 SSTORE POP PUSH1 0x20 DUP3 ADD MLOAD DUP2 PUSH1 0x1 ADD SSTORE SWAP1 POP POP CALLER PUSH20 0xFFFFFFFFFFFFFFFFFFFFFFFFFFFFFFFFFFFFFFFF AND DUP8 PUSH32 0xE54EFF26401BF69B81B26F60BD85EF47F5D85275C1D268D84F68D6897431C47 DUP9 PUSH1 0x40 MLOAD PUSH2 0x2996 SWAP2 SWAP1 PUSH2 0x3389 JUMP JUMPDEST PUSH1 0x40 MLOAD DUP1 SWAP2 SUB SWAP1 LOG3 POP POP POP POP PUSH2 0x29AA PUSH2 0x2E59 JUMP JUMPDEST POP POP POP JUMP JUMPDEST PUSH1 0x3 SLOAD DUP2 JUMP JUMPDEST PUSH1 0x4 SLOAD DUP2 JUMP JUMPDEST PUSH1 0xC PUSH0 SWAP1 SLOAD SWAP1 PUSH2 0x100 EXP SWAP1 DIV PUSH20 0xFFFFFFFFFFFFFFFFFFFFFFFFFFFFFFFFFFFFFFFF AND DUP2 JUMP JUMPDEST PUSH1 0xD PUSH0 SWAP1 SLOAD SWAP1 PUSH2 0x100 EXP SWAP1 DIV PUSH20 0xFFFFFFFFFFFFFFFFFFFFFFFFFFFFFFFFFFFFFFFF AND DUP2 JUMP JUMPDEST PUSH2 0x2710 DUP2 JUMP JUMPDEST PUSH1 0x6 PUSH1 0x20 MSTORE DUP1 PUSH0 MSTORE PUSH1 0x40 PUSH0 KECCAK256 PUSH0 SWAP2 POP SWAP1 POP DUP1 PUSH0 ADD PUSH0 SWAP1 SLOAD SWAP1 PUSH2 0x100 EXP SWAP1 DIV PUSH20 0xFFFFFFFFFFFFFFFFFFFFFFFFFFFFFFFFFFFFFFFF AND SWAP1 DUP1 PUSH1 0x1 ADD SLOAD SWAP1 DUP1 PUSH1 0x2 ADD PUSH0 SWAP1 SLOAD SWAP1 PUSH2 0x100 EXP SWAP1 DIV PUSH20 0xFFFFFFFFFFFFFFFFFFFFFFFFFFFFFFFFFFFFFFFF AND SWAP1 DUP1 PUSH1 0x3 ADD SLOAD SWAP1 DUP1 PUSH1 0x4 ADD PUSH0 SWAP1 SLOAD SWAP1 PUSH2 0x100 EXP SWAP1 DIV PUSH1 0xFF AND SWAP1 POP DUP6 JUMP JUMPDEST PUSH1 0x8 PUSH1 0x20 MSTORE DUP1 PUSH0 MSTORE PUSH1 0x40 PUSH0 KECCAK256 PUSH0 SWAP2 POP SWAP1 POP SLOAD DUP2 JUMP JUMPDEST PUSH2 0x2AA4 PUSH2 0x2CCE JUMP JUMPDEST PUSH0 PUSH20 0xFFFFFFFFFFFFFFFFFFFFFFFFFFFFFFFFFFFFFFFF AND DUP2 PUSH20 0xFFFFFFFFFFFFFFFFFFFFFFFFFFFFFFFFFFFFFFFF AND SUB PUSH2 0x2B14 JUMPI PUSH0 PUSH1 0x40 MLOAD PUSH32 0x1E4FBDF700000000000000000000000000000000000000000000000000000000 DUP2 MSTORE PUSH1 0x4 ADD PUSH2 0x2B0B SWAP2 SWAP1 PUSH2 0x35EC JUMP JUMPDEST PUSH1 0x40 MLOAD DUP1 SWAP2 SUB SWAP1 REVERT JUMPDEST PUSH2 0x2B1D DUP2 PUSH2 0x2EC4 JUMP JUMPDEST POP JUMP JUMPDEST PUSH2 0x2B28 PUSH2 0x2CCE JUMP JUMPDEST PUSH2 0x2B30 PUSH2 0x2D55 JUMP JUMPDEST PUSH0 PUSH1 0x4 SLOAD SWAP1 POP PUSH0 DUP2 GT PUSH2 0x2B78 JUMPI PUSH1 0x40 MLOAD PUSH32 0x8C379A000000000000000000000000000000000000000000000000000000000 DUP2 MSTORE PUSH1 0x4 ADD PUSH2 0x2B6F SWAP1 PUSH2 0x4276 JUMP JUMPDEST PUSH1 0x40 MLOAD DUP1 SWAP2 SUB SWAP1 REVERT JUMPDEST PUSH0 PUSH1 0x4 DUP2 SWAP1 SSTORE POP PUSH0 PUSH2 0x2B88 PUSH2 0x2229 JUMP JUMPDEST PUSH20 0xFFFFFFFFFFFFFFFFFFFFFFFFFFFFFFFFFFFFFFFF AND DUP3 PUSH1 0x40 MLOAD PUSH2 0x2BAB SWAP1 PUSH2 0x3A02 JUMP JUMPDEST PUSH0 PUSH1 0x40 MLOAD DUP1 DUP4 SUB DUP2 DUP6 DUP8 GAS CALL SWAP3 POP POP POP RETURNDATASIZE DUP1 PUSH0 DUP2 EQ PUSH2 0x2BE5 JUMPI PUSH1 0x40 MLOAD SWAP2 POP PUSH1 0x1F NOT PUSH1 0x3F RETURNDATASIZE ADD AND DUP3 ADD PUSH1 0x40 MSTORE RETURNDATASIZE DUP3 MSTORE RETURNDATASIZE PUSH0 PUSH1 0x20 DUP5 ADD RETURNDATACOPY PUSH2 0x2BEA JUMP JUMPDEST PUSH1 0x60 SWAP2 POP JUMPDEST POP POP SWAP1 POP DUP1 PUSH2 0x2C2E JUMPI PUSH1 0x40 MLOAD PUSH32 0x8C379A000000000000000000000000000000000000000000000000000000000 DUP2 MSTORE PUSH1 0x4 ADD PUSH2 0x2C25 SWAP1 PUSH2 0x3A60 JUMP JUMPDEST PUSH1 0x40 MLOAD DUP1 SWAP2 SUB SWAP1 REVERT JUMPDEST PUSH2 0x2C36 PUSH2 0x2229 JUMP JUMPDEST PUSH20 0xFFFFFFFFFFFFFFFFFFFFFFFFFFFFFFFFFFFFFFFF AND PUSH32 0xD6DDD782ABF6E1531F3AA9F2801AE73391EFD91E3846A441334A4E911F74BF43 DUP4 PUSH1 0x40 MLOAD PUSH2 0x2C7B SWAP2 SWAP1 PUSH2 0x3389 JUMP JUMPDEST PUSH1 0x40 MLOAD DUP1 SWAP2 SUB SWAP1 LOG2 POP POP PUSH2 0x2C8D PUSH2 0x2E59 JUMP JUMPDEST JUMP JUMPDEST PUSH1 0x7 PUSH1 0x20 MSTORE DUP1 PUSH0 MSTORE PUSH1 0x40 PUSH0 KECCAK256 PUSH0 SWAP2 POP SWAP1 POP DUP1 PUSH0 ADD PUSH0 SWAP1 SLOAD SWAP1 PUSH2 0x100 EXP SWAP1 DIV PUSH20 0xFFFFFFFFFFFFFFFFFFFFFFFFFFFFFFFFFFFFFFFF AND SWAP1 DUP1 PUSH1 0x1 ADD SLOAD SWAP1 POP DUP3 JUMP JUMPDEST PUSH2 0x2CD6 PUSH2 0x31EF JUMP JUMPDEST PUSH20 0xFFFFFFFFFFFFFFFFFFFFFFFFFFFFFFFFFFFFFFFF AND PUSH2 0x2CF4 PUSH2 0x2229 JUMP JUMPDEST PUSH20 0xFFFFFFFFFFFFFFFFFFFFFFFFFFFFFFFFFFFFFFFF AND EQ PUSH2 0x2D53 JUMPI PUSH2 0x2D17 PUSH2 0x31EF JUMP JUMPDEST PUSH1 0x40 MLOAD PUSH32 0x118CDAA700000000000000000000000000000000000000000000000000000000 DUP2 MSTORE PUSH1 0x4 ADD PUSH2 0x2D4A SWAP2 SWAP1 PUSH2 0x35EC JUMP JUMPDEST PUSH1 0x40 MLOAD DUP1 SWAP2 SUB SWAP1 REVERT JUMPDEST JUMP JUMPDEST PUSH1 0x2 PUSH0 SLOAD SUB PUSH2 0x2D90 JUMPI PUSH1 0x40 MLOAD PUSH32 0x3EE5AEB500000000000000000000000000000000000000000000000000000000 DUP2 MSTORE PUSH1 0x4 ADD PUSH1 0x40 MLOAD DUP1 SWAP2 SUB SWAP1 REVERT JUMPDEST PUSH1 0x2 PUSH0 DUP2 SWAP1 SSTORE POP JUMP JUMPDEST PUSH2 0x2DA1 PUSH2 0x19A1 JUMP JUMPDEST ISZERO PUSH2 0x2DD8 JUMPI PUSH1 0x40 MLOAD PUSH32 0xD93C066500000000000000000000000000000000000000000000000000000000 DUP2 MSTORE PUSH1 0x4 ADD PUSH1 0x40 MLOAD DUP1 SWAP2 SUB SWAP1 REVERT JUMPDEST JUMP JUMPDEST PUSH2 0x2E54 DUP4 DUP5 PUSH20 0xFFFFFFFFFFFFFFFFFFFFFFFFFFFFFFFFFFFFFFFF AND PUSH4 0xA9059CBB DUP6 DUP6 PUSH1 0x40 MLOAD PUSH1 0x24 ADD PUSH2 0x2E0D SWAP3 SWAP2 SWAP1 PUSH2 0x36A6 JUMP JUMPDEST PUSH1 0x40 MLOAD PUSH1 0x20 DUP2 DUP4 SUB SUB DUP2 MSTORE SWAP1 PUSH1 0x40 MSTORE SWAP2 POP PUSH1 0xE0 SHL PUSH1 0x20 DUP3 ADD DUP1 MLOAD PUSH28 0xFFFFFFFFFFFFFFFFFFFFFFFFFFFFFFFFFFFFFFFFFFFFFFFFFFFFFFFF DUP4 DUP2 DUP4 AND OR DUP4 MSTORE POP POP POP POP PUSH2 0x31F6 JUMP JUMPDEST POP POP POP JUMP JUMPDEST PUSH1 0x1 PUSH0 DUP2 SWAP1 SSTORE POP JUMP JUMPDEST PUSH2 0x2E6A PUSH2 0x3291 JUMP JUMPDEST PUSH0 PUSH1 0x1 PUSH1 0x14 PUSH2 0x100 EXP DUP2 SLOAD DUP2 PUSH1 0xFF MUL NOT AND SWAP1 DUP4 ISZERO ISZERO MUL OR SWAP1 SSTORE POP PUSH32 0x5DB9EE0A495BF2E6FF9C91A7834C1BA4FDD244A5E8AA4E537BD38AEAE4B073AA PUSH2 0x2EAD PUSH2 0x31EF JUMP JUMPDEST PUSH1 0x40 MLOAD PUSH2 0x2EBA SWAP2 SWAP1 PUSH2 0x35EC JUMP JUMPDEST PUSH1 0x40 MLOAD DUP1 SWAP2 SUB SWAP1 LOG1 JUMP JUMPDEST PUSH0 PUSH1 0x1 PUSH0 SWAP1 SLOAD SWAP1 PUSH2 0x100 EXP SWAP1 DIV PUSH20 0xFFFFFFFFFFFFFFFFFFFFFFFFFFFFFFFFFFFFFFFF AND SWAP1 POP DUP2 PUSH1 0x1 PUSH0 PUSH2 0x100 EXP DUP2 SLOAD DUP2 PUSH20 0xFFFFFFFFFFFFFFFFFFFFFFFFFFFFFFFFFFFFFFFF MUL NOT AND SWAP1 DUP4 PUSH20 0xFFFFFFFFFFFFFFFFFFFFFFFFFFFFFFFFFFFFFFFF AND MUL OR SWAP1 SSTORE POP DUP2 PUSH20 0xFFFFFFFFFFFFFFFFFFFFFFFFFFFFFFFFFFFFFFFF AND DUP2 PUSH20 0xFFFFFFFFFFFFFFFFFFFFFFFFFFFFFFFFFFFFFFFF AND PUSH32 0x8BE0079C531659141344CD1FD0A4F28419497F9722A3DAAFE3B4186F6B6457E0 PUSH1 0x40 MLOAD PUSH1 0x40 MLOAD DUP1 SWAP2 SUB SWAP1 LOG3 POP POP JUMP JUMPDEST PUSH2 0x2F8F PUSH2 0x2D99 JUMP JUMPDEST PUSH1 0x1 DUP1 PUSH1 0x14 PUSH2 0x100 EXP DUP2 SLOAD DUP2 PUSH1 0xFF MUL NOT AND SWAP1 DUP4 ISZERO ISZERO MUL OR SWAP1 SSTORE POP PUSH32 0x62E78CEA01BEE320CD4E420270B5EA74000D11B0C9F74754EBDBFC544B05A258 PUSH2 0x2FD2 PUSH2 0x31EF JUMP JUMPDEST PUSH1 0x40 MLOAD PUSH2 0x2FDF SWAP2 SWAP1 PUSH2 0x35EC JUMP JUMPDEST PUSH1 0x40 MLOAD DUP1 SWAP2 SUB SWAP1 LOG1 JUMP JUMPDEST PUSH2 0x3065 DUP5 DUP6 PUSH20 0xFFFFFFFFFFFFFFFFFFFFFFFFFFFFFFFFFFFFFFFF AND PUSH4 0x23B872DD DUP7 DUP7 DUP7 PUSH1 0x40 MLOAD PUSH1 0x24 ADD PUSH2 0x301E SWAP4 SWAP3 SWAP2 SWAP1 PUSH2 0x3A7E JUMP JUMPDEST PUSH1 0x40 MLOAD PUSH1 0x20 DUP2 DUP4 SUB SUB DUP2 MSTORE SWAP1 PUSH1 0x40 MSTORE SWAP2 POP PUSH1 0xE0 SHL PUSH1 0x20 DUP3 ADD DUP1 MLOAD PUSH28 0xFFFFFFFFFFFFFFFFFFFFFFFFFFFFFFFFFFFFFFFFFFFFFFFFFFFFFFFF DUP4 DUP2 DUP4 AND OR DUP4 MSTORE POP POP POP POP PUSH2 0x31F6 JUMP JUMPDEST POP POP POP POP JUMP JUMPDEST PUSH0 PUSH20 0xFFFFFFFFFFFFFFFFFFFFFFFFFFFFFFFFFFFFFFFF AND DUP4 PUSH20 0xFFFFFFFFFFFFFFFFFFFFFFFFFFFFFFFFFFFFFFFF AND SUB PUSH2 0x30F6 JUMPI DUP1 PUSH1 0x8 PUSH0 DUP5 PUSH20 0xFFFFFFFFFFFFFFFFFFFFFFFFFFFFFFFFFFFFFFFF AND PUSH20 0xFFFFFFFFFFFFFFFFFFFFFFFFFFFFFFFFFFFFFFFF AND DUP2 MSTORE PUSH1 0x20 ADD SWAP1 DUP2 MSTORE PUSH1 0x20 ADD PUSH0 KECCAK256 PUSH0 DUP3 DUP3 SLOAD PUSH2 0x30EA SWAP2 SWAP1 PUSH2 0x39A2 JUMP JUMPDEST SWAP3 POP POP DUP2 SWAP1 SSTORE POP PUSH2 0x3185 JUMP JUMPDEST DUP1 PUSH1 0x9 PUSH0 DUP5 PUSH20 0xFFFFFFFFFFFFFFFFFFFFFFFFFFFFFFFFFFFFFFFF AND PUSH20 0xFFFFFFFFFFFFFFFFFFFFFFFFFFFFFFFFFFFFFFFF AND DUP2 MSTORE PUSH1 0x20 ADD SWAP1 DUP2 MSTORE PUSH1 0x20 ADD PUSH0 KECCAK256 PUSH0 DUP6 PUSH20 0xFFFFFFFFFFFFFFFFFFFFFFFFFFFFFFFFFFFFFFFF AND PUSH20 0xFFFFFFFFFFFFFFFFFFFFFFFFFFFFFFFFFFFFFFFF AND DUP2 MSTORE PUSH1 0x20 ADD SWAP1 DUP2 MSTORE PUSH1 0x20 ADD PUSH0 KECCAK256 PUSH0 DUP3 DUP3 SLOAD PUSH2 0x317D SWAP2 SWAP1 PUSH2 0x39A2 JUMP JUMPDEST SWAP3 POP POP DUP2 SWAP1 SSTORE POP JUMPDEST DUP3 PUSH20 0xFFFFFFFFFFFFFFFFFFFFFFFFFFFFFFFFFFFFFFFF AND DUP3 PUSH20 0xFFFFFFFFFFFFFFFFFFFFFFFFFFFFFFFFFFFFFFFF AND PUSH32 0x97DED04B4DD3DAB6C02011A161D44B56A32FC8DAC48EE2A011BC2BEED61B16E0 DUP4 PUSH1 0x40 MLOAD PUSH2 0x31E2 SWAP2 SWAP1 PUSH2 0x3389 JUMP JUMPDEST PUSH1 0x40 MLOAD DUP1 SWAP2 SUB SWAP1 LOG3 POP POP POP JUMP JUMPDEST PUSH0 CALLER SWAP1 POP SWAP1 JUMP JUMPDEST PUSH0 DUP1 PUSH1 0x20 PUSH0 DUP5 MLOAD PUSH1 0x20 DUP7 ADD PUSH0 DUP9 GAS CALL DUP1 PUSH2 0x3215 JUMPI PUSH1 0x40 MLOAD RETURNDATASIZE PUSH0 DUP3 RETURNDATACOPY RETURNDATASIZE DUP2 REVERT JUMPDEST RETURNDATASIZE SWAP3 POP PUSH0 MLOAD SWAP2 POP POP PUSH0 DUP3 EQ PUSH2 0x322E JUMPI PUSH1 0x1 DUP2 EQ ISZERO PUSH2 0x3249 JUMP JUMPDEST PUSH0 DUP5 PUSH20 0xFFFFFFFFFFFFFFFFFFFFFFFFFFFFFFFFFFFFFFFF AND EXTCODESIZE EQ JUMPDEST ISZERO PUSH2 0x328B JUMPI DUP4 PUSH1 0x40 MLOAD PUSH32 0x5274AFE700000000000000000000000000000000000000000000000000000000 DUP2 MSTORE PUSH1 0x4 ADD PUSH2 0x3282 SWAP2 SWAP1 PUSH2 0x35EC JUMP JUMPDEST PUSH1 0x40 MLOAD DUP1 SWAP2 SUB SWAP1 REVERT JUMPDEST POP POP POP POP JUMP JUMPDEST PUSH2 0x3299 PUSH2 0x19A1 JUMP JUMPDEST PUSH2 0x32CF JUMPI PUSH1 0x40 MLOAD PUSH32 0x8DFC202B00000000000000000000000000000000000000000000000000000000 DUP2 MSTORE PUSH1 0x4 ADD PUSH1 0x40 MLOAD DUP1 SWAP2 SUB SWAP1 REVERT JUMPDEST JUMP JUMPDEST PUSH0 DUP1 REVERT JUMPDEST PUSH0 DUP1 REVERT JUMPDEST PUSH0 PUSH20 0xFFFFFFFFFFFFFFFFFFFFFFFFFFFFFFFFFFFFFFFF DUP3 AND SWAP1 POP SWAP2 SWAP1 POP JUMP JUMPDEST PUSH0 PUSH2 0x3302 DUP3 PUSH2 0x32D9 JUMP JUMPDEST SWAP1 POP SWAP2 SWAP1 POP JUMP JUMPDEST PUSH2 0x3312 DUP2 PUSH2 0x32F8 JUMP JUMPDEST DUP2 EQ PUSH2 0x331C JUMPI PUSH0 DUP1 REVERT JUMPDEST POP JUMP JUMPDEST PUSH0 DUP2 CALLDATALOAD SWAP1 POP PUSH2 0x332D DUP2 PUSH2 0x3309 JUMP JUMPDEST SWAP3 SWAP2 POP POP JUMP JUMPDEST PUSH0 DUP1 PUSH1 0x40 DUP4 DUP6 SUB SLT ISZERO PUSH2 0x3349 JUMPI PUSH2 0x3348 PUSH2 0x32D1 JUMP JUMPDEST JUMPDEST PUSH0 PUSH2 0x3356 DUP6 DUP3 DUP7 ADD PUSH2 0x331F JUMP JUMPDEST SWAP3 POP POP PUSH1 0x20 PUSH2 0x3367 DUP6 DUP3 DUP7 ADD PUSH2 0x331F JUMP JUMPDEST SWAP2 POP POP SWAP3 POP SWAP3 SWAP1 POP JUMP JUMPDEST PUSH0 DUP2 SWAP1 POP SWAP2 SWAP1 POP JUMP JUMPDEST PUSH2 0x3383 DUP2 PUSH2 0x3371 JUMP JUMPDEST DUP3 MSTORE POP POP JUMP JUMPDEST PUSH0 PUSH1 0x20 DUP3 ADD SWAP1 POP PUSH2 0x339C PUSH0 DUP4 ADD DUP5 PUSH2 0x337A JUMP JUMPDEST SWAP3 SWAP2 POP POP JUMP JUMPDEST PUSH2 0x33AB DUP2 PUSH2 0x3371 JUMP JUMPDEST DUP2 EQ PUSH2 0x33B5 JUMPI PUSH0 DUP1 REVERT JUMPDEST POP JUMP JUMPDEST PUSH0 DUP2 CALLDATALOAD SWAP1 POP PUSH2 0x33C6 DUP2 PUSH2 0x33A2 JUMP JUMPDEST SWAP3 SWAP2 POP POP JUMP JUMPDEST PUSH0 DUP1 REVERT JUMPDEST PUSH0 DUP1 REVERT JUMPDEST PUSH0 DUP1 REVERT JUMPDEST PUSH0 DUP1 DUP4 PUSH1 0x1F DUP5 ADD SLT PUSH2 0x33ED JUMPI PUSH2 0x33EC PUSH2 0x33CC JUMP JUMPDEST JUMPDEST DUP3 CALLDATALOAD SWAP1 POP PUSH8 0xFFFFFFFFFFFFFFFF DUP2 GT ISZERO PUSH2 0x340A JUMPI PUSH2 0x3409 PUSH2 0x33D0 JUMP JUMPDEST JUMPDEST PUSH1 0x20 DUP4 ADD SWAP2 POP DUP4 PUSH1 0x1 DUP3 MUL DUP4 ADD GT ISZERO PUSH2 0x3426 JUMPI PUSH2 0x3425 PUSH2 0x33D4 JUMP JUMPDEST JUMPDEST SWAP3 POP SWAP3 SWAP1 POP JUMP JUMPDEST PUSH0 DUP1 PUSH0 DUP1 PUSH0 PUSH1 0x80 DUP7 DUP9 SUB SLT ISZERO PUSH2 0x3446 JUMPI PUSH2 0x3445 PUSH2 0x32D1 JUMP JUMPDEST JUMPDEST PUSH0 PUSH2 0x3453 DUP9 DUP3 DUP10 ADD PUSH2 0x331F JUMP JUMPDEST SWAP6 POP POP PUSH1 0x20 PUSH2 0x3464 DUP9 DUP3 DUP10 ADD PUSH2 0x331F JUMP JUMPDEST SWAP5 POP POP PUSH1 0x40 PUSH2 0x3475 DUP9 DUP3 DUP10 ADD PUSH2 0x33B8 JUMP JUMPDEST SWAP4 POP POP PUSH1 0x60 DUP7 ADD CALLDATALOAD PUSH8 0xFFFFFFFFFFFFFFFF DUP2 GT ISZERO PUSH2 0x3496 JUMPI PUSH2 0x3495 PUSH2 0x32D5 JUMP JUMPDEST JUMPDEST PUSH2 0x34A2 DUP9 DUP3 DUP10 ADD PUSH2 0x33D8 JUMP JUMPDEST SWAP3 POP SWAP3 POP POP SWAP3 SWAP6 POP SWAP3 SWAP6 SWAP1 SWAP4 POP JUMP JUMPDEST PUSH0 PUSH32 0xFFFFFFFF00000000000000000000000000000000000000000000000000000000 DUP3 AND SWAP1 POP SWAP2 SWAP1 POP JUMP JUMPDEST PUSH2 0x34E5 DUP2 PUSH2 0x34B1 JUMP JUMPDEST DUP3 MSTORE POP POP JUMP JUMPDEST PUSH0 PUSH1 0x20 DUP3 ADD SWAP1 POP PUSH2 0x34FE PUSH0 DUP4 ADD DUP5 PUSH2 0x34DC JUMP JUMPDEST SWAP3 SWAP2 POP POP JUMP JUMPDEST PUSH0 PUSH1 0x20 DUP3 DUP5 SUB SLT ISZERO PUSH2 0x3519 JUMPI PUSH2 0x3518 PUSH2 0x32D1 JUMP JUMPDEST JUMPDEST PUSH0 PUSH2 0x3526 DUP5 DUP3 DUP6 ADD PUSH2 0x331F JUMP JUMPDEST SWAP2 POP POP SWAP3 SWAP2 POP POP JUMP JUMPDEST PUSH0 PUSH1 0x20 DUP3 DUP5 SUB SLT ISZERO PUSH2 0x3544 JUMPI PUSH2 0x3543 PUSH2 0x32D1 JUMP JUMPDEST JUMPDEST PUSH0 PUSH2 0x3551 DUP5 DUP3 DUP6 ADD PUSH2 0x33B8 JUMP JUMPDEST SWAP2 POP POP SWAP3 SWAP2 POP POP JUMP JUMPDEST PUSH0 DUP2 ISZERO ISZERO SWAP1 POP SWAP2 SWAP1 POP JUMP JUMPDEST PUSH2 0x356E DUP2 PUSH2 0x355A JUMP JUMPDEST DUP3 MSTORE POP POP JUMP JUMPDEST PUSH0 PUSH1 0x20 DUP3 ADD SWAP1 POP PUSH2 0x3587 PUSH0 DUP4 ADD DUP5 PUSH2 0x3565 JUMP JUMPDEST SWAP3 SWAP2 POP POP JUMP JUMPDEST PUSH0 DUP1 PUSH0 PUSH1 0x60 DUP5 DUP7 SUB SLT ISZERO PUSH2 0x35A4 JUMPI PUSH2 0x35A3 PUSH2 0x32D1 JUMP JUMPDEST JUMPDEST PUSH0 PUSH2 0x35B1 DUP7 DUP3 DUP8 ADD PUSH2 0x33B8 JUMP JUMPDEST SWAP4 POP POP PUSH1 0x20 PUSH2 0x35C2 DUP7 DUP3 DUP8 ADD PUSH2 0x331F JUMP JUMPDEST SWAP3 POP POP PUSH1 0x40 PUSH2 0x35D3 DUP7 DUP3 DUP8 ADD PUSH2 0x33B8 JUMP JUMPDEST SWAP2 POP POP SWAP3 POP SWAP3 POP SWAP3 JUMP JUMPDEST PUSH2 0x35E6 DUP2 PUSH2 0x32F8 JUMP JUMPDEST DUP3 MSTORE POP POP JUMP JUMPDEST PUSH0 PUSH1 0x20 DUP3 ADD SWAP1 POP PUSH2 0x35FF PUSH0 DUP4 ADD DUP5 PUSH2 0x35DD JUMP JUMPDEST SWAP3 SWAP2 POP POP JUMP JUMPDEST PUSH0 DUP1 PUSH0 PUSH1 0x60 DUP5 DUP7 SUB SLT ISZERO PUSH2 0x361C JUMPI PUSH2 0x361B PUSH2 0x32D1 JUMP JUMPDEST JUMPDEST PUSH0 PUSH2 0x3629 DUP7 DUP3 DUP8 ADD PUSH2 0x33B8 JUMP JUMPDEST SWAP4 POP POP PUSH1 0x20 PUSH2 0x363A DUP7 DUP3 DUP8 ADD PUSH2 0x33B8 JUMP JUMPDEST SWAP3 POP POP PUSH1 0x40 PUSH2 0x364B DUP7 DUP3 DUP8 ADD PUSH2 0x331F JUMP JUMPDEST SWAP2 POP POP SWAP3 POP SWAP3 POP SWAP3 JUMP JUMPDEST PUSH0 PUSH1 0xA0 DUP3 ADD SWAP1 POP PUSH2 0x3668 PUSH0 DUP4 ADD DUP9 PUSH2 0x35DD JUMP JUMPDEST PUSH2 0x3675 PUSH1 0x20 DUP4 ADD DUP8 PUSH2 0x337A JUMP JUMPDEST PUSH2 0x3682 PUSH1 0x40 DUP4 ADD DUP7 PUSH2 0x35DD JUMP JUMPDEST PUSH2 0x368F PUSH1 0x60 DUP4 ADD DUP6 PUSH2 0x337A JUMP JUMPDEST PUSH2 0x369C PUSH1 0x80 DUP4 ADD DUP5 PUSH2 0x3565 JUMP JUMPDEST SWAP7 SWAP6 POP POP POP POP POP POP JUMP JUMPDEST PUSH0 PUSH1 0x40 DUP3 ADD SWAP1 POP PUSH2 0x36B9 PUSH0 DUP4 ADD DUP6 PUSH2 0x35DD JUMP JUMPDEST PUSH2 0x36C6 PUSH1 0x20 DUP4 ADD DUP5 PUSH2 0x337A JUMP JUMPDEST SWAP4 SWAP3 POP POP POP JUMP JUMPDEST PUSH0 DUP3 DUP3 MSTORE PUSH1 0x20 DUP3 ADD SWAP1 POP SWAP3 SWAP2 POP POP JUMP JUMPDEST PUSH32 0x496E76616C696420616464726573730000000000000000000000000000000000 PUSH0 DUP3 ADD MSTORE POP JUMP JUMPDEST PUSH0 PUSH2 0x3711 PUSH1 0xF DUP4 PUSH2 0x36CD JUMP JUMPDEST SWAP2 POP PUSH2 0x371C DUP3 PUSH2 0x36DD JUMP JUMPDEST PUSH1 0x20 DUP3 ADD SWAP1 POP SWAP2 SWAP1 POP JUMP JUMPDEST PUSH0 PUSH1 0x20 DUP3 ADD SWAP1 POP DUP2 DUP2 SUB PUSH0 DUP4 ADD MSTORE PUSH2 0x373E DUP2 PUSH2 0x3705 JUMP JUMPDEST SWAP1 POP SWAP2 SWAP1 POP JUMP JUMPDEST PUSH0 PUSH1 0x40 DUP3 ADD SWAP1 POP PUSH2 0x3758 PUSH0 DUP4 ADD DUP6 PUSH2 0x35DD JUMP JUMPDEST PUSH2 0x3765 PUSH1 0x20 DUP4 ADD DUP5 PUSH2 0x35DD JUMP JUMPDEST SWAP4 SWAP3 POP POP POP JUMP JUMPDEST PUSH32 0x4C697374696E67206E6F74206163746976650000000000000000000000000000 PUSH0 DUP3 ADD MSTORE POP JUMP JUMPDEST PUSH0 PUSH2 0x37A0 PUSH1 0x12 DUP4 PUSH2 0x36CD JUMP JUMPDEST SWAP2 POP PUSH2 0x37AB DUP3 PUSH2 0x376C JUMP JUMPDEST PUSH1 0x20 DUP3 ADD SWAP1 POP SWAP2 SWAP1 POP JUMP JUMPDEST PUSH0 PUSH1 0x20 DUP3 ADD SWAP1 POP DUP2 DUP2 SUB PUSH0 DUP4 ADD MSTORE PUSH2 0x37CD DUP2 PUSH2 0x3794 JUMP JUMPDEST SWAP1 POP SWAP2 SWAP1 POP JUMP JUMPDEST PUSH32 0x4F6E6C792073656C6C65722063616E2061636365707420626964000000000000 PUSH0 DUP3 ADD MSTORE POP JUMP JUMPDEST PUSH0 PUSH2 0x3808 PUSH1 0x1A DUP4 PUSH2 0x36CD JUMP JUMPDEST SWAP2 POP PUSH2 0x3813 DUP3 PUSH2 0x37D4 JUMP JUMPDEST PUSH1 0x20 DUP3 ADD SWAP1 POP SWAP2 SWAP1 POP JUMP JUMPDEST PUSH0 PUSH1 0x20 DUP3 ADD SWAP1 POP DUP2 DUP2 SUB PUSH0 DUP4 ADD MSTORE PUSH2 0x3835 DUP2 PUSH2 0x37FC JUMP JUMPDEST SWAP1 POP SWAP2 SWAP1 POP JUMP JUMPDEST PUSH32 0x4E6F206163746976652062696400000000000000000000000000000000000000 PUSH0 DUP3 ADD MSTORE POP JUMP JUMPDEST PUSH0 PUSH2 0x3870 PUSH1 0xD DUP4 PUSH2 0x36CD JUMP JUMPDEST SWAP2 POP PUSH2 0x387B DUP3 PUSH2 0x383C JUMP JUMPDEST PUSH1 0x20 DUP3 ADD SWAP1 POP SWAP2 SWAP1 POP JUMP JUMPDEST PUSH0 PUSH1 0x20 DUP3 ADD SWAP1 POP DUP2 DUP2 SUB PUSH0 DUP4 ADD MSTORE PUSH2 0x389D DUP2 PUSH2 0x3864 JUMP JUMPDEST SWAP1 POP SWAP2 SWAP1 POP JUMP JUMPDEST PUSH32 0x4E487B7100000000000000000000000000000000000000000000000000000000 PUSH0 MSTORE PUSH1 0x11 PUSH1 0x4 MSTORE PUSH1 0x24 PUSH0 REVERT JUMPDEST PUSH0 PUSH2 0x38DB DUP3 PUSH2 0x3371 JUMP JUMPDEST SWAP2 POP PUSH2 0x38E6 DUP4 PUSH2 0x3371 JUMP JUMPDEST SWAP3 POP DUP3 DUP3 MUL PUSH2 0x38F4 DUP2 PUSH2 0x3371 JUMP JUMPDEST SWAP2 POP DUP3 DUP3 DIV DUP5 EQ DUP4 ISZERO OR PUSH2 0x390B JUMPI PUSH2 0x390A PUSH2 0x38A4 JUMP JUMPDEST JUMPDEST POP SWAP3 SWAP2 POP POP JUMP JUMPDEST PUSH32 0x4E487B7100000000000000000000000000000000000000000000000000000000 PUSH0 MSTORE PUSH1 0x12 PUSH1 0x4 MSTORE PUSH1 0x24 PUSH0 REVERT JUMPDEST PUSH0 PUSH2 0x3949 DUP3 PUSH2 0x3371 JUMP JUMPDEST SWAP2 POP PUSH2 0x3954 DUP4 PUSH2 0x3371 JUMP JUMPDEST SWAP3 POP DUP3 PUSH2 0x3964 JUMPI PUSH2 0x3963 PUSH2 0x3912 JUMP JUMPDEST JUMPDEST DUP3 DUP3 DIV SWAP1 POP SWAP3 SWAP2 POP POP JUMP JUMPDEST PUSH0 PUSH2 0x3979 DUP3 PUSH2 0x3371 JUMP JUMPDEST SWAP2 POP PUSH2 0x3984 DUP4 PUSH2 0x3371 JUMP JUMPDEST SWAP3 POP DUP3 DUP3 SUB SWAP1 POP DUP2 DUP2 GT ISZERO PUSH2 0x399C JUMPI PUSH2 0x399B PUSH2 0x38A4 JUMP JUMPDEST JUMPDEST SWAP3 SWAP2 POP POP JUMP JUMPDEST PUSH0 PUSH2 0x39AC DUP3 PUSH2 0x3371 JUMP JUMPDEST SWAP2 POP PUSH2 0x39B7 DUP4 PUSH2 0x3371 JUMP JUMPDEST SWAP3 POP DUP3 DUP3 ADD SWAP1 POP DUP1 DUP3 GT ISZERO PUSH2 0x39CF JUMPI PUSH2 0x39CE PUSH2 0x38A4 JUMP JUMPDEST JUMPDEST SWAP3 SWAP2 POP POP JUMP JUMPDEST PUSH0 DUP2 SWAP1 POP SWAP3 SWAP2 POP POP JUMP JUMPDEST POP JUMP JUMPDEST PUSH0 PUSH2 0x39ED PUSH0 DUP4 PUSH2 0x39D5 JUMP JUMPDEST SWAP2 POP PUSH2 0x39F8 DUP3 PUSH2 0x39DF JUMP JUMPDEST PUSH0 DUP3 ADD SWAP1 POP SWAP2 SWAP1 POP JUMP JUMPDEST PUSH0 PUSH2 0x3A0C DUP3 PUSH2 0x39E2 JUMP JUMPDEST SWAP2 POP DUP2 SWAP1 POP SWAP2 SWAP1 POP JUMP JUMPDEST PUSH32 0x455448207472616E73666572206661696C656400000000000000000000000000 PUSH0 DUP3 ADD MSTORE POP JUMP JUMPDEST PUSH0 PUSH2 0x3A4A PUSH1 0x13 DUP4 PUSH2 0x36CD JUMP JUMPDEST SWAP2 POP PUSH2 0x3A55 DUP3 PUSH2 0x3A16 JUMP JUMPDEST PUSH1 0x20 DUP3 ADD SWAP1 POP SWAP2 SWAP1 POP JUMP JUMPDEST PUSH0 PUSH1 0x20 DUP3 ADD SWAP1 POP DUP2 DUP2 SUB PUSH0 DUP4 ADD MSTORE PUSH2 0x3A77 DUP2 PUSH2 0x3A3E JUMP JUMPDEST SWAP1 POP SWAP2 SWAP1 POP JUMP JUMPDEST PUSH0 PUSH1 0x60 DUP3 ADD SWAP1 POP PUSH2 0x3A91 PUSH0 DUP4 ADD DUP7 PUSH2 0x35DD JUMP JUMPDEST PUSH2 0x3A9E PUSH1 0x20 DUP4 ADD DUP6 PUSH2 0x35DD JUMP JUMPDEST PUSH2 0x3AAB PUSH1 0x40 DUP4 ADD DUP5 PUSH2 0x337A JUMP JUMPDEST SWAP5 SWAP4 POP POP POP POP JUMP JUMPDEST PUSH32 0x4E6F74206C697374696E67206F776E6572000000000000000000000000000000 PUSH0 DUP3 ADD MSTORE POP JUMP JUMPDEST PUSH0 PUSH2 0x3AE7 PUSH1 0x11 DUP4 PUSH2 0x36CD JUMP JUMPDEST SWAP2 POP PUSH2 0x3AF2 DUP3 PUSH2 0x3AB3 JUMP JUMPDEST PUSH1 0x20 DUP3 ADD SWAP1 POP SWAP2 SWAP1 POP JUMP JUMPDEST PUSH0 PUSH1 0x20 DUP3 ADD SWAP1 POP DUP2 DUP2 SUB PUSH0 DUP4 ADD MSTORE PUSH2 0x3B14 DUP2 PUSH2 0x3ADB JUMP JUMPDEST SWAP1 POP SWAP2 SWAP1 POP JUMP JUMPDEST PUSH32 0x496E76616C696420666565000000000000000000000000000000000000000000 PUSH0 DUP3 ADD MSTORE POP JUMP JUMPDEST PUSH0 PUSH2 0x3B4F PUSH1 0xB DUP4 PUSH2 0x36CD JUMP JUMPDEST SWAP2 POP PUSH2 0x3B5A DUP3 PUSH2 0x3B1B JUMP JUMPDEST PUSH1 0x20 DUP3 ADD SWAP1 POP SWAP2 SWAP1 POP JUMP JUMPDEST PUSH0 PUSH1 0x20 DUP3 ADD SWAP1 POP DUP2 DUP2 SUB PUSH0 DUP4 ADD MSTORE PUSH2 0x3B7C DUP2 PUSH2 0x3B43 JUMP JUMPDEST SWAP1 POP SWAP2 SWAP1 POP JUMP JUMPDEST PUSH32 0x4E6F20726566756E6461626C6520616D6F756E74000000000000000000000000 PUSH0 DUP3 ADD MSTORE POP JUMP JUMPDEST PUSH0 PUSH2 0x3BB7 PUSH1 0x14 DUP4 PUSH2 0x36CD JUMP JUMPDEST SWAP2 POP PUSH2 0x3BC2 DUP3 PUSH2 0x3B83 JUMP JUMPDEST PUSH1 0x20 DUP3 ADD SWAP1 POP SWAP2 SWAP1 POP JUMP JUMPDEST PUSH0 PUSH1 0x20 DUP3 ADD SWAP1 POP DUP2 DUP2 SUB PUSH0 DUP4 ADD MSTORE PUSH2 0x3BE4 DUP2 PUSH2 0x3BAB JUMP JUMPDEST SWAP1 POP SWAP2 SWAP1 POP JUMP JUMPDEST PUSH32 0x496E73756666696369656E7420636F6E74726163742062616C616E6365000000 PUSH0 DUP3 ADD MSTORE POP JUMP JUMPDEST PUSH0 PUSH2 0x3C1F PUSH1 0x1D DUP4 PUSH2 0x36CD JUMP JUMPDEST SWAP2 POP PUSH2 0x3C2A DUP3 PUSH2 0x3BEB JUMP JUMPDEST PUSH1 0x20 DUP3 ADD SWAP1 POP SWAP2 SWAP1 POP JUMP JUMPDEST PUSH0 PUSH1 0x20 DUP3 ADD SWAP1 POP DUP2 DUP2 SUB PUSH0 DUP4 ADD MSTORE PUSH2 0x3C4C DUP2 PUSH2 0x3C13 JUMP JUMPDEST SWAP1 POP SWAP2 SWAP1 POP JUMP JUMPDEST PUSH32 0x45544820726566756E64206661696C6564000000000000000000000000000000 PUSH0 DUP3 ADD MSTORE POP JUMP JUMPDEST PUSH0 PUSH2 0x3C87 PUSH1 0x11 DUP4 PUSH2 0x36CD JUMP JUMPDEST SWAP2 POP PUSH2 0x3C92 DUP3 PUSH2 0x3C53 JUMP JUMPDEST PUSH1 0x20 DUP3 ADD SWAP1 POP SWAP2 SWAP1 POP JUMP JUMPDEST PUSH0 PUSH1 0x20 DUP3 ADD SWAP1 POP DUP2 DUP2 SUB PUSH0 DUP4 ADD MSTORE PUSH2 0x3CB4 DUP2 PUSH2 0x3C7B JUMP JUMPDEST SWAP1 POP SWAP2 SWAP1 POP JUMP JUMPDEST PUSH32 0x496E76616C6964206D6178206665650000000000000000000000000000000000 PUSH0 DUP3 ADD MSTORE POP JUMP JUMPDEST PUSH0 PUSH2 0x3CEF PUSH1 0xF DUP4 PUSH2 0x36CD JUMP JUMPDEST SWAP2 POP PUSH2 0x3CFA DUP3 PUSH2 0x3CBB JUMP JUMPDEST PUSH1 0x20 DUP3 ADD SWAP1 POP SWAP2 SWAP1 POP JUMP JUMPDEST PUSH0 PUSH1 0x20 DUP3 ADD SWAP1 POP DUP2 DUP2 SUB PUSH0 DUP4 ADD MSTORE PUSH2 0x3D1C DUP2 PUSH2 0x3CE3 JUMP JUMPDEST SWAP1 POP SWAP2 SWAP1 POP JUMP JUMPDEST PUSH32 0x4E6F20726566756E6461626C6520746F6B656E00000000000000000000000000 PUSH0 DUP3 ADD MSTORE POP JUMP JUMPDEST PUSH0 PUSH2 0x3D57 PUSH1 0x13 DUP4 PUSH2 0x36CD JUMP JUMPDEST SWAP2 POP PUSH2 0x3D62 DUP3 PUSH2 0x3D23 JUMP JUMPDEST PUSH1 0x20 DUP3 ADD SWAP1 POP SWAP2 SWAP1 POP JUMP JUMPDEST PUSH0 PUSH1 0x20 DUP3 ADD SWAP1 POP DUP2 DUP2 SUB PUSH0 DUP4 ADD MSTORE PUSH2 0x3D84 DUP2 PUSH2 0x3D4B JUMP JUMPDEST SWAP1 POP SWAP2 SWAP1 POP JUMP JUMPDEST PUSH0 DUP2 MLOAD SWAP1 POP PUSH2 0x3D99 DUP2 PUSH2 0x33A2 JUMP JUMPDEST SWAP3 SWAP2 POP POP JUMP JUMPDEST PUSH0 PUSH1 0x20 DUP3 DUP5 SUB SLT ISZERO PUSH2 0x3DB4 JUMPI PUSH2 0x3DB3 PUSH2 0x32D1 JUMP JUMPDEST JUMPDEST PUSH0 PUSH2 0x3DC1 DUP5 DUP3 DUP6 ADD PUSH2 0x3D8B JUMP JUMPDEST SWAP2 POP POP SWAP3 SWAP2 POP POP JUMP JUMPDEST PUSH32 0x496E73756666696369656E742062616C616E6365000000000000000000000000 PUSH0 DUP3 ADD MSTORE POP JUMP JUMPDEST PUSH0 PUSH2 0x3DFE PUSH1 0x14 DUP4 PUSH2 0x36CD JUMP JUMPDEST SWAP2 POP PUSH2 0x3E09 DUP3 PUSH2 0x3DCA JUMP JUMPDEST PUSH1 0x20 DUP3 ADD SWAP1 POP SWAP2 SWAP1 POP JUMP JUMPDEST PUSH0 PUSH1 0x20 DUP3 ADD SWAP1 POP DUP2 DUP2 SUB PUSH0 DUP4 ADD MSTORE PUSH2 0x3E2B DUP2 PUSH2 0x3DF2 JUMP JUMPDEST SWAP1 POP SWAP2 SWAP1 POP JUMP JUMPDEST PUSH0 DUP2 MLOAD SWAP1 POP PUSH2 0x3E40 DUP2 PUSH2 0x3309 JUMP JUMPDEST SWAP3 SWAP2 POP POP JUMP JUMPDEST PUSH0 PUSH1 0x20 DUP3 DUP5 SUB SLT ISZERO PUSH2 0x3E5B JUMPI PUSH2 0x3E5A PUSH2 0x32D1 JUMP JUMPDEST JUMPDEST PUSH0 PUSH2 0x3E68 DUP5 DUP3 DUP6 ADD PUSH2 0x3E32 JUMP JUMPDEST SWAP2 POP POP SWAP3 SWAP2 POP POP JUMP JUMPDEST PUSH32 0x4E6F74204E4654206F776E657200000000000000000000000000000000000000 PUSH0 DUP3 ADD MSTORE POP JUMP JUMPDEST PUSH0 PUSH2 0x3EA5 PUSH1 0xD DUP4 PUSH2 0x36CD JUMP JUMPDEST SWAP2 POP PUSH2 0x3EB0 DUP3 PUSH2 0x3E71 JUMP JUMPDEST PUSH1 0x20 DUP3 ADD SWAP1 POP SWAP2 SWAP1 POP JUMP JUMPDEST PUSH0 PUSH1 0x20 DUP3 ADD SWAP1 POP DUP2 DUP2 SUB PUSH0 DUP4 ADD MSTORE PUSH2 0x3ED2 DUP2 PUSH2 0x3E99 JUMP JUMPDEST SWAP1 POP SWAP2 SWAP1 POP JUMP JUMPDEST PUSH32 0x556E737570706F72746564207061796D656E7420746F6B656E00000000000000 PUSH0 DUP3 ADD MSTORE POP JUMP JUMPDEST PUSH0 PUSH2 0x3F0D PUSH1 0x19 DUP4 PUSH2 0x36CD JUMP JUMPDEST SWAP2 POP PUSH2 0x3F18 DUP3 PUSH2 0x3ED9 JUMP JUMPDEST PUSH1 0x20 DUP3 ADD SWAP1 POP SWAP2 SWAP1 POP JUMP JUMPDEST PUSH0 PUSH1 0x20 DUP3 ADD SWAP1 POP DUP2 DUP2 SUB PUSH0 DUP4 ADD MSTORE PUSH2 0x3F3A DUP2 PUSH2 0x3F01 JUMP JUMPDEST SWAP1 POP SWAP2 SWAP1 POP JUMP JUMPDEST PUSH32 0x50726963652073686F756C64206E6F74206265207A65726F0000000000000000 PUSH0 DUP3 ADD MSTORE POP JUMP JUMPDEST PUSH0 PUSH2 0x3F75 PUSH1 0x18 DUP4 PUSH2 0x36CD JUMP JUMPDEST SWAP2 POP PUSH2 0x3F80 DUP3 PUSH2 0x3F41 JUMP JUMPDEST PUSH1 0x20 DUP3 ADD SWAP1 POP SWAP2 SWAP1 POP JUMP JUMPDEST PUSH0 PUSH1 0x20 DUP3 ADD SWAP1 POP DUP2 DUP2 SUB PUSH0 DUP4 ADD MSTORE PUSH2 0x3FA2 DUP2 PUSH2 0x3F69 JUMP JUMPDEST SWAP1 POP SWAP2 SWAP1 POP JUMP JUMPDEST PUSH2 0x3FB2 DUP2 PUSH2 0x355A JUMP JUMPDEST DUP2 EQ PUSH2 0x3FBC JUMPI PUSH0 DUP1 REVERT JUMPDEST POP JUMP JUMPDEST PUSH0 DUP2 MLOAD SWAP1 POP PUSH2 0x3FCD DUP2 PUSH2 0x3FA9 JUMP JUMPDEST SWAP3 SWAP2 POP POP JUMP JUMPDEST PUSH0 PUSH1 0x20 DUP3 DUP5 SUB SLT ISZERO PUSH2 0x3FE8 JUMPI PUSH2 0x3FE7 PUSH2 0x32D1 JUMP JUMPDEST JUMPDEST PUSH0 PUSH2 0x3FF5 DUP5 DUP3 DUP6 ADD PUSH2 0x3FBF JUMP JUMPDEST SWAP2 POP POP SWAP3 SWAP2 POP POP JUMP JUMPDEST PUSH32 0x4E465420417070726F76616C2072657175697265640000000000000000000000 PUSH0 DUP3 ADD MSTORE POP JUMP JUMPDEST PUSH0 PUSH2 0x4032 PUSH1 0x15 DUP4 PUSH2 0x36CD JUMP JUMPDEST SWAP2 POP PUSH2 0x403D DUP3 PUSH2 0x3FFE JUMP JUMPDEST PUSH1 0x20 DUP3 ADD SWAP1 POP SWAP2 SWAP1 POP JUMP JUMPDEST PUSH0 PUSH1 0x20 DUP3 ADD SWAP1 POP DUP2 DUP2 SUB PUSH0 DUP4 ADD MSTORE PUSH2 0x405F DUP2 PUSH2 0x4026 JUMP JUMPDEST SWAP1 POP SWAP2 SWAP1 POP JUMP JUMPDEST PUSH32 0x4E6F20746F6B656E206561726E696E6773000000000000000000000000000000 PUSH0 DUP3 ADD MSTORE POP JUMP JUMPDEST PUSH0 PUSH2 0x409A PUSH1 0x11 DUP4 PUSH2 0x36CD JUMP JUMPDEST SWAP2 POP PUSH2 0x40A5 DUP3 PUSH2 0x4066 JUMP JUMPDEST PUSH1 0x20 DUP3 ADD SWAP1 POP SWAP2 SWAP1 POP JUMP JUMPDEST PUSH0 PUSH1 0x20 DUP3 ADD SWAP1 POP DUP2 DUP2 SUB PUSH0 DUP4 ADD MSTORE PUSH2 0x40C7 DUP2 PUSH2 0x408E JUMP JUMPDEST SWAP1 POP SWAP2 SWAP1 POP JUMP JUMPDEST PUSH32 0x596F7572206269642069732062656C6F77206D696E696D756D20707269636500 PUSH0 DUP3 ADD MSTORE POP JUMP JUMPDEST PUSH0 PUSH2 0x4102 PUSH1 0x1F DUP4 PUSH2 0x36CD JUMP JUMPDEST SWAP2 POP PUSH2 0x410D DUP3 PUSH2 0x40CE JUMP JUMPDEST PUSH1 0x20 DUP3 ADD SWAP1 POP SWAP2 SWAP1 POP JUMP JUMPDEST PUSH0 PUSH1 0x20 DUP3 ADD SWAP1 POP DUP2 DUP2 SUB PUSH0 DUP4 ADD MSTORE PUSH2 0x412F DUP2 PUSH2 0x40F6 JUMP JUMPDEST SWAP1 POP SWAP2 SWAP1 POP JUMP JUMPDEST PUSH32 0x496E76616C6964204554482076616C7565000000000000000000000000000000 PUSH0 DUP3 ADD MSTORE POP JUMP JUMPDEST PUSH0 PUSH2 0x416A PUSH1 0x11 DUP4 PUSH2 0x36CD JUMP JUMPDEST SWAP2 POP PUSH2 0x4175 DUP3 PUSH2 0x4136 JUMP JUMPDEST PUSH1 0x20 DUP3 ADD SWAP1 POP SWAP2 SWAP1 POP JUMP JUMPDEST PUSH0 PUSH1 0x20 DUP3 ADD SWAP1 POP DUP2 DUP2 SUB PUSH0 DUP4 ADD MSTORE PUSH2 0x4197 DUP2 PUSH2 0x415E JUMP JUMPDEST SWAP1 POP SWAP2 SWAP1 POP JUMP JUMPDEST PUSH32 0x426964206D75737420626520686967686572207468616E2063757272656E7420 PUSH0 DUP3 ADD MSTORE PUSH32 0x6269640000000000000000000000000000000000000000000000000000000000 PUSH1 0x20 DUP3 ADD MSTORE POP JUMP JUMPDEST PUSH0 PUSH2 0x41F8 PUSH1 0x23 DUP4 PUSH2 0x36CD JUMP JUMPDEST SWAP2 POP PUSH2 0x4203 DUP3 PUSH2 0x419E JUMP JUMPDEST PUSH1 0x40 DUP3 ADD SWAP1 POP SWAP2 SWAP1 POP JUMP JUMPDEST PUSH0 PUSH1 0x20 DUP3 ADD SWAP1 POP DUP2 DUP2 SUB PUSH0 DUP4 ADD MSTORE PUSH2 0x4225 DUP2 PUSH2 0x41EC JUMP JUMPDEST SWAP1 POP SWAP2 SWAP1 POP JUMP JUMPDEST PUSH32 0x4E6F2045544820746F2077697468647261770000000000000000000000000000 PUSH0 DUP3 ADD MSTORE POP JUMP JUMPDEST PUSH0 PUSH2 0x4260 PUSH1 0x12 DUP4 PUSH2 0x36CD JUMP JUMPDEST SWAP2 POP PUSH2 0x426B DUP3 PUSH2 0x422C JUMP JUMPDEST PUSH1 0x20 DUP3 ADD SWAP1 POP SWAP2 SWAP1 POP JUMP JUMPDEST PUSH0 PUSH1 0x20 DUP3 ADD SWAP1 POP DUP2 DUP2 SUB PUSH0 DUP4 ADD MSTORE PUSH2 0x428D DUP2 PUSH2 0x4254 JUMP JUMPDEST SWAP1 POP SWAP2 SWAP1 POP JUMP INVALID LOG2 PUSH5 0x6970667358 0x22 SLT KECCAK256 PUSH1 0x6E 0x2E 0x4D 0x29 DUP2 0xC9 PUSH25 0x35838257C1C2986C77F08DD85EEF0AFC2D2A226D66B174F364 PUSH20 0x6F6C634300081800330000000000000000000000 "
				},
				"gasEstimates": {
					"creation": {
						"codeDepositCost": "3419600",
						"executionCost": "infinite",
						"totalCost": "infinite"
					},
					"external": {
						"FEE_DENOMINATOR()": "436",
						"MAX_FEE()": "2536",
						"MLIFE()": "2641",
						"acceptBid(uint256)": "infinite",
						"adminsEthEarnings()": "2470",
						"adminsTokenEarnings(address)": "2869",
						"cancelListing(uint256)": "infinite",
						"createListing(uint256,address,uint256)": "infinite",
						"currentBids(uint256)": "infinite",
						"ethRefundsForBidders(address)": "2868",
						"listings(uint256)": "infinite",
						"marketplaceFee()": "2514",
						"nftContract()": "2597",
						"onERC721Received(address,address,uint256,bytes)": "infinite",
						"owner()": "2605",
						"pause()": "infinite",
						"paused()": "2569",
						"placeBid(uint256,uint256,address)": "infinite",
						"renounceOwnership()": "infinite",
						"tokenRefundsForBidders(address,address)": "infinite",
						"tokenUSDC()": "2575",
						"tokenUSDT()": "2553",
						"transferOwnership(address)": "infinite",
						"unpause()": "infinite",
						"updateMLifeTokenAddress(address)": "infinite",
						"updateMarketplaceFee(uint256)": "infinite",
						"updateMaxFee(uint256)": "infinite",
						"updateNftContract(address)": "infinite",
						"updateUsdcTokenAddress(address)": "infinite",
						"updateUsdtTokenAddress(address)": "infinite",
						"withdrawAdminEthEarnings()": "infinite",
						"withdrawAdminTokenEarnings(address)": "infinite",
						"withdrawEthRefunds()": "infinite",
						"withdrawTokenRefunds(address)": "infinite"
					},
					"internal": {
						"_refundBid(address,address,uint256)": "infinite"
					}
				},
				"methodIdentifiers": {
					"FEE_DENOMINATOR()": "d73792a9",
					"MAX_FEE()": "bc063e1a",
					"MLIFE()": "72973791",
					"acceptBid(uint256)": "2b1fd58a",
					"adminsEthEarnings()": "bf6aee98",
					"adminsTokenEarnings(address)": "a3269b09",
					"cancelListing(uint256)": "305a67a8",
					"createListing(uint256,address,uint256)": "65c11bf0",
					"currentBids(uint256)": "ff743e89",
					"ethRefundsForBidders(address)": "ed952ccd",
					"listings(uint256)": "de74e57b",
					"marketplaceFee()": "6a166964",
					"nftContract()": "d56d229d",
					"onERC721Received(address,address,uint256,bytes)": "150b7a02",
					"owner()": "8da5cb5b",
					"pause()": "8456cb59",
					"paused()": "5c975abb",
					"placeBid(uint256,uint256,address)": "ad6561ec",
					"renounceOwnership()": "715018a6",
					"tokenRefundsForBidders(address,address)": "0382d424",
					"tokenUSDC()": "c86d4040",
					"tokenUSDT()": "99c5c8aa",
					"transferOwnership(address)": "f2fde38b",
					"unpause()": "3f4ba83a",
					"updateMLifeTokenAddress(address)": "1f8ca0b5",
					"updateMarketplaceFee(uint256)": "30eb80cd",
					"updateMaxFee(uint256)": "550dddeb",
					"updateNftContract(address)": "92e67c06",
					"updateUsdcTokenAddress(address)": "1e534be6",
					"updateUsdtTokenAddress(address)": "4c97cf7c",
					"withdrawAdminEthEarnings()": "fd95c739",
					"withdrawAdminTokenEarnings(address)": "884282a1",
					"withdrawEthRefunds()": "52fb6541",
					"withdrawTokenRefunds(address)": "5c3b37db"
				}
			},
			"storageLayout": {
				"storage": [
					{
						"astId": 2214,
						"contract": "0x81906929b10416a65A305d498267fE20adfC4746/contracts/Marketplace.sol:Marketplace",
						"label": "_status",
						"offset": 0,
						"slot": "0",
						"type": "t_uint256"
					},
					{
						"astId": 1205,
						"contract": "0x81906929b10416a65A305d498267fE20adfC4746/contracts/Marketplace.sol:Marketplace",
						"label": "_owner",
						"offset": 0,
						"slot": "1",
						"type": "t_address"
					},
					{
						"astId": 2095,
						"contract": "0x81906929b10416a65A305d498267fE20adfC4746/contracts/Marketplace.sol:Marketplace",
						"label": "_paused",
						"offset": 20,
						"slot": "1",
						"type": "t_bool"
					},
					{
						"astId": 40,
						"contract": "0x81906929b10416a65A305d498267fE20adfC4746/contracts/Marketplace.sol:Marketplace",
						"label": "marketplaceFee",
						"offset": 0,
						"slot": "2",
						"type": "t_uint256"
					},
					{
						"astId": 46,
						"contract": "0x81906929b10416a65A305d498267fE20adfC4746/contracts/Marketplace.sol:Marketplace",
						"label": "MAX_FEE",
						"offset": 0,
						"slot": "3",
						"type": "t_uint256"
					},
					{
						"astId": 48,
						"contract": "0x81906929b10416a65A305d498267fE20adfC4746/contracts/Marketplace.sol:Marketplace",
						"label": "adminsEthEarnings",
						"offset": 0,
						"slot": "4",
						"type": "t_uint256"
					},
					{
						"astId": 52,
						"contract": "0x81906929b10416a65A305d498267fE20adfC4746/contracts/Marketplace.sol:Marketplace",
						"label": "adminsTokenEarnings",
						"offset": 0,
						"slot": "5",
						"type": "t_mapping(t_address,t_uint256)"
					},
					{
						"astId": 57,
						"contract": "0x81906929b10416a65A305d498267fE20adfC4746/contracts/Marketplace.sol:Marketplace",
						"label": "listings",
						"offset": 0,
						"slot": "6",
						"type": "t_mapping(t_uint256,t_struct(Listing)32_storage)"
					},
					{
						"astId": 62,
						"contract": "0x81906929b10416a65A305d498267fE20adfC4746/contracts/Marketplace.sol:Marketplace",
						"label": "currentBids",
						"offset": 0,
						"slot": "7",
						"type": "t_mapping(t_uint256,t_struct(Bid)37_storage)"
					},
					{
						"astId": 66,
						"contract": "0x81906929b10416a65A305d498267fE20adfC4746/contracts/Marketplace.sol:Marketplace",
						"label": "ethRefundsForBidders",
						"offset": 0,
						"slot": "8",
						"type": "t_mapping(t_address,t_uint256)"
					},
					{
						"astId": 72,
						"contract": "0x81906929b10416a65A305d498267fE20adfC4746/contracts/Marketplace.sol:Marketplace",
						"label": "tokenRefundsForBidders",
						"offset": 0,
						"slot": "9",
						"type": "t_mapping(t_address,t_mapping(t_address,t_uint256))"
					},
					{
						"astId": 74,
						"contract": "0x81906929b10416a65A305d498267fE20adfC4746/contracts/Marketplace.sol:Marketplace",
						"label": "MLIFE",
						"offset": 0,
						"slot": "10",
						"type": "t_address"
					},
					{
						"astId": 76,
						"contract": "0x81906929b10416a65A305d498267fE20adfC4746/contracts/Marketplace.sol:Marketplace",
						"label": "tokenUSDT",
						"offset": 0,
						"slot": "11",
						"type": "t_address"
					},
					{
						"astId": 78,
						"contract": "0x81906929b10416a65A305d498267fE20adfC4746/contracts/Marketplace.sol:Marketplace",
						"label": "tokenUSDC",
						"offset": 0,
						"slot": "12",
						"type": "t_address"
					},
					{
						"astId": 80,
						"contract": "0x81906929b10416a65A305d498267fE20adfC4746/contracts/Marketplace.sol:Marketplace",
						"label": "nftContract",
						"offset": 0,
						"slot": "13",
						"type": "t_address"
					}
				],
				"types": {
					"t_address": {
						"encoding": "inplace",
						"label": "address",
						"numberOfBytes": "20"
					},
					"t_bool": {
						"encoding": "inplace",
						"label": "bool",
						"numberOfBytes": "1"
					},
					"t_mapping(t_address,t_mapping(t_address,t_uint256))": {
						"encoding": "mapping",
						"key": "t_address",
						"label": "mapping(address => mapping(address => uint256))",
						"numberOfBytes": "32",
						"value": "t_mapping(t_address,t_uint256)"
					},
					"t_mapping(t_address,t_uint256)": {
						"encoding": "mapping",
						"key": "t_address",
						"label": "mapping(address => uint256)",
						"numberOfBytes": "32",
						"value": "t_uint256"
					},
					"t_mapping(t_uint256,t_struct(Bid)37_storage)": {
						"encoding": "mapping",
						"key": "t_uint256",
						"label": "mapping(uint256 => struct Marketplace.Bid)",
						"numberOfBytes": "32",
						"value": "t_struct(Bid)37_storage"
					},
					"t_mapping(t_uint256,t_struct(Listing)32_storage)": {
						"encoding": "mapping",
						"key": "t_uint256",
						"label": "mapping(uint256 => struct Marketplace.Listing)",
						"numberOfBytes": "32",
						"value": "t_struct(Listing)32_storage"
					},
					"t_struct(Bid)37_storage": {
						"encoding": "inplace",
						"label": "struct Marketplace.Bid",
						"members": [
							{
								"astId": 34,
								"contract": "0x81906929b10416a65A305d498267fE20adfC4746/contracts/Marketplace.sol:Marketplace",
								"label": "bidder",
								"offset": 0,
								"slot": "0",
								"type": "t_address"
							},
							{
								"astId": 36,
								"contract": "0x81906929b10416a65A305d498267fE20adfC4746/contracts/Marketplace.sol:Marketplace",
								"label": "amount",
								"offset": 0,
								"slot": "1",
								"type": "t_uint256"
							}
						],
						"numberOfBytes": "64"
					},
					"t_struct(Listing)32_storage": {
						"encoding": "inplace",
						"label": "struct Marketplace.Listing",
						"members": [
							{
								"astId": 23,
								"contract": "0x81906929b10416a65A305d498267fE20adfC4746/contracts/Marketplace.sol:Marketplace",
								"label": "seller",
								"offset": 0,
								"slot": "0",
								"type": "t_address"
							},
							{
								"astId": 25,
								"contract": "0x81906929b10416a65A305d498267fE20adfC4746/contracts/Marketplace.sol:Marketplace",
								"label": "tokenId",
								"offset": 0,
								"slot": "1",
								"type": "t_uint256"
							},
							{
								"astId": 27,
								"contract": "0x81906929b10416a65A305d498267fE20adfC4746/contracts/Marketplace.sol:Marketplace",
								"label": "paymentToken",
								"offset": 0,
								"slot": "2",
								"type": "t_address"
							},
							{
								"astId": 29,
								"contract": "0x81906929b10416a65A305d498267fE20adfC4746/contracts/Marketplace.sol:Marketplace",
								"label": "minPrice",
								"offset": 0,
								"slot": "3",
								"type": "t_uint256"
							},
							{
								"astId": 31,
								"contract": "0x81906929b10416a65A305d498267fE20adfC4746/contracts/Marketplace.sol:Marketplace",
								"label": "active",
								"offset": 0,
								"slot": "4",
								"type": "t_bool"
							}
						],
						"numberOfBytes": "160"
					},
					"t_uint256": {
						"encoding": "inplace",
						"label": "uint256",
						"numberOfBytes": "32"
					}
				}
			},
			"userdoc": {
				"kind": "user",
				"methods": {},
				"notice": "This smart contract is used within the ManageLife ecosystem for buying and selling MLRE properties",
				"version": 1
			}
		}
	}
}